{
	"Final Project/jobselec.sol": {
		"JobSelection": {
			"abi": [
				{
					"inputs": [],
					"stateMutability": "nonpayable",
					"type": "constructor"
				},
				{
					"anonymous": false,
					"inputs": [
						{
							"indexed": false,
							"internalType": "uint256",
							"name": "id",
							"type": "uint256"
						},
						{
							"indexed": false,
							"internalType": "string",
							"name": "name",
							"type": "string"
						},
						{
							"indexed": false,
							"internalType": "address",
							"name": "candidateAddress",
							"type": "address"
						}
					],
					"name": "CandidateRegistered",
					"type": "event"
				},
				{
					"anonymous": false,
					"inputs": [
						{
							"indexed": false,
							"internalType": "uint256",
							"name": "id",
							"type": "uint256"
						},
						{
							"indexed": false,
							"internalType": "string",
							"name": "category",
							"type": "string"
						},
						{
							"indexed": false,
							"internalType": "string",
							"name": "status",
							"type": "string"
						}
					],
					"name": "StatusUpdated",
					"type": "event"
				},
				{
					"inputs": [],
					"name": "admin",
					"outputs": [
						{
							"internalType": "address",
							"name": "",
							"type": "address"
						}
					],
					"stateMutability": "view",
					"type": "function"
				},
				{
					"inputs": [
						{
							"internalType": "address",
							"name": "_authority",
							"type": "address"
						}
					],
					"name": "authorizeAuthority",
					"outputs": [],
					"stateMutability": "nonpayable",
					"type": "function"
				},
				{
					"inputs": [
						{
							"internalType": "address",
							"name": "",
							"type": "address"
						}
					],
					"name": "authorizedAuthorities",
					"outputs": [
						{
							"internalType": "bool",
							"name": "",
							"type": "bool"
						}
					],
					"stateMutability": "view",
					"type": "function"
				},
				{
					"inputs": [],
					"name": "candidateCount",
					"outputs": [
						{
							"internalType": "uint256",
							"name": "",
							"type": "uint256"
						}
					],
					"stateMutability": "view",
					"type": "function"
				},
				{
					"inputs": [
						{
							"internalType": "uint256",
							"name": "",
							"type": "uint256"
						}
					],
					"name": "candidates",
					"outputs": [
						{
							"internalType": "uint256",
							"name": "id",
							"type": "uint256"
						},
						{
							"internalType": "string",
							"name": "name",
							"type": "string"
						},
						{
							"internalType": "string",
							"name": "aadhar",
							"type": "string"
						},
						{
							"internalType": "string",
							"name": "qualification",
							"type": "string"
						},
						{
							"internalType": "address",
							"name": "candidateAddress",
							"type": "address"
						}
					],
					"stateMutability": "view",
					"type": "function"
				},
				{
					"inputs": [
						{
							"internalType": "uint256",
							"name": "_id",
							"type": "uint256"
						}
					],
					"name": "getCandidate",
					"outputs": [
						{
							"internalType": "uint256",
							"name": "",
							"type": "uint256"
						},
						{
							"internalType": "string",
							"name": "",
							"type": "string"
						},
						{
							"internalType": "string",
							"name": "",
							"type": "string"
						},
						{
							"internalType": "string",
							"name": "",
							"type": "string"
						},
						{
							"internalType": "address",
							"name": "",
							"type": "address"
						}
					],
					"stateMutability": "view",
					"type": "function"
				},
				{
					"inputs": [
						{
							"internalType": "uint256",
							"name": "_id",
							"type": "uint256"
						},
						{
							"internalType": "string",
							"name": "_category",
							"type": "string"
						}
					],
					"name": "getCandidateStatus",
					"outputs": [
						{
							"internalType": "string",
							"name": "",
							"type": "string"
						}
					],
					"stateMutability": "view",
					"type": "function"
				},
				{
					"inputs": [
						{
							"internalType": "string",
							"name": "_name",
							"type": "string"
						},
						{
							"internalType": "string",
							"name": "_aadhar",
							"type": "string"
						},
						{
							"internalType": "string",
							"name": "_qualification",
							"type": "string"
						}
					],
					"name": "registerCandidate",
					"outputs": [],
					"stateMutability": "nonpayable",
					"type": "function"
				},
				{
					"inputs": [
						{
							"internalType": "address",
							"name": "_authority",
							"type": "address"
						}
					],
					"name": "removeAuthority",
					"outputs": [],
					"stateMutability": "nonpayable",
					"type": "function"
				},
				{
					"inputs": [
						{
							"internalType": "uint256",
							"name": "_id",
							"type": "uint256"
						},
						{
							"internalType": "string",
							"name": "_category",
							"type": "string"
						},
						{
							"internalType": "string",
							"name": "_status",
							"type": "string"
						}
					],
					"name": "updateStatus",
					"outputs": [],
					"stateMutability": "nonpayable",
					"type": "function"
				}
			],
			"devdoc": {
				"kind": "dev",
				"methods": {},
				"version": 1
			},
			"evm": {
				"assembly": "    /* \"Final Project/jobselec.sol\":60:2631  contract JobSelection {... */\n  mstore(0x40, 0x80)\n    /* \"Final Project/jobselec.sol\":362:363  0 */\n  0x00\n    /* \"Final Project/jobselec.sol\":333:363  uint public candidateCount = 0 */\n  0x01\n  sstore\n    /* \"Final Project/jobselec.sol\":911:962  constructor() {... */\n  callvalue\n  dup1\n  iszero\n  tag_1\n  jumpi\n  0x00\n  dup1\n  revert\ntag_1:\n  pop\n    /* \"Final Project/jobselec.sol\":944:954  msg.sender */\n  caller\n    /* \"Final Project/jobselec.sol\":936:941  admin */\n  0x00\n  dup1\n    /* \"Final Project/jobselec.sol\":936:954  admin = msg.sender */\n  0x0100\n  exp\n  dup2\n  sload\n  dup2\n  0xffffffffffffffffffffffffffffffffffffffff\n  mul\n  not\n  and\n  swap1\n  dup4\n  0xffffffffffffffffffffffffffffffffffffffff\n  and\n  mul\n  or\n  swap1\n  sstore\n  pop\n    /* \"Final Project/jobselec.sol\":60:2631  contract JobSelection {... */\n  dataSize(sub_0)\n  dup1\n  dataOffset(sub_0)\n  0x00\n  codecopy\n  0x00\n  return\nstop\n\nsub_0: assembly {\n        /* \"Final Project/jobselec.sol\":60:2631  contract JobSelection {... */\n      mstore(0x40, 0x80)\n      callvalue\n      dup1\n      iszero\n      tag_1\n      jumpi\n      0x00\n      dup1\n      revert\n    tag_1:\n      pop\n      jumpi(tag_2, lt(calldatasize, 0x04))\n      shr(0xe0, calldataload(0x00))\n      dup1\n      0xa9a981a3\n      gt\n      tag_13\n      jumpi\n      dup1\n      0xa9a981a3\n      eq\n      tag_8\n      jumpi\n      dup1\n      0xb49dbfc2\n      eq\n      tag_9\n      jumpi\n      dup1\n      0xb4a01858\n      eq\n      tag_10\n      jumpi\n      dup1\n      0xd544e010\n      eq\n      tag_11\n      jumpi\n      dup1\n      0xf851a440\n      eq\n      tag_12\n      jumpi\n      jump(tag_2)\n    tag_13:\n      dup1\n      0x3477ee2e\n      eq\n      tag_3\n      jumpi\n      dup1\n      0x35b8e820\n      eq\n      tag_4\n      jumpi\n      dup1\n      0x35c3c876\n      eq\n      tag_5\n      jumpi\n      dup1\n      0x4b21a7c7\n      eq\n      tag_6\n      jumpi\n      dup1\n      0x66dc4015\n      eq\n      tag_7\n      jumpi\n    tag_2:\n      0x00\n      dup1\n      revert\n        /* \"Final Project/jobselec.sol\":370:414  mapping(uint => Candidate) public candidates */\n    tag_3:\n      tag_14\n      0x04\n      dup1\n      calldatasize\n      sub\n      dup2\n      add\n      swap1\n      tag_15\n      swap2\n      swap1\n      tag_16\n      jump\t// in\n    tag_15:\n      tag_17\n      jump\t// in\n    tag_14:\n      mload(0x40)\n      tag_18\n      swap6\n      swap5\n      swap4\n      swap3\n      swap2\n      swap1\n      tag_19\n      jump\t// in\n    tag_18:\n      mload(0x40)\n      dup1\n      swap2\n      sub\n      swap1\n      return\n        /* \"Final Project/jobselec.sol\":1794:2118  function getCandidate(uint _id) public view returns (uint, string memory, string memory, string memory, address) {... */\n    tag_4:\n      tag_20\n      0x04\n      dup1\n      calldatasize\n      sub\n      dup2\n      add\n      swap1\n      tag_21\n      swap2\n      swap1\n      tag_16\n      jump\t// in\n    tag_21:\n      tag_22\n      jump\t// in\n    tag_20:\n      mload(0x40)\n      tag_23\n      swap6\n      swap5\n      swap4\n      swap3\n      swap2\n      swap1\n      tag_19\n      jump\t// in\n    tag_23:\n      mload(0x40)\n      dup1\n      swap2\n      sub\n      swap1\n      return\n        /* \"Final Project/jobselec.sol\":974:1470  function registerCandidate(string memory _name, string memory _aadhar, string memory _qualification) public {... */\n    tag_5:\n      tag_24\n      0x04\n      dup1\n      calldatasize\n      sub\n      dup2\n      add\n      swap1\n      tag_25\n      swap2\n      swap1\n      tag_26\n      jump\t// in\n    tag_25:\n      tag_27\n      jump\t// in\n    tag_24:\n      stop\n        /* \"Final Project/jobselec.sol\":2130:2371  function getCandidateStatus(uint _id, string memory _category) public view returns (string memory) {... */\n    tag_6:\n      tag_28\n      0x04\n      dup1\n      calldatasize\n      sub\n      dup2\n      add\n      swap1\n      tag_29\n      swap2\n      swap1\n      tag_30\n      jump\t// in\n    tag_29:\n      tag_31\n      jump\t// in\n    tag_28:\n      mload(0x40)\n      tag_32\n      swap2\n      swap1\n      tag_33\n      jump\t// in\n    tag_32:\n      mload(0x40)\n      dup1\n      swap2\n      sub\n      swap1\n      return\n        /* \"Final Project/jobselec.sol\":421:474  mapping(address => bool) public authorizedAuthorities */\n    tag_7:\n      tag_34\n      0x04\n      dup1\n      calldatasize\n      sub\n      dup2\n      add\n      swap1\n      tag_35\n      swap2\n      swap1\n      tag_36\n      jump\t// in\n    tag_35:\n      tag_37\n      jump\t// in\n    tag_34:\n      mload(0x40)\n      tag_38\n      swap2\n      swap1\n      tag_39\n      jump\t// in\n    tag_38:\n      mload(0x40)\n      dup1\n      swap2\n      sub\n      swap1\n      return\n        /* \"Final Project/jobselec.sol\":333:363  uint public candidateCount = 0 */\n    tag_8:\n      tag_40\n      tag_41\n      jump\t// in\n    tag_40:\n      mload(0x40)\n      tag_42\n      swap2\n      swap1\n      tag_43\n      jump\t// in\n    tag_42:\n      mload(0x40)\n      dup1\n      swap2\n      sub\n      swap1\n      return\n        /* \"Final Project/jobselec.sol\":1482:1782  function updateStatus(uint _id, string memory _category, string memory _status) public onlyAuthority {... */\n    tag_9:\n      tag_44\n      0x04\n      dup1\n      calldatasize\n      sub\n      dup2\n      add\n      swap1\n      tag_45\n      swap2\n      swap1\n      tag_46\n      jump\t// in\n    tag_45:\n      tag_47\n      jump\t// in\n    tag_44:\n      stop\n        /* \"Final Project/jobselec.sol\":2382:2498  function authorizeAuthority(address _authority) public onlyAdmin {... */\n    tag_10:\n      tag_48\n      0x04\n      dup1\n      calldatasize\n      sub\n      dup2\n      add\n      swap1\n      tag_49\n      swap2\n      swap1\n      tag_36\n      jump\t// in\n    tag_49:\n      tag_50\n      jump\t// in\n    tag_48:\n      stop\n        /* \"Final Project/jobselec.sol\":2506:2628  function removeAuthority(address _authority) public onlyAdmin {... */\n    tag_11:\n      tag_51\n      0x04\n      dup1\n      calldatasize\n      sub\n      dup2\n      add\n      swap1\n      tag_52\n      swap2\n      swap1\n      tag_36\n      jump\t// in\n    tag_52:\n      tag_53\n      jump\t// in\n    tag_51:\n      stop\n        /* \"Final Project/jobselec.sol\":306:326  address public admin */\n    tag_12:\n      tag_54\n      tag_55\n      jump\t// in\n    tag_54:\n      mload(0x40)\n      tag_56\n      swap2\n      swap1\n      tag_57\n      jump\t// in\n    tag_56:\n      mload(0x40)\n      dup1\n      swap2\n      sub\n      swap1\n      return\n        /* \"Final Project/jobselec.sol\":370:414  mapping(uint => Candidate) public candidates */\n    tag_17:\n      mstore(0x20, 0x02)\n      dup1\n      0x00\n      mstore\n      keccak256(0x00, 0x40)\n      0x00\n      swap2\n      pop\n      swap1\n      pop\n      dup1\n      0x00\n      add\n      sload\n      swap1\n      dup1\n      0x01\n      add\n      dup1\n      sload\n      tag_58\n      swap1\n      tag_59\n      jump\t// in\n    tag_58:\n      dup1\n      0x1f\n      add\n      0x20\n      dup1\n      swap2\n      div\n      mul\n      0x20\n      add\n      mload(0x40)\n      swap1\n      dup2\n      add\n      0x40\n      mstore\n      dup1\n      swap3\n      swap2\n      swap1\n      dup2\n      dup2\n      mstore\n      0x20\n      add\n      dup3\n      dup1\n      sload\n      tag_60\n      swap1\n      tag_59\n      jump\t// in\n    tag_60:\n      dup1\n      iszero\n      tag_61\n      jumpi\n      dup1\n      0x1f\n      lt\n      tag_62\n      jumpi\n      0x0100\n      dup1\n      dup4\n      sload\n      div\n      mul\n      dup4\n      mstore\n      swap2\n      0x20\n      add\n      swap2\n      jump(tag_61)\n    tag_62:\n      dup3\n      add\n      swap2\n      swap1\n      0x00\n      mstore\n      keccak256(0x00, 0x20)\n      swap1\n    tag_63:\n      dup2\n      sload\n      dup2\n      mstore\n      swap1\n      0x01\n      add\n      swap1\n      0x20\n      add\n      dup1\n      dup4\n      gt\n      tag_63\n      jumpi\n      dup3\n      swap1\n      sub\n      0x1f\n      and\n      dup3\n      add\n      swap2\n    tag_61:\n      pop\n      pop\n      pop\n      pop\n      pop\n      swap1\n      dup1\n      0x02\n      add\n      dup1\n      sload\n      tag_64\n      swap1\n      tag_59\n      jump\t// in\n    tag_64:\n      dup1\n      0x1f\n      add\n      0x20\n      dup1\n      swap2\n      div\n      mul\n      0x20\n      add\n      mload(0x40)\n      swap1\n      dup2\n      add\n      0x40\n      mstore\n      dup1\n      swap3\n      swap2\n      swap1\n      dup2\n      dup2\n      mstore\n      0x20\n      add\n      dup3\n      dup1\n      sload\n      tag_65\n      swap1\n      tag_59\n      jump\t// in\n    tag_65:\n      dup1\n      iszero\n      tag_66\n      jumpi\n      dup1\n      0x1f\n      lt\n      tag_67\n      jumpi\n      0x0100\n      dup1\n      dup4\n      sload\n      div\n      mul\n      dup4\n      mstore\n      swap2\n      0x20\n      add\n      swap2\n      jump(tag_66)\n    tag_67:\n      dup3\n      add\n      swap2\n      swap1\n      0x00\n      mstore\n      keccak256(0x00, 0x20)\n      swap1\n    tag_68:\n      dup2\n      sload\n      dup2\n      mstore\n      swap1\n      0x01\n      add\n      swap1\n      0x20\n      add\n      dup1\n      dup4\n      gt\n      tag_68\n      jumpi\n      dup3\n      swap1\n      sub\n      0x1f\n      and\n      dup3\n      add\n      swap2\n    tag_66:\n      pop\n      pop\n      pop\n      pop\n      pop\n      swap1\n      dup1\n      0x03\n      add\n      dup1\n      sload\n      tag_69\n      swap1\n      tag_59\n      jump\t// in\n    tag_69:\n      dup1\n      0x1f\n      add\n      0x20\n      dup1\n      swap2\n      div\n      mul\n      0x20\n      add\n      mload(0x40)\n      swap1\n      dup2\n      add\n      0x40\n      mstore\n      dup1\n      swap3\n      swap2\n      swap1\n      dup2\n      dup2\n      mstore\n      0x20\n      add\n      dup3\n      dup1\n      sload\n      tag_70\n      swap1\n      tag_59\n      jump\t// in\n    tag_70:\n      dup1\n      iszero\n      tag_71\n      jumpi\n      dup1\n      0x1f\n      lt\n      tag_72\n      jumpi\n      0x0100\n      dup1\n      dup4\n      sload\n      div\n      mul\n      dup4\n      mstore\n      swap2\n      0x20\n      add\n      swap2\n      jump(tag_71)\n    tag_72:\n      dup3\n      add\n      swap2\n      swap1\n      0x00\n      mstore\n      keccak256(0x00, 0x20)\n      swap1\n    tag_73:\n      dup2\n      sload\n      dup2\n      mstore\n      swap1\n      0x01\n      add\n      swap1\n      0x20\n      add\n      dup1\n      dup4\n      gt\n      tag_73\n      jumpi\n      dup3\n      swap1\n      sub\n      0x1f\n      and\n      dup3\n      add\n      swap2\n    tag_71:\n      pop\n      pop\n      pop\n      pop\n      pop\n      swap1\n      dup1\n      0x05\n      add\n      0x00\n      swap1\n      sload\n      swap1\n      0x0100\n      exp\n      swap1\n      div\n      0xffffffffffffffffffffffffffffffffffffffff\n      and\n      swap1\n      pop\n      dup6\n      jump\t// out\n        /* \"Final Project/jobselec.sol\":1794:2118  function getCandidate(uint _id) public view returns (uint, string memory, string memory, string memory, address) {... */\n    tag_22:\n        /* \"Final Project/jobselec.sol\":1847:1851  uint */\n      0x00\n        /* \"Final Project/jobselec.sol\":1853:1866  string memory */\n      0x60\n        /* \"Final Project/jobselec.sol\":1868:1881  string memory */\n      dup1\n        /* \"Final Project/jobselec.sol\":1883:1896  string memory */\n      0x60\n        /* \"Final Project/jobselec.sol\":1898:1905  address */\n      0x00\n        /* \"Final Project/jobselec.sol\":1932:1933  0 */\n      dup1\n        /* \"Final Project/jobselec.sol\":1926:1929  _id */\n      dup7\n        /* \"Final Project/jobselec.sol\":1926:1933  _id > 0 */\n      gt\n        /* \"Final Project/jobselec.sol\":1926:1958  _id > 0 && _id <= candidateCount */\n      dup1\n      iszero\n      tag_75\n      jumpi\n      pop\n        /* \"Final Project/jobselec.sol\":1944:1958  candidateCount */\n      sload(0x01)\n        /* \"Final Project/jobselec.sol\":1937:1940  _id */\n      dup7\n        /* \"Final Project/jobselec.sol\":1937:1958  _id <= candidateCount */\n      gt\n      iszero\n        /* \"Final Project/jobselec.sol\":1926:1958  _id > 0 && _id <= candidateCount */\n    tag_75:\n        /* \"Final Project/jobselec.sol\":1918:1983  require(_id > 0 && _id <= candidateCount, \"Invalid candidate ID\") */\n      tag_76\n      jumpi\n      mload(0x40)\n      0x08c379a000000000000000000000000000000000000000000000000000000000\n      dup2\n      mstore\n      0x04\n      add\n      tag_77\n      swap1\n      tag_78\n      jump\t// in\n    tag_77:\n      mload(0x40)\n      dup1\n      swap2\n      sub\n      swap1\n      revert\n    tag_76:\n        /* \"Final Project/jobselec.sol\":1994:2013  Candidate storage c */\n      0x00\n        /* \"Final Project/jobselec.sol\":2016:2026  candidates */\n      0x02\n        /* \"Final Project/jobselec.sol\":2016:2031  candidates[_id] */\n      0x00\n        /* \"Final Project/jobselec.sol\":2027:2030  _id */\n      dup9\n        /* \"Final Project/jobselec.sol\":2016:2031  candidates[_id] */\n      dup2\n      mstore\n      0x20\n      add\n      swap1\n      dup2\n      mstore\n      0x20\n      add\n      0x00\n      keccak256\n        /* \"Final Project/jobselec.sol\":1994:2031  Candidate storage c = candidates[_id] */\n      swap1\n      pop\n        /* \"Final Project/jobselec.sol\":2050:2051  c */\n      dup1\n        /* \"Final Project/jobselec.sol\":2050:2054  c.id */\n      0x00\n      add\n      sload\n        /* \"Final Project/jobselec.sol\":2056:2057  c */\n      dup2\n        /* \"Final Project/jobselec.sol\":2056:2062  c.name */\n      0x01\n      add\n        /* \"Final Project/jobselec.sol\":2064:2065  c */\n      dup3\n        /* \"Final Project/jobselec.sol\":2064:2072  c.aadhar */\n      0x02\n      add\n        /* \"Final Project/jobselec.sol\":2074:2075  c */\n      dup4\n        /* \"Final Project/jobselec.sol\":2074:2089  c.qualification */\n      0x03\n      add\n        /* \"Final Project/jobselec.sol\":2091:2092  c */\n      dup5\n        /* \"Final Project/jobselec.sol\":2091:2109  c.candidateAddress */\n      0x05\n      add\n      0x00\n      swap1\n      sload\n      swap1\n      0x0100\n      exp\n      swap1\n      div\n      0xffffffffffffffffffffffffffffffffffffffff\n      and\n        /* \"Final Project/jobselec.sol\":2042:2110  return (c.id, c.name, c.aadhar, c.qualification, c.candidateAddress) */\n      dup4\n      dup1\n      sload\n      tag_79\n      swap1\n      tag_59\n      jump\t// in\n    tag_79:\n      dup1\n      0x1f\n      add\n      0x20\n      dup1\n      swap2\n      div\n      mul\n      0x20\n      add\n      mload(0x40)\n      swap1\n      dup2\n      add\n      0x40\n      mstore\n      dup1\n      swap3\n      swap2\n      swap1\n      dup2\n      dup2\n      mstore\n      0x20\n      add\n      dup3\n      dup1\n      sload\n      tag_80\n      swap1\n      tag_59\n      jump\t// in\n    tag_80:\n      dup1\n      iszero\n      tag_81\n      jumpi\n      dup1\n      0x1f\n      lt\n      tag_82\n      jumpi\n      0x0100\n      dup1\n      dup4\n      sload\n      div\n      mul\n      dup4\n      mstore\n      swap2\n      0x20\n      add\n      swap2\n      jump(tag_81)\n    tag_82:\n      dup3\n      add\n      swap2\n      swap1\n      0x00\n      mstore\n      keccak256(0x00, 0x20)\n      swap1\n    tag_83:\n      dup2\n      sload\n      dup2\n      mstore\n      swap1\n      0x01\n      add\n      swap1\n      0x20\n      add\n      dup1\n      dup4\n      gt\n      tag_83\n      jumpi\n      dup3\n      swap1\n      sub\n      0x1f\n      and\n      dup3\n      add\n      swap2\n    tag_81:\n      pop\n      pop\n      pop\n      pop\n      pop\n      swap4\n      pop\n      dup3\n      dup1\n      sload\n      tag_84\n      swap1\n      tag_59\n      jump\t// in\n    tag_84:\n      dup1\n      0x1f\n      add\n      0x20\n      dup1\n      swap2\n      div\n      mul\n      0x20\n      add\n      mload(0x40)\n      swap1\n      dup2\n      add\n      0x40\n      mstore\n      dup1\n      swap3\n      swap2\n      swap1\n      dup2\n      dup2\n      mstore\n      0x20\n      add\n      dup3\n      dup1\n      sload\n      tag_85\n      swap1\n      tag_59\n      jump\t// in\n    tag_85:\n      dup1\n      iszero\n      tag_86\n      jumpi\n      dup1\n      0x1f\n      lt\n      tag_87\n      jumpi\n      0x0100\n      dup1\n      dup4\n      sload\n      div\n      mul\n      dup4\n      mstore\n      swap2\n      0x20\n      add\n      swap2\n      jump(tag_86)\n    tag_87:\n      dup3\n      add\n      swap2\n      swap1\n      0x00\n      mstore\n      keccak256(0x00, 0x20)\n      swap1\n    tag_88:\n      dup2\n      sload\n      dup2\n      mstore\n      swap1\n      0x01\n      add\n      swap1\n      0x20\n      add\n      dup1\n      dup4\n      gt\n      tag_88\n      jumpi\n      dup3\n      swap1\n      sub\n      0x1f\n      and\n      dup3\n      add\n      swap2\n    tag_86:\n      pop\n      pop\n      pop\n      pop\n      pop\n      swap3\n      pop\n      dup2\n      dup1\n      sload\n      tag_89\n      swap1\n      tag_59\n      jump\t// in\n    tag_89:\n      dup1\n      0x1f\n      add\n      0x20\n      dup1\n      swap2\n      div\n      mul\n      0x20\n      add\n      mload(0x40)\n      swap1\n      dup2\n      add\n      0x40\n      mstore\n      dup1\n      swap3\n      swap2\n      swap1\n      dup2\n      dup2\n      mstore\n      0x20\n      add\n      dup3\n      dup1\n      sload\n      tag_90\n      swap1\n      tag_59\n      jump\t// in\n    tag_90:\n      dup1\n      iszero\n      tag_91\n      jumpi\n      dup1\n      0x1f\n      lt\n      tag_92\n      jumpi\n      0x0100\n      dup1\n      dup4\n      sload\n      div\n      mul\n      dup4\n      mstore\n      swap2\n      0x20\n      add\n      swap2\n      jump(tag_91)\n    tag_92:\n      dup3\n      add\n      swap2\n      swap1\n      0x00\n      mstore\n      keccak256(0x00, 0x20)\n      swap1\n    tag_93:\n      dup2\n      sload\n      dup2\n      mstore\n      swap1\n      0x01\n      add\n      swap1\n      0x20\n      add\n      dup1\n      dup4\n      gt\n      tag_93\n      jumpi\n      dup3\n      swap1\n      sub\n      0x1f\n      and\n      dup3\n      add\n      swap2\n    tag_91:\n      pop\n      pop\n      pop\n      pop\n      pop\n      swap2\n      pop\n      swap6\n      pop\n      swap6\n      pop\n      swap6\n      pop\n      swap6\n      pop\n      swap6\n      pop\n      pop\n        /* \"Final Project/jobselec.sol\":1794:2118  function getCandidate(uint _id) public view returns (uint, string memory, string memory, string memory, address) {... */\n      swap2\n      swap4\n      swap6\n      swap1\n      swap3\n      swap5\n      pop\n      jump\t// out\n        /* \"Final Project/jobselec.sol\":974:1470  function registerCandidate(string memory _name, string memory _aadhar, string memory _qualification) public {... */\n    tag_27:\n        /* \"Final Project/jobselec.sol\":1093:1107  candidateCount */\n      0x01\n      0x00\n        /* \"Final Project/jobselec.sol\":1093:1109  candidateCount++ */\n      dup2\n      sload\n      dup1\n      swap3\n      swap2\n      swap1\n      tag_95\n      swap1\n      tag_96\n      jump\t// in\n    tag_95:\n      swap2\n      swap1\n      pop\n      sstore\n      pop\n        /* \"Final Project/jobselec.sol\":1120:1139  Candidate storage c */\n      0x00\n        /* \"Final Project/jobselec.sol\":1142:1152  candidates */\n      0x02\n        /* \"Final Project/jobselec.sol\":1142:1168  candidates[candidateCount] */\n      0x00\n        /* \"Final Project/jobselec.sol\":1153:1167  candidateCount */\n      sload(0x01)\n        /* \"Final Project/jobselec.sol\":1142:1168  candidates[candidateCount] */\n      dup2\n      mstore\n      0x20\n      add\n      swap1\n      dup2\n      mstore\n      0x20\n      add\n      0x00\n      keccak256\n        /* \"Final Project/jobselec.sol\":1120:1168  Candidate storage c = candidates[candidateCount] */\n      swap1\n      pop\n        /* \"Final Project/jobselec.sol\":1186:1200  candidateCount */\n      sload(0x01)\n        /* \"Final Project/jobselec.sol\":1179:1180  c */\n      dup2\n        /* \"Final Project/jobselec.sol\":1179:1183  c.id */\n      0x00\n      add\n        /* \"Final Project/jobselec.sol\":1179:1200  c.id = candidateCount */\n      dup2\n      swap1\n      sstore\n      pop\n        /* \"Final Project/jobselec.sol\":1220:1225  _name */\n      dup4\n        /* \"Final Project/jobselec.sol\":1211:1212  c */\n      dup2\n        /* \"Final Project/jobselec.sol\":1211:1217  c.name */\n      0x01\n      add\n        /* \"Final Project/jobselec.sol\":1211:1225  c.name = _name */\n      swap1\n      dup2\n      tag_97\n      swap2\n      swap1\n      tag_98\n      jump\t// in\n    tag_97:\n      pop\n        /* \"Final Project/jobselec.sol\":1247:1254  _aadhar */\n      dup3\n        /* \"Final Project/jobselec.sol\":1236:1237  c */\n      dup2\n        /* \"Final Project/jobselec.sol\":1236:1244  c.aadhar */\n      0x02\n      add\n        /* \"Final Project/jobselec.sol\":1236:1254  c.aadhar = _aadhar */\n      swap1\n      dup2\n      tag_99\n      swap2\n      swap1\n      tag_98\n      jump\t// in\n    tag_99:\n      pop\n        /* \"Final Project/jobselec.sol\":1283:1297  _qualification */\n      dup2\n        /* \"Final Project/jobselec.sol\":1265:1266  c */\n      dup2\n        /* \"Final Project/jobselec.sol\":1265:1280  c.qualification */\n      0x03\n      add\n        /* \"Final Project/jobselec.sol\":1265:1297  c.qualification = _qualification */\n      swap1\n      dup2\n      tag_100\n      swap2\n      swap1\n      tag_98\n      jump\t// in\n    tag_100:\n      pop\n        /* \"Final Project/jobselec.sol\":1329:1339  msg.sender */\n      caller\n        /* \"Final Project/jobselec.sol\":1308:1309  c */\n      dup2\n        /* \"Final Project/jobselec.sol\":1308:1326  c.candidateAddress */\n      0x05\n      add\n      0x00\n        /* \"Final Project/jobselec.sol\":1308:1339  c.candidateAddress = msg.sender */\n      0x0100\n      exp\n      dup2\n      sload\n      dup2\n      0xffffffffffffffffffffffffffffffffffffffff\n      mul\n      not\n      and\n      swap1\n      dup4\n      0xffffffffffffffffffffffffffffffffffffffff\n      and\n      mul\n      or\n      swap1\n      sstore\n      pop\n        /* \"Final Project/jobselec.sol\":1350:1392  c.statusUpdates[\"Application\"] = \"Applied\" */\n      mload(0x40)\n      dup1\n      0x40\n      add\n      0x40\n      mstore\n      dup1\n      0x07\n      dup2\n      mstore\n      0x20\n      add\n      0x4170706c69656400000000000000000000000000000000000000000000000000\n      dup2\n      mstore\n      pop\n        /* \"Final Project/jobselec.sol\":1350:1351  c */\n      dup2\n        /* \"Final Project/jobselec.sol\":1350:1365  c.statusUpdates */\n      0x04\n      add\n        /* \"Final Project/jobselec.sol\":1350:1380  c.statusUpdates[\"Application\"] */\n      mload(0x40)\n      tag_101\n      swap1\n      tag_102\n      jump\t// in\n    tag_101:\n      swap1\n      dup2\n      mstore\n      0x20\n      add\n      mload(0x40)\n      dup1\n      swap2\n      sub\n      swap1\n      keccak256\n        /* \"Final Project/jobselec.sol\":1350:1392  c.statusUpdates[\"Application\"] = \"Applied\" */\n      swap1\n      dup2\n      tag_103\n      swap2\n      swap1\n      tag_98\n      jump\t// in\n    tag_103:\n      pop\n        /* \"Final Project/jobselec.sol\":1408:1462  CandidateRegistered(candidateCount, _name, msg.sender) */\n      0x4a2b8fc2ad6942aee90121e13dfd713889e03d0b1cbd9c0b708c71e9168d0115\n        /* \"Final Project/jobselec.sol\":1428:1442  candidateCount */\n      sload(0x01)\n        /* \"Final Project/jobselec.sol\":1444:1449  _name */\n      dup6\n        /* \"Final Project/jobselec.sol\":1451:1461  msg.sender */\n      caller\n        /* \"Final Project/jobselec.sol\":1408:1462  CandidateRegistered(candidateCount, _name, msg.sender) */\n      mload(0x40)\n      tag_104\n      swap4\n      swap3\n      swap2\n      swap1\n      tag_105\n      jump\t// in\n    tag_104:\n      mload(0x40)\n      dup1\n      swap2\n      sub\n      swap1\n      log1\n        /* \"Final Project/jobselec.sol\":1082:1470  {... */\n      pop\n        /* \"Final Project/jobselec.sol\":974:1470  function registerCandidate(string memory _name, string memory _aadhar, string memory _qualification) public {... */\n      pop\n      pop\n      pop\n      jump\t// out\n        /* \"Final Project/jobselec.sol\":2130:2371  function getCandidateStatus(uint _id, string memory _category) public view returns (string memory) {... */\n    tag_31:\n        /* \"Final Project/jobselec.sol\":2214:2227  string memory */\n      0x60\n        /* \"Final Project/jobselec.sol\":2254:2255  0 */\n      0x00\n        /* \"Final Project/jobselec.sol\":2248:2251  _id */\n      dup4\n        /* \"Final Project/jobselec.sol\":2248:2255  _id > 0 */\n      gt\n        /* \"Final Project/jobselec.sol\":2248:2280  _id > 0 && _id <= candidateCount */\n      dup1\n      iszero\n      tag_107\n      jumpi\n      pop\n        /* \"Final Project/jobselec.sol\":2266:2280  candidateCount */\n      sload(0x01)\n        /* \"Final Project/jobselec.sol\":2259:2262  _id */\n      dup4\n        /* \"Final Project/jobselec.sol\":2259:2280  _id <= candidateCount */\n      gt\n      iszero\n        /* \"Final Project/jobselec.sol\":2248:2280  _id > 0 && _id <= candidateCount */\n    tag_107:\n        /* \"Final Project/jobselec.sol\":2240:2305  require(_id > 0 && _id <= candidateCount, \"Invalid candidate ID\") */\n      tag_108\n      jumpi\n      mload(0x40)\n      0x08c379a000000000000000000000000000000000000000000000000000000000\n      dup2\n      mstore\n      0x04\n      add\n      tag_109\n      swap1\n      tag_78\n      jump\t// in\n    tag_109:\n      mload(0x40)\n      dup1\n      swap2\n      sub\n      swap1\n      revert\n    tag_108:\n        /* \"Final Project/jobselec.sol\":2323:2333  candidates */\n      0x02\n        /* \"Final Project/jobselec.sol\":2323:2338  candidates[_id] */\n      0x00\n        /* \"Final Project/jobselec.sol\":2334:2337  _id */\n      dup5\n        /* \"Final Project/jobselec.sol\":2323:2338  candidates[_id] */\n      dup2\n      mstore\n      0x20\n      add\n      swap1\n      dup2\n      mstore\n      0x20\n      add\n      0x00\n      keccak256\n        /* \"Final Project/jobselec.sol\":2323:2352  candidates[_id].statusUpdates */\n      0x04\n      add\n        /* \"Final Project/jobselec.sol\":2353:2362  _category */\n      dup3\n        /* \"Final Project/jobselec.sol\":2323:2363  candidates[_id].statusUpdates[_category] */\n      mload(0x40)\n      tag_110\n      swap2\n      swap1\n      tag_111\n      jump\t// in\n    tag_110:\n      swap1\n      dup2\n      mstore\n      0x20\n      add\n      mload(0x40)\n      dup1\n      swap2\n      sub\n      swap1\n      keccak256\n        /* \"Final Project/jobselec.sol\":2316:2363  return candidates[_id].statusUpdates[_category] */\n      dup1\n      sload\n      tag_112\n      swap1\n      tag_59\n      jump\t// in\n    tag_112:\n      dup1\n      0x1f\n      add\n      0x20\n      dup1\n      swap2\n      div\n      mul\n      0x20\n      add\n      mload(0x40)\n      swap1\n      dup2\n      add\n      0x40\n      mstore\n      dup1\n      swap3\n      swap2\n      swap1\n      dup2\n      dup2\n      mstore\n      0x20\n      add\n      dup3\n      dup1\n      sload\n      tag_113\n      swap1\n      tag_59\n      jump\t// in\n    tag_113:\n      dup1\n      iszero\n      tag_114\n      jumpi\n      dup1\n      0x1f\n      lt\n      tag_115\n      jumpi\n      0x0100\n      dup1\n      dup4\n      sload\n      div\n      mul\n      dup4\n      mstore\n      swap2\n      0x20\n      add\n      swap2\n      jump(tag_114)\n    tag_115:\n      dup3\n      add\n      swap2\n      swap1\n      0x00\n      mstore\n      keccak256(0x00, 0x20)\n      swap1\n    tag_116:\n      dup2\n      sload\n      dup2\n      mstore\n      swap1\n      0x01\n      add\n      swap1\n      0x20\n      add\n      dup1\n      dup4\n      gt\n      tag_116\n      jumpi\n      dup3\n      swap1\n      sub\n      0x1f\n      and\n      dup3\n      add\n      swap2\n    tag_114:\n      pop\n      pop\n      pop\n      pop\n      pop\n      swap1\n      pop\n        /* \"Final Project/jobselec.sol\":2130:2371  function getCandidateStatus(uint _id, string memory _category) public view returns (string memory) {... */\n      swap3\n      swap2\n      pop\n      pop\n      jump\t// out\n        /* \"Final Project/jobselec.sol\":421:474  mapping(address => bool) public authorizedAuthorities */\n    tag_37:\n      mstore(0x20, 0x03)\n      dup1\n      0x00\n      mstore\n      keccak256(0x00, 0x40)\n      0x00\n      swap2\n      pop\n      sload\n      swap1\n      0x0100\n      exp\n      swap1\n      div\n      0xff\n      and\n      dup2\n      jump\t// out\n        /* \"Final Project/jobselec.sol\":333:363  uint public candidateCount = 0 */\n    tag_41:\n      sload(0x01)\n      dup2\n      jump\t// out\n        /* \"Final Project/jobselec.sol\":1482:1782  function updateStatus(uint _id, string memory _category, string memory _status) public onlyAuthority {... */\n    tag_47:\n        /* \"Final Project/jobselec.sol\":661:682  authorizedAuthorities */\n      0x03\n        /* \"Final Project/jobselec.sol\":661:694  authorizedAuthorities[msg.sender] */\n      0x00\n        /* \"Final Project/jobselec.sol\":683:693  msg.sender */\n      caller\n        /* \"Final Project/jobselec.sol\":661:694  authorizedAuthorities[msg.sender] */\n      0xffffffffffffffffffffffffffffffffffffffff\n      and\n      0xffffffffffffffffffffffffffffffffffffffff\n      and\n      dup2\n      mstore\n      0x20\n      add\n      swap1\n      dup2\n      mstore\n      0x20\n      add\n      0x00\n      keccak256\n      0x00\n      swap1\n      sload\n      swap1\n      0x0100\n      exp\n      swap1\n      div\n      0xff\n      and\n        /* \"Final Project/jobselec.sol\":653:726  require(authorizedAuthorities[msg.sender], \"Not an authorized authority\") */\n      tag_118\n      jumpi\n      mload(0x40)\n      0x08c379a000000000000000000000000000000000000000000000000000000000\n      dup2\n      mstore\n      0x04\n      add\n      tag_119\n      swap1\n      tag_120\n      jump\t// in\n    tag_119:\n      mload(0x40)\n      dup1\n      swap2\n      sub\n      swap1\n      revert\n    tag_118:\n        /* \"Final Project/jobselec.sol\":1608:1609  0 */\n      0x00\n        /* \"Final Project/jobselec.sol\":1602:1605  _id */\n      dup4\n        /* \"Final Project/jobselec.sol\":1602:1609  _id > 0 */\n      gt\n        /* \"Final Project/jobselec.sol\":1602:1634  _id > 0 && _id <= candidateCount */\n      dup1\n      iszero\n      tag_122\n      jumpi\n      pop\n        /* \"Final Project/jobselec.sol\":1620:1634  candidateCount */\n      sload(0x01)\n        /* \"Final Project/jobselec.sol\":1613:1616  _id */\n      dup4\n        /* \"Final Project/jobselec.sol\":1613:1634  _id <= candidateCount */\n      gt\n      iszero\n        /* \"Final Project/jobselec.sol\":1602:1634  _id > 0 && _id <= candidateCount */\n    tag_122:\n        /* \"Final Project/jobselec.sol\":1594:1659  require(_id > 0 && _id <= candidateCount, \"Invalid candidate ID\") */\n      tag_123\n      jumpi\n      mload(0x40)\n      0x08c379a000000000000000000000000000000000000000000000000000000000\n      dup2\n      mstore\n      0x04\n      add\n      tag_124\n      swap1\n      tag_78\n      jump\t// in\n    tag_124:\n      mload(0x40)\n      dup1\n      swap2\n      sub\n      swap1\n      revert\n    tag_123:\n        /* \"Final Project/jobselec.sol\":1713:1720  _status */\n      dup1\n        /* \"Final Project/jobselec.sol\":1670:1680  candidates */\n      0x02\n        /* \"Final Project/jobselec.sol\":1670:1685  candidates[_id] */\n      0x00\n        /* \"Final Project/jobselec.sol\":1681:1684  _id */\n      dup6\n        /* \"Final Project/jobselec.sol\":1670:1685  candidates[_id] */\n      dup2\n      mstore\n      0x20\n      add\n      swap1\n      dup2\n      mstore\n      0x20\n      add\n      0x00\n      keccak256\n        /* \"Final Project/jobselec.sol\":1670:1699  candidates[_id].statusUpdates */\n      0x04\n      add\n        /* \"Final Project/jobselec.sol\":1700:1709  _category */\n      dup4\n        /* \"Final Project/jobselec.sol\":1670:1710  candidates[_id].statusUpdates[_category] */\n      mload(0x40)\n      tag_125\n      swap2\n      swap1\n      tag_111\n      jump\t// in\n    tag_125:\n      swap1\n      dup2\n      mstore\n      0x20\n      add\n      mload(0x40)\n      dup1\n      swap2\n      sub\n      swap1\n      keccak256\n        /* \"Final Project/jobselec.sol\":1670:1720  candidates[_id].statusUpdates[_category] = _status */\n      swap1\n      dup2\n      tag_126\n      swap2\n      swap1\n      tag_98\n      jump\t// in\n    tag_126:\n      pop\n        /* \"Final Project/jobselec.sol\":1736:1774  StatusUpdated(_id, _category, _status) */\n      0x3e30ebb8ffbe169dceacc45ee9d203e97bf891461b56e3b6a9ef625c0e6021ff\n        /* \"Final Project/jobselec.sol\":1750:1753  _id */\n      dup4\n        /* \"Final Project/jobselec.sol\":1755:1764  _category */\n      dup4\n        /* \"Final Project/jobselec.sol\":1766:1773  _status */\n      dup4\n        /* \"Final Project/jobselec.sol\":1736:1774  StatusUpdated(_id, _category, _status) */\n      mload(0x40)\n      tag_127\n      swap4\n      swap3\n      swap2\n      swap1\n      tag_128\n      jump\t// in\n    tag_127:\n      mload(0x40)\n      dup1\n      swap2\n      sub\n      swap1\n      log1\n        /* \"Final Project/jobselec.sol\":1482:1782  function updateStatus(uint _id, string memory _category, string memory _status) public onlyAuthority {... */\n      pop\n      pop\n      pop\n      jump\t// out\n        /* \"Final Project/jobselec.sol\":2382:2498  function authorizeAuthority(address _authority) public onlyAdmin {... */\n    tag_50:\n        /* \"Final Project/jobselec.sol\":541:546  admin */\n      0x00\n      dup1\n      sload\n      swap1\n      0x0100\n      exp\n      swap1\n      div\n      0xffffffffffffffffffffffffffffffffffffffff\n      and\n        /* \"Final Project/jobselec.sol\":527:546  msg.sender == admin */\n      0xffffffffffffffffffffffffffffffffffffffff\n      and\n        /* \"Final Project/jobselec.sol\":527:537  msg.sender */\n      caller\n        /* \"Final Project/jobselec.sol\":527:546  msg.sender == admin */\n      0xffffffffffffffffffffffffffffffffffffffff\n      and\n      eq\n        /* \"Final Project/jobselec.sol\":519:585  require(msg.sender == admin, \"Only admin can perform this action\") */\n      tag_130\n      jumpi\n      mload(0x40)\n      0x08c379a000000000000000000000000000000000000000000000000000000000\n      dup2\n      mstore\n      0x04\n      add\n      tag_131\n      swap1\n      tag_132\n      jump\t// in\n    tag_131:\n      mload(0x40)\n      dup1\n      swap2\n      sub\n      swap1\n      revert\n    tag_130:\n        /* \"Final Project/jobselec.sol\":2490:2494  true */\n      0x01\n        /* \"Final Project/jobselec.sol\":2454:2475  authorizedAuthorities */\n      0x03\n        /* \"Final Project/jobselec.sol\":2454:2487  authorizedAuthorities[_authority] */\n      0x00\n        /* \"Final Project/jobselec.sol\":2476:2486  _authority */\n      dup4\n        /* \"Final Project/jobselec.sol\":2454:2487  authorizedAuthorities[_authority] */\n      0xffffffffffffffffffffffffffffffffffffffff\n      and\n      0xffffffffffffffffffffffffffffffffffffffff\n      and\n      dup2\n      mstore\n      0x20\n      add\n      swap1\n      dup2\n      mstore\n      0x20\n      add\n      0x00\n      keccak256\n      0x00\n        /* \"Final Project/jobselec.sol\":2454:2494  authorizedAuthorities[_authority] = true */\n      0x0100\n      exp\n      dup2\n      sload\n      dup2\n      0xff\n      mul\n      not\n      and\n      swap1\n      dup4\n      iszero\n      iszero\n      mul\n      or\n      swap1\n      sstore\n      pop\n        /* \"Final Project/jobselec.sol\":2382:2498  function authorizeAuthority(address _authority) public onlyAdmin {... */\n      pop\n      jump\t// out\n        /* \"Final Project/jobselec.sol\":2506:2628  function removeAuthority(address _authority) public onlyAdmin {... */\n    tag_53:\n        /* \"Final Project/jobselec.sol\":541:546  admin */\n      0x00\n      dup1\n      sload\n      swap1\n      0x0100\n      exp\n      swap1\n      div\n      0xffffffffffffffffffffffffffffffffffffffff\n      and\n        /* \"Final Project/jobselec.sol\":527:546  msg.sender == admin */\n      0xffffffffffffffffffffffffffffffffffffffff\n      and\n        /* \"Final Project/jobselec.sol\":527:537  msg.sender */\n      caller\n        /* \"Final Project/jobselec.sol\":527:546  msg.sender == admin */\n      0xffffffffffffffffffffffffffffffffffffffff\n      and\n      eq\n        /* \"Final Project/jobselec.sol\":519:585  require(msg.sender == admin, \"Only admin can perform this action\") */\n      tag_135\n      jumpi\n      mload(0x40)\n      0x08c379a000000000000000000000000000000000000000000000000000000000\n      dup2\n      mstore\n      0x04\n      add\n      tag_136\n      swap1\n      tag_132\n      jump\t// in\n    tag_136:\n      mload(0x40)\n      dup1\n      swap2\n      sub\n      swap1\n      revert\n    tag_135:\n        /* \"Final Project/jobselec.sol\":2615:2620  false */\n      0x00\n        /* \"Final Project/jobselec.sol\":2579:2600  authorizedAuthorities */\n      0x03\n        /* \"Final Project/jobselec.sol\":2579:2612  authorizedAuthorities[_authority] */\n      0x00\n        /* \"Final Project/jobselec.sol\":2601:2611  _authority */\n      dup4\n        /* \"Final Project/jobselec.sol\":2579:2612  authorizedAuthorities[_authority] */\n      0xffffffffffffffffffffffffffffffffffffffff\n      and\n      0xffffffffffffffffffffffffffffffffffffffff\n      and\n      dup2\n      mstore\n      0x20\n      add\n      swap1\n      dup2\n      mstore\n      0x20\n      add\n      0x00\n      keccak256\n      0x00\n        /* \"Final Project/jobselec.sol\":2579:2620  authorizedAuthorities[_authority] = false */\n      0x0100\n      exp\n      dup2\n      sload\n      dup2\n      0xff\n      mul\n      not\n      and\n      swap1\n      dup4\n      iszero\n      iszero\n      mul\n      or\n      swap1\n      sstore\n      pop\n        /* \"Final Project/jobselec.sol\":2506:2628  function removeAuthority(address _authority) public onlyAdmin {... */\n      pop\n      jump\t// out\n        /* \"Final Project/jobselec.sol\":306:326  address public admin */\n    tag_55:\n      0x00\n      dup1\n      sload\n      swap1\n      0x0100\n      exp\n      swap1\n      div\n      0xffffffffffffffffffffffffffffffffffffffff\n      and\n      dup2\n      jump\t// out\n        /* \"#utility.yul\":7:82   */\n    tag_138:\n        /* \"#utility.yul\":40:46   */\n      0x00\n        /* \"#utility.yul\":73:75   */\n      0x40\n        /* \"#utility.yul\":67:76   */\n      mload\n        /* \"#utility.yul\":57:76   */\n      swap1\n      pop\n        /* \"#utility.yul\":7:82   */\n      swap1\n      jump\t// out\n        /* \"#utility.yul\":88:205   */\n    tag_139:\n        /* \"#utility.yul\":197:198   */\n      0x00\n        /* \"#utility.yul\":194:195   */\n      dup1\n        /* \"#utility.yul\":187:199   */\n      revert\n        /* \"#utility.yul\":211:328   */\n    tag_140:\n        /* \"#utility.yul\":320:321   */\n      0x00\n        /* \"#utility.yul\":317:318   */\n      dup1\n        /* \"#utility.yul\":310:322   */\n      revert\n        /* \"#utility.yul\":334:411   */\n    tag_141:\n        /* \"#utility.yul\":371:378   */\n      0x00\n        /* \"#utility.yul\":400:405   */\n      dup2\n        /* \"#utility.yul\":389:405   */\n      swap1\n      pop\n        /* \"#utility.yul\":334:411   */\n      swap2\n      swap1\n      pop\n      jump\t// out\n        /* \"#utility.yul\":417:539   */\n    tag_142:\n        /* \"#utility.yul\":490:514   */\n      tag_199\n        /* \"#utility.yul\":508:513   */\n      dup2\n        /* \"#utility.yul\":490:514   */\n      tag_141\n      jump\t// in\n    tag_199:\n        /* \"#utility.yul\":483:488   */\n      dup2\n        /* \"#utility.yul\":480:515   */\n      eq\n        /* \"#utility.yul\":470:533   */\n      tag_200\n      jumpi\n        /* \"#utility.yul\":529:530   */\n      0x00\n        /* \"#utility.yul\":526:527   */\n      dup1\n        /* \"#utility.yul\":519:531   */\n      revert\n        /* \"#utility.yul\":470:533   */\n    tag_200:\n        /* \"#utility.yul\":417:539   */\n      pop\n      jump\t// out\n        /* \"#utility.yul\":545:684   */\n    tag_143:\n        /* \"#utility.yul\":591:596   */\n      0x00\n        /* \"#utility.yul\":629:635   */\n      dup2\n        /* \"#utility.yul\":616:636   */\n      calldataload\n        /* \"#utility.yul\":607:636   */\n      swap1\n      pop\n        /* \"#utility.yul\":645:678   */\n      tag_202\n        /* \"#utility.yul\":672:677   */\n      dup2\n        /* \"#utility.yul\":645:678   */\n      tag_142\n      jump\t// in\n    tag_202:\n        /* \"#utility.yul\":545:684   */\n      swap3\n      swap2\n      pop\n      pop\n      jump\t// out\n        /* \"#utility.yul\":690:1019   */\n    tag_16:\n        /* \"#utility.yul\":749:755   */\n      0x00\n        /* \"#utility.yul\":798:800   */\n      0x20\n        /* \"#utility.yul\":786:795   */\n      dup3\n        /* \"#utility.yul\":777:784   */\n      dup5\n        /* \"#utility.yul\":773:796   */\n      sub\n        /* \"#utility.yul\":769:801   */\n      slt\n        /* \"#utility.yul\":766:885   */\n      iszero\n      tag_204\n      jumpi\n        /* \"#utility.yul\":804:883   */\n      tag_205\n      tag_139\n      jump\t// in\n    tag_205:\n        /* \"#utility.yul\":766:885   */\n    tag_204:\n        /* \"#utility.yul\":924:925   */\n      0x00\n        /* \"#utility.yul\":949:1002   */\n      tag_206\n        /* \"#utility.yul\":994:1001   */\n      dup5\n        /* \"#utility.yul\":985:991   */\n      dup3\n        /* \"#utility.yul\":974:983   */\n      dup6\n        /* \"#utility.yul\":970:992   */\n      add\n        /* \"#utility.yul\":949:1002   */\n      tag_143\n      jump\t// in\n    tag_206:\n        /* \"#utility.yul\":939:1002   */\n      swap2\n      pop\n        /* \"#utility.yul\":895:1012   */\n      pop\n        /* \"#utility.yul\":690:1019   */\n      swap3\n      swap2\n      pop\n      pop\n      jump\t// out\n        /* \"#utility.yul\":1025:1143   */\n    tag_144:\n        /* \"#utility.yul\":1112:1136   */\n      tag_208\n        /* \"#utility.yul\":1130:1135   */\n      dup2\n        /* \"#utility.yul\":1112:1136   */\n      tag_141\n      jump\t// in\n    tag_208:\n        /* \"#utility.yul\":1107:1110   */\n      dup3\n        /* \"#utility.yul\":1100:1137   */\n      mstore\n        /* \"#utility.yul\":1025:1143   */\n      pop\n      pop\n      jump\t// out\n        /* \"#utility.yul\":1149:1248   */\n    tag_145:\n        /* \"#utility.yul\":1201:1207   */\n      0x00\n        /* \"#utility.yul\":1235:1240   */\n      dup2\n        /* \"#utility.yul\":1229:1241   */\n      mload\n        /* \"#utility.yul\":1219:1241   */\n      swap1\n      pop\n        /* \"#utility.yul\":1149:1248   */\n      swap2\n      swap1\n      pop\n      jump\t// out\n        /* \"#utility.yul\":1254:1423   */\n    tag_146:\n        /* \"#utility.yul\":1338:1349   */\n      0x00\n        /* \"#utility.yul\":1372:1378   */\n      dup3\n        /* \"#utility.yul\":1367:1370   */\n      dup3\n        /* \"#utility.yul\":1360:1379   */\n      mstore\n        /* \"#utility.yul\":1412:1416   */\n      0x20\n        /* \"#utility.yul\":1407:1410   */\n      dup3\n        /* \"#utility.yul\":1403:1417   */\n      add\n        /* \"#utility.yul\":1388:1417   */\n      swap1\n      pop\n        /* \"#utility.yul\":1254:1423   */\n      swap3\n      swap2\n      pop\n      pop\n      jump\t// out\n        /* \"#utility.yul\":1429:1568   */\n    tag_147:\n        /* \"#utility.yul\":1518:1524   */\n      dup3\n        /* \"#utility.yul\":1513:1516   */\n      dup2\n        /* \"#utility.yul\":1508:1511   */\n      dup4\n        /* \"#utility.yul\":1502:1525   */\n      mcopy\n        /* \"#utility.yul\":1559:1560   */\n      0x00\n        /* \"#utility.yul\":1550:1556   */\n      dup4\n        /* \"#utility.yul\":1545:1548   */\n      dup4\n        /* \"#utility.yul\":1541:1557   */\n      add\n        /* \"#utility.yul\":1534:1561   */\n      mstore\n        /* \"#utility.yul\":1429:1568   */\n      pop\n      pop\n      pop\n      jump\t// out\n        /* \"#utility.yul\":1574:1676   */\n    tag_148:\n        /* \"#utility.yul\":1615:1621   */\n      0x00\n        /* \"#utility.yul\":1666:1668   */\n      0x1f\n        /* \"#utility.yul\":1662:1669   */\n      not\n        /* \"#utility.yul\":1657:1659   */\n      0x1f\n        /* \"#utility.yul\":1650:1655   */\n      dup4\n        /* \"#utility.yul\":1646:1660   */\n      add\n        /* \"#utility.yul\":1642:1670   */\n      and\n        /* \"#utility.yul\":1632:1670   */\n      swap1\n      pop\n        /* \"#utility.yul\":1574:1676   */\n      swap2\n      swap1\n      pop\n      jump\t// out\n        /* \"#utility.yul\":1682:2059   */\n    tag_149:\n        /* \"#utility.yul\":1770:1773   */\n      0x00\n        /* \"#utility.yul\":1798:1837   */\n      tag_214\n        /* \"#utility.yul\":1831:1836   */\n      dup3\n        /* \"#utility.yul\":1798:1837   */\n      tag_145\n      jump\t// in\n    tag_214:\n        /* \"#utility.yul\":1853:1924   */\n      tag_215\n        /* \"#utility.yul\":1917:1923   */\n      dup2\n        /* \"#utility.yul\":1912:1915   */\n      dup6\n        /* \"#utility.yul\":1853:1924   */\n      tag_146\n      jump\t// in\n    tag_215:\n        /* \"#utility.yul\":1846:1924   */\n      swap4\n      pop\n        /* \"#utility.yul\":1933:1998   */\n      tag_216\n        /* \"#utility.yul\":1991:1997   */\n      dup2\n        /* \"#utility.yul\":1986:1989   */\n      dup6\n        /* \"#utility.yul\":1979:1983   */\n      0x20\n        /* \"#utility.yul\":1972:1977   */\n      dup7\n        /* \"#utility.yul\":1968:1984   */\n      add\n        /* \"#utility.yul\":1933:1998   */\n      tag_147\n      jump\t// in\n    tag_216:\n        /* \"#utility.yul\":2023:2052   */\n      tag_217\n        /* \"#utility.yul\":2045:2051   */\n      dup2\n        /* \"#utility.yul\":2023:2052   */\n      tag_148\n      jump\t// in\n    tag_217:\n        /* \"#utility.yul\":2018:2021   */\n      dup5\n        /* \"#utility.yul\":2014:2053   */\n      add\n        /* \"#utility.yul\":2007:2053   */\n      swap2\n      pop\n        /* \"#utility.yul\":1774:2059   */\n      pop\n        /* \"#utility.yul\":1682:2059   */\n      swap3\n      swap2\n      pop\n      pop\n      jump\t// out\n        /* \"#utility.yul\":2065:2191   */\n    tag_150:\n        /* \"#utility.yul\":2102:2109   */\n      0x00\n        /* \"#utility.yul\":2142:2184   */\n      0xffffffffffffffffffffffffffffffffffffffff\n        /* \"#utility.yul\":2135:2140   */\n      dup3\n        /* \"#utility.yul\":2131:2185   */\n      and\n        /* \"#utility.yul\":2120:2185   */\n      swap1\n      pop\n        /* \"#utility.yul\":2065:2191   */\n      swap2\n      swap1\n      pop\n      jump\t// out\n        /* \"#utility.yul\":2197:2293   */\n    tag_151:\n        /* \"#utility.yul\":2234:2241   */\n      0x00\n        /* \"#utility.yul\":2263:2287   */\n      tag_220\n        /* \"#utility.yul\":2281:2286   */\n      dup3\n        /* \"#utility.yul\":2263:2287   */\n      tag_150\n      jump\t// in\n    tag_220:\n        /* \"#utility.yul\":2252:2287   */\n      swap1\n      pop\n        /* \"#utility.yul\":2197:2293   */\n      swap2\n      swap1\n      pop\n      jump\t// out\n        /* \"#utility.yul\":2299:2417   */\n    tag_152:\n        /* \"#utility.yul\":2386:2410   */\n      tag_222\n        /* \"#utility.yul\":2404:2409   */\n      dup2\n        /* \"#utility.yul\":2386:2410   */\n      tag_151\n      jump\t// in\n    tag_222:\n        /* \"#utility.yul\":2381:2384   */\n      dup3\n        /* \"#utility.yul\":2374:2411   */\n      mstore\n        /* \"#utility.yul\":2299:2417   */\n      pop\n      pop\n      jump\t// out\n        /* \"#utility.yul\":2423:3360   */\n    tag_19:\n        /* \"#utility.yul\":2688:2692   */\n      0x00\n        /* \"#utility.yul\":2726:2729   */\n      0xa0\n        /* \"#utility.yul\":2715:2724   */\n      dup3\n        /* \"#utility.yul\":2711:2730   */\n      add\n        /* \"#utility.yul\":2703:2730   */\n      swap1\n      pop\n        /* \"#utility.yul\":2740:2811   */\n      tag_224\n        /* \"#utility.yul\":2808:2809   */\n      0x00\n        /* \"#utility.yul\":2797:2806   */\n      dup4\n        /* \"#utility.yul\":2793:2810   */\n      add\n        /* \"#utility.yul\":2784:2790   */\n      dup9\n        /* \"#utility.yul\":2740:2811   */\n      tag_144\n      jump\t// in\n    tag_224:\n        /* \"#utility.yul\":2858:2867   */\n      dup2\n        /* \"#utility.yul\":2852:2856   */\n      dup2\n        /* \"#utility.yul\":2848:2868   */\n      sub\n        /* \"#utility.yul\":2843:2845   */\n      0x20\n        /* \"#utility.yul\":2832:2841   */\n      dup4\n        /* \"#utility.yul\":2828:2846   */\n      add\n        /* \"#utility.yul\":2821:2869   */\n      mstore\n        /* \"#utility.yul\":2886:2964   */\n      tag_225\n        /* \"#utility.yul\":2959:2963   */\n      dup2\n        /* \"#utility.yul\":2950:2956   */\n      dup8\n        /* \"#utility.yul\":2886:2964   */\n      tag_149\n      jump\t// in\n    tag_225:\n        /* \"#utility.yul\":2878:2964   */\n      swap1\n      pop\n        /* \"#utility.yul\":3011:3020   */\n      dup2\n        /* \"#utility.yul\":3005:3009   */\n      dup2\n        /* \"#utility.yul\":3001:3021   */\n      sub\n        /* \"#utility.yul\":2996:2998   */\n      0x40\n        /* \"#utility.yul\":2985:2994   */\n      dup4\n        /* \"#utility.yul\":2981:2999   */\n      add\n        /* \"#utility.yul\":2974:3022   */\n      mstore\n        /* \"#utility.yul\":3039:3117   */\n      tag_226\n        /* \"#utility.yul\":3112:3116   */\n      dup2\n        /* \"#utility.yul\":3103:3109   */\n      dup7\n        /* \"#utility.yul\":3039:3117   */\n      tag_149\n      jump\t// in\n    tag_226:\n        /* \"#utility.yul\":3031:3117   */\n      swap1\n      pop\n        /* \"#utility.yul\":3164:3173   */\n      dup2\n        /* \"#utility.yul\":3158:3162   */\n      dup2\n        /* \"#utility.yul\":3154:3174   */\n      sub\n        /* \"#utility.yul\":3149:3151   */\n      0x60\n        /* \"#utility.yul\":3138:3147   */\n      dup4\n        /* \"#utility.yul\":3134:3152   */\n      add\n        /* \"#utility.yul\":3127:3175   */\n      mstore\n        /* \"#utility.yul\":3192:3270   */\n      tag_227\n        /* \"#utility.yul\":3265:3269   */\n      dup2\n        /* \"#utility.yul\":3256:3262   */\n      dup6\n        /* \"#utility.yul\":3192:3270   */\n      tag_149\n      jump\t// in\n    tag_227:\n        /* \"#utility.yul\":3184:3270   */\n      swap1\n      pop\n        /* \"#utility.yul\":3280:3353   */\n      tag_228\n        /* \"#utility.yul\":3348:3351   */\n      0x80\n        /* \"#utility.yul\":3337:3346   */\n      dup4\n        /* \"#utility.yul\":3333:3352   */\n      add\n        /* \"#utility.yul\":3324:3330   */\n      dup5\n        /* \"#utility.yul\":3280:3353   */\n      tag_152\n      jump\t// in\n    tag_228:\n        /* \"#utility.yul\":2423:3360   */\n      swap7\n      swap6\n      pop\n      pop\n      pop\n      pop\n      pop\n      pop\n      jump\t// out\n        /* \"#utility.yul\":3366:3483   */\n    tag_153:\n        /* \"#utility.yul\":3475:3476   */\n      0x00\n        /* \"#utility.yul\":3472:3473   */\n      dup1\n        /* \"#utility.yul\":3465:3477   */\n      revert\n        /* \"#utility.yul\":3489:3606   */\n    tag_154:\n        /* \"#utility.yul\":3598:3599   */\n      0x00\n        /* \"#utility.yul\":3595:3596   */\n      dup1\n        /* \"#utility.yul\":3588:3600   */\n      revert\n        /* \"#utility.yul\":3612:3792   */\n    tag_155:\n        /* \"#utility.yul\":3660:3737   */\n      0x4e487b7100000000000000000000000000000000000000000000000000000000\n        /* \"#utility.yul\":3657:3658   */\n      0x00\n        /* \"#utility.yul\":3650:3738   */\n      mstore\n        /* \"#utility.yul\":3757:3761   */\n      0x41\n        /* \"#utility.yul\":3754:3755   */\n      0x04\n        /* \"#utility.yul\":3747:3762   */\n      mstore\n        /* \"#utility.yul\":3781:3785   */\n      0x24\n        /* \"#utility.yul\":3778:3779   */\n      0x00\n        /* \"#utility.yul\":3771:3786   */\n      revert\n        /* \"#utility.yul\":3798:4079   */\n    tag_156:\n        /* \"#utility.yul\":3881:3908   */\n      tag_233\n        /* \"#utility.yul\":3903:3907   */\n      dup3\n        /* \"#utility.yul\":3881:3908   */\n      tag_148\n      jump\t// in\n    tag_233:\n        /* \"#utility.yul\":3873:3879   */\n      dup2\n        /* \"#utility.yul\":3869:3909   */\n      add\n        /* \"#utility.yul\":4011:4017   */\n      dup2\n        /* \"#utility.yul\":3999:4009   */\n      dup2\n        /* \"#utility.yul\":3996:4018   */\n      lt\n        /* \"#utility.yul\":3975:3993   */\n      0xffffffffffffffff\n        /* \"#utility.yul\":3963:3973   */\n      dup3\n        /* \"#utility.yul\":3960:3994   */\n      gt\n        /* \"#utility.yul\":3957:4019   */\n      or\n        /* \"#utility.yul\":3954:4042   */\n      iszero\n      tag_234\n      jumpi\n        /* \"#utility.yul\":4022:4040   */\n      tag_235\n      tag_155\n      jump\t// in\n    tag_235:\n        /* \"#utility.yul\":3954:4042   */\n    tag_234:\n        /* \"#utility.yul\":4062:4072   */\n      dup1\n        /* \"#utility.yul\":4058:4060   */\n      0x40\n        /* \"#utility.yul\":4051:4073   */\n      mstore\n        /* \"#utility.yul\":3841:4079   */\n      pop\n        /* \"#utility.yul\":3798:4079   */\n      pop\n      pop\n      jump\t// out\n        /* \"#utility.yul\":4085:4214   */\n    tag_157:\n        /* \"#utility.yul\":4119:4125   */\n      0x00\n        /* \"#utility.yul\":4146:4166   */\n      tag_237\n      tag_138\n      jump\t// in\n    tag_237:\n        /* \"#utility.yul\":4136:4166   */\n      swap1\n      pop\n        /* \"#utility.yul\":4175:4208   */\n      tag_238\n        /* \"#utility.yul\":4203:4207   */\n      dup3\n        /* \"#utility.yul\":4195:4201   */\n      dup3\n        /* \"#utility.yul\":4175:4208   */\n      tag_156\n      jump\t// in\n    tag_238:\n        /* \"#utility.yul\":4085:4214   */\n      swap2\n      swap1\n      pop\n      jump\t// out\n        /* \"#utility.yul\":4220:4528   */\n    tag_158:\n        /* \"#utility.yul\":4282:4286   */\n      0x00\n        /* \"#utility.yul\":4372:4390   */\n      0xffffffffffffffff\n        /* \"#utility.yul\":4364:4370   */\n      dup3\n        /* \"#utility.yul\":4361:4391   */\n      gt\n        /* \"#utility.yul\":4358:4414   */\n      iszero\n      tag_240\n      jumpi\n        /* \"#utility.yul\":4394:4412   */\n      tag_241\n      tag_155\n      jump\t// in\n    tag_241:\n        /* \"#utility.yul\":4358:4414   */\n    tag_240:\n        /* \"#utility.yul\":4432:4461   */\n      tag_242\n        /* \"#utility.yul\":4454:4460   */\n      dup3\n        /* \"#utility.yul\":4432:4461   */\n      tag_148\n      jump\t// in\n    tag_242:\n        /* \"#utility.yul\":4424:4461   */\n      swap1\n      pop\n        /* \"#utility.yul\":4516:4520   */\n      0x20\n        /* \"#utility.yul\":4510:4514   */\n      dup2\n        /* \"#utility.yul\":4506:4521   */\n      add\n        /* \"#utility.yul\":4498:4521   */\n      swap1\n      pop\n        /* \"#utility.yul\":4220:4528   */\n      swap2\n      swap1\n      pop\n      jump\t// out\n        /* \"#utility.yul\":4534:4682   */\n    tag_159:\n        /* \"#utility.yul\":4632:4638   */\n      dup3\n        /* \"#utility.yul\":4627:4630   */\n      dup2\n        /* \"#utility.yul\":4622:4625   */\n      dup4\n        /* \"#utility.yul\":4609:4639   */\n      calldatacopy\n        /* \"#utility.yul\":4673:4674   */\n      0x00\n        /* \"#utility.yul\":4664:4670   */\n      dup4\n        /* \"#utility.yul\":4659:4662   */\n      dup4\n        /* \"#utility.yul\":4655:4671   */\n      add\n        /* \"#utility.yul\":4648:4675   */\n      mstore\n        /* \"#utility.yul\":4534:4682   */\n      pop\n      pop\n      pop\n      jump\t// out\n        /* \"#utility.yul\":4688:5113   */\n    tag_160:\n        /* \"#utility.yul\":4766:4771   */\n      0x00\n        /* \"#utility.yul\":4791:4857   */\n      tag_245\n        /* \"#utility.yul\":4807:4856   */\n      tag_246\n        /* \"#utility.yul\":4849:4855   */\n      dup5\n        /* \"#utility.yul\":4807:4856   */\n      tag_158\n      jump\t// in\n    tag_246:\n        /* \"#utility.yul\":4791:4857   */\n      tag_157\n      jump\t// in\n    tag_245:\n        /* \"#utility.yul\":4782:4857   */\n      swap1\n      pop\n        /* \"#utility.yul\":4880:4886   */\n      dup3\n        /* \"#utility.yul\":4873:4878   */\n      dup2\n        /* \"#utility.yul\":4866:4887   */\n      mstore\n        /* \"#utility.yul\":4918:4922   */\n      0x20\n        /* \"#utility.yul\":4911:4916   */\n      dup2\n        /* \"#utility.yul\":4907:4923   */\n      add\n        /* \"#utility.yul\":4956:4959   */\n      dup5\n        /* \"#utility.yul\":4947:4953   */\n      dup5\n        /* \"#utility.yul\":4942:4945   */\n      dup5\n        /* \"#utility.yul\":4938:4954   */\n      add\n        /* \"#utility.yul\":4935:4960   */\n      gt\n        /* \"#utility.yul\":4932:5044   */\n      iszero\n      tag_247\n      jumpi\n        /* \"#utility.yul\":4963:5042   */\n      tag_248\n      tag_154\n      jump\t// in\n    tag_248:\n        /* \"#utility.yul\":4932:5044   */\n    tag_247:\n        /* \"#utility.yul\":5053:5107   */\n      tag_249\n        /* \"#utility.yul\":5100:5106   */\n      dup5\n        /* \"#utility.yul\":5095:5098   */\n      dup3\n        /* \"#utility.yul\":5090:5093   */\n      dup6\n        /* \"#utility.yul\":5053:5107   */\n      tag_159\n      jump\t// in\n    tag_249:\n        /* \"#utility.yul\":4772:5113   */\n      pop\n        /* \"#utility.yul\":4688:5113   */\n      swap4\n      swap3\n      pop\n      pop\n      pop\n      jump\t// out\n        /* \"#utility.yul\":5133:5473   */\n    tag_161:\n        /* \"#utility.yul\":5189:5194   */\n      0x00\n        /* \"#utility.yul\":5238:5241   */\n      dup3\n        /* \"#utility.yul\":5231:5235   */\n      0x1f\n        /* \"#utility.yul\":5223:5229   */\n      dup4\n        /* \"#utility.yul\":5219:5236   */\n      add\n        /* \"#utility.yul\":5215:5242   */\n      slt\n        /* \"#utility.yul\":5205:5327   */\n      tag_251\n      jumpi\n        /* \"#utility.yul\":5246:5325   */\n      tag_252\n      tag_153\n      jump\t// in\n    tag_252:\n        /* \"#utility.yul\":5205:5327   */\n    tag_251:\n        /* \"#utility.yul\":5363:5369   */\n      dup2\n        /* \"#utility.yul\":5350:5370   */\n      calldataload\n        /* \"#utility.yul\":5388:5467   */\n      tag_253\n        /* \"#utility.yul\":5463:5466   */\n      dup5\n        /* \"#utility.yul\":5455:5461   */\n      dup3\n        /* \"#utility.yul\":5448:5452   */\n      0x20\n        /* \"#utility.yul\":5440:5446   */\n      dup7\n        /* \"#utility.yul\":5436:5453   */\n      add\n        /* \"#utility.yul\":5388:5467   */\n      tag_160\n      jump\t// in\n    tag_253:\n        /* \"#utility.yul\":5379:5467   */\n      swap2\n      pop\n        /* \"#utility.yul\":5195:5473   */\n      pop\n        /* \"#utility.yul\":5133:5473   */\n      swap3\n      swap2\n      pop\n      pop\n      jump\t// out\n        /* \"#utility.yul\":5479:6638   */\n    tag_26:\n        /* \"#utility.yul\":5586:5592   */\n      0x00\n        /* \"#utility.yul\":5594:5600   */\n      dup1\n        /* \"#utility.yul\":5602:5608   */\n      0x00\n        /* \"#utility.yul\":5651:5653   */\n      0x60\n        /* \"#utility.yul\":5639:5648   */\n      dup5\n        /* \"#utility.yul\":5630:5637   */\n      dup7\n        /* \"#utility.yul\":5626:5649   */\n      sub\n        /* \"#utility.yul\":5622:5654   */\n      slt\n        /* \"#utility.yul\":5619:5738   */\n      iszero\n      tag_255\n      jumpi\n        /* \"#utility.yul\":5657:5736   */\n      tag_256\n      tag_139\n      jump\t// in\n    tag_256:\n        /* \"#utility.yul\":5619:5738   */\n    tag_255:\n        /* \"#utility.yul\":5805:5806   */\n      0x00\n        /* \"#utility.yul\":5794:5803   */\n      dup5\n        /* \"#utility.yul\":5790:5807   */\n      add\n        /* \"#utility.yul\":5777:5808   */\n      calldataload\n        /* \"#utility.yul\":5835:5853   */\n      0xffffffffffffffff\n        /* \"#utility.yul\":5827:5833   */\n      dup2\n        /* \"#utility.yul\":5824:5854   */\n      gt\n        /* \"#utility.yul\":5821:5938   */\n      iszero\n      tag_257\n      jumpi\n        /* \"#utility.yul\":5857:5936   */\n      tag_258\n      tag_140\n      jump\t// in\n    tag_258:\n        /* \"#utility.yul\":5821:5938   */\n    tag_257:\n        /* \"#utility.yul\":5962:6025   */\n      tag_259\n        /* \"#utility.yul\":6017:6024   */\n      dup7\n        /* \"#utility.yul\":6008:6014   */\n      dup3\n        /* \"#utility.yul\":5997:6006   */\n      dup8\n        /* \"#utility.yul\":5993:6015   */\n      add\n        /* \"#utility.yul\":5962:6025   */\n      tag_161\n      jump\t// in\n    tag_259:\n        /* \"#utility.yul\":5952:6025   */\n      swap4\n      pop\n        /* \"#utility.yul\":5748:6035   */\n      pop\n        /* \"#utility.yul\":6102:6104   */\n      0x20\n        /* \"#utility.yul\":6091:6100   */\n      dup5\n        /* \"#utility.yul\":6087:6105   */\n      add\n        /* \"#utility.yul\":6074:6106   */\n      calldataload\n        /* \"#utility.yul\":6133:6151   */\n      0xffffffffffffffff\n        /* \"#utility.yul\":6125:6131   */\n      dup2\n        /* \"#utility.yul\":6122:6152   */\n      gt\n        /* \"#utility.yul\":6119:6236   */\n      iszero\n      tag_260\n      jumpi\n        /* \"#utility.yul\":6155:6234   */\n      tag_261\n      tag_140\n      jump\t// in\n    tag_261:\n        /* \"#utility.yul\":6119:6236   */\n    tag_260:\n        /* \"#utility.yul\":6260:6323   */\n      tag_262\n        /* \"#utility.yul\":6315:6322   */\n      dup7\n        /* \"#utility.yul\":6306:6312   */\n      dup3\n        /* \"#utility.yul\":6295:6304   */\n      dup8\n        /* \"#utility.yul\":6291:6313   */\n      add\n        /* \"#utility.yul\":6260:6323   */\n      tag_161\n      jump\t// in\n    tag_262:\n        /* \"#utility.yul\":6250:6323   */\n      swap3\n      pop\n        /* \"#utility.yul\":6045:6333   */\n      pop\n        /* \"#utility.yul\":6400:6402   */\n      0x40\n        /* \"#utility.yul\":6389:6398   */\n      dup5\n        /* \"#utility.yul\":6385:6403   */\n      add\n        /* \"#utility.yul\":6372:6404   */\n      calldataload\n        /* \"#utility.yul\":6431:6449   */\n      0xffffffffffffffff\n        /* \"#utility.yul\":6423:6429   */\n      dup2\n        /* \"#utility.yul\":6420:6450   */\n      gt\n        /* \"#utility.yul\":6417:6534   */\n      iszero\n      tag_263\n      jumpi\n        /* \"#utility.yul\":6453:6532   */\n      tag_264\n      tag_140\n      jump\t// in\n    tag_264:\n        /* \"#utility.yul\":6417:6534   */\n    tag_263:\n        /* \"#utility.yul\":6558:6621   */\n      tag_265\n        /* \"#utility.yul\":6613:6620   */\n      dup7\n        /* \"#utility.yul\":6604:6610   */\n      dup3\n        /* \"#utility.yul\":6593:6602   */\n      dup8\n        /* \"#utility.yul\":6589:6611   */\n      add\n        /* \"#utility.yul\":6558:6621   */\n      tag_161\n      jump\t// in\n    tag_265:\n        /* \"#utility.yul\":6548:6621   */\n      swap2\n      pop\n        /* \"#utility.yul\":6343:6631   */\n      pop\n        /* \"#utility.yul\":5479:6638   */\n      swap3\n      pop\n      swap3\n      pop\n      swap3\n      jump\t// out\n        /* \"#utility.yul\":6644:7298   */\n    tag_30:\n        /* \"#utility.yul\":6722:6728   */\n      0x00\n        /* \"#utility.yul\":6730:6736   */\n      dup1\n        /* \"#utility.yul\":6779:6781   */\n      0x40\n        /* \"#utility.yul\":6767:6776   */\n      dup4\n        /* \"#utility.yul\":6758:6765   */\n      dup6\n        /* \"#utility.yul\":6754:6777   */\n      sub\n        /* \"#utility.yul\":6750:6782   */\n      slt\n        /* \"#utility.yul\":6747:6866   */\n      iszero\n      tag_267\n      jumpi\n        /* \"#utility.yul\":6785:6864   */\n      tag_268\n      tag_139\n      jump\t// in\n    tag_268:\n        /* \"#utility.yul\":6747:6866   */\n    tag_267:\n        /* \"#utility.yul\":6905:6906   */\n      0x00\n        /* \"#utility.yul\":6930:6983   */\n      tag_269\n        /* \"#utility.yul\":6975:6982   */\n      dup6\n        /* \"#utility.yul\":6966:6972   */\n      dup3\n        /* \"#utility.yul\":6955:6964   */\n      dup7\n        /* \"#utility.yul\":6951:6973   */\n      add\n        /* \"#utility.yul\":6930:6983   */\n      tag_143\n      jump\t// in\n    tag_269:\n        /* \"#utility.yul\":6920:6983   */\n      swap3\n      pop\n        /* \"#utility.yul\":6876:6993   */\n      pop\n        /* \"#utility.yul\":7060:7062   */\n      0x20\n        /* \"#utility.yul\":7049:7058   */\n      dup4\n        /* \"#utility.yul\":7045:7063   */\n      add\n        /* \"#utility.yul\":7032:7064   */\n      calldataload\n        /* \"#utility.yul\":7091:7109   */\n      0xffffffffffffffff\n        /* \"#utility.yul\":7083:7089   */\n      dup2\n        /* \"#utility.yul\":7080:7110   */\n      gt\n        /* \"#utility.yul\":7077:7194   */\n      iszero\n      tag_270\n      jumpi\n        /* \"#utility.yul\":7113:7192   */\n      tag_271\n      tag_140\n      jump\t// in\n    tag_271:\n        /* \"#utility.yul\":7077:7194   */\n    tag_270:\n        /* \"#utility.yul\":7218:7281   */\n      tag_272\n        /* \"#utility.yul\":7273:7280   */\n      dup6\n        /* \"#utility.yul\":7264:7270   */\n      dup3\n        /* \"#utility.yul\":7253:7262   */\n      dup7\n        /* \"#utility.yul\":7249:7271   */\n      add\n        /* \"#utility.yul\":7218:7281   */\n      tag_161\n      jump\t// in\n    tag_272:\n        /* \"#utility.yul\":7208:7281   */\n      swap2\n      pop\n        /* \"#utility.yul\":7003:7291   */\n      pop\n        /* \"#utility.yul\":6644:7298   */\n      swap3\n      pop\n      swap3\n      swap1\n      pop\n      jump\t// out\n        /* \"#utility.yul\":7304:7617   */\n    tag_33:\n        /* \"#utility.yul\":7417:7421   */\n      0x00\n        /* \"#utility.yul\":7455:7457   */\n      0x20\n        /* \"#utility.yul\":7444:7453   */\n      dup3\n        /* \"#utility.yul\":7440:7458   */\n      add\n        /* \"#utility.yul\":7432:7458   */\n      swap1\n      pop\n        /* \"#utility.yul\":7504:7513   */\n      dup2\n        /* \"#utility.yul\":7498:7502   */\n      dup2\n        /* \"#utility.yul\":7494:7514   */\n      sub\n        /* \"#utility.yul\":7490:7491   */\n      0x00\n        /* \"#utility.yul\":7479:7488   */\n      dup4\n        /* \"#utility.yul\":7475:7492   */\n      add\n        /* \"#utility.yul\":7468:7515   */\n      mstore\n        /* \"#utility.yul\":7532:7610   */\n      tag_274\n        /* \"#utility.yul\":7605:7609   */\n      dup2\n        /* \"#utility.yul\":7596:7602   */\n      dup5\n        /* \"#utility.yul\":7532:7610   */\n      tag_149\n      jump\t// in\n    tag_274:\n        /* \"#utility.yul\":7524:7610   */\n      swap1\n      pop\n        /* \"#utility.yul\":7304:7617   */\n      swap3\n      swap2\n      pop\n      pop\n      jump\t// out\n        /* \"#utility.yul\":7623:7745   */\n    tag_162:\n        /* \"#utility.yul\":7696:7720   */\n      tag_276\n        /* \"#utility.yul\":7714:7719   */\n      dup2\n        /* \"#utility.yul\":7696:7720   */\n      tag_151\n      jump\t// in\n    tag_276:\n        /* \"#utility.yul\":7689:7694   */\n      dup2\n        /* \"#utility.yul\":7686:7721   */\n      eq\n        /* \"#utility.yul\":7676:7739   */\n      tag_277\n      jumpi\n        /* \"#utility.yul\":7735:7736   */\n      0x00\n        /* \"#utility.yul\":7732:7733   */\n      dup1\n        /* \"#utility.yul\":7725:7737   */\n      revert\n        /* \"#utility.yul\":7676:7739   */\n    tag_277:\n        /* \"#utility.yul\":7623:7745   */\n      pop\n      jump\t// out\n        /* \"#utility.yul\":7751:7890   */\n    tag_163:\n        /* \"#utility.yul\":7797:7802   */\n      0x00\n        /* \"#utility.yul\":7835:7841   */\n      dup2\n        /* \"#utility.yul\":7822:7842   */\n      calldataload\n        /* \"#utility.yul\":7813:7842   */\n      swap1\n      pop\n        /* \"#utility.yul\":7851:7884   */\n      tag_279\n        /* \"#utility.yul\":7878:7883   */\n      dup2\n        /* \"#utility.yul\":7851:7884   */\n      tag_162\n      jump\t// in\n    tag_279:\n        /* \"#utility.yul\":7751:7890   */\n      swap3\n      swap2\n      pop\n      pop\n      jump\t// out\n        /* \"#utility.yul\":7896:8225   */\n    tag_36:\n        /* \"#utility.yul\":7955:7961   */\n      0x00\n        /* \"#utility.yul\":8004:8006   */\n      0x20\n        /* \"#utility.yul\":7992:8001   */\n      dup3\n        /* \"#utility.yul\":7983:7990   */\n      dup5\n        /* \"#utility.yul\":7979:8002   */\n      sub\n        /* \"#utility.yul\":7975:8007   */\n      slt\n        /* \"#utility.yul\":7972:8091   */\n      iszero\n      tag_281\n      jumpi\n        /* \"#utility.yul\":8010:8089   */\n      tag_282\n      tag_139\n      jump\t// in\n    tag_282:\n        /* \"#utility.yul\":7972:8091   */\n    tag_281:\n        /* \"#utility.yul\":8130:8131   */\n      0x00\n        /* \"#utility.yul\":8155:8208   */\n      tag_283\n        /* \"#utility.yul\":8200:8207   */\n      dup5\n        /* \"#utility.yul\":8191:8197   */\n      dup3\n        /* \"#utility.yul\":8180:8189   */\n      dup6\n        /* \"#utility.yul\":8176:8198   */\n      add\n        /* \"#utility.yul\":8155:8208   */\n      tag_163\n      jump\t// in\n    tag_283:\n        /* \"#utility.yul\":8145:8208   */\n      swap2\n      pop\n        /* \"#utility.yul\":8101:8218   */\n      pop\n        /* \"#utility.yul\":7896:8225   */\n      swap3\n      swap2\n      pop\n      pop\n      jump\t// out\n        /* \"#utility.yul\":8231:8321   */\n    tag_164:\n        /* \"#utility.yul\":8265:8272   */\n      0x00\n        /* \"#utility.yul\":8308:8313   */\n      dup2\n        /* \"#utility.yul\":8301:8314   */\n      iszero\n        /* \"#utility.yul\":8294:8315   */\n      iszero\n        /* \"#utility.yul\":8283:8315   */\n      swap1\n      pop\n        /* \"#utility.yul\":8231:8321   */\n      swap2\n      swap1\n      pop\n      jump\t// out\n        /* \"#utility.yul\":8327:8436   */\n    tag_165:\n        /* \"#utility.yul\":8408:8429   */\n      tag_286\n        /* \"#utility.yul\":8423:8428   */\n      dup2\n        /* \"#utility.yul\":8408:8429   */\n      tag_164\n      jump\t// in\n    tag_286:\n        /* \"#utility.yul\":8403:8406   */\n      dup3\n        /* \"#utility.yul\":8396:8430   */\n      mstore\n        /* \"#utility.yul\":8327:8436   */\n      pop\n      pop\n      jump\t// out\n        /* \"#utility.yul\":8442:8652   */\n    tag_39:\n        /* \"#utility.yul\":8529:8533   */\n      0x00\n        /* \"#utility.yul\":8567:8569   */\n      0x20\n        /* \"#utility.yul\":8556:8565   */\n      dup3\n        /* \"#utility.yul\":8552:8570   */\n      add\n        /* \"#utility.yul\":8544:8570   */\n      swap1\n      pop\n        /* \"#utility.yul\":8580:8645   */\n      tag_288\n        /* \"#utility.yul\":8642:8643   */\n      0x00\n        /* \"#utility.yul\":8631:8640   */\n      dup4\n        /* \"#utility.yul\":8627:8644   */\n      add\n        /* \"#utility.yul\":8618:8624   */\n      dup5\n        /* \"#utility.yul\":8580:8645   */\n      tag_165\n      jump\t// in\n    tag_288:\n        /* \"#utility.yul\":8442:8652   */\n      swap3\n      swap2\n      pop\n      pop\n      jump\t// out\n        /* \"#utility.yul\":8658:8880   */\n    tag_43:\n        /* \"#utility.yul\":8751:8755   */\n      0x00\n        /* \"#utility.yul\":8789:8791   */\n      0x20\n        /* \"#utility.yul\":8778:8787   */\n      dup3\n        /* \"#utility.yul\":8774:8792   */\n      add\n        /* \"#utility.yul\":8766:8792   */\n      swap1\n      pop\n        /* \"#utility.yul\":8802:8873   */\n      tag_290\n        /* \"#utility.yul\":8870:8871   */\n      0x00\n        /* \"#utility.yul\":8859:8868   */\n      dup4\n        /* \"#utility.yul\":8855:8872   */\n      add\n        /* \"#utility.yul\":8846:8852   */\n      dup5\n        /* \"#utility.yul\":8802:8873   */\n      tag_144\n      jump\t// in\n    tag_290:\n        /* \"#utility.yul\":8658:8880   */\n      swap3\n      swap2\n      pop\n      pop\n      jump\t// out\n        /* \"#utility.yul\":8886:9865   */\n    tag_46:\n        /* \"#utility.yul\":8983:8989   */\n      0x00\n        /* \"#utility.yul\":8991:8997   */\n      dup1\n        /* \"#utility.yul\":8999:9005   */\n      0x00\n        /* \"#utility.yul\":9048:9050   */\n      0x60\n        /* \"#utility.yul\":9036:9045   */\n      dup5\n        /* \"#utility.yul\":9027:9034   */\n      dup7\n        /* \"#utility.yul\":9023:9046   */\n      sub\n        /* \"#utility.yul\":9019:9051   */\n      slt\n        /* \"#utility.yul\":9016:9135   */\n      iszero\n      tag_292\n      jumpi\n        /* \"#utility.yul\":9054:9133   */\n      tag_293\n      tag_139\n      jump\t// in\n    tag_293:\n        /* \"#utility.yul\":9016:9135   */\n    tag_292:\n        /* \"#utility.yul\":9174:9175   */\n      0x00\n        /* \"#utility.yul\":9199:9252   */\n      tag_294\n        /* \"#utility.yul\":9244:9251   */\n      dup7\n        /* \"#utility.yul\":9235:9241   */\n      dup3\n        /* \"#utility.yul\":9224:9233   */\n      dup8\n        /* \"#utility.yul\":9220:9242   */\n      add\n        /* \"#utility.yul\":9199:9252   */\n      tag_143\n      jump\t// in\n    tag_294:\n        /* \"#utility.yul\":9189:9252   */\n      swap4\n      pop\n        /* \"#utility.yul\":9145:9262   */\n      pop\n        /* \"#utility.yul\":9329:9331   */\n      0x20\n        /* \"#utility.yul\":9318:9327   */\n      dup5\n        /* \"#utility.yul\":9314:9332   */\n      add\n        /* \"#utility.yul\":9301:9333   */\n      calldataload\n        /* \"#utility.yul\":9360:9378   */\n      0xffffffffffffffff\n        /* \"#utility.yul\":9352:9358   */\n      dup2\n        /* \"#utility.yul\":9349:9379   */\n      gt\n        /* \"#utility.yul\":9346:9463   */\n      iszero\n      tag_295\n      jumpi\n        /* \"#utility.yul\":9382:9461   */\n      tag_296\n      tag_140\n      jump\t// in\n    tag_296:\n        /* \"#utility.yul\":9346:9463   */\n    tag_295:\n        /* \"#utility.yul\":9487:9550   */\n      tag_297\n        /* \"#utility.yul\":9542:9549   */\n      dup7\n        /* \"#utility.yul\":9533:9539   */\n      dup3\n        /* \"#utility.yul\":9522:9531   */\n      dup8\n        /* \"#utility.yul\":9518:9540   */\n      add\n        /* \"#utility.yul\":9487:9550   */\n      tag_161\n      jump\t// in\n    tag_297:\n        /* \"#utility.yul\":9477:9550   */\n      swap3\n      pop\n        /* \"#utility.yul\":9272:9560   */\n      pop\n        /* \"#utility.yul\":9627:9629   */\n      0x40\n        /* \"#utility.yul\":9616:9625   */\n      dup5\n        /* \"#utility.yul\":9612:9630   */\n      add\n        /* \"#utility.yul\":9599:9631   */\n      calldataload\n        /* \"#utility.yul\":9658:9676   */\n      0xffffffffffffffff\n        /* \"#utility.yul\":9650:9656   */\n      dup2\n        /* \"#utility.yul\":9647:9677   */\n      gt\n        /* \"#utility.yul\":9644:9761   */\n      iszero\n      tag_298\n      jumpi\n        /* \"#utility.yul\":9680:9759   */\n      tag_299\n      tag_140\n      jump\t// in\n    tag_299:\n        /* \"#utility.yul\":9644:9761   */\n    tag_298:\n        /* \"#utility.yul\":9785:9848   */\n      tag_300\n        /* \"#utility.yul\":9840:9847   */\n      dup7\n        /* \"#utility.yul\":9831:9837   */\n      dup3\n        /* \"#utility.yul\":9820:9829   */\n      dup8\n        /* \"#utility.yul\":9816:9838   */\n      add\n        /* \"#utility.yul\":9785:9848   */\n      tag_161\n      jump\t// in\n    tag_300:\n        /* \"#utility.yul\":9775:9848   */\n      swap2\n      pop\n        /* \"#utility.yul\":9570:9858   */\n      pop\n        /* \"#utility.yul\":8886:9865   */\n      swap3\n      pop\n      swap3\n      pop\n      swap3\n      jump\t// out\n        /* \"#utility.yul\":9871:10093   */\n    tag_57:\n        /* \"#utility.yul\":9964:9968   */\n      0x00\n        /* \"#utility.yul\":10002:10004   */\n      0x20\n        /* \"#utility.yul\":9991:10000   */\n      dup3\n        /* \"#utility.yul\":9987:10005   */\n      add\n        /* \"#utility.yul\":9979:10005   */\n      swap1\n      pop\n        /* \"#utility.yul\":10015:10086   */\n      tag_302\n        /* \"#utility.yul\":10083:10084   */\n      0x00\n        /* \"#utility.yul\":10072:10081   */\n      dup4\n        /* \"#utility.yul\":10068:10085   */\n      add\n        /* \"#utility.yul\":10059:10065   */\n      dup5\n        /* \"#utility.yul\":10015:10086   */\n      tag_152\n      jump\t// in\n    tag_302:\n        /* \"#utility.yul\":9871:10093   */\n      swap3\n      swap2\n      pop\n      pop\n      jump\t// out\n        /* \"#utility.yul\":10099:10279   */\n    tag_166:\n        /* \"#utility.yul\":10147:10224   */\n      0x4e487b7100000000000000000000000000000000000000000000000000000000\n        /* \"#utility.yul\":10144:10145   */\n      0x00\n        /* \"#utility.yul\":10137:10225   */\n      mstore\n        /* \"#utility.yul\":10244:10248   */\n      0x22\n        /* \"#utility.yul\":10241:10242   */\n      0x04\n        /* \"#utility.yul\":10234:10249   */\n      mstore\n        /* \"#utility.yul\":10268:10272   */\n      0x24\n        /* \"#utility.yul\":10265:10266   */\n      0x00\n        /* \"#utility.yul\":10258:10273   */\n      revert\n        /* \"#utility.yul\":10285:10605   */\n    tag_59:\n        /* \"#utility.yul\":10329:10335   */\n      0x00\n        /* \"#utility.yul\":10366:10367   */\n      0x02\n        /* \"#utility.yul\":10360:10364   */\n      dup3\n        /* \"#utility.yul\":10356:10368   */\n      div\n        /* \"#utility.yul\":10346:10368   */\n      swap1\n      pop\n        /* \"#utility.yul\":10413:10414   */\n      0x01\n        /* \"#utility.yul\":10407:10411   */\n      dup3\n        /* \"#utility.yul\":10403:10415   */\n      and\n        /* \"#utility.yul\":10434:10452   */\n      dup1\n        /* \"#utility.yul\":10424:10505   */\n      tag_305\n      jumpi\n        /* \"#utility.yul\":10490:10494   */\n      0x7f\n        /* \"#utility.yul\":10482:10488   */\n      dup3\n        /* \"#utility.yul\":10478:10495   */\n      and\n        /* \"#utility.yul\":10468:10495   */\n      swap2\n      pop\n        /* \"#utility.yul\":10424:10505   */\n    tag_305:\n        /* \"#utility.yul\":10552:10554   */\n      0x20\n        /* \"#utility.yul\":10544:10550   */\n      dup3\n        /* \"#utility.yul\":10541:10555   */\n      lt\n        /* \"#utility.yul\":10521:10539   */\n      dup2\n        /* \"#utility.yul\":10518:10556   */\n      sub\n        /* \"#utility.yul\":10515:10599   */\n      tag_306\n      jumpi\n        /* \"#utility.yul\":10571:10589   */\n      tag_307\n      tag_166\n      jump\t// in\n    tag_307:\n        /* \"#utility.yul\":10515:10599   */\n    tag_306:\n        /* \"#utility.yul\":10336:10605   */\n      pop\n        /* \"#utility.yul\":10285:10605   */\n      swap2\n      swap1\n      pop\n      jump\t// out\n        /* \"#utility.yul\":10611:10781   */\n    tag_167:\n        /* \"#utility.yul\":10751:10773   */\n      0x496e76616c69642063616e646964617465204944000000000000000000000000\n        /* \"#utility.yul\":10747:10748   */\n      0x00\n        /* \"#utility.yul\":10739:10745   */\n      dup3\n        /* \"#utility.yul\":10735:10749   */\n      add\n        /* \"#utility.yul\":10728:10774   */\n      mstore\n        /* \"#utility.yul\":10611:10781   */\n      pop\n      jump\t// out\n        /* \"#utility.yul\":10787:11153   */\n    tag_168:\n        /* \"#utility.yul\":10929:10932   */\n      0x00\n        /* \"#utility.yul\":10950:11017   */\n      tag_310\n        /* \"#utility.yul\":11014:11016   */\n      0x14\n        /* \"#utility.yul\":11009:11012   */\n      dup4\n        /* \"#utility.yul\":10950:11017   */\n      tag_146\n      jump\t// in\n    tag_310:\n        /* \"#utility.yul\":10943:11017   */\n      swap2\n      pop\n        /* \"#utility.yul\":11026:11119   */\n      tag_311\n        /* \"#utility.yul\":11115:11118   */\n      dup3\n        /* \"#utility.yul\":11026:11119   */\n      tag_167\n      jump\t// in\n    tag_311:\n        /* \"#utility.yul\":11144:11146   */\n      0x20\n        /* \"#utility.yul\":11139:11142   */\n      dup3\n        /* \"#utility.yul\":11135:11147   */\n      add\n        /* \"#utility.yul\":11128:11147   */\n      swap1\n      pop\n        /* \"#utility.yul\":10787:11153   */\n      swap2\n      swap1\n      pop\n      jump\t// out\n        /* \"#utility.yul\":11159:11578   */\n    tag_78:\n        /* \"#utility.yul\":11325:11329   */\n      0x00\n        /* \"#utility.yul\":11363:11365   */\n      0x20\n        /* \"#utility.yul\":11352:11361   */\n      dup3\n        /* \"#utility.yul\":11348:11366   */\n      add\n        /* \"#utility.yul\":11340:11366   */\n      swap1\n      pop\n        /* \"#utility.yul\":11412:11421   */\n      dup2\n        /* \"#utility.yul\":11406:11410   */\n      dup2\n        /* \"#utility.yul\":11402:11422   */\n      sub\n        /* \"#utility.yul\":11398:11399   */\n      0x00\n        /* \"#utility.yul\":11387:11396   */\n      dup4\n        /* \"#utility.yul\":11383:11400   */\n      add\n        /* \"#utility.yul\":11376:11423   */\n      mstore\n        /* \"#utility.yul\":11440:11571   */\n      tag_313\n        /* \"#utility.yul\":11566:11570   */\n      dup2\n        /* \"#utility.yul\":11440:11571   */\n      tag_168\n      jump\t// in\n    tag_313:\n        /* \"#utility.yul\":11432:11571   */\n      swap1\n      pop\n        /* \"#utility.yul\":11159:11578   */\n      swap2\n      swap1\n      pop\n      jump\t// out\n        /* \"#utility.yul\":11584:11764   */\n    tag_169:\n        /* \"#utility.yul\":11632:11709   */\n      0x4e487b7100000000000000000000000000000000000000000000000000000000\n        /* \"#utility.yul\":11629:11630   */\n      0x00\n        /* \"#utility.yul\":11622:11710   */\n      mstore\n        /* \"#utility.yul\":11729:11733   */\n      0x11\n        /* \"#utility.yul\":11726:11727   */\n      0x04\n        /* \"#utility.yul\":11719:11734   */\n      mstore\n        /* \"#utility.yul\":11753:11757   */\n      0x24\n        /* \"#utility.yul\":11750:11751   */\n      0x00\n        /* \"#utility.yul\":11743:11758   */\n      revert\n        /* \"#utility.yul\":11770:12003   */\n    tag_96:\n        /* \"#utility.yul\":11809:11812   */\n      0x00\n        /* \"#utility.yul\":11832:11856   */\n      tag_316\n        /* \"#utility.yul\":11850:11855   */\n      dup3\n        /* \"#utility.yul\":11832:11856   */\n      tag_141\n      jump\t// in\n    tag_316:\n        /* \"#utility.yul\":11823:11856   */\n      swap2\n      pop\n        /* \"#utility.yul\":11878:11944   */\n      0xffffffffffffffffffffffffffffffffffffffffffffffffffffffffffffffff\n        /* \"#utility.yul\":11871:11876   */\n      dup3\n        /* \"#utility.yul\":11868:11945   */\n      sub\n        /* \"#utility.yul\":11865:11968   */\n      tag_317\n      jumpi\n        /* \"#utility.yul\":11948:11966   */\n      tag_318\n      tag_169\n      jump\t// in\n    tag_318:\n        /* \"#utility.yul\":11865:11968   */\n    tag_317:\n        /* \"#utility.yul\":11995:11996   */\n      0x01\n        /* \"#utility.yul\":11988:11993   */\n      dup3\n        /* \"#utility.yul\":11984:11997   */\n      add\n        /* \"#utility.yul\":11977:11997   */\n      swap1\n      pop\n        /* \"#utility.yul\":11770:12003   */\n      swap2\n      swap1\n      pop\n      jump\t// out\n        /* \"#utility.yul\":12009:12150   */\n    tag_170:\n        /* \"#utility.yul\":12058:12062   */\n      0x00\n        /* \"#utility.yul\":12081:12084   */\n      dup2\n        /* \"#utility.yul\":12073:12084   */\n      swap1\n      pop\n        /* \"#utility.yul\":12104:12107   */\n      dup2\n        /* \"#utility.yul\":12101:12102   */\n      0x00\n        /* \"#utility.yul\":12094:12108   */\n      mstore\n        /* \"#utility.yul\":12138:12142   */\n      0x20\n        /* \"#utility.yul\":12135:12136   */\n      0x00\n        /* \"#utility.yul\":12125:12143   */\n      keccak256\n        /* \"#utility.yul\":12117:12143   */\n      swap1\n      pop\n        /* \"#utility.yul\":12009:12150   */\n      swap2\n      swap1\n      pop\n      jump\t// out\n        /* \"#utility.yul\":12156:12249   */\n    tag_171:\n        /* \"#utility.yul\":12193:12199   */\n      0x00\n        /* \"#utility.yul\":12240:12242   */\n      0x20\n        /* \"#utility.yul\":12235:12237   */\n      0x1f\n        /* \"#utility.yul\":12228:12233   */\n      dup4\n        /* \"#utility.yul\":12224:12238   */\n      add\n        /* \"#utility.yul\":12220:12243   */\n      div\n        /* \"#utility.yul\":12210:12243   */\n      swap1\n      pop\n        /* \"#utility.yul\":12156:12249   */\n      swap2\n      swap1\n      pop\n      jump\t// out\n        /* \"#utility.yul\":12255:12362   */\n    tag_172:\n        /* \"#utility.yul\":12299:12307   */\n      0x00\n        /* \"#utility.yul\":12349:12354   */\n      dup3\n        /* \"#utility.yul\":12343:12347   */\n      dup3\n        /* \"#utility.yul\":12339:12355   */\n      shl\n        /* \"#utility.yul\":12318:12355   */\n      swap1\n      pop\n        /* \"#utility.yul\":12255:12362   */\n      swap3\n      swap2\n      pop\n      pop\n      jump\t// out\n        /* \"#utility.yul\":12368:12761   */\n    tag_173:\n        /* \"#utility.yul\":12437:12443   */\n      0x00\n        /* \"#utility.yul\":12487:12488   */\n      0x08\n        /* \"#utility.yul\":12475:12485   */\n      dup4\n        /* \"#utility.yul\":12471:12489   */\n      mul\n        /* \"#utility.yul\":12510:12607   */\n      tag_323\n        /* \"#utility.yul\":12540:12606   */\n      0xffffffffffffffffffffffffffffffffffffffffffffffffffffffffffffffff\n        /* \"#utility.yul\":12529:12538   */\n      dup3\n        /* \"#utility.yul\":12510:12607   */\n      tag_172\n      jump\t// in\n    tag_323:\n        /* \"#utility.yul\":12628:12667   */\n      tag_324\n        /* \"#utility.yul\":12658:12666   */\n      dup7\n        /* \"#utility.yul\":12647:12656   */\n      dup4\n        /* \"#utility.yul\":12628:12667   */\n      tag_172\n      jump\t// in\n    tag_324:\n        /* \"#utility.yul\":12616:12667   */\n      swap6\n      pop\n        /* \"#utility.yul\":12700:12704   */\n      dup1\n        /* \"#utility.yul\":12696:12705   */\n      not\n        /* \"#utility.yul\":12689:12694   */\n      dup5\n        /* \"#utility.yul\":12685:12706   */\n      and\n        /* \"#utility.yul\":12676:12706   */\n      swap4\n      pop\n        /* \"#utility.yul\":12749:12753   */\n      dup1\n        /* \"#utility.yul\":12739:12747   */\n      dup7\n        /* \"#utility.yul\":12735:12754   */\n      and\n        /* \"#utility.yul\":12728:12733   */\n      dup5\n        /* \"#utility.yul\":12725:12755   */\n      or\n        /* \"#utility.yul\":12715:12755   */\n      swap3\n      pop\n        /* \"#utility.yul\":12444:12761   */\n      pop\n      pop\n        /* \"#utility.yul\":12368:12761   */\n      swap4\n      swap3\n      pop\n      pop\n      pop\n      jump\t// out\n        /* \"#utility.yul\":12767:12827   */\n    tag_174:\n        /* \"#utility.yul\":12795:12798   */\n      0x00\n        /* \"#utility.yul\":12816:12821   */\n      dup2\n        /* \"#utility.yul\":12809:12821   */\n      swap1\n      pop\n        /* \"#utility.yul\":12767:12827   */\n      swap2\n      swap1\n      pop\n      jump\t// out\n        /* \"#utility.yul\":12833:12975   */\n    tag_175:\n        /* \"#utility.yul\":12883:12892   */\n      0x00\n        /* \"#utility.yul\":12916:12969   */\n      tag_327\n        /* \"#utility.yul\":12934:12968   */\n      tag_328\n        /* \"#utility.yul\":12943:12967   */\n      tag_329\n        /* \"#utility.yul\":12961:12966   */\n      dup5\n        /* \"#utility.yul\":12943:12967   */\n      tag_141\n      jump\t// in\n    tag_329:\n        /* \"#utility.yul\":12934:12968   */\n      tag_174\n      jump\t// in\n    tag_328:\n        /* \"#utility.yul\":12916:12969   */\n      tag_141\n      jump\t// in\n    tag_327:\n        /* \"#utility.yul\":12903:12969   */\n      swap1\n      pop\n        /* \"#utility.yul\":12833:12975   */\n      swap2\n      swap1\n      pop\n      jump\t// out\n        /* \"#utility.yul\":12981:13056   */\n    tag_176:\n        /* \"#utility.yul\":13024:13027   */\n      0x00\n        /* \"#utility.yul\":13045:13050   */\n      dup2\n        /* \"#utility.yul\":13038:13050   */\n      swap1\n      pop\n        /* \"#utility.yul\":12981:13056   */\n      swap2\n      swap1\n      pop\n      jump\t// out\n        /* \"#utility.yul\":13062:13331   */\n    tag_177:\n        /* \"#utility.yul\":13172:13211   */\n      tag_332\n        /* \"#utility.yul\":13203:13210   */\n      dup4\n        /* \"#utility.yul\":13172:13211   */\n      tag_175\n      jump\t// in\n    tag_332:\n        /* \"#utility.yul\":13233:13324   */\n      tag_333\n        /* \"#utility.yul\":13282:13323   */\n      tag_334\n        /* \"#utility.yul\":13306:13322   */\n      dup3\n        /* \"#utility.yul\":13282:13323   */\n      tag_176\n      jump\t// in\n    tag_334:\n        /* \"#utility.yul\":13274:13280   */\n      dup5\n        /* \"#utility.yul\":13267:13271   */\n      dup5\n        /* \"#utility.yul\":13261:13272   */\n      sload\n        /* \"#utility.yul\":13233:13324   */\n      tag_173\n      jump\t// in\n    tag_333:\n        /* \"#utility.yul\":13227:13231   */\n      dup3\n        /* \"#utility.yul\":13220:13325   */\n      sstore\n        /* \"#utility.yul\":13138:13331   */\n      pop\n        /* \"#utility.yul\":13062:13331   */\n      pop\n      pop\n      pop\n      jump\t// out\n        /* \"#utility.yul\":13337:13410   */\n    tag_178:\n        /* \"#utility.yul\":13382:13385   */\n      0x00\n        /* \"#utility.yul\":13337:13410   */\n      swap1\n      jump\t// out\n        /* \"#utility.yul\":13416:13605   */\n    tag_179:\n        /* \"#utility.yul\":13493:13525   */\n      tag_337\n      tag_178\n      jump\t// in\n    tag_337:\n        /* \"#utility.yul\":13534:13599   */\n      tag_338\n        /* \"#utility.yul\":13592:13598   */\n      dup2\n        /* \"#utility.yul\":13584:13590   */\n      dup5\n        /* \"#utility.yul\":13578:13582   */\n      dup5\n        /* \"#utility.yul\":13534:13599   */\n      tag_177\n      jump\t// in\n    tag_338:\n        /* \"#utility.yul\":13469:13605   */\n      pop\n        /* \"#utility.yul\":13416:13605   */\n      pop\n      pop\n      jump\t// out\n        /* \"#utility.yul\":13611:13797   */\n    tag_180:\n        /* \"#utility.yul\":13671:13791   */\n    tag_340:\n        /* \"#utility.yul\":13688:13691   */\n      dup2\n        /* \"#utility.yul\":13681:13686   */\n      dup2\n        /* \"#utility.yul\":13678:13692   */\n      lt\n        /* \"#utility.yul\":13671:13791   */\n      iszero\n      tag_342\n      jumpi\n        /* \"#utility.yul\":13742:13781   */\n      tag_343\n        /* \"#utility.yul\":13779:13780   */\n      0x00\n        /* \"#utility.yul\":13772:13777   */\n      dup3\n        /* \"#utility.yul\":13742:13781   */\n      tag_179\n      jump\t// in\n    tag_343:\n        /* \"#utility.yul\":13715:13716   */\n      0x01\n        /* \"#utility.yul\":13708:13713   */\n      dup2\n        /* \"#utility.yul\":13704:13717   */\n      add\n        /* \"#utility.yul\":13695:13717   */\n      swap1\n      pop\n        /* \"#utility.yul\":13671:13791   */\n      jump(tag_340)\n    tag_342:\n        /* \"#utility.yul\":13611:13797   */\n      pop\n      pop\n      jump\t// out\n        /* \"#utility.yul\":13803:14346   */\n    tag_181:\n        /* \"#utility.yul\":13904:13906   */\n      0x1f\n        /* \"#utility.yul\":13899:13902   */\n      dup3\n        /* \"#utility.yul\":13896:13907   */\n      gt\n        /* \"#utility.yul\":13893:14339   */\n      iszero\n      tag_345\n      jumpi\n        /* \"#utility.yul\":13938:13976   */\n      tag_346\n        /* \"#utility.yul\":13970:13975   */\n      dup2\n        /* \"#utility.yul\":13938:13976   */\n      tag_170\n      jump\t// in\n    tag_346:\n        /* \"#utility.yul\":14022:14051   */\n      tag_347\n        /* \"#utility.yul\":14040:14050   */\n      dup5\n        /* \"#utility.yul\":14022:14051   */\n      tag_171\n      jump\t// in\n    tag_347:\n        /* \"#utility.yul\":14012:14020   */\n      dup2\n        /* \"#utility.yul\":14008:14052   */\n      add\n        /* \"#utility.yul\":14205:14207   */\n      0x20\n        /* \"#utility.yul\":14193:14203   */\n      dup6\n        /* \"#utility.yul\":14190:14208   */\n      lt\n        /* \"#utility.yul\":14187:14236   */\n      iszero\n      tag_348\n      jumpi\n        /* \"#utility.yul\":14226:14234   */\n      dup2\n        /* \"#utility.yul\":14211:14234   */\n      swap1\n      pop\n        /* \"#utility.yul\":14187:14236   */\n    tag_348:\n        /* \"#utility.yul\":14249:14329   */\n      tag_349\n        /* \"#utility.yul\":14305:14327   */\n      tag_350\n        /* \"#utility.yul\":14323:14326   */\n      dup6\n        /* \"#utility.yul\":14305:14327   */\n      tag_171\n      jump\t// in\n    tag_350:\n        /* \"#utility.yul\":14295:14303   */\n      dup4\n        /* \"#utility.yul\":14291:14328   */\n      add\n        /* \"#utility.yul\":14278:14289   */\n      dup3\n        /* \"#utility.yul\":14249:14329   */\n      tag_180\n      jump\t// in\n    tag_349:\n        /* \"#utility.yul\":13908:14339   */\n      pop\n      pop\n        /* \"#utility.yul\":13893:14339   */\n    tag_345:\n        /* \"#utility.yul\":13803:14346   */\n      pop\n      pop\n      pop\n      jump\t// out\n        /* \"#utility.yul\":14352:14469   */\n    tag_182:\n        /* \"#utility.yul\":14406:14414   */\n      0x00\n        /* \"#utility.yul\":14456:14461   */\n      dup3\n        /* \"#utility.yul\":14450:14454   */\n      dup3\n        /* \"#utility.yul\":14446:14462   */\n      shr\n        /* \"#utility.yul\":14425:14462   */\n      swap1\n      pop\n        /* \"#utility.yul\":14352:14469   */\n      swap3\n      swap2\n      pop\n      pop\n      jump\t// out\n        /* \"#utility.yul\":14475:14644   */\n    tag_183:\n        /* \"#utility.yul\":14519:14525   */\n      0x00\n        /* \"#utility.yul\":14552:14603   */\n      tag_353\n        /* \"#utility.yul\":14600:14601   */\n      0x00\n        /* \"#utility.yul\":14596:14602   */\n      not\n        /* \"#utility.yul\":14588:14593   */\n      dup5\n        /* \"#utility.yul\":14585:14586   */\n      0x08\n        /* \"#utility.yul\":14581:14594   */\n      mul\n        /* \"#utility.yul\":14552:14603   */\n      tag_182\n      jump\t// in\n    tag_353:\n        /* \"#utility.yul\":14548:14604   */\n      not\n        /* \"#utility.yul\":14633:14637   */\n      dup1\n        /* \"#utility.yul\":14627:14631   */\n      dup4\n        /* \"#utility.yul\":14623:14638   */\n      and\n        /* \"#utility.yul\":14613:14638   */\n      swap2\n      pop\n        /* \"#utility.yul\":14526:14644   */\n      pop\n        /* \"#utility.yul\":14475:14644   */\n      swap3\n      swap2\n      pop\n      pop\n      jump\t// out\n        /* \"#utility.yul\":14649:14944   */\n    tag_184:\n        /* \"#utility.yul\":14725:14729   */\n      0x00\n        /* \"#utility.yul\":14871:14900   */\n      tag_355\n        /* \"#utility.yul\":14896:14899   */\n      dup4\n        /* \"#utility.yul\":14890:14894   */\n      dup4\n        /* \"#utility.yul\":14871:14900   */\n      tag_183\n      jump\t// in\n    tag_355:\n        /* \"#utility.yul\":14863:14900   */\n      swap2\n      pop\n        /* \"#utility.yul\":14933:14936   */\n      dup3\n        /* \"#utility.yul\":14930:14931   */\n      0x02\n        /* \"#utility.yul\":14926:14937   */\n      mul\n        /* \"#utility.yul\":14920:14924   */\n      dup3\n        /* \"#utility.yul\":14917:14938   */\n      or\n        /* \"#utility.yul\":14909:14938   */\n      swap1\n      pop\n        /* \"#utility.yul\":14649:14944   */\n      swap3\n      swap2\n      pop\n      pop\n      jump\t// out\n        /* \"#utility.yul\":14949:16344   */\n    tag_98:\n        /* \"#utility.yul\":15066:15103   */\n      tag_357\n        /* \"#utility.yul\":15099:15102   */\n      dup3\n        /* \"#utility.yul\":15066:15103   */\n      tag_145\n      jump\t// in\n    tag_357:\n        /* \"#utility.yul\":15168:15186   */\n      0xffffffffffffffff\n        /* \"#utility.yul\":15160:15166   */\n      dup2\n        /* \"#utility.yul\":15157:15187   */\n      gt\n        /* \"#utility.yul\":15154:15210   */\n      iszero\n      tag_358\n      jumpi\n        /* \"#utility.yul\":15190:15208   */\n      tag_359\n      tag_155\n      jump\t// in\n    tag_359:\n        /* \"#utility.yul\":15154:15210   */\n    tag_358:\n        /* \"#utility.yul\":15234:15272   */\n      tag_360\n        /* \"#utility.yul\":15266:15270   */\n      dup3\n        /* \"#utility.yul\":15260:15271   */\n      sload\n        /* \"#utility.yul\":15234:15272   */\n      tag_59\n      jump\t// in\n    tag_360:\n        /* \"#utility.yul\":15319:15386   */\n      tag_361\n        /* \"#utility.yul\":15379:15385   */\n      dup3\n        /* \"#utility.yul\":15371:15377   */\n      dup3\n        /* \"#utility.yul\":15365:15369   */\n      dup6\n        /* \"#utility.yul\":15319:15386   */\n      tag_181\n      jump\t// in\n    tag_361:\n        /* \"#utility.yul\":15413:15414   */\n      0x00\n        /* \"#utility.yul\":15437:15441   */\n      0x20\n        /* \"#utility.yul\":15424:15441   */\n      swap1\n      pop\n        /* \"#utility.yul\":15469:15471   */\n      0x1f\n        /* \"#utility.yul\":15461:15467   */\n      dup4\n        /* \"#utility.yul\":15458:15472   */\n      gt\n        /* \"#utility.yul\":15486:15487   */\n      0x01\n        /* \"#utility.yul\":15481:16099   */\n      dup2\n      eq\n      tag_363\n      jumpi\n        /* \"#utility.yul\":16143:16144   */\n      0x00\n        /* \"#utility.yul\":16160:16166   */\n      dup5\n        /* \"#utility.yul\":16157:16234   */\n      iszero\n      tag_364\n      jumpi\n        /* \"#utility.yul\":16209:16218   */\n      dup3\n        /* \"#utility.yul\":16204:16207   */\n      dup8\n        /* \"#utility.yul\":16200:16219   */\n      add\n        /* \"#utility.yul\":16194:16220   */\n      mload\n        /* \"#utility.yul\":16185:16220   */\n      swap1\n      pop\n        /* \"#utility.yul\":16157:16234   */\n    tag_364:\n        /* \"#utility.yul\":16260:16327   */\n      tag_365\n        /* \"#utility.yul\":16320:16326   */\n      dup6\n        /* \"#utility.yul\":16313:16318   */\n      dup3\n        /* \"#utility.yul\":16260:16327   */\n      tag_184\n      jump\t// in\n    tag_365:\n        /* \"#utility.yul\":16254:16258   */\n      dup7\n        /* \"#utility.yul\":16247:16328   */\n      sstore\n        /* \"#utility.yul\":16116:16338   */\n      pop\n        /* \"#utility.yul\":15451:16338   */\n      jump(tag_362)\n        /* \"#utility.yul\":15481:16099   */\n    tag_363:\n        /* \"#utility.yul\":15533:15537   */\n      0x1f\n        /* \"#utility.yul\":15529:15538   */\n      not\n        /* \"#utility.yul\":15521:15527   */\n      dup5\n        /* \"#utility.yul\":15517:15539   */\n      and\n        /* \"#utility.yul\":15567:15604   */\n      tag_366\n        /* \"#utility.yul\":15599:15603   */\n      dup7\n        /* \"#utility.yul\":15567:15604   */\n      tag_170\n      jump\t// in\n    tag_366:\n        /* \"#utility.yul\":15626:15627   */\n      0x00\n        /* \"#utility.yul\":15640:15848   */\n    tag_367:\n        /* \"#utility.yul\":15654:15661   */\n      dup3\n        /* \"#utility.yul\":15651:15652   */\n      dup2\n        /* \"#utility.yul\":15648:15662   */\n      lt\n        /* \"#utility.yul\":15640:15848   */\n      iszero\n      tag_369\n      jumpi\n        /* \"#utility.yul\":15733:15742   */\n      dup5\n        /* \"#utility.yul\":15728:15731   */\n      dup10\n        /* \"#utility.yul\":15724:15743   */\n      add\n        /* \"#utility.yul\":15718:15744   */\n      mload\n        /* \"#utility.yul\":15710:15716   */\n      dup3\n        /* \"#utility.yul\":15703:15745   */\n      sstore\n        /* \"#utility.yul\":15784:15785   */\n      0x01\n        /* \"#utility.yul\":15776:15782   */\n      dup3\n        /* \"#utility.yul\":15772:15786   */\n      add\n        /* \"#utility.yul\":15762:15786   */\n      swap2\n      pop\n        /* \"#utility.yul\":15831:15833   */\n      0x20\n        /* \"#utility.yul\":15820:15829   */\n      dup6\n        /* \"#utility.yul\":15816:15834   */\n      add\n        /* \"#utility.yul\":15803:15834   */\n      swap5\n      pop\n        /* \"#utility.yul\":15677:15681   */\n      0x20\n        /* \"#utility.yul\":15674:15675   */\n      dup2\n        /* \"#utility.yul\":15670:15682   */\n      add\n        /* \"#utility.yul\":15665:15682   */\n      swap1\n      pop\n        /* \"#utility.yul\":15640:15848   */\n      jump(tag_367)\n    tag_369:\n        /* \"#utility.yul\":15876:15882   */\n      dup7\n        /* \"#utility.yul\":15867:15874   */\n      dup4\n        /* \"#utility.yul\":15864:15883   */\n      lt\n        /* \"#utility.yul\":15861:16040   */\n      iszero\n      tag_370\n      jumpi\n        /* \"#utility.yul\":15934:15943   */\n      dup5\n        /* \"#utility.yul\":15929:15932   */\n      dup10\n        /* \"#utility.yul\":15925:15944   */\n      add\n        /* \"#utility.yul\":15919:15945   */\n      mload\n        /* \"#utility.yul\":15977:16025   */\n      tag_371\n        /* \"#utility.yul\":16019:16023   */\n      0x1f\n        /* \"#utility.yul\":16011:16017   */\n      dup10\n        /* \"#utility.yul\":16007:16024   */\n      and\n        /* \"#utility.yul\":15996:16005   */\n      dup3\n        /* \"#utility.yul\":15977:16025   */\n      tag_183\n      jump\t// in\n    tag_371:\n        /* \"#utility.yul\":15969:15975   */\n      dup4\n        /* \"#utility.yul\":15962:16026   */\n      sstore\n        /* \"#utility.yul\":15884:16040   */\n      pop\n        /* \"#utility.yul\":15861:16040   */\n    tag_370:\n        /* \"#utility.yul\":16086:16087   */\n      0x01\n        /* \"#utility.yul\":16082:16083   */\n      0x02\n        /* \"#utility.yul\":16074:16080   */\n      dup9\n        /* \"#utility.yul\":16070:16084   */\n      mul\n        /* \"#utility.yul\":16066:16088   */\n      add\n        /* \"#utility.yul\":16060:16064   */\n      dup9\n        /* \"#utility.yul\":16053:16089   */\n      sstore\n        /* \"#utility.yul\":15488:16099   */\n      pop\n      pop\n      pop\n        /* \"#utility.yul\":15451:16338   */\n    tag_362:\n      pop\n        /* \"#utility.yul\":15041:16344   */\n      pop\n      pop\n      pop\n        /* \"#utility.yul\":14949:16344   */\n      pop\n      pop\n      jump\t// out\n        /* \"#utility.yul\":16350:16498   */\n    tag_185:\n        /* \"#utility.yul\":16452:16463   */\n      0x00\n        /* \"#utility.yul\":16489:16492   */\n      dup2\n        /* \"#utility.yul\":16474:16492   */\n      swap1\n      pop\n        /* \"#utility.yul\":16350:16498   */\n      swap3\n      swap2\n      pop\n      pop\n      jump\t// out\n        /* \"#utility.yul\":16504:16665   */\n    tag_186:\n        /* \"#utility.yul\":16644:16657   */\n      0x4170706c69636174696f6e000000000000000000000000000000000000000000\n        /* \"#utility.yul\":16640:16641   */\n      0x00\n        /* \"#utility.yul\":16632:16638   */\n      dup3\n        /* \"#utility.yul\":16628:16642   */\n      add\n        /* \"#utility.yul\":16621:16658   */\n      mstore\n        /* \"#utility.yul\":16504:16665   */\n      pop\n      jump\t// out\n        /* \"#utility.yul\":16671:17073   */\n    tag_187:\n        /* \"#utility.yul\":16831:16834   */\n      0x00\n        /* \"#utility.yul\":16852:16937   */\n      tag_375\n        /* \"#utility.yul\":16934:16936   */\n      0x0b\n        /* \"#utility.yul\":16929:16932   */\n      dup4\n        /* \"#utility.yul\":16852:16937   */\n      tag_185\n      jump\t// in\n    tag_375:\n        /* \"#utility.yul\":16845:16937   */\n      swap2\n      pop\n        /* \"#utility.yul\":16946:17039   */\n      tag_376\n        /* \"#utility.yul\":17035:17038   */\n      dup3\n        /* \"#utility.yul\":16946:17039   */\n      tag_186\n      jump\t// in\n    tag_376:\n        /* \"#utility.yul\":17064:17066   */\n      0x0b\n        /* \"#utility.yul\":17059:17062   */\n      dup3\n        /* \"#utility.yul\":17055:17067   */\n      add\n        /* \"#utility.yul\":17048:17067   */\n      swap1\n      pop\n        /* \"#utility.yul\":16671:17073   */\n      swap2\n      swap1\n      pop\n      jump\t// out\n        /* \"#utility.yul\":17079:17460   */\n    tag_102:\n        /* \"#utility.yul\":17264:17267   */\n      0x00\n        /* \"#utility.yul\":17286:17434   */\n      tag_378\n        /* \"#utility.yul\":17430:17433   */\n      dup3\n        /* \"#utility.yul\":17286:17434   */\n      tag_187\n      jump\t// in\n    tag_378:\n        /* \"#utility.yul\":17279:17434   */\n      swap2\n      pop\n        /* \"#utility.yul\":17451:17454   */\n      dup2\n        /* \"#utility.yul\":17444:17454   */\n      swap1\n      pop\n        /* \"#utility.yul\":17079:17460   */\n      swap2\n      swap1\n      pop\n      jump\t// out\n        /* \"#utility.yul\":17466:17999   */\n    tag_105:\n        /* \"#utility.yul\":17635:17639   */\n      0x00\n        /* \"#utility.yul\":17673:17675   */\n      0x60\n        /* \"#utility.yul\":17662:17671   */\n      dup3\n        /* \"#utility.yul\":17658:17676   */\n      add\n        /* \"#utility.yul\":17650:17676   */\n      swap1\n      pop\n        /* \"#utility.yul\":17686:17757   */\n      tag_380\n        /* \"#utility.yul\":17754:17755   */\n      0x00\n        /* \"#utility.yul\":17743:17752   */\n      dup4\n        /* \"#utility.yul\":17739:17756   */\n      add\n        /* \"#utility.yul\":17730:17736   */\n      dup7\n        /* \"#utility.yul\":17686:17757   */\n      tag_144\n      jump\t// in\n    tag_380:\n        /* \"#utility.yul\":17804:17813   */\n      dup2\n        /* \"#utility.yul\":17798:17802   */\n      dup2\n        /* \"#utility.yul\":17794:17814   */\n      sub\n        /* \"#utility.yul\":17789:17791   */\n      0x20\n        /* \"#utility.yul\":17778:17787   */\n      dup4\n        /* \"#utility.yul\":17774:17792   */\n      add\n        /* \"#utility.yul\":17767:17815   */\n      mstore\n        /* \"#utility.yul\":17832:17910   */\n      tag_381\n        /* \"#utility.yul\":17905:17909   */\n      dup2\n        /* \"#utility.yul\":17896:17902   */\n      dup6\n        /* \"#utility.yul\":17832:17910   */\n      tag_149\n      jump\t// in\n    tag_381:\n        /* \"#utility.yul\":17824:17910   */\n      swap1\n      pop\n        /* \"#utility.yul\":17920:17992   */\n      tag_382\n        /* \"#utility.yul\":17988:17990   */\n      0x40\n        /* \"#utility.yul\":17977:17986   */\n      dup4\n        /* \"#utility.yul\":17973:17991   */\n      add\n        /* \"#utility.yul\":17964:17970   */\n      dup5\n        /* \"#utility.yul\":17920:17992   */\n      tag_152\n      jump\t// in\n    tag_382:\n        /* \"#utility.yul\":17466:17999   */\n      swap5\n      swap4\n      pop\n      pop\n      pop\n      pop\n      jump\t// out\n        /* \"#utility.yul\":18005:18395   */\n    tag_188:\n        /* \"#utility.yul\":18111:18114   */\n      0x00\n        /* \"#utility.yul\":18139:18178   */\n      tag_384\n        /* \"#utility.yul\":18172:18177   */\n      dup3\n        /* \"#utility.yul\":18139:18178   */\n      tag_145\n      jump\t// in\n    tag_384:\n        /* \"#utility.yul\":18194:18283   */\n      tag_385\n        /* \"#utility.yul\":18276:18282   */\n      dup2\n        /* \"#utility.yul\":18271:18274   */\n      dup6\n        /* \"#utility.yul\":18194:18283   */\n      tag_185\n      jump\t// in\n    tag_385:\n        /* \"#utility.yul\":18187:18283   */\n      swap4\n      pop\n        /* \"#utility.yul\":18292:18357   */\n      tag_386\n        /* \"#utility.yul\":18350:18356   */\n      dup2\n        /* \"#utility.yul\":18345:18348   */\n      dup6\n        /* \"#utility.yul\":18338:18342   */\n      0x20\n        /* \"#utility.yul\":18331:18336   */\n      dup7\n        /* \"#utility.yul\":18327:18343   */\n      add\n        /* \"#utility.yul\":18292:18357   */\n      tag_147\n      jump\t// in\n    tag_386:\n        /* \"#utility.yul\":18382:18388   */\n      dup1\n        /* \"#utility.yul\":18377:18380   */\n      dup5\n        /* \"#utility.yul\":18373:18389   */\n      add\n        /* \"#utility.yul\":18366:18389   */\n      swap2\n      pop\n        /* \"#utility.yul\":18115:18395   */\n      pop\n        /* \"#utility.yul\":18005:18395   */\n      swap3\n      swap2\n      pop\n      pop\n      jump\t// out\n        /* \"#utility.yul\":18401:18676   */\n    tag_111:\n        /* \"#utility.yul\":18533:18536   */\n      0x00\n        /* \"#utility.yul\":18555:18650   */\n      tag_388\n        /* \"#utility.yul\":18646:18649   */\n      dup3\n        /* \"#utility.yul\":18637:18643   */\n      dup5\n        /* \"#utility.yul\":18555:18650   */\n      tag_188\n      jump\t// in\n    tag_388:\n        /* \"#utility.yul\":18548:18650   */\n      swap2\n      pop\n        /* \"#utility.yul\":18667:18670   */\n      dup2\n        /* \"#utility.yul\":18660:18670   */\n      swap1\n      pop\n        /* \"#utility.yul\":18401:18676   */\n      swap3\n      swap2\n      pop\n      pop\n      jump\t// out\n        /* \"#utility.yul\":18682:18859   */\n    tag_189:\n        /* \"#utility.yul\":18822:18851   */\n      0x4e6f7420616e20617574686f72697a656420617574686f726974790000000000\n        /* \"#utility.yul\":18818:18819   */\n      0x00\n        /* \"#utility.yul\":18810:18816   */\n      dup3\n        /* \"#utility.yul\":18806:18820   */\n      add\n        /* \"#utility.yul\":18799:18852   */\n      mstore\n        /* \"#utility.yul\":18682:18859   */\n      pop\n      jump\t// out\n        /* \"#utility.yul\":18865:19231   */\n    tag_190:\n        /* \"#utility.yul\":19007:19010   */\n      0x00\n        /* \"#utility.yul\":19028:19095   */\n      tag_391\n        /* \"#utility.yul\":19092:19094   */\n      0x1b\n        /* \"#utility.yul\":19087:19090   */\n      dup4\n        /* \"#utility.yul\":19028:19095   */\n      tag_146\n      jump\t// in\n    tag_391:\n        /* \"#utility.yul\":19021:19095   */\n      swap2\n      pop\n        /* \"#utility.yul\":19104:19197   */\n      tag_392\n        /* \"#utility.yul\":19193:19196   */\n      dup3\n        /* \"#utility.yul\":19104:19197   */\n      tag_189\n      jump\t// in\n    tag_392:\n        /* \"#utility.yul\":19222:19224   */\n      0x20\n        /* \"#utility.yul\":19217:19220   */\n      dup3\n        /* \"#utility.yul\":19213:19225   */\n      add\n        /* \"#utility.yul\":19206:19225   */\n      swap1\n      pop\n        /* \"#utility.yul\":18865:19231   */\n      swap2\n      swap1\n      pop\n      jump\t// out\n        /* \"#utility.yul\":19237:19656   */\n    tag_120:\n        /* \"#utility.yul\":19403:19407   */\n      0x00\n        /* \"#utility.yul\":19441:19443   */\n      0x20\n        /* \"#utility.yul\":19430:19439   */\n      dup3\n        /* \"#utility.yul\":19426:19444   */\n      add\n        /* \"#utility.yul\":19418:19444   */\n      swap1\n      pop\n        /* \"#utility.yul\":19490:19499   */\n      dup2\n        /* \"#utility.yul\":19484:19488   */\n      dup2\n        /* \"#utility.yul\":19480:19500   */\n      sub\n        /* \"#utility.yul\":19476:19477   */\n      0x00\n        /* \"#utility.yul\":19465:19474   */\n      dup4\n        /* \"#utility.yul\":19461:19478   */\n      add\n        /* \"#utility.yul\":19454:19501   */\n      mstore\n        /* \"#utility.yul\":19518:19649   */\n      tag_394\n        /* \"#utility.yul\":19644:19648   */\n      dup2\n        /* \"#utility.yul\":19518:19649   */\n      tag_190\n      jump\t// in\n    tag_394:\n        /* \"#utility.yul\":19510:19649   */\n      swap1\n      pop\n        /* \"#utility.yul\":19237:19656   */\n      swap2\n      swap1\n      pop\n      jump\t// out\n        /* \"#utility.yul\":19662:20286   */\n    tag_128:\n        /* \"#utility.yul\":19851:19855   */\n      0x00\n        /* \"#utility.yul\":19889:19891   */\n      0x60\n        /* \"#utility.yul\":19878:19887   */\n      dup3\n        /* \"#utility.yul\":19874:19892   */\n      add\n        /* \"#utility.yul\":19866:19892   */\n      swap1\n      pop\n        /* \"#utility.yul\":19902:19973   */\n      tag_396\n        /* \"#utility.yul\":19970:19971   */\n      0x00\n        /* \"#utility.yul\":19959:19968   */\n      dup4\n        /* \"#utility.yul\":19955:19972   */\n      add\n        /* \"#utility.yul\":19946:19952   */\n      dup7\n        /* \"#utility.yul\":19902:19973   */\n      tag_144\n      jump\t// in\n    tag_396:\n        /* \"#utility.yul\":20020:20029   */\n      dup2\n        /* \"#utility.yul\":20014:20018   */\n      dup2\n        /* \"#utility.yul\":20010:20030   */\n      sub\n        /* \"#utility.yul\":20005:20007   */\n      0x20\n        /* \"#utility.yul\":19994:20003   */\n      dup4\n        /* \"#utility.yul\":19990:20008   */\n      add\n        /* \"#utility.yul\":19983:20031   */\n      mstore\n        /* \"#utility.yul\":20048:20126   */\n      tag_397\n        /* \"#utility.yul\":20121:20125   */\n      dup2\n        /* \"#utility.yul\":20112:20118   */\n      dup6\n        /* \"#utility.yul\":20048:20126   */\n      tag_149\n      jump\t// in\n    tag_397:\n        /* \"#utility.yul\":20040:20126   */\n      swap1\n      pop\n        /* \"#utility.yul\":20173:20182   */\n      dup2\n        /* \"#utility.yul\":20167:20171   */\n      dup2\n        /* \"#utility.yul\":20163:20183   */\n      sub\n        /* \"#utility.yul\":20158:20160   */\n      0x40\n        /* \"#utility.yul\":20147:20156   */\n      dup4\n        /* \"#utility.yul\":20143:20161   */\n      add\n        /* \"#utility.yul\":20136:20184   */\n      mstore\n        /* \"#utility.yul\":20201:20279   */\n      tag_398\n        /* \"#utility.yul\":20274:20278   */\n      dup2\n        /* \"#utility.yul\":20265:20271   */\n      dup5\n        /* \"#utility.yul\":20201:20279   */\n      tag_149\n      jump\t// in\n    tag_398:\n        /* \"#utility.yul\":20193:20279   */\n      swap1\n      pop\n        /* \"#utility.yul\":19662:20286   */\n      swap5\n      swap4\n      pop\n      pop\n      pop\n      pop\n      jump\t// out\n        /* \"#utility.yul\":20292:20513   */\n    tag_191:\n        /* \"#utility.yul\":20432:20466   */\n      0x4f6e6c792061646d696e2063616e20706572666f726d20746869732061637469\n        /* \"#utility.yul\":20428:20429   */\n      0x00\n        /* \"#utility.yul\":20420:20426   */\n      dup3\n        /* \"#utility.yul\":20416:20430   */\n      add\n        /* \"#utility.yul\":20409:20467   */\n      mstore\n        /* \"#utility.yul\":20501:20505   */\n      0x6f6e000000000000000000000000000000000000000000000000000000000000\n        /* \"#utility.yul\":20496:20498   */\n      0x20\n        /* \"#utility.yul\":20488:20494   */\n      dup3\n        /* \"#utility.yul\":20484:20499   */\n      add\n        /* \"#utility.yul\":20477:20506   */\n      mstore\n        /* \"#utility.yul\":20292:20513   */\n      pop\n      jump\t// out\n        /* \"#utility.yul\":20519:20885   */\n    tag_192:\n        /* \"#utility.yul\":20661:20664   */\n      0x00\n        /* \"#utility.yul\":20682:20749   */\n      tag_401\n        /* \"#utility.yul\":20746:20748   */\n      0x22\n        /* \"#utility.yul\":20741:20744   */\n      dup4\n        /* \"#utility.yul\":20682:20749   */\n      tag_146\n      jump\t// in\n    tag_401:\n        /* \"#utility.yul\":20675:20749   */\n      swap2\n      pop\n        /* \"#utility.yul\":20758:20851   */\n      tag_402\n        /* \"#utility.yul\":20847:20850   */\n      dup3\n        /* \"#utility.yul\":20758:20851   */\n      tag_191\n      jump\t// in\n    tag_402:\n        /* \"#utility.yul\":20876:20878   */\n      0x40\n        /* \"#utility.yul\":20871:20874   */\n      dup3\n        /* \"#utility.yul\":20867:20879   */\n      add\n        /* \"#utility.yul\":20860:20879   */\n      swap1\n      pop\n        /* \"#utility.yul\":20519:20885   */\n      swap2\n      swap1\n      pop\n      jump\t// out\n        /* \"#utility.yul\":20891:21310   */\n    tag_132:\n        /* \"#utility.yul\":21057:21061   */\n      0x00\n        /* \"#utility.yul\":21095:21097   */\n      0x20\n        /* \"#utility.yul\":21084:21093   */\n      dup3\n        /* \"#utility.yul\":21080:21098   */\n      add\n        /* \"#utility.yul\":21072:21098   */\n      swap1\n      pop\n        /* \"#utility.yul\":21144:21153   */\n      dup2\n        /* \"#utility.yul\":21138:21142   */\n      dup2\n        /* \"#utility.yul\":21134:21154   */\n      sub\n        /* \"#utility.yul\":21130:21131   */\n      0x00\n        /* \"#utility.yul\":21119:21128   */\n      dup4\n        /* \"#utility.yul\":21115:21132   */\n      add\n        /* \"#utility.yul\":21108:21155   */\n      mstore\n        /* \"#utility.yul\":21172:21303   */\n      tag_404\n        /* \"#utility.yul\":21298:21302   */\n      dup2\n        /* \"#utility.yul\":21172:21303   */\n      tag_192\n      jump\t// in\n    tag_404:\n        /* \"#utility.yul\":21164:21303   */\n      swap1\n      pop\n        /* \"#utility.yul\":20891:21310   */\n      swap2\n      swap1\n      pop\n      jump\t// out\n\n    auxdata: 0xa26469706673582212200bda30515f177a9e35987702f15f57d8d98df5ff08c2cf66b22cea5d4ff534c964736f6c634300081a0033\n}\n",
				"bytecode": {
					"linkReferences": {},
					"object": "60806040525f6001553480156012575f80fd5b50335f806101000a81548173ffffffffffffffffffffffffffffffffffffffff021916908373ffffffffffffffffffffffffffffffffffffffff16021790555061172f8061005f5f395ff3fe608060405234801561000f575f80fd5b506004361061009c575f3560e01c8063a9a981a311610064578063a9a981a314610184578063b49dbfc2146101a2578063b4a01858146101be578063d544e010146101da578063f851a440146101f65761009c565b80633477ee2e146100a057806335b8e820146100d457806335c3c876146101085780634b21a7c71461012457806366dc401514610154575b5f80fd5b6100ba60048036038101906100b59190610c56565b610214565b6040516100cb959493929190610d3f565b60405180910390f35b6100ee60048036038101906100e99190610c56565b6103f7565b6040516100ff959493929190610d3f565b60405180910390f35b610122600480360381019061011d9190610ed1565b610648565b005b61013e60048036038101906101399190610f75565b61079b565b60405161014b9190610fcf565b60405180910390f35b61016e60048036038101906101699190611019565b6108ac565b60405161017b919061105e565b60405180910390f35b61018c6108c9565b6040516101999190611077565b60405180910390f35b6101bc60048036038101906101b79190611090565b6108cf565b005b6101d860048036038101906101d39190611019565b610a26565b005b6101f460048036038101906101ef9190611019565b610b0b565b005b6101fe610bef565b60405161020b9190611118565b60405180910390f35b6002602052805f5260405f205f91509050805f0154908060010180546102399061115e565b80601f01602080910402602001604051908101604052809291908181526020018280546102659061115e565b80156102b05780601f10610287576101008083540402835291602001916102b0565b820191905f5260205f20905b81548152906001019060200180831161029357829003601f168201915b5050505050908060020180546102c59061115e565b80601f01602080910402602001604051908101604052809291908181526020018280546102f19061115e565b801561033c5780601f106103135761010080835404028352916020019161033c565b820191905f5260205f20905b81548152906001019060200180831161031f57829003601f168201915b5050505050908060030180546103519061115e565b80601f016020809104026020016040519081016040528092919081815260200182805461037d9061115e565b80156103c85780601f1061039f576101008083540402835291602001916103c8565b820191905f5260205f20905b8154815290600101906020018083116103ab57829003601f168201915b505050505090806005015f9054906101000a900473ffffffffffffffffffffffffffffffffffffffff16905085565b5f60608060605f808611801561040f57506001548611155b61044e576040517f08c379a0000000000000000000000000000000000000000000000000000000008152600401610445906111d8565b60405180910390fd5b5f60025f8881526020019081526020015f209050805f0154816001018260020183600301846005015f9054906101000a900473ffffffffffffffffffffffffffffffffffffffff168380546104a29061115e565b80601f01602080910402602001604051908101604052809291908181526020018280546104ce9061115e565b80156105195780601f106104f057610100808354040283529160200191610519565b820191905f5260205f20905b8154815290600101906020018083116104fc57829003601f168201915b5050505050935082805461052c9061115e565b80601f01602080910402602001604051908101604052809291908181526020018280546105589061115e565b80156105a35780601f1061057a576101008083540402835291602001916105a3565b820191905f5260205f20905b81548152906001019060200180831161058657829003601f168201915b505050505092508180546105b69061115e565b80601f01602080910402602001604051908101604052809291908181526020018280546105e29061115e565b801561062d5780601f106106045761010080835404028352916020019161062d565b820191905f5260205f20905b81548152906001019060200180831161061057829003601f168201915b50505050509150955095509550955095505091939590929450565b60015f81548092919061065a90611223565b91905055505f60025f60015481526020019081526020015f209050600154815f0181905550838160010190816106909190611407565b50828160020190816106a29190611407565b50818160030190816106b49190611407565b5033816005015f6101000a81548173ffffffffffffffffffffffffffffffffffffffff021916908373ffffffffffffffffffffffffffffffffffffffff1602179055506040518060400160405280600781526020017f4170706c696564000000000000000000000000000000000000000000000000008152508160040160405161073d9061152a565b908152602001604051809103902090816107579190611407565b507f4a2b8fc2ad6942aee90121e13dfd713889e03d0b1cbd9c0b708c71e9168d0115600154853360405161078d9392919061153e565b60405180910390a150505050565b60605f831180156107ae57506001548311155b6107ed576040517f08c379a00000000000000000000000000000000000000000000000000000000081526004016107e4906111d8565b60405180910390fd5b60025f8481526020019081526020015f206004018260405161080f91906115aa565b908152602001604051809103902080546108289061115e565b80601f01602080910402602001604051908101604052809291908181526020018280546108549061115e565b801561089f5780601f106108765761010080835404028352916020019161089f565b820191905f5260205f20905b81548152906001019060200180831161088257829003601f168201915b5050505050905092915050565b6003602052805f5260405f205f915054906101000a900460ff1681565b60015481565b60035f3373ffffffffffffffffffffffffffffffffffffffff1673ffffffffffffffffffffffffffffffffffffffff1681526020019081526020015f205f9054906101000a900460ff16610958576040517f08c379a000000000000000000000000000000000000000000000000000000000815260040161094f9061160a565b60405180910390fd5b5f8311801561096957506001548311155b6109a8576040517f08c379a000000000000000000000000000000000000000000000000000000000815260040161099f906111d8565b60405180910390fd5b8060025f8581526020019081526020015f20600401836040516109cb91906115aa565b908152602001604051809103902090816109e59190611407565b507f3e30ebb8ffbe169dceacc45ee9d203e97bf891461b56e3b6a9ef625c0e6021ff838383604051610a1993929190611628565b60405180910390a1505050565b5f8054906101000a900473ffffffffffffffffffffffffffffffffffffffff1673ffffffffffffffffffffffffffffffffffffffff163373ffffffffffffffffffffffffffffffffffffffff1614610ab3576040517f08c379a0000000000000000000000000000000000000000000000000000000008152600401610aaa906116db565b60405180910390fd5b600160035f8373ffffffffffffffffffffffffffffffffffffffff1673ffffffffffffffffffffffffffffffffffffffff1681526020019081526020015f205f6101000a81548160ff02191690831515021790555050565b5f8054906101000a900473ffffffffffffffffffffffffffffffffffffffff1673ffffffffffffffffffffffffffffffffffffffff163373ffffffffffffffffffffffffffffffffffffffff1614610b98576040517f08c379a0000000000000000000000000000000000000000000000000000000008152600401610b8f906116db565b60405180910390fd5b5f60035f8373ffffffffffffffffffffffffffffffffffffffff1673ffffffffffffffffffffffffffffffffffffffff1681526020019081526020015f205f6101000a81548160ff02191690831515021790555050565b5f8054906101000a900473ffffffffffffffffffffffffffffffffffffffff1681565b5f604051905090565b5f80fd5b5f80fd5b5f819050919050565b610c3581610c23565b8114610c3f575f80fd5b50565b5f81359050610c5081610c2c565b92915050565b5f60208284031215610c6b57610c6a610c1b565b5b5f610c7884828501610c42565b91505092915050565b610c8a81610c23565b82525050565b5f81519050919050565b5f82825260208201905092915050565b8281835e5f83830152505050565b5f601f19601f8301169050919050565b5f610cd282610c90565b610cdc8185610c9a565b9350610cec818560208601610caa565b610cf581610cb8565b840191505092915050565b5f73ffffffffffffffffffffffffffffffffffffffff82169050919050565b5f610d2982610d00565b9050919050565b610d3981610d1f565b82525050565b5f60a082019050610d525f830188610c81565b8181036020830152610d648187610cc8565b90508181036040830152610d788186610cc8565b90508181036060830152610d8c8185610cc8565b9050610d9b6080830184610d30565b9695505050505050565b5f80fd5b5f80fd5b7f4e487b71000000000000000000000000000000000000000000000000000000005f52604160045260245ffd5b610de382610cb8565b810181811067ffffffffffffffff82111715610e0257610e01610dad565b5b80604052505050565b5f610e14610c12565b9050610e208282610dda565b919050565b5f67ffffffffffffffff821115610e3f57610e3e610dad565b5b610e4882610cb8565b9050602081019050919050565b828183375f83830152505050565b5f610e75610e7084610e25565b610e0b565b905082815260208101848484011115610e9157610e90610da9565b5b610e9c848285610e55565b509392505050565b5f82601f830112610eb857610eb7610da5565b5b8135610ec8848260208601610e63565b91505092915050565b5f805f60608486031215610ee857610ee7610c1b565b5b5f84013567ffffffffffffffff811115610f0557610f04610c1f565b5b610f1186828701610ea4565b935050602084013567ffffffffffffffff811115610f3257610f31610c1f565b5b610f3e86828701610ea4565b925050604084013567ffffffffffffffff811115610f5f57610f5e610c1f565b5b610f6b86828701610ea4565b9150509250925092565b5f8060408385031215610f8b57610f8a610c1b565b5b5f610f9885828601610c42565b925050602083013567ffffffffffffffff811115610fb957610fb8610c1f565b5b610fc585828601610ea4565b9150509250929050565b5f6020820190508181035f830152610fe78184610cc8565b905092915050565b610ff881610d1f565b8114611002575f80fd5b50565b5f8135905061101381610fef565b92915050565b5f6020828403121561102e5761102d610c1b565b5b5f61103b84828501611005565b91505092915050565b5f8115159050919050565b61105881611044565b82525050565b5f6020820190506110715f83018461104f565b92915050565b5f60208201905061108a5f830184610c81565b92915050565b5f805f606084860312156110a7576110a6610c1b565b5b5f6110b486828701610c42565b935050602084013567ffffffffffffffff8111156110d5576110d4610c1f565b5b6110e186828701610ea4565b925050604084013567ffffffffffffffff81111561110257611101610c1f565b5b61110e86828701610ea4565b9150509250925092565b5f60208201905061112b5f830184610d30565b92915050565b7f4e487b71000000000000000000000000000000000000000000000000000000005f52602260045260245ffd5b5f600282049050600182168061117557607f821691505b60208210810361118857611187611131565b5b50919050565b7f496e76616c69642063616e6469646174652049440000000000000000000000005f82015250565b5f6111c2601483610c9a565b91506111cd8261118e565b602082019050919050565b5f6020820190508181035f8301526111ef816111b6565b9050919050565b7f4e487b71000000000000000000000000000000000000000000000000000000005f52601160045260245ffd5b5f61122d82610c23565b91507fffffffffffffffffffffffffffffffffffffffffffffffffffffffffffffffff820361125f5761125e6111f6565b5b600182019050919050565b5f819050815f5260205f209050919050565b5f6020601f8301049050919050565b5f82821b905092915050565b5f600883026112c67fffffffffffffffffffffffffffffffffffffffffffffffffffffffffffffffff8261128b565b6112d0868361128b565b95508019841693508086168417925050509392505050565b5f819050919050565b5f61130b61130661130184610c23565b6112e8565b610c23565b9050919050565b5f819050919050565b611324836112f1565b61133861133082611312565b848454611297565b825550505050565b5f90565b61134c611340565b61135781848461131b565b505050565b5b8181101561137a5761136f5f82611344565b60018101905061135d565b5050565b601f8211156113bf576113908161126a565b6113998461127c565b810160208510156113a8578190505b6113bc6113b48561127c565b83018261135c565b50505b505050565b5f82821c905092915050565b5f6113df5f19846008026113c4565b1980831691505092915050565b5f6113f783836113d0565b9150826002028217905092915050565b61141082610c90565b67ffffffffffffffff81111561142957611428610dad565b5b611433825461115e565b61143e82828561137e565b5f60209050601f83116001811461146f575f841561145d578287015190505b61146785826113ec565b8655506114ce565b601f19841661147d8661126a565b5f5b828110156114a45784890151825560018201915060208501945060208101905061147f565b868310156114c157848901516114bd601f8916826113d0565b8355505b6001600288020188555050505b505050505050565b5f81905092915050565b7f4170706c69636174696f6e0000000000000000000000000000000000000000005f82015250565b5f611514600b836114d6565b915061151f826114e0565b600b82019050919050565b5f61153482611508565b9150819050919050565b5f6060820190506115515f830186610c81565b81810360208301526115638185610cc8565b90506115726040830184610d30565b949350505050565b5f61158482610c90565b61158e81856114d6565b935061159e818560208601610caa565b80840191505092915050565b5f6115b5828461157a565b915081905092915050565b7f4e6f7420616e20617574686f72697a656420617574686f7269747900000000005f82015250565b5f6115f4601b83610c9a565b91506115ff826115c0565b602082019050919050565b5f6020820190508181035f830152611621816115e8565b9050919050565b5f60608201905061163b5f830186610c81565b818103602083015261164d8185610cc8565b905081810360408301526116618184610cc8565b9050949350505050565b7f4f6e6c792061646d696e2063616e20706572666f726d207468697320616374695f8201527f6f6e000000000000000000000000000000000000000000000000000000000000602082015250565b5f6116c5602283610c9a565b91506116d08261166b565b604082019050919050565b5f6020820190508181035f8301526116f2816116b9565b905091905056fea26469706673582212200bda30515f177a9e35987702f15f57d8d98df5ff08c2cf66b22cea5d4ff534c964736f6c634300081a0033",
					"opcodes": "PUSH1 0x80 PUSH1 0x40 MSTORE PUSH0 PUSH1 0x1 SSTORE CALLVALUE DUP1 ISZERO PUSH1 0x12 JUMPI PUSH0 DUP1 REVERT JUMPDEST POP CALLER PUSH0 DUP1 PUSH2 0x100 EXP DUP2 SLOAD DUP2 PUSH20 0xFFFFFFFFFFFFFFFFFFFFFFFFFFFFFFFFFFFFFFFF MUL NOT AND SWAP1 DUP4 PUSH20 0xFFFFFFFFFFFFFFFFFFFFFFFFFFFFFFFFFFFFFFFF AND MUL OR SWAP1 SSTORE POP PUSH2 0x172F DUP1 PUSH2 0x5F PUSH0 CODECOPY PUSH0 RETURN INVALID PUSH1 0x80 PUSH1 0x40 MSTORE CALLVALUE DUP1 ISZERO PUSH2 0xF JUMPI PUSH0 DUP1 REVERT JUMPDEST POP PUSH1 0x4 CALLDATASIZE LT PUSH2 0x9C JUMPI PUSH0 CALLDATALOAD PUSH1 0xE0 SHR DUP1 PUSH4 0xA9A981A3 GT PUSH2 0x64 JUMPI DUP1 PUSH4 0xA9A981A3 EQ PUSH2 0x184 JUMPI DUP1 PUSH4 0xB49DBFC2 EQ PUSH2 0x1A2 JUMPI DUP1 PUSH4 0xB4A01858 EQ PUSH2 0x1BE JUMPI DUP1 PUSH4 0xD544E010 EQ PUSH2 0x1DA JUMPI DUP1 PUSH4 0xF851A440 EQ PUSH2 0x1F6 JUMPI PUSH2 0x9C JUMP JUMPDEST DUP1 PUSH4 0x3477EE2E EQ PUSH2 0xA0 JUMPI DUP1 PUSH4 0x35B8E820 EQ PUSH2 0xD4 JUMPI DUP1 PUSH4 0x35C3C876 EQ PUSH2 0x108 JUMPI DUP1 PUSH4 0x4B21A7C7 EQ PUSH2 0x124 JUMPI DUP1 PUSH4 0x66DC4015 EQ PUSH2 0x154 JUMPI JUMPDEST PUSH0 DUP1 REVERT JUMPDEST PUSH2 0xBA PUSH1 0x4 DUP1 CALLDATASIZE SUB DUP2 ADD SWAP1 PUSH2 0xB5 SWAP2 SWAP1 PUSH2 0xC56 JUMP JUMPDEST PUSH2 0x214 JUMP JUMPDEST PUSH1 0x40 MLOAD PUSH2 0xCB SWAP6 SWAP5 SWAP4 SWAP3 SWAP2 SWAP1 PUSH2 0xD3F JUMP JUMPDEST PUSH1 0x40 MLOAD DUP1 SWAP2 SUB SWAP1 RETURN JUMPDEST PUSH2 0xEE PUSH1 0x4 DUP1 CALLDATASIZE SUB DUP2 ADD SWAP1 PUSH2 0xE9 SWAP2 SWAP1 PUSH2 0xC56 JUMP JUMPDEST PUSH2 0x3F7 JUMP JUMPDEST PUSH1 0x40 MLOAD PUSH2 0xFF SWAP6 SWAP5 SWAP4 SWAP3 SWAP2 SWAP1 PUSH2 0xD3F JUMP JUMPDEST PUSH1 0x40 MLOAD DUP1 SWAP2 SUB SWAP1 RETURN JUMPDEST PUSH2 0x122 PUSH1 0x4 DUP1 CALLDATASIZE SUB DUP2 ADD SWAP1 PUSH2 0x11D SWAP2 SWAP1 PUSH2 0xED1 JUMP JUMPDEST PUSH2 0x648 JUMP JUMPDEST STOP JUMPDEST PUSH2 0x13E PUSH1 0x4 DUP1 CALLDATASIZE SUB DUP2 ADD SWAP1 PUSH2 0x139 SWAP2 SWAP1 PUSH2 0xF75 JUMP JUMPDEST PUSH2 0x79B JUMP JUMPDEST PUSH1 0x40 MLOAD PUSH2 0x14B SWAP2 SWAP1 PUSH2 0xFCF JUMP JUMPDEST PUSH1 0x40 MLOAD DUP1 SWAP2 SUB SWAP1 RETURN JUMPDEST PUSH2 0x16E PUSH1 0x4 DUP1 CALLDATASIZE SUB DUP2 ADD SWAP1 PUSH2 0x169 SWAP2 SWAP1 PUSH2 0x1019 JUMP JUMPDEST PUSH2 0x8AC JUMP JUMPDEST PUSH1 0x40 MLOAD PUSH2 0x17B SWAP2 SWAP1 PUSH2 0x105E JUMP JUMPDEST PUSH1 0x40 MLOAD DUP1 SWAP2 SUB SWAP1 RETURN JUMPDEST PUSH2 0x18C PUSH2 0x8C9 JUMP JUMPDEST PUSH1 0x40 MLOAD PUSH2 0x199 SWAP2 SWAP1 PUSH2 0x1077 JUMP JUMPDEST PUSH1 0x40 MLOAD DUP1 SWAP2 SUB SWAP1 RETURN JUMPDEST PUSH2 0x1BC PUSH1 0x4 DUP1 CALLDATASIZE SUB DUP2 ADD SWAP1 PUSH2 0x1B7 SWAP2 SWAP1 PUSH2 0x1090 JUMP JUMPDEST PUSH2 0x8CF JUMP JUMPDEST STOP JUMPDEST PUSH2 0x1D8 PUSH1 0x4 DUP1 CALLDATASIZE SUB DUP2 ADD SWAP1 PUSH2 0x1D3 SWAP2 SWAP1 PUSH2 0x1019 JUMP JUMPDEST PUSH2 0xA26 JUMP JUMPDEST STOP JUMPDEST PUSH2 0x1F4 PUSH1 0x4 DUP1 CALLDATASIZE SUB DUP2 ADD SWAP1 PUSH2 0x1EF SWAP2 SWAP1 PUSH2 0x1019 JUMP JUMPDEST PUSH2 0xB0B JUMP JUMPDEST STOP JUMPDEST PUSH2 0x1FE PUSH2 0xBEF JUMP JUMPDEST PUSH1 0x40 MLOAD PUSH2 0x20B SWAP2 SWAP1 PUSH2 0x1118 JUMP JUMPDEST PUSH1 0x40 MLOAD DUP1 SWAP2 SUB SWAP1 RETURN JUMPDEST PUSH1 0x2 PUSH1 0x20 MSTORE DUP1 PUSH0 MSTORE PUSH1 0x40 PUSH0 KECCAK256 PUSH0 SWAP2 POP SWAP1 POP DUP1 PUSH0 ADD SLOAD SWAP1 DUP1 PUSH1 0x1 ADD DUP1 SLOAD PUSH2 0x239 SWAP1 PUSH2 0x115E JUMP JUMPDEST DUP1 PUSH1 0x1F ADD PUSH1 0x20 DUP1 SWAP2 DIV MUL PUSH1 0x20 ADD PUSH1 0x40 MLOAD SWAP1 DUP2 ADD PUSH1 0x40 MSTORE DUP1 SWAP3 SWAP2 SWAP1 DUP2 DUP2 MSTORE PUSH1 0x20 ADD DUP3 DUP1 SLOAD PUSH2 0x265 SWAP1 PUSH2 0x115E JUMP JUMPDEST DUP1 ISZERO PUSH2 0x2B0 JUMPI DUP1 PUSH1 0x1F LT PUSH2 0x287 JUMPI PUSH2 0x100 DUP1 DUP4 SLOAD DIV MUL DUP4 MSTORE SWAP2 PUSH1 0x20 ADD SWAP2 PUSH2 0x2B0 JUMP JUMPDEST DUP3 ADD SWAP2 SWAP1 PUSH0 MSTORE PUSH1 0x20 PUSH0 KECCAK256 SWAP1 JUMPDEST DUP2 SLOAD DUP2 MSTORE SWAP1 PUSH1 0x1 ADD SWAP1 PUSH1 0x20 ADD DUP1 DUP4 GT PUSH2 0x293 JUMPI DUP3 SWAP1 SUB PUSH1 0x1F AND DUP3 ADD SWAP2 JUMPDEST POP POP POP POP POP SWAP1 DUP1 PUSH1 0x2 ADD DUP1 SLOAD PUSH2 0x2C5 SWAP1 PUSH2 0x115E JUMP JUMPDEST DUP1 PUSH1 0x1F ADD PUSH1 0x20 DUP1 SWAP2 DIV MUL PUSH1 0x20 ADD PUSH1 0x40 MLOAD SWAP1 DUP2 ADD PUSH1 0x40 MSTORE DUP1 SWAP3 SWAP2 SWAP1 DUP2 DUP2 MSTORE PUSH1 0x20 ADD DUP3 DUP1 SLOAD PUSH2 0x2F1 SWAP1 PUSH2 0x115E JUMP JUMPDEST DUP1 ISZERO PUSH2 0x33C JUMPI DUP1 PUSH1 0x1F LT PUSH2 0x313 JUMPI PUSH2 0x100 DUP1 DUP4 SLOAD DIV MUL DUP4 MSTORE SWAP2 PUSH1 0x20 ADD SWAP2 PUSH2 0x33C JUMP JUMPDEST DUP3 ADD SWAP2 SWAP1 PUSH0 MSTORE PUSH1 0x20 PUSH0 KECCAK256 SWAP1 JUMPDEST DUP2 SLOAD DUP2 MSTORE SWAP1 PUSH1 0x1 ADD SWAP1 PUSH1 0x20 ADD DUP1 DUP4 GT PUSH2 0x31F JUMPI DUP3 SWAP1 SUB PUSH1 0x1F AND DUP3 ADD SWAP2 JUMPDEST POP POP POP POP POP SWAP1 DUP1 PUSH1 0x3 ADD DUP1 SLOAD PUSH2 0x351 SWAP1 PUSH2 0x115E JUMP JUMPDEST DUP1 PUSH1 0x1F ADD PUSH1 0x20 DUP1 SWAP2 DIV MUL PUSH1 0x20 ADD PUSH1 0x40 MLOAD SWAP1 DUP2 ADD PUSH1 0x40 MSTORE DUP1 SWAP3 SWAP2 SWAP1 DUP2 DUP2 MSTORE PUSH1 0x20 ADD DUP3 DUP1 SLOAD PUSH2 0x37D SWAP1 PUSH2 0x115E JUMP JUMPDEST DUP1 ISZERO PUSH2 0x3C8 JUMPI DUP1 PUSH1 0x1F LT PUSH2 0x39F JUMPI PUSH2 0x100 DUP1 DUP4 SLOAD DIV MUL DUP4 MSTORE SWAP2 PUSH1 0x20 ADD SWAP2 PUSH2 0x3C8 JUMP JUMPDEST DUP3 ADD SWAP2 SWAP1 PUSH0 MSTORE PUSH1 0x20 PUSH0 KECCAK256 SWAP1 JUMPDEST DUP2 SLOAD DUP2 MSTORE SWAP1 PUSH1 0x1 ADD SWAP1 PUSH1 0x20 ADD DUP1 DUP4 GT PUSH2 0x3AB JUMPI DUP3 SWAP1 SUB PUSH1 0x1F AND DUP3 ADD SWAP2 JUMPDEST POP POP POP POP POP SWAP1 DUP1 PUSH1 0x5 ADD PUSH0 SWAP1 SLOAD SWAP1 PUSH2 0x100 EXP SWAP1 DIV PUSH20 0xFFFFFFFFFFFFFFFFFFFFFFFFFFFFFFFFFFFFFFFF AND SWAP1 POP DUP6 JUMP JUMPDEST PUSH0 PUSH1 0x60 DUP1 PUSH1 0x60 PUSH0 DUP1 DUP7 GT DUP1 ISZERO PUSH2 0x40F JUMPI POP PUSH1 0x1 SLOAD DUP7 GT ISZERO JUMPDEST PUSH2 0x44E JUMPI PUSH1 0x40 MLOAD PUSH32 0x8C379A000000000000000000000000000000000000000000000000000000000 DUP2 MSTORE PUSH1 0x4 ADD PUSH2 0x445 SWAP1 PUSH2 0x11D8 JUMP JUMPDEST PUSH1 0x40 MLOAD DUP1 SWAP2 SUB SWAP1 REVERT JUMPDEST PUSH0 PUSH1 0x2 PUSH0 DUP9 DUP2 MSTORE PUSH1 0x20 ADD SWAP1 DUP2 MSTORE PUSH1 0x20 ADD PUSH0 KECCAK256 SWAP1 POP DUP1 PUSH0 ADD SLOAD DUP2 PUSH1 0x1 ADD DUP3 PUSH1 0x2 ADD DUP4 PUSH1 0x3 ADD DUP5 PUSH1 0x5 ADD PUSH0 SWAP1 SLOAD SWAP1 PUSH2 0x100 EXP SWAP1 DIV PUSH20 0xFFFFFFFFFFFFFFFFFFFFFFFFFFFFFFFFFFFFFFFF AND DUP4 DUP1 SLOAD PUSH2 0x4A2 SWAP1 PUSH2 0x115E JUMP JUMPDEST DUP1 PUSH1 0x1F ADD PUSH1 0x20 DUP1 SWAP2 DIV MUL PUSH1 0x20 ADD PUSH1 0x40 MLOAD SWAP1 DUP2 ADD PUSH1 0x40 MSTORE DUP1 SWAP3 SWAP2 SWAP1 DUP2 DUP2 MSTORE PUSH1 0x20 ADD DUP3 DUP1 SLOAD PUSH2 0x4CE SWAP1 PUSH2 0x115E JUMP JUMPDEST DUP1 ISZERO PUSH2 0x519 JUMPI DUP1 PUSH1 0x1F LT PUSH2 0x4F0 JUMPI PUSH2 0x100 DUP1 DUP4 SLOAD DIV MUL DUP4 MSTORE SWAP2 PUSH1 0x20 ADD SWAP2 PUSH2 0x519 JUMP JUMPDEST DUP3 ADD SWAP2 SWAP1 PUSH0 MSTORE PUSH1 0x20 PUSH0 KECCAK256 SWAP1 JUMPDEST DUP2 SLOAD DUP2 MSTORE SWAP1 PUSH1 0x1 ADD SWAP1 PUSH1 0x20 ADD DUP1 DUP4 GT PUSH2 0x4FC JUMPI DUP3 SWAP1 SUB PUSH1 0x1F AND DUP3 ADD SWAP2 JUMPDEST POP POP POP POP POP SWAP4 POP DUP3 DUP1 SLOAD PUSH2 0x52C SWAP1 PUSH2 0x115E JUMP JUMPDEST DUP1 PUSH1 0x1F ADD PUSH1 0x20 DUP1 SWAP2 DIV MUL PUSH1 0x20 ADD PUSH1 0x40 MLOAD SWAP1 DUP2 ADD PUSH1 0x40 MSTORE DUP1 SWAP3 SWAP2 SWAP1 DUP2 DUP2 MSTORE PUSH1 0x20 ADD DUP3 DUP1 SLOAD PUSH2 0x558 SWAP1 PUSH2 0x115E JUMP JUMPDEST DUP1 ISZERO PUSH2 0x5A3 JUMPI DUP1 PUSH1 0x1F LT PUSH2 0x57A JUMPI PUSH2 0x100 DUP1 DUP4 SLOAD DIV MUL DUP4 MSTORE SWAP2 PUSH1 0x20 ADD SWAP2 PUSH2 0x5A3 JUMP JUMPDEST DUP3 ADD SWAP2 SWAP1 PUSH0 MSTORE PUSH1 0x20 PUSH0 KECCAK256 SWAP1 JUMPDEST DUP2 SLOAD DUP2 MSTORE SWAP1 PUSH1 0x1 ADD SWAP1 PUSH1 0x20 ADD DUP1 DUP4 GT PUSH2 0x586 JUMPI DUP3 SWAP1 SUB PUSH1 0x1F AND DUP3 ADD SWAP2 JUMPDEST POP POP POP POP POP SWAP3 POP DUP2 DUP1 SLOAD PUSH2 0x5B6 SWAP1 PUSH2 0x115E JUMP JUMPDEST DUP1 PUSH1 0x1F ADD PUSH1 0x20 DUP1 SWAP2 DIV MUL PUSH1 0x20 ADD PUSH1 0x40 MLOAD SWAP1 DUP2 ADD PUSH1 0x40 MSTORE DUP1 SWAP3 SWAP2 SWAP1 DUP2 DUP2 MSTORE PUSH1 0x20 ADD DUP3 DUP1 SLOAD PUSH2 0x5E2 SWAP1 PUSH2 0x115E JUMP JUMPDEST DUP1 ISZERO PUSH2 0x62D JUMPI DUP1 PUSH1 0x1F LT PUSH2 0x604 JUMPI PUSH2 0x100 DUP1 DUP4 SLOAD DIV MUL DUP4 MSTORE SWAP2 PUSH1 0x20 ADD SWAP2 PUSH2 0x62D JUMP JUMPDEST DUP3 ADD SWAP2 SWAP1 PUSH0 MSTORE PUSH1 0x20 PUSH0 KECCAK256 SWAP1 JUMPDEST DUP2 SLOAD DUP2 MSTORE SWAP1 PUSH1 0x1 ADD SWAP1 PUSH1 0x20 ADD DUP1 DUP4 GT PUSH2 0x610 JUMPI DUP3 SWAP1 SUB PUSH1 0x1F AND DUP3 ADD SWAP2 JUMPDEST POP POP POP POP POP SWAP2 POP SWAP6 POP SWAP6 POP SWAP6 POP SWAP6 POP SWAP6 POP POP SWAP2 SWAP4 SWAP6 SWAP1 SWAP3 SWAP5 POP JUMP JUMPDEST PUSH1 0x1 PUSH0 DUP2 SLOAD DUP1 SWAP3 SWAP2 SWAP1 PUSH2 0x65A SWAP1 PUSH2 0x1223 JUMP JUMPDEST SWAP2 SWAP1 POP SSTORE POP PUSH0 PUSH1 0x2 PUSH0 PUSH1 0x1 SLOAD DUP2 MSTORE PUSH1 0x20 ADD SWAP1 DUP2 MSTORE PUSH1 0x20 ADD PUSH0 KECCAK256 SWAP1 POP PUSH1 0x1 SLOAD DUP2 PUSH0 ADD DUP2 SWAP1 SSTORE POP DUP4 DUP2 PUSH1 0x1 ADD SWAP1 DUP2 PUSH2 0x690 SWAP2 SWAP1 PUSH2 0x1407 JUMP JUMPDEST POP DUP3 DUP2 PUSH1 0x2 ADD SWAP1 DUP2 PUSH2 0x6A2 SWAP2 SWAP1 PUSH2 0x1407 JUMP JUMPDEST POP DUP2 DUP2 PUSH1 0x3 ADD SWAP1 DUP2 PUSH2 0x6B4 SWAP2 SWAP1 PUSH2 0x1407 JUMP JUMPDEST POP CALLER DUP2 PUSH1 0x5 ADD PUSH0 PUSH2 0x100 EXP DUP2 SLOAD DUP2 PUSH20 0xFFFFFFFFFFFFFFFFFFFFFFFFFFFFFFFFFFFFFFFF MUL NOT AND SWAP1 DUP4 PUSH20 0xFFFFFFFFFFFFFFFFFFFFFFFFFFFFFFFFFFFFFFFF AND MUL OR SWAP1 SSTORE POP PUSH1 0x40 MLOAD DUP1 PUSH1 0x40 ADD PUSH1 0x40 MSTORE DUP1 PUSH1 0x7 DUP2 MSTORE PUSH1 0x20 ADD PUSH32 0x4170706C69656400000000000000000000000000000000000000000000000000 DUP2 MSTORE POP DUP2 PUSH1 0x4 ADD PUSH1 0x40 MLOAD PUSH2 0x73D SWAP1 PUSH2 0x152A JUMP JUMPDEST SWAP1 DUP2 MSTORE PUSH1 0x20 ADD PUSH1 0x40 MLOAD DUP1 SWAP2 SUB SWAP1 KECCAK256 SWAP1 DUP2 PUSH2 0x757 SWAP2 SWAP1 PUSH2 0x1407 JUMP JUMPDEST POP PUSH32 0x4A2B8FC2AD6942AEE90121E13DFD713889E03D0B1CBD9C0B708C71E9168D0115 PUSH1 0x1 SLOAD DUP6 CALLER PUSH1 0x40 MLOAD PUSH2 0x78D SWAP4 SWAP3 SWAP2 SWAP1 PUSH2 0x153E JUMP JUMPDEST PUSH1 0x40 MLOAD DUP1 SWAP2 SUB SWAP1 LOG1 POP POP POP POP JUMP JUMPDEST PUSH1 0x60 PUSH0 DUP4 GT DUP1 ISZERO PUSH2 0x7AE JUMPI POP PUSH1 0x1 SLOAD DUP4 GT ISZERO JUMPDEST PUSH2 0x7ED JUMPI PUSH1 0x40 MLOAD PUSH32 0x8C379A000000000000000000000000000000000000000000000000000000000 DUP2 MSTORE PUSH1 0x4 ADD PUSH2 0x7E4 SWAP1 PUSH2 0x11D8 JUMP JUMPDEST PUSH1 0x40 MLOAD DUP1 SWAP2 SUB SWAP1 REVERT JUMPDEST PUSH1 0x2 PUSH0 DUP5 DUP2 MSTORE PUSH1 0x20 ADD SWAP1 DUP2 MSTORE PUSH1 0x20 ADD PUSH0 KECCAK256 PUSH1 0x4 ADD DUP3 PUSH1 0x40 MLOAD PUSH2 0x80F SWAP2 SWAP1 PUSH2 0x15AA JUMP JUMPDEST SWAP1 DUP2 MSTORE PUSH1 0x20 ADD PUSH1 0x40 MLOAD DUP1 SWAP2 SUB SWAP1 KECCAK256 DUP1 SLOAD PUSH2 0x828 SWAP1 PUSH2 0x115E JUMP JUMPDEST DUP1 PUSH1 0x1F ADD PUSH1 0x20 DUP1 SWAP2 DIV MUL PUSH1 0x20 ADD PUSH1 0x40 MLOAD SWAP1 DUP2 ADD PUSH1 0x40 MSTORE DUP1 SWAP3 SWAP2 SWAP1 DUP2 DUP2 MSTORE PUSH1 0x20 ADD DUP3 DUP1 SLOAD PUSH2 0x854 SWAP1 PUSH2 0x115E JUMP JUMPDEST DUP1 ISZERO PUSH2 0x89F JUMPI DUP1 PUSH1 0x1F LT PUSH2 0x876 JUMPI PUSH2 0x100 DUP1 DUP4 SLOAD DIV MUL DUP4 MSTORE SWAP2 PUSH1 0x20 ADD SWAP2 PUSH2 0x89F JUMP JUMPDEST DUP3 ADD SWAP2 SWAP1 PUSH0 MSTORE PUSH1 0x20 PUSH0 KECCAK256 SWAP1 JUMPDEST DUP2 SLOAD DUP2 MSTORE SWAP1 PUSH1 0x1 ADD SWAP1 PUSH1 0x20 ADD DUP1 DUP4 GT PUSH2 0x882 JUMPI DUP3 SWAP1 SUB PUSH1 0x1F AND DUP3 ADD SWAP2 JUMPDEST POP POP POP POP POP SWAP1 POP SWAP3 SWAP2 POP POP JUMP JUMPDEST PUSH1 0x3 PUSH1 0x20 MSTORE DUP1 PUSH0 MSTORE PUSH1 0x40 PUSH0 KECCAK256 PUSH0 SWAP2 POP SLOAD SWAP1 PUSH2 0x100 EXP SWAP1 DIV PUSH1 0xFF AND DUP2 JUMP JUMPDEST PUSH1 0x1 SLOAD DUP2 JUMP JUMPDEST PUSH1 0x3 PUSH0 CALLER PUSH20 0xFFFFFFFFFFFFFFFFFFFFFFFFFFFFFFFFFFFFFFFF AND PUSH20 0xFFFFFFFFFFFFFFFFFFFFFFFFFFFFFFFFFFFFFFFF AND DUP2 MSTORE PUSH1 0x20 ADD SWAP1 DUP2 MSTORE PUSH1 0x20 ADD PUSH0 KECCAK256 PUSH0 SWAP1 SLOAD SWAP1 PUSH2 0x100 EXP SWAP1 DIV PUSH1 0xFF AND PUSH2 0x958 JUMPI PUSH1 0x40 MLOAD PUSH32 0x8C379A000000000000000000000000000000000000000000000000000000000 DUP2 MSTORE PUSH1 0x4 ADD PUSH2 0x94F SWAP1 PUSH2 0x160A JUMP JUMPDEST PUSH1 0x40 MLOAD DUP1 SWAP2 SUB SWAP1 REVERT JUMPDEST PUSH0 DUP4 GT DUP1 ISZERO PUSH2 0x969 JUMPI POP PUSH1 0x1 SLOAD DUP4 GT ISZERO JUMPDEST PUSH2 0x9A8 JUMPI PUSH1 0x40 MLOAD PUSH32 0x8C379A000000000000000000000000000000000000000000000000000000000 DUP2 MSTORE PUSH1 0x4 ADD PUSH2 0x99F SWAP1 PUSH2 0x11D8 JUMP JUMPDEST PUSH1 0x40 MLOAD DUP1 SWAP2 SUB SWAP1 REVERT JUMPDEST DUP1 PUSH1 0x2 PUSH0 DUP6 DUP2 MSTORE PUSH1 0x20 ADD SWAP1 DUP2 MSTORE PUSH1 0x20 ADD PUSH0 KECCAK256 PUSH1 0x4 ADD DUP4 PUSH1 0x40 MLOAD PUSH2 0x9CB SWAP2 SWAP1 PUSH2 0x15AA JUMP JUMPDEST SWAP1 DUP2 MSTORE PUSH1 0x20 ADD PUSH1 0x40 MLOAD DUP1 SWAP2 SUB SWAP1 KECCAK256 SWAP1 DUP2 PUSH2 0x9E5 SWAP2 SWAP1 PUSH2 0x1407 JUMP JUMPDEST POP PUSH32 0x3E30EBB8FFBE169DCEACC45EE9D203E97BF891461B56E3B6A9EF625C0E6021FF DUP4 DUP4 DUP4 PUSH1 0x40 MLOAD PUSH2 0xA19 SWAP4 SWAP3 SWAP2 SWAP1 PUSH2 0x1628 JUMP JUMPDEST PUSH1 0x40 MLOAD DUP1 SWAP2 SUB SWAP1 LOG1 POP POP POP JUMP JUMPDEST PUSH0 DUP1 SLOAD SWAP1 PUSH2 0x100 EXP SWAP1 DIV PUSH20 0xFFFFFFFFFFFFFFFFFFFFFFFFFFFFFFFFFFFFFFFF AND PUSH20 0xFFFFFFFFFFFFFFFFFFFFFFFFFFFFFFFFFFFFFFFF AND CALLER PUSH20 0xFFFFFFFFFFFFFFFFFFFFFFFFFFFFFFFFFFFFFFFF AND EQ PUSH2 0xAB3 JUMPI PUSH1 0x40 MLOAD PUSH32 0x8C379A000000000000000000000000000000000000000000000000000000000 DUP2 MSTORE PUSH1 0x4 ADD PUSH2 0xAAA SWAP1 PUSH2 0x16DB JUMP JUMPDEST PUSH1 0x40 MLOAD DUP1 SWAP2 SUB SWAP1 REVERT JUMPDEST PUSH1 0x1 PUSH1 0x3 PUSH0 DUP4 PUSH20 0xFFFFFFFFFFFFFFFFFFFFFFFFFFFFFFFFFFFFFFFF AND PUSH20 0xFFFFFFFFFFFFFFFFFFFFFFFFFFFFFFFFFFFFFFFF AND DUP2 MSTORE PUSH1 0x20 ADD SWAP1 DUP2 MSTORE PUSH1 0x20 ADD PUSH0 KECCAK256 PUSH0 PUSH2 0x100 EXP DUP2 SLOAD DUP2 PUSH1 0xFF MUL NOT AND SWAP1 DUP4 ISZERO ISZERO MUL OR SWAP1 SSTORE POP POP JUMP JUMPDEST PUSH0 DUP1 SLOAD SWAP1 PUSH2 0x100 EXP SWAP1 DIV PUSH20 0xFFFFFFFFFFFFFFFFFFFFFFFFFFFFFFFFFFFFFFFF AND PUSH20 0xFFFFFFFFFFFFFFFFFFFFFFFFFFFFFFFFFFFFFFFF AND CALLER PUSH20 0xFFFFFFFFFFFFFFFFFFFFFFFFFFFFFFFFFFFFFFFF AND EQ PUSH2 0xB98 JUMPI PUSH1 0x40 MLOAD PUSH32 0x8C379A000000000000000000000000000000000000000000000000000000000 DUP2 MSTORE PUSH1 0x4 ADD PUSH2 0xB8F SWAP1 PUSH2 0x16DB JUMP JUMPDEST PUSH1 0x40 MLOAD DUP1 SWAP2 SUB SWAP1 REVERT JUMPDEST PUSH0 PUSH1 0x3 PUSH0 DUP4 PUSH20 0xFFFFFFFFFFFFFFFFFFFFFFFFFFFFFFFFFFFFFFFF AND PUSH20 0xFFFFFFFFFFFFFFFFFFFFFFFFFFFFFFFFFFFFFFFF AND DUP2 MSTORE PUSH1 0x20 ADD SWAP1 DUP2 MSTORE PUSH1 0x20 ADD PUSH0 KECCAK256 PUSH0 PUSH2 0x100 EXP DUP2 SLOAD DUP2 PUSH1 0xFF MUL NOT AND SWAP1 DUP4 ISZERO ISZERO MUL OR SWAP1 SSTORE POP POP JUMP JUMPDEST PUSH0 DUP1 SLOAD SWAP1 PUSH2 0x100 EXP SWAP1 DIV PUSH20 0xFFFFFFFFFFFFFFFFFFFFFFFFFFFFFFFFFFFFFFFF AND DUP2 JUMP JUMPDEST PUSH0 PUSH1 0x40 MLOAD SWAP1 POP SWAP1 JUMP JUMPDEST PUSH0 DUP1 REVERT JUMPDEST PUSH0 DUP1 REVERT JUMPDEST PUSH0 DUP2 SWAP1 POP SWAP2 SWAP1 POP JUMP JUMPDEST PUSH2 0xC35 DUP2 PUSH2 0xC23 JUMP JUMPDEST DUP2 EQ PUSH2 0xC3F JUMPI PUSH0 DUP1 REVERT JUMPDEST POP JUMP JUMPDEST PUSH0 DUP2 CALLDATALOAD SWAP1 POP PUSH2 0xC50 DUP2 PUSH2 0xC2C JUMP JUMPDEST SWAP3 SWAP2 POP POP JUMP JUMPDEST PUSH0 PUSH1 0x20 DUP3 DUP5 SUB SLT ISZERO PUSH2 0xC6B JUMPI PUSH2 0xC6A PUSH2 0xC1B JUMP JUMPDEST JUMPDEST PUSH0 PUSH2 0xC78 DUP5 DUP3 DUP6 ADD PUSH2 0xC42 JUMP JUMPDEST SWAP2 POP POP SWAP3 SWAP2 POP POP JUMP JUMPDEST PUSH2 0xC8A DUP2 PUSH2 0xC23 JUMP JUMPDEST DUP3 MSTORE POP POP JUMP JUMPDEST PUSH0 DUP2 MLOAD SWAP1 POP SWAP2 SWAP1 POP JUMP JUMPDEST PUSH0 DUP3 DUP3 MSTORE PUSH1 0x20 DUP3 ADD SWAP1 POP SWAP3 SWAP2 POP POP JUMP JUMPDEST DUP3 DUP2 DUP4 MCOPY PUSH0 DUP4 DUP4 ADD MSTORE POP POP POP JUMP JUMPDEST PUSH0 PUSH1 0x1F NOT PUSH1 0x1F DUP4 ADD AND SWAP1 POP SWAP2 SWAP1 POP JUMP JUMPDEST PUSH0 PUSH2 0xCD2 DUP3 PUSH2 0xC90 JUMP JUMPDEST PUSH2 0xCDC DUP2 DUP6 PUSH2 0xC9A JUMP JUMPDEST SWAP4 POP PUSH2 0xCEC DUP2 DUP6 PUSH1 0x20 DUP7 ADD PUSH2 0xCAA JUMP JUMPDEST PUSH2 0xCF5 DUP2 PUSH2 0xCB8 JUMP JUMPDEST DUP5 ADD SWAP2 POP POP SWAP3 SWAP2 POP POP JUMP JUMPDEST PUSH0 PUSH20 0xFFFFFFFFFFFFFFFFFFFFFFFFFFFFFFFFFFFFFFFF DUP3 AND SWAP1 POP SWAP2 SWAP1 POP JUMP JUMPDEST PUSH0 PUSH2 0xD29 DUP3 PUSH2 0xD00 JUMP JUMPDEST SWAP1 POP SWAP2 SWAP1 POP JUMP JUMPDEST PUSH2 0xD39 DUP2 PUSH2 0xD1F JUMP JUMPDEST DUP3 MSTORE POP POP JUMP JUMPDEST PUSH0 PUSH1 0xA0 DUP3 ADD SWAP1 POP PUSH2 0xD52 PUSH0 DUP4 ADD DUP9 PUSH2 0xC81 JUMP JUMPDEST DUP2 DUP2 SUB PUSH1 0x20 DUP4 ADD MSTORE PUSH2 0xD64 DUP2 DUP8 PUSH2 0xCC8 JUMP JUMPDEST SWAP1 POP DUP2 DUP2 SUB PUSH1 0x40 DUP4 ADD MSTORE PUSH2 0xD78 DUP2 DUP7 PUSH2 0xCC8 JUMP JUMPDEST SWAP1 POP DUP2 DUP2 SUB PUSH1 0x60 DUP4 ADD MSTORE PUSH2 0xD8C DUP2 DUP6 PUSH2 0xCC8 JUMP JUMPDEST SWAP1 POP PUSH2 0xD9B PUSH1 0x80 DUP4 ADD DUP5 PUSH2 0xD30 JUMP JUMPDEST SWAP7 SWAP6 POP POP POP POP POP POP JUMP JUMPDEST PUSH0 DUP1 REVERT JUMPDEST PUSH0 DUP1 REVERT JUMPDEST PUSH32 0x4E487B7100000000000000000000000000000000000000000000000000000000 PUSH0 MSTORE PUSH1 0x41 PUSH1 0x4 MSTORE PUSH1 0x24 PUSH0 REVERT JUMPDEST PUSH2 0xDE3 DUP3 PUSH2 0xCB8 JUMP JUMPDEST DUP2 ADD DUP2 DUP2 LT PUSH8 0xFFFFFFFFFFFFFFFF DUP3 GT OR ISZERO PUSH2 0xE02 JUMPI PUSH2 0xE01 PUSH2 0xDAD JUMP JUMPDEST JUMPDEST DUP1 PUSH1 0x40 MSTORE POP POP POP JUMP JUMPDEST PUSH0 PUSH2 0xE14 PUSH2 0xC12 JUMP JUMPDEST SWAP1 POP PUSH2 0xE20 DUP3 DUP3 PUSH2 0xDDA JUMP JUMPDEST SWAP2 SWAP1 POP JUMP JUMPDEST PUSH0 PUSH8 0xFFFFFFFFFFFFFFFF DUP3 GT ISZERO PUSH2 0xE3F JUMPI PUSH2 0xE3E PUSH2 0xDAD JUMP JUMPDEST JUMPDEST PUSH2 0xE48 DUP3 PUSH2 0xCB8 JUMP JUMPDEST SWAP1 POP PUSH1 0x20 DUP2 ADD SWAP1 POP SWAP2 SWAP1 POP JUMP JUMPDEST DUP3 DUP2 DUP4 CALLDATACOPY PUSH0 DUP4 DUP4 ADD MSTORE POP POP POP JUMP JUMPDEST PUSH0 PUSH2 0xE75 PUSH2 0xE70 DUP5 PUSH2 0xE25 JUMP JUMPDEST PUSH2 0xE0B JUMP JUMPDEST SWAP1 POP DUP3 DUP2 MSTORE PUSH1 0x20 DUP2 ADD DUP5 DUP5 DUP5 ADD GT ISZERO PUSH2 0xE91 JUMPI PUSH2 0xE90 PUSH2 0xDA9 JUMP JUMPDEST JUMPDEST PUSH2 0xE9C DUP5 DUP3 DUP6 PUSH2 0xE55 JUMP JUMPDEST POP SWAP4 SWAP3 POP POP POP JUMP JUMPDEST PUSH0 DUP3 PUSH1 0x1F DUP4 ADD SLT PUSH2 0xEB8 JUMPI PUSH2 0xEB7 PUSH2 0xDA5 JUMP JUMPDEST JUMPDEST DUP2 CALLDATALOAD PUSH2 0xEC8 DUP5 DUP3 PUSH1 0x20 DUP7 ADD PUSH2 0xE63 JUMP JUMPDEST SWAP2 POP POP SWAP3 SWAP2 POP POP JUMP JUMPDEST PUSH0 DUP1 PUSH0 PUSH1 0x60 DUP5 DUP7 SUB SLT ISZERO PUSH2 0xEE8 JUMPI PUSH2 0xEE7 PUSH2 0xC1B JUMP JUMPDEST JUMPDEST PUSH0 DUP5 ADD CALLDATALOAD PUSH8 0xFFFFFFFFFFFFFFFF DUP2 GT ISZERO PUSH2 0xF05 JUMPI PUSH2 0xF04 PUSH2 0xC1F JUMP JUMPDEST JUMPDEST PUSH2 0xF11 DUP7 DUP3 DUP8 ADD PUSH2 0xEA4 JUMP JUMPDEST SWAP4 POP POP PUSH1 0x20 DUP5 ADD CALLDATALOAD PUSH8 0xFFFFFFFFFFFFFFFF DUP2 GT ISZERO PUSH2 0xF32 JUMPI PUSH2 0xF31 PUSH2 0xC1F JUMP JUMPDEST JUMPDEST PUSH2 0xF3E DUP7 DUP3 DUP8 ADD PUSH2 0xEA4 JUMP JUMPDEST SWAP3 POP POP PUSH1 0x40 DUP5 ADD CALLDATALOAD PUSH8 0xFFFFFFFFFFFFFFFF DUP2 GT ISZERO PUSH2 0xF5F JUMPI PUSH2 0xF5E PUSH2 0xC1F JUMP JUMPDEST JUMPDEST PUSH2 0xF6B DUP7 DUP3 DUP8 ADD PUSH2 0xEA4 JUMP JUMPDEST SWAP2 POP POP SWAP3 POP SWAP3 POP SWAP3 JUMP JUMPDEST PUSH0 DUP1 PUSH1 0x40 DUP4 DUP6 SUB SLT ISZERO PUSH2 0xF8B JUMPI PUSH2 0xF8A PUSH2 0xC1B JUMP JUMPDEST JUMPDEST PUSH0 PUSH2 0xF98 DUP6 DUP3 DUP7 ADD PUSH2 0xC42 JUMP JUMPDEST SWAP3 POP POP PUSH1 0x20 DUP4 ADD CALLDATALOAD PUSH8 0xFFFFFFFFFFFFFFFF DUP2 GT ISZERO PUSH2 0xFB9 JUMPI PUSH2 0xFB8 PUSH2 0xC1F JUMP JUMPDEST JUMPDEST PUSH2 0xFC5 DUP6 DUP3 DUP7 ADD PUSH2 0xEA4 JUMP JUMPDEST SWAP2 POP POP SWAP3 POP SWAP3 SWAP1 POP JUMP JUMPDEST PUSH0 PUSH1 0x20 DUP3 ADD SWAP1 POP DUP2 DUP2 SUB PUSH0 DUP4 ADD MSTORE PUSH2 0xFE7 DUP2 DUP5 PUSH2 0xCC8 JUMP JUMPDEST SWAP1 POP SWAP3 SWAP2 POP POP JUMP JUMPDEST PUSH2 0xFF8 DUP2 PUSH2 0xD1F JUMP JUMPDEST DUP2 EQ PUSH2 0x1002 JUMPI PUSH0 DUP1 REVERT JUMPDEST POP JUMP JUMPDEST PUSH0 DUP2 CALLDATALOAD SWAP1 POP PUSH2 0x1013 DUP2 PUSH2 0xFEF JUMP JUMPDEST SWAP3 SWAP2 POP POP JUMP JUMPDEST PUSH0 PUSH1 0x20 DUP3 DUP5 SUB SLT ISZERO PUSH2 0x102E JUMPI PUSH2 0x102D PUSH2 0xC1B JUMP JUMPDEST JUMPDEST PUSH0 PUSH2 0x103B DUP5 DUP3 DUP6 ADD PUSH2 0x1005 JUMP JUMPDEST SWAP2 POP POP SWAP3 SWAP2 POP POP JUMP JUMPDEST PUSH0 DUP2 ISZERO ISZERO SWAP1 POP SWAP2 SWAP1 POP JUMP JUMPDEST PUSH2 0x1058 DUP2 PUSH2 0x1044 JUMP JUMPDEST DUP3 MSTORE POP POP JUMP JUMPDEST PUSH0 PUSH1 0x20 DUP3 ADD SWAP1 POP PUSH2 0x1071 PUSH0 DUP4 ADD DUP5 PUSH2 0x104F JUMP JUMPDEST SWAP3 SWAP2 POP POP JUMP JUMPDEST PUSH0 PUSH1 0x20 DUP3 ADD SWAP1 POP PUSH2 0x108A PUSH0 DUP4 ADD DUP5 PUSH2 0xC81 JUMP JUMPDEST SWAP3 SWAP2 POP POP JUMP JUMPDEST PUSH0 DUP1 PUSH0 PUSH1 0x60 DUP5 DUP7 SUB SLT ISZERO PUSH2 0x10A7 JUMPI PUSH2 0x10A6 PUSH2 0xC1B JUMP JUMPDEST JUMPDEST PUSH0 PUSH2 0x10B4 DUP7 DUP3 DUP8 ADD PUSH2 0xC42 JUMP JUMPDEST SWAP4 POP POP PUSH1 0x20 DUP5 ADD CALLDATALOAD PUSH8 0xFFFFFFFFFFFFFFFF DUP2 GT ISZERO PUSH2 0x10D5 JUMPI PUSH2 0x10D4 PUSH2 0xC1F JUMP JUMPDEST JUMPDEST PUSH2 0x10E1 DUP7 DUP3 DUP8 ADD PUSH2 0xEA4 JUMP JUMPDEST SWAP3 POP POP PUSH1 0x40 DUP5 ADD CALLDATALOAD PUSH8 0xFFFFFFFFFFFFFFFF DUP2 GT ISZERO PUSH2 0x1102 JUMPI PUSH2 0x1101 PUSH2 0xC1F JUMP JUMPDEST JUMPDEST PUSH2 0x110E DUP7 DUP3 DUP8 ADD PUSH2 0xEA4 JUMP JUMPDEST SWAP2 POP POP SWAP3 POP SWAP3 POP SWAP3 JUMP JUMPDEST PUSH0 PUSH1 0x20 DUP3 ADD SWAP1 POP PUSH2 0x112B PUSH0 DUP4 ADD DUP5 PUSH2 0xD30 JUMP JUMPDEST SWAP3 SWAP2 POP POP JUMP JUMPDEST PUSH32 0x4E487B7100000000000000000000000000000000000000000000000000000000 PUSH0 MSTORE PUSH1 0x22 PUSH1 0x4 MSTORE PUSH1 0x24 PUSH0 REVERT JUMPDEST PUSH0 PUSH1 0x2 DUP3 DIV SWAP1 POP PUSH1 0x1 DUP3 AND DUP1 PUSH2 0x1175 JUMPI PUSH1 0x7F DUP3 AND SWAP2 POP JUMPDEST PUSH1 0x20 DUP3 LT DUP2 SUB PUSH2 0x1188 JUMPI PUSH2 0x1187 PUSH2 0x1131 JUMP JUMPDEST JUMPDEST POP SWAP2 SWAP1 POP JUMP JUMPDEST PUSH32 0x496E76616C69642063616E646964617465204944000000000000000000000000 PUSH0 DUP3 ADD MSTORE POP JUMP JUMPDEST PUSH0 PUSH2 0x11C2 PUSH1 0x14 DUP4 PUSH2 0xC9A JUMP JUMPDEST SWAP2 POP PUSH2 0x11CD DUP3 PUSH2 0x118E JUMP JUMPDEST PUSH1 0x20 DUP3 ADD SWAP1 POP SWAP2 SWAP1 POP JUMP JUMPDEST PUSH0 PUSH1 0x20 DUP3 ADD SWAP1 POP DUP2 DUP2 SUB PUSH0 DUP4 ADD MSTORE PUSH2 0x11EF DUP2 PUSH2 0x11B6 JUMP JUMPDEST SWAP1 POP SWAP2 SWAP1 POP JUMP JUMPDEST PUSH32 0x4E487B7100000000000000000000000000000000000000000000000000000000 PUSH0 MSTORE PUSH1 0x11 PUSH1 0x4 MSTORE PUSH1 0x24 PUSH0 REVERT JUMPDEST PUSH0 PUSH2 0x122D DUP3 PUSH2 0xC23 JUMP JUMPDEST SWAP2 POP PUSH32 0xFFFFFFFFFFFFFFFFFFFFFFFFFFFFFFFFFFFFFFFFFFFFFFFFFFFFFFFFFFFFFFFF DUP3 SUB PUSH2 0x125F JUMPI PUSH2 0x125E PUSH2 0x11F6 JUMP JUMPDEST JUMPDEST PUSH1 0x1 DUP3 ADD SWAP1 POP SWAP2 SWAP1 POP JUMP JUMPDEST PUSH0 DUP2 SWAP1 POP DUP2 PUSH0 MSTORE PUSH1 0x20 PUSH0 KECCAK256 SWAP1 POP SWAP2 SWAP1 POP JUMP JUMPDEST PUSH0 PUSH1 0x20 PUSH1 0x1F DUP4 ADD DIV SWAP1 POP SWAP2 SWAP1 POP JUMP JUMPDEST PUSH0 DUP3 DUP3 SHL SWAP1 POP SWAP3 SWAP2 POP POP JUMP JUMPDEST PUSH0 PUSH1 0x8 DUP4 MUL PUSH2 0x12C6 PUSH32 0xFFFFFFFFFFFFFFFFFFFFFFFFFFFFFFFFFFFFFFFFFFFFFFFFFFFFFFFFFFFFFFFF DUP3 PUSH2 0x128B JUMP JUMPDEST PUSH2 0x12D0 DUP7 DUP4 PUSH2 0x128B JUMP JUMPDEST SWAP6 POP DUP1 NOT DUP5 AND SWAP4 POP DUP1 DUP7 AND DUP5 OR SWAP3 POP POP POP SWAP4 SWAP3 POP POP POP JUMP JUMPDEST PUSH0 DUP2 SWAP1 POP SWAP2 SWAP1 POP JUMP JUMPDEST PUSH0 PUSH2 0x130B PUSH2 0x1306 PUSH2 0x1301 DUP5 PUSH2 0xC23 JUMP JUMPDEST PUSH2 0x12E8 JUMP JUMPDEST PUSH2 0xC23 JUMP JUMPDEST SWAP1 POP SWAP2 SWAP1 POP JUMP JUMPDEST PUSH0 DUP2 SWAP1 POP SWAP2 SWAP1 POP JUMP JUMPDEST PUSH2 0x1324 DUP4 PUSH2 0x12F1 JUMP JUMPDEST PUSH2 0x1338 PUSH2 0x1330 DUP3 PUSH2 0x1312 JUMP JUMPDEST DUP5 DUP5 SLOAD PUSH2 0x1297 JUMP JUMPDEST DUP3 SSTORE POP POP POP POP JUMP JUMPDEST PUSH0 SWAP1 JUMP JUMPDEST PUSH2 0x134C PUSH2 0x1340 JUMP JUMPDEST PUSH2 0x1357 DUP2 DUP5 DUP5 PUSH2 0x131B JUMP JUMPDEST POP POP POP JUMP JUMPDEST JUMPDEST DUP2 DUP2 LT ISZERO PUSH2 0x137A JUMPI PUSH2 0x136F PUSH0 DUP3 PUSH2 0x1344 JUMP JUMPDEST PUSH1 0x1 DUP2 ADD SWAP1 POP PUSH2 0x135D JUMP JUMPDEST POP POP JUMP JUMPDEST PUSH1 0x1F DUP3 GT ISZERO PUSH2 0x13BF JUMPI PUSH2 0x1390 DUP2 PUSH2 0x126A JUMP JUMPDEST PUSH2 0x1399 DUP5 PUSH2 0x127C JUMP JUMPDEST DUP2 ADD PUSH1 0x20 DUP6 LT ISZERO PUSH2 0x13A8 JUMPI DUP2 SWAP1 POP JUMPDEST PUSH2 0x13BC PUSH2 0x13B4 DUP6 PUSH2 0x127C JUMP JUMPDEST DUP4 ADD DUP3 PUSH2 0x135C JUMP JUMPDEST POP POP JUMPDEST POP POP POP JUMP JUMPDEST PUSH0 DUP3 DUP3 SHR SWAP1 POP SWAP3 SWAP2 POP POP JUMP JUMPDEST PUSH0 PUSH2 0x13DF PUSH0 NOT DUP5 PUSH1 0x8 MUL PUSH2 0x13C4 JUMP JUMPDEST NOT DUP1 DUP4 AND SWAP2 POP POP SWAP3 SWAP2 POP POP JUMP JUMPDEST PUSH0 PUSH2 0x13F7 DUP4 DUP4 PUSH2 0x13D0 JUMP JUMPDEST SWAP2 POP DUP3 PUSH1 0x2 MUL DUP3 OR SWAP1 POP SWAP3 SWAP2 POP POP JUMP JUMPDEST PUSH2 0x1410 DUP3 PUSH2 0xC90 JUMP JUMPDEST PUSH8 0xFFFFFFFFFFFFFFFF DUP2 GT ISZERO PUSH2 0x1429 JUMPI PUSH2 0x1428 PUSH2 0xDAD JUMP JUMPDEST JUMPDEST PUSH2 0x1433 DUP3 SLOAD PUSH2 0x115E JUMP JUMPDEST PUSH2 0x143E DUP3 DUP3 DUP6 PUSH2 0x137E JUMP JUMPDEST PUSH0 PUSH1 0x20 SWAP1 POP PUSH1 0x1F DUP4 GT PUSH1 0x1 DUP2 EQ PUSH2 0x146F JUMPI PUSH0 DUP5 ISZERO PUSH2 0x145D JUMPI DUP3 DUP8 ADD MLOAD SWAP1 POP JUMPDEST PUSH2 0x1467 DUP6 DUP3 PUSH2 0x13EC JUMP JUMPDEST DUP7 SSTORE POP PUSH2 0x14CE JUMP JUMPDEST PUSH1 0x1F NOT DUP5 AND PUSH2 0x147D DUP7 PUSH2 0x126A JUMP JUMPDEST PUSH0 JUMPDEST DUP3 DUP2 LT ISZERO PUSH2 0x14A4 JUMPI DUP5 DUP10 ADD MLOAD DUP3 SSTORE PUSH1 0x1 DUP3 ADD SWAP2 POP PUSH1 0x20 DUP6 ADD SWAP5 POP PUSH1 0x20 DUP2 ADD SWAP1 POP PUSH2 0x147F JUMP JUMPDEST DUP7 DUP4 LT ISZERO PUSH2 0x14C1 JUMPI DUP5 DUP10 ADD MLOAD PUSH2 0x14BD PUSH1 0x1F DUP10 AND DUP3 PUSH2 0x13D0 JUMP JUMPDEST DUP4 SSTORE POP JUMPDEST PUSH1 0x1 PUSH1 0x2 DUP9 MUL ADD DUP9 SSTORE POP POP POP JUMPDEST POP POP POP POP POP POP JUMP JUMPDEST PUSH0 DUP2 SWAP1 POP SWAP3 SWAP2 POP POP JUMP JUMPDEST PUSH32 0x4170706C69636174696F6E000000000000000000000000000000000000000000 PUSH0 DUP3 ADD MSTORE POP JUMP JUMPDEST PUSH0 PUSH2 0x1514 PUSH1 0xB DUP4 PUSH2 0x14D6 JUMP JUMPDEST SWAP2 POP PUSH2 0x151F DUP3 PUSH2 0x14E0 JUMP JUMPDEST PUSH1 0xB DUP3 ADD SWAP1 POP SWAP2 SWAP1 POP JUMP JUMPDEST PUSH0 PUSH2 0x1534 DUP3 PUSH2 0x1508 JUMP JUMPDEST SWAP2 POP DUP2 SWAP1 POP SWAP2 SWAP1 POP JUMP JUMPDEST PUSH0 PUSH1 0x60 DUP3 ADD SWAP1 POP PUSH2 0x1551 PUSH0 DUP4 ADD DUP7 PUSH2 0xC81 JUMP JUMPDEST DUP2 DUP2 SUB PUSH1 0x20 DUP4 ADD MSTORE PUSH2 0x1563 DUP2 DUP6 PUSH2 0xCC8 JUMP JUMPDEST SWAP1 POP PUSH2 0x1572 PUSH1 0x40 DUP4 ADD DUP5 PUSH2 0xD30 JUMP JUMPDEST SWAP5 SWAP4 POP POP POP POP JUMP JUMPDEST PUSH0 PUSH2 0x1584 DUP3 PUSH2 0xC90 JUMP JUMPDEST PUSH2 0x158E DUP2 DUP6 PUSH2 0x14D6 JUMP JUMPDEST SWAP4 POP PUSH2 0x159E DUP2 DUP6 PUSH1 0x20 DUP7 ADD PUSH2 0xCAA JUMP JUMPDEST DUP1 DUP5 ADD SWAP2 POP POP SWAP3 SWAP2 POP POP JUMP JUMPDEST PUSH0 PUSH2 0x15B5 DUP3 DUP5 PUSH2 0x157A JUMP JUMPDEST SWAP2 POP DUP2 SWAP1 POP SWAP3 SWAP2 POP POP JUMP JUMPDEST PUSH32 0x4E6F7420616E20617574686F72697A656420617574686F726974790000000000 PUSH0 DUP3 ADD MSTORE POP JUMP JUMPDEST PUSH0 PUSH2 0x15F4 PUSH1 0x1B DUP4 PUSH2 0xC9A JUMP JUMPDEST SWAP2 POP PUSH2 0x15FF DUP3 PUSH2 0x15C0 JUMP JUMPDEST PUSH1 0x20 DUP3 ADD SWAP1 POP SWAP2 SWAP1 POP JUMP JUMPDEST PUSH0 PUSH1 0x20 DUP3 ADD SWAP1 POP DUP2 DUP2 SUB PUSH0 DUP4 ADD MSTORE PUSH2 0x1621 DUP2 PUSH2 0x15E8 JUMP JUMPDEST SWAP1 POP SWAP2 SWAP1 POP JUMP JUMPDEST PUSH0 PUSH1 0x60 DUP3 ADD SWAP1 POP PUSH2 0x163B PUSH0 DUP4 ADD DUP7 PUSH2 0xC81 JUMP JUMPDEST DUP2 DUP2 SUB PUSH1 0x20 DUP4 ADD MSTORE PUSH2 0x164D DUP2 DUP6 PUSH2 0xCC8 JUMP JUMPDEST SWAP1 POP DUP2 DUP2 SUB PUSH1 0x40 DUP4 ADD MSTORE PUSH2 0x1661 DUP2 DUP5 PUSH2 0xCC8 JUMP JUMPDEST SWAP1 POP SWAP5 SWAP4 POP POP POP POP JUMP JUMPDEST PUSH32 0x4F6E6C792061646D696E2063616E20706572666F726D20746869732061637469 PUSH0 DUP3 ADD MSTORE PUSH32 0x6F6E000000000000000000000000000000000000000000000000000000000000 PUSH1 0x20 DUP3 ADD MSTORE POP JUMP JUMPDEST PUSH0 PUSH2 0x16C5 PUSH1 0x22 DUP4 PUSH2 0xC9A JUMP JUMPDEST SWAP2 POP PUSH2 0x16D0 DUP3 PUSH2 0x166B JUMP JUMPDEST PUSH1 0x40 DUP3 ADD SWAP1 POP SWAP2 SWAP1 POP JUMP JUMPDEST PUSH0 PUSH1 0x20 DUP3 ADD SWAP1 POP DUP2 DUP2 SUB PUSH0 DUP4 ADD MSTORE PUSH2 0x16F2 DUP2 PUSH2 0x16B9 JUMP JUMPDEST SWAP1 POP SWAP2 SWAP1 POP JUMP INVALID LOG2 PUSH5 0x6970667358 0x22 SLT KECCAK256 SIGNEXTEND 0xDA ADDRESS MLOAD PUSH0 OR PUSH27 0x9E35987702F15F57D8D98DF5FF08C2CF66B22CEA5D4FF534C96473 PUSH16 0x6C634300081A00330000000000000000 "
				},
				"gasEstimates": {
					"creation": {
						"codeDepositCost": "1187000",
						"executionCost": "30502",
						"totalCost": "1217502"
					},
					"external": {
						"admin()": "2593",
						"authorizeAuthority(address)": "27013",
						"authorizedAuthorities(address)": "2922",
						"candidateCount()": "2425",
						"candidates(uint256)": "infinite",
						"getCandidate(uint256)": "infinite",
						"getCandidateStatus(uint256,string)": "infinite",
						"registerCandidate(string,string,string)": "infinite",
						"removeAuthority(address)": "27034",
						"updateStatus(uint256,string,string)": "infinite"
					}
				},
				"methodIdentifiers": {
					"admin()": "f851a440",
					"authorizeAuthority(address)": "b4a01858",
					"authorizedAuthorities(address)": "66dc4015",
					"candidateCount()": "a9a981a3",
					"candidates(uint256)": "3477ee2e",
					"getCandidate(uint256)": "35b8e820",
					"getCandidateStatus(uint256,string)": "4b21a7c7",
					"registerCandidate(string,string,string)": "35c3c876",
					"removeAuthority(address)": "d544e010",
					"updateStatus(uint256,string,string)": "b49dbfc2"
				}
			},
			"storageLayout": {
				"storage": [
					{
						"astId": 18,
						"contract": "Final Project/jobselec.sol:JobSelection",
						"label": "admin",
						"offset": 0,
						"slot": "0",
						"type": "t_address"
					},
					{
						"astId": 21,
						"contract": "Final Project/jobselec.sol:JobSelection",
						"label": "candidateCount",
						"offset": 0,
						"slot": "1",
						"type": "t_uint256"
					},
					{
						"astId": 26,
						"contract": "Final Project/jobselec.sol:JobSelection",
						"label": "candidates",
						"offset": 0,
						"slot": "2",
						"type": "t_mapping(t_uint256,t_struct(Candidate)16_storage)"
					},
					{
						"astId": 30,
						"contract": "Final Project/jobselec.sol:JobSelection",
						"label": "authorizedAuthorities",
						"offset": 0,
						"slot": "3",
						"type": "t_mapping(t_address,t_bool)"
					}
				],
				"types": {
					"t_address": {
						"encoding": "inplace",
						"label": "address",
						"numberOfBytes": "20"
					},
					"t_bool": {
						"encoding": "inplace",
						"label": "bool",
						"numberOfBytes": "1"
					},
					"t_mapping(t_address,t_bool)": {
						"encoding": "mapping",
						"key": "t_address",
						"label": "mapping(address => bool)",
						"numberOfBytes": "32",
						"value": "t_bool"
					},
					"t_mapping(t_string_memory_ptr,t_string_storage)": {
						"encoding": "mapping",
						"key": "t_string_memory_ptr",
						"label": "mapping(string => string)",
						"numberOfBytes": "32",
						"value": "t_string_storage"
					},
					"t_mapping(t_uint256,t_struct(Candidate)16_storage)": {
						"encoding": "mapping",
						"key": "t_uint256",
						"label": "mapping(uint256 => struct JobSelection.Candidate)",
						"numberOfBytes": "32",
						"value": "t_struct(Candidate)16_storage"
					},
					"t_string_memory_ptr": {
						"encoding": "bytes",
						"label": "string",
						"numberOfBytes": "32"
					},
					"t_string_storage": {
						"encoding": "bytes",
						"label": "string",
						"numberOfBytes": "32"
					},
					"t_struct(Candidate)16_storage": {
						"encoding": "inplace",
						"label": "struct JobSelection.Candidate",
						"members": [
							{
								"astId": 3,
								"contract": "Final Project/jobselec.sol:JobSelection",
								"label": "id",
								"offset": 0,
								"slot": "0",
								"type": "t_uint256"
							},
							{
								"astId": 5,
								"contract": "Final Project/jobselec.sol:JobSelection",
								"label": "name",
								"offset": 0,
								"slot": "1",
								"type": "t_string_storage"
							},
							{
								"astId": 7,
								"contract": "Final Project/jobselec.sol:JobSelection",
								"label": "aadhar",
								"offset": 0,
								"slot": "2",
								"type": "t_string_storage"
							},
							{
								"astId": 9,
								"contract": "Final Project/jobselec.sol:JobSelection",
								"label": "qualification",
								"offset": 0,
								"slot": "3",
								"type": "t_string_storage"
							},
							{
								"astId": 13,
								"contract": "Final Project/jobselec.sol:JobSelection",
								"label": "statusUpdates",
								"offset": 0,
								"slot": "4",
								"type": "t_mapping(t_string_memory_ptr,t_string_storage)"
							},
							{
								"astId": 15,
								"contract": "Final Project/jobselec.sol:JobSelection",
								"label": "candidateAddress",
								"offset": 0,
								"slot": "5",
								"type": "t_address"
							}
						],
						"numberOfBytes": "192"
					},
					"t_uint256": {
						"encoding": "inplace",
						"label": "uint256",
						"numberOfBytes": "32"
					}
				}
			},
			"userdoc": {
				"kind": "user",
				"methods": {},
				"version": 1
			}
		}
	}
}