{
	"Innovation/ERC721/erc721.sol": {
		"ERC721": {
			"abi": [
				{
					"inputs": [
						{
							"internalType": "string",
							"name": "_str",
							"type": "string"
						}
					],
					"name": "get_hash_for_string",
					"outputs": [
						{
							"internalType": "bytes32",
							"name": "",
							"type": "bytes32"
						}
					],
					"stateMutability": "pure",
					"type": "function"
				},
				{
					"inputs": [
						{
							"internalType": "string",
							"name": "_text",
							"type": "string"
						},
						{
							"internalType": "uint256",
							"name": "_num",
							"type": "uint256"
						},
						{
							"internalType": "address",
							"name": "_addr",
							"type": "address"
						}
					],
					"name": "get_input",
					"outputs": [
						{
							"internalType": "bytes32",
							"name": "",
							"type": "bytes32"
						}
					],
					"stateMutability": "pure",
					"type": "function"
				},
				{
					"inputs": [
						{
							"internalType": "string",
							"name": "_answer",
							"type": "string"
						}
					],
					"name": "guess_word",
					"outputs": [
						{
							"internalType": "bool",
							"name": "",
							"type": "bool"
						}
					],
					"stateMutability": "view",
					"type": "function"
				},
				{
					"inputs": [],
					"name": "word",
					"outputs": [
						{
							"internalType": "bytes32",
							"name": "",
							"type": "bytes32"
						}
					],
					"stateMutability": "view",
					"type": "function"
				}
			],
			"devdoc": {
				"kind": "dev",
				"methods": {},
				"version": 1
			},
			"evm": {
				"assembly": "    /* \"Innovation/ERC721/erc721.sol\":61:641  contract ERC721{\r... */\n  mstore(0x40, 0x80)\n    /* \"Innovation/ERC721/erc721.sol\":103:169  0x06b3dfaec148fb1bb2b066f10ec285e7c9bf402ab32aa78a5d38e34566810cd2 */\n  0x06b3dfaec148fb1bb2b066f10ec285e7c9bf402ab32aa78a5d38e34566810cd2\n    /* \"Innovation/ERC721/erc721.sol\":83:169  bytes32 public word=0x06b3dfaec148fb1bb2b066f10ec285e7c9bf402ab32aa78a5d38e34566810cd2 */\n  0x00\n  shl\n  0x00\n  sstore\n    /* \"Innovation/ERC721/erc721.sol\":61:641  contract ERC721{\r... */\n  callvalue\n  dup1\n  iszero\n  tag_1\n  jumpi\n  0x00\n  dup1\n  revert\ntag_1:\n  pop\n  dataSize(sub_0)\n  dup1\n  dataOffset(sub_0)\n  0x00\n  codecopy\n  0x00\n  return\nstop\n\nsub_0: assembly {\n        /* \"Innovation/ERC721/erc721.sol\":61:641  contract ERC721{\r... */\n      mstore(0x40, 0x80)\n      callvalue\n      dup1\n      iszero\n      tag_1\n      jumpi\n      0x00\n      dup1\n      revert\n    tag_1:\n      pop\n      jumpi(tag_2, lt(calldatasize, 0x04))\n      shr(0xe0, calldataload(0x00))\n      dup1\n      0x15bdcbee\n      eq\n      tag_3\n      jumpi\n      dup1\n      0x2f64d386\n      eq\n      tag_4\n      jumpi\n      dup1\n      0x74b2dfc4\n      eq\n      tag_5\n      jumpi\n      dup1\n      0xd3fc6f25\n      eq\n      tag_6\n      jumpi\n    tag_2:\n      0x00\n      dup1\n      revert\n        /* \"Innovation/ERC721/erc721.sol\":178:347  function get_input(string memory _text,uint256 _num,address _addr) public pure returns (bytes32){\r... */\n    tag_3:\n      tag_7\n      0x04\n      dup1\n      calldatasize\n      sub\n      dup2\n      add\n      swap1\n      tag_8\n      swap2\n      swap1\n      tag_9\n      jump\t// in\n    tag_8:\n      tag_10\n      jump\t// in\n    tag_7:\n      mload(0x40)\n      tag_11\n      swap2\n      swap1\n      tag_12\n      jump\t// in\n    tag_11:\n      mload(0x40)\n      dup1\n      swap2\n      sub\n      swap1\n      return\n        /* \"Innovation/ERC721/erc721.sol\":83:169  bytes32 public word=0x06b3dfaec148fb1bb2b066f10ec285e7c9bf402ab32aa78a5d38e34566810cd2 */\n    tag_4:\n      tag_13\n      tag_14\n      jump\t// in\n    tag_13:\n      mload(0x40)\n      tag_15\n      swap2\n      swap1\n      tag_12\n      jump\t// in\n    tag_15:\n      mload(0x40)\n      dup1\n      swap2\n      sub\n      swap1\n      return\n        /* \"Innovation/ERC721/erc721.sol\":500:638  function guess_word(string memory _answer) view public returns(bool){\r... */\n    tag_5:\n      tag_16\n      0x04\n      dup1\n      calldatasize\n      sub\n      dup2\n      add\n      swap1\n      tag_17\n      swap2\n      swap1\n      tag_18\n      jump\t// in\n    tag_17:\n      tag_19\n      jump\t// in\n    tag_16:\n      mload(0x40)\n      tag_20\n      swap2\n      swap1\n      tag_21\n      jump\t// in\n    tag_20:\n      mload(0x40)\n      dup1\n      swap2\n      sub\n      swap1\n      return\n        /* \"Innovation/ERC721/erc721.sol\":355:494  function get_hash_for_string(string memory _str) public pure returns (bytes32){\r... */\n    tag_6:\n      tag_22\n      0x04\n      dup1\n      calldatasize\n      sub\n      dup2\n      add\n      swap1\n      tag_23\n      swap2\n      swap1\n      tag_18\n      jump\t// in\n    tag_23:\n      tag_24\n      jump\t// in\n    tag_22:\n      mload(0x40)\n      tag_25\n      swap2\n      swap1\n      tag_12\n      jump\t// in\n    tag_25:\n      mload(0x40)\n      dup1\n      swap2\n      sub\n      swap1\n      return\n        /* \"Innovation/ERC721/erc721.sol\":178:347  function get_input(string memory _text,uint256 _num,address _addr) public pure returns (bytes32){\r... */\n    tag_10:\n        /* \"Innovation/ERC721/erc721.sol\":266:273  bytes32 */\n      0x00\n        /* \"Innovation/ERC721/erc721.sol\":321:326  _text */\n      dup4\n        /* \"Innovation/ERC721/erc721.sol\":327:331  _num */\n      dup4\n        /* \"Innovation/ERC721/erc721.sol\":332:337  _addr */\n      dup4\n        /* \"Innovation/ERC721/erc721.sol\":304:338  abi.encodePacked(_text,_num,_addr) */\n      add(0x20, mload(0x40))\n      tag_27\n      swap4\n      swap3\n      swap2\n      swap1\n      tag_28\n      jump\t// in\n    tag_27:\n      mload(0x40)\n      0x20\n      dup2\n      dup4\n      sub\n      sub\n      dup2\n      mstore\n      swap1\n      0x40\n      mstore\n        /* \"Innovation/ERC721/erc721.sol\":294:339  keccak256(abi.encodePacked(_text,_num,_addr)) */\n      dup1\n      mload\n      swap1\n      0x20\n      add\n      keccak256\n        /* \"Innovation/ERC721/erc721.sol\":287:339  return keccak256(abi.encodePacked(_text,_num,_addr)) */\n      swap1\n      pop\n        /* \"Innovation/ERC721/erc721.sol\":178:347  function get_input(string memory _text,uint256 _num,address _addr) public pure returns (bytes32){\r... */\n      swap4\n      swap3\n      pop\n      pop\n      pop\n      jump\t// out\n        /* \"Innovation/ERC721/erc721.sol\":83:169  bytes32 public word=0x06b3dfaec148fb1bb2b066f10ec285e7c9bf402ab32aa78a5d38e34566810cd2 */\n    tag_14:\n      sload(0x00)\n      dup2\n      jump\t// out\n        /* \"Innovation/ERC721/erc721.sol\":500:638  function guess_word(string memory _answer) view public returns(bool){\r... */\n    tag_19:\n        /* \"Innovation/ERC721/erc721.sol\":563:567  bool */\n      0x00\n        /* \"Innovation/ERC721/erc721.sol\":626:630  word */\n      dup1\n      sload\n        /* \"Innovation/ERC721/erc721.sol\":613:620  _answer */\n      dup3\n        /* \"Innovation/ERC721/erc721.sol\":596:621  abi.encodePacked(_answer) */\n      add(0x20, mload(0x40))\n      tag_30\n      swap2\n      swap1\n      tag_31\n      jump\t// in\n    tag_30:\n      mload(0x40)\n      0x20\n      dup2\n      dup4\n      sub\n      sub\n      dup2\n      mstore\n      swap1\n      0x40\n      mstore\n        /* \"Innovation/ERC721/erc721.sol\":586:622  keccak256(abi.encodePacked(_answer)) */\n      dup1\n      mload\n      swap1\n      0x20\n      add\n      keccak256\n        /* \"Innovation/ERC721/erc721.sol\":586:630  keccak256(abi.encodePacked(_answer)) == word */\n      eq\n        /* \"Innovation/ERC721/erc721.sol\":579:630  return keccak256(abi.encodePacked(_answer)) == word */\n      swap1\n      pop\n        /* \"Innovation/ERC721/erc721.sol\":500:638  function guess_word(string memory _answer) view public returns(bool){\r... */\n      swap2\n      swap1\n      pop\n      jump\t// out\n        /* \"Innovation/ERC721/erc721.sol\":355:494  function get_hash_for_string(string memory _str) public pure returns (bytes32){\r... */\n    tag_24:\n        /* \"Innovation/ERC721/erc721.sol\":425:432  bytes32 */\n      0x00\n        /* \"Innovation/ERC721/erc721.sol\":480:484  _str */\n      dup2\n        /* \"Innovation/ERC721/erc721.sol\":463:485  abi.encodePacked(_str) */\n      add(0x20, mload(0x40))\n      tag_33\n      swap2\n      swap1\n      tag_31\n      jump\t// in\n    tag_33:\n      mload(0x40)\n      0x20\n      dup2\n      dup4\n      sub\n      sub\n      dup2\n      mstore\n      swap1\n      0x40\n      mstore\n        /* \"Innovation/ERC721/erc721.sol\":453:486  keccak256(abi.encodePacked(_str)) */\n      dup1\n      mload\n      swap1\n      0x20\n      add\n      keccak256\n        /* \"Innovation/ERC721/erc721.sol\":446:486  return keccak256(abi.encodePacked(_str)) */\n      swap1\n      pop\n        /* \"Innovation/ERC721/erc721.sol\":355:494  function get_hash_for_string(string memory _str) public pure returns (bytes32){\r... */\n      swap2\n      swap1\n      pop\n      jump\t// out\n        /* \"#utility.yul\":7:351   */\n    tag_35:\n      0x00\n        /* \"#utility.yul\":110:175   */\n      tag_37\n        /* \"#utility.yul\":125:174   */\n      tag_38\n        /* \"#utility.yul\":167:173   */\n      dup5\n        /* \"#utility.yul\":125:174   */\n      tag_39\n      jump\t// in\n    tag_38:\n        /* \"#utility.yul\":110:175   */\n      tag_40\n      jump\t// in\n    tag_37:\n        /* \"#utility.yul\":101:175   */\n      swap1\n      pop\n        /* \"#utility.yul\":198:204   */\n      dup3\n        /* \"#utility.yul\":191:196   */\n      dup2\n        /* \"#utility.yul\":184:205   */\n      mstore\n        /* \"#utility.yul\":236:240   */\n      0x20\n        /* \"#utility.yul\":229:234   */\n      dup2\n        /* \"#utility.yul\":225:241   */\n      add\n        /* \"#utility.yul\":274:277   */\n      dup5\n        /* \"#utility.yul\":265:271   */\n      dup5\n        /* \"#utility.yul\":260:263   */\n      dup5\n        /* \"#utility.yul\":256:272   */\n      add\n        /* \"#utility.yul\":253:278   */\n      gt\n        /* \"#utility.yul\":250:252   */\n      iszero\n      tag_41\n      jumpi\n        /* \"#utility.yul\":291:292   */\n      0x00\n        /* \"#utility.yul\":288:289   */\n      dup1\n        /* \"#utility.yul\":281:293   */\n      revert\n        /* \"#utility.yul\":250:252   */\n    tag_41:\n        /* \"#utility.yul\":304:345   */\n      tag_42\n        /* \"#utility.yul\":338:344   */\n      dup5\n        /* \"#utility.yul\":333:336   */\n      dup3\n        /* \"#utility.yul\":328:331   */\n      dup6\n        /* \"#utility.yul\":304:345   */\n      tag_43\n      jump\t// in\n    tag_42:\n        /* \"#utility.yul\":91:351   */\n      pop\n      swap4\n      swap3\n      pop\n      pop\n      pop\n      jump\t// out\n        /* \"#utility.yul\":357:496   */\n    tag_44:\n      0x00\n        /* \"#utility.yul\":441:447   */\n      dup2\n        /* \"#utility.yul\":428:448   */\n      calldataload\n        /* \"#utility.yul\":419:448   */\n      swap1\n      pop\n        /* \"#utility.yul\":457:490   */\n      tag_46\n        /* \"#utility.yul\":484:489   */\n      dup2\n        /* \"#utility.yul\":457:490   */\n      tag_47\n      jump\t// in\n    tag_46:\n        /* \"#utility.yul\":409:496   */\n      swap3\n      swap2\n      pop\n      pop\n      jump\t// out\n        /* \"#utility.yul\":516:789   */\n    tag_48:\n      0x00\n        /* \"#utility.yul\":621:624   */\n      dup3\n        /* \"#utility.yul\":614:618   */\n      0x1f\n        /* \"#utility.yul\":606:612   */\n      dup4\n        /* \"#utility.yul\":602:619   */\n      add\n        /* \"#utility.yul\":598:625   */\n      slt\n        /* \"#utility.yul\":588:590   */\n      tag_50\n      jumpi\n        /* \"#utility.yul\":639:640   */\n      0x00\n        /* \"#utility.yul\":636:637   */\n      dup1\n        /* \"#utility.yul\":629:641   */\n      revert\n        /* \"#utility.yul\":588:590   */\n    tag_50:\n        /* \"#utility.yul\":679:685   */\n      dup2\n        /* \"#utility.yul\":666:686   */\n      calldataload\n        /* \"#utility.yul\":704:783   */\n      tag_51\n        /* \"#utility.yul\":779:782   */\n      dup5\n        /* \"#utility.yul\":771:777   */\n      dup3\n        /* \"#utility.yul\":764:768   */\n      0x20\n        /* \"#utility.yul\":756:762   */\n      dup7\n        /* \"#utility.yul\":752:769   */\n      add\n        /* \"#utility.yul\":704:783   */\n      tag_35\n      jump\t// in\n    tag_51:\n        /* \"#utility.yul\":695:783   */\n      swap2\n      pop\n        /* \"#utility.yul\":578:789   */\n      pop\n      swap3\n      swap2\n      pop\n      pop\n      jump\t// out\n        /* \"#utility.yul\":795:934   */\n    tag_52:\n      0x00\n        /* \"#utility.yul\":879:885   */\n      dup2\n        /* \"#utility.yul\":866:886   */\n      calldataload\n        /* \"#utility.yul\":857:886   */\n      swap1\n      pop\n        /* \"#utility.yul\":895:928   */\n      tag_54\n        /* \"#utility.yul\":922:927   */\n      dup2\n        /* \"#utility.yul\":895:928   */\n      tag_55\n      jump\t// in\n    tag_54:\n        /* \"#utility.yul\":847:934   */\n      swap3\n      swap2\n      pop\n      pop\n      jump\t// out\n        /* \"#utility.yul\":940:1315   */\n    tag_18:\n      0x00\n        /* \"#utility.yul\":1058:1060   */\n      0x20\n        /* \"#utility.yul\":1046:1055   */\n      dup3\n        /* \"#utility.yul\":1037:1044   */\n      dup5\n        /* \"#utility.yul\":1033:1056   */\n      sub\n        /* \"#utility.yul\":1029:1061   */\n      slt\n        /* \"#utility.yul\":1026:1028   */\n      iszero\n      tag_57\n      jumpi\n        /* \"#utility.yul\":1074:1075   */\n      0x00\n        /* \"#utility.yul\":1071:1072   */\n      dup1\n        /* \"#utility.yul\":1064:1076   */\n      revert\n        /* \"#utility.yul\":1026:1028   */\n    tag_57:\n        /* \"#utility.yul\":1145:1146   */\n      0x00\n        /* \"#utility.yul\":1134:1143   */\n      dup3\n        /* \"#utility.yul\":1130:1147   */\n      add\n        /* \"#utility.yul\":1117:1148   */\n      calldataload\n        /* \"#utility.yul\":1175:1193   */\n      0xffffffffffffffff\n        /* \"#utility.yul\":1167:1173   */\n      dup2\n        /* \"#utility.yul\":1164:1194   */\n      gt\n        /* \"#utility.yul\":1161:1163   */\n      iszero\n      tag_58\n      jumpi\n        /* \"#utility.yul\":1207:1208   */\n      0x00\n        /* \"#utility.yul\":1204:1205   */\n      dup1\n        /* \"#utility.yul\":1197:1209   */\n      revert\n        /* \"#utility.yul\":1161:1163   */\n    tag_58:\n        /* \"#utility.yul\":1235:1298   */\n      tag_59\n        /* \"#utility.yul\":1290:1297   */\n      dup5\n        /* \"#utility.yul\":1281:1287   */\n      dup3\n        /* \"#utility.yul\":1270:1279   */\n      dup6\n        /* \"#utility.yul\":1266:1288   */\n      add\n        /* \"#utility.yul\":1235:1298   */\n      tag_48\n      jump\t// in\n    tag_59:\n        /* \"#utility.yul\":1225:1298   */\n      swap2\n      pop\n        /* \"#utility.yul\":1088:1308   */\n      pop\n        /* \"#utility.yul\":1016:1315   */\n      swap3\n      swap2\n      pop\n      pop\n      jump\t// out\n        /* \"#utility.yul\":1321:1986   */\n    tag_9:\n      0x00\n      dup1\n      0x00\n        /* \"#utility.yul\":1473:1475   */\n      0x60\n        /* \"#utility.yul\":1461:1470   */\n      dup5\n        /* \"#utility.yul\":1452:1459   */\n      dup7\n        /* \"#utility.yul\":1448:1471   */\n      sub\n        /* \"#utility.yul\":1444:1476   */\n      slt\n        /* \"#utility.yul\":1441:1443   */\n      iszero\n      tag_61\n      jumpi\n        /* \"#utility.yul\":1489:1490   */\n      0x00\n        /* \"#utility.yul\":1486:1487   */\n      dup1\n        /* \"#utility.yul\":1479:1491   */\n      revert\n        /* \"#utility.yul\":1441:1443   */\n    tag_61:\n        /* \"#utility.yul\":1560:1561   */\n      0x00\n        /* \"#utility.yul\":1549:1558   */\n      dup5\n        /* \"#utility.yul\":1545:1562   */\n      add\n        /* \"#utility.yul\":1532:1563   */\n      calldataload\n        /* \"#utility.yul\":1590:1608   */\n      0xffffffffffffffff\n        /* \"#utility.yul\":1582:1588   */\n      dup2\n        /* \"#utility.yul\":1579:1609   */\n      gt\n        /* \"#utility.yul\":1576:1578   */\n      iszero\n      tag_62\n      jumpi\n        /* \"#utility.yul\":1622:1623   */\n      0x00\n        /* \"#utility.yul\":1619:1620   */\n      dup1\n        /* \"#utility.yul\":1612:1624   */\n      revert\n        /* \"#utility.yul\":1576:1578   */\n    tag_62:\n        /* \"#utility.yul\":1650:1713   */\n      tag_63\n        /* \"#utility.yul\":1705:1712   */\n      dup7\n        /* \"#utility.yul\":1696:1702   */\n      dup3\n        /* \"#utility.yul\":1685:1694   */\n      dup8\n        /* \"#utility.yul\":1681:1703   */\n      add\n        /* \"#utility.yul\":1650:1713   */\n      tag_48\n      jump\t// in\n    tag_63:\n        /* \"#utility.yul\":1640:1713   */\n      swap4\n      pop\n        /* \"#utility.yul\":1503:1723   */\n      pop\n        /* \"#utility.yul\":1762:1764   */\n      0x20\n        /* \"#utility.yul\":1788:1841   */\n      tag_64\n        /* \"#utility.yul\":1833:1840   */\n      dup7\n        /* \"#utility.yul\":1824:1830   */\n      dup3\n        /* \"#utility.yul\":1813:1822   */\n      dup8\n        /* \"#utility.yul\":1809:1831   */\n      add\n        /* \"#utility.yul\":1788:1841   */\n      tag_52\n      jump\t// in\n    tag_64:\n        /* \"#utility.yul\":1778:1841   */\n      swap3\n      pop\n        /* \"#utility.yul\":1733:1851   */\n      pop\n        /* \"#utility.yul\":1890:1892   */\n      0x40\n        /* \"#utility.yul\":1916:1969   */\n      tag_65\n        /* \"#utility.yul\":1961:1968   */\n      dup7\n        /* \"#utility.yul\":1952:1958   */\n      dup3\n        /* \"#utility.yul\":1941:1950   */\n      dup8\n        /* \"#utility.yul\":1937:1959   */\n      add\n        /* \"#utility.yul\":1916:1969   */\n      tag_44\n      jump\t// in\n    tag_65:\n        /* \"#utility.yul\":1906:1969   */\n      swap2\n      pop\n        /* \"#utility.yul\":1861:1979   */\n      pop\n        /* \"#utility.yul\":1431:1986   */\n      swap3\n      pop\n      swap3\n      pop\n      swap3\n      jump\t// out\n        /* \"#utility.yul\":1992:2149   */\n    tag_66:\n        /* \"#utility.yul\":2097:2142   */\n      tag_68\n        /* \"#utility.yul\":2117:2141   */\n      tag_69\n        /* \"#utility.yul\":2135:2140   */\n      dup3\n        /* \"#utility.yul\":2117:2141   */\n      tag_70\n      jump\t// in\n    tag_69:\n        /* \"#utility.yul\":2097:2142   */\n      tag_71\n      jump\t// in\n    tag_68:\n        /* \"#utility.yul\":2092:2095   */\n      dup3\n        /* \"#utility.yul\":2085:2143   */\n      mstore\n        /* \"#utility.yul\":2075:2149   */\n      pop\n      pop\n      jump\t// out\n        /* \"#utility.yul\":2155:2264   */\n    tag_72:\n        /* \"#utility.yul\":2236:2257   */\n      tag_74\n        /* \"#utility.yul\":2251:2256   */\n      dup2\n        /* \"#utility.yul\":2236:2257   */\n      tag_75\n      jump\t// in\n    tag_74:\n        /* \"#utility.yul\":2231:2234   */\n      dup3\n        /* \"#utility.yul\":2224:2258   */\n      mstore\n        /* \"#utility.yul\":2214:2264   */\n      pop\n      pop\n      jump\t// out\n        /* \"#utility.yul\":2270:2388   */\n    tag_76:\n        /* \"#utility.yul\":2357:2381   */\n      tag_78\n        /* \"#utility.yul\":2375:2380   */\n      dup2\n        /* \"#utility.yul\":2357:2381   */\n      tag_79\n      jump\t// in\n    tag_78:\n        /* \"#utility.yul\":2352:2355   */\n      dup3\n        /* \"#utility.yul\":2345:2382   */\n      mstore\n        /* \"#utility.yul\":2335:2388   */\n      pop\n      pop\n      jump\t// out\n        /* \"#utility.yul\":2394:2771   */\n    tag_80:\n      0x00\n        /* \"#utility.yul\":2528:2567   */\n      tag_82\n        /* \"#utility.yul\":2561:2566   */\n      dup3\n        /* \"#utility.yul\":2528:2567   */\n      tag_83\n      jump\t// in\n    tag_82:\n        /* \"#utility.yul\":2583:2672   */\n      tag_84\n        /* \"#utility.yul\":2665:2671   */\n      dup2\n        /* \"#utility.yul\":2660:2663   */\n      dup6\n        /* \"#utility.yul\":2583:2672   */\n      tag_85\n      jump\t// in\n    tag_84:\n        /* \"#utility.yul\":2576:2672   */\n      swap4\n      pop\n        /* \"#utility.yul\":2681:2733   */\n      tag_86\n        /* \"#utility.yul\":2726:2732   */\n      dup2\n        /* \"#utility.yul\":2721:2724   */\n      dup6\n        /* \"#utility.yul\":2714:2718   */\n      0x20\n        /* \"#utility.yul\":2707:2712   */\n      dup7\n        /* \"#utility.yul\":2703:2719   */\n      add\n        /* \"#utility.yul\":2681:2733   */\n      tag_87\n      jump\t// in\n    tag_86:\n        /* \"#utility.yul\":2758:2764   */\n      dup1\n        /* \"#utility.yul\":2753:2756   */\n      dup5\n        /* \"#utility.yul\":2749:2765   */\n      add\n        /* \"#utility.yul\":2742:2765   */\n      swap2\n      pop\n        /* \"#utility.yul\":2504:2771   */\n      pop\n      swap3\n      swap2\n      pop\n      pop\n      jump\t// out\n        /* \"#utility.yul\":2777:2934   */\n    tag_88:\n        /* \"#utility.yul\":2882:2927   */\n      tag_90\n        /* \"#utility.yul\":2902:2926   */\n      tag_91\n        /* \"#utility.yul\":2920:2925   */\n      dup3\n        /* \"#utility.yul\":2902:2926   */\n      tag_92\n      jump\t// in\n    tag_91:\n        /* \"#utility.yul\":2882:2927   */\n      tag_93\n      jump\t// in\n    tag_90:\n        /* \"#utility.yul\":2877:2880   */\n      dup3\n        /* \"#utility.yul\":2870:2928   */\n      mstore\n        /* \"#utility.yul\":2860:2934   */\n      pop\n      pop\n      jump\t// out\n        /* \"#utility.yul\":2940:3215   */\n    tag_31:\n      0x00\n        /* \"#utility.yul\":3094:3189   */\n      tag_95\n        /* \"#utility.yul\":3185:3188   */\n      dup3\n        /* \"#utility.yul\":3176:3182   */\n      dup5\n        /* \"#utility.yul\":3094:3189   */\n      tag_80\n      jump\t// in\n    tag_95:\n        /* \"#utility.yul\":3087:3189   */\n      swap2\n      pop\n        /* \"#utility.yul\":3206:3209   */\n      dup2\n        /* \"#utility.yul\":3199:3209   */\n      swap1\n      pop\n        /* \"#utility.yul\":3076:3215   */\n      swap3\n      swap2\n      pop\n      pop\n      jump\t// out\n        /* \"#utility.yul\":3221:3778   */\n    tag_28:\n      0x00\n        /* \"#utility.yul\":3431:3526   */\n      tag_97\n        /* \"#utility.yul\":3522:3525   */\n      dup3\n        /* \"#utility.yul\":3513:3519   */\n      dup7\n        /* \"#utility.yul\":3431:3526   */\n      tag_80\n      jump\t// in\n    tag_97:\n        /* \"#utility.yul\":3424:3526   */\n      swap2\n      pop\n        /* \"#utility.yul\":3536:3611   */\n      tag_98\n        /* \"#utility.yul\":3607:3610   */\n      dup3\n        /* \"#utility.yul\":3598:3604   */\n      dup6\n        /* \"#utility.yul\":3536:3611   */\n      tag_88\n      jump\t// in\n    tag_98:\n        /* \"#utility.yul\":3636:3638   */\n      0x20\n        /* \"#utility.yul\":3631:3634   */\n      dup3\n        /* \"#utility.yul\":3627:3639   */\n      add\n        /* \"#utility.yul\":3620:3639   */\n      swap2\n      pop\n        /* \"#utility.yul\":3649:3724   */\n      tag_99\n        /* \"#utility.yul\":3720:3723   */\n      dup3\n        /* \"#utility.yul\":3711:3717   */\n      dup5\n        /* \"#utility.yul\":3649:3724   */\n      tag_66\n      jump\t// in\n    tag_99:\n        /* \"#utility.yul\":3749:3751   */\n      0x14\n        /* \"#utility.yul\":3744:3747   */\n      dup3\n        /* \"#utility.yul\":3740:3752   */\n      add\n        /* \"#utility.yul\":3733:3752   */\n      swap2\n      pop\n        /* \"#utility.yul\":3769:3772   */\n      dup2\n        /* \"#utility.yul\":3762:3772   */\n      swap1\n      pop\n        /* \"#utility.yul\":3413:3778   */\n      swap5\n      swap4\n      pop\n      pop\n      pop\n      pop\n      jump\t// out\n        /* \"#utility.yul\":3784:3994   */\n    tag_21:\n      0x00\n        /* \"#utility.yul\":3909:3911   */\n      0x20\n        /* \"#utility.yul\":3898:3907   */\n      dup3\n        /* \"#utility.yul\":3894:3912   */\n      add\n        /* \"#utility.yul\":3886:3912   */\n      swap1\n      pop\n        /* \"#utility.yul\":3922:3987   */\n      tag_101\n        /* \"#utility.yul\":3984:3985   */\n      0x00\n        /* \"#utility.yul\":3973:3982   */\n      dup4\n        /* \"#utility.yul\":3969:3986   */\n      add\n        /* \"#utility.yul\":3960:3966   */\n      dup5\n        /* \"#utility.yul\":3922:3987   */\n      tag_72\n      jump\t// in\n    tag_101:\n        /* \"#utility.yul\":3876:3994   */\n      swap3\n      swap2\n      pop\n      pop\n      jump\t// out\n        /* \"#utility.yul\":4000:4222   */\n    tag_12:\n      0x00\n        /* \"#utility.yul\":4131:4133   */\n      0x20\n        /* \"#utility.yul\":4120:4129   */\n      dup3\n        /* \"#utility.yul\":4116:4134   */\n      add\n        /* \"#utility.yul\":4108:4134   */\n      swap1\n      pop\n        /* \"#utility.yul\":4144:4215   */\n      tag_103\n        /* \"#utility.yul\":4212:4213   */\n      0x00\n        /* \"#utility.yul\":4201:4210   */\n      dup4\n        /* \"#utility.yul\":4197:4214   */\n      add\n        /* \"#utility.yul\":4188:4194   */\n      dup5\n        /* \"#utility.yul\":4144:4215   */\n      tag_76\n      jump\t// in\n    tag_103:\n        /* \"#utility.yul\":4098:4222   */\n      swap3\n      swap2\n      pop\n      pop\n      jump\t// out\n        /* \"#utility.yul\":4228:4511   */\n    tag_40:\n      0x00\n        /* \"#utility.yul\":4294:4296   */\n      0x40\n        /* \"#utility.yul\":4288:4297   */\n      mload\n        /* \"#utility.yul\":4278:4297   */\n      swap1\n      pop\n        /* \"#utility.yul\":4336:4340   */\n      dup2\n        /* \"#utility.yul\":4328:4334   */\n      dup2\n        /* \"#utility.yul\":4324:4341   */\n      add\n        /* \"#utility.yul\":4443:4449   */\n      dup2\n        /* \"#utility.yul\":4431:4441   */\n      dup2\n        /* \"#utility.yul\":4428:4450   */\n      lt\n        /* \"#utility.yul\":4407:4425   */\n      0xffffffffffffffff\n        /* \"#utility.yul\":4395:4405   */\n      dup3\n        /* \"#utility.yul\":4392:4426   */\n      gt\n        /* \"#utility.yul\":4389:4451   */\n      or\n        /* \"#utility.yul\":4386:4388   */\n      iszero\n      tag_105\n      jumpi\n        /* \"#utility.yul\":4454:4472   */\n      tag_106\n      tag_107\n      jump\t// in\n    tag_106:\n        /* \"#utility.yul\":4386:4388   */\n    tag_105:\n        /* \"#utility.yul\":4494:4504   */\n      dup1\n        /* \"#utility.yul\":4490:4492   */\n      0x40\n        /* \"#utility.yul\":4483:4505   */\n      mstore\n        /* \"#utility.yul\":4268:4511   */\n      pop\n      swap2\n      swap1\n      pop\n      jump\t// out\n        /* \"#utility.yul\":4517:4849   */\n    tag_39:\n      0x00\n        /* \"#utility.yul\":4669:4687   */\n      0xffffffffffffffff\n        /* \"#utility.yul\":4661:4667   */\n      dup3\n        /* \"#utility.yul\":4658:4688   */\n      gt\n        /* \"#utility.yul\":4655:4657   */\n      iszero\n      tag_109\n      jumpi\n        /* \"#utility.yul\":4691:4709   */\n      tag_110\n      tag_107\n      jump\t// in\n    tag_110:\n        /* \"#utility.yul\":4655:4657   */\n    tag_109:\n        /* \"#utility.yul\":4776:4780   */\n      0x1f\n        /* \"#utility.yul\":4772:4781   */\n      not\n        /* \"#utility.yul\":4765:4769   */\n      0x1f\n        /* \"#utility.yul\":4757:4763   */\n      dup4\n        /* \"#utility.yul\":4753:4770   */\n      add\n        /* \"#utility.yul\":4749:4782   */\n      and\n        /* \"#utility.yul\":4741:4782   */\n      swap1\n      pop\n        /* \"#utility.yul\":4837:4841   */\n      0x20\n        /* \"#utility.yul\":4831:4835   */\n      dup2\n        /* \"#utility.yul\":4827:4842   */\n      add\n        /* \"#utility.yul\":4819:4842   */\n      swap1\n      pop\n        /* \"#utility.yul\":4584:4849   */\n      swap2\n      swap1\n      pop\n      jump\t// out\n        /* \"#utility.yul\":4855:4954   */\n    tag_83:\n      0x00\n        /* \"#utility.yul\":4941:4946   */\n      dup2\n        /* \"#utility.yul\":4935:4947   */\n      mload\n        /* \"#utility.yul\":4925:4947   */\n      swap1\n      pop\n        /* \"#utility.yul\":4914:4954   */\n      swap2\n      swap1\n      pop\n      jump\t// out\n        /* \"#utility.yul\":4960:5108   */\n    tag_85:\n      0x00\n        /* \"#utility.yul\":5099:5102   */\n      dup2\n        /* \"#utility.yul\":5084:5102   */\n      swap1\n      pop\n        /* \"#utility.yul\":5074:5108   */\n      swap3\n      swap2\n      pop\n      pop\n      jump\t// out\n        /* \"#utility.yul\":5114:5210   */\n    tag_70:\n      0x00\n        /* \"#utility.yul\":5180:5204   */\n      tag_114\n        /* \"#utility.yul\":5198:5203   */\n      dup3\n        /* \"#utility.yul\":5180:5204   */\n      tag_115\n      jump\t// in\n    tag_114:\n        /* \"#utility.yul\":5169:5204   */\n      swap1\n      pop\n        /* \"#utility.yul\":5159:5210   */\n      swap2\n      swap1\n      pop\n      jump\t// out\n        /* \"#utility.yul\":5216:5306   */\n    tag_75:\n      0x00\n        /* \"#utility.yul\":5293:5298   */\n      dup2\n        /* \"#utility.yul\":5286:5299   */\n      iszero\n        /* \"#utility.yul\":5279:5300   */\n      iszero\n        /* \"#utility.yul\":5268:5300   */\n      swap1\n      pop\n        /* \"#utility.yul\":5258:5306   */\n      swap2\n      swap1\n      pop\n      jump\t// out\n        /* \"#utility.yul\":5312:5389   */\n    tag_79:\n      0x00\n        /* \"#utility.yul\":5378:5383   */\n      dup2\n        /* \"#utility.yul\":5367:5383   */\n      swap1\n      pop\n        /* \"#utility.yul\":5357:5389   */\n      swap2\n      swap1\n      pop\n      jump\t// out\n        /* \"#utility.yul\":5395:5521   */\n    tag_115:\n      0x00\n        /* \"#utility.yul\":5472:5514   */\n      0xffffffffffffffffffffffffffffffffffffffff\n        /* \"#utility.yul\":5465:5470   */\n      dup3\n        /* \"#utility.yul\":5461:5515   */\n      and\n        /* \"#utility.yul\":5450:5515   */\n      swap1\n      pop\n        /* \"#utility.yul\":5440:5521   */\n      swap2\n      swap1\n      pop\n      jump\t// out\n        /* \"#utility.yul\":5527:5604   */\n    tag_92:\n      0x00\n        /* \"#utility.yul\":5593:5598   */\n      dup2\n        /* \"#utility.yul\":5582:5598   */\n      swap1\n      pop\n        /* \"#utility.yul\":5572:5604   */\n      swap2\n      swap1\n      pop\n      jump\t// out\n        /* \"#utility.yul\":5610:5764   */\n    tag_43:\n        /* \"#utility.yul\":5694:5700   */\n      dup3\n        /* \"#utility.yul\":5689:5692   */\n      dup2\n        /* \"#utility.yul\":5684:5687   */\n      dup4\n        /* \"#utility.yul\":5671:5701   */\n      calldatacopy\n        /* \"#utility.yul\":5756:5757   */\n      0x00\n        /* \"#utility.yul\":5747:5753   */\n      dup4\n        /* \"#utility.yul\":5742:5745   */\n      dup4\n        /* \"#utility.yul\":5738:5754   */\n      add\n        /* \"#utility.yul\":5731:5758   */\n      mstore\n        /* \"#utility.yul\":5661:5764   */\n      pop\n      pop\n      pop\n      jump\t// out\n        /* \"#utility.yul\":5770:6077   */\n    tag_87:\n        /* \"#utility.yul\":5838:5839   */\n      0x00\n        /* \"#utility.yul\":5848:5961   */\n    tag_122:\n        /* \"#utility.yul\":5862:5868   */\n      dup4\n        /* \"#utility.yul\":5859:5860   */\n      dup2\n        /* \"#utility.yul\":5856:5869   */\n      lt\n        /* \"#utility.yul\":5848:5961   */\n      iszero\n      tag_124\n      jumpi\n        /* \"#utility.yul\":5947:5948   */\n      dup1\n        /* \"#utility.yul\":5942:5945   */\n      dup3\n        /* \"#utility.yul\":5938:5949   */\n      add\n        /* \"#utility.yul\":5932:5950   */\n      mload\n        /* \"#utility.yul\":5928:5929   */\n      dup2\n        /* \"#utility.yul\":5923:5926   */\n      dup5\n        /* \"#utility.yul\":5919:5930   */\n      add\n        /* \"#utility.yul\":5912:5951   */\n      mstore\n        /* \"#utility.yul\":5884:5886   */\n      0x20\n        /* \"#utility.yul\":5881:5882   */\n      dup2\n        /* \"#utility.yul\":5877:5887   */\n      add\n        /* \"#utility.yul\":5872:5887   */\n      swap1\n      pop\n        /* \"#utility.yul\":5848:5961   */\n      jump(tag_122)\n    tag_124:\n        /* \"#utility.yul\":5979:5985   */\n      dup4\n        /* \"#utility.yul\":5976:5977   */\n      dup2\n        /* \"#utility.yul\":5973:5986   */\n      gt\n        /* \"#utility.yul\":5970:5972   */\n      iszero\n      tag_125\n      jumpi\n        /* \"#utility.yul\":6059:6060   */\n      0x00\n        /* \"#utility.yul\":6050:6056   */\n      dup5\n        /* \"#utility.yul\":6045:6048   */\n      dup5\n        /* \"#utility.yul\":6041:6057   */\n      add\n        /* \"#utility.yul\":6034:6061   */\n      mstore\n        /* \"#utility.yul\":5970:5972   */\n    tag_125:\n        /* \"#utility.yul\":5819:6077   */\n      pop\n      pop\n      pop\n      pop\n      jump\t// out\n        /* \"#utility.yul\":6083:6183   */\n    tag_71:\n      0x00\n        /* \"#utility.yul\":6151:6177   */\n      tag_127\n        /* \"#utility.yul\":6171:6176   */\n      dup3\n        /* \"#utility.yul\":6151:6177   */\n      tag_128\n      jump\t// in\n    tag_127:\n        /* \"#utility.yul\":6140:6177   */\n      swap1\n      pop\n        /* \"#utility.yul\":6130:6183   */\n      swap2\n      swap1\n      pop\n      jump\t// out\n        /* \"#utility.yul\":6189:6283   */\n    tag_128:\n      0x00\n        /* \"#utility.yul\":6257:6277   */\n      tag_130\n        /* \"#utility.yul\":6271:6276   */\n      dup3\n        /* \"#utility.yul\":6257:6277   */\n      tag_131\n      jump\t// in\n    tag_130:\n        /* \"#utility.yul\":6246:6277   */\n      swap1\n      pop\n        /* \"#utility.yul\":6236:6283   */\n      swap2\n      swap1\n      pop\n      jump\t// out\n        /* \"#utility.yul\":6289:6368   */\n    tag_93:\n      0x00\n        /* \"#utility.yul\":6357:6362   */\n      dup2\n        /* \"#utility.yul\":6346:6362   */\n      swap1\n      pop\n        /* \"#utility.yul\":6336:6368   */\n      swap2\n      swap1\n      pop\n      jump\t// out\n        /* \"#utility.yul\":6374:6554   */\n    tag_107:\n        /* \"#utility.yul\":6422:6499   */\n      0x4e487b7100000000000000000000000000000000000000000000000000000000\n        /* \"#utility.yul\":6419:6420   */\n      0x00\n        /* \"#utility.yul\":6412:6500   */\n      mstore\n        /* \"#utility.yul\":6519:6523   */\n      0x41\n        /* \"#utility.yul\":6516:6517   */\n      0x04\n        /* \"#utility.yul\":6509:6524   */\n      mstore\n        /* \"#utility.yul\":6543:6547   */\n      0x24\n        /* \"#utility.yul\":6540:6541   */\n      0x00\n        /* \"#utility.yul\":6533:6548   */\n      revert\n        /* \"#utility.yul\":6560:6654   */\n    tag_131:\n      0x00\n        /* \"#utility.yul\":6641:6646   */\n      dup2\n        /* \"#utility.yul\":6637:6639   */\n      0x60\n        /* \"#utility.yul\":6633:6647   */\n      shl\n        /* \"#utility.yul\":6612:6647   */\n      swap1\n      pop\n        /* \"#utility.yul\":6602:6654   */\n      swap2\n      swap1\n      pop\n      jump\t// out\n        /* \"#utility.yul\":6660:6782   */\n    tag_47:\n        /* \"#utility.yul\":6733:6757   */\n      tag_136\n        /* \"#utility.yul\":6751:6756   */\n      dup2\n        /* \"#utility.yul\":6733:6757   */\n      tag_70\n      jump\t// in\n    tag_136:\n        /* \"#utility.yul\":6726:6731   */\n      dup2\n        /* \"#utility.yul\":6723:6758   */\n      eq\n        /* \"#utility.yul\":6713:6715   */\n      tag_137\n      jumpi\n        /* \"#utility.yul\":6772:6773   */\n      0x00\n        /* \"#utility.yul\":6769:6770   */\n      dup1\n        /* \"#utility.yul\":6762:6774   */\n      revert\n        /* \"#utility.yul\":6713:6715   */\n    tag_137:\n        /* \"#utility.yul\":6703:6782   */\n      pop\n      jump\t// out\n        /* \"#utility.yul\":6788:6910   */\n    tag_55:\n        /* \"#utility.yul\":6861:6885   */\n      tag_139\n        /* \"#utility.yul\":6879:6884   */\n      dup2\n        /* \"#utility.yul\":6861:6885   */\n      tag_92\n      jump\t// in\n    tag_139:\n        /* \"#utility.yul\":6854:6859   */\n      dup2\n        /* \"#utility.yul\":6851:6886   */\n      eq\n        /* \"#utility.yul\":6841:6843   */\n      tag_140\n      jumpi\n        /* \"#utility.yul\":6900:6901   */\n      0x00\n        /* \"#utility.yul\":6897:6898   */\n      dup1\n        /* \"#utility.yul\":6890:6902   */\n      revert\n        /* \"#utility.yul\":6841:6843   */\n    tag_140:\n        /* \"#utility.yul\":6831:6910   */\n      pop\n      jump\t// out\n\n    auxdata: 0xa2646970667358221220eefc2aa1f1695456b48b2ca80eae366fbc279e4f53cffead56a6507dfd4d319a64736f6c63430008000033\n}\n",
				"bytecode": {
					"linkReferences": {},
					"object": "60806040527f06b3dfaec148fb1bb2b066f10ec285e7c9bf402ab32aa78a5d38e34566810cd260001b60005534801561003757600080fd5b506105b4806100476000396000f3fe608060405234801561001057600080fd5b506004361061004c5760003560e01c806315bdcbee146100515780632f64d3861461008157806374b2dfc41461009f578063d3fc6f25146100cf575b600080fd5b61006b60048036038101906100669190610271565b6100ff565b60405161007891906103c0565b60405180910390f35b610089610135565b60405161009691906103c0565b60405180910390f35b6100b960048036038101906100b49190610230565b61013b565b6040516100c691906103a5565b60405180910390f35b6100e960048036038101906100e49190610230565b61016e565b6040516100f691906103c0565b60405180910390f35b60008383836040516020016101169392919061036c565b6040516020818303038152906040528051906020012090509392505050565b60005481565b60008054826040516020016101509190610355565b60405160208183030381529060405280519060200120149050919050565b6000816040516020016101819190610355565b604051602081830303815290604052805190602001209050919050565b60006101b16101ac8461040c565b6103db565b9050828152602081018484840111156101c957600080fd5b6101d48482856104a4565b509392505050565b6000813590506101eb81610550565b92915050565b600082601f83011261020257600080fd5b813561021284826020860161019e565b91505092915050565b60008135905061022a81610567565b92915050565b60006020828403121561024257600080fd5b600082013567ffffffffffffffff81111561025c57600080fd5b610268848285016101f1565b91505092915050565b60008060006060848603121561028657600080fd5b600084013567ffffffffffffffff8111156102a057600080fd5b6102ac868287016101f1565b93505060206102bd8682870161021b565b92505060406102ce868287016101dc565b9150509250925092565b6102e96102e482610452565b6104e6565b82525050565b6102f881610464565b82525050565b61030781610470565b82525050565b60006103188261043c565b6103228185610447565b93506103328185602086016104b3565b80840191505092915050565b61034f61034a8261049a565b61050a565b82525050565b6000610361828461030d565b915081905092915050565b6000610378828661030d565b9150610384828561033e565b60208201915061039482846102d8565b601482019150819050949350505050565b60006020820190506103ba60008301846102ef565b92915050565b60006020820190506103d560008301846102fe565b92915050565b6000604051905081810181811067ffffffffffffffff8211171561040257610401610514565b5b8060405250919050565b600067ffffffffffffffff82111561042757610426610514565b5b601f19601f8301169050602081019050919050565b600081519050919050565b600081905092915050565b600061045d8261047a565b9050919050565b60008115159050919050565b6000819050919050565b600073ffffffffffffffffffffffffffffffffffffffff82169050919050565b6000819050919050565b82818337600083830152505050565b60005b838110156104d15780820151818401526020810190506104b6565b838111156104e0576000848401525b50505050565b60006104f1826104f8565b9050919050565b600061050382610543565b9050919050565b6000819050919050565b7f4e487b7100000000000000000000000000000000000000000000000000000000600052604160045260246000fd5b60008160601b9050919050565b61055981610452565b811461056457600080fd5b50565b6105708161049a565b811461057b57600080fd5b5056fea2646970667358221220eefc2aa1f1695456b48b2ca80eae366fbc279e4f53cffead56a6507dfd4d319a64736f6c63430008000033",
					"opcodes": "PUSH1 0x80 PUSH1 0x40 MSTORE PUSH32 0x6B3DFAEC148FB1BB2B066F10EC285E7C9BF402AB32AA78A5D38E34566810CD2 PUSH1 0x0 SHL PUSH1 0x0 SSTORE CALLVALUE DUP1 ISZERO PUSH2 0x37 JUMPI PUSH1 0x0 DUP1 REVERT JUMPDEST POP PUSH2 0x5B4 DUP1 PUSH2 0x47 PUSH1 0x0 CODECOPY PUSH1 0x0 RETURN INVALID PUSH1 0x80 PUSH1 0x40 MSTORE CALLVALUE DUP1 ISZERO PUSH2 0x10 JUMPI PUSH1 0x0 DUP1 REVERT JUMPDEST POP PUSH1 0x4 CALLDATASIZE LT PUSH2 0x4C JUMPI PUSH1 0x0 CALLDATALOAD PUSH1 0xE0 SHR DUP1 PUSH4 0x15BDCBEE EQ PUSH2 0x51 JUMPI DUP1 PUSH4 0x2F64D386 EQ PUSH2 0x81 JUMPI DUP1 PUSH4 0x74B2DFC4 EQ PUSH2 0x9F JUMPI DUP1 PUSH4 0xD3FC6F25 EQ PUSH2 0xCF JUMPI JUMPDEST PUSH1 0x0 DUP1 REVERT JUMPDEST PUSH2 0x6B PUSH1 0x4 DUP1 CALLDATASIZE SUB DUP2 ADD SWAP1 PUSH2 0x66 SWAP2 SWAP1 PUSH2 0x271 JUMP JUMPDEST PUSH2 0xFF JUMP JUMPDEST PUSH1 0x40 MLOAD PUSH2 0x78 SWAP2 SWAP1 PUSH2 0x3C0 JUMP JUMPDEST PUSH1 0x40 MLOAD DUP1 SWAP2 SUB SWAP1 RETURN JUMPDEST PUSH2 0x89 PUSH2 0x135 JUMP JUMPDEST PUSH1 0x40 MLOAD PUSH2 0x96 SWAP2 SWAP1 PUSH2 0x3C0 JUMP JUMPDEST PUSH1 0x40 MLOAD DUP1 SWAP2 SUB SWAP1 RETURN JUMPDEST PUSH2 0xB9 PUSH1 0x4 DUP1 CALLDATASIZE SUB DUP2 ADD SWAP1 PUSH2 0xB4 SWAP2 SWAP1 PUSH2 0x230 JUMP JUMPDEST PUSH2 0x13B JUMP JUMPDEST PUSH1 0x40 MLOAD PUSH2 0xC6 SWAP2 SWAP1 PUSH2 0x3A5 JUMP JUMPDEST PUSH1 0x40 MLOAD DUP1 SWAP2 SUB SWAP1 RETURN JUMPDEST PUSH2 0xE9 PUSH1 0x4 DUP1 CALLDATASIZE SUB DUP2 ADD SWAP1 PUSH2 0xE4 SWAP2 SWAP1 PUSH2 0x230 JUMP JUMPDEST PUSH2 0x16E JUMP JUMPDEST PUSH1 0x40 MLOAD PUSH2 0xF6 SWAP2 SWAP1 PUSH2 0x3C0 JUMP JUMPDEST PUSH1 0x40 MLOAD DUP1 SWAP2 SUB SWAP1 RETURN JUMPDEST PUSH1 0x0 DUP4 DUP4 DUP4 PUSH1 0x40 MLOAD PUSH1 0x20 ADD PUSH2 0x116 SWAP4 SWAP3 SWAP2 SWAP1 PUSH2 0x36C JUMP JUMPDEST PUSH1 0x40 MLOAD PUSH1 0x20 DUP2 DUP4 SUB SUB DUP2 MSTORE SWAP1 PUSH1 0x40 MSTORE DUP1 MLOAD SWAP1 PUSH1 0x20 ADD KECCAK256 SWAP1 POP SWAP4 SWAP3 POP POP POP JUMP JUMPDEST PUSH1 0x0 SLOAD DUP2 JUMP JUMPDEST PUSH1 0x0 DUP1 SLOAD DUP3 PUSH1 0x40 MLOAD PUSH1 0x20 ADD PUSH2 0x150 SWAP2 SWAP1 PUSH2 0x355 JUMP JUMPDEST PUSH1 0x40 MLOAD PUSH1 0x20 DUP2 DUP4 SUB SUB DUP2 MSTORE SWAP1 PUSH1 0x40 MSTORE DUP1 MLOAD SWAP1 PUSH1 0x20 ADD KECCAK256 EQ SWAP1 POP SWAP2 SWAP1 POP JUMP JUMPDEST PUSH1 0x0 DUP2 PUSH1 0x40 MLOAD PUSH1 0x20 ADD PUSH2 0x181 SWAP2 SWAP1 PUSH2 0x355 JUMP JUMPDEST PUSH1 0x40 MLOAD PUSH1 0x20 DUP2 DUP4 SUB SUB DUP2 MSTORE SWAP1 PUSH1 0x40 MSTORE DUP1 MLOAD SWAP1 PUSH1 0x20 ADD KECCAK256 SWAP1 POP SWAP2 SWAP1 POP JUMP JUMPDEST PUSH1 0x0 PUSH2 0x1B1 PUSH2 0x1AC DUP5 PUSH2 0x40C JUMP JUMPDEST PUSH2 0x3DB JUMP JUMPDEST SWAP1 POP DUP3 DUP2 MSTORE PUSH1 0x20 DUP2 ADD DUP5 DUP5 DUP5 ADD GT ISZERO PUSH2 0x1C9 JUMPI PUSH1 0x0 DUP1 REVERT JUMPDEST PUSH2 0x1D4 DUP5 DUP3 DUP6 PUSH2 0x4A4 JUMP JUMPDEST POP SWAP4 SWAP3 POP POP POP JUMP JUMPDEST PUSH1 0x0 DUP2 CALLDATALOAD SWAP1 POP PUSH2 0x1EB DUP2 PUSH2 0x550 JUMP JUMPDEST SWAP3 SWAP2 POP POP JUMP JUMPDEST PUSH1 0x0 DUP3 PUSH1 0x1F DUP4 ADD SLT PUSH2 0x202 JUMPI PUSH1 0x0 DUP1 REVERT JUMPDEST DUP2 CALLDATALOAD PUSH2 0x212 DUP5 DUP3 PUSH1 0x20 DUP7 ADD PUSH2 0x19E JUMP JUMPDEST SWAP2 POP POP SWAP3 SWAP2 POP POP JUMP JUMPDEST PUSH1 0x0 DUP2 CALLDATALOAD SWAP1 POP PUSH2 0x22A DUP2 PUSH2 0x567 JUMP JUMPDEST SWAP3 SWAP2 POP POP JUMP JUMPDEST PUSH1 0x0 PUSH1 0x20 DUP3 DUP5 SUB SLT ISZERO PUSH2 0x242 JUMPI PUSH1 0x0 DUP1 REVERT JUMPDEST PUSH1 0x0 DUP3 ADD CALLDATALOAD PUSH8 0xFFFFFFFFFFFFFFFF DUP2 GT ISZERO PUSH2 0x25C JUMPI PUSH1 0x0 DUP1 REVERT JUMPDEST PUSH2 0x268 DUP5 DUP3 DUP6 ADD PUSH2 0x1F1 JUMP JUMPDEST SWAP2 POP POP SWAP3 SWAP2 POP POP JUMP JUMPDEST PUSH1 0x0 DUP1 PUSH1 0x0 PUSH1 0x60 DUP5 DUP7 SUB SLT ISZERO PUSH2 0x286 JUMPI PUSH1 0x0 DUP1 REVERT JUMPDEST PUSH1 0x0 DUP5 ADD CALLDATALOAD PUSH8 0xFFFFFFFFFFFFFFFF DUP2 GT ISZERO PUSH2 0x2A0 JUMPI PUSH1 0x0 DUP1 REVERT JUMPDEST PUSH2 0x2AC DUP7 DUP3 DUP8 ADD PUSH2 0x1F1 JUMP JUMPDEST SWAP4 POP POP PUSH1 0x20 PUSH2 0x2BD DUP7 DUP3 DUP8 ADD PUSH2 0x21B JUMP JUMPDEST SWAP3 POP POP PUSH1 0x40 PUSH2 0x2CE DUP7 DUP3 DUP8 ADD PUSH2 0x1DC JUMP JUMPDEST SWAP2 POP POP SWAP3 POP SWAP3 POP SWAP3 JUMP JUMPDEST PUSH2 0x2E9 PUSH2 0x2E4 DUP3 PUSH2 0x452 JUMP JUMPDEST PUSH2 0x4E6 JUMP JUMPDEST DUP3 MSTORE POP POP JUMP JUMPDEST PUSH2 0x2F8 DUP2 PUSH2 0x464 JUMP JUMPDEST DUP3 MSTORE POP POP JUMP JUMPDEST PUSH2 0x307 DUP2 PUSH2 0x470 JUMP JUMPDEST DUP3 MSTORE POP POP JUMP JUMPDEST PUSH1 0x0 PUSH2 0x318 DUP3 PUSH2 0x43C JUMP JUMPDEST PUSH2 0x322 DUP2 DUP6 PUSH2 0x447 JUMP JUMPDEST SWAP4 POP PUSH2 0x332 DUP2 DUP6 PUSH1 0x20 DUP7 ADD PUSH2 0x4B3 JUMP JUMPDEST DUP1 DUP5 ADD SWAP2 POP POP SWAP3 SWAP2 POP POP JUMP JUMPDEST PUSH2 0x34F PUSH2 0x34A DUP3 PUSH2 0x49A JUMP JUMPDEST PUSH2 0x50A JUMP JUMPDEST DUP3 MSTORE POP POP JUMP JUMPDEST PUSH1 0x0 PUSH2 0x361 DUP3 DUP5 PUSH2 0x30D JUMP JUMPDEST SWAP2 POP DUP2 SWAP1 POP SWAP3 SWAP2 POP POP JUMP JUMPDEST PUSH1 0x0 PUSH2 0x378 DUP3 DUP7 PUSH2 0x30D JUMP JUMPDEST SWAP2 POP PUSH2 0x384 DUP3 DUP6 PUSH2 0x33E JUMP JUMPDEST PUSH1 0x20 DUP3 ADD SWAP2 POP PUSH2 0x394 DUP3 DUP5 PUSH2 0x2D8 JUMP JUMPDEST PUSH1 0x14 DUP3 ADD SWAP2 POP DUP2 SWAP1 POP SWAP5 SWAP4 POP POP POP POP JUMP JUMPDEST PUSH1 0x0 PUSH1 0x20 DUP3 ADD SWAP1 POP PUSH2 0x3BA PUSH1 0x0 DUP4 ADD DUP5 PUSH2 0x2EF JUMP JUMPDEST SWAP3 SWAP2 POP POP JUMP JUMPDEST PUSH1 0x0 PUSH1 0x20 DUP3 ADD SWAP1 POP PUSH2 0x3D5 PUSH1 0x0 DUP4 ADD DUP5 PUSH2 0x2FE JUMP JUMPDEST SWAP3 SWAP2 POP POP JUMP JUMPDEST PUSH1 0x0 PUSH1 0x40 MLOAD SWAP1 POP DUP2 DUP2 ADD DUP2 DUP2 LT PUSH8 0xFFFFFFFFFFFFFFFF DUP3 GT OR ISZERO PUSH2 0x402 JUMPI PUSH2 0x401 PUSH2 0x514 JUMP JUMPDEST JUMPDEST DUP1 PUSH1 0x40 MSTORE POP SWAP2 SWAP1 POP JUMP JUMPDEST PUSH1 0x0 PUSH8 0xFFFFFFFFFFFFFFFF DUP3 GT ISZERO PUSH2 0x427 JUMPI PUSH2 0x426 PUSH2 0x514 JUMP JUMPDEST JUMPDEST PUSH1 0x1F NOT PUSH1 0x1F DUP4 ADD AND SWAP1 POP PUSH1 0x20 DUP2 ADD SWAP1 POP SWAP2 SWAP1 POP JUMP JUMPDEST PUSH1 0x0 DUP2 MLOAD SWAP1 POP SWAP2 SWAP1 POP JUMP JUMPDEST PUSH1 0x0 DUP2 SWAP1 POP SWAP3 SWAP2 POP POP JUMP JUMPDEST PUSH1 0x0 PUSH2 0x45D DUP3 PUSH2 0x47A JUMP JUMPDEST SWAP1 POP SWAP2 SWAP1 POP JUMP JUMPDEST PUSH1 0x0 DUP2 ISZERO ISZERO SWAP1 POP SWAP2 SWAP1 POP JUMP JUMPDEST PUSH1 0x0 DUP2 SWAP1 POP SWAP2 SWAP1 POP JUMP JUMPDEST PUSH1 0x0 PUSH20 0xFFFFFFFFFFFFFFFFFFFFFFFFFFFFFFFFFFFFFFFF DUP3 AND SWAP1 POP SWAP2 SWAP1 POP JUMP JUMPDEST PUSH1 0x0 DUP2 SWAP1 POP SWAP2 SWAP1 POP JUMP JUMPDEST DUP3 DUP2 DUP4 CALLDATACOPY PUSH1 0x0 DUP4 DUP4 ADD MSTORE POP POP POP JUMP JUMPDEST PUSH1 0x0 JUMPDEST DUP4 DUP2 LT ISZERO PUSH2 0x4D1 JUMPI DUP1 DUP3 ADD MLOAD DUP2 DUP5 ADD MSTORE PUSH1 0x20 DUP2 ADD SWAP1 POP PUSH2 0x4B6 JUMP JUMPDEST DUP4 DUP2 GT ISZERO PUSH2 0x4E0 JUMPI PUSH1 0x0 DUP5 DUP5 ADD MSTORE JUMPDEST POP POP POP POP JUMP JUMPDEST PUSH1 0x0 PUSH2 0x4F1 DUP3 PUSH2 0x4F8 JUMP JUMPDEST SWAP1 POP SWAP2 SWAP1 POP JUMP JUMPDEST PUSH1 0x0 PUSH2 0x503 DUP3 PUSH2 0x543 JUMP JUMPDEST SWAP1 POP SWAP2 SWAP1 POP JUMP JUMPDEST PUSH1 0x0 DUP2 SWAP1 POP SWAP2 SWAP1 POP JUMP JUMPDEST PUSH32 0x4E487B7100000000000000000000000000000000000000000000000000000000 PUSH1 0x0 MSTORE PUSH1 0x41 PUSH1 0x4 MSTORE PUSH1 0x24 PUSH1 0x0 REVERT JUMPDEST PUSH1 0x0 DUP2 PUSH1 0x60 SHL SWAP1 POP SWAP2 SWAP1 POP JUMP JUMPDEST PUSH2 0x559 DUP2 PUSH2 0x452 JUMP JUMPDEST DUP2 EQ PUSH2 0x564 JUMPI PUSH1 0x0 DUP1 REVERT JUMPDEST POP JUMP JUMPDEST PUSH2 0x570 DUP2 PUSH2 0x49A JUMP JUMPDEST DUP2 EQ PUSH2 0x57B JUMPI PUSH1 0x0 DUP1 REVERT JUMPDEST POP JUMP INVALID LOG2 PUSH5 0x6970667358 0x22 SLT KECCAK256 0xEE 0xFC 0x2A LOG1 CALL PUSH10 0x5456B48B2CA80EAE366F 0xBC 0x27 SWAP15 0x4F MSTORE8 0xCF INVALID 0xAD JUMP 0xA6 POP PUSH30 0xFD4D319A64736F6C63430008000033000000000000000000000000000000 "
				},
				"gasEstimates": {
					"creation": {
						"codeDepositCost": "292000",
						"executionCost": "20343",
						"totalCost": "312343"
					},
					"external": {
						"get_hash_for_string(string)": "infinite",
						"get_input(string,uint256,address)": "infinite",
						"guess_word(string)": "infinite",
						"word()": "1129"
					}
				},
				"methodIdentifiers": {
					"get_hash_for_string(string)": "d3fc6f25",
					"get_input(string,uint256,address)": "15bdcbee",
					"guess_word(string)": "74b2dfc4",
					"word()": "2f64d386"
				}
			},
			"storageLayout": {
				"storage": [
					{
						"astId": 4,
						"contract": "Innovation/ERC721/erc721.sol:ERC721",
						"label": "word",
						"offset": 0,
						"slot": "0",
						"type": "t_bytes32"
					}
				],
				"types": {
					"t_bytes32": {
						"encoding": "inplace",
						"label": "bytes32",
						"numberOfBytes": "32"
					}
				}
			},
			"userdoc": {
				"kind": "user",
				"methods": {},
				"version": 1
			}
		}
	}
}