{
	"data": {
		"bytecode": {
			"linkReferences": {},
			"object": "6080604052348015600e575f80fd5b506108938061001c5f395ff3fe608060405234801561000f575f80fd5b5060043610610034575f3560e01c806306fab4c514610038578063f963ee6614610054575b5f80fd5b610052600480360381019061004d91906103aa565b610085565b005b61006e60048036038101906100699190610437565b6100fc565b60405161007c9291906104d1565b60405180910390f35b5f6040518060400160405280848152602001831515815250908060018154018082558091505060019003905f5260205f2090600202015f909190919091505f820151815f0190816100d691906106f9565b506020820151816001015f6101000a81548160ff02191690831515021790555050505050565b60605f80805490508310610145576040517f08c379a000000000000000000000000000000000000000000000000000000000815260040161013c90610812565b60405180910390fd5b5f838154811061015857610157610830565b5b905f5260205f2090600202015f015f848154811061017957610178610830565b5b905f5260205f2090600202016001015f9054906101000a900460ff168180546101a19061052c565b80601f01602080910402602001604051908101604052809291908181526020018280546101cd9061052c565b80156102185780601f106101ef57610100808354040283529160200191610218565b820191905f5260205f20905b8154815290600101906020018083116101fb57829003601f168201915b5050505050915091509150915091565b5f604051905090565b5f80fd5b5f80fd5b5f80fd5b5f80fd5b5f601f19601f8301169050919050565b7f4e487b71000000000000000000000000000000000000000000000000000000005f52604160045260245ffd5b61028782610241565b810181811067ffffffffffffffff821117156102a6576102a5610251565b5b80604052505050565b5f6102b8610228565b90506102c4828261027e565b919050565b5f67ffffffffffffffff8211156102e3576102e2610251565b5b6102ec82610241565b9050602081019050919050565b828183375f83830152505050565b5f610319610314846102c9565b6102af565b9050828152602081018484840111156103355761033461023d565b5b6103408482856102f9565b509392505050565b5f82601f83011261035c5761035b610239565b5b813561036c848260208601610307565b91505092915050565b5f8115159050919050565b61038981610375565b8114610393575f80fd5b50565b5f813590506103a481610380565b92915050565b5f80604083850312156103c0576103bf610231565b5b5f83013567ffffffffffffffff8111156103dd576103dc610235565b5b6103e985828601610348565b92505060206103fa85828601610396565b9150509250929050565b5f819050919050565b61041681610404565b8114610420575f80fd5b50565b5f813590506104318161040d565b92915050565b5f6020828403121561044c5761044b610231565b5b5f61045984828501610423565b91505092915050565b5f81519050919050565b5f82825260208201905092915050565b8281835e5f83830152505050565b5f61049482610462565b61049e818561046c565b93506104ae81856020860161047c565b6104b781610241565b840191505092915050565b6104cb81610375565b82525050565b5f6040820190508181035f8301526104e9818561048a565b90506104f860208301846104c2565b9392505050565b7f4e487b71000000000000000000000000000000000000000000000000000000005f52602260045260245ffd5b5f600282049050600182168061054357607f821691505b602082108103610556576105556104ff565b5b50919050565b5f819050815f5260205f209050919050565b5f6020601f8301049050919050565b5f82821b905092915050565b5f600883026105b87fffffffffffffffffffffffffffffffffffffffffffffffffffffffffffffffff8261057d565b6105c2868361057d565b95508019841693508086168417925050509392505050565b5f819050919050565b5f6105fd6105f86105f384610404565b6105da565b610404565b9050919050565b5f819050919050565b610616836105e3565b61062a61062282610604565b848454610589565b825550505050565b5f90565b61063e610632565b61064981848461060d565b505050565b5b8181101561066c576106615f82610636565b60018101905061064f565b5050565b601f8211156106b1576106828161055c565b61068b8461056e565b8101602085101561069a578190505b6106ae6106a68561056e565b83018261064e565b50505b505050565b5f82821c905092915050565b5f6106d15f19846008026106b6565b1980831691505092915050565b5f6106e983836106c2565b9150826002028217905092915050565b61070282610462565b67ffffffffffffffff81111561071b5761071a610251565b5b610725825461052c565b610730828285610670565b5f60209050601f831160018114610761575f841561074f578287015190505b61075985826106de565b8655506107c0565b601f19841661076f8661055c565b5f5b8281101561079657848901518255600182019150602085019450602081019050610771565b868310156107b357848901516107af601f8916826106c2565b8355505b6001600288020188555050505b505050505050565b7f4f7574206f6620496e64657800000000000000000000000000000000000000005f82015250565b5f6107fc600c8361046c565b9150610807826107c8565b602082019050919050565b5f6020820190508181035f830152610829816107f0565b9050919050565b7f4e487b71000000000000000000000000000000000000000000000000000000005f52603260045260245ffdfea2646970667358221220df94698c6eb77f9beb6dfafadda6d491e66e78a8408edfd3e4b142304f59c8a064736f6c634300081a0033",
			"opcodes": "PUSH1 0x80 PUSH1 0x40 MSTORE CALLVALUE DUP1 ISZERO PUSH1 0xE JUMPI PUSH0 DUP1 REVERT JUMPDEST POP PUSH2 0x893 DUP1 PUSH2 0x1C PUSH0 CODECOPY PUSH0 RETURN INVALID PUSH1 0x80 PUSH1 0x40 MSTORE CALLVALUE DUP1 ISZERO PUSH2 0xF JUMPI PUSH0 DUP1 REVERT JUMPDEST POP PUSH1 0x4 CALLDATASIZE LT PUSH2 0x34 JUMPI PUSH0 CALLDATALOAD PUSH1 0xE0 SHR DUP1 PUSH4 0x6FAB4C5 EQ PUSH2 0x38 JUMPI DUP1 PUSH4 0xF963EE66 EQ PUSH2 0x54 JUMPI JUMPDEST PUSH0 DUP1 REVERT JUMPDEST PUSH2 0x52 PUSH1 0x4 DUP1 CALLDATASIZE SUB DUP2 ADD SWAP1 PUSH2 0x4D SWAP2 SWAP1 PUSH2 0x3AA JUMP JUMPDEST PUSH2 0x85 JUMP JUMPDEST STOP JUMPDEST PUSH2 0x6E PUSH1 0x4 DUP1 CALLDATASIZE SUB DUP2 ADD SWAP1 PUSH2 0x69 SWAP2 SWAP1 PUSH2 0x437 JUMP JUMPDEST PUSH2 0xFC JUMP JUMPDEST PUSH1 0x40 MLOAD PUSH2 0x7C SWAP3 SWAP2 SWAP1 PUSH2 0x4D1 JUMP JUMPDEST PUSH1 0x40 MLOAD DUP1 SWAP2 SUB SWAP1 RETURN JUMPDEST PUSH0 PUSH1 0x40 MLOAD DUP1 PUSH1 0x40 ADD PUSH1 0x40 MSTORE DUP1 DUP5 DUP2 MSTORE PUSH1 0x20 ADD DUP4 ISZERO ISZERO DUP2 MSTORE POP SWAP1 DUP1 PUSH1 0x1 DUP2 SLOAD ADD DUP1 DUP3 SSTORE DUP1 SWAP2 POP POP PUSH1 0x1 SWAP1 SUB SWAP1 PUSH0 MSTORE PUSH1 0x20 PUSH0 KECCAK256 SWAP1 PUSH1 0x2 MUL ADD PUSH0 SWAP1 SWAP2 SWAP1 SWAP2 SWAP1 SWAP2 POP PUSH0 DUP3 ADD MLOAD DUP2 PUSH0 ADD SWAP1 DUP2 PUSH2 0xD6 SWAP2 SWAP1 PUSH2 0x6F9 JUMP JUMPDEST POP PUSH1 0x20 DUP3 ADD MLOAD DUP2 PUSH1 0x1 ADD PUSH0 PUSH2 0x100 EXP DUP2 SLOAD DUP2 PUSH1 0xFF MUL NOT AND SWAP1 DUP4 ISZERO ISZERO MUL OR SWAP1 SSTORE POP POP POP POP POP JUMP JUMPDEST PUSH1 0x60 PUSH0 DUP1 DUP1 SLOAD SWAP1 POP DUP4 LT PUSH2 0x145 JUMPI PUSH1 0x40 MLOAD PUSH32 0x8C379A000000000000000000000000000000000000000000000000000000000 DUP2 MSTORE PUSH1 0x4 ADD PUSH2 0x13C SWAP1 PUSH2 0x812 JUMP JUMPDEST PUSH1 0x40 MLOAD DUP1 SWAP2 SUB SWAP1 REVERT JUMPDEST PUSH0 DUP4 DUP2 SLOAD DUP2 LT PUSH2 0x158 JUMPI PUSH2 0x157 PUSH2 0x830 JUMP JUMPDEST JUMPDEST SWAP1 PUSH0 MSTORE PUSH1 0x20 PUSH0 KECCAK256 SWAP1 PUSH1 0x2 MUL ADD PUSH0 ADD PUSH0 DUP5 DUP2 SLOAD DUP2 LT PUSH2 0x179 JUMPI PUSH2 0x178 PUSH2 0x830 JUMP JUMPDEST JUMPDEST SWAP1 PUSH0 MSTORE PUSH1 0x20 PUSH0 KECCAK256 SWAP1 PUSH1 0x2 MUL ADD PUSH1 0x1 ADD PUSH0 SWAP1 SLOAD SWAP1 PUSH2 0x100 EXP SWAP1 DIV PUSH1 0xFF AND DUP2 DUP1 SLOAD PUSH2 0x1A1 SWAP1 PUSH2 0x52C JUMP JUMPDEST DUP1 PUSH1 0x1F ADD PUSH1 0x20 DUP1 SWAP2 DIV MUL PUSH1 0x20 ADD PUSH1 0x40 MLOAD SWAP1 DUP2 ADD PUSH1 0x40 MSTORE DUP1 SWAP3 SWAP2 SWAP1 DUP2 DUP2 MSTORE PUSH1 0x20 ADD DUP3 DUP1 SLOAD PUSH2 0x1CD SWAP1 PUSH2 0x52C JUMP JUMPDEST DUP1 ISZERO PUSH2 0x218 JUMPI DUP1 PUSH1 0x1F LT PUSH2 0x1EF JUMPI PUSH2 0x100 DUP1 DUP4 SLOAD DIV MUL DUP4 MSTORE SWAP2 PUSH1 0x20 ADD SWAP2 PUSH2 0x218 JUMP JUMPDEST DUP3 ADD SWAP2 SWAP1 PUSH0 MSTORE PUSH1 0x20 PUSH0 KECCAK256 SWAP1 JUMPDEST DUP2 SLOAD DUP2 MSTORE SWAP1 PUSH1 0x1 ADD SWAP1 PUSH1 0x20 ADD DUP1 DUP4 GT PUSH2 0x1FB JUMPI DUP3 SWAP1 SUB PUSH1 0x1F AND DUP3 ADD SWAP2 JUMPDEST POP POP POP POP POP SWAP2 POP SWAP2 POP SWAP2 POP SWAP2 POP SWAP2 JUMP JUMPDEST PUSH0 PUSH1 0x40 MLOAD SWAP1 POP SWAP1 JUMP JUMPDEST PUSH0 DUP1 REVERT JUMPDEST PUSH0 DUP1 REVERT JUMPDEST PUSH0 DUP1 REVERT JUMPDEST PUSH0 DUP1 REVERT JUMPDEST PUSH0 PUSH1 0x1F NOT PUSH1 0x1F DUP4 ADD AND SWAP1 POP SWAP2 SWAP1 POP JUMP JUMPDEST PUSH32 0x4E487B7100000000000000000000000000000000000000000000000000000000 PUSH0 MSTORE PUSH1 0x41 PUSH1 0x4 MSTORE PUSH1 0x24 PUSH0 REVERT JUMPDEST PUSH2 0x287 DUP3 PUSH2 0x241 JUMP JUMPDEST DUP2 ADD DUP2 DUP2 LT PUSH8 0xFFFFFFFFFFFFFFFF DUP3 GT OR ISZERO PUSH2 0x2A6 JUMPI PUSH2 0x2A5 PUSH2 0x251 JUMP JUMPDEST JUMPDEST DUP1 PUSH1 0x40 MSTORE POP POP POP JUMP JUMPDEST PUSH0 PUSH2 0x2B8 PUSH2 0x228 JUMP JUMPDEST SWAP1 POP PUSH2 0x2C4 DUP3 DUP3 PUSH2 0x27E JUMP JUMPDEST SWAP2 SWAP1 POP JUMP JUMPDEST PUSH0 PUSH8 0xFFFFFFFFFFFFFFFF DUP3 GT ISZERO PUSH2 0x2E3 JUMPI PUSH2 0x2E2 PUSH2 0x251 JUMP JUMPDEST JUMPDEST PUSH2 0x2EC DUP3 PUSH2 0x241 JUMP JUMPDEST SWAP1 POP PUSH1 0x20 DUP2 ADD SWAP1 POP SWAP2 SWAP1 POP JUMP JUMPDEST DUP3 DUP2 DUP4 CALLDATACOPY PUSH0 DUP4 DUP4 ADD MSTORE POP POP POP JUMP JUMPDEST PUSH0 PUSH2 0x319 PUSH2 0x314 DUP5 PUSH2 0x2C9 JUMP JUMPDEST PUSH2 0x2AF JUMP JUMPDEST SWAP1 POP DUP3 DUP2 MSTORE PUSH1 0x20 DUP2 ADD DUP5 DUP5 DUP5 ADD GT ISZERO PUSH2 0x335 JUMPI PUSH2 0x334 PUSH2 0x23D JUMP JUMPDEST JUMPDEST PUSH2 0x340 DUP5 DUP3 DUP6 PUSH2 0x2F9 JUMP JUMPDEST POP SWAP4 SWAP3 POP POP POP JUMP JUMPDEST PUSH0 DUP3 PUSH1 0x1F DUP4 ADD SLT PUSH2 0x35C JUMPI PUSH2 0x35B PUSH2 0x239 JUMP JUMPDEST JUMPDEST DUP2 CALLDATALOAD PUSH2 0x36C DUP5 DUP3 PUSH1 0x20 DUP7 ADD PUSH2 0x307 JUMP JUMPDEST SWAP2 POP POP SWAP3 SWAP2 POP POP JUMP JUMPDEST PUSH0 DUP2 ISZERO ISZERO SWAP1 POP SWAP2 SWAP1 POP JUMP JUMPDEST PUSH2 0x389 DUP2 PUSH2 0x375 JUMP JUMPDEST DUP2 EQ PUSH2 0x393 JUMPI PUSH0 DUP1 REVERT JUMPDEST POP JUMP JUMPDEST PUSH0 DUP2 CALLDATALOAD SWAP1 POP PUSH2 0x3A4 DUP2 PUSH2 0x380 JUMP JUMPDEST SWAP3 SWAP2 POP POP JUMP JUMPDEST PUSH0 DUP1 PUSH1 0x40 DUP4 DUP6 SUB SLT ISZERO PUSH2 0x3C0 JUMPI PUSH2 0x3BF PUSH2 0x231 JUMP JUMPDEST JUMPDEST PUSH0 DUP4 ADD CALLDATALOAD PUSH8 0xFFFFFFFFFFFFFFFF DUP2 GT ISZERO PUSH2 0x3DD JUMPI PUSH2 0x3DC PUSH2 0x235 JUMP JUMPDEST JUMPDEST PUSH2 0x3E9 DUP6 DUP3 DUP7 ADD PUSH2 0x348 JUMP JUMPDEST SWAP3 POP POP PUSH1 0x20 PUSH2 0x3FA DUP6 DUP3 DUP7 ADD PUSH2 0x396 JUMP JUMPDEST SWAP2 POP POP SWAP3 POP SWAP3 SWAP1 POP JUMP JUMPDEST PUSH0 DUP2 SWAP1 POP SWAP2 SWAP1 POP JUMP JUMPDEST PUSH2 0x416 DUP2 PUSH2 0x404 JUMP JUMPDEST DUP2 EQ PUSH2 0x420 JUMPI PUSH0 DUP1 REVERT JUMPDEST POP JUMP JUMPDEST PUSH0 DUP2 CALLDATALOAD SWAP1 POP PUSH2 0x431 DUP2 PUSH2 0x40D JUMP JUMPDEST SWAP3 SWAP2 POP POP JUMP JUMPDEST PUSH0 PUSH1 0x20 DUP3 DUP5 SUB SLT ISZERO PUSH2 0x44C JUMPI PUSH2 0x44B PUSH2 0x231 JUMP JUMPDEST JUMPDEST PUSH0 PUSH2 0x459 DUP5 DUP3 DUP6 ADD PUSH2 0x423 JUMP JUMPDEST SWAP2 POP POP SWAP3 SWAP2 POP POP JUMP JUMPDEST PUSH0 DUP2 MLOAD SWAP1 POP SWAP2 SWAP1 POP JUMP JUMPDEST PUSH0 DUP3 DUP3 MSTORE PUSH1 0x20 DUP3 ADD SWAP1 POP SWAP3 SWAP2 POP POP JUMP JUMPDEST DUP3 DUP2 DUP4 MCOPY PUSH0 DUP4 DUP4 ADD MSTORE POP POP POP JUMP JUMPDEST PUSH0 PUSH2 0x494 DUP3 PUSH2 0x462 JUMP JUMPDEST PUSH2 0x49E DUP2 DUP6 PUSH2 0x46C JUMP JUMPDEST SWAP4 POP PUSH2 0x4AE DUP2 DUP6 PUSH1 0x20 DUP7 ADD PUSH2 0x47C JUMP JUMPDEST PUSH2 0x4B7 DUP2 PUSH2 0x241 JUMP JUMPDEST DUP5 ADD SWAP2 POP POP SWAP3 SWAP2 POP POP JUMP JUMPDEST PUSH2 0x4CB DUP2 PUSH2 0x375 JUMP JUMPDEST DUP3 MSTORE POP POP JUMP JUMPDEST PUSH0 PUSH1 0x40 DUP3 ADD SWAP1 POP DUP2 DUP2 SUB PUSH0 DUP4 ADD MSTORE PUSH2 0x4E9 DUP2 DUP6 PUSH2 0x48A JUMP JUMPDEST SWAP1 POP PUSH2 0x4F8 PUSH1 0x20 DUP4 ADD DUP5 PUSH2 0x4C2 JUMP JUMPDEST SWAP4 SWAP3 POP POP POP JUMP JUMPDEST PUSH32 0x4E487B7100000000000000000000000000000000000000000000000000000000 PUSH0 MSTORE PUSH1 0x22 PUSH1 0x4 MSTORE PUSH1 0x24 PUSH0 REVERT JUMPDEST PUSH0 PUSH1 0x2 DUP3 DIV SWAP1 POP PUSH1 0x1 DUP3 AND DUP1 PUSH2 0x543 JUMPI PUSH1 0x7F DUP3 AND SWAP2 POP JUMPDEST PUSH1 0x20 DUP3 LT DUP2 SUB PUSH2 0x556 JUMPI PUSH2 0x555 PUSH2 0x4FF JUMP JUMPDEST JUMPDEST POP SWAP2 SWAP1 POP JUMP JUMPDEST PUSH0 DUP2 SWAP1 POP DUP2 PUSH0 MSTORE PUSH1 0x20 PUSH0 KECCAK256 SWAP1 POP SWAP2 SWAP1 POP JUMP JUMPDEST PUSH0 PUSH1 0x20 PUSH1 0x1F DUP4 ADD DIV SWAP1 POP SWAP2 SWAP1 POP JUMP JUMPDEST PUSH0 DUP3 DUP3 SHL SWAP1 POP SWAP3 SWAP2 POP POP JUMP JUMPDEST PUSH0 PUSH1 0x8 DUP4 MUL PUSH2 0x5B8 PUSH32 0xFFFFFFFFFFFFFFFFFFFFFFFFFFFFFFFFFFFFFFFFFFFFFFFFFFFFFFFFFFFFFFFF DUP3 PUSH2 0x57D JUMP JUMPDEST PUSH2 0x5C2 DUP7 DUP4 PUSH2 0x57D JUMP JUMPDEST SWAP6 POP DUP1 NOT DUP5 AND SWAP4 POP DUP1 DUP7 AND DUP5 OR SWAP3 POP POP POP SWAP4 SWAP3 POP POP POP JUMP JUMPDEST PUSH0 DUP2 SWAP1 POP SWAP2 SWAP1 POP JUMP JUMPDEST PUSH0 PUSH2 0x5FD PUSH2 0x5F8 PUSH2 0x5F3 DUP5 PUSH2 0x404 JUMP JUMPDEST PUSH2 0x5DA JUMP JUMPDEST PUSH2 0x404 JUMP JUMPDEST SWAP1 POP SWAP2 SWAP1 POP JUMP JUMPDEST PUSH0 DUP2 SWAP1 POP SWAP2 SWAP1 POP JUMP JUMPDEST PUSH2 0x616 DUP4 PUSH2 0x5E3 JUMP JUMPDEST PUSH2 0x62A PUSH2 0x622 DUP3 PUSH2 0x604 JUMP JUMPDEST DUP5 DUP5 SLOAD PUSH2 0x589 JUMP JUMPDEST DUP3 SSTORE POP POP POP POP JUMP JUMPDEST PUSH0 SWAP1 JUMP JUMPDEST PUSH2 0x63E PUSH2 0x632 JUMP JUMPDEST PUSH2 0x649 DUP2 DUP5 DUP5 PUSH2 0x60D JUMP JUMPDEST POP POP POP JUMP JUMPDEST JUMPDEST DUP2 DUP2 LT ISZERO PUSH2 0x66C JUMPI PUSH2 0x661 PUSH0 DUP3 PUSH2 0x636 JUMP JUMPDEST PUSH1 0x1 DUP2 ADD SWAP1 POP PUSH2 0x64F JUMP JUMPDEST POP POP JUMP JUMPDEST PUSH1 0x1F DUP3 GT ISZERO PUSH2 0x6B1 JUMPI PUSH2 0x682 DUP2 PUSH2 0x55C JUMP JUMPDEST PUSH2 0x68B DUP5 PUSH2 0x56E JUMP JUMPDEST DUP2 ADD PUSH1 0x20 DUP6 LT ISZERO PUSH2 0x69A JUMPI DUP2 SWAP1 POP JUMPDEST PUSH2 0x6AE PUSH2 0x6A6 DUP6 PUSH2 0x56E JUMP JUMPDEST DUP4 ADD DUP3 PUSH2 0x64E JUMP JUMPDEST POP POP JUMPDEST POP POP POP JUMP JUMPDEST PUSH0 DUP3 DUP3 SHR SWAP1 POP SWAP3 SWAP2 POP POP JUMP JUMPDEST PUSH0 PUSH2 0x6D1 PUSH0 NOT DUP5 PUSH1 0x8 MUL PUSH2 0x6B6 JUMP JUMPDEST NOT DUP1 DUP4 AND SWAP2 POP POP SWAP3 SWAP2 POP POP JUMP JUMPDEST PUSH0 PUSH2 0x6E9 DUP4 DUP4 PUSH2 0x6C2 JUMP JUMPDEST SWAP2 POP DUP3 PUSH1 0x2 MUL DUP3 OR SWAP1 POP SWAP3 SWAP2 POP POP JUMP JUMPDEST PUSH2 0x702 DUP3 PUSH2 0x462 JUMP JUMPDEST PUSH8 0xFFFFFFFFFFFFFFFF DUP2 GT ISZERO PUSH2 0x71B JUMPI PUSH2 0x71A PUSH2 0x251 JUMP JUMPDEST JUMPDEST PUSH2 0x725 DUP3 SLOAD PUSH2 0x52C JUMP JUMPDEST PUSH2 0x730 DUP3 DUP3 DUP6 PUSH2 0x670 JUMP JUMPDEST PUSH0 PUSH1 0x20 SWAP1 POP PUSH1 0x1F DUP4 GT PUSH1 0x1 DUP2 EQ PUSH2 0x761 JUMPI PUSH0 DUP5 ISZERO PUSH2 0x74F JUMPI DUP3 DUP8 ADD MLOAD SWAP1 POP JUMPDEST PUSH2 0x759 DUP6 DUP3 PUSH2 0x6DE JUMP JUMPDEST DUP7 SSTORE POP PUSH2 0x7C0 JUMP JUMPDEST PUSH1 0x1F NOT DUP5 AND PUSH2 0x76F DUP7 PUSH2 0x55C JUMP JUMPDEST PUSH0 JUMPDEST DUP3 DUP2 LT ISZERO PUSH2 0x796 JUMPI DUP5 DUP10 ADD MLOAD DUP3 SSTORE PUSH1 0x1 DUP3 ADD SWAP2 POP PUSH1 0x20 DUP6 ADD SWAP5 POP PUSH1 0x20 DUP2 ADD SWAP1 POP PUSH2 0x771 JUMP JUMPDEST DUP7 DUP4 LT ISZERO PUSH2 0x7B3 JUMPI DUP5 DUP10 ADD MLOAD PUSH2 0x7AF PUSH1 0x1F DUP10 AND DUP3 PUSH2 0x6C2 JUMP JUMPDEST DUP4 SSTORE POP JUMPDEST PUSH1 0x1 PUSH1 0x2 DUP9 MUL ADD DUP9 SSTORE POP POP POP JUMPDEST POP POP POP POP POP POP JUMP JUMPDEST PUSH32 0x4F7574206F6620496E6465780000000000000000000000000000000000000000 PUSH0 DUP3 ADD MSTORE POP JUMP JUMPDEST PUSH0 PUSH2 0x7FC PUSH1 0xC DUP4 PUSH2 0x46C JUMP JUMPDEST SWAP2 POP PUSH2 0x807 DUP3 PUSH2 0x7C8 JUMP JUMPDEST PUSH1 0x20 DUP3 ADD SWAP1 POP SWAP2 SWAP1 POP JUMP JUMPDEST PUSH0 PUSH1 0x20 DUP3 ADD SWAP1 POP DUP2 DUP2 SUB PUSH0 DUP4 ADD MSTORE PUSH2 0x829 DUP2 PUSH2 0x7F0 JUMP JUMPDEST SWAP1 POP SWAP2 SWAP1 POP JUMP JUMPDEST PUSH32 0x4E487B7100000000000000000000000000000000000000000000000000000000 PUSH0 MSTORE PUSH1 0x32 PUSH1 0x4 MSTORE PUSH1 0x24 PUSH0 REVERT INVALID LOG2 PUSH5 0x6970667358 0x22 SLT KECCAK256 0xDF SWAP5 PUSH10 0x8C6EB77F9BEB6DFAFADD 0xA6 0xD4 SWAP2 0xE6 PUSH15 0x78A8408EDFD3E4B142304F59C8A064 PUSH20 0x6F6C634300081A00330000000000000000000000 "
		},
		"gasEstimates": {
			"creation": {
				"codeDepositCost": "439000",
				"executionCost": "472",
				"totalCost": "439472"
			},
			"external": {
				"Get_info(uint256)": "infinite",
				"set_info(string,bool)": "infinite"
			}
		},
		"methodIdentifiers": {
			"Get_info(uint256)": "f963ee66",
			"set_info(string,bool)": "06fab4c5"
		}
	},
	"abi": [
		{
			"inputs": [
				{
					"internalType": "uint256",
					"name": "index",
					"type": "uint256"
				}
			],
			"name": "Get_info",
			"outputs": [
				{
					"internalType": "string",
					"name": "",
					"type": "string"
				},
				{
					"internalType": "bool",
					"name": "",
					"type": "bool"
				}
			],
			"stateMutability": "view",
			"type": "function"
		},
		{
			"inputs": [
				{
					"internalType": "string",
					"name": "_text",
					"type": "string"
				},
				{
					"internalType": "bool",
					"name": "_done",
					"type": "bool"
				}
			],
			"name": "set_info",
			"outputs": [],
			"stateMutability": "nonpayable",
			"type": "function"
		}
	]
}