{
	"Innovation/MiniProject.sol": {
		"mini_project": {
			"abi": [
				{
					"inputs": [],
					"stateMutability": "nonpayable",
					"type": "constructor"
				},
				{
					"anonymous": false,
					"inputs": [
						{
							"indexed": false,
							"internalType": "string",
							"name": "mymsg",
							"type": "string"
						}
					],
					"name": "Status_set",
					"type": "event"
				},
				{
					"inputs": [],
					"name": "Get_amount",
					"outputs": [],
					"stateMutability": "payable",
					"type": "function"
				},
				{
					"inputs": [
						{
							"internalType": "address",
							"name": "new_add",
							"type": "address"
						}
					],
					"name": "Owner_ship",
					"outputs": [],
					"stateMutability": "nonpayable",
					"type": "function"
				},
				{
					"inputs": [],
					"name": "amount",
					"outputs": [
						{
							"internalType": "uint256",
							"name": "",
							"type": "uint256"
						}
					],
					"stateMutability": "view",
					"type": "function"
				},
				{
					"inputs": [],
					"name": "message",
					"outputs": [
						{
							"internalType": "string",
							"name": "",
							"type": "string"
						}
					],
					"stateMutability": "view",
					"type": "function"
				},
				{
					"inputs": [
						{
							"internalType": "enum mini_project.Status",
							"name": "x",
							"type": "uint8"
						}
					],
					"name": "set_status",
					"outputs": [
						{
							"internalType": "string",
							"name": "",
							"type": "string"
						}
					],
					"stateMutability": "nonpayable",
					"type": "function"
				},
				{
					"inputs": [],
					"name": "update_balance",
					"outputs": [
						{
							"internalType": "uint256",
							"name": "",
							"type": "uint256"
						}
					],
					"stateMutability": "nonpayable",
					"type": "function"
				}
			],
			"devdoc": {
				"kind": "dev",
				"methods": {},
				"version": 1
			},
			"evm": {
				"assembly": "    /* \"Innovation/MiniProject.sol\":58:1875  contract mini_project {... */\n  mstore(0x40, 0x80)\n    /* \"Innovation/MiniProject.sol\":157:190  string public message = \"Welcome\" */\n  mload(0x40)\n  dup1\n  0x40\n  add\n  0x40\n  mstore\n  dup1\n  0x07\n  dup2\n  mstore\n  0x20\n  add\n  0x57656c636f6d6500000000000000000000000000000000000000000000000000\n  dup2\n  mstore\n  pop\n  0x03\n  swap1\n  dup2\n  tag_1\n  swap2\n  swap1\n  tag_2\n  jump\t// in\ntag_1:\n  pop\n    /* \"Innovation/MiniProject.sol\":197:246  constructor() {... */\n  callvalue\n  dup1\n  iszero\n  tag_3\n  jumpi\n  revert(0x00, 0x00)\ntag_3:\n  pop\n    /* \"Innovation/MiniProject.sol\":229:239  msg.sender */\n  caller\n    /* \"Innovation/MiniProject.sol\":221:226  owner */\n  0x00\n  0x00\n    /* \"Innovation/MiniProject.sol\":221:239  owner = msg.sender */\n  0x0100\n  exp\n  dup2\n  sload\n  dup2\n  0xffffffffffffffffffffffffffffffffffffffff\n  mul\n  not\n  and\n  swap1\n  dup4\n  0xffffffffffffffffffffffffffffffffffffffff\n  and\n  mul\n  or\n  swap1\n  sstore\n  pop\n    /* \"Innovation/MiniProject.sol\":58:1875  contract mini_project {... */\n  jump(tag_6)\n    /* \"#utility.yul\":7:106   */\ntag_7:\n    /* \"#utility.yul\":59:65   */\n  0x00\n    /* \"#utility.yul\":93:98   */\n  dup2\n    /* \"#utility.yul\":87:99   */\n  mload\n    /* \"#utility.yul\":77:99   */\n  swap1\n  pop\n    /* \"#utility.yul\":7:106   */\n  swap2\n  swap1\n  pop\n  jump\t// out\n    /* \"#utility.yul\":112:292   */\ntag_8:\n    /* \"#utility.yul\":160:237   */\n  0x4e487b7100000000000000000000000000000000000000000000000000000000\n    /* \"#utility.yul\":157:158   */\n  0x00\n    /* \"#utility.yul\":150:238   */\n  mstore\n    /* \"#utility.yul\":257:261   */\n  0x41\n    /* \"#utility.yul\":254:255   */\n  0x04\n    /* \"#utility.yul\":247:262   */\n  mstore\n    /* \"#utility.yul\":281:285   */\n  0x24\n    /* \"#utility.yul\":278:279   */\n  0x00\n    /* \"#utility.yul\":271:286   */\n  revert\n    /* \"#utility.yul\":298:478   */\ntag_9:\n    /* \"#utility.yul\":346:423   */\n  0x4e487b7100000000000000000000000000000000000000000000000000000000\n    /* \"#utility.yul\":343:344   */\n  0x00\n    /* \"#utility.yul\":336:424   */\n  mstore\n    /* \"#utility.yul\":443:447   */\n  0x22\n    /* \"#utility.yul\":440:441   */\n  0x04\n    /* \"#utility.yul\":433:448   */\n  mstore\n    /* \"#utility.yul\":467:471   */\n  0x24\n    /* \"#utility.yul\":464:465   */\n  0x00\n    /* \"#utility.yul\":457:472   */\n  revert\n    /* \"#utility.yul\":484:804   */\ntag_10:\n    /* \"#utility.yul\":528:534   */\n  0x00\n    /* \"#utility.yul\":565:566   */\n  0x02\n    /* \"#utility.yul\":559:563   */\n  dup3\n    /* \"#utility.yul\":555:567   */\n  div\n    /* \"#utility.yul\":545:567   */\n  swap1\n  pop\n    /* \"#utility.yul\":612:613   */\n  0x01\n    /* \"#utility.yul\":606:610   */\n  dup3\n    /* \"#utility.yul\":602:614   */\n  and\n    /* \"#utility.yul\":633:651   */\n  dup1\n    /* \"#utility.yul\":623:704   */\n  tag_32\n  jumpi\n    /* \"#utility.yul\":689:693   */\n  0x7f\n    /* \"#utility.yul\":681:687   */\n  dup3\n    /* \"#utility.yul\":677:694   */\n  and\n    /* \"#utility.yul\":667:694   */\n  swap2\n  pop\n    /* \"#utility.yul\":623:704   */\ntag_32:\n    /* \"#utility.yul\":751:753   */\n  0x20\n    /* \"#utility.yul\":743:749   */\n  dup3\n    /* \"#utility.yul\":740:754   */\n  lt\n    /* \"#utility.yul\":720:738   */\n  dup2\n    /* \"#utility.yul\":717:755   */\n  sub\n    /* \"#utility.yul\":714:798   */\n  tag_33\n  jumpi\n    /* \"#utility.yul\":770:788   */\n  tag_34\n  tag_9\n  jump\t// in\ntag_34:\n    /* \"#utility.yul\":714:798   */\ntag_33:\n    /* \"#utility.yul\":535:804   */\n  pop\n    /* \"#utility.yul\":484:804   */\n  swap2\n  swap1\n  pop\n  jump\t// out\n    /* \"#utility.yul\":810:951   */\ntag_11:\n    /* \"#utility.yul\":859:863   */\n  0x00\n    /* \"#utility.yul\":882:885   */\n  dup2\n    /* \"#utility.yul\":874:885   */\n  swap1\n  pop\n    /* \"#utility.yul\":905:908   */\n  dup2\n    /* \"#utility.yul\":902:903   */\n  0x00\n    /* \"#utility.yul\":895:909   */\n  mstore\n    /* \"#utility.yul\":939:943   */\n  0x20\n    /* \"#utility.yul\":936:937   */\n  0x00\n    /* \"#utility.yul\":926:944   */\n  keccak256\n    /* \"#utility.yul\":918:944   */\n  swap1\n  pop\n    /* \"#utility.yul\":810:951   */\n  swap2\n  swap1\n  pop\n  jump\t// out\n    /* \"#utility.yul\":957:1050   */\ntag_12:\n    /* \"#utility.yul\":994:1000   */\n  0x00\n    /* \"#utility.yul\":1041:1043   */\n  0x20\n    /* \"#utility.yul\":1036:1038   */\n  0x1f\n    /* \"#utility.yul\":1029:1034   */\n  dup4\n    /* \"#utility.yul\":1025:1039   */\n  add\n    /* \"#utility.yul\":1021:1044   */\n  div\n    /* \"#utility.yul\":1011:1044   */\n  swap1\n  pop\n    /* \"#utility.yul\":957:1050   */\n  swap2\n  swap1\n  pop\n  jump\t// out\n    /* \"#utility.yul\":1056:1163   */\ntag_13:\n    /* \"#utility.yul\":1100:1108   */\n  0x00\n    /* \"#utility.yul\":1150:1155   */\n  dup3\n    /* \"#utility.yul\":1144:1148   */\n  dup3\n    /* \"#utility.yul\":1140:1156   */\n  shl\n    /* \"#utility.yul\":1119:1156   */\n  swap1\n  pop\n    /* \"#utility.yul\":1056:1163   */\n  swap3\n  swap2\n  pop\n  pop\n  jump\t// out\n    /* \"#utility.yul\":1169:1562   */\ntag_14:\n    /* \"#utility.yul\":1238:1244   */\n  0x00\n    /* \"#utility.yul\":1288:1289   */\n  0x08\n    /* \"#utility.yul\":1276:1286   */\n  dup4\n    /* \"#utility.yul\":1272:1290   */\n  mul\n    /* \"#utility.yul\":1311:1408   */\n  tag_39\n    /* \"#utility.yul\":1341:1407   */\n  0xffffffffffffffffffffffffffffffffffffffffffffffffffffffffffffffff\n    /* \"#utility.yul\":1330:1339   */\n  dup3\n    /* \"#utility.yul\":1311:1408   */\n  tag_13\n  jump\t// in\ntag_39:\n    /* \"#utility.yul\":1429:1468   */\n  tag_40\n    /* \"#utility.yul\":1459:1467   */\n  dup7\n    /* \"#utility.yul\":1448:1457   */\n  dup4\n    /* \"#utility.yul\":1429:1468   */\n  tag_13\n  jump\t// in\ntag_40:\n    /* \"#utility.yul\":1417:1468   */\n  swap6\n  pop\n    /* \"#utility.yul\":1501:1505   */\n  dup1\n    /* \"#utility.yul\":1497:1506   */\n  not\n    /* \"#utility.yul\":1490:1495   */\n  dup5\n    /* \"#utility.yul\":1486:1507   */\n  and\n    /* \"#utility.yul\":1477:1507   */\n  swap4\n  pop\n    /* \"#utility.yul\":1550:1554   */\n  dup1\n    /* \"#utility.yul\":1540:1548   */\n  dup7\n    /* \"#utility.yul\":1536:1555   */\n  and\n    /* \"#utility.yul\":1529:1534   */\n  dup5\n    /* \"#utility.yul\":1526:1556   */\n  or\n    /* \"#utility.yul\":1516:1556   */\n  swap3\n  pop\n    /* \"#utility.yul\":1245:1562   */\n  pop\n  pop\n    /* \"#utility.yul\":1169:1562   */\n  swap4\n  swap3\n  pop\n  pop\n  pop\n  jump\t// out\n    /* \"#utility.yul\":1568:1645   */\ntag_15:\n    /* \"#utility.yul\":1605:1612   */\n  0x00\n    /* \"#utility.yul\":1634:1639   */\n  dup2\n    /* \"#utility.yul\":1623:1639   */\n  swap1\n  pop\n    /* \"#utility.yul\":1568:1645   */\n  swap2\n  swap1\n  pop\n  jump\t// out\n    /* \"#utility.yul\":1651:1711   */\ntag_16:\n    /* \"#utility.yul\":1679:1682   */\n  0x00\n    /* \"#utility.yul\":1700:1705   */\n  dup2\n    /* \"#utility.yul\":1693:1705   */\n  swap1\n  pop\n    /* \"#utility.yul\":1651:1711   */\n  swap2\n  swap1\n  pop\n  jump\t// out\n    /* \"#utility.yul\":1717:1859   */\ntag_17:\n    /* \"#utility.yul\":1767:1776   */\n  0x00\n    /* \"#utility.yul\":1800:1853   */\n  tag_44\n    /* \"#utility.yul\":1818:1852   */\n  tag_45\n    /* \"#utility.yul\":1827:1851   */\n  tag_46\n    /* \"#utility.yul\":1845:1850   */\n  dup5\n    /* \"#utility.yul\":1827:1851   */\n  tag_15\n  jump\t// in\ntag_46:\n    /* \"#utility.yul\":1818:1852   */\n  tag_16\n  jump\t// in\ntag_45:\n    /* \"#utility.yul\":1800:1853   */\n  tag_15\n  jump\t// in\ntag_44:\n    /* \"#utility.yul\":1787:1853   */\n  swap1\n  pop\n    /* \"#utility.yul\":1717:1859   */\n  swap2\n  swap1\n  pop\n  jump\t// out\n    /* \"#utility.yul\":1865:1940   */\ntag_18:\n    /* \"#utility.yul\":1908:1911   */\n  0x00\n    /* \"#utility.yul\":1929:1934   */\n  dup2\n    /* \"#utility.yul\":1922:1934   */\n  swap1\n  pop\n    /* \"#utility.yul\":1865:1940   */\n  swap2\n  swap1\n  pop\n  jump\t// out\n    /* \"#utility.yul\":1946:2215   */\ntag_19:\n    /* \"#utility.yul\":2056:2095   */\n  tag_49\n    /* \"#utility.yul\":2087:2094   */\n  dup4\n    /* \"#utility.yul\":2056:2095   */\n  tag_17\n  jump\t// in\ntag_49:\n    /* \"#utility.yul\":2117:2208   */\n  tag_50\n    /* \"#utility.yul\":2166:2207   */\n  tag_51\n    /* \"#utility.yul\":2190:2206   */\n  dup3\n    /* \"#utility.yul\":2166:2207   */\n  tag_18\n  jump\t// in\ntag_51:\n    /* \"#utility.yul\":2158:2164   */\n  dup5\n    /* \"#utility.yul\":2151:2155   */\n  dup5\n    /* \"#utility.yul\":2145:2156   */\n  sload\n    /* \"#utility.yul\":2117:2208   */\n  tag_14\n  jump\t// in\ntag_50:\n    /* \"#utility.yul\":2111:2115   */\n  dup3\n    /* \"#utility.yul\":2104:2209   */\n  sstore\n    /* \"#utility.yul\":2022:2215   */\n  pop\n    /* \"#utility.yul\":1946:2215   */\n  pop\n  pop\n  pop\n  jump\t// out\n    /* \"#utility.yul\":2221:2294   */\ntag_20:\n    /* \"#utility.yul\":2266:2269   */\n  0x00\n    /* \"#utility.yul\":2287:2288   */\n  0x00\n    /* \"#utility.yul\":2280:2288   */\n  swap1\n  pop\n    /* \"#utility.yul\":2221:2294   */\n  swap1\n  jump\t// out\n    /* \"#utility.yul\":2300:2489   */\ntag_21:\n    /* \"#utility.yul\":2377:2409   */\n  tag_54\n  tag_20\n  jump\t// in\ntag_54:\n    /* \"#utility.yul\":2418:2483   */\n  tag_55\n    /* \"#utility.yul\":2476:2482   */\n  dup2\n    /* \"#utility.yul\":2468:2474   */\n  dup5\n    /* \"#utility.yul\":2462:2466   */\n  dup5\n    /* \"#utility.yul\":2418:2483   */\n  tag_19\n  jump\t// in\ntag_55:\n    /* \"#utility.yul\":2353:2489   */\n  pop\n    /* \"#utility.yul\":2300:2489   */\n  pop\n  pop\n  jump\t// out\n    /* \"#utility.yul\":2495:2681   */\ntag_22:\n    /* \"#utility.yul\":2555:2675   */\ntag_57:\n    /* \"#utility.yul\":2572:2575   */\n  dup2\n    /* \"#utility.yul\":2565:2570   */\n  dup2\n    /* \"#utility.yul\":2562:2576   */\n  lt\n    /* \"#utility.yul\":2555:2675   */\n  iszero\n  tag_59\n  jumpi\n    /* \"#utility.yul\":2626:2665   */\n  tag_60\n    /* \"#utility.yul\":2663:2664   */\n  0x00\n    /* \"#utility.yul\":2656:2661   */\n  dup3\n    /* \"#utility.yul\":2626:2665   */\n  tag_21\n  jump\t// in\ntag_60:\n    /* \"#utility.yul\":2599:2600   */\n  0x01\n    /* \"#utility.yul\":2592:2597   */\n  dup2\n    /* \"#utility.yul\":2588:2601   */\n  add\n    /* \"#utility.yul\":2579:2601   */\n  swap1\n  pop\n    /* \"#utility.yul\":2555:2675   */\n  jump(tag_57)\ntag_59:\n    /* \"#utility.yul\":2495:2681   */\n  pop\n  pop\n  jump\t// out\n    /* \"#utility.yul\":2687:3230   */\ntag_23:\n    /* \"#utility.yul\":2788:2790   */\n  0x1f\n    /* \"#utility.yul\":2783:2786   */\n  dup3\n    /* \"#utility.yul\":2780:2791   */\n  gt\n    /* \"#utility.yul\":2777:3223   */\n  iszero\n  tag_62\n  jumpi\n    /* \"#utility.yul\":2822:2860   */\n  tag_63\n    /* \"#utility.yul\":2854:2859   */\n  dup2\n    /* \"#utility.yul\":2822:2860   */\n  tag_11\n  jump\t// in\ntag_63:\n    /* \"#utility.yul\":2906:2935   */\n  tag_64\n    /* \"#utility.yul\":2924:2934   */\n  dup5\n    /* \"#utility.yul\":2906:2935   */\n  tag_12\n  jump\t// in\ntag_64:\n    /* \"#utility.yul\":2896:2904   */\n  dup2\n    /* \"#utility.yul\":2892:2936   */\n  add\n    /* \"#utility.yul\":3089:3091   */\n  0x20\n    /* \"#utility.yul\":3077:3087   */\n  dup6\n    /* \"#utility.yul\":3074:3092   */\n  lt\n    /* \"#utility.yul\":3071:3120   */\n  iszero\n  tag_65\n  jumpi\n    /* \"#utility.yul\":3110:3118   */\n  dup2\n    /* \"#utility.yul\":3095:3118   */\n  swap1\n  pop\n    /* \"#utility.yul\":3071:3120   */\ntag_65:\n    /* \"#utility.yul\":3133:3213   */\n  tag_66\n    /* \"#utility.yul\":3189:3211   */\n  tag_67\n    /* \"#utility.yul\":3207:3210   */\n  dup6\n    /* \"#utility.yul\":3189:3211   */\n  tag_12\n  jump\t// in\ntag_67:\n    /* \"#utility.yul\":3179:3187   */\n  dup4\n    /* \"#utility.yul\":3175:3212   */\n  add\n    /* \"#utility.yul\":3162:3173   */\n  dup3\n    /* \"#utility.yul\":3133:3213   */\n  tag_22\n  jump\t// in\ntag_66:\n    /* \"#utility.yul\":2792:3223   */\n  pop\n  pop\n    /* \"#utility.yul\":2777:3223   */\ntag_62:\n    /* \"#utility.yul\":2687:3230   */\n  pop\n  pop\n  pop\n  jump\t// out\n    /* \"#utility.yul\":3236:3353   */\ntag_24:\n    /* \"#utility.yul\":3290:3298   */\n  0x00\n    /* \"#utility.yul\":3340:3345   */\n  dup3\n    /* \"#utility.yul\":3334:3338   */\n  dup3\n    /* \"#utility.yul\":3330:3346   */\n  shr\n    /* \"#utility.yul\":3309:3346   */\n  swap1\n  pop\n    /* \"#utility.yul\":3236:3353   */\n  swap3\n  swap2\n  pop\n  pop\n  jump\t// out\n    /* \"#utility.yul\":3359:3528   */\ntag_25:\n    /* \"#utility.yul\":3403:3409   */\n  0x00\n    /* \"#utility.yul\":3436:3487   */\n  tag_70\n    /* \"#utility.yul\":3484:3485   */\n  0x00\n    /* \"#utility.yul\":3480:3486   */\n  not\n    /* \"#utility.yul\":3472:3477   */\n  dup5\n    /* \"#utility.yul\":3469:3470   */\n  0x08\n    /* \"#utility.yul\":3465:3478   */\n  mul\n    /* \"#utility.yul\":3436:3487   */\n  tag_24\n  jump\t// in\ntag_70:\n    /* \"#utility.yul\":3432:3488   */\n  not\n    /* \"#utility.yul\":3517:3521   */\n  dup1\n    /* \"#utility.yul\":3511:3515   */\n  dup4\n    /* \"#utility.yul\":3507:3522   */\n  and\n    /* \"#utility.yul\":3497:3522   */\n  swap2\n  pop\n    /* \"#utility.yul\":3410:3528   */\n  pop\n    /* \"#utility.yul\":3359:3528   */\n  swap3\n  swap2\n  pop\n  pop\n  jump\t// out\n    /* \"#utility.yul\":3533:3828   */\ntag_26:\n    /* \"#utility.yul\":3609:3613   */\n  0x00\n    /* \"#utility.yul\":3755:3784   */\n  tag_72\n    /* \"#utility.yul\":3780:3783   */\n  dup4\n    /* \"#utility.yul\":3774:3778   */\n  dup4\n    /* \"#utility.yul\":3755:3784   */\n  tag_25\n  jump\t// in\ntag_72:\n    /* \"#utility.yul\":3747:3784   */\n  swap2\n  pop\n    /* \"#utility.yul\":3817:3820   */\n  dup3\n    /* \"#utility.yul\":3814:3815   */\n  0x02\n    /* \"#utility.yul\":3810:3821   */\n  mul\n    /* \"#utility.yul\":3804:3808   */\n  dup3\n    /* \"#utility.yul\":3801:3822   */\n  or\n    /* \"#utility.yul\":3793:3822   */\n  swap1\n  pop\n    /* \"#utility.yul\":3533:3828   */\n  swap3\n  swap2\n  pop\n  pop\n  jump\t// out\n    /* \"#utility.yul\":3833:5228   */\ntag_2:\n    /* \"#utility.yul\":3950:3987   */\n  tag_74\n    /* \"#utility.yul\":3983:3986   */\n  dup3\n    /* \"#utility.yul\":3950:3987   */\n  tag_7\n  jump\t// in\ntag_74:\n    /* \"#utility.yul\":4052:4070   */\n  0xffffffffffffffff\n    /* \"#utility.yul\":4044:4050   */\n  dup2\n    /* \"#utility.yul\":4041:4071   */\n  gt\n    /* \"#utility.yul\":4038:4094   */\n  iszero\n  tag_75\n  jumpi\n    /* \"#utility.yul\":4074:4092   */\n  tag_76\n  tag_8\n  jump\t// in\ntag_76:\n    /* \"#utility.yul\":4038:4094   */\ntag_75:\n    /* \"#utility.yul\":4118:4156   */\n  tag_77\n    /* \"#utility.yul\":4150:4154   */\n  dup3\n    /* \"#utility.yul\":4144:4155   */\n  sload\n    /* \"#utility.yul\":4118:4156   */\n  tag_10\n  jump\t// in\ntag_77:\n    /* \"#utility.yul\":4203:4270   */\n  tag_78\n    /* \"#utility.yul\":4263:4269   */\n  dup3\n    /* \"#utility.yul\":4255:4261   */\n  dup3\n    /* \"#utility.yul\":4249:4253   */\n  dup6\n    /* \"#utility.yul\":4203:4270   */\n  tag_23\n  jump\t// in\ntag_78:\n    /* \"#utility.yul\":4297:4298   */\n  0x00\n    /* \"#utility.yul\":4321:4325   */\n  0x20\n    /* \"#utility.yul\":4308:4325   */\n  swap1\n  pop\n    /* \"#utility.yul\":4353:4355   */\n  0x1f\n    /* \"#utility.yul\":4345:4351   */\n  dup4\n    /* \"#utility.yul\":4342:4356   */\n  gt\n    /* \"#utility.yul\":4370:4371   */\n  0x01\n    /* \"#utility.yul\":4365:4983   */\n  dup2\n  eq\n  tag_80\n  jumpi\n    /* \"#utility.yul\":5027:5028   */\n  0x00\n    /* \"#utility.yul\":5044:5050   */\n  dup5\n    /* \"#utility.yul\":5041:5118   */\n  iszero\n  tag_81\n  jumpi\n    /* \"#utility.yul\":5093:5102   */\n  dup3\n    /* \"#utility.yul\":5088:5091   */\n  dup8\n    /* \"#utility.yul\":5084:5103   */\n  add\n    /* \"#utility.yul\":5078:5104   */\n  mload\n    /* \"#utility.yul\":5069:5104   */\n  swap1\n  pop\n    /* \"#utility.yul\":5041:5118   */\ntag_81:\n    /* \"#utility.yul\":5144:5211   */\n  tag_82\n    /* \"#utility.yul\":5204:5210   */\n  dup6\n    /* \"#utility.yul\":5197:5202   */\n  dup3\n    /* \"#utility.yul\":5144:5211   */\n  tag_26\n  jump\t// in\ntag_82:\n    /* \"#utility.yul\":5138:5142   */\n  dup7\n    /* \"#utility.yul\":5131:5212   */\n  sstore\n    /* \"#utility.yul\":5000:5222   */\n  pop\n    /* \"#utility.yul\":4335:5222   */\n  jump(tag_79)\n    /* \"#utility.yul\":4365:4983   */\ntag_80:\n    /* \"#utility.yul\":4417:4421   */\n  0x1f\n    /* \"#utility.yul\":4413:4422   */\n  not\n    /* \"#utility.yul\":4405:4411   */\n  dup5\n    /* \"#utility.yul\":4401:4423   */\n  and\n    /* \"#utility.yul\":4451:4488   */\n  tag_83\n    /* \"#utility.yul\":4483:4487   */\n  dup7\n    /* \"#utility.yul\":4451:4488   */\n  tag_11\n  jump\t// in\ntag_83:\n    /* \"#utility.yul\":4510:4511   */\n  0x00\n    /* \"#utility.yul\":4524:4732   */\ntag_84:\n    /* \"#utility.yul\":4538:4545   */\n  dup3\n    /* \"#utility.yul\":4535:4536   */\n  dup2\n    /* \"#utility.yul\":4532:4546   */\n  lt\n    /* \"#utility.yul\":4524:4732   */\n  iszero\n  tag_86\n  jumpi\n    /* \"#utility.yul\":4617:4626   */\n  dup5\n    /* \"#utility.yul\":4612:4615   */\n  dup10\n    /* \"#utility.yul\":4608:4627   */\n  add\n    /* \"#utility.yul\":4602:4628   */\n  mload\n    /* \"#utility.yul\":4594:4600   */\n  dup3\n    /* \"#utility.yul\":4587:4629   */\n  sstore\n    /* \"#utility.yul\":4668:4669   */\n  0x01\n    /* \"#utility.yul\":4660:4666   */\n  dup3\n    /* \"#utility.yul\":4656:4670   */\n  add\n    /* \"#utility.yul\":4646:4670   */\n  swap2\n  pop\n    /* \"#utility.yul\":4715:4717   */\n  0x20\n    /* \"#utility.yul\":4704:4713   */\n  dup6\n    /* \"#utility.yul\":4700:4718   */\n  add\n    /* \"#utility.yul\":4687:4718   */\n  swap5\n  pop\n    /* \"#utility.yul\":4561:4565   */\n  0x20\n    /* \"#utility.yul\":4558:4559   */\n  dup2\n    /* \"#utility.yul\":4554:4566   */\n  add\n    /* \"#utility.yul\":4549:4566   */\n  swap1\n  pop\n    /* \"#utility.yul\":4524:4732   */\n  jump(tag_84)\ntag_86:\n    /* \"#utility.yul\":4760:4766   */\n  dup7\n    /* \"#utility.yul\":4751:4758   */\n  dup4\n    /* \"#utility.yul\":4748:4767   */\n  lt\n    /* \"#utility.yul\":4745:4924   */\n  iszero\n  tag_87\n  jumpi\n    /* \"#utility.yul\":4818:4827   */\n  dup5\n    /* \"#utility.yul\":4813:4816   */\n  dup10\n    /* \"#utility.yul\":4809:4828   */\n  add\n    /* \"#utility.yul\":4803:4829   */\n  mload\n    /* \"#utility.yul\":4861:4909   */\n  tag_88\n    /* \"#utility.yul\":4903:4907   */\n  0x1f\n    /* \"#utility.yul\":4895:4901   */\n  dup10\n    /* \"#utility.yul\":4891:4908   */\n  and\n    /* \"#utility.yul\":4880:4889   */\n  dup3\n    /* \"#utility.yul\":4861:4909   */\n  tag_25\n  jump\t// in\ntag_88:\n    /* \"#utility.yul\":4853:4859   */\n  dup4\n    /* \"#utility.yul\":4846:4910   */\n  sstore\n    /* \"#utility.yul\":4768:4924   */\n  pop\n    /* \"#utility.yul\":4745:4924   */\ntag_87:\n    /* \"#utility.yul\":4970:4971   */\n  0x01\n    /* \"#utility.yul\":4966:4967   */\n  0x02\n    /* \"#utility.yul\":4958:4964   */\n  dup9\n    /* \"#utility.yul\":4954:4968   */\n  mul\n    /* \"#utility.yul\":4950:4972   */\n  add\n    /* \"#utility.yul\":4944:4948   */\n  dup9\n    /* \"#utility.yul\":4937:4973   */\n  sstore\n    /* \"#utility.yul\":4372:4983   */\n  pop\n  pop\n  pop\n    /* \"#utility.yul\":4335:5222   */\ntag_79:\n  pop\n    /* \"#utility.yul\":3925:5228   */\n  pop\n  pop\n  pop\n    /* \"#utility.yul\":3833:5228   */\n  pop\n  pop\n  jump\t// out\n    /* \"Innovation/MiniProject.sol\":58:1875  contract mini_project {... */\ntag_6:\n  dataSize(sub_0)\n  dup1\n  dataOffset(sub_0)\n  0x00\n  codecopy\n  0x00\n  return\nstop\n\nsub_0: assembly {\n        /* \"Innovation/MiniProject.sol\":58:1875  contract mini_project {... */\n      mstore(0x40, 0x80)\n      jumpi(tag_1, lt(calldatasize, 0x04))\n      shr(0xe0, calldataload(0x00))\n      dup1\n      0x6df427bc\n      eq\n      tag_2\n      jumpi\n      dup1\n      0xaa8c217c\n      eq\n      tag_3\n      jumpi\n      dup1\n      0xadc80562\n      eq\n      tag_4\n      jumpi\n      dup1\n      0xc2133136\n      eq\n      tag_5\n      jumpi\n      dup1\n      0xe21f37ce\n      eq\n      tag_6\n      jumpi\n      dup1\n      0xf15820ff\n      eq\n      tag_7\n      jumpi\n    tag_1:\n      revert(0x00, 0x00)\n        /* \"Innovation/MiniProject.sol\":875:1445  function set_status(Status x)... */\n    tag_2:\n      callvalue\n      dup1\n      iszero\n      tag_8\n      jumpi\n      revert(0x00, 0x00)\n    tag_8:\n      pop\n      tag_9\n      0x04\n      dup1\n      calldatasize\n      sub\n      dup2\n      add\n      swap1\n      tag_10\n      swap2\n      swap1\n      tag_11\n      jump\t// in\n    tag_10:\n      tag_12\n      jump\t// in\n    tag_9:\n      mload(0x40)\n      tag_13\n      swap2\n      swap1\n      tag_14\n      jump\t// in\n    tag_13:\n      mload(0x40)\n      dup1\n      swap2\n      sub\n      swap1\n      return\n        /* \"Innovation/MiniProject.sol\":129:150  uint256 public amount */\n    tag_3:\n      callvalue\n      dup1\n      iszero\n      tag_15\n      jumpi\n      revert(0x00, 0x00)\n    tag_15:\n      pop\n      tag_16\n      tag_17\n      jump\t// in\n    tag_16:\n      mload(0x40)\n      tag_18\n      swap2\n      swap1\n      tag_19\n      jump\t// in\n    tag_18:\n      mload(0x40)\n      dup1\n      swap2\n      sub\n      swap1\n      return\n        /* \"Innovation/MiniProject.sol\":1623:1873  function Owner_ship(address new_add) public only_owner balance_checker {... */\n    tag_4:\n      callvalue\n      dup1\n      iszero\n      tag_20\n      jumpi\n      revert(0x00, 0x00)\n    tag_20:\n      pop\n      tag_21\n      0x04\n      dup1\n      calldatasize\n      sub\n      dup2\n      add\n      swap1\n      tag_22\n      swap2\n      swap1\n      tag_23\n      jump\t// in\n    tag_22:\n      tag_24\n      jump\t// in\n    tag_21:\n      stop\n        /* \"Innovation/MiniProject.sol\":1496:1617  function update_balance() public returns (uint256) {... */\n    tag_5:\n      callvalue\n      dup1\n      iszero\n      tag_25\n      jumpi\n      revert(0x00, 0x00)\n    tag_25:\n      pop\n      tag_26\n      tag_27\n      jump\t// in\n    tag_26:\n      mload(0x40)\n      tag_28\n      swap2\n      swap1\n      tag_19\n      jump\t// in\n    tag_28:\n      mload(0x40)\n      dup1\n      swap2\n      sub\n      swap1\n      return\n        /* \"Innovation/MiniProject.sol\":157:190  string public message = \"Welcome\" */\n    tag_6:\n      callvalue\n      dup1\n      iszero\n      tag_29\n      jumpi\n      revert(0x00, 0x00)\n    tag_29:\n      pop\n      tag_30\n      tag_31\n      jump\t// in\n    tag_30:\n      mload(0x40)\n      tag_32\n      swap2\n      swap1\n      tag_14\n      jump\t// in\n    tag_32:\n      mload(0x40)\n      dup1\n      swap2\n      sub\n      swap1\n      return\n        /* \"Innovation/MiniProject.sol\":1451:1490  function Get_amount() public payable {} */\n    tag_7:\n      tag_33\n      tag_34\n      jump\t// in\n    tag_33:\n      stop\n        /* \"Innovation/MiniProject.sol\":875:1445  function set_status(Status x)... */\n    tag_12:\n        /* \"Innovation/MiniProject.sol\":977:990  string memory */\n      0x60\n        /* \"Innovation/MiniProject.sol\":395:405  msg.sender */\n      caller\n        /* \"Innovation/MiniProject.sol\":386:405  owner == msg.sender */\n      0xffffffffffffffffffffffffffffffffffffffff\n      and\n        /* \"Innovation/MiniProject.sol\":386:391  owner */\n      0x00\n      0x00\n      swap1\n      sload\n      swap1\n      0x0100\n      exp\n      swap1\n      div\n      0xffffffffffffffffffffffffffffffffffffffff\n      and\n        /* \"Innovation/MiniProject.sol\":386:405  owner == msg.sender */\n      0xffffffffffffffffffffffffffffffffffffffff\n      and\n      eq\n        /* \"Innovation/MiniProject.sol\":378:419  require(owner == msg.sender, \"Not Owner\") */\n      tag_36\n      jumpi\n      mload(0x40)\n      0x08c379a000000000000000000000000000000000000000000000000000000000\n      dup2\n      mstore\n      0x04\n      add\n      tag_37\n      swap1\n      tag_38\n      jump\t// in\n    tag_37:\n      mload(0x40)\n      dup1\n      swap2\n      sub\n      swap1\n      revert\n    tag_36:\n        /* \"Innovation/MiniProject.sol\":634:650  type(Status).max */\n      0x03\n        /* \"Innovation/MiniProject.sol\":626:651  uint256(type(Status).max) */\n      dup1\n      dup2\n      gt\n      iszero\n      tag_40\n      jumpi\n      tag_41\n      tag_42\n      jump\t// in\n    tag_41:\n    tag_40:\n        /* \"Innovation/MiniProject.sol\":615:621  status */\n      0x04\n      0x00\n      swap1\n      sload\n      swap1\n      0x0100\n      exp\n      swap1\n      div\n      0xff\n      and\n        /* \"Innovation/MiniProject.sol\":607:622  uint256(status) */\n      0x03\n      dup2\n      gt\n      iszero\n      tag_43\n      jumpi\n      tag_44\n      tag_42\n      jump\t// in\n    tag_44:\n    tag_43:\n        /* \"Innovation/MiniProject.sol\":607:651  uint256(status) <= uint256(type(Status).max) */\n      gt\n      iszero\n        /* \"Innovation/MiniProject.sol\":586:694  require(... */\n      tag_45\n      jumpi\n      mload(0x40)\n      0x08c379a000000000000000000000000000000000000000000000000000000000\n      dup2\n      mstore\n      0x04\n      add\n      tag_46\n      swap1\n      tag_47\n      jump\t// in\n    tag_46:\n      mload(0x40)\n      dup1\n      swap2\n      sub\n      swap1\n      revert\n    tag_45:\n        /* \"Innovation/MiniProject.sol\":1015:1016  x */\n      dup2\n        /* \"Innovation/MiniProject.sol\":1006:1012  status */\n      0x04\n      0x00\n        /* \"Innovation/MiniProject.sol\":1006:1016  status = x */\n      0x0100\n      exp\n      dup2\n      sload\n      dup2\n      0xff\n      mul\n      not\n      and\n      swap1\n      dup4\n      0x03\n      dup2\n      gt\n      iszero\n      tag_49\n      jumpi\n      tag_50\n      tag_42\n      jump\t// in\n    tag_50:\n    tag_49:\n      mul\n      or\n      swap1\n      sstore\n      pop\n        /* \"Innovation/MiniProject.sol\":1040:1054  Status.Shipped */\n      0x02\n        /* \"Innovation/MiniProject.sol\":1030:1054  status == Status.Shipped */\n      0x03\n      dup2\n      gt\n      iszero\n      tag_51\n      jumpi\n      tag_52\n      tag_42\n      jump\t// in\n    tag_52:\n    tag_51:\n        /* \"Innovation/MiniProject.sol\":1030:1036  status */\n      0x04\n      0x00\n      swap1\n      sload\n      swap1\n      0x0100\n      exp\n      swap1\n      div\n      0xff\n      and\n        /* \"Innovation/MiniProject.sol\":1030:1054  status == Status.Shipped */\n      0x03\n      dup2\n      gt\n      iszero\n      tag_53\n      jumpi\n      tag_54\n      tag_42\n      jump\t// in\n    tag_54:\n    tag_53:\n      sub\n        /* \"Innovation/MiniProject.sol\":1026:1439  if (status == Status.Shipped) {... */\n      tag_55\n      jumpi\n        /* \"Innovation/MiniProject.sol\":1075:1096  Status_set(\"Shipped\") */\n      0xe18822188b13ea789744bb656325800d3b5025b3d956e508917ed2a260b33a8d\n      mload(0x40)\n      tag_56\n      swap1\n      tag_57\n      jump\t// in\n    tag_56:\n      mload(0x40)\n      dup1\n      swap2\n      sub\n      swap1\n      log1\n        /* \"Innovation/MiniProject.sol\":1110:1129  message = \"Shipped\" */\n      mload(0x40)\n      dup1\n      0x40\n      add\n      0x40\n      mstore\n      dup1\n      0x07\n      dup2\n      mstore\n      0x20\n      add\n      0x5368697070656400000000000000000000000000000000000000000000000000\n      dup2\n      mstore\n      pop\n        /* \"Innovation/MiniProject.sol\":1110:1117  message */\n      0x03\n        /* \"Innovation/MiniProject.sol\":1110:1129  message = \"Shipped\" */\n      swap1\n      dup2\n      tag_58\n      swap2\n      swap1\n      tag_59\n      jump\t// in\n    tag_58:\n      pop\n        /* \"Innovation/MiniProject.sol\":1150:1157  message */\n      0x03\n        /* \"Innovation/MiniProject.sol\":1143:1157  return message */\n      dup1\n      sload\n      tag_60\n      swap1\n      tag_61\n      jump\t// in\n    tag_60:\n      dup1\n      0x1f\n      add\n      0x20\n      dup1\n      swap2\n      div\n      mul\n      0x20\n      add\n      mload(0x40)\n      swap1\n      dup2\n      add\n      0x40\n      mstore\n      dup1\n      swap3\n      swap2\n      swap1\n      dup2\n      dup2\n      mstore\n      0x20\n      add\n      dup3\n      dup1\n      sload\n      tag_62\n      swap1\n      tag_61\n      jump\t// in\n    tag_62:\n      dup1\n      iszero\n      tag_63\n      jumpi\n      dup1\n      0x1f\n      lt\n      tag_64\n      jumpi\n      0x0100\n      dup1\n      dup4\n      sload\n      div\n      mul\n      dup4\n      mstore\n      swap2\n      0x20\n      add\n      swap2\n      jump(tag_63)\n    tag_64:\n      dup3\n      add\n      swap2\n      swap1\n      0x00\n      mstore\n      keccak256(0x00, 0x20)\n      swap1\n    tag_65:\n      dup2\n      sload\n      dup2\n      mstore\n      swap1\n      0x01\n      add\n      swap1\n      0x20\n      add\n      dup1\n      dup4\n      gt\n      tag_65\n      jumpi\n      dup3\n      swap1\n      sub\n      0x1f\n      and\n      dup3\n      add\n      swap2\n    tag_63:\n      pop\n      pop\n      pop\n      pop\n      pop\n      swap1\n      pop\n      jump(tag_48)\n        /* \"Innovation/MiniProject.sol\":1026:1439  if (status == Status.Shipped) {... */\n    tag_55:\n        /* \"Innovation/MiniProject.sol\":1188:1204  Status.Delivered */\n      0x03\n        /* \"Innovation/MiniProject.sol\":1178:1204  status == Status.Delivered */\n      dup1\n      dup2\n      gt\n      iszero\n      tag_67\n      jumpi\n      tag_68\n      tag_42\n      jump\t// in\n    tag_68:\n    tag_67:\n        /* \"Innovation/MiniProject.sol\":1178:1184  status */\n      0x04\n      0x00\n      swap1\n      sload\n      swap1\n      0x0100\n      exp\n      swap1\n      div\n      0xff\n      and\n        /* \"Innovation/MiniProject.sol\":1178:1204  status == Status.Delivered */\n      0x03\n      dup2\n      gt\n      iszero\n      tag_69\n      jumpi\n      tag_70\n      tag_42\n      jump\t// in\n    tag_70:\n    tag_69:\n      sub\n        /* \"Innovation/MiniProject.sol\":1174:1439  if (status == Status.Delivered) {... */\n      tag_71\n      jumpi\n        /* \"Innovation/MiniProject.sol\":1225:1247  Status_set(\"Deliverd\") */\n      0xe18822188b13ea789744bb656325800d3b5025b3d956e508917ed2a260b33a8d\n      mload(0x40)\n      tag_72\n      swap1\n      tag_73\n      jump\t// in\n    tag_72:\n      mload(0x40)\n      dup1\n      swap2\n      sub\n      swap1\n      log1\n        /* \"Innovation/MiniProject.sol\":1261:1282  message = \"Delivered\" */\n      mload(0x40)\n      dup1\n      0x40\n      add\n      0x40\n      mstore\n      dup1\n      0x09\n      dup2\n      mstore\n      0x20\n      add\n      0x44656c6976657265640000000000000000000000000000000000000000000000\n      dup2\n      mstore\n      pop\n        /* \"Innovation/MiniProject.sol\":1261:1268  message */\n      0x03\n        /* \"Innovation/MiniProject.sol\":1261:1282  message = \"Delivered\" */\n      swap1\n      dup2\n      tag_74\n      swap2\n      swap1\n      tag_59\n      jump\t// in\n    tag_74:\n      pop\n        /* \"Innovation/MiniProject.sol\":1303:1310  message */\n      0x03\n        /* \"Innovation/MiniProject.sol\":1296:1310  return message */\n      dup1\n      sload\n      tag_75\n      swap1\n      tag_61\n      jump\t// in\n    tag_75:\n      dup1\n      0x1f\n      add\n      0x20\n      dup1\n      swap2\n      div\n      mul\n      0x20\n      add\n      mload(0x40)\n      swap1\n      dup2\n      add\n      0x40\n      mstore\n      dup1\n      swap3\n      swap2\n      swap1\n      dup2\n      dup2\n      mstore\n      0x20\n      add\n      dup3\n      dup1\n      sload\n      tag_76\n      swap1\n      tag_61\n      jump\t// in\n    tag_76:\n      dup1\n      iszero\n      tag_77\n      jumpi\n      dup1\n      0x1f\n      lt\n      tag_78\n      jumpi\n      0x0100\n      dup1\n      dup4\n      sload\n      div\n      mul\n      dup4\n      mstore\n      swap2\n      0x20\n      add\n      swap2\n      jump(tag_77)\n    tag_78:\n      dup3\n      add\n      swap2\n      swap1\n      0x00\n      mstore\n      keccak256(0x00, 0x20)\n      swap1\n    tag_79:\n      dup2\n      sload\n      dup2\n      mstore\n      swap1\n      0x01\n      add\n      swap1\n      0x20\n      add\n      dup1\n      dup4\n      gt\n      tag_79\n      jumpi\n      dup3\n      swap1\n      sub\n      0x1f\n      and\n      dup3\n      add\n      swap2\n    tag_77:\n      pop\n      pop\n      pop\n      pop\n      pop\n      swap1\n      pop\n      jump(tag_48)\n        /* \"Innovation/MiniProject.sol\":1174:1439  if (status == Status.Delivered) {... */\n    tag_71:\n        /* \"Innovation/MiniProject.sol\":1346:1367  Status_set(\"pending\") */\n      0xe18822188b13ea789744bb656325800d3b5025b3d956e508917ed2a260b33a8d\n      mload(0x40)\n      tag_81\n      swap1\n      tag_82\n      jump\t// in\n    tag_81:\n      mload(0x40)\n      dup1\n      swap2\n      sub\n      swap1\n      log1\n        /* \"Innovation/MiniProject.sol\":1381:1400  message = \"pending\" */\n      mload(0x40)\n      dup1\n      0x40\n      add\n      0x40\n      mstore\n      dup1\n      0x07\n      dup2\n      mstore\n      0x20\n      add\n      0x70656e64696e6700000000000000000000000000000000000000000000000000\n      dup2\n      mstore\n      pop\n        /* \"Innovation/MiniProject.sol\":1381:1388  message */\n      0x03\n        /* \"Innovation/MiniProject.sol\":1381:1400  message = \"pending\" */\n      swap1\n      dup2\n      tag_83\n      swap2\n      swap1\n      tag_59\n      jump\t// in\n    tag_83:\n      pop\n        /* \"Innovation/MiniProject.sol\":1421:1428  message */\n      0x03\n        /* \"Innovation/MiniProject.sol\":1414:1428  return message */\n      dup1\n      sload\n      tag_84\n      swap1\n      tag_61\n      jump\t// in\n    tag_84:\n      dup1\n      0x1f\n      add\n      0x20\n      dup1\n      swap2\n      div\n      mul\n      0x20\n      add\n      mload(0x40)\n      swap1\n      dup2\n      add\n      0x40\n      mstore\n      dup1\n      swap3\n      swap2\n      swap1\n      dup2\n      dup2\n      mstore\n      0x20\n      add\n      dup3\n      dup1\n      sload\n      tag_85\n      swap1\n      tag_61\n      jump\t// in\n    tag_85:\n      dup1\n      iszero\n      tag_86\n      jumpi\n      dup1\n      0x1f\n      lt\n      tag_87\n      jumpi\n      0x0100\n      dup1\n      dup4\n      sload\n      div\n      mul\n      dup4\n      mstore\n      swap2\n      0x20\n      add\n      swap2\n      jump(tag_86)\n    tag_87:\n      dup3\n      add\n      swap2\n      swap1\n      0x00\n      mstore\n      keccak256(0x00, 0x20)\n      swap1\n    tag_88:\n      dup2\n      sload\n      dup2\n      mstore\n      swap1\n      0x01\n      add\n      swap1\n      0x20\n      add\n      dup1\n      dup4\n      gt\n      tag_88\n      jumpi\n      dup3\n      swap1\n      sub\n      0x1f\n      and\n      dup3\n      add\n      swap2\n    tag_86:\n      pop\n      pop\n      pop\n      pop\n      pop\n      swap1\n      pop\n        /* \"Innovation/MiniProject.sol\":704:705  _ */\n    tag_48:\n        /* \"Innovation/MiniProject.sol\":875:1445  function set_status(Status x)... */\n      swap2\n      swap1\n      pop\n      jump\t// out\n        /* \"Innovation/MiniProject.sol\":129:150  uint256 public amount */\n    tag_17:\n      sload(0x02)\n      dup2\n      jump\t// out\n        /* \"Innovation/MiniProject.sol\":1623:1873  function Owner_ship(address new_add) public only_owner balance_checker {... */\n    tag_24:\n        /* \"Innovation/MiniProject.sol\":395:405  msg.sender */\n      caller\n        /* \"Innovation/MiniProject.sol\":386:405  owner == msg.sender */\n      0xffffffffffffffffffffffffffffffffffffffff\n      and\n        /* \"Innovation/MiniProject.sol\":386:391  owner */\n      0x00\n      0x00\n      swap1\n      sload\n      swap1\n      0x0100\n      exp\n      swap1\n      div\n      0xffffffffffffffffffffffffffffffffffffffff\n      and\n        /* \"Innovation/MiniProject.sol\":386:405  owner == msg.sender */\n      0xffffffffffffffffffffffffffffffffffffffff\n      and\n      eq\n        /* \"Innovation/MiniProject.sol\":378:419  require(owner == msg.sender, \"Not Owner\") */\n      tag_90\n      jumpi\n      mload(0x40)\n      0x08c379a000000000000000000000000000000000000000000000000000000000\n      dup2\n      mstore\n      0x04\n      add\n      tag_91\n      swap1\n      tag_38\n      jump\t// in\n    tag_91:\n      mload(0x40)\n      dup1\n      swap2\n      sub\n      swap1\n      revert\n    tag_90:\n        /* \"Innovation/MiniProject.sol\":497:504  1 ether */\n      0x0de0b6b3a7640000\n        /* \"Innovation/MiniProject.sol\":487:493  amount */\n      sload(0x02)\n        /* \"Innovation/MiniProject.sol\":487:504  amount >= 1 ether */\n      lt\n      iszero\n        /* \"Innovation/MiniProject.sol\":479:529  require(amount >= 1 ether, \"Insufficient Balance\") */\n      tag_93\n      jumpi\n      mload(0x40)\n      0x08c379a000000000000000000000000000000000000000000000000000000000\n      dup2\n      mstore\n      0x04\n      add\n      tag_94\n      swap1\n      tag_95\n      jump\t// in\n    tag_94:\n      mload(0x40)\n      dup1\n      swap2\n      sub\n      swap1\n      revert\n    tag_93:\n        /* \"Innovation/MiniProject.sol\":1718:1725  1 ether */\n      0x0de0b6b3a7640000\n        /* \"Innovation/MiniProject.sol\":1708:1714  amount */\n      sload(0x02)\n        /* \"Innovation/MiniProject.sol\":1708:1725  amount >= 1 ether */\n      lt\n        /* \"Innovation/MiniProject.sol\":1704:1867  if (amount >= 1 ether) {... */\n      tag_97\n      jumpi\n        /* \"Innovation/MiniProject.sol\":1752:1759  new_add */\n      dup1\n        /* \"Innovation/MiniProject.sol\":1741:1749  Cust_add */\n      0x01\n      0x00\n        /* \"Innovation/MiniProject.sol\":1741:1759  Cust_add = new_add */\n      0x0100\n      exp\n      dup2\n      sload\n      dup2\n      0xffffffffffffffffffffffffffffffffffffffff\n      mul\n      not\n      and\n      swap1\n      dup4\n      0xffffffffffffffffffffffffffffffffffffffff\n      and\n      mul\n      or\n      swap1\n      sstore\n      pop\n        /* \"Innovation/MiniProject.sol\":1782:1796  Status.Pending */\n      0x01\n        /* \"Innovation/MiniProject.sol\":1773:1779  status */\n      0x04\n      0x00\n        /* \"Innovation/MiniProject.sol\":1773:1796  status = Status.Pending */\n      0x0100\n      exp\n      dup2\n      sload\n      dup2\n      0xff\n      mul\n      not\n      and\n      swap1\n      dup4\n      0x03\n      dup2\n      gt\n      iszero\n      tag_98\n      jumpi\n      tag_99\n      tag_42\n      jump\t// in\n    tag_99:\n    tag_98:\n      mul\n      or\n      swap1\n      sstore\n      pop\n        /* \"Innovation/MiniProject.sol\":1810:1856  message = \"Order Has Been Placed Successfully\" */\n      mload(0x40)\n      dup1\n      0x60\n      add\n      0x40\n      mstore\n      dup1\n      0x22\n      dup2\n      mstore\n      0x20\n      add\n      data_96dfabbf07d0c6a780e51fb0d2039d68e0c52ce84c414db1c1d50292fb2d54f7\n      0x22\n      swap2\n      codecopy\n        /* \"Innovation/MiniProject.sol\":1810:1817  message */\n      0x03\n        /* \"Innovation/MiniProject.sol\":1810:1856  message = \"Order Has Been Placed Successfully\" */\n      swap1\n      dup2\n      tag_100\n      swap2\n      swap1\n      tag_59\n      jump\t// in\n    tag_100:\n      pop\n        /* \"Innovation/MiniProject.sol\":1704:1867  if (amount >= 1 ether) {... */\n    tag_97:\n        /* \"Innovation/MiniProject.sol\":1623:1873  function Owner_ship(address new_add) public only_owner balance_checker {... */\n      pop\n      jump\t// out\n        /* \"Innovation/MiniProject.sol\":1496:1617  function update_balance() public returns (uint256) {... */\n    tag_27:\n        /* \"Innovation/MiniProject.sol\":1538:1545  uint256 */\n      0x00\n        /* \"Innovation/MiniProject.sol\":1566:1587  address(this).balance */\n      selfbalance\n        /* \"Innovation/MiniProject.sol\":1557:1563  amount */\n      0x02\n        /* \"Innovation/MiniProject.sol\":1557:1587  amount = address(this).balance */\n      dup2\n      swap1\n      sstore\n      pop\n        /* \"Innovation/MiniProject.sol\":1604:1610  amount */\n      sload(0x02)\n        /* \"Innovation/MiniProject.sol\":1597:1610  return amount */\n      swap1\n      pop\n        /* \"Innovation/MiniProject.sol\":1496:1617  function update_balance() public returns (uint256) {... */\n      swap1\n      jump\t// out\n        /* \"Innovation/MiniProject.sol\":157:190  string public message = \"Welcome\" */\n    tag_31:\n      0x03\n      dup1\n      sload\n      tag_102\n      swap1\n      tag_61\n      jump\t// in\n    tag_102:\n      dup1\n      0x1f\n      add\n      0x20\n      dup1\n      swap2\n      div\n      mul\n      0x20\n      add\n      mload(0x40)\n      swap1\n      dup2\n      add\n      0x40\n      mstore\n      dup1\n      swap3\n      swap2\n      swap1\n      dup2\n      dup2\n      mstore\n      0x20\n      add\n      dup3\n      dup1\n      sload\n      tag_103\n      swap1\n      tag_61\n      jump\t// in\n    tag_103:\n      dup1\n      iszero\n      tag_104\n      jumpi\n      dup1\n      0x1f\n      lt\n      tag_105\n      jumpi\n      0x0100\n      dup1\n      dup4\n      sload\n      div\n      mul\n      dup4\n      mstore\n      swap2\n      0x20\n      add\n      swap2\n      jump(tag_104)\n    tag_105:\n      dup3\n      add\n      swap2\n      swap1\n      0x00\n      mstore\n      keccak256(0x00, 0x20)\n      swap1\n    tag_106:\n      dup2\n      sload\n      dup2\n      mstore\n      swap1\n      0x01\n      add\n      swap1\n      0x20\n      add\n      dup1\n      dup4\n      gt\n      tag_106\n      jumpi\n      dup3\n      swap1\n      sub\n      0x1f\n      and\n      dup3\n      add\n      swap2\n    tag_104:\n      pop\n      pop\n      pop\n      pop\n      pop\n      dup2\n      jump\t// out\n        /* \"Innovation/MiniProject.sol\":1451:1490  function Get_amount() public payable {} */\n    tag_34:\n      jump\t// out\n        /* \"#utility.yul\":88:205   */\n    tag_109:\n        /* \"#utility.yul\":197:198   */\n      0x00\n        /* \"#utility.yul\":194:195   */\n      0x00\n        /* \"#utility.yul\":187:199   */\n      revert\n        /* \"#utility.yul\":334:442   */\n    tag_111:\n        /* \"#utility.yul\":416:417   */\n      0x04\n        /* \"#utility.yul\":409:414   */\n      dup2\n        /* \"#utility.yul\":406:418   */\n      lt\n        /* \"#utility.yul\":396:436   */\n      tag_158\n      jumpi\n        /* \"#utility.yul\":432:433   */\n      0x00\n        /* \"#utility.yul\":429:430   */\n      0x00\n        /* \"#utility.yul\":422:434   */\n      revert\n        /* \"#utility.yul\":396:436   */\n    tag_158:\n        /* \"#utility.yul\":334:442   */\n      pop\n      jump\t// out\n        /* \"#utility.yul\":448:605   */\n    tag_112:\n        /* \"#utility.yul\":503:508   */\n      0x00\n        /* \"#utility.yul\":541:547   */\n      dup2\n        /* \"#utility.yul\":528:548   */\n      calldataload\n        /* \"#utility.yul\":519:548   */\n      swap1\n      pop\n        /* \"#utility.yul\":557:599   */\n      tag_160\n        /* \"#utility.yul\":593:598   */\n      dup2\n        /* \"#utility.yul\":557:599   */\n      tag_111\n      jump\t// in\n    tag_160:\n        /* \"#utility.yul\":448:605   */\n      swap3\n      swap2\n      pop\n      pop\n      jump\t// out\n        /* \"#utility.yul\":611:958   */\n    tag_11:\n        /* \"#utility.yul\":679:685   */\n      0x00\n        /* \"#utility.yul\":728:730   */\n      0x20\n        /* \"#utility.yul\":716:725   */\n      dup3\n        /* \"#utility.yul\":707:714   */\n      dup5\n        /* \"#utility.yul\":703:726   */\n      sub\n        /* \"#utility.yul\":699:731   */\n      slt\n        /* \"#utility.yul\":696:815   */\n      iszero\n      tag_162\n      jumpi\n        /* \"#utility.yul\":734:813   */\n      tag_163\n      tag_109\n      jump\t// in\n    tag_163:\n        /* \"#utility.yul\":696:815   */\n    tag_162:\n        /* \"#utility.yul\":854:855   */\n      0x00\n        /* \"#utility.yul\":879:941   */\n      tag_164\n        /* \"#utility.yul\":933:940   */\n      dup5\n        /* \"#utility.yul\":924:930   */\n      dup3\n        /* \"#utility.yul\":913:922   */\n      dup6\n        /* \"#utility.yul\":909:931   */\n      add\n        /* \"#utility.yul\":879:941   */\n      tag_112\n      jump\t// in\n    tag_164:\n        /* \"#utility.yul\":869:941   */\n      swap2\n      pop\n        /* \"#utility.yul\":825:951   */\n      pop\n        /* \"#utility.yul\":611:958   */\n      swap3\n      swap2\n      pop\n      pop\n      jump\t// out\n        /* \"#utility.yul\":964:1063   */\n    tag_113:\n        /* \"#utility.yul\":1016:1022   */\n      0x00\n        /* \"#utility.yul\":1050:1055   */\n      dup2\n        /* \"#utility.yul\":1044:1056   */\n      mload\n        /* \"#utility.yul\":1034:1056   */\n      swap1\n      pop\n        /* \"#utility.yul\":964:1063   */\n      swap2\n      swap1\n      pop\n      jump\t// out\n        /* \"#utility.yul\":1069:1238   */\n    tag_114:\n        /* \"#utility.yul\":1153:1164   */\n      0x00\n        /* \"#utility.yul\":1187:1193   */\n      dup3\n        /* \"#utility.yul\":1182:1185   */\n      dup3\n        /* \"#utility.yul\":1175:1194   */\n      mstore\n        /* \"#utility.yul\":1227:1231   */\n      0x20\n        /* \"#utility.yul\":1222:1225   */\n      dup3\n        /* \"#utility.yul\":1218:1232   */\n      add\n        /* \"#utility.yul\":1203:1232   */\n      swap1\n      pop\n        /* \"#utility.yul\":1069:1238   */\n      swap3\n      swap2\n      pop\n      pop\n      jump\t// out\n        /* \"#utility.yul\":1244:1383   */\n    tag_115:\n        /* \"#utility.yul\":1333:1339   */\n      dup3\n        /* \"#utility.yul\":1328:1331   */\n      dup2\n        /* \"#utility.yul\":1323:1326   */\n      dup4\n        /* \"#utility.yul\":1317:1340   */\n      mcopy\n        /* \"#utility.yul\":1374:1375   */\n      0x00\n        /* \"#utility.yul\":1365:1371   */\n      dup4\n        /* \"#utility.yul\":1360:1363   */\n      dup4\n        /* \"#utility.yul\":1356:1372   */\n      add\n        /* \"#utility.yul\":1349:1376   */\n      mstore\n        /* \"#utility.yul\":1244:1383   */\n      pop\n      pop\n      pop\n      jump\t// out\n        /* \"#utility.yul\":1389:1491   */\n    tag_116:\n        /* \"#utility.yul\":1430:1436   */\n      0x00\n        /* \"#utility.yul\":1481:1483   */\n      0x1f\n        /* \"#utility.yul\":1477:1484   */\n      not\n        /* \"#utility.yul\":1472:1474   */\n      0x1f\n        /* \"#utility.yul\":1465:1470   */\n      dup4\n        /* \"#utility.yul\":1461:1475   */\n      add\n        /* \"#utility.yul\":1457:1485   */\n      and\n        /* \"#utility.yul\":1447:1485   */\n      swap1\n      pop\n        /* \"#utility.yul\":1389:1491   */\n      swap2\n      swap1\n      pop\n      jump\t// out\n        /* \"#utility.yul\":1497:1874   */\n    tag_117:\n        /* \"#utility.yul\":1585:1588   */\n      0x00\n        /* \"#utility.yul\":1613:1652   */\n      tag_170\n        /* \"#utility.yul\":1646:1651   */\n      dup3\n        /* \"#utility.yul\":1613:1652   */\n      tag_113\n      jump\t// in\n    tag_170:\n        /* \"#utility.yul\":1668:1739   */\n      tag_171\n        /* \"#utility.yul\":1732:1738   */\n      dup2\n        /* \"#utility.yul\":1727:1730   */\n      dup6\n        /* \"#utility.yul\":1668:1739   */\n      tag_114\n      jump\t// in\n    tag_171:\n        /* \"#utility.yul\":1661:1739   */\n      swap4\n      pop\n        /* \"#utility.yul\":1748:1813   */\n      tag_172\n        /* \"#utility.yul\":1806:1812   */\n      dup2\n        /* \"#utility.yul\":1801:1804   */\n      dup6\n        /* \"#utility.yul\":1794:1798   */\n      0x20\n        /* \"#utility.yul\":1787:1792   */\n      dup7\n        /* \"#utility.yul\":1783:1799   */\n      add\n        /* \"#utility.yul\":1748:1813   */\n      tag_115\n      jump\t// in\n    tag_172:\n        /* \"#utility.yul\":1838:1867   */\n      tag_173\n        /* \"#utility.yul\":1860:1866   */\n      dup2\n        /* \"#utility.yul\":1838:1867   */\n      tag_116\n      jump\t// in\n    tag_173:\n        /* \"#utility.yul\":1833:1836   */\n      dup5\n        /* \"#utility.yul\":1829:1868   */\n      add\n        /* \"#utility.yul\":1822:1868   */\n      swap2\n      pop\n        /* \"#utility.yul\":1589:1874   */\n      pop\n        /* \"#utility.yul\":1497:1874   */\n      swap3\n      swap2\n      pop\n      pop\n      jump\t// out\n        /* \"#utility.yul\":1880:2193   */\n    tag_14:\n        /* \"#utility.yul\":1993:1997   */\n      0x00\n        /* \"#utility.yul\":2031:2033   */\n      0x20\n        /* \"#utility.yul\":2020:2029   */\n      dup3\n        /* \"#utility.yul\":2016:2034   */\n      add\n        /* \"#utility.yul\":2008:2034   */\n      swap1\n      pop\n        /* \"#utility.yul\":2080:2089   */\n      dup2\n        /* \"#utility.yul\":2074:2078   */\n      dup2\n        /* \"#utility.yul\":2070:2090   */\n      sub\n        /* \"#utility.yul\":2066:2067   */\n      0x00\n        /* \"#utility.yul\":2055:2064   */\n      dup4\n        /* \"#utility.yul\":2051:2068   */\n      add\n        /* \"#utility.yul\":2044:2091   */\n      mstore\n        /* \"#utility.yul\":2108:2186   */\n      tag_175\n        /* \"#utility.yul\":2181:2185   */\n      dup2\n        /* \"#utility.yul\":2172:2178   */\n      dup5\n        /* \"#utility.yul\":2108:2186   */\n      tag_117\n      jump\t// in\n    tag_175:\n        /* \"#utility.yul\":2100:2186   */\n      swap1\n      pop\n        /* \"#utility.yul\":1880:2193   */\n      swap3\n      swap2\n      pop\n      pop\n      jump\t// out\n        /* \"#utility.yul\":2199:2276   */\n    tag_118:\n        /* \"#utility.yul\":2236:2243   */\n      0x00\n        /* \"#utility.yul\":2265:2270   */\n      dup2\n        /* \"#utility.yul\":2254:2270   */\n      swap1\n      pop\n        /* \"#utility.yul\":2199:2276   */\n      swap2\n      swap1\n      pop\n      jump\t// out\n        /* \"#utility.yul\":2282:2400   */\n    tag_119:\n        /* \"#utility.yul\":2369:2393   */\n      tag_178\n        /* \"#utility.yul\":2387:2392   */\n      dup2\n        /* \"#utility.yul\":2369:2393   */\n      tag_118\n      jump\t// in\n    tag_178:\n        /* \"#utility.yul\":2364:2367   */\n      dup3\n        /* \"#utility.yul\":2357:2394   */\n      mstore\n        /* \"#utility.yul\":2282:2400   */\n      pop\n      pop\n      jump\t// out\n        /* \"#utility.yul\":2406:2628   */\n    tag_19:\n        /* \"#utility.yul\":2499:2503   */\n      0x00\n        /* \"#utility.yul\":2537:2539   */\n      0x20\n        /* \"#utility.yul\":2526:2535   */\n      dup3\n        /* \"#utility.yul\":2522:2540   */\n      add\n        /* \"#utility.yul\":2514:2540   */\n      swap1\n      pop\n        /* \"#utility.yul\":2550:2621   */\n      tag_180\n        /* \"#utility.yul\":2618:2619   */\n      0x00\n        /* \"#utility.yul\":2607:2616   */\n      dup4\n        /* \"#utility.yul\":2603:2620   */\n      add\n        /* \"#utility.yul\":2594:2600   */\n      dup5\n        /* \"#utility.yul\":2550:2621   */\n      tag_119\n      jump\t// in\n    tag_180:\n        /* \"#utility.yul\":2406:2628   */\n      swap3\n      swap2\n      pop\n      pop\n      jump\t// out\n        /* \"#utility.yul\":2634:2760   */\n    tag_120:\n        /* \"#utility.yul\":2671:2678   */\n      0x00\n        /* \"#utility.yul\":2711:2753   */\n      0xffffffffffffffffffffffffffffffffffffffff\n        /* \"#utility.yul\":2704:2709   */\n      dup3\n        /* \"#utility.yul\":2700:2754   */\n      and\n        /* \"#utility.yul\":2689:2754   */\n      swap1\n      pop\n        /* \"#utility.yul\":2634:2760   */\n      swap2\n      swap1\n      pop\n      jump\t// out\n        /* \"#utility.yul\":2766:2862   */\n    tag_121:\n        /* \"#utility.yul\":2803:2810   */\n      0x00\n        /* \"#utility.yul\":2832:2856   */\n      tag_183\n        /* \"#utility.yul\":2850:2855   */\n      dup3\n        /* \"#utility.yul\":2832:2856   */\n      tag_120\n      jump\t// in\n    tag_183:\n        /* \"#utility.yul\":2821:2856   */\n      swap1\n      pop\n        /* \"#utility.yul\":2766:2862   */\n      swap2\n      swap1\n      pop\n      jump\t// out\n        /* \"#utility.yul\":2868:2990   */\n    tag_122:\n        /* \"#utility.yul\":2941:2965   */\n      tag_185\n        /* \"#utility.yul\":2959:2964   */\n      dup2\n        /* \"#utility.yul\":2941:2965   */\n      tag_121\n      jump\t// in\n    tag_185:\n        /* \"#utility.yul\":2934:2939   */\n      dup2\n        /* \"#utility.yul\":2931:2966   */\n      eq\n        /* \"#utility.yul\":2921:2984   */\n      tag_186\n      jumpi\n        /* \"#utility.yul\":2980:2981   */\n      0x00\n        /* \"#utility.yul\":2977:2978   */\n      0x00\n        /* \"#utility.yul\":2970:2982   */\n      revert\n        /* \"#utility.yul\":2921:2984   */\n    tag_186:\n        /* \"#utility.yul\":2868:2990   */\n      pop\n      jump\t// out\n        /* \"#utility.yul\":2996:3135   */\n    tag_123:\n        /* \"#utility.yul\":3042:3047   */\n      0x00\n        /* \"#utility.yul\":3080:3086   */\n      dup2\n        /* \"#utility.yul\":3067:3087   */\n      calldataload\n        /* \"#utility.yul\":3058:3087   */\n      swap1\n      pop\n        /* \"#utility.yul\":3096:3129   */\n      tag_188\n        /* \"#utility.yul\":3123:3128   */\n      dup2\n        /* \"#utility.yul\":3096:3129   */\n      tag_122\n      jump\t// in\n    tag_188:\n        /* \"#utility.yul\":2996:3135   */\n      swap3\n      swap2\n      pop\n      pop\n      jump\t// out\n        /* \"#utility.yul\":3141:3470   */\n    tag_23:\n        /* \"#utility.yul\":3200:3206   */\n      0x00\n        /* \"#utility.yul\":3249:3251   */\n      0x20\n        /* \"#utility.yul\":3237:3246   */\n      dup3\n        /* \"#utility.yul\":3228:3235   */\n      dup5\n        /* \"#utility.yul\":3224:3247   */\n      sub\n        /* \"#utility.yul\":3220:3252   */\n      slt\n        /* \"#utility.yul\":3217:3336   */\n      iszero\n      tag_190\n      jumpi\n        /* \"#utility.yul\":3255:3334   */\n      tag_191\n      tag_109\n      jump\t// in\n    tag_191:\n        /* \"#utility.yul\":3217:3336   */\n    tag_190:\n        /* \"#utility.yul\":3375:3376   */\n      0x00\n        /* \"#utility.yul\":3400:3453   */\n      tag_192\n        /* \"#utility.yul\":3445:3452   */\n      dup5\n        /* \"#utility.yul\":3436:3442   */\n      dup3\n        /* \"#utility.yul\":3425:3434   */\n      dup6\n        /* \"#utility.yul\":3421:3443   */\n      add\n        /* \"#utility.yul\":3400:3453   */\n      tag_123\n      jump\t// in\n    tag_192:\n        /* \"#utility.yul\":3390:3453   */\n      swap2\n      pop\n        /* \"#utility.yul\":3346:3463   */\n      pop\n        /* \"#utility.yul\":3141:3470   */\n      swap3\n      swap2\n      pop\n      pop\n      jump\t// out\n        /* \"#utility.yul\":3476:3635   */\n    tag_124:\n        /* \"#utility.yul\":3616:3627   */\n      0x4e6f74204f776e65720000000000000000000000000000000000000000000000\n        /* \"#utility.yul\":3612:3613   */\n      0x00\n        /* \"#utility.yul\":3604:3610   */\n      dup3\n        /* \"#utility.yul\":3600:3614   */\n      add\n        /* \"#utility.yul\":3593:3628   */\n      mstore\n        /* \"#utility.yul\":3476:3635   */\n      pop\n      jump\t// out\n        /* \"#utility.yul\":3641:4006   */\n    tag_125:\n        /* \"#utility.yul\":3783:3786   */\n      0x00\n        /* \"#utility.yul\":3804:3870   */\n      tag_195\n        /* \"#utility.yul\":3868:3869   */\n      0x09\n        /* \"#utility.yul\":3863:3866   */\n      dup4\n        /* \"#utility.yul\":3804:3870   */\n      tag_114\n      jump\t// in\n    tag_195:\n        /* \"#utility.yul\":3797:3870   */\n      swap2\n      pop\n        /* \"#utility.yul\":3879:3972   */\n      tag_196\n        /* \"#utility.yul\":3968:3971   */\n      dup3\n        /* \"#utility.yul\":3879:3972   */\n      tag_124\n      jump\t// in\n    tag_196:\n        /* \"#utility.yul\":3997:3999   */\n      0x20\n        /* \"#utility.yul\":3992:3995   */\n      dup3\n        /* \"#utility.yul\":3988:4000   */\n      add\n        /* \"#utility.yul\":3981:4000   */\n      swap1\n      pop\n        /* \"#utility.yul\":3641:4006   */\n      swap2\n      swap1\n      pop\n      jump\t// out\n        /* \"#utility.yul\":4012:4431   */\n    tag_38:\n        /* \"#utility.yul\":4178:4182   */\n      0x00\n        /* \"#utility.yul\":4216:4218   */\n      0x20\n        /* \"#utility.yul\":4205:4214   */\n      dup3\n        /* \"#utility.yul\":4201:4219   */\n      add\n        /* \"#utility.yul\":4193:4219   */\n      swap1\n      pop\n        /* \"#utility.yul\":4265:4274   */\n      dup2\n        /* \"#utility.yul\":4259:4263   */\n      dup2\n        /* \"#utility.yul\":4255:4275   */\n      sub\n        /* \"#utility.yul\":4251:4252   */\n      0x00\n        /* \"#utility.yul\":4240:4249   */\n      dup4\n        /* \"#utility.yul\":4236:4253   */\n      add\n        /* \"#utility.yul\":4229:4276   */\n      mstore\n        /* \"#utility.yul\":4293:4424   */\n      tag_198\n        /* \"#utility.yul\":4419:4423   */\n      dup2\n        /* \"#utility.yul\":4293:4424   */\n      tag_125\n      jump\t// in\n    tag_198:\n        /* \"#utility.yul\":4285:4424   */\n      swap1\n      pop\n        /* \"#utility.yul\":4012:4431   */\n      swap2\n      swap1\n      pop\n      jump\t// out\n        /* \"#utility.yul\":4437:4617   */\n    tag_42:\n        /* \"#utility.yul\":4485:4562   */\n      0x4e487b7100000000000000000000000000000000000000000000000000000000\n        /* \"#utility.yul\":4482:4483   */\n      0x00\n        /* \"#utility.yul\":4475:4563   */\n      mstore\n        /* \"#utility.yul\":4582:4586   */\n      0x21\n        /* \"#utility.yul\":4579:4580   */\n      0x04\n        /* \"#utility.yul\":4572:4587   */\n      mstore\n        /* \"#utility.yul\":4606:4610   */\n      0x24\n        /* \"#utility.yul\":4603:4604   */\n      0x00\n        /* \"#utility.yul\":4596:4611   */\n      revert\n        /* \"#utility.yul\":4623:4790   */\n    tag_126:\n        /* \"#utility.yul\":4763:4782   */\n      0x416c72656164792044656c697665726564000000000000000000000000000000\n        /* \"#utility.yul\":4759:4760   */\n      0x00\n        /* \"#utility.yul\":4751:4757   */\n      dup3\n        /* \"#utility.yul\":4747:4761   */\n      add\n        /* \"#utility.yul\":4740:4783   */\n      mstore\n        /* \"#utility.yul\":4623:4790   */\n      pop\n      jump\t// out\n        /* \"#utility.yul\":4796:5162   */\n    tag_127:\n        /* \"#utility.yul\":4938:4941   */\n      0x00\n        /* \"#utility.yul\":4959:5026   */\n      tag_202\n        /* \"#utility.yul\":5023:5025   */\n      0x11\n        /* \"#utility.yul\":5018:5021   */\n      dup4\n        /* \"#utility.yul\":4959:5026   */\n      tag_114\n      jump\t// in\n    tag_202:\n        /* \"#utility.yul\":4952:5026   */\n      swap2\n      pop\n        /* \"#utility.yul\":5035:5128   */\n      tag_203\n        /* \"#utility.yul\":5124:5127   */\n      dup3\n        /* \"#utility.yul\":5035:5128   */\n      tag_126\n      jump\t// in\n    tag_203:\n        /* \"#utility.yul\":5153:5155   */\n      0x20\n        /* \"#utility.yul\":5148:5151   */\n      dup3\n        /* \"#utility.yul\":5144:5156   */\n      add\n        /* \"#utility.yul\":5137:5156   */\n      swap1\n      pop\n        /* \"#utility.yul\":4796:5162   */\n      swap2\n      swap1\n      pop\n      jump\t// out\n        /* \"#utility.yul\":5168:5587   */\n    tag_47:\n        /* \"#utility.yul\":5334:5338   */\n      0x00\n        /* \"#utility.yul\":5372:5374   */\n      0x20\n        /* \"#utility.yul\":5361:5370   */\n      dup3\n        /* \"#utility.yul\":5357:5375   */\n      add\n        /* \"#utility.yul\":5349:5375   */\n      swap1\n      pop\n        /* \"#utility.yul\":5421:5430   */\n      dup2\n        /* \"#utility.yul\":5415:5419   */\n      dup2\n        /* \"#utility.yul\":5411:5431   */\n      sub\n        /* \"#utility.yul\":5407:5408   */\n      0x00\n        /* \"#utility.yul\":5396:5405   */\n      dup4\n        /* \"#utility.yul\":5392:5409   */\n      add\n        /* \"#utility.yul\":5385:5432   */\n      mstore\n        /* \"#utility.yul\":5449:5580   */\n      tag_205\n        /* \"#utility.yul\":5575:5579   */\n      dup2\n        /* \"#utility.yul\":5449:5580   */\n      tag_127\n      jump\t// in\n    tag_205:\n        /* \"#utility.yul\":5441:5580   */\n      swap1\n      pop\n        /* \"#utility.yul\":5168:5587   */\n      swap2\n      swap1\n      pop\n      jump\t// out\n        /* \"#utility.yul\":5593:5750   */\n    tag_128:\n        /* \"#utility.yul\":5733:5742   */\n      0x5368697070656400000000000000000000000000000000000000000000000000\n        /* \"#utility.yul\":5729:5730   */\n      0x00\n        /* \"#utility.yul\":5721:5727   */\n      dup3\n        /* \"#utility.yul\":5717:5731   */\n      add\n        /* \"#utility.yul\":5710:5743   */\n      mstore\n        /* \"#utility.yul\":5593:5750   */\n      pop\n      jump\t// out\n        /* \"#utility.yul\":5756:6121   */\n    tag_129:\n        /* \"#utility.yul\":5898:5901   */\n      0x00\n        /* \"#utility.yul\":5919:5985   */\n      tag_208\n        /* \"#utility.yul\":5983:5984   */\n      0x07\n        /* \"#utility.yul\":5978:5981   */\n      dup4\n        /* \"#utility.yul\":5919:5985   */\n      tag_114\n      jump\t// in\n    tag_208:\n        /* \"#utility.yul\":5912:5985   */\n      swap2\n      pop\n        /* \"#utility.yul\":5994:6087   */\n      tag_209\n        /* \"#utility.yul\":6083:6086   */\n      dup3\n        /* \"#utility.yul\":5994:6087   */\n      tag_128\n      jump\t// in\n    tag_209:\n        /* \"#utility.yul\":6112:6114   */\n      0x20\n        /* \"#utility.yul\":6107:6110   */\n      dup3\n        /* \"#utility.yul\":6103:6115   */\n      add\n        /* \"#utility.yul\":6096:6115   */\n      swap1\n      pop\n        /* \"#utility.yul\":5756:6121   */\n      swap2\n      swap1\n      pop\n      jump\t// out\n        /* \"#utility.yul\":6127:6546   */\n    tag_57:\n        /* \"#utility.yul\":6293:6297   */\n      0x00\n        /* \"#utility.yul\":6331:6333   */\n      0x20\n        /* \"#utility.yul\":6320:6329   */\n      dup3\n        /* \"#utility.yul\":6316:6334   */\n      add\n        /* \"#utility.yul\":6308:6334   */\n      swap1\n      pop\n        /* \"#utility.yul\":6380:6389   */\n      dup2\n        /* \"#utility.yul\":6374:6378   */\n      dup2\n        /* \"#utility.yul\":6370:6390   */\n      sub\n        /* \"#utility.yul\":6366:6367   */\n      0x00\n        /* \"#utility.yul\":6355:6364   */\n      dup4\n        /* \"#utility.yul\":6351:6368   */\n      add\n        /* \"#utility.yul\":6344:6391   */\n      mstore\n        /* \"#utility.yul\":6408:6539   */\n      tag_211\n        /* \"#utility.yul\":6534:6538   */\n      dup2\n        /* \"#utility.yul\":6408:6539   */\n      tag_129\n      jump\t// in\n    tag_211:\n        /* \"#utility.yul\":6400:6539   */\n      swap1\n      pop\n        /* \"#utility.yul\":6127:6546   */\n      swap2\n      swap1\n      pop\n      jump\t// out\n        /* \"#utility.yul\":6552:6732   */\n    tag_130:\n        /* \"#utility.yul\":6600:6677   */\n      0x4e487b7100000000000000000000000000000000000000000000000000000000\n        /* \"#utility.yul\":6597:6598   */\n      0x00\n        /* \"#utility.yul\":6590:6678   */\n      mstore\n        /* \"#utility.yul\":6697:6701   */\n      0x41\n        /* \"#utility.yul\":6694:6695   */\n      0x04\n        /* \"#utility.yul\":6687:6702   */\n      mstore\n        /* \"#utility.yul\":6721:6725   */\n      0x24\n        /* \"#utility.yul\":6718:6719   */\n      0x00\n        /* \"#utility.yul\":6711:6726   */\n      revert\n        /* \"#utility.yul\":6738:6918   */\n    tag_131:\n        /* \"#utility.yul\":6786:6863   */\n      0x4e487b7100000000000000000000000000000000000000000000000000000000\n        /* \"#utility.yul\":6783:6784   */\n      0x00\n        /* \"#utility.yul\":6776:6864   */\n      mstore\n        /* \"#utility.yul\":6883:6887   */\n      0x22\n        /* \"#utility.yul\":6880:6881   */\n      0x04\n        /* \"#utility.yul\":6873:6888   */\n      mstore\n        /* \"#utility.yul\":6907:6911   */\n      0x24\n        /* \"#utility.yul\":6904:6905   */\n      0x00\n        /* \"#utility.yul\":6897:6912   */\n      revert\n        /* \"#utility.yul\":6924:7244   */\n    tag_61:\n        /* \"#utility.yul\":6968:6974   */\n      0x00\n        /* \"#utility.yul\":7005:7006   */\n      0x02\n        /* \"#utility.yul\":6999:7003   */\n      dup3\n        /* \"#utility.yul\":6995:7007   */\n      div\n        /* \"#utility.yul\":6985:7007   */\n      swap1\n      pop\n        /* \"#utility.yul\":7052:7053   */\n      0x01\n        /* \"#utility.yul\":7046:7050   */\n      dup3\n        /* \"#utility.yul\":7042:7054   */\n      and\n        /* \"#utility.yul\":7073:7091   */\n      dup1\n        /* \"#utility.yul\":7063:7144   */\n      tag_215\n      jumpi\n        /* \"#utility.yul\":7129:7133   */\n      0x7f\n        /* \"#utility.yul\":7121:7127   */\n      dup3\n        /* \"#utility.yul\":7117:7134   */\n      and\n        /* \"#utility.yul\":7107:7134   */\n      swap2\n      pop\n        /* \"#utility.yul\":7063:7144   */\n    tag_215:\n        /* \"#utility.yul\":7191:7193   */\n      0x20\n        /* \"#utility.yul\":7183:7189   */\n      dup3\n        /* \"#utility.yul\":7180:7194   */\n      lt\n        /* \"#utility.yul\":7160:7178   */\n      dup2\n        /* \"#utility.yul\":7157:7195   */\n      sub\n        /* \"#utility.yul\":7154:7238   */\n      tag_216\n      jumpi\n        /* \"#utility.yul\":7210:7228   */\n      tag_217\n      tag_131\n      jump\t// in\n    tag_217:\n        /* \"#utility.yul\":7154:7238   */\n    tag_216:\n        /* \"#utility.yul\":6975:7244   */\n      pop\n        /* \"#utility.yul\":6924:7244   */\n      swap2\n      swap1\n      pop\n      jump\t// out\n        /* \"#utility.yul\":7250:7391   */\n    tag_132:\n        /* \"#utility.yul\":7299:7303   */\n      0x00\n        /* \"#utility.yul\":7322:7325   */\n      dup2\n        /* \"#utility.yul\":7314:7325   */\n      swap1\n      pop\n        /* \"#utility.yul\":7345:7348   */\n      dup2\n        /* \"#utility.yul\":7342:7343   */\n      0x00\n        /* \"#utility.yul\":7335:7349   */\n      mstore\n        /* \"#utility.yul\":7379:7383   */\n      0x20\n        /* \"#utility.yul\":7376:7377   */\n      0x00\n        /* \"#utility.yul\":7366:7384   */\n      keccak256\n        /* \"#utility.yul\":7358:7384   */\n      swap1\n      pop\n        /* \"#utility.yul\":7250:7391   */\n      swap2\n      swap1\n      pop\n      jump\t// out\n        /* \"#utility.yul\":7397:7490   */\n    tag_133:\n        /* \"#utility.yul\":7434:7440   */\n      0x00\n        /* \"#utility.yul\":7481:7483   */\n      0x20\n        /* \"#utility.yul\":7476:7478   */\n      0x1f\n        /* \"#utility.yul\":7469:7474   */\n      dup4\n        /* \"#utility.yul\":7465:7479   */\n      add\n        /* \"#utility.yul\":7461:7484   */\n      div\n        /* \"#utility.yul\":7451:7484   */\n      swap1\n      pop\n        /* \"#utility.yul\":7397:7490   */\n      swap2\n      swap1\n      pop\n      jump\t// out\n        /* \"#utility.yul\":7496:7603   */\n    tag_134:\n        /* \"#utility.yul\":7540:7548   */\n      0x00\n        /* \"#utility.yul\":7590:7595   */\n      dup3\n        /* \"#utility.yul\":7584:7588   */\n      dup3\n        /* \"#utility.yul\":7580:7596   */\n      shl\n        /* \"#utility.yul\":7559:7596   */\n      swap1\n      pop\n        /* \"#utility.yul\":7496:7603   */\n      swap3\n      swap2\n      pop\n      pop\n      jump\t// out\n        /* \"#utility.yul\":7609:8002   */\n    tag_135:\n        /* \"#utility.yul\":7678:7684   */\n      0x00\n        /* \"#utility.yul\":7728:7729   */\n      0x08\n        /* \"#utility.yul\":7716:7726   */\n      dup4\n        /* \"#utility.yul\":7712:7730   */\n      mul\n        /* \"#utility.yul\":7751:7848   */\n      tag_222\n        /* \"#utility.yul\":7781:7847   */\n      0xffffffffffffffffffffffffffffffffffffffffffffffffffffffffffffffff\n        /* \"#utility.yul\":7770:7779   */\n      dup3\n        /* \"#utility.yul\":7751:7848   */\n      tag_134\n      jump\t// in\n    tag_222:\n        /* \"#utility.yul\":7869:7908   */\n      tag_223\n        /* \"#utility.yul\":7899:7907   */\n      dup7\n        /* \"#utility.yul\":7888:7897   */\n      dup4\n        /* \"#utility.yul\":7869:7908   */\n      tag_134\n      jump\t// in\n    tag_223:\n        /* \"#utility.yul\":7857:7908   */\n      swap6\n      pop\n        /* \"#utility.yul\":7941:7945   */\n      dup1\n        /* \"#utility.yul\":7937:7946   */\n      not\n        /* \"#utility.yul\":7930:7935   */\n      dup5\n        /* \"#utility.yul\":7926:7947   */\n      and\n        /* \"#utility.yul\":7917:7947   */\n      swap4\n      pop\n        /* \"#utility.yul\":7990:7994   */\n      dup1\n        /* \"#utility.yul\":7980:7988   */\n      dup7\n        /* \"#utility.yul\":7976:7995   */\n      and\n        /* \"#utility.yul\":7969:7974   */\n      dup5\n        /* \"#utility.yul\":7966:7996   */\n      or\n        /* \"#utility.yul\":7956:7996   */\n      swap3\n      pop\n        /* \"#utility.yul\":7685:8002   */\n      pop\n      pop\n        /* \"#utility.yul\":7609:8002   */\n      swap4\n      swap3\n      pop\n      pop\n      pop\n      jump\t// out\n        /* \"#utility.yul\":8008:8068   */\n    tag_136:\n        /* \"#utility.yul\":8036:8039   */\n      0x00\n        /* \"#utility.yul\":8057:8062   */\n      dup2\n        /* \"#utility.yul\":8050:8062   */\n      swap1\n      pop\n        /* \"#utility.yul\":8008:8068   */\n      swap2\n      swap1\n      pop\n      jump\t// out\n        /* \"#utility.yul\":8074:8216   */\n    tag_137:\n        /* \"#utility.yul\":8124:8133   */\n      0x00\n        /* \"#utility.yul\":8157:8210   */\n      tag_226\n        /* \"#utility.yul\":8175:8209   */\n      tag_227\n        /* \"#utility.yul\":8184:8208   */\n      tag_228\n        /* \"#utility.yul\":8202:8207   */\n      dup5\n        /* \"#utility.yul\":8184:8208   */\n      tag_118\n      jump\t// in\n    tag_228:\n        /* \"#utility.yul\":8175:8209   */\n      tag_136\n      jump\t// in\n    tag_227:\n        /* \"#utility.yul\":8157:8210   */\n      tag_118\n      jump\t// in\n    tag_226:\n        /* \"#utility.yul\":8144:8210   */\n      swap1\n      pop\n        /* \"#utility.yul\":8074:8216   */\n      swap2\n      swap1\n      pop\n      jump\t// out\n        /* \"#utility.yul\":8222:8297   */\n    tag_138:\n        /* \"#utility.yul\":8265:8268   */\n      0x00\n        /* \"#utility.yul\":8286:8291   */\n      dup2\n        /* \"#utility.yul\":8279:8291   */\n      swap1\n      pop\n        /* \"#utility.yul\":8222:8297   */\n      swap2\n      swap1\n      pop\n      jump\t// out\n        /* \"#utility.yul\":8303:8572   */\n    tag_139:\n        /* \"#utility.yul\":8413:8452   */\n      tag_231\n        /* \"#utility.yul\":8444:8451   */\n      dup4\n        /* \"#utility.yul\":8413:8452   */\n      tag_137\n      jump\t// in\n    tag_231:\n        /* \"#utility.yul\":8474:8565   */\n      tag_232\n        /* \"#utility.yul\":8523:8564   */\n      tag_233\n        /* \"#utility.yul\":8547:8563   */\n      dup3\n        /* \"#utility.yul\":8523:8564   */\n      tag_138\n      jump\t// in\n    tag_233:\n        /* \"#utility.yul\":8515:8521   */\n      dup5\n        /* \"#utility.yul\":8508:8512   */\n      dup5\n        /* \"#utility.yul\":8502:8513   */\n      sload\n        /* \"#utility.yul\":8474:8565   */\n      tag_135\n      jump\t// in\n    tag_232:\n        /* \"#utility.yul\":8468:8472   */\n      dup3\n        /* \"#utility.yul\":8461:8566   */\n      sstore\n        /* \"#utility.yul\":8379:8572   */\n      pop\n        /* \"#utility.yul\":8303:8572   */\n      pop\n      pop\n      pop\n      jump\t// out\n        /* \"#utility.yul\":8578:8651   */\n    tag_140:\n        /* \"#utility.yul\":8623:8626   */\n      0x00\n        /* \"#utility.yul\":8644:8645   */\n      0x00\n        /* \"#utility.yul\":8637:8645   */\n      swap1\n      pop\n        /* \"#utility.yul\":8578:8651   */\n      swap1\n      jump\t// out\n        /* \"#utility.yul\":8657:8846   */\n    tag_141:\n        /* \"#utility.yul\":8734:8766   */\n      tag_236\n      tag_140\n      jump\t// in\n    tag_236:\n        /* \"#utility.yul\":8775:8840   */\n      tag_237\n        /* \"#utility.yul\":8833:8839   */\n      dup2\n        /* \"#utility.yul\":8825:8831   */\n      dup5\n        /* \"#utility.yul\":8819:8823   */\n      dup5\n        /* \"#utility.yul\":8775:8840   */\n      tag_139\n      jump\t// in\n    tag_237:\n        /* \"#utility.yul\":8710:8846   */\n      pop\n        /* \"#utility.yul\":8657:8846   */\n      pop\n      pop\n      jump\t// out\n        /* \"#utility.yul\":8852:9038   */\n    tag_142:\n        /* \"#utility.yul\":8912:9032   */\n    tag_239:\n        /* \"#utility.yul\":8929:8932   */\n      dup2\n        /* \"#utility.yul\":8922:8927   */\n      dup2\n        /* \"#utility.yul\":8919:8933   */\n      lt\n        /* \"#utility.yul\":8912:9032   */\n      iszero\n      tag_241\n      jumpi\n        /* \"#utility.yul\":8983:9022   */\n      tag_242\n        /* \"#utility.yul\":9020:9021   */\n      0x00\n        /* \"#utility.yul\":9013:9018   */\n      dup3\n        /* \"#utility.yul\":8983:9022   */\n      tag_141\n      jump\t// in\n    tag_242:\n        /* \"#utility.yul\":8956:8957   */\n      0x01\n        /* \"#utility.yul\":8949:8954   */\n      dup2\n        /* \"#utility.yul\":8945:8958   */\n      add\n        /* \"#utility.yul\":8936:8958   */\n      swap1\n      pop\n        /* \"#utility.yul\":8912:9032   */\n      jump(tag_239)\n    tag_241:\n        /* \"#utility.yul\":8852:9038   */\n      pop\n      pop\n      jump\t// out\n        /* \"#utility.yul\":9044:9587   */\n    tag_143:\n        /* \"#utility.yul\":9145:9147   */\n      0x1f\n        /* \"#utility.yul\":9140:9143   */\n      dup3\n        /* \"#utility.yul\":9137:9148   */\n      gt\n        /* \"#utility.yul\":9134:9580   */\n      iszero\n      tag_244\n      jumpi\n        /* \"#utility.yul\":9179:9217   */\n      tag_245\n        /* \"#utility.yul\":9211:9216   */\n      dup2\n        /* \"#utility.yul\":9179:9217   */\n      tag_132\n      jump\t// in\n    tag_245:\n        /* \"#utility.yul\":9263:9292   */\n      tag_246\n        /* \"#utility.yul\":9281:9291   */\n      dup5\n        /* \"#utility.yul\":9263:9292   */\n      tag_133\n      jump\t// in\n    tag_246:\n        /* \"#utility.yul\":9253:9261   */\n      dup2\n        /* \"#utility.yul\":9249:9293   */\n      add\n        /* \"#utility.yul\":9446:9448   */\n      0x20\n        /* \"#utility.yul\":9434:9444   */\n      dup6\n        /* \"#utility.yul\":9431:9449   */\n      lt\n        /* \"#utility.yul\":9428:9477   */\n      iszero\n      tag_247\n      jumpi\n        /* \"#utility.yul\":9467:9475   */\n      dup2\n        /* \"#utility.yul\":9452:9475   */\n      swap1\n      pop\n        /* \"#utility.yul\":9428:9477   */\n    tag_247:\n        /* \"#utility.yul\":9490:9570   */\n      tag_248\n        /* \"#utility.yul\":9546:9568   */\n      tag_249\n        /* \"#utility.yul\":9564:9567   */\n      dup6\n        /* \"#utility.yul\":9546:9568   */\n      tag_133\n      jump\t// in\n    tag_249:\n        /* \"#utility.yul\":9536:9544   */\n      dup4\n        /* \"#utility.yul\":9532:9569   */\n      add\n        /* \"#utility.yul\":9519:9530   */\n      dup3\n        /* \"#utility.yul\":9490:9570   */\n      tag_142\n      jump\t// in\n    tag_248:\n        /* \"#utility.yul\":9149:9580   */\n      pop\n      pop\n        /* \"#utility.yul\":9134:9580   */\n    tag_244:\n        /* \"#utility.yul\":9044:9587   */\n      pop\n      pop\n      pop\n      jump\t// out\n        /* \"#utility.yul\":9593:9710   */\n    tag_144:\n        /* \"#utility.yul\":9647:9655   */\n      0x00\n        /* \"#utility.yul\":9697:9702   */\n      dup3\n        /* \"#utility.yul\":9691:9695   */\n      dup3\n        /* \"#utility.yul\":9687:9703   */\n      shr\n        /* \"#utility.yul\":9666:9703   */\n      swap1\n      pop\n        /* \"#utility.yul\":9593:9710   */\n      swap3\n      swap2\n      pop\n      pop\n      jump\t// out\n        /* \"#utility.yul\":9716:9885   */\n    tag_145:\n        /* \"#utility.yul\":9760:9766   */\n      0x00\n        /* \"#utility.yul\":9793:9844   */\n      tag_252\n        /* \"#utility.yul\":9841:9842   */\n      0x00\n        /* \"#utility.yul\":9837:9843   */\n      not\n        /* \"#utility.yul\":9829:9834   */\n      dup5\n        /* \"#utility.yul\":9826:9827   */\n      0x08\n        /* \"#utility.yul\":9822:9835   */\n      mul\n        /* \"#utility.yul\":9793:9844   */\n      tag_144\n      jump\t// in\n    tag_252:\n        /* \"#utility.yul\":9789:9845   */\n      not\n        /* \"#utility.yul\":9874:9878   */\n      dup1\n        /* \"#utility.yul\":9868:9872   */\n      dup4\n        /* \"#utility.yul\":9864:9879   */\n      and\n        /* \"#utility.yul\":9854:9879   */\n      swap2\n      pop\n        /* \"#utility.yul\":9767:9885   */\n      pop\n        /* \"#utility.yul\":9716:9885   */\n      swap3\n      swap2\n      pop\n      pop\n      jump\t// out\n        /* \"#utility.yul\":9890:10185   */\n    tag_146:\n        /* \"#utility.yul\":9966:9970   */\n      0x00\n        /* \"#utility.yul\":10112:10141   */\n      tag_254\n        /* \"#utility.yul\":10137:10140   */\n      dup4\n        /* \"#utility.yul\":10131:10135   */\n      dup4\n        /* \"#utility.yul\":10112:10141   */\n      tag_145\n      jump\t// in\n    tag_254:\n        /* \"#utility.yul\":10104:10141   */\n      swap2\n      pop\n        /* \"#utility.yul\":10174:10177   */\n      dup3\n        /* \"#utility.yul\":10171:10172   */\n      0x02\n        /* \"#utility.yul\":10167:10178   */\n      mul\n        /* \"#utility.yul\":10161:10165   */\n      dup3\n        /* \"#utility.yul\":10158:10179   */\n      or\n        /* \"#utility.yul\":10150:10179   */\n      swap1\n      pop\n        /* \"#utility.yul\":9890:10185   */\n      swap3\n      swap2\n      pop\n      pop\n      jump\t// out\n        /* \"#utility.yul\":10190:11585   */\n    tag_59:\n        /* \"#utility.yul\":10307:10344   */\n      tag_256\n        /* \"#utility.yul\":10340:10343   */\n      dup3\n        /* \"#utility.yul\":10307:10344   */\n      tag_113\n      jump\t// in\n    tag_256:\n        /* \"#utility.yul\":10409:10427   */\n      0xffffffffffffffff\n        /* \"#utility.yul\":10401:10407   */\n      dup2\n        /* \"#utility.yul\":10398:10428   */\n      gt\n        /* \"#utility.yul\":10395:10451   */\n      iszero\n      tag_257\n      jumpi\n        /* \"#utility.yul\":10431:10449   */\n      tag_258\n      tag_130\n      jump\t// in\n    tag_258:\n        /* \"#utility.yul\":10395:10451   */\n    tag_257:\n        /* \"#utility.yul\":10475:10513   */\n      tag_259\n        /* \"#utility.yul\":10507:10511   */\n      dup3\n        /* \"#utility.yul\":10501:10512   */\n      sload\n        /* \"#utility.yul\":10475:10513   */\n      tag_61\n      jump\t// in\n    tag_259:\n        /* \"#utility.yul\":10560:10627   */\n      tag_260\n        /* \"#utility.yul\":10620:10626   */\n      dup3\n        /* \"#utility.yul\":10612:10618   */\n      dup3\n        /* \"#utility.yul\":10606:10610   */\n      dup6\n        /* \"#utility.yul\":10560:10627   */\n      tag_143\n      jump\t// in\n    tag_260:\n        /* \"#utility.yul\":10654:10655   */\n      0x00\n        /* \"#utility.yul\":10678:10682   */\n      0x20\n        /* \"#utility.yul\":10665:10682   */\n      swap1\n      pop\n        /* \"#utility.yul\":10710:10712   */\n      0x1f\n        /* \"#utility.yul\":10702:10708   */\n      dup4\n        /* \"#utility.yul\":10699:10713   */\n      gt\n        /* \"#utility.yul\":10727:10728   */\n      0x01\n        /* \"#utility.yul\":10722:11340   */\n      dup2\n      eq\n      tag_262\n      jumpi\n        /* \"#utility.yul\":11384:11385   */\n      0x00\n        /* \"#utility.yul\":11401:11407   */\n      dup5\n        /* \"#utility.yul\":11398:11475   */\n      iszero\n      tag_263\n      jumpi\n        /* \"#utility.yul\":11450:11459   */\n      dup3\n        /* \"#utility.yul\":11445:11448   */\n      dup8\n        /* \"#utility.yul\":11441:11460   */\n      add\n        /* \"#utility.yul\":11435:11461   */\n      mload\n        /* \"#utility.yul\":11426:11461   */\n      swap1\n      pop\n        /* \"#utility.yul\":11398:11475   */\n    tag_263:\n        /* \"#utility.yul\":11501:11568   */\n      tag_264\n        /* \"#utility.yul\":11561:11567   */\n      dup6\n        /* \"#utility.yul\":11554:11559   */\n      dup3\n        /* \"#utility.yul\":11501:11568   */\n      tag_146\n      jump\t// in\n    tag_264:\n        /* \"#utility.yul\":11495:11499   */\n      dup7\n        /* \"#utility.yul\":11488:11569   */\n      sstore\n        /* \"#utility.yul\":11357:11579   */\n      pop\n        /* \"#utility.yul\":10692:11579   */\n      jump(tag_261)\n        /* \"#utility.yul\":10722:11340   */\n    tag_262:\n        /* \"#utility.yul\":10774:10778   */\n      0x1f\n        /* \"#utility.yul\":10770:10779   */\n      not\n        /* \"#utility.yul\":10762:10768   */\n      dup5\n        /* \"#utility.yul\":10758:10780   */\n      and\n        /* \"#utility.yul\":10808:10845   */\n      tag_265\n        /* \"#utility.yul\":10840:10844   */\n      dup7\n        /* \"#utility.yul\":10808:10845   */\n      tag_132\n      jump\t// in\n    tag_265:\n        /* \"#utility.yul\":10867:10868   */\n      0x00\n        /* \"#utility.yul\":10881:11089   */\n    tag_266:\n        /* \"#utility.yul\":10895:10902   */\n      dup3\n        /* \"#utility.yul\":10892:10893   */\n      dup2\n        /* \"#utility.yul\":10889:10903   */\n      lt\n        /* \"#utility.yul\":10881:11089   */\n      iszero\n      tag_268\n      jumpi\n        /* \"#utility.yul\":10974:10983   */\n      dup5\n        /* \"#utility.yul\":10969:10972   */\n      dup10\n        /* \"#utility.yul\":10965:10984   */\n      add\n        /* \"#utility.yul\":10959:10985   */\n      mload\n        /* \"#utility.yul\":10951:10957   */\n      dup3\n        /* \"#utility.yul\":10944:10986   */\n      sstore\n        /* \"#utility.yul\":11025:11026   */\n      0x01\n        /* \"#utility.yul\":11017:11023   */\n      dup3\n        /* \"#utility.yul\":11013:11027   */\n      add\n        /* \"#utility.yul\":11003:11027   */\n      swap2\n      pop\n        /* \"#utility.yul\":11072:11074   */\n      0x20\n        /* \"#utility.yul\":11061:11070   */\n      dup6\n        /* \"#utility.yul\":11057:11075   */\n      add\n        /* \"#utility.yul\":11044:11075   */\n      swap5\n      pop\n        /* \"#utility.yul\":10918:10922   */\n      0x20\n        /* \"#utility.yul\":10915:10916   */\n      dup2\n        /* \"#utility.yul\":10911:10923   */\n      add\n        /* \"#utility.yul\":10906:10923   */\n      swap1\n      pop\n        /* \"#utility.yul\":10881:11089   */\n      jump(tag_266)\n    tag_268:\n        /* \"#utility.yul\":11117:11123   */\n      dup7\n        /* \"#utility.yul\":11108:11115   */\n      dup4\n        /* \"#utility.yul\":11105:11124   */\n      lt\n        /* \"#utility.yul\":11102:11281   */\n      iszero\n      tag_269\n      jumpi\n        /* \"#utility.yul\":11175:11184   */\n      dup5\n        /* \"#utility.yul\":11170:11173   */\n      dup10\n        /* \"#utility.yul\":11166:11185   */\n      add\n        /* \"#utility.yul\":11160:11186   */\n      mload\n        /* \"#utility.yul\":11218:11266   */\n      tag_270\n        /* \"#utility.yul\":11260:11264   */\n      0x1f\n        /* \"#utility.yul\":11252:11258   */\n      dup10\n        /* \"#utility.yul\":11248:11265   */\n      and\n        /* \"#utility.yul\":11237:11246   */\n      dup3\n        /* \"#utility.yul\":11218:11266   */\n      tag_145\n      jump\t// in\n    tag_270:\n        /* \"#utility.yul\":11210:11216   */\n      dup4\n        /* \"#utility.yul\":11203:11267   */\n      sstore\n        /* \"#utility.yul\":11125:11281   */\n      pop\n        /* \"#utility.yul\":11102:11281   */\n    tag_269:\n        /* \"#utility.yul\":11327:11328   */\n      0x01\n        /* \"#utility.yul\":11323:11324   */\n      0x02\n        /* \"#utility.yul\":11315:11321   */\n      dup9\n        /* \"#utility.yul\":11311:11325   */\n      mul\n        /* \"#utility.yul\":11307:11329   */\n      add\n        /* \"#utility.yul\":11301:11305   */\n      dup9\n        /* \"#utility.yul\":11294:11330   */\n      sstore\n        /* \"#utility.yul\":10729:11340   */\n      pop\n      pop\n      pop\n        /* \"#utility.yul\":10692:11579   */\n    tag_261:\n      pop\n        /* \"#utility.yul\":10282:11585   */\n      pop\n      pop\n      pop\n        /* \"#utility.yul\":10190:11585   */\n      pop\n      pop\n      jump\t// out\n        /* \"#utility.yul\":11591:11749   */\n    tag_147:\n        /* \"#utility.yul\":11731:11741   */\n      0x44656c6976657264000000000000000000000000000000000000000000000000\n        /* \"#utility.yul\":11727:11728   */\n      0x00\n        /* \"#utility.yul\":11719:11725   */\n      dup3\n        /* \"#utility.yul\":11715:11729   */\n      add\n        /* \"#utility.yul\":11708:11742   */\n      mstore\n        /* \"#utility.yul\":11591:11749   */\n      pop\n      jump\t// out\n        /* \"#utility.yul\":11755:12120   */\n    tag_148:\n        /* \"#utility.yul\":11897:11900   */\n      0x00\n        /* \"#utility.yul\":11918:11984   */\n      tag_273\n        /* \"#utility.yul\":11982:11983   */\n      0x08\n        /* \"#utility.yul\":11977:11980   */\n      dup4\n        /* \"#utility.yul\":11918:11984   */\n      tag_114\n      jump\t// in\n    tag_273:\n        /* \"#utility.yul\":11911:11984   */\n      swap2\n      pop\n        /* \"#utility.yul\":11993:12086   */\n      tag_274\n        /* \"#utility.yul\":12082:12085   */\n      dup3\n        /* \"#utility.yul\":11993:12086   */\n      tag_147\n      jump\t// in\n    tag_274:\n        /* \"#utility.yul\":12111:12113   */\n      0x20\n        /* \"#utility.yul\":12106:12109   */\n      dup3\n        /* \"#utility.yul\":12102:12114   */\n      add\n        /* \"#utility.yul\":12095:12114   */\n      swap1\n      pop\n        /* \"#utility.yul\":11755:12120   */\n      swap2\n      swap1\n      pop\n      jump\t// out\n        /* \"#utility.yul\":12126:12545   */\n    tag_73:\n        /* \"#utility.yul\":12292:12296   */\n      0x00\n        /* \"#utility.yul\":12330:12332   */\n      0x20\n        /* \"#utility.yul\":12319:12328   */\n      dup3\n        /* \"#utility.yul\":12315:12333   */\n      add\n        /* \"#utility.yul\":12307:12333   */\n      swap1\n      pop\n        /* \"#utility.yul\":12379:12388   */\n      dup2\n        /* \"#utility.yul\":12373:12377   */\n      dup2\n        /* \"#utility.yul\":12369:12389   */\n      sub\n        /* \"#utility.yul\":12365:12366   */\n      0x00\n        /* \"#utility.yul\":12354:12363   */\n      dup4\n        /* \"#utility.yul\":12350:12367   */\n      add\n        /* \"#utility.yul\":12343:12390   */\n      mstore\n        /* \"#utility.yul\":12407:12538   */\n      tag_276\n        /* \"#utility.yul\":12533:12537   */\n      dup2\n        /* \"#utility.yul\":12407:12538   */\n      tag_148\n      jump\t// in\n    tag_276:\n        /* \"#utility.yul\":12399:12538   */\n      swap1\n      pop\n        /* \"#utility.yul\":12126:12545   */\n      swap2\n      swap1\n      pop\n      jump\t// out\n        /* \"#utility.yul\":12551:12708   */\n    tag_149:\n        /* \"#utility.yul\":12691:12700   */\n      0x70656e64696e6700000000000000000000000000000000000000000000000000\n        /* \"#utility.yul\":12687:12688   */\n      0x00\n        /* \"#utility.yul\":12679:12685   */\n      dup3\n        /* \"#utility.yul\":12675:12689   */\n      add\n        /* \"#utility.yul\":12668:12701   */\n      mstore\n        /* \"#utility.yul\":12551:12708   */\n      pop\n      jump\t// out\n        /* \"#utility.yul\":12714:13079   */\n    tag_150:\n        /* \"#utility.yul\":12856:12859   */\n      0x00\n        /* \"#utility.yul\":12877:12943   */\n      tag_279\n        /* \"#utility.yul\":12941:12942   */\n      0x07\n        /* \"#utility.yul\":12936:12939   */\n      dup4\n        /* \"#utility.yul\":12877:12943   */\n      tag_114\n      jump\t// in\n    tag_279:\n        /* \"#utility.yul\":12870:12943   */\n      swap2\n      pop\n        /* \"#utility.yul\":12952:13045   */\n      tag_280\n        /* \"#utility.yul\":13041:13044   */\n      dup3\n        /* \"#utility.yul\":12952:13045   */\n      tag_149\n      jump\t// in\n    tag_280:\n        /* \"#utility.yul\":13070:13072   */\n      0x20\n        /* \"#utility.yul\":13065:13068   */\n      dup3\n        /* \"#utility.yul\":13061:13073   */\n      add\n        /* \"#utility.yul\":13054:13073   */\n      swap1\n      pop\n        /* \"#utility.yul\":12714:13079   */\n      swap2\n      swap1\n      pop\n      jump\t// out\n        /* \"#utility.yul\":13085:13504   */\n    tag_82:\n        /* \"#utility.yul\":13251:13255   */\n      0x00\n        /* \"#utility.yul\":13289:13291   */\n      0x20\n        /* \"#utility.yul\":13278:13287   */\n      dup3\n        /* \"#utility.yul\":13274:13292   */\n      add\n        /* \"#utility.yul\":13266:13292   */\n      swap1\n      pop\n        /* \"#utility.yul\":13338:13347   */\n      dup2\n        /* \"#utility.yul\":13332:13336   */\n      dup2\n        /* \"#utility.yul\":13328:13348   */\n      sub\n        /* \"#utility.yul\":13324:13325   */\n      0x00\n        /* \"#utility.yul\":13313:13322   */\n      dup4\n        /* \"#utility.yul\":13309:13326   */\n      add\n        /* \"#utility.yul\":13302:13349   */\n      mstore\n        /* \"#utility.yul\":13366:13497   */\n      tag_282\n        /* \"#utility.yul\":13492:13496   */\n      dup2\n        /* \"#utility.yul\":13366:13497   */\n      tag_150\n      jump\t// in\n    tag_282:\n        /* \"#utility.yul\":13358:13497   */\n      swap1\n      pop\n        /* \"#utility.yul\":13085:13504   */\n      swap2\n      swap1\n      pop\n      jump\t// out\n        /* \"#utility.yul\":13510:13680   */\n    tag_151:\n        /* \"#utility.yul\":13650:13672   */\n      0x496e73756666696369656e742042616c616e6365000000000000000000000000\n        /* \"#utility.yul\":13646:13647   */\n      0x00\n        /* \"#utility.yul\":13638:13644   */\n      dup3\n        /* \"#utility.yul\":13634:13648   */\n      add\n        /* \"#utility.yul\":13627:13673   */\n      mstore\n        /* \"#utility.yul\":13510:13680   */\n      pop\n      jump\t// out\n        /* \"#utility.yul\":13686:14052   */\n    tag_152:\n        /* \"#utility.yul\":13828:13831   */\n      0x00\n        /* \"#utility.yul\":13849:13916   */\n      tag_285\n        /* \"#utility.yul\":13913:13915   */\n      0x14\n        /* \"#utility.yul\":13908:13911   */\n      dup4\n        /* \"#utility.yul\":13849:13916   */\n      tag_114\n      jump\t// in\n    tag_285:\n        /* \"#utility.yul\":13842:13916   */\n      swap2\n      pop\n        /* \"#utility.yul\":13925:14018   */\n      tag_286\n        /* \"#utility.yul\":14014:14017   */\n      dup3\n        /* \"#utility.yul\":13925:14018   */\n      tag_151\n      jump\t// in\n    tag_286:\n        /* \"#utility.yul\":14043:14045   */\n      0x20\n        /* \"#utility.yul\":14038:14041   */\n      dup3\n        /* \"#utility.yul\":14034:14046   */\n      add\n        /* \"#utility.yul\":14027:14046   */\n      swap1\n      pop\n        /* \"#utility.yul\":13686:14052   */\n      swap2\n      swap1\n      pop\n      jump\t// out\n        /* \"#utility.yul\":14058:14477   */\n    tag_95:\n        /* \"#utility.yul\":14224:14228   */\n      0x00\n        /* \"#utility.yul\":14262:14264   */\n      0x20\n        /* \"#utility.yul\":14251:14260   */\n      dup3\n        /* \"#utility.yul\":14247:14265   */\n      add\n        /* \"#utility.yul\":14239:14265   */\n      swap1\n      pop\n        /* \"#utility.yul\":14311:14320   */\n      dup2\n        /* \"#utility.yul\":14305:14309   */\n      dup2\n        /* \"#utility.yul\":14301:14321   */\n      sub\n        /* \"#utility.yul\":14297:14298   */\n      0x00\n        /* \"#utility.yul\":14286:14295   */\n      dup4\n        /* \"#utility.yul\":14282:14299   */\n      add\n        /* \"#utility.yul\":14275:14322   */\n      mstore\n        /* \"#utility.yul\":14339:14470   */\n      tag_288\n        /* \"#utility.yul\":14465:14469   */\n      dup2\n        /* \"#utility.yul\":14339:14470   */\n      tag_152\n      jump\t// in\n    tag_288:\n        /* \"#utility.yul\":14331:14470   */\n      swap1\n      pop\n        /* \"#utility.yul\":14058:14477   */\n      swap2\n      swap1\n      pop\n      jump\t// out\n    stop\n    data_96dfabbf07d0c6a780e51fb0d2039d68e0c52ce84c414db1c1d50292fb2d54f7 4f7264657220486173204265656e20506c61636564205375636365737366756c6c79\n\n    auxdata: 0xa264697066735822122024a142f14be2e4efd4e76237e3ad474d95a392be379b0d8ff39e756ee0e63aa564736f6c634300081c0033\n}\n",
				"bytecode": {
					"linkReferences": {},
					"object": "60806040526040518060400160405280600781526020017f57656c636f6d65000000000000000000000000000000000000000000000000008152506003908161004891906102d6565b50348015610054575f5ffd5b50335f5f6101000a81548173ffffffffffffffffffffffffffffffffffffffff021916908373ffffffffffffffffffffffffffffffffffffffff1602179055506103a5565b5f81519050919050565b7f4e487b71000000000000000000000000000000000000000000000000000000005f52604160045260245ffd5b7f4e487b71000000000000000000000000000000000000000000000000000000005f52602260045260245ffd5b5f600282049050600182168061011457607f821691505b602082108103610127576101266100d0565b5b50919050565b5f819050815f5260205f209050919050565b5f6020601f8301049050919050565b5f82821b905092915050565b5f600883026101897fffffffffffffffffffffffffffffffffffffffffffffffffffffffffffffffff8261014e565b610193868361014e565b95508019841693508086168417925050509392505050565b5f819050919050565b5f819050919050565b5f6101d76101d26101cd846101ab565b6101b4565b6101ab565b9050919050565b5f819050919050565b6101f0836101bd565b6102046101fc826101de565b84845461015a565b825550505050565b5f5f905090565b61021b61020c565b6102268184846101e7565b505050565b5b818110156102495761023e5f82610213565b60018101905061022c565b5050565b601f82111561028e5761025f8161012d565b6102688461013f565b81016020851015610277578190505b61028b6102838561013f565b83018261022b565b50505b505050565b5f82821c905092915050565b5f6102ae5f1984600802610293565b1980831691505092915050565b5f6102c6838361029f565b9150826002028217905092915050565b6102df82610099565b67ffffffffffffffff8111156102f8576102f76100a3565b5b61030282546100fd565b61030d82828561024d565b5f60209050601f83116001811461033e575f841561032c578287015190505b61033685826102bb565b86555061039d565b601f19841661034c8661012d565b5f5b828110156103735784890151825560018201915060208501945060208101905061034e565b86831015610390578489015161038c601f89168261029f565b8355505b6001600288020188555050505b505050505050565b610fb0806103b25f395ff3fe608060405260043610610054575f3560e01c80636df427bc14610058578063aa8c217c14610094578063adc80562146100be578063c2133136146100e6578063e21f37ce14610110578063f15820ff1461013a575b5f5ffd5b348015610063575f5ffd5b5061007e60048036038101906100799190610851565b610144565b60405161008b91906108ec565b60405180910390f35b34801561009f575f5ffd5b506100a8610604565b6040516100b59190610924565b60405180910390f35b3480156100c9575f5ffd5b506100e460048036038101906100df9190610997565b61060a565b005b3480156100f1575f5ffd5b506100fa61078c565b6040516101079190610924565b60405180910390f35b34801561011b575f5ffd5b5061012461079c565b60405161013191906108ec565b60405180910390f35b610142610828565b005b60603373ffffffffffffffffffffffffffffffffffffffff165f5f9054906101000a900473ffffffffffffffffffffffffffffffffffffffff1673ffffffffffffffffffffffffffffffffffffffff16146101d4576040517f08c379a00000000000000000000000000000000000000000000000000000000081526004016101cb90610a0c565b60405180910390fd5b6003808111156101e7576101e6610a2a565b5b60045f9054906101000a900460ff16600381111561020857610207610a2a565b5b1115610249576040517f08c379a000000000000000000000000000000000000000000000000000000000815260040161024090610aa1565b60405180910390fd5b8160045f6101000a81548160ff0219169083600381111561026d5761026c610a2a565b5b02179055506002600381111561028657610285610a2a565b5b60045f9054906101000a900460ff1660038111156102a7576102a6610a2a565b5b036103b6577fe18822188b13ea789744bb656325800d3b5025b3d956e508917ed2a260b33a8d6040516102d990610b09565b60405180910390a16040518060400160405280600781526020017f5368697070656400000000000000000000000000000000000000000000000000815250600390816103259190610d51565b506003805461033390610b81565b80601f016020809104026020016040519081016040528092919081815260200182805461035f90610b81565b80156103aa5780601f10610381576101008083540402835291602001916103aa565b820191905f5260205f20905b81548152906001019060200180831161038d57829003601f168201915b505050505090506105ff565b6003808111156103c9576103c8610a2a565b5b60045f9054906101000a900460ff1660038111156103ea576103e9610a2a565b5b036104f9577fe18822188b13ea789744bb656325800d3b5025b3d956e508917ed2a260b33a8d60405161041c90610e6a565b60405180910390a16040518060400160405280600981526020017f44656c6976657265640000000000000000000000000000000000000000000000815250600390816104689190610d51565b506003805461047690610b81565b80601f01602080910402602001604051908101604052809291908181526020018280546104a290610b81565b80156104ed5780601f106104c4576101008083540402835291602001916104ed565b820191905f5260205f20905b8154815290600101906020018083116104d057829003601f168201915b505050505090506105ff565b7fe18822188b13ea789744bb656325800d3b5025b3d956e508917ed2a260b33a8d60405161052690610ed2565b60405180910390a16040518060400160405280600781526020017f70656e64696e6700000000000000000000000000000000000000000000000000815250600390816105729190610d51565b506003805461058090610b81565b80601f01602080910402602001604051908101604052809291908181526020018280546105ac90610b81565b80156105f75780601f106105ce576101008083540402835291602001916105f7565b820191905f5260205f20905b8154815290600101906020018083116105da57829003601f168201915b505050505090505b919050565b60025481565b3373ffffffffffffffffffffffffffffffffffffffff165f5f9054906101000a900473ffffffffffffffffffffffffffffffffffffffff1673ffffffffffffffffffffffffffffffffffffffff1614610698576040517f08c379a000000000000000000000000000000000000000000000000000000000815260040161068f90610a0c565b60405180910390fd5b670de0b6b3a764000060025410156106e5576040517f08c379a00000000000000000000000000000000000000000000000000000000081526004016106dc90610f3a565b60405180910390fd5b670de0b6b3a764000060025410610789578060015f6101000a81548173ffffffffffffffffffffffffffffffffffffffff021916908373ffffffffffffffffffffffffffffffffffffffff160217905550600160045f6101000a81548160ff0219169083600381111561075b5761075a610a2a565b5b0217905550604051806060016040528060228152602001610f5960229139600390816107879190610d51565b505b50565b5f47600281905550600254905090565b600380546107a990610b81565b80601f01602080910402602001604051908101604052809291908181526020018280546107d590610b81565b80156108205780601f106107f757610100808354040283529160200191610820565b820191905f5260205f20905b81548152906001019060200180831161080357829003601f168201915b505050505081565b565b5f5ffd5b6004811061083a575f5ffd5b50565b5f8135905061084b8161082e565b92915050565b5f602082840312156108665761086561082a565b5b5f6108738482850161083d565b91505092915050565b5f81519050919050565b5f82825260208201905092915050565b8281835e5f83830152505050565b5f601f19601f8301169050919050565b5f6108be8261087c565b6108c88185610886565b93506108d8818560208601610896565b6108e1816108a4565b840191505092915050565b5f6020820190508181035f83015261090481846108b4565b905092915050565b5f819050919050565b61091e8161090c565b82525050565b5f6020820190506109375f830184610915565b92915050565b5f73ffffffffffffffffffffffffffffffffffffffff82169050919050565b5f6109668261093d565b9050919050565b6109768161095c565b8114610980575f5ffd5b50565b5f813590506109918161096d565b92915050565b5f602082840312156109ac576109ab61082a565b5b5f6109b984828501610983565b91505092915050565b7f4e6f74204f776e657200000000000000000000000000000000000000000000005f82015250565b5f6109f6600983610886565b9150610a01826109c2565b602082019050919050565b5f6020820190508181035f830152610a23816109ea565b9050919050565b7f4e487b71000000000000000000000000000000000000000000000000000000005f52602160045260245ffd5b7f416c72656164792044656c6976657265640000000000000000000000000000005f82015250565b5f610a8b601183610886565b9150610a9682610a57565b602082019050919050565b5f6020820190508181035f830152610ab881610a7f565b9050919050565b7f53686970706564000000000000000000000000000000000000000000000000005f82015250565b5f610af3600783610886565b9150610afe82610abf565b602082019050919050565b5f6020820190508181035f830152610b2081610ae7565b9050919050565b7f4e487b71000000000000000000000000000000000000000000000000000000005f52604160045260245ffd5b7f4e487b71000000000000000000000000000000000000000000000000000000005f52602260045260245ffd5b5f6002820490506001821680610b9857607f821691505b602082108103610bab57610baa610b54565b5b50919050565b5f819050815f5260205f209050919050565b5f6020601f8301049050919050565b5f82821b905092915050565b5f60088302610c0d7fffffffffffffffffffffffffffffffffffffffffffffffffffffffffffffffff82610bd2565b610c178683610bd2565b95508019841693508086168417925050509392505050565b5f819050919050565b5f610c52610c4d610c488461090c565b610c2f565b61090c565b9050919050565b5f819050919050565b610c6b83610c38565b610c7f610c7782610c59565b848454610bde565b825550505050565b5f5f905090565b610c96610c87565b610ca1818484610c62565b505050565b5b81811015610cc457610cb95f82610c8e565b600181019050610ca7565b5050565b601f821115610d0957610cda81610bb1565b610ce384610bc3565b81016020851015610cf2578190505b610d06610cfe85610bc3565b830182610ca6565b50505b505050565b5f82821c905092915050565b5f610d295f1984600802610d0e565b1980831691505092915050565b5f610d418383610d1a565b9150826002028217905092915050565b610d5a8261087c565b67ffffffffffffffff811115610d7357610d72610b27565b5b610d7d8254610b81565b610d88828285610cc8565b5f60209050601f831160018114610db9575f8415610da7578287015190505b610db18582610d36565b865550610e18565b601f198416610dc786610bb1565b5f5b82811015610dee57848901518255600182019150602085019450602081019050610dc9565b86831015610e0b5784890151610e07601f891682610d1a565b8355505b6001600288020188555050505b505050505050565b7f44656c69766572640000000000000000000000000000000000000000000000005f82015250565b5f610e54600883610886565b9150610e5f82610e20565b602082019050919050565b5f6020820190508181035f830152610e8181610e48565b9050919050565b7f70656e64696e67000000000000000000000000000000000000000000000000005f82015250565b5f610ebc600783610886565b9150610ec782610e88565b602082019050919050565b5f6020820190508181035f830152610ee981610eb0565b9050919050565b7f496e73756666696369656e742042616c616e63650000000000000000000000005f82015250565b5f610f24601483610886565b9150610f2f82610ef0565b602082019050919050565b5f6020820190508181035f830152610f5181610f18565b905091905056fe4f7264657220486173204265656e20506c61636564205375636365737366756c6c79a264697066735822122024a142f14be2e4efd4e76237e3ad474d95a392be379b0d8ff39e756ee0e63aa564736f6c634300081c0033",
					"opcodes": "PUSH1 0x80 PUSH1 0x40 MSTORE PUSH1 0x40 MLOAD DUP1 PUSH1 0x40 ADD PUSH1 0x40 MSTORE DUP1 PUSH1 0x7 DUP2 MSTORE PUSH1 0x20 ADD PUSH32 0x57656C636F6D6500000000000000000000000000000000000000000000000000 DUP2 MSTORE POP PUSH1 0x3 SWAP1 DUP2 PUSH2 0x48 SWAP2 SWAP1 PUSH2 0x2D6 JUMP JUMPDEST POP CALLVALUE DUP1 ISZERO PUSH2 0x54 JUMPI PUSH0 PUSH0 REVERT JUMPDEST POP CALLER PUSH0 PUSH0 PUSH2 0x100 EXP DUP2 SLOAD DUP2 PUSH20 0xFFFFFFFFFFFFFFFFFFFFFFFFFFFFFFFFFFFFFFFF MUL NOT AND SWAP1 DUP4 PUSH20 0xFFFFFFFFFFFFFFFFFFFFFFFFFFFFFFFFFFFFFFFF AND MUL OR SWAP1 SSTORE POP PUSH2 0x3A5 JUMP JUMPDEST PUSH0 DUP2 MLOAD SWAP1 POP SWAP2 SWAP1 POP JUMP JUMPDEST PUSH32 0x4E487B7100000000000000000000000000000000000000000000000000000000 PUSH0 MSTORE PUSH1 0x41 PUSH1 0x4 MSTORE PUSH1 0x24 PUSH0 REVERT JUMPDEST PUSH32 0x4E487B7100000000000000000000000000000000000000000000000000000000 PUSH0 MSTORE PUSH1 0x22 PUSH1 0x4 MSTORE PUSH1 0x24 PUSH0 REVERT JUMPDEST PUSH0 PUSH1 0x2 DUP3 DIV SWAP1 POP PUSH1 0x1 DUP3 AND DUP1 PUSH2 0x114 JUMPI PUSH1 0x7F DUP3 AND SWAP2 POP JUMPDEST PUSH1 0x20 DUP3 LT DUP2 SUB PUSH2 0x127 JUMPI PUSH2 0x126 PUSH2 0xD0 JUMP JUMPDEST JUMPDEST POP SWAP2 SWAP1 POP JUMP JUMPDEST PUSH0 DUP2 SWAP1 POP DUP2 PUSH0 MSTORE PUSH1 0x20 PUSH0 KECCAK256 SWAP1 POP SWAP2 SWAP1 POP JUMP JUMPDEST PUSH0 PUSH1 0x20 PUSH1 0x1F DUP4 ADD DIV SWAP1 POP SWAP2 SWAP1 POP JUMP JUMPDEST PUSH0 DUP3 DUP3 SHL SWAP1 POP SWAP3 SWAP2 POP POP JUMP JUMPDEST PUSH0 PUSH1 0x8 DUP4 MUL PUSH2 0x189 PUSH32 0xFFFFFFFFFFFFFFFFFFFFFFFFFFFFFFFFFFFFFFFFFFFFFFFFFFFFFFFFFFFFFFFF DUP3 PUSH2 0x14E JUMP JUMPDEST PUSH2 0x193 DUP7 DUP4 PUSH2 0x14E JUMP JUMPDEST SWAP6 POP DUP1 NOT DUP5 AND SWAP4 POP DUP1 DUP7 AND DUP5 OR SWAP3 POP POP POP SWAP4 SWAP3 POP POP POP JUMP JUMPDEST PUSH0 DUP2 SWAP1 POP SWAP2 SWAP1 POP JUMP JUMPDEST PUSH0 DUP2 SWAP1 POP SWAP2 SWAP1 POP JUMP JUMPDEST PUSH0 PUSH2 0x1D7 PUSH2 0x1D2 PUSH2 0x1CD DUP5 PUSH2 0x1AB JUMP JUMPDEST PUSH2 0x1B4 JUMP JUMPDEST PUSH2 0x1AB JUMP JUMPDEST SWAP1 POP SWAP2 SWAP1 POP JUMP JUMPDEST PUSH0 DUP2 SWAP1 POP SWAP2 SWAP1 POP JUMP JUMPDEST PUSH2 0x1F0 DUP4 PUSH2 0x1BD JUMP JUMPDEST PUSH2 0x204 PUSH2 0x1FC DUP3 PUSH2 0x1DE JUMP JUMPDEST DUP5 DUP5 SLOAD PUSH2 0x15A JUMP JUMPDEST DUP3 SSTORE POP POP POP POP JUMP JUMPDEST PUSH0 PUSH0 SWAP1 POP SWAP1 JUMP JUMPDEST PUSH2 0x21B PUSH2 0x20C JUMP JUMPDEST PUSH2 0x226 DUP2 DUP5 DUP5 PUSH2 0x1E7 JUMP JUMPDEST POP POP POP JUMP JUMPDEST JUMPDEST DUP2 DUP2 LT ISZERO PUSH2 0x249 JUMPI PUSH2 0x23E PUSH0 DUP3 PUSH2 0x213 JUMP JUMPDEST PUSH1 0x1 DUP2 ADD SWAP1 POP PUSH2 0x22C JUMP JUMPDEST POP POP JUMP JUMPDEST PUSH1 0x1F DUP3 GT ISZERO PUSH2 0x28E JUMPI PUSH2 0x25F DUP2 PUSH2 0x12D JUMP JUMPDEST PUSH2 0x268 DUP5 PUSH2 0x13F JUMP JUMPDEST DUP2 ADD PUSH1 0x20 DUP6 LT ISZERO PUSH2 0x277 JUMPI DUP2 SWAP1 POP JUMPDEST PUSH2 0x28B PUSH2 0x283 DUP6 PUSH2 0x13F JUMP JUMPDEST DUP4 ADD DUP3 PUSH2 0x22B JUMP JUMPDEST POP POP JUMPDEST POP POP POP JUMP JUMPDEST PUSH0 DUP3 DUP3 SHR SWAP1 POP SWAP3 SWAP2 POP POP JUMP JUMPDEST PUSH0 PUSH2 0x2AE PUSH0 NOT DUP5 PUSH1 0x8 MUL PUSH2 0x293 JUMP JUMPDEST NOT DUP1 DUP4 AND SWAP2 POP POP SWAP3 SWAP2 POP POP JUMP JUMPDEST PUSH0 PUSH2 0x2C6 DUP4 DUP4 PUSH2 0x29F JUMP JUMPDEST SWAP2 POP DUP3 PUSH1 0x2 MUL DUP3 OR SWAP1 POP SWAP3 SWAP2 POP POP JUMP JUMPDEST PUSH2 0x2DF DUP3 PUSH2 0x99 JUMP JUMPDEST PUSH8 0xFFFFFFFFFFFFFFFF DUP2 GT ISZERO PUSH2 0x2F8 JUMPI PUSH2 0x2F7 PUSH2 0xA3 JUMP JUMPDEST JUMPDEST PUSH2 0x302 DUP3 SLOAD PUSH2 0xFD JUMP JUMPDEST PUSH2 0x30D DUP3 DUP3 DUP6 PUSH2 0x24D JUMP JUMPDEST PUSH0 PUSH1 0x20 SWAP1 POP PUSH1 0x1F DUP4 GT PUSH1 0x1 DUP2 EQ PUSH2 0x33E JUMPI PUSH0 DUP5 ISZERO PUSH2 0x32C JUMPI DUP3 DUP8 ADD MLOAD SWAP1 POP JUMPDEST PUSH2 0x336 DUP6 DUP3 PUSH2 0x2BB JUMP JUMPDEST DUP7 SSTORE POP PUSH2 0x39D JUMP JUMPDEST PUSH1 0x1F NOT DUP5 AND PUSH2 0x34C DUP7 PUSH2 0x12D JUMP JUMPDEST PUSH0 JUMPDEST DUP3 DUP2 LT ISZERO PUSH2 0x373 JUMPI DUP5 DUP10 ADD MLOAD DUP3 SSTORE PUSH1 0x1 DUP3 ADD SWAP2 POP PUSH1 0x20 DUP6 ADD SWAP5 POP PUSH1 0x20 DUP2 ADD SWAP1 POP PUSH2 0x34E JUMP JUMPDEST DUP7 DUP4 LT ISZERO PUSH2 0x390 JUMPI DUP5 DUP10 ADD MLOAD PUSH2 0x38C PUSH1 0x1F DUP10 AND DUP3 PUSH2 0x29F JUMP JUMPDEST DUP4 SSTORE POP JUMPDEST PUSH1 0x1 PUSH1 0x2 DUP9 MUL ADD DUP9 SSTORE POP POP POP JUMPDEST POP POP POP POP POP POP JUMP JUMPDEST PUSH2 0xFB0 DUP1 PUSH2 0x3B2 PUSH0 CODECOPY PUSH0 RETURN INVALID PUSH1 0x80 PUSH1 0x40 MSTORE PUSH1 0x4 CALLDATASIZE LT PUSH2 0x54 JUMPI PUSH0 CALLDATALOAD PUSH1 0xE0 SHR DUP1 PUSH4 0x6DF427BC EQ PUSH2 0x58 JUMPI DUP1 PUSH4 0xAA8C217C EQ PUSH2 0x94 JUMPI DUP1 PUSH4 0xADC80562 EQ PUSH2 0xBE JUMPI DUP1 PUSH4 0xC2133136 EQ PUSH2 0xE6 JUMPI DUP1 PUSH4 0xE21F37CE EQ PUSH2 0x110 JUMPI DUP1 PUSH4 0xF15820FF EQ PUSH2 0x13A JUMPI JUMPDEST PUSH0 PUSH0 REVERT JUMPDEST CALLVALUE DUP1 ISZERO PUSH2 0x63 JUMPI PUSH0 PUSH0 REVERT JUMPDEST POP PUSH2 0x7E PUSH1 0x4 DUP1 CALLDATASIZE SUB DUP2 ADD SWAP1 PUSH2 0x79 SWAP2 SWAP1 PUSH2 0x851 JUMP JUMPDEST PUSH2 0x144 JUMP JUMPDEST PUSH1 0x40 MLOAD PUSH2 0x8B SWAP2 SWAP1 PUSH2 0x8EC JUMP JUMPDEST PUSH1 0x40 MLOAD DUP1 SWAP2 SUB SWAP1 RETURN JUMPDEST CALLVALUE DUP1 ISZERO PUSH2 0x9F JUMPI PUSH0 PUSH0 REVERT JUMPDEST POP PUSH2 0xA8 PUSH2 0x604 JUMP JUMPDEST PUSH1 0x40 MLOAD PUSH2 0xB5 SWAP2 SWAP1 PUSH2 0x924 JUMP JUMPDEST PUSH1 0x40 MLOAD DUP1 SWAP2 SUB SWAP1 RETURN JUMPDEST CALLVALUE DUP1 ISZERO PUSH2 0xC9 JUMPI PUSH0 PUSH0 REVERT JUMPDEST POP PUSH2 0xE4 PUSH1 0x4 DUP1 CALLDATASIZE SUB DUP2 ADD SWAP1 PUSH2 0xDF SWAP2 SWAP1 PUSH2 0x997 JUMP JUMPDEST PUSH2 0x60A JUMP JUMPDEST STOP JUMPDEST CALLVALUE DUP1 ISZERO PUSH2 0xF1 JUMPI PUSH0 PUSH0 REVERT JUMPDEST POP PUSH2 0xFA PUSH2 0x78C JUMP JUMPDEST PUSH1 0x40 MLOAD PUSH2 0x107 SWAP2 SWAP1 PUSH2 0x924 JUMP JUMPDEST PUSH1 0x40 MLOAD DUP1 SWAP2 SUB SWAP1 RETURN JUMPDEST CALLVALUE DUP1 ISZERO PUSH2 0x11B JUMPI PUSH0 PUSH0 REVERT JUMPDEST POP PUSH2 0x124 PUSH2 0x79C JUMP JUMPDEST PUSH1 0x40 MLOAD PUSH2 0x131 SWAP2 SWAP1 PUSH2 0x8EC JUMP JUMPDEST PUSH1 0x40 MLOAD DUP1 SWAP2 SUB SWAP1 RETURN JUMPDEST PUSH2 0x142 PUSH2 0x828 JUMP JUMPDEST STOP JUMPDEST PUSH1 0x60 CALLER PUSH20 0xFFFFFFFFFFFFFFFFFFFFFFFFFFFFFFFFFFFFFFFF AND PUSH0 PUSH0 SWAP1 SLOAD SWAP1 PUSH2 0x100 EXP SWAP1 DIV PUSH20 0xFFFFFFFFFFFFFFFFFFFFFFFFFFFFFFFFFFFFFFFF AND PUSH20 0xFFFFFFFFFFFFFFFFFFFFFFFFFFFFFFFFFFFFFFFF AND EQ PUSH2 0x1D4 JUMPI PUSH1 0x40 MLOAD PUSH32 0x8C379A000000000000000000000000000000000000000000000000000000000 DUP2 MSTORE PUSH1 0x4 ADD PUSH2 0x1CB SWAP1 PUSH2 0xA0C JUMP JUMPDEST PUSH1 0x40 MLOAD DUP1 SWAP2 SUB SWAP1 REVERT JUMPDEST PUSH1 0x3 DUP1 DUP2 GT ISZERO PUSH2 0x1E7 JUMPI PUSH2 0x1E6 PUSH2 0xA2A JUMP JUMPDEST JUMPDEST PUSH1 0x4 PUSH0 SWAP1 SLOAD SWAP1 PUSH2 0x100 EXP SWAP1 DIV PUSH1 0xFF AND PUSH1 0x3 DUP2 GT ISZERO PUSH2 0x208 JUMPI PUSH2 0x207 PUSH2 0xA2A JUMP JUMPDEST JUMPDEST GT ISZERO PUSH2 0x249 JUMPI PUSH1 0x40 MLOAD PUSH32 0x8C379A000000000000000000000000000000000000000000000000000000000 DUP2 MSTORE PUSH1 0x4 ADD PUSH2 0x240 SWAP1 PUSH2 0xAA1 JUMP JUMPDEST PUSH1 0x40 MLOAD DUP1 SWAP2 SUB SWAP1 REVERT JUMPDEST DUP2 PUSH1 0x4 PUSH0 PUSH2 0x100 EXP DUP2 SLOAD DUP2 PUSH1 0xFF MUL NOT AND SWAP1 DUP4 PUSH1 0x3 DUP2 GT ISZERO PUSH2 0x26D JUMPI PUSH2 0x26C PUSH2 0xA2A JUMP JUMPDEST JUMPDEST MUL OR SWAP1 SSTORE POP PUSH1 0x2 PUSH1 0x3 DUP2 GT ISZERO PUSH2 0x286 JUMPI PUSH2 0x285 PUSH2 0xA2A JUMP JUMPDEST JUMPDEST PUSH1 0x4 PUSH0 SWAP1 SLOAD SWAP1 PUSH2 0x100 EXP SWAP1 DIV PUSH1 0xFF AND PUSH1 0x3 DUP2 GT ISZERO PUSH2 0x2A7 JUMPI PUSH2 0x2A6 PUSH2 0xA2A JUMP JUMPDEST JUMPDEST SUB PUSH2 0x3B6 JUMPI PUSH32 0xE18822188B13EA789744BB656325800D3B5025B3D956E508917ED2A260B33A8D PUSH1 0x40 MLOAD PUSH2 0x2D9 SWAP1 PUSH2 0xB09 JUMP JUMPDEST PUSH1 0x40 MLOAD DUP1 SWAP2 SUB SWAP1 LOG1 PUSH1 0x40 MLOAD DUP1 PUSH1 0x40 ADD PUSH1 0x40 MSTORE DUP1 PUSH1 0x7 DUP2 MSTORE PUSH1 0x20 ADD PUSH32 0x5368697070656400000000000000000000000000000000000000000000000000 DUP2 MSTORE POP PUSH1 0x3 SWAP1 DUP2 PUSH2 0x325 SWAP2 SWAP1 PUSH2 0xD51 JUMP JUMPDEST POP PUSH1 0x3 DUP1 SLOAD PUSH2 0x333 SWAP1 PUSH2 0xB81 JUMP JUMPDEST DUP1 PUSH1 0x1F ADD PUSH1 0x20 DUP1 SWAP2 DIV MUL PUSH1 0x20 ADD PUSH1 0x40 MLOAD SWAP1 DUP2 ADD PUSH1 0x40 MSTORE DUP1 SWAP3 SWAP2 SWAP1 DUP2 DUP2 MSTORE PUSH1 0x20 ADD DUP3 DUP1 SLOAD PUSH2 0x35F SWAP1 PUSH2 0xB81 JUMP JUMPDEST DUP1 ISZERO PUSH2 0x3AA JUMPI DUP1 PUSH1 0x1F LT PUSH2 0x381 JUMPI PUSH2 0x100 DUP1 DUP4 SLOAD DIV MUL DUP4 MSTORE SWAP2 PUSH1 0x20 ADD SWAP2 PUSH2 0x3AA JUMP JUMPDEST DUP3 ADD SWAP2 SWAP1 PUSH0 MSTORE PUSH1 0x20 PUSH0 KECCAK256 SWAP1 JUMPDEST DUP2 SLOAD DUP2 MSTORE SWAP1 PUSH1 0x1 ADD SWAP1 PUSH1 0x20 ADD DUP1 DUP4 GT PUSH2 0x38D JUMPI DUP3 SWAP1 SUB PUSH1 0x1F AND DUP3 ADD SWAP2 JUMPDEST POP POP POP POP POP SWAP1 POP PUSH2 0x5FF JUMP JUMPDEST PUSH1 0x3 DUP1 DUP2 GT ISZERO PUSH2 0x3C9 JUMPI PUSH2 0x3C8 PUSH2 0xA2A JUMP JUMPDEST JUMPDEST PUSH1 0x4 PUSH0 SWAP1 SLOAD SWAP1 PUSH2 0x100 EXP SWAP1 DIV PUSH1 0xFF AND PUSH1 0x3 DUP2 GT ISZERO PUSH2 0x3EA JUMPI PUSH2 0x3E9 PUSH2 0xA2A JUMP JUMPDEST JUMPDEST SUB PUSH2 0x4F9 JUMPI PUSH32 0xE18822188B13EA789744BB656325800D3B5025B3D956E508917ED2A260B33A8D PUSH1 0x40 MLOAD PUSH2 0x41C SWAP1 PUSH2 0xE6A JUMP JUMPDEST PUSH1 0x40 MLOAD DUP1 SWAP2 SUB SWAP1 LOG1 PUSH1 0x40 MLOAD DUP1 PUSH1 0x40 ADD PUSH1 0x40 MSTORE DUP1 PUSH1 0x9 DUP2 MSTORE PUSH1 0x20 ADD PUSH32 0x44656C6976657265640000000000000000000000000000000000000000000000 DUP2 MSTORE POP PUSH1 0x3 SWAP1 DUP2 PUSH2 0x468 SWAP2 SWAP1 PUSH2 0xD51 JUMP JUMPDEST POP PUSH1 0x3 DUP1 SLOAD PUSH2 0x476 SWAP1 PUSH2 0xB81 JUMP JUMPDEST DUP1 PUSH1 0x1F ADD PUSH1 0x20 DUP1 SWAP2 DIV MUL PUSH1 0x20 ADD PUSH1 0x40 MLOAD SWAP1 DUP2 ADD PUSH1 0x40 MSTORE DUP1 SWAP3 SWAP2 SWAP1 DUP2 DUP2 MSTORE PUSH1 0x20 ADD DUP3 DUP1 SLOAD PUSH2 0x4A2 SWAP1 PUSH2 0xB81 JUMP JUMPDEST DUP1 ISZERO PUSH2 0x4ED JUMPI DUP1 PUSH1 0x1F LT PUSH2 0x4C4 JUMPI PUSH2 0x100 DUP1 DUP4 SLOAD DIV MUL DUP4 MSTORE SWAP2 PUSH1 0x20 ADD SWAP2 PUSH2 0x4ED JUMP JUMPDEST DUP3 ADD SWAP2 SWAP1 PUSH0 MSTORE PUSH1 0x20 PUSH0 KECCAK256 SWAP1 JUMPDEST DUP2 SLOAD DUP2 MSTORE SWAP1 PUSH1 0x1 ADD SWAP1 PUSH1 0x20 ADD DUP1 DUP4 GT PUSH2 0x4D0 JUMPI DUP3 SWAP1 SUB PUSH1 0x1F AND DUP3 ADD SWAP2 JUMPDEST POP POP POP POP POP SWAP1 POP PUSH2 0x5FF JUMP JUMPDEST PUSH32 0xE18822188B13EA789744BB656325800D3B5025B3D956E508917ED2A260B33A8D PUSH1 0x40 MLOAD PUSH2 0x526 SWAP1 PUSH2 0xED2 JUMP JUMPDEST PUSH1 0x40 MLOAD DUP1 SWAP2 SUB SWAP1 LOG1 PUSH1 0x40 MLOAD DUP1 PUSH1 0x40 ADD PUSH1 0x40 MSTORE DUP1 PUSH1 0x7 DUP2 MSTORE PUSH1 0x20 ADD PUSH32 0x70656E64696E6700000000000000000000000000000000000000000000000000 DUP2 MSTORE POP PUSH1 0x3 SWAP1 DUP2 PUSH2 0x572 SWAP2 SWAP1 PUSH2 0xD51 JUMP JUMPDEST POP PUSH1 0x3 DUP1 SLOAD PUSH2 0x580 SWAP1 PUSH2 0xB81 JUMP JUMPDEST DUP1 PUSH1 0x1F ADD PUSH1 0x20 DUP1 SWAP2 DIV MUL PUSH1 0x20 ADD PUSH1 0x40 MLOAD SWAP1 DUP2 ADD PUSH1 0x40 MSTORE DUP1 SWAP3 SWAP2 SWAP1 DUP2 DUP2 MSTORE PUSH1 0x20 ADD DUP3 DUP1 SLOAD PUSH2 0x5AC SWAP1 PUSH2 0xB81 JUMP JUMPDEST DUP1 ISZERO PUSH2 0x5F7 JUMPI DUP1 PUSH1 0x1F LT PUSH2 0x5CE JUMPI PUSH2 0x100 DUP1 DUP4 SLOAD DIV MUL DUP4 MSTORE SWAP2 PUSH1 0x20 ADD SWAP2 PUSH2 0x5F7 JUMP JUMPDEST DUP3 ADD SWAP2 SWAP1 PUSH0 MSTORE PUSH1 0x20 PUSH0 KECCAK256 SWAP1 JUMPDEST DUP2 SLOAD DUP2 MSTORE SWAP1 PUSH1 0x1 ADD SWAP1 PUSH1 0x20 ADD DUP1 DUP4 GT PUSH2 0x5DA JUMPI DUP3 SWAP1 SUB PUSH1 0x1F AND DUP3 ADD SWAP2 JUMPDEST POP POP POP POP POP SWAP1 POP JUMPDEST SWAP2 SWAP1 POP JUMP JUMPDEST PUSH1 0x2 SLOAD DUP2 JUMP JUMPDEST CALLER PUSH20 0xFFFFFFFFFFFFFFFFFFFFFFFFFFFFFFFFFFFFFFFF AND PUSH0 PUSH0 SWAP1 SLOAD SWAP1 PUSH2 0x100 EXP SWAP1 DIV PUSH20 0xFFFFFFFFFFFFFFFFFFFFFFFFFFFFFFFFFFFFFFFF AND PUSH20 0xFFFFFFFFFFFFFFFFFFFFFFFFFFFFFFFFFFFFFFFF AND EQ PUSH2 0x698 JUMPI PUSH1 0x40 MLOAD PUSH32 0x8C379A000000000000000000000000000000000000000000000000000000000 DUP2 MSTORE PUSH1 0x4 ADD PUSH2 0x68F SWAP1 PUSH2 0xA0C JUMP JUMPDEST PUSH1 0x40 MLOAD DUP1 SWAP2 SUB SWAP1 REVERT JUMPDEST PUSH8 0xDE0B6B3A7640000 PUSH1 0x2 SLOAD LT ISZERO PUSH2 0x6E5 JUMPI PUSH1 0x40 MLOAD PUSH32 0x8C379A000000000000000000000000000000000000000000000000000000000 DUP2 MSTORE PUSH1 0x4 ADD PUSH2 0x6DC SWAP1 PUSH2 0xF3A JUMP JUMPDEST PUSH1 0x40 MLOAD DUP1 SWAP2 SUB SWAP1 REVERT JUMPDEST PUSH8 0xDE0B6B3A7640000 PUSH1 0x2 SLOAD LT PUSH2 0x789 JUMPI DUP1 PUSH1 0x1 PUSH0 PUSH2 0x100 EXP DUP2 SLOAD DUP2 PUSH20 0xFFFFFFFFFFFFFFFFFFFFFFFFFFFFFFFFFFFFFFFF MUL NOT AND SWAP1 DUP4 PUSH20 0xFFFFFFFFFFFFFFFFFFFFFFFFFFFFFFFFFFFFFFFF AND MUL OR SWAP1 SSTORE POP PUSH1 0x1 PUSH1 0x4 PUSH0 PUSH2 0x100 EXP DUP2 SLOAD DUP2 PUSH1 0xFF MUL NOT AND SWAP1 DUP4 PUSH1 0x3 DUP2 GT ISZERO PUSH2 0x75B JUMPI PUSH2 0x75A PUSH2 0xA2A JUMP JUMPDEST JUMPDEST MUL OR SWAP1 SSTORE POP PUSH1 0x40 MLOAD DUP1 PUSH1 0x60 ADD PUSH1 0x40 MSTORE DUP1 PUSH1 0x22 DUP2 MSTORE PUSH1 0x20 ADD PUSH2 0xF59 PUSH1 0x22 SWAP2 CODECOPY PUSH1 0x3 SWAP1 DUP2 PUSH2 0x787 SWAP2 SWAP1 PUSH2 0xD51 JUMP JUMPDEST POP JUMPDEST POP JUMP JUMPDEST PUSH0 SELFBALANCE PUSH1 0x2 DUP2 SWAP1 SSTORE POP PUSH1 0x2 SLOAD SWAP1 POP SWAP1 JUMP JUMPDEST PUSH1 0x3 DUP1 SLOAD PUSH2 0x7A9 SWAP1 PUSH2 0xB81 JUMP JUMPDEST DUP1 PUSH1 0x1F ADD PUSH1 0x20 DUP1 SWAP2 DIV MUL PUSH1 0x20 ADD PUSH1 0x40 MLOAD SWAP1 DUP2 ADD PUSH1 0x40 MSTORE DUP1 SWAP3 SWAP2 SWAP1 DUP2 DUP2 MSTORE PUSH1 0x20 ADD DUP3 DUP1 SLOAD PUSH2 0x7D5 SWAP1 PUSH2 0xB81 JUMP JUMPDEST DUP1 ISZERO PUSH2 0x820 JUMPI DUP1 PUSH1 0x1F LT PUSH2 0x7F7 JUMPI PUSH2 0x100 DUP1 DUP4 SLOAD DIV MUL DUP4 MSTORE SWAP2 PUSH1 0x20 ADD SWAP2 PUSH2 0x820 JUMP JUMPDEST DUP3 ADD SWAP2 SWAP1 PUSH0 MSTORE PUSH1 0x20 PUSH0 KECCAK256 SWAP1 JUMPDEST DUP2 SLOAD DUP2 MSTORE SWAP1 PUSH1 0x1 ADD SWAP1 PUSH1 0x20 ADD DUP1 DUP4 GT PUSH2 0x803 JUMPI DUP3 SWAP1 SUB PUSH1 0x1F AND DUP3 ADD SWAP2 JUMPDEST POP POP POP POP POP DUP2 JUMP JUMPDEST JUMP JUMPDEST PUSH0 PUSH0 REVERT JUMPDEST PUSH1 0x4 DUP2 LT PUSH2 0x83A JUMPI PUSH0 PUSH0 REVERT JUMPDEST POP JUMP JUMPDEST PUSH0 DUP2 CALLDATALOAD SWAP1 POP PUSH2 0x84B DUP2 PUSH2 0x82E JUMP JUMPDEST SWAP3 SWAP2 POP POP JUMP JUMPDEST PUSH0 PUSH1 0x20 DUP3 DUP5 SUB SLT ISZERO PUSH2 0x866 JUMPI PUSH2 0x865 PUSH2 0x82A JUMP JUMPDEST JUMPDEST PUSH0 PUSH2 0x873 DUP5 DUP3 DUP6 ADD PUSH2 0x83D JUMP JUMPDEST SWAP2 POP POP SWAP3 SWAP2 POP POP JUMP JUMPDEST PUSH0 DUP2 MLOAD SWAP1 POP SWAP2 SWAP1 POP JUMP JUMPDEST PUSH0 DUP3 DUP3 MSTORE PUSH1 0x20 DUP3 ADD SWAP1 POP SWAP3 SWAP2 POP POP JUMP JUMPDEST DUP3 DUP2 DUP4 MCOPY PUSH0 DUP4 DUP4 ADD MSTORE POP POP POP JUMP JUMPDEST PUSH0 PUSH1 0x1F NOT PUSH1 0x1F DUP4 ADD AND SWAP1 POP SWAP2 SWAP1 POP JUMP JUMPDEST PUSH0 PUSH2 0x8BE DUP3 PUSH2 0x87C JUMP JUMPDEST PUSH2 0x8C8 DUP2 DUP6 PUSH2 0x886 JUMP JUMPDEST SWAP4 POP PUSH2 0x8D8 DUP2 DUP6 PUSH1 0x20 DUP7 ADD PUSH2 0x896 JUMP JUMPDEST PUSH2 0x8E1 DUP2 PUSH2 0x8A4 JUMP JUMPDEST DUP5 ADD SWAP2 POP POP SWAP3 SWAP2 POP POP JUMP JUMPDEST PUSH0 PUSH1 0x20 DUP3 ADD SWAP1 POP DUP2 DUP2 SUB PUSH0 DUP4 ADD MSTORE PUSH2 0x904 DUP2 DUP5 PUSH2 0x8B4 JUMP JUMPDEST SWAP1 POP SWAP3 SWAP2 POP POP JUMP JUMPDEST PUSH0 DUP2 SWAP1 POP SWAP2 SWAP1 POP JUMP JUMPDEST PUSH2 0x91E DUP2 PUSH2 0x90C JUMP JUMPDEST DUP3 MSTORE POP POP JUMP JUMPDEST PUSH0 PUSH1 0x20 DUP3 ADD SWAP1 POP PUSH2 0x937 PUSH0 DUP4 ADD DUP5 PUSH2 0x915 JUMP JUMPDEST SWAP3 SWAP2 POP POP JUMP JUMPDEST PUSH0 PUSH20 0xFFFFFFFFFFFFFFFFFFFFFFFFFFFFFFFFFFFFFFFF DUP3 AND SWAP1 POP SWAP2 SWAP1 POP JUMP JUMPDEST PUSH0 PUSH2 0x966 DUP3 PUSH2 0x93D JUMP JUMPDEST SWAP1 POP SWAP2 SWAP1 POP JUMP JUMPDEST PUSH2 0x976 DUP2 PUSH2 0x95C JUMP JUMPDEST DUP2 EQ PUSH2 0x980 JUMPI PUSH0 PUSH0 REVERT JUMPDEST POP JUMP JUMPDEST PUSH0 DUP2 CALLDATALOAD SWAP1 POP PUSH2 0x991 DUP2 PUSH2 0x96D JUMP JUMPDEST SWAP3 SWAP2 POP POP JUMP JUMPDEST PUSH0 PUSH1 0x20 DUP3 DUP5 SUB SLT ISZERO PUSH2 0x9AC JUMPI PUSH2 0x9AB PUSH2 0x82A JUMP JUMPDEST JUMPDEST PUSH0 PUSH2 0x9B9 DUP5 DUP3 DUP6 ADD PUSH2 0x983 JUMP JUMPDEST SWAP2 POP POP SWAP3 SWAP2 POP POP JUMP JUMPDEST PUSH32 0x4E6F74204F776E65720000000000000000000000000000000000000000000000 PUSH0 DUP3 ADD MSTORE POP JUMP JUMPDEST PUSH0 PUSH2 0x9F6 PUSH1 0x9 DUP4 PUSH2 0x886 JUMP JUMPDEST SWAP2 POP PUSH2 0xA01 DUP3 PUSH2 0x9C2 JUMP JUMPDEST PUSH1 0x20 DUP3 ADD SWAP1 POP SWAP2 SWAP1 POP JUMP JUMPDEST PUSH0 PUSH1 0x20 DUP3 ADD SWAP1 POP DUP2 DUP2 SUB PUSH0 DUP4 ADD MSTORE PUSH2 0xA23 DUP2 PUSH2 0x9EA JUMP JUMPDEST SWAP1 POP SWAP2 SWAP1 POP JUMP JUMPDEST PUSH32 0x4E487B7100000000000000000000000000000000000000000000000000000000 PUSH0 MSTORE PUSH1 0x21 PUSH1 0x4 MSTORE PUSH1 0x24 PUSH0 REVERT JUMPDEST PUSH32 0x416C72656164792044656C697665726564000000000000000000000000000000 PUSH0 DUP3 ADD MSTORE POP JUMP JUMPDEST PUSH0 PUSH2 0xA8B PUSH1 0x11 DUP4 PUSH2 0x886 JUMP JUMPDEST SWAP2 POP PUSH2 0xA96 DUP3 PUSH2 0xA57 JUMP JUMPDEST PUSH1 0x20 DUP3 ADD SWAP1 POP SWAP2 SWAP1 POP JUMP JUMPDEST PUSH0 PUSH1 0x20 DUP3 ADD SWAP1 POP DUP2 DUP2 SUB PUSH0 DUP4 ADD MSTORE PUSH2 0xAB8 DUP2 PUSH2 0xA7F JUMP JUMPDEST SWAP1 POP SWAP2 SWAP1 POP JUMP JUMPDEST PUSH32 0x5368697070656400000000000000000000000000000000000000000000000000 PUSH0 DUP3 ADD MSTORE POP JUMP JUMPDEST PUSH0 PUSH2 0xAF3 PUSH1 0x7 DUP4 PUSH2 0x886 JUMP JUMPDEST SWAP2 POP PUSH2 0xAFE DUP3 PUSH2 0xABF JUMP JUMPDEST PUSH1 0x20 DUP3 ADD SWAP1 POP SWAP2 SWAP1 POP JUMP JUMPDEST PUSH0 PUSH1 0x20 DUP3 ADD SWAP1 POP DUP2 DUP2 SUB PUSH0 DUP4 ADD MSTORE PUSH2 0xB20 DUP2 PUSH2 0xAE7 JUMP JUMPDEST SWAP1 POP SWAP2 SWAP1 POP JUMP JUMPDEST PUSH32 0x4E487B7100000000000000000000000000000000000000000000000000000000 PUSH0 MSTORE PUSH1 0x41 PUSH1 0x4 MSTORE PUSH1 0x24 PUSH0 REVERT JUMPDEST PUSH32 0x4E487B7100000000000000000000000000000000000000000000000000000000 PUSH0 MSTORE PUSH1 0x22 PUSH1 0x4 MSTORE PUSH1 0x24 PUSH0 REVERT JUMPDEST PUSH0 PUSH1 0x2 DUP3 DIV SWAP1 POP PUSH1 0x1 DUP3 AND DUP1 PUSH2 0xB98 JUMPI PUSH1 0x7F DUP3 AND SWAP2 POP JUMPDEST PUSH1 0x20 DUP3 LT DUP2 SUB PUSH2 0xBAB JUMPI PUSH2 0xBAA PUSH2 0xB54 JUMP JUMPDEST JUMPDEST POP SWAP2 SWAP1 POP JUMP JUMPDEST PUSH0 DUP2 SWAP1 POP DUP2 PUSH0 MSTORE PUSH1 0x20 PUSH0 KECCAK256 SWAP1 POP SWAP2 SWAP1 POP JUMP JUMPDEST PUSH0 PUSH1 0x20 PUSH1 0x1F DUP4 ADD DIV SWAP1 POP SWAP2 SWAP1 POP JUMP JUMPDEST PUSH0 DUP3 DUP3 SHL SWAP1 POP SWAP3 SWAP2 POP POP JUMP JUMPDEST PUSH0 PUSH1 0x8 DUP4 MUL PUSH2 0xC0D PUSH32 0xFFFFFFFFFFFFFFFFFFFFFFFFFFFFFFFFFFFFFFFFFFFFFFFFFFFFFFFFFFFFFFFF DUP3 PUSH2 0xBD2 JUMP JUMPDEST PUSH2 0xC17 DUP7 DUP4 PUSH2 0xBD2 JUMP JUMPDEST SWAP6 POP DUP1 NOT DUP5 AND SWAP4 POP DUP1 DUP7 AND DUP5 OR SWAP3 POP POP POP SWAP4 SWAP3 POP POP POP JUMP JUMPDEST PUSH0 DUP2 SWAP1 POP SWAP2 SWAP1 POP JUMP JUMPDEST PUSH0 PUSH2 0xC52 PUSH2 0xC4D PUSH2 0xC48 DUP5 PUSH2 0x90C JUMP JUMPDEST PUSH2 0xC2F JUMP JUMPDEST PUSH2 0x90C JUMP JUMPDEST SWAP1 POP SWAP2 SWAP1 POP JUMP JUMPDEST PUSH0 DUP2 SWAP1 POP SWAP2 SWAP1 POP JUMP JUMPDEST PUSH2 0xC6B DUP4 PUSH2 0xC38 JUMP JUMPDEST PUSH2 0xC7F PUSH2 0xC77 DUP3 PUSH2 0xC59 JUMP JUMPDEST DUP5 DUP5 SLOAD PUSH2 0xBDE JUMP JUMPDEST DUP3 SSTORE POP POP POP POP JUMP JUMPDEST PUSH0 PUSH0 SWAP1 POP SWAP1 JUMP JUMPDEST PUSH2 0xC96 PUSH2 0xC87 JUMP JUMPDEST PUSH2 0xCA1 DUP2 DUP5 DUP5 PUSH2 0xC62 JUMP JUMPDEST POP POP POP JUMP JUMPDEST JUMPDEST DUP2 DUP2 LT ISZERO PUSH2 0xCC4 JUMPI PUSH2 0xCB9 PUSH0 DUP3 PUSH2 0xC8E JUMP JUMPDEST PUSH1 0x1 DUP2 ADD SWAP1 POP PUSH2 0xCA7 JUMP JUMPDEST POP POP JUMP JUMPDEST PUSH1 0x1F DUP3 GT ISZERO PUSH2 0xD09 JUMPI PUSH2 0xCDA DUP2 PUSH2 0xBB1 JUMP JUMPDEST PUSH2 0xCE3 DUP5 PUSH2 0xBC3 JUMP JUMPDEST DUP2 ADD PUSH1 0x20 DUP6 LT ISZERO PUSH2 0xCF2 JUMPI DUP2 SWAP1 POP JUMPDEST PUSH2 0xD06 PUSH2 0xCFE DUP6 PUSH2 0xBC3 JUMP JUMPDEST DUP4 ADD DUP3 PUSH2 0xCA6 JUMP JUMPDEST POP POP JUMPDEST POP POP POP JUMP JUMPDEST PUSH0 DUP3 DUP3 SHR SWAP1 POP SWAP3 SWAP2 POP POP JUMP JUMPDEST PUSH0 PUSH2 0xD29 PUSH0 NOT DUP5 PUSH1 0x8 MUL PUSH2 0xD0E JUMP JUMPDEST NOT DUP1 DUP4 AND SWAP2 POP POP SWAP3 SWAP2 POP POP JUMP JUMPDEST PUSH0 PUSH2 0xD41 DUP4 DUP4 PUSH2 0xD1A JUMP JUMPDEST SWAP2 POP DUP3 PUSH1 0x2 MUL DUP3 OR SWAP1 POP SWAP3 SWAP2 POP POP JUMP JUMPDEST PUSH2 0xD5A DUP3 PUSH2 0x87C JUMP JUMPDEST PUSH8 0xFFFFFFFFFFFFFFFF DUP2 GT ISZERO PUSH2 0xD73 JUMPI PUSH2 0xD72 PUSH2 0xB27 JUMP JUMPDEST JUMPDEST PUSH2 0xD7D DUP3 SLOAD PUSH2 0xB81 JUMP JUMPDEST PUSH2 0xD88 DUP3 DUP3 DUP6 PUSH2 0xCC8 JUMP JUMPDEST PUSH0 PUSH1 0x20 SWAP1 POP PUSH1 0x1F DUP4 GT PUSH1 0x1 DUP2 EQ PUSH2 0xDB9 JUMPI PUSH0 DUP5 ISZERO PUSH2 0xDA7 JUMPI DUP3 DUP8 ADD MLOAD SWAP1 POP JUMPDEST PUSH2 0xDB1 DUP6 DUP3 PUSH2 0xD36 JUMP JUMPDEST DUP7 SSTORE POP PUSH2 0xE18 JUMP JUMPDEST PUSH1 0x1F NOT DUP5 AND PUSH2 0xDC7 DUP7 PUSH2 0xBB1 JUMP JUMPDEST PUSH0 JUMPDEST DUP3 DUP2 LT ISZERO PUSH2 0xDEE JUMPI DUP5 DUP10 ADD MLOAD DUP3 SSTORE PUSH1 0x1 DUP3 ADD SWAP2 POP PUSH1 0x20 DUP6 ADD SWAP5 POP PUSH1 0x20 DUP2 ADD SWAP1 POP PUSH2 0xDC9 JUMP JUMPDEST DUP7 DUP4 LT ISZERO PUSH2 0xE0B JUMPI DUP5 DUP10 ADD MLOAD PUSH2 0xE07 PUSH1 0x1F DUP10 AND DUP3 PUSH2 0xD1A JUMP JUMPDEST DUP4 SSTORE POP JUMPDEST PUSH1 0x1 PUSH1 0x2 DUP9 MUL ADD DUP9 SSTORE POP POP POP JUMPDEST POP POP POP POP POP POP JUMP JUMPDEST PUSH32 0x44656C6976657264000000000000000000000000000000000000000000000000 PUSH0 DUP3 ADD MSTORE POP JUMP JUMPDEST PUSH0 PUSH2 0xE54 PUSH1 0x8 DUP4 PUSH2 0x886 JUMP JUMPDEST SWAP2 POP PUSH2 0xE5F DUP3 PUSH2 0xE20 JUMP JUMPDEST PUSH1 0x20 DUP3 ADD SWAP1 POP SWAP2 SWAP1 POP JUMP JUMPDEST PUSH0 PUSH1 0x20 DUP3 ADD SWAP1 POP DUP2 DUP2 SUB PUSH0 DUP4 ADD MSTORE PUSH2 0xE81 DUP2 PUSH2 0xE48 JUMP JUMPDEST SWAP1 POP SWAP2 SWAP1 POP JUMP JUMPDEST PUSH32 0x70656E64696E6700000000000000000000000000000000000000000000000000 PUSH0 DUP3 ADD MSTORE POP JUMP JUMPDEST PUSH0 PUSH2 0xEBC PUSH1 0x7 DUP4 PUSH2 0x886 JUMP JUMPDEST SWAP2 POP PUSH2 0xEC7 DUP3 PUSH2 0xE88 JUMP JUMPDEST PUSH1 0x20 DUP3 ADD SWAP1 POP SWAP2 SWAP1 POP JUMP JUMPDEST PUSH0 PUSH1 0x20 DUP3 ADD SWAP1 POP DUP2 DUP2 SUB PUSH0 DUP4 ADD MSTORE PUSH2 0xEE9 DUP2 PUSH2 0xEB0 JUMP JUMPDEST SWAP1 POP SWAP2 SWAP1 POP JUMP JUMPDEST PUSH32 0x496E73756666696369656E742042616C616E6365000000000000000000000000 PUSH0 DUP3 ADD MSTORE POP JUMP JUMPDEST PUSH0 PUSH2 0xF24 PUSH1 0x14 DUP4 PUSH2 0x886 JUMP JUMPDEST SWAP2 POP PUSH2 0xF2F DUP3 PUSH2 0xEF0 JUMP JUMPDEST PUSH1 0x20 DUP3 ADD SWAP1 POP SWAP2 SWAP1 POP JUMP JUMPDEST PUSH0 PUSH1 0x20 DUP3 ADD SWAP1 POP DUP2 DUP2 SUB PUSH0 DUP4 ADD MSTORE PUSH2 0xF51 DUP2 PUSH2 0xF18 JUMP JUMPDEST SWAP1 POP SWAP2 SWAP1 POP JUMP INVALID 0x4F PUSH19 0x64657220486173204265656E20506C61636564 KECCAK256 MSTORE8 PUSH22 0x636365737366756C6C79A264697066735822122024A1 TIMESTAMP CALL 0x4B 0xE2 0xE4 0xEF 0xD4 0xE7 PUSH3 0x37E3AD SELFBALANCE 0x4D SWAP6 LOG3 SWAP3 0xBE CALLDATACOPY SWAP12 0xD DUP16 RETURN SWAP15 PUSH22 0x6EE0E63AA564736F6C634300081C0033000000000000 "
				},
				"gasEstimates": {
					"creation": {
						"codeDepositCost": "803200",
						"executionCost": "infinite",
						"totalCost": "infinite"
					},
					"external": {
						"Get_amount()": "207",
						"Owner_ship(address)": "infinite",
						"amount()": "2425",
						"message()": "infinite",
						"set_status(uint8)": "infinite",
						"update_balance()": "24592"
					},
					"internal": {
						"get_status()": "infinite"
					}
				},
				"methodIdentifiers": {
					"Get_amount()": "f15820ff",
					"Owner_ship(address)": "adc80562",
					"amount()": "aa8c217c",
					"message()": "e21f37ce",
					"set_status(uint8)": "6df427bc",
					"update_balance()": "c2133136"
				}
			},
			"storageLayout": {
				"storage": [
					{
						"astId": 3,
						"contract": "Innovation/MiniProject.sol:mini_project",
						"label": "owner",
						"offset": 0,
						"slot": "0",
						"type": "t_address"
					},
					{
						"astId": 5,
						"contract": "Innovation/MiniProject.sol:mini_project",
						"label": "Cust_add",
						"offset": 0,
						"slot": "1",
						"type": "t_address"
					},
					{
						"astId": 7,
						"contract": "Innovation/MiniProject.sol:mini_project",
						"label": "amount",
						"offset": 0,
						"slot": "2",
						"type": "t_uint256"
					},
					{
						"astId": 10,
						"contract": "Innovation/MiniProject.sol:mini_project",
						"label": "message",
						"offset": 0,
						"slot": "3",
						"type": "t_string_storage"
					},
					{
						"astId": 70,
						"contract": "Innovation/MiniProject.sol:mini_project",
						"label": "status",
						"offset": 0,
						"slot": "4",
						"type": "t_enum(Status)24"
					}
				],
				"types": {
					"t_address": {
						"encoding": "inplace",
						"label": "address",
						"numberOfBytes": "20"
					},
					"t_enum(Status)24": {
						"encoding": "inplace",
						"label": "enum mini_project.Status",
						"numberOfBytes": "1"
					},
					"t_string_storage": {
						"encoding": "bytes",
						"label": "string",
						"numberOfBytes": "32"
					},
					"t_uint256": {
						"encoding": "inplace",
						"label": "uint256",
						"numberOfBytes": "32"
					}
				}
			},
			"userdoc": {
				"kind": "user",
				"methods": {},
				"version": 1
			}
		}
	}
}