{
	"Innovation/calc.sol": {
		"calculator": {
			"abi": [
				{
					"inputs": [
						{
							"internalType": "uint256",
							"name": "a",
							"type": "uint256"
						},
						{
							"internalType": "uint256",
							"name": "b",
							"type": "uint256"
						}
					],
					"name": "Mul",
					"outputs": [
						{
							"internalType": "uint256",
							"name": "",
							"type": "uint256"
						}
					],
					"stateMutability": "nonpayable",
					"type": "function"
				},
				{
					"inputs": [
						{
							"internalType": "uint256",
							"name": "a",
							"type": "uint256"
						},
						{
							"internalType": "uint256",
							"name": "b",
							"type": "uint256"
						}
					],
					"name": "Sub",
					"outputs": [
						{
							"internalType": "uint256",
							"name": "",
							"type": "uint256"
						}
					],
					"stateMutability": "nonpayable",
					"type": "function"
				},
				{
					"inputs": [
						{
							"internalType": "uint256",
							"name": "a",
							"type": "uint256"
						},
						{
							"internalType": "uint256",
							"name": "b",
							"type": "uint256"
						}
					],
					"name": "add",
					"outputs": [
						{
							"internalType": "uint256",
							"name": "",
							"type": "uint256"
						}
					],
					"stateMutability": "nonpayable",
					"type": "function"
				},
				{
					"inputs": [
						{
							"internalType": "uint256",
							"name": "a",
							"type": "uint256"
						},
						{
							"internalType": "uint256",
							"name": "b",
							"type": "uint256"
						}
					],
					"name": "div",
					"outputs": [
						{
							"internalType": "uint256",
							"name": "",
							"type": "uint256"
						}
					],
					"stateMutability": "nonpayable",
					"type": "function"
				},
				{
					"inputs": [
						{
							"internalType": "uint256",
							"name": "a",
							"type": "uint256"
						},
						{
							"internalType": "uint256",
							"name": "b",
							"type": "uint256"
						}
					],
					"name": "mod",
					"outputs": [
						{
							"internalType": "uint256",
							"name": "",
							"type": "uint256"
						}
					],
					"stateMutability": "nonpayable",
					"type": "function"
				},
				{
					"inputs": [],
					"name": "result",
					"outputs": [
						{
							"internalType": "uint256",
							"name": "",
							"type": "uint256"
						}
					],
					"stateMutability": "view",
					"type": "function"
				}
			],
			"devdoc": {
				"kind": "dev",
				"methods": {},
				"version": 1
			},
			"evm": {
				"assembly": "    /* \"Innovation/calc.sol\":60:782  contract calculator{... */\n  mstore(0x40, 0x80)\n  callvalue\n  dup1\n  iszero\n  tag_1\n  jumpi\n  0x00\n  dup1\n  revert\ntag_1:\n  pop\n  dataSize(sub_0)\n  dup1\n  dataOffset(sub_0)\n  0x00\n  codecopy\n  0x00\n  return\nstop\n\nsub_0: assembly {\n        /* \"Innovation/calc.sol\":60:782  contract calculator{... */\n      mstore(0x40, 0x80)\n      callvalue\n      dup1\n      iszero\n      tag_1\n      jumpi\n      0x00\n      dup1\n      revert\n    tag_1:\n      pop\n      jumpi(tag_2, lt(calldatasize, 0x04))\n      shr(0xe0, calldataload(0x00))\n      dup1\n      0x1ec9c2c0\n      eq\n      tag_3\n      jumpi\n      dup1\n      0x60953744\n      eq\n      tag_4\n      jumpi\n      dup1\n      0x65372147\n      eq\n      tag_5\n      jumpi\n      dup1\n      0x771602f7\n      eq\n      tag_6\n      jumpi\n      dup1\n      0xa391c15b\n      eq\n      tag_7\n      jumpi\n      dup1\n      0xf43f523a\n      eq\n      tag_8\n      jumpi\n    tag_2:\n      0x00\n      dup1\n      revert\n        /* \"Innovation/calc.sol\":253:398  function Sub(uint a,uint b) public  returns (uint){... */\n    tag_3:\n      tag_9\n      0x04\n      dup1\n      calldatasize\n      sub\n      dup2\n      add\n      swap1\n      tag_10\n      swap2\n      swap1\n      tag_11\n      jump\t// in\n    tag_10:\n      tag_12\n      jump\t// in\n    tag_9:\n      mload(0x40)\n      tag_13\n      swap2\n      swap1\n      tag_14\n      jump\t// in\n    tag_13:\n      mload(0x40)\n      dup1\n      swap2\n      sub\n      swap1\n      return\n        /* \"Innovation/calc.sol\":404:507  function Mul(uint a,uint b) public  returns (uint){... */\n    tag_4:\n      tag_15\n      0x04\n      dup1\n      calldatasize\n      sub\n      dup2\n      add\n      swap1\n      tag_16\n      swap2\n      swap1\n      tag_11\n      jump\t// in\n    tag_16:\n      tag_17\n      jump\t// in\n    tag_15:\n      mload(0x40)\n      tag_18\n      swap2\n      swap1\n      tag_14\n      jump\t// in\n    tag_18:\n      mload(0x40)\n      dup1\n      swap2\n      sub\n      swap1\n      return\n        /* \"Innovation/calc.sol\":86:104  uint public result */\n    tag_5:\n      tag_19\n      tag_20\n      jump\t// in\n    tag_19:\n      mload(0x40)\n      tag_21\n      swap2\n      swap1\n      tag_14\n      jump\t// in\n    tag_21:\n      mload(0x40)\n      dup1\n      swap2\n      sub\n      swap1\n      return\n        /* \"Innovation/calc.sol\":142:245  function add(uint a,uint b) public  returns (uint){... */\n    tag_6:\n      tag_22\n      0x04\n      dup1\n      calldatasize\n      sub\n      dup2\n      add\n      swap1\n      tag_23\n      swap2\n      swap1\n      tag_11\n      jump\t// in\n    tag_23:\n      tag_24\n      jump\t// in\n    tag_22:\n      mload(0x40)\n      tag_25\n      swap2\n      swap1\n      tag_14\n      jump\t// in\n    tag_25:\n      mload(0x40)\n      dup1\n      swap2\n      sub\n      swap1\n      return\n        /* \"Innovation/calc.sol\":513:668  function div(uint a,uint b) public  returns (uint){... */\n    tag_7:\n      tag_26\n      0x04\n      dup1\n      calldatasize\n      sub\n      dup2\n      add\n      swap1\n      tag_27\n      swap2\n      swap1\n      tag_11\n      jump\t// in\n    tag_27:\n      tag_28\n      jump\t// in\n    tag_26:\n      mload(0x40)\n      tag_29\n      swap2\n      swap1\n      tag_14\n      jump\t// in\n    tag_29:\n      mload(0x40)\n      dup1\n      swap2\n      sub\n      swap1\n      return\n        /* \"Innovation/calc.sol\":674:777  function mod(uint a,uint b) public  returns (uint){... */\n    tag_8:\n      tag_30\n      0x04\n      dup1\n      calldatasize\n      sub\n      dup2\n      add\n      swap1\n      tag_31\n      swap2\n      swap1\n      tag_11\n      jump\t// in\n    tag_31:\n      tag_32\n      jump\t// in\n    tag_30:\n      mload(0x40)\n      tag_33\n      swap2\n      swap1\n      tag_14\n      jump\t// in\n    tag_33:\n      mload(0x40)\n      dup1\n      swap2\n      sub\n      swap1\n      return\n        /* \"Innovation/calc.sol\":253:398  function Sub(uint a,uint b) public  returns (uint){... */\n    tag_12:\n        /* \"Innovation/calc.sol\":298:302  uint */\n      0x00\n        /* \"Innovation/calc.sol\":321:322  b */\n      dup2\n        /* \"Innovation/calc.sol\":318:319  a */\n      dup4\n        /* \"Innovation/calc.sol\":318:322  a>=b */\n      lt\n      iszero\n        /* \"Innovation/calc.sol\":310:351  require(a>=b, \"Check the Number Bro!!!!\") */\n      tag_35\n      jumpi\n      mload(0x40)\n      0x08c379a000000000000000000000000000000000000000000000000000000000\n      dup2\n      mstore\n      0x04\n      add\n      tag_36\n      swap1\n      tag_37\n      jump\t// in\n    tag_36:\n      mload(0x40)\n      dup1\n      swap2\n      sub\n      swap1\n      revert\n    tag_35:\n        /* \"Innovation/calc.sol\":369:370  b */\n      dup2\n        /* \"Innovation/calc.sol\":367:368  a */\n      dup4\n        /* \"Innovation/calc.sol\":367:370  a-b */\n      tag_38\n      swap2\n      swap1\n      tag_39\n      jump\t// in\n    tag_38:\n        /* \"Innovation/calc.sol\":359:365  result */\n      0x00\n        /* \"Innovation/calc.sol\":359:370  result =a-b */\n      dup2\n      swap1\n      sstore\n      pop\n        /* \"Innovation/calc.sol\":384:390  result */\n      sload(0x00)\n        /* \"Innovation/calc.sol\":377:390  return result */\n      swap1\n      pop\n        /* \"Innovation/calc.sol\":253:398  function Sub(uint a,uint b) public  returns (uint){... */\n      swap3\n      swap2\n      pop\n      pop\n      jump\t// out\n        /* \"Innovation/calc.sol\":404:507  function Mul(uint a,uint b) public  returns (uint){... */\n    tag_17:\n        /* \"Innovation/calc.sol\":449:453  uint */\n      0x00\n        /* \"Innovation/calc.sol\":474:475  b */\n      dup2\n        /* \"Innovation/calc.sol\":472:473  a */\n      dup4\n        /* \"Innovation/calc.sol\":472:475  a*b */\n      tag_41\n      swap2\n      swap1\n      tag_42\n      jump\t// in\n    tag_41:\n        /* \"Innovation/calc.sol\":465:471  result */\n      0x00\n        /* \"Innovation/calc.sol\":465:475  result=a*b */\n      dup2\n      swap1\n      sstore\n      pop\n        /* \"Innovation/calc.sol\":493:499  result */\n      sload(0x00)\n        /* \"Innovation/calc.sol\":486:499  return result */\n      swap1\n      pop\n        /* \"Innovation/calc.sol\":404:507  function Mul(uint a,uint b) public  returns (uint){... */\n      swap3\n      swap2\n      pop\n      pop\n      jump\t// out\n        /* \"Innovation/calc.sol\":86:104  uint public result */\n    tag_20:\n      sload(0x00)\n      dup2\n      jump\t// out\n        /* \"Innovation/calc.sol\":142:245  function add(uint a,uint b) public  returns (uint){... */\n    tag_24:\n        /* \"Innovation/calc.sol\":187:191  uint */\n      0x00\n        /* \"Innovation/calc.sol\":212:213  b */\n      dup2\n        /* \"Innovation/calc.sol\":210:211  a */\n      dup4\n        /* \"Innovation/calc.sol\":210:213  a+b */\n      tag_44\n      swap2\n      swap1\n      tag_45\n      jump\t// in\n    tag_44:\n        /* \"Innovation/calc.sol\":203:209  result */\n      0x00\n        /* \"Innovation/calc.sol\":203:213  result=a+b */\n      dup2\n      swap1\n      sstore\n      pop\n        /* \"Innovation/calc.sol\":231:237  result */\n      sload(0x00)\n        /* \"Innovation/calc.sol\":224:237  return result */\n      swap1\n      pop\n        /* \"Innovation/calc.sol\":142:245  function add(uint a,uint b) public  returns (uint){... */\n      swap3\n      swap2\n      pop\n      pop\n      jump\t// out\n        /* \"Innovation/calc.sol\":513:668  function div(uint a,uint b) public  returns (uint){... */\n    tag_28:\n        /* \"Innovation/calc.sol\":558:562  uint */\n      0x00\n        /* \"Innovation/calc.sol\":588:589  0 */\n      dup1\n        /* \"Innovation/calc.sol\":583:584  b */\n      dup3\n        /* \"Innovation/calc.sol\":583:589  b != 0 */\n      sub\n        /* \"Innovation/calc.sol\":575:615  require(b != 0, \"Zero Poda Koodathu!!!\") */\n      tag_47\n      jumpi\n      mload(0x40)\n      0x08c379a000000000000000000000000000000000000000000000000000000000\n      dup2\n      mstore\n      0x04\n      add\n      tag_48\n      swap1\n      tag_49\n      jump\t// in\n    tag_48:\n      mload(0x40)\n      dup1\n      swap2\n      sub\n      swap1\n      revert\n    tag_47:\n        /* \"Innovation/calc.sol\":635:636  b */\n      dup2\n        /* \"Innovation/calc.sol\":633:634  a */\n      dup4\n        /* \"Innovation/calc.sol\":633:636  a/b */\n      tag_50\n      swap2\n      swap1\n      tag_51\n      jump\t// in\n    tag_50:\n        /* \"Innovation/calc.sol\":626:632  result */\n      0x00\n        /* \"Innovation/calc.sol\":626:636  result=a/b */\n      dup2\n      swap1\n      sstore\n      pop\n        /* \"Innovation/calc.sol\":654:660  result */\n      sload(0x00)\n        /* \"Innovation/calc.sol\":647:660  return result */\n      swap1\n      pop\n        /* \"Innovation/calc.sol\":513:668  function div(uint a,uint b) public  returns (uint){... */\n      swap3\n      swap2\n      pop\n      pop\n      jump\t// out\n        /* \"Innovation/calc.sol\":674:777  function mod(uint a,uint b) public  returns (uint){... */\n    tag_32:\n        /* \"Innovation/calc.sol\":719:723  uint */\n      0x00\n        /* \"Innovation/calc.sol\":744:745  b */\n      dup2\n        /* \"Innovation/calc.sol\":742:743  a */\n      dup4\n        /* \"Innovation/calc.sol\":742:745  a%b */\n      tag_53\n      swap2\n      swap1\n      tag_54\n      jump\t// in\n    tag_53:\n        /* \"Innovation/calc.sol\":735:741  result */\n      0x00\n        /* \"Innovation/calc.sol\":735:745  result=a%b */\n      dup2\n      swap1\n      sstore\n      pop\n        /* \"Innovation/calc.sol\":763:769  result */\n      sload(0x00)\n        /* \"Innovation/calc.sol\":756:769  return result */\n      swap1\n      pop\n        /* \"Innovation/calc.sol\":674:777  function mod(uint a,uint b) public  returns (uint){... */\n      swap3\n      swap2\n      pop\n      pop\n      jump\t// out\n        /* \"#utility.yul\":88:205   */\n    tag_56:\n        /* \"#utility.yul\":197:198   */\n      0x00\n        /* \"#utility.yul\":194:195   */\n      dup1\n        /* \"#utility.yul\":187:199   */\n      revert\n        /* \"#utility.yul\":334:411   */\n    tag_58:\n        /* \"#utility.yul\":371:378   */\n      0x00\n        /* \"#utility.yul\":400:405   */\n      dup2\n        /* \"#utility.yul\":389:405   */\n      swap1\n      pop\n        /* \"#utility.yul\":334:411   */\n      swap2\n      swap1\n      pop\n      jump\t// out\n        /* \"#utility.yul\":417:539   */\n    tag_59:\n        /* \"#utility.yul\":490:514   */\n      tag_75\n        /* \"#utility.yul\":508:513   */\n      dup2\n        /* \"#utility.yul\":490:514   */\n      tag_58\n      jump\t// in\n    tag_75:\n        /* \"#utility.yul\":483:488   */\n      dup2\n        /* \"#utility.yul\":480:515   */\n      eq\n        /* \"#utility.yul\":470:533   */\n      tag_76\n      jumpi\n        /* \"#utility.yul\":529:530   */\n      0x00\n        /* \"#utility.yul\":526:527   */\n      dup1\n        /* \"#utility.yul\":519:531   */\n      revert\n        /* \"#utility.yul\":470:533   */\n    tag_76:\n        /* \"#utility.yul\":417:539   */\n      pop\n      jump\t// out\n        /* \"#utility.yul\":545:684   */\n    tag_60:\n        /* \"#utility.yul\":591:596   */\n      0x00\n        /* \"#utility.yul\":629:635   */\n      dup2\n        /* \"#utility.yul\":616:636   */\n      calldataload\n        /* \"#utility.yul\":607:636   */\n      swap1\n      pop\n        /* \"#utility.yul\":645:678   */\n      tag_78\n        /* \"#utility.yul\":672:677   */\n      dup2\n        /* \"#utility.yul\":645:678   */\n      tag_59\n      jump\t// in\n    tag_78:\n        /* \"#utility.yul\":545:684   */\n      swap3\n      swap2\n      pop\n      pop\n      jump\t// out\n        /* \"#utility.yul\":690:1164   */\n    tag_11:\n        /* \"#utility.yul\":758:764   */\n      0x00\n        /* \"#utility.yul\":766:772   */\n      dup1\n        /* \"#utility.yul\":815:817   */\n      0x40\n        /* \"#utility.yul\":803:812   */\n      dup4\n        /* \"#utility.yul\":794:801   */\n      dup6\n        /* \"#utility.yul\":790:813   */\n      sub\n        /* \"#utility.yul\":786:818   */\n      slt\n        /* \"#utility.yul\":783:902   */\n      iszero\n      tag_80\n      jumpi\n        /* \"#utility.yul\":821:900   */\n      tag_81\n      tag_56\n      jump\t// in\n    tag_81:\n        /* \"#utility.yul\":783:902   */\n    tag_80:\n        /* \"#utility.yul\":941:942   */\n      0x00\n        /* \"#utility.yul\":966:1019   */\n      tag_82\n        /* \"#utility.yul\":1011:1018   */\n      dup6\n        /* \"#utility.yul\":1002:1008   */\n      dup3\n        /* \"#utility.yul\":991:1000   */\n      dup7\n        /* \"#utility.yul\":987:1009   */\n      add\n        /* \"#utility.yul\":966:1019   */\n      tag_60\n      jump\t// in\n    tag_82:\n        /* \"#utility.yul\":956:1019   */\n      swap3\n      pop\n        /* \"#utility.yul\":912:1029   */\n      pop\n        /* \"#utility.yul\":1068:1070   */\n      0x20\n        /* \"#utility.yul\":1094:1147   */\n      tag_83\n        /* \"#utility.yul\":1139:1146   */\n      dup6\n        /* \"#utility.yul\":1130:1136   */\n      dup3\n        /* \"#utility.yul\":1119:1128   */\n      dup7\n        /* \"#utility.yul\":1115:1137   */\n      add\n        /* \"#utility.yul\":1094:1147   */\n      tag_60\n      jump\t// in\n    tag_83:\n        /* \"#utility.yul\":1084:1147   */\n      swap2\n      pop\n        /* \"#utility.yul\":1039:1157   */\n      pop\n        /* \"#utility.yul\":690:1164   */\n      swap3\n      pop\n      swap3\n      swap1\n      pop\n      jump\t// out\n        /* \"#utility.yul\":1170:1288   */\n    tag_61:\n        /* \"#utility.yul\":1257:1281   */\n      tag_85\n        /* \"#utility.yul\":1275:1280   */\n      dup2\n        /* \"#utility.yul\":1257:1281   */\n      tag_58\n      jump\t// in\n    tag_85:\n        /* \"#utility.yul\":1252:1255   */\n      dup3\n        /* \"#utility.yul\":1245:1282   */\n      mstore\n        /* \"#utility.yul\":1170:1288   */\n      pop\n      pop\n      jump\t// out\n        /* \"#utility.yul\":1294:1516   */\n    tag_14:\n        /* \"#utility.yul\":1387:1391   */\n      0x00\n        /* \"#utility.yul\":1425:1427   */\n      0x20\n        /* \"#utility.yul\":1414:1423   */\n      dup3\n        /* \"#utility.yul\":1410:1428   */\n      add\n        /* \"#utility.yul\":1402:1428   */\n      swap1\n      pop\n        /* \"#utility.yul\":1438:1509   */\n      tag_87\n        /* \"#utility.yul\":1506:1507   */\n      0x00\n        /* \"#utility.yul\":1495:1504   */\n      dup4\n        /* \"#utility.yul\":1491:1508   */\n      add\n        /* \"#utility.yul\":1482:1488   */\n      dup5\n        /* \"#utility.yul\":1438:1509   */\n      tag_61\n      jump\t// in\n    tag_87:\n        /* \"#utility.yul\":1294:1516   */\n      swap3\n      swap2\n      pop\n      pop\n      jump\t// out\n        /* \"#utility.yul\":1522:1691   */\n    tag_62:\n        /* \"#utility.yul\":1606:1617   */\n      0x00\n        /* \"#utility.yul\":1640:1646   */\n      dup3\n        /* \"#utility.yul\":1635:1638   */\n      dup3\n        /* \"#utility.yul\":1628:1647   */\n      mstore\n        /* \"#utility.yul\":1680:1684   */\n      0x20\n        /* \"#utility.yul\":1675:1678   */\n      dup3\n        /* \"#utility.yul\":1671:1685   */\n      add\n        /* \"#utility.yul\":1656:1685   */\n      swap1\n      pop\n        /* \"#utility.yul\":1522:1691   */\n      swap3\n      swap2\n      pop\n      pop\n      jump\t// out\n        /* \"#utility.yul\":1697:1871   */\n    tag_63:\n        /* \"#utility.yul\":1837:1863   */\n      0x436865636b20746865204e756d6265722042726f212121210000000000000000\n        /* \"#utility.yul\":1833:1834   */\n      0x00\n        /* \"#utility.yul\":1825:1831   */\n      dup3\n        /* \"#utility.yul\":1821:1835   */\n      add\n        /* \"#utility.yul\":1814:1864   */\n      mstore\n        /* \"#utility.yul\":1697:1871   */\n      pop\n      jump\t// out\n        /* \"#utility.yul\":1877:2243   */\n    tag_64:\n        /* \"#utility.yul\":2019:2022   */\n      0x00\n        /* \"#utility.yul\":2040:2107   */\n      tag_91\n        /* \"#utility.yul\":2104:2106   */\n      0x18\n        /* \"#utility.yul\":2099:2102   */\n      dup4\n        /* \"#utility.yul\":2040:2107   */\n      tag_62\n      jump\t// in\n    tag_91:\n        /* \"#utility.yul\":2033:2107   */\n      swap2\n      pop\n        /* \"#utility.yul\":2116:2209   */\n      tag_92\n        /* \"#utility.yul\":2205:2208   */\n      dup3\n        /* \"#utility.yul\":2116:2209   */\n      tag_63\n      jump\t// in\n    tag_92:\n        /* \"#utility.yul\":2234:2236   */\n      0x20\n        /* \"#utility.yul\":2229:2232   */\n      dup3\n        /* \"#utility.yul\":2225:2237   */\n      add\n        /* \"#utility.yul\":2218:2237   */\n      swap1\n      pop\n        /* \"#utility.yul\":1877:2243   */\n      swap2\n      swap1\n      pop\n      jump\t// out\n        /* \"#utility.yul\":2249:2668   */\n    tag_37:\n        /* \"#utility.yul\":2415:2419   */\n      0x00\n        /* \"#utility.yul\":2453:2455   */\n      0x20\n        /* \"#utility.yul\":2442:2451   */\n      dup3\n        /* \"#utility.yul\":2438:2456   */\n      add\n        /* \"#utility.yul\":2430:2456   */\n      swap1\n      pop\n        /* \"#utility.yul\":2502:2511   */\n      dup2\n        /* \"#utility.yul\":2496:2500   */\n      dup2\n        /* \"#utility.yul\":2492:2512   */\n      sub\n        /* \"#utility.yul\":2488:2489   */\n      0x00\n        /* \"#utility.yul\":2477:2486   */\n      dup4\n        /* \"#utility.yul\":2473:2490   */\n      add\n        /* \"#utility.yul\":2466:2513   */\n      mstore\n        /* \"#utility.yul\":2530:2661   */\n      tag_94\n        /* \"#utility.yul\":2656:2660   */\n      dup2\n        /* \"#utility.yul\":2530:2661   */\n      tag_64\n      jump\t// in\n    tag_94:\n        /* \"#utility.yul\":2522:2661   */\n      swap1\n      pop\n        /* \"#utility.yul\":2249:2668   */\n      swap2\n      swap1\n      pop\n      jump\t// out\n        /* \"#utility.yul\":2674:2854   */\n    tag_65:\n        /* \"#utility.yul\":2722:2799   */\n      0x4e487b7100000000000000000000000000000000000000000000000000000000\n        /* \"#utility.yul\":2719:2720   */\n      0x00\n        /* \"#utility.yul\":2712:2800   */\n      mstore\n        /* \"#utility.yul\":2819:2823   */\n      0x11\n        /* \"#utility.yul\":2816:2817   */\n      0x04\n        /* \"#utility.yul\":2809:2824   */\n      mstore\n        /* \"#utility.yul\":2843:2847   */\n      0x24\n        /* \"#utility.yul\":2840:2841   */\n      0x00\n        /* \"#utility.yul\":2833:2848   */\n      revert\n        /* \"#utility.yul\":2860:3054   */\n    tag_39:\n        /* \"#utility.yul\":2900:2904   */\n      0x00\n        /* \"#utility.yul\":2920:2940   */\n      tag_97\n        /* \"#utility.yul\":2938:2939   */\n      dup3\n        /* \"#utility.yul\":2920:2940   */\n      tag_58\n      jump\t// in\n    tag_97:\n        /* \"#utility.yul\":2915:2940   */\n      swap2\n      pop\n        /* \"#utility.yul\":2954:2974   */\n      tag_98\n        /* \"#utility.yul\":2972:2973   */\n      dup4\n        /* \"#utility.yul\":2954:2974   */\n      tag_58\n      jump\t// in\n    tag_98:\n        /* \"#utility.yul\":2949:2974   */\n      swap3\n      pop\n        /* \"#utility.yul\":2998:2999   */\n      dup3\n        /* \"#utility.yul\":2995:2996   */\n      dup3\n        /* \"#utility.yul\":2991:3000   */\n      sub\n        /* \"#utility.yul\":2983:3000   */\n      swap1\n      pop\n        /* \"#utility.yul\":3022:3023   */\n      dup2\n        /* \"#utility.yul\":3016:3020   */\n      dup2\n        /* \"#utility.yul\":3013:3024   */\n      gt\n        /* \"#utility.yul\":3010:3047   */\n      iszero\n      tag_99\n      jumpi\n        /* \"#utility.yul\":3027:3045   */\n      tag_100\n      tag_65\n      jump\t// in\n    tag_100:\n        /* \"#utility.yul\":3010:3047   */\n    tag_99:\n        /* \"#utility.yul\":2860:3054   */\n      swap3\n      swap2\n      pop\n      pop\n      jump\t// out\n        /* \"#utility.yul\":3060:3470   */\n    tag_42:\n        /* \"#utility.yul\":3100:3107   */\n      0x00\n        /* \"#utility.yul\":3123:3143   */\n      tag_102\n        /* \"#utility.yul\":3141:3142   */\n      dup3\n        /* \"#utility.yul\":3123:3143   */\n      tag_58\n      jump\t// in\n    tag_102:\n        /* \"#utility.yul\":3118:3143   */\n      swap2\n      pop\n        /* \"#utility.yul\":3157:3177   */\n      tag_103\n        /* \"#utility.yul\":3175:3176   */\n      dup4\n        /* \"#utility.yul\":3157:3177   */\n      tag_58\n      jump\t// in\n    tag_103:\n        /* \"#utility.yul\":3152:3177   */\n      swap3\n      pop\n        /* \"#utility.yul\":3212:3213   */\n      dup3\n        /* \"#utility.yul\":3209:3210   */\n      dup3\n        /* \"#utility.yul\":3205:3214   */\n      mul\n        /* \"#utility.yul\":3234:3264   */\n      tag_104\n        /* \"#utility.yul\":3252:3263   */\n      dup2\n        /* \"#utility.yul\":3234:3264   */\n      tag_58\n      jump\t// in\n    tag_104:\n        /* \"#utility.yul\":3223:3264   */\n      swap2\n      pop\n        /* \"#utility.yul\":3413:3414   */\n      dup3\n        /* \"#utility.yul\":3404:3411   */\n      dup3\n        /* \"#utility.yul\":3400:3415   */\n      div\n        /* \"#utility.yul\":3397:3398   */\n      dup5\n        /* \"#utility.yul\":3394:3416   */\n      eq\n        /* \"#utility.yul\":3374:3375   */\n      dup4\n        /* \"#utility.yul\":3367:3376   */\n      iszero\n        /* \"#utility.yul\":3347:3430   */\n      or\n        /* \"#utility.yul\":3324:3463   */\n      tag_105\n      jumpi\n        /* \"#utility.yul\":3443:3461   */\n      tag_106\n      tag_65\n      jump\t// in\n    tag_106:\n        /* \"#utility.yul\":3324:3463   */\n    tag_105:\n        /* \"#utility.yul\":3108:3470   */\n      pop\n        /* \"#utility.yul\":3060:3470   */\n      swap3\n      swap2\n      pop\n      pop\n      jump\t// out\n        /* \"#utility.yul\":3476:3667   */\n    tag_45:\n        /* \"#utility.yul\":3516:3519   */\n      0x00\n        /* \"#utility.yul\":3535:3555   */\n      tag_108\n        /* \"#utility.yul\":3553:3554   */\n      dup3\n        /* \"#utility.yul\":3535:3555   */\n      tag_58\n      jump\t// in\n    tag_108:\n        /* \"#utility.yul\":3530:3555   */\n      swap2\n      pop\n        /* \"#utility.yul\":3569:3589   */\n      tag_109\n        /* \"#utility.yul\":3587:3588   */\n      dup4\n        /* \"#utility.yul\":3569:3589   */\n      tag_58\n      jump\t// in\n    tag_109:\n        /* \"#utility.yul\":3564:3589   */\n      swap3\n      pop\n        /* \"#utility.yul\":3612:3613   */\n      dup3\n        /* \"#utility.yul\":3609:3610   */\n      dup3\n        /* \"#utility.yul\":3605:3614   */\n      add\n        /* \"#utility.yul\":3598:3614   */\n      swap1\n      pop\n        /* \"#utility.yul\":3633:3636   */\n      dup1\n        /* \"#utility.yul\":3630:3631   */\n      dup3\n        /* \"#utility.yul\":3627:3637   */\n      gt\n        /* \"#utility.yul\":3624:3660   */\n      iszero\n      tag_110\n      jumpi\n        /* \"#utility.yul\":3640:3658   */\n      tag_111\n      tag_65\n      jump\t// in\n    tag_111:\n        /* \"#utility.yul\":3624:3660   */\n    tag_110:\n        /* \"#utility.yul\":3476:3667   */\n      swap3\n      swap2\n      pop\n      pop\n      jump\t// out\n        /* \"#utility.yul\":3673:3844   */\n    tag_66:\n        /* \"#utility.yul\":3813:3836   */\n      0x5a65726f20506f6461204b6f6f64617468752121210000000000000000000000\n        /* \"#utility.yul\":3809:3810   */\n      0x00\n        /* \"#utility.yul\":3801:3807   */\n      dup3\n        /* \"#utility.yul\":3797:3811   */\n      add\n        /* \"#utility.yul\":3790:3837   */\n      mstore\n        /* \"#utility.yul\":3673:3844   */\n      pop\n      jump\t// out\n        /* \"#utility.yul\":3850:4216   */\n    tag_67:\n        /* \"#utility.yul\":3992:3995   */\n      0x00\n        /* \"#utility.yul\":4013:4080   */\n      tag_114\n        /* \"#utility.yul\":4077:4079   */\n      0x15\n        /* \"#utility.yul\":4072:4075   */\n      dup4\n        /* \"#utility.yul\":4013:4080   */\n      tag_62\n      jump\t// in\n    tag_114:\n        /* \"#utility.yul\":4006:4080   */\n      swap2\n      pop\n        /* \"#utility.yul\":4089:4182   */\n      tag_115\n        /* \"#utility.yul\":4178:4181   */\n      dup3\n        /* \"#utility.yul\":4089:4182   */\n      tag_66\n      jump\t// in\n    tag_115:\n        /* \"#utility.yul\":4207:4209   */\n      0x20\n        /* \"#utility.yul\":4202:4205   */\n      dup3\n        /* \"#utility.yul\":4198:4210   */\n      add\n        /* \"#utility.yul\":4191:4210   */\n      swap1\n      pop\n        /* \"#utility.yul\":3850:4216   */\n      swap2\n      swap1\n      pop\n      jump\t// out\n        /* \"#utility.yul\":4222:4641   */\n    tag_49:\n        /* \"#utility.yul\":4388:4392   */\n      0x00\n        /* \"#utility.yul\":4426:4428   */\n      0x20\n        /* \"#utility.yul\":4415:4424   */\n      dup3\n        /* \"#utility.yul\":4411:4429   */\n      add\n        /* \"#utility.yul\":4403:4429   */\n      swap1\n      pop\n        /* \"#utility.yul\":4475:4484   */\n      dup2\n        /* \"#utility.yul\":4469:4473   */\n      dup2\n        /* \"#utility.yul\":4465:4485   */\n      sub\n        /* \"#utility.yul\":4461:4462   */\n      0x00\n        /* \"#utility.yul\":4450:4459   */\n      dup4\n        /* \"#utility.yul\":4446:4463   */\n      add\n        /* \"#utility.yul\":4439:4486   */\n      mstore\n        /* \"#utility.yul\":4503:4634   */\n      tag_117\n        /* \"#utility.yul\":4629:4633   */\n      dup2\n        /* \"#utility.yul\":4503:4634   */\n      tag_67\n      jump\t// in\n    tag_117:\n        /* \"#utility.yul\":4495:4634   */\n      swap1\n      pop\n        /* \"#utility.yul\":4222:4641   */\n      swap2\n      swap1\n      pop\n      jump\t// out\n        /* \"#utility.yul\":4647:4827   */\n    tag_68:\n        /* \"#utility.yul\":4695:4772   */\n      0x4e487b7100000000000000000000000000000000000000000000000000000000\n        /* \"#utility.yul\":4692:4693   */\n      0x00\n        /* \"#utility.yul\":4685:4773   */\n      mstore\n        /* \"#utility.yul\":4792:4796   */\n      0x12\n        /* \"#utility.yul\":4789:4790   */\n      0x04\n        /* \"#utility.yul\":4782:4797   */\n      mstore\n        /* \"#utility.yul\":4816:4820   */\n      0x24\n        /* \"#utility.yul\":4813:4814   */\n      0x00\n        /* \"#utility.yul\":4806:4821   */\n      revert\n        /* \"#utility.yul\":4833:5018   */\n    tag_51:\n        /* \"#utility.yul\":4873:4874   */\n      0x00\n        /* \"#utility.yul\":4890:4910   */\n      tag_120\n        /* \"#utility.yul\":4908:4909   */\n      dup3\n        /* \"#utility.yul\":4890:4910   */\n      tag_58\n      jump\t// in\n    tag_120:\n        /* \"#utility.yul\":4885:4910   */\n      swap2\n      pop\n        /* \"#utility.yul\":4924:4944   */\n      tag_121\n        /* \"#utility.yul\":4942:4943   */\n      dup4\n        /* \"#utility.yul\":4924:4944   */\n      tag_58\n      jump\t// in\n    tag_121:\n        /* \"#utility.yul\":4919:4944   */\n      swap3\n      pop\n        /* \"#utility.yul\":4963:4964   */\n      dup3\n        /* \"#utility.yul\":4953:4988   */\n      tag_122\n      jumpi\n        /* \"#utility.yul\":4968:4986   */\n      tag_123\n      tag_68\n      jump\t// in\n    tag_123:\n        /* \"#utility.yul\":4953:4988   */\n    tag_122:\n        /* \"#utility.yul\":5010:5011   */\n      dup3\n        /* \"#utility.yul\":5007:5008   */\n      dup3\n        /* \"#utility.yul\":5003:5012   */\n      div\n        /* \"#utility.yul\":4998:5012   */\n      swap1\n      pop\n        /* \"#utility.yul\":4833:5018   */\n      swap3\n      swap2\n      pop\n      pop\n      jump\t// out\n        /* \"#utility.yul\":5024:5200   */\n    tag_54:\n        /* \"#utility.yul\":5056:5057   */\n      0x00\n        /* \"#utility.yul\":5073:5093   */\n      tag_125\n        /* \"#utility.yul\":5091:5092   */\n      dup3\n        /* \"#utility.yul\":5073:5093   */\n      tag_58\n      jump\t// in\n    tag_125:\n        /* \"#utility.yul\":5068:5093   */\n      swap2\n      pop\n        /* \"#utility.yul\":5107:5127   */\n      tag_126\n        /* \"#utility.yul\":5125:5126   */\n      dup4\n        /* \"#utility.yul\":5107:5127   */\n      tag_58\n      jump\t// in\n    tag_126:\n        /* \"#utility.yul\":5102:5127   */\n      swap3\n      pop\n        /* \"#utility.yul\":5146:5147   */\n      dup3\n        /* \"#utility.yul\":5136:5171   */\n      tag_127\n      jumpi\n        /* \"#utility.yul\":5151:5169   */\n      tag_128\n      tag_68\n      jump\t// in\n    tag_128:\n        /* \"#utility.yul\":5136:5171   */\n    tag_127:\n        /* \"#utility.yul\":5192:5193   */\n      dup3\n        /* \"#utility.yul\":5189:5190   */\n      dup3\n        /* \"#utility.yul\":5185:5194   */\n      mod\n        /* \"#utility.yul\":5180:5194   */\n      swap1\n      pop\n        /* \"#utility.yul\":5024:5200   */\n      swap3\n      swap2\n      pop\n      pop\n      jump\t// out\n\n    auxdata: 0xa26469706673582212204df136706a28cf0d55b50cac54474d1f6bef95653071c2ce1098e53361c3982a64736f6c634300081a0033\n}\n",
				"bytecode": {
					"linkReferences": {},
					"object": "6080604052348015600e575f80fd5b5061059c8061001c5f395ff3fe608060405234801561000f575f80fd5b5060043610610060575f3560e01c80631ec9c2c014610064578063609537441461009457806365372147146100c4578063771602f7146100e2578063a391c15b14610112578063f43f523a14610142575b5f80fd5b61007e600480360381019061007991906102bf565b610172565b60405161008b919061030c565b60405180910390f35b6100ae60048036038101906100a991906102bf565b6101d1565b6040516100bb919061030c565b60405180910390f35b6100cc6101ed565b6040516100d9919061030c565b60405180910390f35b6100fc60048036038101906100f791906102bf565b6101f2565b604051610109919061030c565b60405180910390f35b61012c600480360381019061012791906102bf565b61020e565b604051610139919061030c565b60405180910390f35b61015c600480360381019061015791906102bf565b61026c565b604051610169919061030c565b60405180910390f35b5f818310156101b6576040517f08c379a00000000000000000000000000000000000000000000000000000000081526004016101ad9061037f565b60405180910390fd5b81836101c291906103ca565b5f819055505f54905092915050565b5f81836101de91906103fd565b5f819055505f54905092915050565b5f5481565b5f81836101ff919061043e565b5f819055505f54905092915050565b5f808203610251576040517f08c379a0000000000000000000000000000000000000000000000000000000008152600401610248906104bb565b60405180910390fd5b818361025d9190610506565b5f819055505f54905092915050565b5f81836102799190610536565b5f819055505f54905092915050565b5f80fd5b5f819050919050565b61029e8161028c565b81146102a8575f80fd5b50565b5f813590506102b981610295565b92915050565b5f80604083850312156102d5576102d4610288565b5b5f6102e2858286016102ab565b92505060206102f3858286016102ab565b9150509250929050565b6103068161028c565b82525050565b5f60208201905061031f5f8301846102fd565b92915050565b5f82825260208201905092915050565b7f436865636b20746865204e756d6265722042726f2121212100000000000000005f82015250565b5f610369601883610325565b915061037482610335565b602082019050919050565b5f6020820190508181035f8301526103968161035d565b9050919050565b7f4e487b71000000000000000000000000000000000000000000000000000000005f52601160045260245ffd5b5f6103d48261028c565b91506103df8361028c565b92508282039050818111156103f7576103f661039d565b5b92915050565b5f6104078261028c565b91506104128361028c565b92508282026104208161028c565b915082820484148315176104375761043661039d565b5b5092915050565b5f6104488261028c565b91506104538361028c565b925082820190508082111561046b5761046a61039d565b5b92915050565b7f5a65726f20506f6461204b6f6f646174687521212100000000000000000000005f82015250565b5f6104a5601583610325565b91506104b082610471565b602082019050919050565b5f6020820190508181035f8301526104d281610499565b9050919050565b7f4e487b71000000000000000000000000000000000000000000000000000000005f52601260045260245ffd5b5f6105108261028c565b915061051b8361028c565b92508261052b5761052a6104d9565b5b828204905092915050565b5f6105408261028c565b915061054b8361028c565b92508261055b5761055a6104d9565b5b82820690509291505056fea26469706673582212204df136706a28cf0d55b50cac54474d1f6bef95653071c2ce1098e53361c3982a64736f6c634300081a0033",
					"opcodes": "PUSH1 0x80 PUSH1 0x40 MSTORE CALLVALUE DUP1 ISZERO PUSH1 0xE JUMPI PUSH0 DUP1 REVERT JUMPDEST POP PUSH2 0x59C DUP1 PUSH2 0x1C PUSH0 CODECOPY PUSH0 RETURN INVALID PUSH1 0x80 PUSH1 0x40 MSTORE CALLVALUE DUP1 ISZERO PUSH2 0xF JUMPI PUSH0 DUP1 REVERT JUMPDEST POP PUSH1 0x4 CALLDATASIZE LT PUSH2 0x60 JUMPI PUSH0 CALLDATALOAD PUSH1 0xE0 SHR DUP1 PUSH4 0x1EC9C2C0 EQ PUSH2 0x64 JUMPI DUP1 PUSH4 0x60953744 EQ PUSH2 0x94 JUMPI DUP1 PUSH4 0x65372147 EQ PUSH2 0xC4 JUMPI DUP1 PUSH4 0x771602F7 EQ PUSH2 0xE2 JUMPI DUP1 PUSH4 0xA391C15B EQ PUSH2 0x112 JUMPI DUP1 PUSH4 0xF43F523A EQ PUSH2 0x142 JUMPI JUMPDEST PUSH0 DUP1 REVERT JUMPDEST PUSH2 0x7E PUSH1 0x4 DUP1 CALLDATASIZE SUB DUP2 ADD SWAP1 PUSH2 0x79 SWAP2 SWAP1 PUSH2 0x2BF JUMP JUMPDEST PUSH2 0x172 JUMP JUMPDEST PUSH1 0x40 MLOAD PUSH2 0x8B SWAP2 SWAP1 PUSH2 0x30C JUMP JUMPDEST PUSH1 0x40 MLOAD DUP1 SWAP2 SUB SWAP1 RETURN JUMPDEST PUSH2 0xAE PUSH1 0x4 DUP1 CALLDATASIZE SUB DUP2 ADD SWAP1 PUSH2 0xA9 SWAP2 SWAP1 PUSH2 0x2BF JUMP JUMPDEST PUSH2 0x1D1 JUMP JUMPDEST PUSH1 0x40 MLOAD PUSH2 0xBB SWAP2 SWAP1 PUSH2 0x30C JUMP JUMPDEST PUSH1 0x40 MLOAD DUP1 SWAP2 SUB SWAP1 RETURN JUMPDEST PUSH2 0xCC PUSH2 0x1ED JUMP JUMPDEST PUSH1 0x40 MLOAD PUSH2 0xD9 SWAP2 SWAP1 PUSH2 0x30C JUMP JUMPDEST PUSH1 0x40 MLOAD DUP1 SWAP2 SUB SWAP1 RETURN JUMPDEST PUSH2 0xFC PUSH1 0x4 DUP1 CALLDATASIZE SUB DUP2 ADD SWAP1 PUSH2 0xF7 SWAP2 SWAP1 PUSH2 0x2BF JUMP JUMPDEST PUSH2 0x1F2 JUMP JUMPDEST PUSH1 0x40 MLOAD PUSH2 0x109 SWAP2 SWAP1 PUSH2 0x30C JUMP JUMPDEST PUSH1 0x40 MLOAD DUP1 SWAP2 SUB SWAP1 RETURN JUMPDEST PUSH2 0x12C PUSH1 0x4 DUP1 CALLDATASIZE SUB DUP2 ADD SWAP1 PUSH2 0x127 SWAP2 SWAP1 PUSH2 0x2BF JUMP JUMPDEST PUSH2 0x20E JUMP JUMPDEST PUSH1 0x40 MLOAD PUSH2 0x139 SWAP2 SWAP1 PUSH2 0x30C JUMP JUMPDEST PUSH1 0x40 MLOAD DUP1 SWAP2 SUB SWAP1 RETURN JUMPDEST PUSH2 0x15C PUSH1 0x4 DUP1 CALLDATASIZE SUB DUP2 ADD SWAP1 PUSH2 0x157 SWAP2 SWAP1 PUSH2 0x2BF JUMP JUMPDEST PUSH2 0x26C JUMP JUMPDEST PUSH1 0x40 MLOAD PUSH2 0x169 SWAP2 SWAP1 PUSH2 0x30C JUMP JUMPDEST PUSH1 0x40 MLOAD DUP1 SWAP2 SUB SWAP1 RETURN JUMPDEST PUSH0 DUP2 DUP4 LT ISZERO PUSH2 0x1B6 JUMPI PUSH1 0x40 MLOAD PUSH32 0x8C379A000000000000000000000000000000000000000000000000000000000 DUP2 MSTORE PUSH1 0x4 ADD PUSH2 0x1AD SWAP1 PUSH2 0x37F JUMP JUMPDEST PUSH1 0x40 MLOAD DUP1 SWAP2 SUB SWAP1 REVERT JUMPDEST DUP2 DUP4 PUSH2 0x1C2 SWAP2 SWAP1 PUSH2 0x3CA JUMP JUMPDEST PUSH0 DUP2 SWAP1 SSTORE POP PUSH0 SLOAD SWAP1 POP SWAP3 SWAP2 POP POP JUMP JUMPDEST PUSH0 DUP2 DUP4 PUSH2 0x1DE SWAP2 SWAP1 PUSH2 0x3FD JUMP JUMPDEST PUSH0 DUP2 SWAP1 SSTORE POP PUSH0 SLOAD SWAP1 POP SWAP3 SWAP2 POP POP JUMP JUMPDEST PUSH0 SLOAD DUP2 JUMP JUMPDEST PUSH0 DUP2 DUP4 PUSH2 0x1FF SWAP2 SWAP1 PUSH2 0x43E JUMP JUMPDEST PUSH0 DUP2 SWAP1 SSTORE POP PUSH0 SLOAD SWAP1 POP SWAP3 SWAP2 POP POP JUMP JUMPDEST PUSH0 DUP1 DUP3 SUB PUSH2 0x251 JUMPI PUSH1 0x40 MLOAD PUSH32 0x8C379A000000000000000000000000000000000000000000000000000000000 DUP2 MSTORE PUSH1 0x4 ADD PUSH2 0x248 SWAP1 PUSH2 0x4BB JUMP JUMPDEST PUSH1 0x40 MLOAD DUP1 SWAP2 SUB SWAP1 REVERT JUMPDEST DUP2 DUP4 PUSH2 0x25D SWAP2 SWAP1 PUSH2 0x506 JUMP JUMPDEST PUSH0 DUP2 SWAP1 SSTORE POP PUSH0 SLOAD SWAP1 POP SWAP3 SWAP2 POP POP JUMP JUMPDEST PUSH0 DUP2 DUP4 PUSH2 0x279 SWAP2 SWAP1 PUSH2 0x536 JUMP JUMPDEST PUSH0 DUP2 SWAP1 SSTORE POP PUSH0 SLOAD SWAP1 POP SWAP3 SWAP2 POP POP JUMP JUMPDEST PUSH0 DUP1 REVERT JUMPDEST PUSH0 DUP2 SWAP1 POP SWAP2 SWAP1 POP JUMP JUMPDEST PUSH2 0x29E DUP2 PUSH2 0x28C JUMP JUMPDEST DUP2 EQ PUSH2 0x2A8 JUMPI PUSH0 DUP1 REVERT JUMPDEST POP JUMP JUMPDEST PUSH0 DUP2 CALLDATALOAD SWAP1 POP PUSH2 0x2B9 DUP2 PUSH2 0x295 JUMP JUMPDEST SWAP3 SWAP2 POP POP JUMP JUMPDEST PUSH0 DUP1 PUSH1 0x40 DUP4 DUP6 SUB SLT ISZERO PUSH2 0x2D5 JUMPI PUSH2 0x2D4 PUSH2 0x288 JUMP JUMPDEST JUMPDEST PUSH0 PUSH2 0x2E2 DUP6 DUP3 DUP7 ADD PUSH2 0x2AB JUMP JUMPDEST SWAP3 POP POP PUSH1 0x20 PUSH2 0x2F3 DUP6 DUP3 DUP7 ADD PUSH2 0x2AB JUMP JUMPDEST SWAP2 POP POP SWAP3 POP SWAP3 SWAP1 POP JUMP JUMPDEST PUSH2 0x306 DUP2 PUSH2 0x28C JUMP JUMPDEST DUP3 MSTORE POP POP JUMP JUMPDEST PUSH0 PUSH1 0x20 DUP3 ADD SWAP1 POP PUSH2 0x31F PUSH0 DUP4 ADD DUP5 PUSH2 0x2FD JUMP JUMPDEST SWAP3 SWAP2 POP POP JUMP JUMPDEST PUSH0 DUP3 DUP3 MSTORE PUSH1 0x20 DUP3 ADD SWAP1 POP SWAP3 SWAP2 POP POP JUMP JUMPDEST PUSH32 0x436865636B20746865204E756D6265722042726F212121210000000000000000 PUSH0 DUP3 ADD MSTORE POP JUMP JUMPDEST PUSH0 PUSH2 0x369 PUSH1 0x18 DUP4 PUSH2 0x325 JUMP JUMPDEST SWAP2 POP PUSH2 0x374 DUP3 PUSH2 0x335 JUMP JUMPDEST PUSH1 0x20 DUP3 ADD SWAP1 POP SWAP2 SWAP1 POP JUMP JUMPDEST PUSH0 PUSH1 0x20 DUP3 ADD SWAP1 POP DUP2 DUP2 SUB PUSH0 DUP4 ADD MSTORE PUSH2 0x396 DUP2 PUSH2 0x35D JUMP JUMPDEST SWAP1 POP SWAP2 SWAP1 POP JUMP JUMPDEST PUSH32 0x4E487B7100000000000000000000000000000000000000000000000000000000 PUSH0 MSTORE PUSH1 0x11 PUSH1 0x4 MSTORE PUSH1 0x24 PUSH0 REVERT JUMPDEST PUSH0 PUSH2 0x3D4 DUP3 PUSH2 0x28C JUMP JUMPDEST SWAP2 POP PUSH2 0x3DF DUP4 PUSH2 0x28C JUMP JUMPDEST SWAP3 POP DUP3 DUP3 SUB SWAP1 POP DUP2 DUP2 GT ISZERO PUSH2 0x3F7 JUMPI PUSH2 0x3F6 PUSH2 0x39D JUMP JUMPDEST JUMPDEST SWAP3 SWAP2 POP POP JUMP JUMPDEST PUSH0 PUSH2 0x407 DUP3 PUSH2 0x28C JUMP JUMPDEST SWAP2 POP PUSH2 0x412 DUP4 PUSH2 0x28C JUMP JUMPDEST SWAP3 POP DUP3 DUP3 MUL PUSH2 0x420 DUP2 PUSH2 0x28C JUMP JUMPDEST SWAP2 POP DUP3 DUP3 DIV DUP5 EQ DUP4 ISZERO OR PUSH2 0x437 JUMPI PUSH2 0x436 PUSH2 0x39D JUMP JUMPDEST JUMPDEST POP SWAP3 SWAP2 POP POP JUMP JUMPDEST PUSH0 PUSH2 0x448 DUP3 PUSH2 0x28C JUMP JUMPDEST SWAP2 POP PUSH2 0x453 DUP4 PUSH2 0x28C JUMP JUMPDEST SWAP3 POP DUP3 DUP3 ADD SWAP1 POP DUP1 DUP3 GT ISZERO PUSH2 0x46B JUMPI PUSH2 0x46A PUSH2 0x39D JUMP JUMPDEST JUMPDEST SWAP3 SWAP2 POP POP JUMP JUMPDEST PUSH32 0x5A65726F20506F6461204B6F6F64617468752121210000000000000000000000 PUSH0 DUP3 ADD MSTORE POP JUMP JUMPDEST PUSH0 PUSH2 0x4A5 PUSH1 0x15 DUP4 PUSH2 0x325 JUMP JUMPDEST SWAP2 POP PUSH2 0x4B0 DUP3 PUSH2 0x471 JUMP JUMPDEST PUSH1 0x20 DUP3 ADD SWAP1 POP SWAP2 SWAP1 POP JUMP JUMPDEST PUSH0 PUSH1 0x20 DUP3 ADD SWAP1 POP DUP2 DUP2 SUB PUSH0 DUP4 ADD MSTORE PUSH2 0x4D2 DUP2 PUSH2 0x499 JUMP JUMPDEST SWAP1 POP SWAP2 SWAP1 POP JUMP JUMPDEST PUSH32 0x4E487B7100000000000000000000000000000000000000000000000000000000 PUSH0 MSTORE PUSH1 0x12 PUSH1 0x4 MSTORE PUSH1 0x24 PUSH0 REVERT JUMPDEST PUSH0 PUSH2 0x510 DUP3 PUSH2 0x28C JUMP JUMPDEST SWAP2 POP PUSH2 0x51B DUP4 PUSH2 0x28C JUMP JUMPDEST SWAP3 POP DUP3 PUSH2 0x52B JUMPI PUSH2 0x52A PUSH2 0x4D9 JUMP JUMPDEST JUMPDEST DUP3 DUP3 DIV SWAP1 POP SWAP3 SWAP2 POP POP JUMP JUMPDEST PUSH0 PUSH2 0x540 DUP3 PUSH2 0x28C JUMP JUMPDEST SWAP2 POP PUSH2 0x54B DUP4 PUSH2 0x28C JUMP JUMPDEST SWAP3 POP DUP3 PUSH2 0x55B JUMPI PUSH2 0x55A PUSH2 0x4D9 JUMP JUMPDEST JUMPDEST DUP3 DUP3 MOD SWAP1 POP SWAP3 SWAP2 POP POP JUMP INVALID LOG2 PUSH5 0x6970667358 0x22 SLT KECCAK256 0x4D CALL CALLDATASIZE PUSH17 0x6A28CF0D55B50CAC54474D1F6BEF956530 PUSH18 0xC2CE1098E53361C3982A64736F6C63430008 BYTE STOP CALLER "
				},
				"gasEstimates": {
					"creation": {
						"codeDepositCost": "287200",
						"executionCost": "322",
						"totalCost": "287522"
					},
					"external": {
						"Mul(uint256,uint256)": "infinite",
						"Sub(uint256,uint256)": "infinite",
						"add(uint256,uint256)": "infinite",
						"div(uint256,uint256)": "infinite",
						"mod(uint256,uint256)": "infinite",
						"result()": "2446"
					}
				},
				"methodIdentifiers": {
					"Mul(uint256,uint256)": "60953744",
					"Sub(uint256,uint256)": "1ec9c2c0",
					"add(uint256,uint256)": "771602f7",
					"div(uint256,uint256)": "a391c15b",
					"mod(uint256,uint256)": "f43f523a",
					"result()": "65372147"
				}
			},
			"storageLayout": {
				"storage": [
					{
						"astId": 3,
						"contract": "Innovation/calc.sol:calculator",
						"label": "result",
						"offset": 0,
						"slot": "0",
						"type": "t_uint256"
					}
				],
				"types": {
					"t_uint256": {
						"encoding": "inplace",
						"label": "uint256",
						"numberOfBytes": "32"
					}
				}
			},
			"userdoc": {
				"kind": "user",
				"methods": {},
				"version": 1
			}
		}
	}
}