{
	"Innovation/MiniProject.sol": {
		"mini_project": {
			"abi": [
				{
					"inputs": [],
					"stateMutability": "nonpayable",
					"type": "constructor"
				},
				{
					"anonymous": false,
					"inputs": [
						{
							"indexed": false,
							"internalType": "string",
							"name": "mymsg",
							"type": "string"
						}
					],
					"name": "Status_set",
					"type": "event"
				},
				{
					"inputs": [],
					"name": "Get_amount",
					"outputs": [],
					"stateMutability": "payable",
					"type": "function"
				},
				{
					"inputs": [
						{
							"internalType": "address",
							"name": "new_add",
							"type": "address"
						}
					],
					"name": "Owner_ship",
					"outputs": [],
					"stateMutability": "nonpayable",
					"type": "function"
				},
				{
					"inputs": [],
					"name": "amount",
					"outputs": [
						{
							"internalType": "uint256",
							"name": "",
							"type": "uint256"
						}
					],
					"stateMutability": "view",
					"type": "function"
				},
				{
					"inputs": [],
					"name": "get_status",
					"outputs": [
						{
							"internalType": "enum mini_project.Status",
							"name": "",
							"type": "uint8"
						}
					],
					"stateMutability": "view",
					"type": "function"
				},
				{
					"inputs": [],
					"name": "message",
					"outputs": [
						{
							"internalType": "string",
							"name": "",
							"type": "string"
						}
					],
					"stateMutability": "view",
					"type": "function"
				},
				{
					"inputs": [],
					"name": "new_owner",
					"outputs": [
						{
							"internalType": "address",
							"name": "",
							"type": "address"
						}
					],
					"stateMutability": "view",
					"type": "function"
				},
				{
					"inputs": [],
					"name": "owner",
					"outputs": [
						{
							"internalType": "address",
							"name": "",
							"type": "address"
						}
					],
					"stateMutability": "view",
					"type": "function"
				},
				{
					"inputs": [
						{
							"internalType": "enum mini_project.Status",
							"name": "x",
							"type": "uint8"
						}
					],
					"name": "set_status",
					"outputs": [
						{
							"internalType": "string",
							"name": "",
							"type": "string"
						}
					],
					"stateMutability": "nonpayable",
					"type": "function"
				},
				{
					"inputs": [],
					"name": "update_balance",
					"outputs": [
						{
							"internalType": "uint256",
							"name": "",
							"type": "uint256"
						}
					],
					"stateMutability": "nonpayable",
					"type": "function"
				}
			],
			"devdoc": {
				"kind": "dev",
				"methods": {},
				"version": 1
			},
			"evm": {
				"assembly": "    /* \"Innovation/MiniProject.sol\":58:1888  contract mini_project {... */\n  mstore(0x40, 0x80)\n    /* \"Innovation/MiniProject.sol\":170:203  string public message = \"Welcome\" */\n  mload(0x40)\n  dup1\n  0x40\n  add\n  0x40\n  mstore\n  dup1\n  0x07\n  dup2\n  mstore\n  0x20\n  add\n  0x57656c636f6d6500000000000000000000000000000000000000000000000000\n  dup2\n  mstore\n  pop\n  0x03\n  swap1\n  dup2\n  tag_1\n  swap2\n  swap1\n  tag_2\n  jump\t// in\ntag_1:\n  pop\n    /* \"Innovation/MiniProject.sol\":210:259  constructor() {... */\n  callvalue\n  dup1\n  iszero\n  tag_3\n  jumpi\n  revert(0x00, 0x00)\ntag_3:\n  pop\n    /* \"Innovation/MiniProject.sol\":242:252  msg.sender */\n  caller\n    /* \"Innovation/MiniProject.sol\":234:239  owner */\n  0x00\n  0x00\n    /* \"Innovation/MiniProject.sol\":234:252  owner = msg.sender */\n  0x0100\n  exp\n  dup2\n  sload\n  dup2\n  0xffffffffffffffffffffffffffffffffffffffff\n  mul\n  not\n  and\n  swap1\n  dup4\n  0xffffffffffffffffffffffffffffffffffffffff\n  and\n  mul\n  or\n  swap1\n  sstore\n  pop\n    /* \"Innovation/MiniProject.sol\":58:1888  contract mini_project {... */\n  jump(tag_6)\n    /* \"#utility.yul\":7:106   */\ntag_7:\n    /* \"#utility.yul\":59:65   */\n  0x00\n    /* \"#utility.yul\":93:98   */\n  dup2\n    /* \"#utility.yul\":87:99   */\n  mload\n    /* \"#utility.yul\":77:99   */\n  swap1\n  pop\n    /* \"#utility.yul\":7:106   */\n  swap2\n  swap1\n  pop\n  jump\t// out\n    /* \"#utility.yul\":112:292   */\ntag_8:\n    /* \"#utility.yul\":160:237   */\n  0x4e487b7100000000000000000000000000000000000000000000000000000000\n    /* \"#utility.yul\":157:158   */\n  0x00\n    /* \"#utility.yul\":150:238   */\n  mstore\n    /* \"#utility.yul\":257:261   */\n  0x41\n    /* \"#utility.yul\":254:255   */\n  0x04\n    /* \"#utility.yul\":247:262   */\n  mstore\n    /* \"#utility.yul\":281:285   */\n  0x24\n    /* \"#utility.yul\":278:279   */\n  0x00\n    /* \"#utility.yul\":271:286   */\n  revert\n    /* \"#utility.yul\":298:478   */\ntag_9:\n    /* \"#utility.yul\":346:423   */\n  0x4e487b7100000000000000000000000000000000000000000000000000000000\n    /* \"#utility.yul\":343:344   */\n  0x00\n    /* \"#utility.yul\":336:424   */\n  mstore\n    /* \"#utility.yul\":443:447   */\n  0x22\n    /* \"#utility.yul\":440:441   */\n  0x04\n    /* \"#utility.yul\":433:448   */\n  mstore\n    /* \"#utility.yul\":467:471   */\n  0x24\n    /* \"#utility.yul\":464:465   */\n  0x00\n    /* \"#utility.yul\":457:472   */\n  revert\n    /* \"#utility.yul\":484:804   */\ntag_10:\n    /* \"#utility.yul\":528:534   */\n  0x00\n    /* \"#utility.yul\":565:566   */\n  0x02\n    /* \"#utility.yul\":559:563   */\n  dup3\n    /* \"#utility.yul\":555:567   */\n  div\n    /* \"#utility.yul\":545:567   */\n  swap1\n  pop\n    /* \"#utility.yul\":612:613   */\n  0x01\n    /* \"#utility.yul\":606:610   */\n  dup3\n    /* \"#utility.yul\":602:614   */\n  and\n    /* \"#utility.yul\":633:651   */\n  dup1\n    /* \"#utility.yul\":623:704   */\n  tag_32\n  jumpi\n    /* \"#utility.yul\":689:693   */\n  0x7f\n    /* \"#utility.yul\":681:687   */\n  dup3\n    /* \"#utility.yul\":677:694   */\n  and\n    /* \"#utility.yul\":667:694   */\n  swap2\n  pop\n    /* \"#utility.yul\":623:704   */\ntag_32:\n    /* \"#utility.yul\":751:753   */\n  0x20\n    /* \"#utility.yul\":743:749   */\n  dup3\n    /* \"#utility.yul\":740:754   */\n  lt\n    /* \"#utility.yul\":720:738   */\n  dup2\n    /* \"#utility.yul\":717:755   */\n  sub\n    /* \"#utility.yul\":714:798   */\n  tag_33\n  jumpi\n    /* \"#utility.yul\":770:788   */\n  tag_34\n  tag_9\n  jump\t// in\ntag_34:\n    /* \"#utility.yul\":714:798   */\ntag_33:\n    /* \"#utility.yul\":535:804   */\n  pop\n    /* \"#utility.yul\":484:804   */\n  swap2\n  swap1\n  pop\n  jump\t// out\n    /* \"#utility.yul\":810:951   */\ntag_11:\n    /* \"#utility.yul\":859:863   */\n  0x00\n    /* \"#utility.yul\":882:885   */\n  dup2\n    /* \"#utility.yul\":874:885   */\n  swap1\n  pop\n    /* \"#utility.yul\":905:908   */\n  dup2\n    /* \"#utility.yul\":902:903   */\n  0x00\n    /* \"#utility.yul\":895:909   */\n  mstore\n    /* \"#utility.yul\":939:943   */\n  0x20\n    /* \"#utility.yul\":936:937   */\n  0x00\n    /* \"#utility.yul\":926:944   */\n  keccak256\n    /* \"#utility.yul\":918:944   */\n  swap1\n  pop\n    /* \"#utility.yul\":810:951   */\n  swap2\n  swap1\n  pop\n  jump\t// out\n    /* \"#utility.yul\":957:1050   */\ntag_12:\n    /* \"#utility.yul\":994:1000   */\n  0x00\n    /* \"#utility.yul\":1041:1043   */\n  0x20\n    /* \"#utility.yul\":1036:1038   */\n  0x1f\n    /* \"#utility.yul\":1029:1034   */\n  dup4\n    /* \"#utility.yul\":1025:1039   */\n  add\n    /* \"#utility.yul\":1021:1044   */\n  div\n    /* \"#utility.yul\":1011:1044   */\n  swap1\n  pop\n    /* \"#utility.yul\":957:1050   */\n  swap2\n  swap1\n  pop\n  jump\t// out\n    /* \"#utility.yul\":1056:1163   */\ntag_13:\n    /* \"#utility.yul\":1100:1108   */\n  0x00\n    /* \"#utility.yul\":1150:1155   */\n  dup3\n    /* \"#utility.yul\":1144:1148   */\n  dup3\n    /* \"#utility.yul\":1140:1156   */\n  shl\n    /* \"#utility.yul\":1119:1156   */\n  swap1\n  pop\n    /* \"#utility.yul\":1056:1163   */\n  swap3\n  swap2\n  pop\n  pop\n  jump\t// out\n    /* \"#utility.yul\":1169:1562   */\ntag_14:\n    /* \"#utility.yul\":1238:1244   */\n  0x00\n    /* \"#utility.yul\":1288:1289   */\n  0x08\n    /* \"#utility.yul\":1276:1286   */\n  dup4\n    /* \"#utility.yul\":1272:1290   */\n  mul\n    /* \"#utility.yul\":1311:1408   */\n  tag_39\n    /* \"#utility.yul\":1341:1407   */\n  0xffffffffffffffffffffffffffffffffffffffffffffffffffffffffffffffff\n    /* \"#utility.yul\":1330:1339   */\n  dup3\n    /* \"#utility.yul\":1311:1408   */\n  tag_13\n  jump\t// in\ntag_39:\n    /* \"#utility.yul\":1429:1468   */\n  tag_40\n    /* \"#utility.yul\":1459:1467   */\n  dup7\n    /* \"#utility.yul\":1448:1457   */\n  dup4\n    /* \"#utility.yul\":1429:1468   */\n  tag_13\n  jump\t// in\ntag_40:\n    /* \"#utility.yul\":1417:1468   */\n  swap6\n  pop\n    /* \"#utility.yul\":1501:1505   */\n  dup1\n    /* \"#utility.yul\":1497:1506   */\n  not\n    /* \"#utility.yul\":1490:1495   */\n  dup5\n    /* \"#utility.yul\":1486:1507   */\n  and\n    /* \"#utility.yul\":1477:1507   */\n  swap4\n  pop\n    /* \"#utility.yul\":1550:1554   */\n  dup1\n    /* \"#utility.yul\":1540:1548   */\n  dup7\n    /* \"#utility.yul\":1536:1555   */\n  and\n    /* \"#utility.yul\":1529:1534   */\n  dup5\n    /* \"#utility.yul\":1526:1556   */\n  or\n    /* \"#utility.yul\":1516:1556   */\n  swap3\n  pop\n    /* \"#utility.yul\":1245:1562   */\n  pop\n  pop\n    /* \"#utility.yul\":1169:1562   */\n  swap4\n  swap3\n  pop\n  pop\n  pop\n  jump\t// out\n    /* \"#utility.yul\":1568:1645   */\ntag_15:\n    /* \"#utility.yul\":1605:1612   */\n  0x00\n    /* \"#utility.yul\":1634:1639   */\n  dup2\n    /* \"#utility.yul\":1623:1639   */\n  swap1\n  pop\n    /* \"#utility.yul\":1568:1645   */\n  swap2\n  swap1\n  pop\n  jump\t// out\n    /* \"#utility.yul\":1651:1711   */\ntag_16:\n    /* \"#utility.yul\":1679:1682   */\n  0x00\n    /* \"#utility.yul\":1700:1705   */\n  dup2\n    /* \"#utility.yul\":1693:1705   */\n  swap1\n  pop\n    /* \"#utility.yul\":1651:1711   */\n  swap2\n  swap1\n  pop\n  jump\t// out\n    /* \"#utility.yul\":1717:1859   */\ntag_17:\n    /* \"#utility.yul\":1767:1776   */\n  0x00\n    /* \"#utility.yul\":1800:1853   */\n  tag_44\n    /* \"#utility.yul\":1818:1852   */\n  tag_45\n    /* \"#utility.yul\":1827:1851   */\n  tag_46\n    /* \"#utility.yul\":1845:1850   */\n  dup5\n    /* \"#utility.yul\":1827:1851   */\n  tag_15\n  jump\t// in\ntag_46:\n    /* \"#utility.yul\":1818:1852   */\n  tag_16\n  jump\t// in\ntag_45:\n    /* \"#utility.yul\":1800:1853   */\n  tag_15\n  jump\t// in\ntag_44:\n    /* \"#utility.yul\":1787:1853   */\n  swap1\n  pop\n    /* \"#utility.yul\":1717:1859   */\n  swap2\n  swap1\n  pop\n  jump\t// out\n    /* \"#utility.yul\":1865:1940   */\ntag_18:\n    /* \"#utility.yul\":1908:1911   */\n  0x00\n    /* \"#utility.yul\":1929:1934   */\n  dup2\n    /* \"#utility.yul\":1922:1934   */\n  swap1\n  pop\n    /* \"#utility.yul\":1865:1940   */\n  swap2\n  swap1\n  pop\n  jump\t// out\n    /* \"#utility.yul\":1946:2215   */\ntag_19:\n    /* \"#utility.yul\":2056:2095   */\n  tag_49\n    /* \"#utility.yul\":2087:2094   */\n  dup4\n    /* \"#utility.yul\":2056:2095   */\n  tag_17\n  jump\t// in\ntag_49:\n    /* \"#utility.yul\":2117:2208   */\n  tag_50\n    /* \"#utility.yul\":2166:2207   */\n  tag_51\n    /* \"#utility.yul\":2190:2206   */\n  dup3\n    /* \"#utility.yul\":2166:2207   */\n  tag_18\n  jump\t// in\ntag_51:\n    /* \"#utility.yul\":2158:2164   */\n  dup5\n    /* \"#utility.yul\":2151:2155   */\n  dup5\n    /* \"#utility.yul\":2145:2156   */\n  sload\n    /* \"#utility.yul\":2117:2208   */\n  tag_14\n  jump\t// in\ntag_50:\n    /* \"#utility.yul\":2111:2115   */\n  dup3\n    /* \"#utility.yul\":2104:2209   */\n  sstore\n    /* \"#utility.yul\":2022:2215   */\n  pop\n    /* \"#utility.yul\":1946:2215   */\n  pop\n  pop\n  pop\n  jump\t// out\n    /* \"#utility.yul\":2221:2294   */\ntag_20:\n    /* \"#utility.yul\":2266:2269   */\n  0x00\n    /* \"#utility.yul\":2287:2288   */\n  0x00\n    /* \"#utility.yul\":2280:2288   */\n  swap1\n  pop\n    /* \"#utility.yul\":2221:2294   */\n  swap1\n  jump\t// out\n    /* \"#utility.yul\":2300:2489   */\ntag_21:\n    /* \"#utility.yul\":2377:2409   */\n  tag_54\n  tag_20\n  jump\t// in\ntag_54:\n    /* \"#utility.yul\":2418:2483   */\n  tag_55\n    /* \"#utility.yul\":2476:2482   */\n  dup2\n    /* \"#utility.yul\":2468:2474   */\n  dup5\n    /* \"#utility.yul\":2462:2466   */\n  dup5\n    /* \"#utility.yul\":2418:2483   */\n  tag_19\n  jump\t// in\ntag_55:\n    /* \"#utility.yul\":2353:2489   */\n  pop\n    /* \"#utility.yul\":2300:2489   */\n  pop\n  pop\n  jump\t// out\n    /* \"#utility.yul\":2495:2681   */\ntag_22:\n    /* \"#utility.yul\":2555:2675   */\ntag_57:\n    /* \"#utility.yul\":2572:2575   */\n  dup2\n    /* \"#utility.yul\":2565:2570   */\n  dup2\n    /* \"#utility.yul\":2562:2576   */\n  lt\n    /* \"#utility.yul\":2555:2675   */\n  iszero\n  tag_59\n  jumpi\n    /* \"#utility.yul\":2626:2665   */\n  tag_60\n    /* \"#utility.yul\":2663:2664   */\n  0x00\n    /* \"#utility.yul\":2656:2661   */\n  dup3\n    /* \"#utility.yul\":2626:2665   */\n  tag_21\n  jump\t// in\ntag_60:\n    /* \"#utility.yul\":2599:2600   */\n  0x01\n    /* \"#utility.yul\":2592:2597   */\n  dup2\n    /* \"#utility.yul\":2588:2601   */\n  add\n    /* \"#utility.yul\":2579:2601   */\n  swap1\n  pop\n    /* \"#utility.yul\":2555:2675   */\n  jump(tag_57)\ntag_59:\n    /* \"#utility.yul\":2495:2681   */\n  pop\n  pop\n  jump\t// out\n    /* \"#utility.yul\":2687:3230   */\ntag_23:\n    /* \"#utility.yul\":2788:2790   */\n  0x1f\n    /* \"#utility.yul\":2783:2786   */\n  dup3\n    /* \"#utility.yul\":2780:2791   */\n  gt\n    /* \"#utility.yul\":2777:3223   */\n  iszero\n  tag_62\n  jumpi\n    /* \"#utility.yul\":2822:2860   */\n  tag_63\n    /* \"#utility.yul\":2854:2859   */\n  dup2\n    /* \"#utility.yul\":2822:2860   */\n  tag_11\n  jump\t// in\ntag_63:\n    /* \"#utility.yul\":2906:2935   */\n  tag_64\n    /* \"#utility.yul\":2924:2934   */\n  dup5\n    /* \"#utility.yul\":2906:2935   */\n  tag_12\n  jump\t// in\ntag_64:\n    /* \"#utility.yul\":2896:2904   */\n  dup2\n    /* \"#utility.yul\":2892:2936   */\n  add\n    /* \"#utility.yul\":3089:3091   */\n  0x20\n    /* \"#utility.yul\":3077:3087   */\n  dup6\n    /* \"#utility.yul\":3074:3092   */\n  lt\n    /* \"#utility.yul\":3071:3120   */\n  iszero\n  tag_65\n  jumpi\n    /* \"#utility.yul\":3110:3118   */\n  dup2\n    /* \"#utility.yul\":3095:3118   */\n  swap1\n  pop\n    /* \"#utility.yul\":3071:3120   */\ntag_65:\n    /* \"#utility.yul\":3133:3213   */\n  tag_66\n    /* \"#utility.yul\":3189:3211   */\n  tag_67\n    /* \"#utility.yul\":3207:3210   */\n  dup6\n    /* \"#utility.yul\":3189:3211   */\n  tag_12\n  jump\t// in\ntag_67:\n    /* \"#utility.yul\":3179:3187   */\n  dup4\n    /* \"#utility.yul\":3175:3212   */\n  add\n    /* \"#utility.yul\":3162:3173   */\n  dup3\n    /* \"#utility.yul\":3133:3213   */\n  tag_22\n  jump\t// in\ntag_66:\n    /* \"#utility.yul\":2792:3223   */\n  pop\n  pop\n    /* \"#utility.yul\":2777:3223   */\ntag_62:\n    /* \"#utility.yul\":2687:3230   */\n  pop\n  pop\n  pop\n  jump\t// out\n    /* \"#utility.yul\":3236:3353   */\ntag_24:\n    /* \"#utility.yul\":3290:3298   */\n  0x00\n    /* \"#utility.yul\":3340:3345   */\n  dup3\n    /* \"#utility.yul\":3334:3338   */\n  dup3\n    /* \"#utility.yul\":3330:3346   */\n  shr\n    /* \"#utility.yul\":3309:3346   */\n  swap1\n  pop\n    /* \"#utility.yul\":3236:3353   */\n  swap3\n  swap2\n  pop\n  pop\n  jump\t// out\n    /* \"#utility.yul\":3359:3528   */\ntag_25:\n    /* \"#utility.yul\":3403:3409   */\n  0x00\n    /* \"#utility.yul\":3436:3487   */\n  tag_70\n    /* \"#utility.yul\":3484:3485   */\n  0x00\n    /* \"#utility.yul\":3480:3486   */\n  not\n    /* \"#utility.yul\":3472:3477   */\n  dup5\n    /* \"#utility.yul\":3469:3470   */\n  0x08\n    /* \"#utility.yul\":3465:3478   */\n  mul\n    /* \"#utility.yul\":3436:3487   */\n  tag_24\n  jump\t// in\ntag_70:\n    /* \"#utility.yul\":3432:3488   */\n  not\n    /* \"#utility.yul\":3517:3521   */\n  dup1\n    /* \"#utility.yul\":3511:3515   */\n  dup4\n    /* \"#utility.yul\":3507:3522   */\n  and\n    /* \"#utility.yul\":3497:3522   */\n  swap2\n  pop\n    /* \"#utility.yul\":3410:3528   */\n  pop\n    /* \"#utility.yul\":3359:3528   */\n  swap3\n  swap2\n  pop\n  pop\n  jump\t// out\n    /* \"#utility.yul\":3533:3828   */\ntag_26:\n    /* \"#utility.yul\":3609:3613   */\n  0x00\n    /* \"#utility.yul\":3755:3784   */\n  tag_72\n    /* \"#utility.yul\":3780:3783   */\n  dup4\n    /* \"#utility.yul\":3774:3778   */\n  dup4\n    /* \"#utility.yul\":3755:3784   */\n  tag_25\n  jump\t// in\ntag_72:\n    /* \"#utility.yul\":3747:3784   */\n  swap2\n  pop\n    /* \"#utility.yul\":3817:3820   */\n  dup3\n    /* \"#utility.yul\":3814:3815   */\n  0x02\n    /* \"#utility.yul\":3810:3821   */\n  mul\n    /* \"#utility.yul\":3804:3808   */\n  dup3\n    /* \"#utility.yul\":3801:3822   */\n  or\n    /* \"#utility.yul\":3793:3822   */\n  swap1\n  pop\n    /* \"#utility.yul\":3533:3828   */\n  swap3\n  swap2\n  pop\n  pop\n  jump\t// out\n    /* \"#utility.yul\":3833:5228   */\ntag_2:\n    /* \"#utility.yul\":3950:3987   */\n  tag_74\n    /* \"#utility.yul\":3983:3986   */\n  dup3\n    /* \"#utility.yul\":3950:3987   */\n  tag_7\n  jump\t// in\ntag_74:\n    /* \"#utility.yul\":4052:4070   */\n  0xffffffffffffffff\n    /* \"#utility.yul\":4044:4050   */\n  dup2\n    /* \"#utility.yul\":4041:4071   */\n  gt\n    /* \"#utility.yul\":4038:4094   */\n  iszero\n  tag_75\n  jumpi\n    /* \"#utility.yul\":4074:4092   */\n  tag_76\n  tag_8\n  jump\t// in\ntag_76:\n    /* \"#utility.yul\":4038:4094   */\ntag_75:\n    /* \"#utility.yul\":4118:4156   */\n  tag_77\n    /* \"#utility.yul\":4150:4154   */\n  dup3\n    /* \"#utility.yul\":4144:4155   */\n  sload\n    /* \"#utility.yul\":4118:4156   */\n  tag_10\n  jump\t// in\ntag_77:\n    /* \"#utility.yul\":4203:4270   */\n  tag_78\n    /* \"#utility.yul\":4263:4269   */\n  dup3\n    /* \"#utility.yul\":4255:4261   */\n  dup3\n    /* \"#utility.yul\":4249:4253   */\n  dup6\n    /* \"#utility.yul\":4203:4270   */\n  tag_23\n  jump\t// in\ntag_78:\n    /* \"#utility.yul\":4297:4298   */\n  0x00\n    /* \"#utility.yul\":4321:4325   */\n  0x20\n    /* \"#utility.yul\":4308:4325   */\n  swap1\n  pop\n    /* \"#utility.yul\":4353:4355   */\n  0x1f\n    /* \"#utility.yul\":4345:4351   */\n  dup4\n    /* \"#utility.yul\":4342:4356   */\n  gt\n    /* \"#utility.yul\":4370:4371   */\n  0x01\n    /* \"#utility.yul\":4365:4983   */\n  dup2\n  eq\n  tag_80\n  jumpi\n    /* \"#utility.yul\":5027:5028   */\n  0x00\n    /* \"#utility.yul\":5044:5050   */\n  dup5\n    /* \"#utility.yul\":5041:5118   */\n  iszero\n  tag_81\n  jumpi\n    /* \"#utility.yul\":5093:5102   */\n  dup3\n    /* \"#utility.yul\":5088:5091   */\n  dup8\n    /* \"#utility.yul\":5084:5103   */\n  add\n    /* \"#utility.yul\":5078:5104   */\n  mload\n    /* \"#utility.yul\":5069:5104   */\n  swap1\n  pop\n    /* \"#utility.yul\":5041:5118   */\ntag_81:\n    /* \"#utility.yul\":5144:5211   */\n  tag_82\n    /* \"#utility.yul\":5204:5210   */\n  dup6\n    /* \"#utility.yul\":5197:5202   */\n  dup3\n    /* \"#utility.yul\":5144:5211   */\n  tag_26\n  jump\t// in\ntag_82:\n    /* \"#utility.yul\":5138:5142   */\n  dup7\n    /* \"#utility.yul\":5131:5212   */\n  sstore\n    /* \"#utility.yul\":5000:5222   */\n  pop\n    /* \"#utility.yul\":4335:5222   */\n  jump(tag_79)\n    /* \"#utility.yul\":4365:4983   */\ntag_80:\n    /* \"#utility.yul\":4417:4421   */\n  0x1f\n    /* \"#utility.yul\":4413:4422   */\n  not\n    /* \"#utility.yul\":4405:4411   */\n  dup5\n    /* \"#utility.yul\":4401:4423   */\n  and\n    /* \"#utility.yul\":4451:4488   */\n  tag_83\n    /* \"#utility.yul\":4483:4487   */\n  dup7\n    /* \"#utility.yul\":4451:4488   */\n  tag_11\n  jump\t// in\ntag_83:\n    /* \"#utility.yul\":4510:4511   */\n  0x00\n    /* \"#utility.yul\":4524:4732   */\ntag_84:\n    /* \"#utility.yul\":4538:4545   */\n  dup3\n    /* \"#utility.yul\":4535:4536   */\n  dup2\n    /* \"#utility.yul\":4532:4546   */\n  lt\n    /* \"#utility.yul\":4524:4732   */\n  iszero\n  tag_86\n  jumpi\n    /* \"#utility.yul\":4617:4626   */\n  dup5\n    /* \"#utility.yul\":4612:4615   */\n  dup10\n    /* \"#utility.yul\":4608:4627   */\n  add\n    /* \"#utility.yul\":4602:4628   */\n  mload\n    /* \"#utility.yul\":4594:4600   */\n  dup3\n    /* \"#utility.yul\":4587:4629   */\n  sstore\n    /* \"#utility.yul\":4668:4669   */\n  0x01\n    /* \"#utility.yul\":4660:4666   */\n  dup3\n    /* \"#utility.yul\":4656:4670   */\n  add\n    /* \"#utility.yul\":4646:4670   */\n  swap2\n  pop\n    /* \"#utility.yul\":4715:4717   */\n  0x20\n    /* \"#utility.yul\":4704:4713   */\n  dup6\n    /* \"#utility.yul\":4700:4718   */\n  add\n    /* \"#utility.yul\":4687:4718   */\n  swap5\n  pop\n    /* \"#utility.yul\":4561:4565   */\n  0x20\n    /* \"#utility.yul\":4558:4559   */\n  dup2\n    /* \"#utility.yul\":4554:4566   */\n  add\n    /* \"#utility.yul\":4549:4566   */\n  swap1\n  pop\n    /* \"#utility.yul\":4524:4732   */\n  jump(tag_84)\ntag_86:\n    /* \"#utility.yul\":4760:4766   */\n  dup7\n    /* \"#utility.yul\":4751:4758   */\n  dup4\n    /* \"#utility.yul\":4748:4767   */\n  lt\n    /* \"#utility.yul\":4745:4924   */\n  iszero\n  tag_87\n  jumpi\n    /* \"#utility.yul\":4818:4827   */\n  dup5\n    /* \"#utility.yul\":4813:4816   */\n  dup10\n    /* \"#utility.yul\":4809:4828   */\n  add\n    /* \"#utility.yul\":4803:4829   */\n  mload\n    /* \"#utility.yul\":4861:4909   */\n  tag_88\n    /* \"#utility.yul\":4903:4907   */\n  0x1f\n    /* \"#utility.yul\":4895:4901   */\n  dup10\n    /* \"#utility.yul\":4891:4908   */\n  and\n    /* \"#utility.yul\":4880:4889   */\n  dup3\n    /* \"#utility.yul\":4861:4909   */\n  tag_25\n  jump\t// in\ntag_88:\n    /* \"#utility.yul\":4853:4859   */\n  dup4\n    /* \"#utility.yul\":4846:4910   */\n  sstore\n    /* \"#utility.yul\":4768:4924   */\n  pop\n    /* \"#utility.yul\":4745:4924   */\ntag_87:\n    /* \"#utility.yul\":4970:4971   */\n  0x01\n    /* \"#utility.yul\":4966:4967   */\n  0x02\n    /* \"#utility.yul\":4958:4964   */\n  dup9\n    /* \"#utility.yul\":4954:4968   */\n  mul\n    /* \"#utility.yul\":4950:4972   */\n  add\n    /* \"#utility.yul\":4944:4948   */\n  dup9\n    /* \"#utility.yul\":4937:4973   */\n  sstore\n    /* \"#utility.yul\":4372:4983   */\n  pop\n  pop\n  pop\n    /* \"#utility.yul\":4335:5222   */\ntag_79:\n  pop\n    /* \"#utility.yul\":3925:5228   */\n  pop\n  pop\n  pop\n    /* \"#utility.yul\":3833:5228   */\n  pop\n  pop\n  jump\t// out\n    /* \"Innovation/MiniProject.sol\":58:1888  contract mini_project {... */\ntag_6:\n  dataSize(sub_0)\n  dup1\n  dataOffset(sub_0)\n  0x00\n  codecopy\n  0x00\n  return\nstop\n\nsub_0: assembly {\n        /* \"Innovation/MiniProject.sol\":58:1888  contract mini_project {... */\n      mstore(0x40, 0x80)\n      jumpi(tag_1, lt(calldatasize, 0x04))\n      shr(0xe0, calldataload(0x00))\n      dup1\n      0xaa8c217c\n      gt\n      tag_11\n      jumpi\n      dup1\n      0xaa8c217c\n      eq\n      tag_6\n      jumpi\n      dup1\n      0xadc80562\n      eq\n      tag_7\n      jumpi\n      dup1\n      0xc2133136\n      eq\n      tag_8\n      jumpi\n      dup1\n      0xe21f37ce\n      eq\n      tag_9\n      jumpi\n      dup1\n      0xf15820ff\n      eq\n      tag_10\n      jumpi\n      jump(tag_1)\n    tag_11:\n      dup1\n      0x39aaba25\n      eq\n      tag_2\n      jumpi\n      dup1\n      0x4552b04f\n      eq\n      tag_3\n      jumpi\n      dup1\n      0x6df427bc\n      eq\n      tag_4\n      jumpi\n      dup1\n      0x8da5cb5b\n      eq\n      tag_5\n      jumpi\n    tag_1:\n      revert(0x00, 0x00)\n        /* \"Innovation/MiniProject.sol\":787:881  function get_status() public view returns (Status) {... */\n    tag_2:\n      callvalue\n      dup1\n      iszero\n      tag_12\n      jumpi\n      revert(0x00, 0x00)\n    tag_12:\n      pop\n      tag_13\n      tag_14\n      jump\t// in\n    tag_13:\n      mload(0x40)\n      tag_15\n      swap2\n      swap1\n      tag_16\n      jump\t// in\n    tag_15:\n      mload(0x40)\n      dup1\n      swap2\n      sub\n      swap1\n      return\n        /* \"Innovation/MiniProject.sol\":112:136  address public new_owner */\n    tag_3:\n      callvalue\n      dup1\n      iszero\n      tag_17\n      jumpi\n      revert(0x00, 0x00)\n    tag_17:\n      pop\n      tag_18\n      tag_19\n      jump\t// in\n    tag_18:\n      mload(0x40)\n      tag_20\n      swap2\n      swap1\n      tag_21\n      jump\t// in\n    tag_20:\n      mload(0x40)\n      dup1\n      swap2\n      sub\n      swap1\n      return\n        /* \"Innovation/MiniProject.sol\":887:1457  function set_status(Status x)... */\n    tag_4:\n      callvalue\n      dup1\n      iszero\n      tag_22\n      jumpi\n      revert(0x00, 0x00)\n    tag_22:\n      pop\n      tag_23\n      0x04\n      dup1\n      calldatasize\n      sub\n      dup2\n      add\n      swap1\n      tag_24\n      swap2\n      swap1\n      tag_25\n      jump\t// in\n    tag_24:\n      tag_26\n      jump\t// in\n    tag_23:\n      mload(0x40)\n      tag_27\n      swap2\n      swap1\n      tag_28\n      jump\t// in\n    tag_27:\n      mload(0x40)\n      dup1\n      swap2\n      sub\n      swap1\n      return\n        /* \"Innovation/MiniProject.sol\":86:106  address public owner */\n    tag_5:\n      callvalue\n      dup1\n      iszero\n      tag_29\n      jumpi\n      revert(0x00, 0x00)\n    tag_29:\n      pop\n      tag_30\n      tag_31\n      jump\t// in\n    tag_30:\n      mload(0x40)\n      tag_32\n      swap2\n      swap1\n      tag_21\n      jump\t// in\n    tag_32:\n      mload(0x40)\n      dup1\n      swap2\n      sub\n      swap1\n      return\n        /* \"Innovation/MiniProject.sol\":142:163  uint256 public amount */\n    tag_6:\n      callvalue\n      dup1\n      iszero\n      tag_33\n      jumpi\n      revert(0x00, 0x00)\n    tag_33:\n      pop\n      tag_34\n      tag_35\n      jump\t// in\n    tag_34:\n      mload(0x40)\n      tag_36\n      swap2\n      swap1\n      tag_37\n      jump\t// in\n    tag_36:\n      mload(0x40)\n      dup1\n      swap2\n      sub\n      swap1\n      return\n        /* \"Innovation/MiniProject.sol\":1635:1886  function Owner_ship(address new_add) public only_owner balance_checker {... */\n    tag_7:\n      callvalue\n      dup1\n      iszero\n      tag_38\n      jumpi\n      revert(0x00, 0x00)\n    tag_38:\n      pop\n      tag_39\n      0x04\n      dup1\n      calldatasize\n      sub\n      dup2\n      add\n      swap1\n      tag_40\n      swap2\n      swap1\n      tag_41\n      jump\t// in\n    tag_40:\n      tag_42\n      jump\t// in\n    tag_39:\n      stop\n        /* \"Innovation/MiniProject.sol\":1508:1629  function update_balance() public returns (uint256) {... */\n    tag_8:\n      callvalue\n      dup1\n      iszero\n      tag_43\n      jumpi\n      revert(0x00, 0x00)\n    tag_43:\n      pop\n      tag_44\n      tag_45\n      jump\t// in\n    tag_44:\n      mload(0x40)\n      tag_46\n      swap2\n      swap1\n      tag_37\n      jump\t// in\n    tag_46:\n      mload(0x40)\n      dup1\n      swap2\n      sub\n      swap1\n      return\n        /* \"Innovation/MiniProject.sol\":170:203  string public message = \"Welcome\" */\n    tag_9:\n      callvalue\n      dup1\n      iszero\n      tag_47\n      jumpi\n      revert(0x00, 0x00)\n    tag_47:\n      pop\n      tag_48\n      tag_49\n      jump\t// in\n    tag_48:\n      mload(0x40)\n      tag_50\n      swap2\n      swap1\n      tag_28\n      jump\t// in\n    tag_50:\n      mload(0x40)\n      dup1\n      swap2\n      sub\n      swap1\n      return\n        /* \"Innovation/MiniProject.sol\":1463:1502  function Get_amount() public payable {} */\n    tag_10:\n      tag_51\n      tag_52\n      jump\t// in\n    tag_51:\n      stop\n        /* \"Innovation/MiniProject.sol\":787:881  function get_status() public view returns (Status) {... */\n    tag_14:\n        /* \"Innovation/MiniProject.sol\":830:836  Status */\n      0x00\n        /* \"Innovation/MiniProject.sol\":867:873  status */\n      0x04\n      0x00\n      swap1\n      sload\n      swap1\n      0x0100\n      exp\n      swap1\n      div\n      0xff\n      and\n        /* \"Innovation/MiniProject.sol\":860:873  return status */\n      swap1\n      pop\n        /* \"Innovation/MiniProject.sol\":787:881  function get_status() public view returns (Status) {... */\n      swap1\n      jump\t// out\n        /* \"Innovation/MiniProject.sol\":112:136  address public new_owner */\n    tag_19:\n      0x01\n      0x00\n      swap1\n      sload\n      swap1\n      0x0100\n      exp\n      swap1\n      div\n      0xffffffffffffffffffffffffffffffffffffffff\n      and\n      dup2\n      jump\t// out\n        /* \"Innovation/MiniProject.sol\":887:1457  function set_status(Status x)... */\n    tag_26:\n        /* \"Innovation/MiniProject.sol\":989:1002  string memory */\n      0x60\n        /* \"Innovation/MiniProject.sol\":408:418  msg.sender */\n      caller\n        /* \"Innovation/MiniProject.sol\":399:418  owner == msg.sender */\n      0xffffffffffffffffffffffffffffffffffffffff\n      and\n        /* \"Innovation/MiniProject.sol\":399:404  owner */\n      0x00\n      0x00\n      swap1\n      sload\n      swap1\n      0x0100\n      exp\n      swap1\n      div\n      0xffffffffffffffffffffffffffffffffffffffff\n      and\n        /* \"Innovation/MiniProject.sol\":399:418  owner == msg.sender */\n      0xffffffffffffffffffffffffffffffffffffffff\n      and\n      eq\n        /* \"Innovation/MiniProject.sol\":391:432  require(owner == msg.sender, \"Not Owner\") */\n      tag_55\n      jumpi\n      mload(0x40)\n      0x08c379a000000000000000000000000000000000000000000000000000000000\n      dup2\n      mstore\n      0x04\n      add\n      tag_56\n      swap1\n      tag_57\n      jump\t// in\n    tag_56:\n      mload(0x40)\n      dup1\n      swap2\n      sub\n      swap1\n      revert\n    tag_55:\n        /* \"Innovation/MiniProject.sol\":647:663  type(Status).max */\n      0x03\n        /* \"Innovation/MiniProject.sol\":639:664  uint256(type(Status).max) */\n      dup1\n      dup2\n      gt\n      iszero\n      tag_59\n      jumpi\n      tag_60\n      tag_61\n      jump\t// in\n    tag_60:\n    tag_59:\n        /* \"Innovation/MiniProject.sol\":628:634  status */\n      0x04\n      0x00\n      swap1\n      sload\n      swap1\n      0x0100\n      exp\n      swap1\n      div\n      0xff\n      and\n        /* \"Innovation/MiniProject.sol\":620:635  uint256(status) */\n      0x03\n      dup2\n      gt\n      iszero\n      tag_62\n      jumpi\n      tag_63\n      tag_61\n      jump\t// in\n    tag_63:\n    tag_62:\n        /* \"Innovation/MiniProject.sol\":620:664  uint256(status) <= uint256(type(Status).max) */\n      gt\n      iszero\n        /* \"Innovation/MiniProject.sol\":599:707  require(... */\n      tag_64\n      jumpi\n      mload(0x40)\n      0x08c379a000000000000000000000000000000000000000000000000000000000\n      dup2\n      mstore\n      0x04\n      add\n      tag_65\n      swap1\n      tag_66\n      jump\t// in\n    tag_65:\n      mload(0x40)\n      dup1\n      swap2\n      sub\n      swap1\n      revert\n    tag_64:\n        /* \"Innovation/MiniProject.sol\":1027:1028  x */\n      dup2\n        /* \"Innovation/MiniProject.sol\":1018:1024  status */\n      0x04\n      0x00\n        /* \"Innovation/MiniProject.sol\":1018:1028  status = x */\n      0x0100\n      exp\n      dup2\n      sload\n      dup2\n      0xff\n      mul\n      not\n      and\n      swap1\n      dup4\n      0x03\n      dup2\n      gt\n      iszero\n      tag_68\n      jumpi\n      tag_69\n      tag_61\n      jump\t// in\n    tag_69:\n    tag_68:\n      mul\n      or\n      swap1\n      sstore\n      pop\n        /* \"Innovation/MiniProject.sol\":1052:1066  Status.Shipped */\n      0x02\n        /* \"Innovation/MiniProject.sol\":1042:1066  status == Status.Shipped */\n      0x03\n      dup2\n      gt\n      iszero\n      tag_70\n      jumpi\n      tag_71\n      tag_61\n      jump\t// in\n    tag_71:\n    tag_70:\n        /* \"Innovation/MiniProject.sol\":1042:1048  status */\n      0x04\n      0x00\n      swap1\n      sload\n      swap1\n      0x0100\n      exp\n      swap1\n      div\n      0xff\n      and\n        /* \"Innovation/MiniProject.sol\":1042:1066  status == Status.Shipped */\n      0x03\n      dup2\n      gt\n      iszero\n      tag_72\n      jumpi\n      tag_73\n      tag_61\n      jump\t// in\n    tag_73:\n    tag_72:\n      sub\n        /* \"Innovation/MiniProject.sol\":1038:1451  if (status == Status.Shipped) {... */\n      tag_74\n      jumpi\n        /* \"Innovation/MiniProject.sol\":1087:1108  Status_set(\"Shipped\") */\n      0xe18822188b13ea789744bb656325800d3b5025b3d956e508917ed2a260b33a8d\n      mload(0x40)\n      tag_75\n      swap1\n      tag_76\n      jump\t// in\n    tag_75:\n      mload(0x40)\n      dup1\n      swap2\n      sub\n      swap1\n      log1\n        /* \"Innovation/MiniProject.sol\":1122:1141  message = \"Shipped\" */\n      mload(0x40)\n      dup1\n      0x40\n      add\n      0x40\n      mstore\n      dup1\n      0x07\n      dup2\n      mstore\n      0x20\n      add\n      0x5368697070656400000000000000000000000000000000000000000000000000\n      dup2\n      mstore\n      pop\n        /* \"Innovation/MiniProject.sol\":1122:1129  message */\n      0x03\n        /* \"Innovation/MiniProject.sol\":1122:1141  message = \"Shipped\" */\n      swap1\n      dup2\n      tag_77\n      swap2\n      swap1\n      tag_78\n      jump\t// in\n    tag_77:\n      pop\n        /* \"Innovation/MiniProject.sol\":1162:1169  message */\n      0x03\n        /* \"Innovation/MiniProject.sol\":1155:1169  return message */\n      dup1\n      sload\n      tag_79\n      swap1\n      tag_80\n      jump\t// in\n    tag_79:\n      dup1\n      0x1f\n      add\n      0x20\n      dup1\n      swap2\n      div\n      mul\n      0x20\n      add\n      mload(0x40)\n      swap1\n      dup2\n      add\n      0x40\n      mstore\n      dup1\n      swap3\n      swap2\n      swap1\n      dup2\n      dup2\n      mstore\n      0x20\n      add\n      dup3\n      dup1\n      sload\n      tag_81\n      swap1\n      tag_80\n      jump\t// in\n    tag_81:\n      dup1\n      iszero\n      tag_82\n      jumpi\n      dup1\n      0x1f\n      lt\n      tag_83\n      jumpi\n      0x0100\n      dup1\n      dup4\n      sload\n      div\n      mul\n      dup4\n      mstore\n      swap2\n      0x20\n      add\n      swap2\n      jump(tag_82)\n    tag_83:\n      dup3\n      add\n      swap2\n      swap1\n      0x00\n      mstore\n      keccak256(0x00, 0x20)\n      swap1\n    tag_84:\n      dup2\n      sload\n      dup2\n      mstore\n      swap1\n      0x01\n      add\n      swap1\n      0x20\n      add\n      dup1\n      dup4\n      gt\n      tag_84\n      jumpi\n      dup3\n      swap1\n      sub\n      0x1f\n      and\n      dup3\n      add\n      swap2\n    tag_82:\n      pop\n      pop\n      pop\n      pop\n      pop\n      swap1\n      pop\n      jump(tag_67)\n        /* \"Innovation/MiniProject.sol\":1038:1451  if (status == Status.Shipped) {... */\n    tag_74:\n        /* \"Innovation/MiniProject.sol\":1200:1216  Status.Delivered */\n      0x03\n        /* \"Innovation/MiniProject.sol\":1190:1216  status == Status.Delivered */\n      dup1\n      dup2\n      gt\n      iszero\n      tag_86\n      jumpi\n      tag_87\n      tag_61\n      jump\t// in\n    tag_87:\n    tag_86:\n        /* \"Innovation/MiniProject.sol\":1190:1196  status */\n      0x04\n      0x00\n      swap1\n      sload\n      swap1\n      0x0100\n      exp\n      swap1\n      div\n      0xff\n      and\n        /* \"Innovation/MiniProject.sol\":1190:1216  status == Status.Delivered */\n      0x03\n      dup2\n      gt\n      iszero\n      tag_88\n      jumpi\n      tag_89\n      tag_61\n      jump\t// in\n    tag_89:\n    tag_88:\n      sub\n        /* \"Innovation/MiniProject.sol\":1186:1451  if (status == Status.Delivered) {... */\n      tag_90\n      jumpi\n        /* \"Innovation/MiniProject.sol\":1237:1259  Status_set(\"Deliverd\") */\n      0xe18822188b13ea789744bb656325800d3b5025b3d956e508917ed2a260b33a8d\n      mload(0x40)\n      tag_91\n      swap1\n      tag_92\n      jump\t// in\n    tag_91:\n      mload(0x40)\n      dup1\n      swap2\n      sub\n      swap1\n      log1\n        /* \"Innovation/MiniProject.sol\":1273:1294  message = \"Delivered\" */\n      mload(0x40)\n      dup1\n      0x40\n      add\n      0x40\n      mstore\n      dup1\n      0x09\n      dup2\n      mstore\n      0x20\n      add\n      0x44656c6976657265640000000000000000000000000000000000000000000000\n      dup2\n      mstore\n      pop\n        /* \"Innovation/MiniProject.sol\":1273:1280  message */\n      0x03\n        /* \"Innovation/MiniProject.sol\":1273:1294  message = \"Delivered\" */\n      swap1\n      dup2\n      tag_93\n      swap2\n      swap1\n      tag_78\n      jump\t// in\n    tag_93:\n      pop\n        /* \"Innovation/MiniProject.sol\":1315:1322  message */\n      0x03\n        /* \"Innovation/MiniProject.sol\":1308:1322  return message */\n      dup1\n      sload\n      tag_94\n      swap1\n      tag_80\n      jump\t// in\n    tag_94:\n      dup1\n      0x1f\n      add\n      0x20\n      dup1\n      swap2\n      div\n      mul\n      0x20\n      add\n      mload(0x40)\n      swap1\n      dup2\n      add\n      0x40\n      mstore\n      dup1\n      swap3\n      swap2\n      swap1\n      dup2\n      dup2\n      mstore\n      0x20\n      add\n      dup3\n      dup1\n      sload\n      tag_95\n      swap1\n      tag_80\n      jump\t// in\n    tag_95:\n      dup1\n      iszero\n      tag_96\n      jumpi\n      dup1\n      0x1f\n      lt\n      tag_97\n      jumpi\n      0x0100\n      dup1\n      dup4\n      sload\n      div\n      mul\n      dup4\n      mstore\n      swap2\n      0x20\n      add\n      swap2\n      jump(tag_96)\n    tag_97:\n      dup3\n      add\n      swap2\n      swap1\n      0x00\n      mstore\n      keccak256(0x00, 0x20)\n      swap1\n    tag_98:\n      dup2\n      sload\n      dup2\n      mstore\n      swap1\n      0x01\n      add\n      swap1\n      0x20\n      add\n      dup1\n      dup4\n      gt\n      tag_98\n      jumpi\n      dup3\n      swap1\n      sub\n      0x1f\n      and\n      dup3\n      add\n      swap2\n    tag_96:\n      pop\n      pop\n      pop\n      pop\n      pop\n      swap1\n      pop\n      jump(tag_67)\n        /* \"Innovation/MiniProject.sol\":1186:1451  if (status == Status.Delivered) {... */\n    tag_90:\n        /* \"Innovation/MiniProject.sol\":1358:1379  Status_set(\"pending\") */\n      0xe18822188b13ea789744bb656325800d3b5025b3d956e508917ed2a260b33a8d\n      mload(0x40)\n      tag_100\n      swap1\n      tag_101\n      jump\t// in\n    tag_100:\n      mload(0x40)\n      dup1\n      swap2\n      sub\n      swap1\n      log1\n        /* \"Innovation/MiniProject.sol\":1393:1412  message = \"pending\" */\n      mload(0x40)\n      dup1\n      0x40\n      add\n      0x40\n      mstore\n      dup1\n      0x07\n      dup2\n      mstore\n      0x20\n      add\n      0x70656e64696e6700000000000000000000000000000000000000000000000000\n      dup2\n      mstore\n      pop\n        /* \"Innovation/MiniProject.sol\":1393:1400  message */\n      0x03\n        /* \"Innovation/MiniProject.sol\":1393:1412  message = \"pending\" */\n      swap1\n      dup2\n      tag_102\n      swap2\n      swap1\n      tag_78\n      jump\t// in\n    tag_102:\n      pop\n        /* \"Innovation/MiniProject.sol\":1433:1440  message */\n      0x03\n        /* \"Innovation/MiniProject.sol\":1426:1440  return message */\n      dup1\n      sload\n      tag_103\n      swap1\n      tag_80\n      jump\t// in\n    tag_103:\n      dup1\n      0x1f\n      add\n      0x20\n      dup1\n      swap2\n      div\n      mul\n      0x20\n      add\n      mload(0x40)\n      swap1\n      dup2\n      add\n      0x40\n      mstore\n      dup1\n      swap3\n      swap2\n      swap1\n      dup2\n      dup2\n      mstore\n      0x20\n      add\n      dup3\n      dup1\n      sload\n      tag_104\n      swap1\n      tag_80\n      jump\t// in\n    tag_104:\n      dup1\n      iszero\n      tag_105\n      jumpi\n      dup1\n      0x1f\n      lt\n      tag_106\n      jumpi\n      0x0100\n      dup1\n      dup4\n      sload\n      div\n      mul\n      dup4\n      mstore\n      swap2\n      0x20\n      add\n      swap2\n      jump(tag_105)\n    tag_106:\n      dup3\n      add\n      swap2\n      swap1\n      0x00\n      mstore\n      keccak256(0x00, 0x20)\n      swap1\n    tag_107:\n      dup2\n      sload\n      dup2\n      mstore\n      swap1\n      0x01\n      add\n      swap1\n      0x20\n      add\n      dup1\n      dup4\n      gt\n      tag_107\n      jumpi\n      dup3\n      swap1\n      sub\n      0x1f\n      and\n      dup3\n      add\n      swap2\n    tag_105:\n      pop\n      pop\n      pop\n      pop\n      pop\n      swap1\n      pop\n        /* \"Innovation/MiniProject.sol\":717:718  _ */\n    tag_67:\n        /* \"Innovation/MiniProject.sol\":887:1457  function set_status(Status x)... */\n      swap2\n      swap1\n      pop\n      jump\t// out\n        /* \"Innovation/MiniProject.sol\":86:106  address public owner */\n    tag_31:\n      0x00\n      0x00\n      swap1\n      sload\n      swap1\n      0x0100\n      exp\n      swap1\n      div\n      0xffffffffffffffffffffffffffffffffffffffff\n      and\n      dup2\n      jump\t// out\n        /* \"Innovation/MiniProject.sol\":142:163  uint256 public amount */\n    tag_35:\n      sload(0x02)\n      dup2\n      jump\t// out\n        /* \"Innovation/MiniProject.sol\":1635:1886  function Owner_ship(address new_add) public only_owner balance_checker {... */\n    tag_42:\n        /* \"Innovation/MiniProject.sol\":408:418  msg.sender */\n      caller\n        /* \"Innovation/MiniProject.sol\":399:418  owner == msg.sender */\n      0xffffffffffffffffffffffffffffffffffffffff\n      and\n        /* \"Innovation/MiniProject.sol\":399:404  owner */\n      0x00\n      0x00\n      swap1\n      sload\n      swap1\n      0x0100\n      exp\n      swap1\n      div\n      0xffffffffffffffffffffffffffffffffffffffff\n      and\n        /* \"Innovation/MiniProject.sol\":399:418  owner == msg.sender */\n      0xffffffffffffffffffffffffffffffffffffffff\n      and\n      eq\n        /* \"Innovation/MiniProject.sol\":391:432  require(owner == msg.sender, \"Not Owner\") */\n      tag_109\n      jumpi\n      mload(0x40)\n      0x08c379a000000000000000000000000000000000000000000000000000000000\n      dup2\n      mstore\n      0x04\n      add\n      tag_110\n      swap1\n      tag_57\n      jump\t// in\n    tag_110:\n      mload(0x40)\n      dup1\n      swap2\n      sub\n      swap1\n      revert\n    tag_109:\n        /* \"Innovation/MiniProject.sol\":510:517  1 ether */\n      0x0de0b6b3a7640000\n        /* \"Innovation/MiniProject.sol\":500:506  amount */\n      sload(0x02)\n        /* \"Innovation/MiniProject.sol\":500:517  amount >= 1 ether */\n      lt\n      iszero\n        /* \"Innovation/MiniProject.sol\":492:542  require(amount >= 1 ether, \"Insufficient Balance\") */\n      tag_112\n      jumpi\n      mload(0x40)\n      0x08c379a000000000000000000000000000000000000000000000000000000000\n      dup2\n      mstore\n      0x04\n      add\n      tag_113\n      swap1\n      tag_114\n      jump\t// in\n    tag_113:\n      mload(0x40)\n      dup1\n      swap2\n      sub\n      swap1\n      revert\n    tag_112:\n        /* \"Innovation/MiniProject.sol\":1730:1737  1 ether */\n      0x0de0b6b3a7640000\n        /* \"Innovation/MiniProject.sol\":1720:1726  amount */\n      sload(0x02)\n        /* \"Innovation/MiniProject.sol\":1720:1737  amount >= 1 ether */\n      lt\n        /* \"Innovation/MiniProject.sol\":1716:1880  if (amount >= 1 ether) {... */\n      tag_116\n      jumpi\n        /* \"Innovation/MiniProject.sol\":1765:1772  new_add */\n      dup1\n        /* \"Innovation/MiniProject.sol\":1753:1762  new_owner */\n      0x01\n      0x00\n        /* \"Innovation/MiniProject.sol\":1753:1772  new_owner = new_add */\n      0x0100\n      exp\n      dup2\n      sload\n      dup2\n      0xffffffffffffffffffffffffffffffffffffffff\n      mul\n      not\n      and\n      swap1\n      dup4\n      0xffffffffffffffffffffffffffffffffffffffff\n      and\n      mul\n      or\n      swap1\n      sstore\n      pop\n        /* \"Innovation/MiniProject.sol\":1795:1809  Status.Pending */\n      0x01\n        /* \"Innovation/MiniProject.sol\":1786:1792  status */\n      0x04\n      0x00\n        /* \"Innovation/MiniProject.sol\":1786:1809  status = Status.Pending */\n      0x0100\n      exp\n      dup2\n      sload\n      dup2\n      0xff\n      mul\n      not\n      and\n      swap1\n      dup4\n      0x03\n      dup2\n      gt\n      iszero\n      tag_117\n      jumpi\n      tag_118\n      tag_61\n      jump\t// in\n    tag_118:\n    tag_117:\n      mul\n      or\n      swap1\n      sstore\n      pop\n        /* \"Innovation/MiniProject.sol\":1823:1869  message = \"Order Has Been Placed Successfully\" */\n      mload(0x40)\n      dup1\n      0x60\n      add\n      0x40\n      mstore\n      dup1\n      0x22\n      dup2\n      mstore\n      0x20\n      add\n      data_96dfabbf07d0c6a780e51fb0d2039d68e0c52ce84c414db1c1d50292fb2d54f7\n      0x22\n      swap2\n      codecopy\n        /* \"Innovation/MiniProject.sol\":1823:1830  message */\n      0x03\n        /* \"Innovation/MiniProject.sol\":1823:1869  message = \"Order Has Been Placed Successfully\" */\n      swap1\n      dup2\n      tag_119\n      swap2\n      swap1\n      tag_78\n      jump\t// in\n    tag_119:\n      pop\n        /* \"Innovation/MiniProject.sol\":1716:1880  if (amount >= 1 ether) {... */\n    tag_116:\n        /* \"Innovation/MiniProject.sol\":1635:1886  function Owner_ship(address new_add) public only_owner balance_checker {... */\n      pop\n      jump\t// out\n        /* \"Innovation/MiniProject.sol\":1508:1629  function update_balance() public returns (uint256) {... */\n    tag_45:\n        /* \"Innovation/MiniProject.sol\":1550:1557  uint256 */\n      0x00\n        /* \"Innovation/MiniProject.sol\":1578:1599  address(this).balance */\n      selfbalance\n        /* \"Innovation/MiniProject.sol\":1569:1575  amount */\n      0x02\n        /* \"Innovation/MiniProject.sol\":1569:1599  amount = address(this).balance */\n      dup2\n      swap1\n      sstore\n      pop\n        /* \"Innovation/MiniProject.sol\":1616:1622  amount */\n      sload(0x02)\n        /* \"Innovation/MiniProject.sol\":1609:1622  return amount */\n      swap1\n      pop\n        /* \"Innovation/MiniProject.sol\":1508:1629  function update_balance() public returns (uint256) {... */\n      swap1\n      jump\t// out\n        /* \"Innovation/MiniProject.sol\":170:203  string public message = \"Welcome\" */\n    tag_49:\n      0x03\n      dup1\n      sload\n      tag_121\n      swap1\n      tag_80\n      jump\t// in\n    tag_121:\n      dup1\n      0x1f\n      add\n      0x20\n      dup1\n      swap2\n      div\n      mul\n      0x20\n      add\n      mload(0x40)\n      swap1\n      dup2\n      add\n      0x40\n      mstore\n      dup1\n      swap3\n      swap2\n      swap1\n      dup2\n      dup2\n      mstore\n      0x20\n      add\n      dup3\n      dup1\n      sload\n      tag_122\n      swap1\n      tag_80\n      jump\t// in\n    tag_122:\n      dup1\n      iszero\n      tag_123\n      jumpi\n      dup1\n      0x1f\n      lt\n      tag_124\n      jumpi\n      0x0100\n      dup1\n      dup4\n      sload\n      div\n      mul\n      dup4\n      mstore\n      swap2\n      0x20\n      add\n      swap2\n      jump(tag_123)\n    tag_124:\n      dup3\n      add\n      swap2\n      swap1\n      0x00\n      mstore\n      keccak256(0x00, 0x20)\n      swap1\n    tag_125:\n      dup2\n      sload\n      dup2\n      mstore\n      swap1\n      0x01\n      add\n      swap1\n      0x20\n      add\n      dup1\n      dup4\n      gt\n      tag_125\n      jumpi\n      dup3\n      swap1\n      sub\n      0x1f\n      and\n      dup3\n      add\n      swap2\n    tag_123:\n      pop\n      pop\n      pop\n      pop\n      pop\n      dup2\n      jump\t// out\n        /* \"Innovation/MiniProject.sol\":1463:1502  function Get_amount() public payable {} */\n    tag_52:\n      jump\t// out\n        /* \"#utility.yul\":7:187   */\n    tag_61:\n        /* \"#utility.yul\":55:132   */\n      0x4e487b7100000000000000000000000000000000000000000000000000000000\n        /* \"#utility.yul\":52:53   */\n      0x00\n        /* \"#utility.yul\":45:133   */\n      mstore\n        /* \"#utility.yul\":152:156   */\n      0x21\n        /* \"#utility.yul\":149:150   */\n      0x04\n        /* \"#utility.yul\":142:157   */\n      mstore\n        /* \"#utility.yul\":176:180   */\n      0x24\n        /* \"#utility.yul\":173:174   */\n      0x00\n        /* \"#utility.yul\":166:181   */\n      revert\n        /* \"#utility.yul\":193:307   */\n    tag_127:\n        /* \"#utility.yul\":275:276   */\n      0x04\n        /* \"#utility.yul\":268:273   */\n      dup2\n        /* \"#utility.yul\":265:277   */\n      lt\n        /* \"#utility.yul\":255:301   */\n      tag_180\n      jumpi\n        /* \"#utility.yul\":281:299   */\n      tag_181\n      tag_61\n      jump\t// in\n    tag_181:\n        /* \"#utility.yul\":255:301   */\n    tag_180:\n        /* \"#utility.yul\":193:307   */\n      pop\n      jump\t// out\n        /* \"#utility.yul\":313:442   */\n    tag_128:\n        /* \"#utility.yul\":359:366   */\n      0x00\n        /* \"#utility.yul\":388:393   */\n      dup2\n        /* \"#utility.yul\":377:393   */\n      swap1\n      pop\n        /* \"#utility.yul\":394:436   */\n      tag_183\n        /* \"#utility.yul\":430:435   */\n      dup3\n        /* \"#utility.yul\":394:436   */\n      tag_127\n      jump\t// in\n    tag_183:\n        /* \"#utility.yul\":313:442   */\n      swap2\n      swap1\n      pop\n      jump\t// out\n        /* \"#utility.yul\":448:577   */\n    tag_129:\n        /* \"#utility.yul\":505:514   */\n      0x00\n        /* \"#utility.yul\":538:571   */\n      tag_185\n        /* \"#utility.yul\":565:570   */\n      dup3\n        /* \"#utility.yul\":538:571   */\n      tag_128\n      jump\t// in\n    tag_185:\n        /* \"#utility.yul\":525:571   */\n      swap1\n      pop\n        /* \"#utility.yul\":448:577   */\n      swap2\n      swap1\n      pop\n      jump\t// out\n        /* \"#utility.yul\":583:728   */\n    tag_130:\n        /* \"#utility.yul\":677:721   */\n      tag_187\n        /* \"#utility.yul\":715:720   */\n      dup2\n        /* \"#utility.yul\":677:721   */\n      tag_129\n      jump\t// in\n    tag_187:\n        /* \"#utility.yul\":672:675   */\n      dup3\n        /* \"#utility.yul\":665:722   */\n      mstore\n        /* \"#utility.yul\":583:728   */\n      pop\n      pop\n      jump\t// out\n        /* \"#utility.yul\":734:970   */\n    tag_16:\n        /* \"#utility.yul\":834:838   */\n      0x00\n        /* \"#utility.yul\":872:874   */\n      0x20\n        /* \"#utility.yul\":861:870   */\n      dup3\n        /* \"#utility.yul\":857:875   */\n      add\n        /* \"#utility.yul\":849:875   */\n      swap1\n      pop\n        /* \"#utility.yul\":885:963   */\n      tag_189\n        /* \"#utility.yul\":960:961   */\n      0x00\n        /* \"#utility.yul\":949:958   */\n      dup4\n        /* \"#utility.yul\":945:962   */\n      add\n        /* \"#utility.yul\":936:942   */\n      dup5\n        /* \"#utility.yul\":885:963   */\n      tag_130\n      jump\t// in\n    tag_189:\n        /* \"#utility.yul\":734:970   */\n      swap3\n      swap2\n      pop\n      pop\n      jump\t// out\n        /* \"#utility.yul\":976:1102   */\n    tag_131:\n        /* \"#utility.yul\":1013:1020   */\n      0x00\n        /* \"#utility.yul\":1053:1095   */\n      0xffffffffffffffffffffffffffffffffffffffff\n        /* \"#utility.yul\":1046:1051   */\n      dup3\n        /* \"#utility.yul\":1042:1096   */\n      and\n        /* \"#utility.yul\":1031:1096   */\n      swap1\n      pop\n        /* \"#utility.yul\":976:1102   */\n      swap2\n      swap1\n      pop\n      jump\t// out\n        /* \"#utility.yul\":1108:1204   */\n    tag_132:\n        /* \"#utility.yul\":1145:1152   */\n      0x00\n        /* \"#utility.yul\":1174:1198   */\n      tag_192\n        /* \"#utility.yul\":1192:1197   */\n      dup3\n        /* \"#utility.yul\":1174:1198   */\n      tag_131\n      jump\t// in\n    tag_192:\n        /* \"#utility.yul\":1163:1198   */\n      swap1\n      pop\n        /* \"#utility.yul\":1108:1204   */\n      swap2\n      swap1\n      pop\n      jump\t// out\n        /* \"#utility.yul\":1210:1328   */\n    tag_133:\n        /* \"#utility.yul\":1297:1321   */\n      tag_194\n        /* \"#utility.yul\":1315:1320   */\n      dup2\n        /* \"#utility.yul\":1297:1321   */\n      tag_132\n      jump\t// in\n    tag_194:\n        /* \"#utility.yul\":1292:1295   */\n      dup3\n        /* \"#utility.yul\":1285:1322   */\n      mstore\n        /* \"#utility.yul\":1210:1328   */\n      pop\n      pop\n      jump\t// out\n        /* \"#utility.yul\":1334:1556   */\n    tag_21:\n        /* \"#utility.yul\":1427:1431   */\n      0x00\n        /* \"#utility.yul\":1465:1467   */\n      0x20\n        /* \"#utility.yul\":1454:1463   */\n      dup3\n        /* \"#utility.yul\":1450:1468   */\n      add\n        /* \"#utility.yul\":1442:1468   */\n      swap1\n      pop\n        /* \"#utility.yul\":1478:1549   */\n      tag_196\n        /* \"#utility.yul\":1546:1547   */\n      0x00\n        /* \"#utility.yul\":1535:1544   */\n      dup4\n        /* \"#utility.yul\":1531:1548   */\n      add\n        /* \"#utility.yul\":1522:1528   */\n      dup5\n        /* \"#utility.yul\":1478:1549   */\n      tag_133\n      jump\t// in\n    tag_196:\n        /* \"#utility.yul\":1334:1556   */\n      swap3\n      swap2\n      pop\n      pop\n      jump\t// out\n        /* \"#utility.yul\":1643:1760   */\n    tag_135:\n        /* \"#utility.yul\":1752:1753   */\n      0x00\n        /* \"#utility.yul\":1749:1750   */\n      0x00\n        /* \"#utility.yul\":1742:1754   */\n      revert\n        /* \"#utility.yul\":1889:1997   */\n    tag_137:\n        /* \"#utility.yul\":1971:1972   */\n      0x04\n        /* \"#utility.yul\":1964:1969   */\n      dup2\n        /* \"#utility.yul\":1961:1973   */\n      lt\n        /* \"#utility.yul\":1951:1991   */\n      tag_201\n      jumpi\n        /* \"#utility.yul\":1987:1988   */\n      0x00\n        /* \"#utility.yul\":1984:1985   */\n      0x00\n        /* \"#utility.yul\":1977:1989   */\n      revert\n        /* \"#utility.yul\":1951:1991   */\n    tag_201:\n        /* \"#utility.yul\":1889:1997   */\n      pop\n      jump\t// out\n        /* \"#utility.yul\":2003:2160   */\n    tag_138:\n        /* \"#utility.yul\":2058:2063   */\n      0x00\n        /* \"#utility.yul\":2096:2102   */\n      dup2\n        /* \"#utility.yul\":2083:2103   */\n      calldataload\n        /* \"#utility.yul\":2074:2103   */\n      swap1\n      pop\n        /* \"#utility.yul\":2112:2154   */\n      tag_203\n        /* \"#utility.yul\":2148:2153   */\n      dup2\n        /* \"#utility.yul\":2112:2154   */\n      tag_137\n      jump\t// in\n    tag_203:\n        /* \"#utility.yul\":2003:2160   */\n      swap3\n      swap2\n      pop\n      pop\n      jump\t// out\n        /* \"#utility.yul\":2166:2513   */\n    tag_25:\n        /* \"#utility.yul\":2234:2240   */\n      0x00\n        /* \"#utility.yul\":2283:2285   */\n      0x20\n        /* \"#utility.yul\":2271:2280   */\n      dup3\n        /* \"#utility.yul\":2262:2269   */\n      dup5\n        /* \"#utility.yul\":2258:2281   */\n      sub\n        /* \"#utility.yul\":2254:2286   */\n      slt\n        /* \"#utility.yul\":2251:2370   */\n      iszero\n      tag_205\n      jumpi\n        /* \"#utility.yul\":2289:2368   */\n      tag_206\n      tag_135\n      jump\t// in\n    tag_206:\n        /* \"#utility.yul\":2251:2370   */\n    tag_205:\n        /* \"#utility.yul\":2409:2410   */\n      0x00\n        /* \"#utility.yul\":2434:2496   */\n      tag_207\n        /* \"#utility.yul\":2488:2495   */\n      dup5\n        /* \"#utility.yul\":2479:2485   */\n      dup3\n        /* \"#utility.yul\":2468:2477   */\n      dup6\n        /* \"#utility.yul\":2464:2486   */\n      add\n        /* \"#utility.yul\":2434:2496   */\n      tag_138\n      jump\t// in\n    tag_207:\n        /* \"#utility.yul\":2424:2496   */\n      swap2\n      pop\n        /* \"#utility.yul\":2380:2506   */\n      pop\n        /* \"#utility.yul\":2166:2513   */\n      swap3\n      swap2\n      pop\n      pop\n      jump\t// out\n        /* \"#utility.yul\":2519:2618   */\n    tag_139:\n        /* \"#utility.yul\":2571:2577   */\n      0x00\n        /* \"#utility.yul\":2605:2610   */\n      dup2\n        /* \"#utility.yul\":2599:2611   */\n      mload\n        /* \"#utility.yul\":2589:2611   */\n      swap1\n      pop\n        /* \"#utility.yul\":2519:2618   */\n      swap2\n      swap1\n      pop\n      jump\t// out\n        /* \"#utility.yul\":2624:2793   */\n    tag_140:\n        /* \"#utility.yul\":2708:2719   */\n      0x00\n        /* \"#utility.yul\":2742:2748   */\n      dup3\n        /* \"#utility.yul\":2737:2740   */\n      dup3\n        /* \"#utility.yul\":2730:2749   */\n      mstore\n        /* \"#utility.yul\":2782:2786   */\n      0x20\n        /* \"#utility.yul\":2777:2780   */\n      dup3\n        /* \"#utility.yul\":2773:2787   */\n      add\n        /* \"#utility.yul\":2758:2787   */\n      swap1\n      pop\n        /* \"#utility.yul\":2624:2793   */\n      swap3\n      swap2\n      pop\n      pop\n      jump\t// out\n        /* \"#utility.yul\":2799:2938   */\n    tag_141:\n        /* \"#utility.yul\":2888:2894   */\n      dup3\n        /* \"#utility.yul\":2883:2886   */\n      dup2\n        /* \"#utility.yul\":2878:2881   */\n      dup4\n        /* \"#utility.yul\":2872:2895   */\n      mcopy\n        /* \"#utility.yul\":2929:2930   */\n      0x00\n        /* \"#utility.yul\":2920:2926   */\n      dup4\n        /* \"#utility.yul\":2915:2918   */\n      dup4\n        /* \"#utility.yul\":2911:2927   */\n      add\n        /* \"#utility.yul\":2904:2931   */\n      mstore\n        /* \"#utility.yul\":2799:2938   */\n      pop\n      pop\n      pop\n      jump\t// out\n        /* \"#utility.yul\":2944:3046   */\n    tag_142:\n        /* \"#utility.yul\":2985:2991   */\n      0x00\n        /* \"#utility.yul\":3036:3038   */\n      0x1f\n        /* \"#utility.yul\":3032:3039   */\n      not\n        /* \"#utility.yul\":3027:3029   */\n      0x1f\n        /* \"#utility.yul\":3020:3025   */\n      dup4\n        /* \"#utility.yul\":3016:3030   */\n      add\n        /* \"#utility.yul\":3012:3040   */\n      and\n        /* \"#utility.yul\":3002:3040   */\n      swap1\n      pop\n        /* \"#utility.yul\":2944:3046   */\n      swap2\n      swap1\n      pop\n      jump\t// out\n        /* \"#utility.yul\":3052:3429   */\n    tag_143:\n        /* \"#utility.yul\":3140:3143   */\n      0x00\n        /* \"#utility.yul\":3168:3207   */\n      tag_213\n        /* \"#utility.yul\":3201:3206   */\n      dup3\n        /* \"#utility.yul\":3168:3207   */\n      tag_139\n      jump\t// in\n    tag_213:\n        /* \"#utility.yul\":3223:3294   */\n      tag_214\n        /* \"#utility.yul\":3287:3293   */\n      dup2\n        /* \"#utility.yul\":3282:3285   */\n      dup6\n        /* \"#utility.yul\":3223:3294   */\n      tag_140\n      jump\t// in\n    tag_214:\n        /* \"#utility.yul\":3216:3294   */\n      swap4\n      pop\n        /* \"#utility.yul\":3303:3368   */\n      tag_215\n        /* \"#utility.yul\":3361:3367   */\n      dup2\n        /* \"#utility.yul\":3356:3359   */\n      dup6\n        /* \"#utility.yul\":3349:3353   */\n      0x20\n        /* \"#utility.yul\":3342:3347   */\n      dup7\n        /* \"#utility.yul\":3338:3354   */\n      add\n        /* \"#utility.yul\":3303:3368   */\n      tag_141\n      jump\t// in\n    tag_215:\n        /* \"#utility.yul\":3393:3422   */\n      tag_216\n        /* \"#utility.yul\":3415:3421   */\n      dup2\n        /* \"#utility.yul\":3393:3422   */\n      tag_142\n      jump\t// in\n    tag_216:\n        /* \"#utility.yul\":3388:3391   */\n      dup5\n        /* \"#utility.yul\":3384:3423   */\n      add\n        /* \"#utility.yul\":3377:3423   */\n      swap2\n      pop\n        /* \"#utility.yul\":3144:3429   */\n      pop\n        /* \"#utility.yul\":3052:3429   */\n      swap3\n      swap2\n      pop\n      pop\n      jump\t// out\n        /* \"#utility.yul\":3435:3748   */\n    tag_28:\n        /* \"#utility.yul\":3548:3552   */\n      0x00\n        /* \"#utility.yul\":3586:3588   */\n      0x20\n        /* \"#utility.yul\":3575:3584   */\n      dup3\n        /* \"#utility.yul\":3571:3589   */\n      add\n        /* \"#utility.yul\":3563:3589   */\n      swap1\n      pop\n        /* \"#utility.yul\":3635:3644   */\n      dup2\n        /* \"#utility.yul\":3629:3633   */\n      dup2\n        /* \"#utility.yul\":3625:3645   */\n      sub\n        /* \"#utility.yul\":3621:3622   */\n      0x00\n        /* \"#utility.yul\":3610:3619   */\n      dup4\n        /* \"#utility.yul\":3606:3623   */\n      add\n        /* \"#utility.yul\":3599:3646   */\n      mstore\n        /* \"#utility.yul\":3663:3741   */\n      tag_218\n        /* \"#utility.yul\":3736:3740   */\n      dup2\n        /* \"#utility.yul\":3727:3733   */\n      dup5\n        /* \"#utility.yul\":3663:3741   */\n      tag_143\n      jump\t// in\n    tag_218:\n        /* \"#utility.yul\":3655:3741   */\n      swap1\n      pop\n        /* \"#utility.yul\":3435:3748   */\n      swap3\n      swap2\n      pop\n      pop\n      jump\t// out\n        /* \"#utility.yul\":3754:3831   */\n    tag_144:\n        /* \"#utility.yul\":3791:3798   */\n      0x00\n        /* \"#utility.yul\":3820:3825   */\n      dup2\n        /* \"#utility.yul\":3809:3825   */\n      swap1\n      pop\n        /* \"#utility.yul\":3754:3831   */\n      swap2\n      swap1\n      pop\n      jump\t// out\n        /* \"#utility.yul\":3837:3955   */\n    tag_145:\n        /* \"#utility.yul\":3924:3948   */\n      tag_221\n        /* \"#utility.yul\":3942:3947   */\n      dup2\n        /* \"#utility.yul\":3924:3948   */\n      tag_144\n      jump\t// in\n    tag_221:\n        /* \"#utility.yul\":3919:3922   */\n      dup3\n        /* \"#utility.yul\":3912:3949   */\n      mstore\n        /* \"#utility.yul\":3837:3955   */\n      pop\n      pop\n      jump\t// out\n        /* \"#utility.yul\":3961:4183   */\n    tag_37:\n        /* \"#utility.yul\":4054:4058   */\n      0x00\n        /* \"#utility.yul\":4092:4094   */\n      0x20\n        /* \"#utility.yul\":4081:4090   */\n      dup3\n        /* \"#utility.yul\":4077:4095   */\n      add\n        /* \"#utility.yul\":4069:4095   */\n      swap1\n      pop\n        /* \"#utility.yul\":4105:4176   */\n      tag_223\n        /* \"#utility.yul\":4173:4174   */\n      0x00\n        /* \"#utility.yul\":4162:4171   */\n      dup4\n        /* \"#utility.yul\":4158:4175   */\n      add\n        /* \"#utility.yul\":4149:4155   */\n      dup5\n        /* \"#utility.yul\":4105:4176   */\n      tag_145\n      jump\t// in\n    tag_223:\n        /* \"#utility.yul\":3961:4183   */\n      swap3\n      swap2\n      pop\n      pop\n      jump\t// out\n        /* \"#utility.yul\":4189:4311   */\n    tag_146:\n        /* \"#utility.yul\":4262:4286   */\n      tag_225\n        /* \"#utility.yul\":4280:4285   */\n      dup2\n        /* \"#utility.yul\":4262:4286   */\n      tag_132\n      jump\t// in\n    tag_225:\n        /* \"#utility.yul\":4255:4260   */\n      dup2\n        /* \"#utility.yul\":4252:4287   */\n      eq\n        /* \"#utility.yul\":4242:4305   */\n      tag_226\n      jumpi\n        /* \"#utility.yul\":4301:4302   */\n      0x00\n        /* \"#utility.yul\":4298:4299   */\n      0x00\n        /* \"#utility.yul\":4291:4303   */\n      revert\n        /* \"#utility.yul\":4242:4305   */\n    tag_226:\n        /* \"#utility.yul\":4189:4311   */\n      pop\n      jump\t// out\n        /* \"#utility.yul\":4317:4456   */\n    tag_147:\n        /* \"#utility.yul\":4363:4368   */\n      0x00\n        /* \"#utility.yul\":4401:4407   */\n      dup2\n        /* \"#utility.yul\":4388:4408   */\n      calldataload\n        /* \"#utility.yul\":4379:4408   */\n      swap1\n      pop\n        /* \"#utility.yul\":4417:4450   */\n      tag_228\n        /* \"#utility.yul\":4444:4449   */\n      dup2\n        /* \"#utility.yul\":4417:4450   */\n      tag_146\n      jump\t// in\n    tag_228:\n        /* \"#utility.yul\":4317:4456   */\n      swap3\n      swap2\n      pop\n      pop\n      jump\t// out\n        /* \"#utility.yul\":4462:4791   */\n    tag_41:\n        /* \"#utility.yul\":4521:4527   */\n      0x00\n        /* \"#utility.yul\":4570:4572   */\n      0x20\n        /* \"#utility.yul\":4558:4567   */\n      dup3\n        /* \"#utility.yul\":4549:4556   */\n      dup5\n        /* \"#utility.yul\":4545:4568   */\n      sub\n        /* \"#utility.yul\":4541:4573   */\n      slt\n        /* \"#utility.yul\":4538:4657   */\n      iszero\n      tag_230\n      jumpi\n        /* \"#utility.yul\":4576:4655   */\n      tag_231\n      tag_135\n      jump\t// in\n    tag_231:\n        /* \"#utility.yul\":4538:4657   */\n    tag_230:\n        /* \"#utility.yul\":4696:4697   */\n      0x00\n        /* \"#utility.yul\":4721:4774   */\n      tag_232\n        /* \"#utility.yul\":4766:4773   */\n      dup5\n        /* \"#utility.yul\":4757:4763   */\n      dup3\n        /* \"#utility.yul\":4746:4755   */\n      dup6\n        /* \"#utility.yul\":4742:4764   */\n      add\n        /* \"#utility.yul\":4721:4774   */\n      tag_147\n      jump\t// in\n    tag_232:\n        /* \"#utility.yul\":4711:4774   */\n      swap2\n      pop\n        /* \"#utility.yul\":4667:4784   */\n      pop\n        /* \"#utility.yul\":4462:4791   */\n      swap3\n      swap2\n      pop\n      pop\n      jump\t// out\n        /* \"#utility.yul\":4797:4956   */\n    tag_148:\n        /* \"#utility.yul\":4937:4948   */\n      0x4e6f74204f776e65720000000000000000000000000000000000000000000000\n        /* \"#utility.yul\":4933:4934   */\n      0x00\n        /* \"#utility.yul\":4925:4931   */\n      dup3\n        /* \"#utility.yul\":4921:4935   */\n      add\n        /* \"#utility.yul\":4914:4949   */\n      mstore\n        /* \"#utility.yul\":4797:4956   */\n      pop\n      jump\t// out\n        /* \"#utility.yul\":4962:5327   */\n    tag_149:\n        /* \"#utility.yul\":5104:5107   */\n      0x00\n        /* \"#utility.yul\":5125:5191   */\n      tag_235\n        /* \"#utility.yul\":5189:5190   */\n      0x09\n        /* \"#utility.yul\":5184:5187   */\n      dup4\n        /* \"#utility.yul\":5125:5191   */\n      tag_140\n      jump\t// in\n    tag_235:\n        /* \"#utility.yul\":5118:5191   */\n      swap2\n      pop\n        /* \"#utility.yul\":5200:5293   */\n      tag_236\n        /* \"#utility.yul\":5289:5292   */\n      dup3\n        /* \"#utility.yul\":5200:5293   */\n      tag_148\n      jump\t// in\n    tag_236:\n        /* \"#utility.yul\":5318:5320   */\n      0x20\n        /* \"#utility.yul\":5313:5316   */\n      dup3\n        /* \"#utility.yul\":5309:5321   */\n      add\n        /* \"#utility.yul\":5302:5321   */\n      swap1\n      pop\n        /* \"#utility.yul\":4962:5327   */\n      swap2\n      swap1\n      pop\n      jump\t// out\n        /* \"#utility.yul\":5333:5752   */\n    tag_57:\n        /* \"#utility.yul\":5499:5503   */\n      0x00\n        /* \"#utility.yul\":5537:5539   */\n      0x20\n        /* \"#utility.yul\":5526:5535   */\n      dup3\n        /* \"#utility.yul\":5522:5540   */\n      add\n        /* \"#utility.yul\":5514:5540   */\n      swap1\n      pop\n        /* \"#utility.yul\":5586:5595   */\n      dup2\n        /* \"#utility.yul\":5580:5584   */\n      dup2\n        /* \"#utility.yul\":5576:5596   */\n      sub\n        /* \"#utility.yul\":5572:5573   */\n      0x00\n        /* \"#utility.yul\":5561:5570   */\n      dup4\n        /* \"#utility.yul\":5557:5574   */\n      add\n        /* \"#utility.yul\":5550:5597   */\n      mstore\n        /* \"#utility.yul\":5614:5745   */\n      tag_238\n        /* \"#utility.yul\":5740:5744   */\n      dup2\n        /* \"#utility.yul\":5614:5745   */\n      tag_149\n      jump\t// in\n    tag_238:\n        /* \"#utility.yul\":5606:5745   */\n      swap1\n      pop\n        /* \"#utility.yul\":5333:5752   */\n      swap2\n      swap1\n      pop\n      jump\t// out\n        /* \"#utility.yul\":5758:5925   */\n    tag_150:\n        /* \"#utility.yul\":5898:5917   */\n      0x416c72656164792044656c697665726564000000000000000000000000000000\n        /* \"#utility.yul\":5894:5895   */\n      0x00\n        /* \"#utility.yul\":5886:5892   */\n      dup3\n        /* \"#utility.yul\":5882:5896   */\n      add\n        /* \"#utility.yul\":5875:5918   */\n      mstore\n        /* \"#utility.yul\":5758:5925   */\n      pop\n      jump\t// out\n        /* \"#utility.yul\":5931:6297   */\n    tag_151:\n        /* \"#utility.yul\":6073:6076   */\n      0x00\n        /* \"#utility.yul\":6094:6161   */\n      tag_241\n        /* \"#utility.yul\":6158:6160   */\n      0x11\n        /* \"#utility.yul\":6153:6156   */\n      dup4\n        /* \"#utility.yul\":6094:6161   */\n      tag_140\n      jump\t// in\n    tag_241:\n        /* \"#utility.yul\":6087:6161   */\n      swap2\n      pop\n        /* \"#utility.yul\":6170:6263   */\n      tag_242\n        /* \"#utility.yul\":6259:6262   */\n      dup3\n        /* \"#utility.yul\":6170:6263   */\n      tag_150\n      jump\t// in\n    tag_242:\n        /* \"#utility.yul\":6288:6290   */\n      0x20\n        /* \"#utility.yul\":6283:6286   */\n      dup3\n        /* \"#utility.yul\":6279:6291   */\n      add\n        /* \"#utility.yul\":6272:6291   */\n      swap1\n      pop\n        /* \"#utility.yul\":5931:6297   */\n      swap2\n      swap1\n      pop\n      jump\t// out\n        /* \"#utility.yul\":6303:6722   */\n    tag_66:\n        /* \"#utility.yul\":6469:6473   */\n      0x00\n        /* \"#utility.yul\":6507:6509   */\n      0x20\n        /* \"#utility.yul\":6496:6505   */\n      dup3\n        /* \"#utility.yul\":6492:6510   */\n      add\n        /* \"#utility.yul\":6484:6510   */\n      swap1\n      pop\n        /* \"#utility.yul\":6556:6565   */\n      dup2\n        /* \"#utility.yul\":6550:6554   */\n      dup2\n        /* \"#utility.yul\":6546:6566   */\n      sub\n        /* \"#utility.yul\":6542:6543   */\n      0x00\n        /* \"#utility.yul\":6531:6540   */\n      dup4\n        /* \"#utility.yul\":6527:6544   */\n      add\n        /* \"#utility.yul\":6520:6567   */\n      mstore\n        /* \"#utility.yul\":6584:6715   */\n      tag_244\n        /* \"#utility.yul\":6710:6714   */\n      dup2\n        /* \"#utility.yul\":6584:6715   */\n      tag_151\n      jump\t// in\n    tag_244:\n        /* \"#utility.yul\":6576:6715   */\n      swap1\n      pop\n        /* \"#utility.yul\":6303:6722   */\n      swap2\n      swap1\n      pop\n      jump\t// out\n        /* \"#utility.yul\":6728:6885   */\n    tag_152:\n        /* \"#utility.yul\":6868:6877   */\n      0x5368697070656400000000000000000000000000000000000000000000000000\n        /* \"#utility.yul\":6864:6865   */\n      0x00\n        /* \"#utility.yul\":6856:6862   */\n      dup3\n        /* \"#utility.yul\":6852:6866   */\n      add\n        /* \"#utility.yul\":6845:6878   */\n      mstore\n        /* \"#utility.yul\":6728:6885   */\n      pop\n      jump\t// out\n        /* \"#utility.yul\":6891:7256   */\n    tag_153:\n        /* \"#utility.yul\":7033:7036   */\n      0x00\n        /* \"#utility.yul\":7054:7120   */\n      tag_247\n        /* \"#utility.yul\":7118:7119   */\n      0x07\n        /* \"#utility.yul\":7113:7116   */\n      dup4\n        /* \"#utility.yul\":7054:7120   */\n      tag_140\n      jump\t// in\n    tag_247:\n        /* \"#utility.yul\":7047:7120   */\n      swap2\n      pop\n        /* \"#utility.yul\":7129:7222   */\n      tag_248\n        /* \"#utility.yul\":7218:7221   */\n      dup3\n        /* \"#utility.yul\":7129:7222   */\n      tag_152\n      jump\t// in\n    tag_248:\n        /* \"#utility.yul\":7247:7249   */\n      0x20\n        /* \"#utility.yul\":7242:7245   */\n      dup3\n        /* \"#utility.yul\":7238:7250   */\n      add\n        /* \"#utility.yul\":7231:7250   */\n      swap1\n      pop\n        /* \"#utility.yul\":6891:7256   */\n      swap2\n      swap1\n      pop\n      jump\t// out\n        /* \"#utility.yul\":7262:7681   */\n    tag_76:\n        /* \"#utility.yul\":7428:7432   */\n      0x00\n        /* \"#utility.yul\":7466:7468   */\n      0x20\n        /* \"#utility.yul\":7455:7464   */\n      dup3\n        /* \"#utility.yul\":7451:7469   */\n      add\n        /* \"#utility.yul\":7443:7469   */\n      swap1\n      pop\n        /* \"#utility.yul\":7515:7524   */\n      dup2\n        /* \"#utility.yul\":7509:7513   */\n      dup2\n        /* \"#utility.yul\":7505:7525   */\n      sub\n        /* \"#utility.yul\":7501:7502   */\n      0x00\n        /* \"#utility.yul\":7490:7499   */\n      dup4\n        /* \"#utility.yul\":7486:7503   */\n      add\n        /* \"#utility.yul\":7479:7526   */\n      mstore\n        /* \"#utility.yul\":7543:7674   */\n      tag_250\n        /* \"#utility.yul\":7669:7673   */\n      dup2\n        /* \"#utility.yul\":7543:7674   */\n      tag_153\n      jump\t// in\n    tag_250:\n        /* \"#utility.yul\":7535:7674   */\n      swap1\n      pop\n        /* \"#utility.yul\":7262:7681   */\n      swap2\n      swap1\n      pop\n      jump\t// out\n        /* \"#utility.yul\":7687:7867   */\n    tag_154:\n        /* \"#utility.yul\":7735:7812   */\n      0x4e487b7100000000000000000000000000000000000000000000000000000000\n        /* \"#utility.yul\":7732:7733   */\n      0x00\n        /* \"#utility.yul\":7725:7813   */\n      mstore\n        /* \"#utility.yul\":7832:7836   */\n      0x41\n        /* \"#utility.yul\":7829:7830   */\n      0x04\n        /* \"#utility.yul\":7822:7837   */\n      mstore\n        /* \"#utility.yul\":7856:7860   */\n      0x24\n        /* \"#utility.yul\":7853:7854   */\n      0x00\n        /* \"#utility.yul\":7846:7861   */\n      revert\n        /* \"#utility.yul\":7873:8053   */\n    tag_155:\n        /* \"#utility.yul\":7921:7998   */\n      0x4e487b7100000000000000000000000000000000000000000000000000000000\n        /* \"#utility.yul\":7918:7919   */\n      0x00\n        /* \"#utility.yul\":7911:7999   */\n      mstore\n        /* \"#utility.yul\":8018:8022   */\n      0x22\n        /* \"#utility.yul\":8015:8016   */\n      0x04\n        /* \"#utility.yul\":8008:8023   */\n      mstore\n        /* \"#utility.yul\":8042:8046   */\n      0x24\n        /* \"#utility.yul\":8039:8040   */\n      0x00\n        /* \"#utility.yul\":8032:8047   */\n      revert\n        /* \"#utility.yul\":8059:8379   */\n    tag_80:\n        /* \"#utility.yul\":8103:8109   */\n      0x00\n        /* \"#utility.yul\":8140:8141   */\n      0x02\n        /* \"#utility.yul\":8134:8138   */\n      dup3\n        /* \"#utility.yul\":8130:8142   */\n      div\n        /* \"#utility.yul\":8120:8142   */\n      swap1\n      pop\n        /* \"#utility.yul\":8187:8188   */\n      0x01\n        /* \"#utility.yul\":8181:8185   */\n      dup3\n        /* \"#utility.yul\":8177:8189   */\n      and\n        /* \"#utility.yul\":8208:8226   */\n      dup1\n        /* \"#utility.yul\":8198:8279   */\n      tag_254\n      jumpi\n        /* \"#utility.yul\":8264:8268   */\n      0x7f\n        /* \"#utility.yul\":8256:8262   */\n      dup3\n        /* \"#utility.yul\":8252:8269   */\n      and\n        /* \"#utility.yul\":8242:8269   */\n      swap2\n      pop\n        /* \"#utility.yul\":8198:8279   */\n    tag_254:\n        /* \"#utility.yul\":8326:8328   */\n      0x20\n        /* \"#utility.yul\":8318:8324   */\n      dup3\n        /* \"#utility.yul\":8315:8329   */\n      lt\n        /* \"#utility.yul\":8295:8313   */\n      dup2\n        /* \"#utility.yul\":8292:8330   */\n      sub\n        /* \"#utility.yul\":8289:8373   */\n      tag_255\n      jumpi\n        /* \"#utility.yul\":8345:8363   */\n      tag_256\n      tag_155\n      jump\t// in\n    tag_256:\n        /* \"#utility.yul\":8289:8373   */\n    tag_255:\n        /* \"#utility.yul\":8110:8379   */\n      pop\n        /* \"#utility.yul\":8059:8379   */\n      swap2\n      swap1\n      pop\n      jump\t// out\n        /* \"#utility.yul\":8385:8526   */\n    tag_156:\n        /* \"#utility.yul\":8434:8438   */\n      0x00\n        /* \"#utility.yul\":8457:8460   */\n      dup2\n        /* \"#utility.yul\":8449:8460   */\n      swap1\n      pop\n        /* \"#utility.yul\":8480:8483   */\n      dup2\n        /* \"#utility.yul\":8477:8478   */\n      0x00\n        /* \"#utility.yul\":8470:8484   */\n      mstore\n        /* \"#utility.yul\":8514:8518   */\n      0x20\n        /* \"#utility.yul\":8511:8512   */\n      0x00\n        /* \"#utility.yul\":8501:8519   */\n      keccak256\n        /* \"#utility.yul\":8493:8519   */\n      swap1\n      pop\n        /* \"#utility.yul\":8385:8526   */\n      swap2\n      swap1\n      pop\n      jump\t// out\n        /* \"#utility.yul\":8532:8625   */\n    tag_157:\n        /* \"#utility.yul\":8569:8575   */\n      0x00\n        /* \"#utility.yul\":8616:8618   */\n      0x20\n        /* \"#utility.yul\":8611:8613   */\n      0x1f\n        /* \"#utility.yul\":8604:8609   */\n      dup4\n        /* \"#utility.yul\":8600:8614   */\n      add\n        /* \"#utility.yul\":8596:8619   */\n      div\n        /* \"#utility.yul\":8586:8619   */\n      swap1\n      pop\n        /* \"#utility.yul\":8532:8625   */\n      swap2\n      swap1\n      pop\n      jump\t// out\n        /* \"#utility.yul\":8631:8738   */\n    tag_158:\n        /* \"#utility.yul\":8675:8683   */\n      0x00\n        /* \"#utility.yul\":8725:8730   */\n      dup3\n        /* \"#utility.yul\":8719:8723   */\n      dup3\n        /* \"#utility.yul\":8715:8731   */\n      shl\n        /* \"#utility.yul\":8694:8731   */\n      swap1\n      pop\n        /* \"#utility.yul\":8631:8738   */\n      swap3\n      swap2\n      pop\n      pop\n      jump\t// out\n        /* \"#utility.yul\":8744:9137   */\n    tag_159:\n        /* \"#utility.yul\":8813:8819   */\n      0x00\n        /* \"#utility.yul\":8863:8864   */\n      0x08\n        /* \"#utility.yul\":8851:8861   */\n      dup4\n        /* \"#utility.yul\":8847:8865   */\n      mul\n        /* \"#utility.yul\":8886:8983   */\n      tag_261\n        /* \"#utility.yul\":8916:8982   */\n      0xffffffffffffffffffffffffffffffffffffffffffffffffffffffffffffffff\n        /* \"#utility.yul\":8905:8914   */\n      dup3\n        /* \"#utility.yul\":8886:8983   */\n      tag_158\n      jump\t// in\n    tag_261:\n        /* \"#utility.yul\":9004:9043   */\n      tag_262\n        /* \"#utility.yul\":9034:9042   */\n      dup7\n        /* \"#utility.yul\":9023:9032   */\n      dup4\n        /* \"#utility.yul\":9004:9043   */\n      tag_158\n      jump\t// in\n    tag_262:\n        /* \"#utility.yul\":8992:9043   */\n      swap6\n      pop\n        /* \"#utility.yul\":9076:9080   */\n      dup1\n        /* \"#utility.yul\":9072:9081   */\n      not\n        /* \"#utility.yul\":9065:9070   */\n      dup5\n        /* \"#utility.yul\":9061:9082   */\n      and\n        /* \"#utility.yul\":9052:9082   */\n      swap4\n      pop\n        /* \"#utility.yul\":9125:9129   */\n      dup1\n        /* \"#utility.yul\":9115:9123   */\n      dup7\n        /* \"#utility.yul\":9111:9130   */\n      and\n        /* \"#utility.yul\":9104:9109   */\n      dup5\n        /* \"#utility.yul\":9101:9131   */\n      or\n        /* \"#utility.yul\":9091:9131   */\n      swap3\n      pop\n        /* \"#utility.yul\":8820:9137   */\n      pop\n      pop\n        /* \"#utility.yul\":8744:9137   */\n      swap4\n      swap3\n      pop\n      pop\n      pop\n      jump\t// out\n        /* \"#utility.yul\":9143:9203   */\n    tag_160:\n        /* \"#utility.yul\":9171:9174   */\n      0x00\n        /* \"#utility.yul\":9192:9197   */\n      dup2\n        /* \"#utility.yul\":9185:9197   */\n      swap1\n      pop\n        /* \"#utility.yul\":9143:9203   */\n      swap2\n      swap1\n      pop\n      jump\t// out\n        /* \"#utility.yul\":9209:9351   */\n    tag_161:\n        /* \"#utility.yul\":9259:9268   */\n      0x00\n        /* \"#utility.yul\":9292:9345   */\n      tag_265\n        /* \"#utility.yul\":9310:9344   */\n      tag_266\n        /* \"#utility.yul\":9319:9343   */\n      tag_267\n        /* \"#utility.yul\":9337:9342   */\n      dup5\n        /* \"#utility.yul\":9319:9343   */\n      tag_144\n      jump\t// in\n    tag_267:\n        /* \"#utility.yul\":9310:9344   */\n      tag_160\n      jump\t// in\n    tag_266:\n        /* \"#utility.yul\":9292:9345   */\n      tag_144\n      jump\t// in\n    tag_265:\n        /* \"#utility.yul\":9279:9345   */\n      swap1\n      pop\n        /* \"#utility.yul\":9209:9351   */\n      swap2\n      swap1\n      pop\n      jump\t// out\n        /* \"#utility.yul\":9357:9432   */\n    tag_162:\n        /* \"#utility.yul\":9400:9403   */\n      0x00\n        /* \"#utility.yul\":9421:9426   */\n      dup2\n        /* \"#utility.yul\":9414:9426   */\n      swap1\n      pop\n        /* \"#utility.yul\":9357:9432   */\n      swap2\n      swap1\n      pop\n      jump\t// out\n        /* \"#utility.yul\":9438:9707   */\n    tag_163:\n        /* \"#utility.yul\":9548:9587   */\n      tag_270\n        /* \"#utility.yul\":9579:9586   */\n      dup4\n        /* \"#utility.yul\":9548:9587   */\n      tag_161\n      jump\t// in\n    tag_270:\n        /* \"#utility.yul\":9609:9700   */\n      tag_271\n        /* \"#utility.yul\":9658:9699   */\n      tag_272\n        /* \"#utility.yul\":9682:9698   */\n      dup3\n        /* \"#utility.yul\":9658:9699   */\n      tag_162\n      jump\t// in\n    tag_272:\n        /* \"#utility.yul\":9650:9656   */\n      dup5\n        /* \"#utility.yul\":9643:9647   */\n      dup5\n        /* \"#utility.yul\":9637:9648   */\n      sload\n        /* \"#utility.yul\":9609:9700   */\n      tag_159\n      jump\t// in\n    tag_271:\n        /* \"#utility.yul\":9603:9607   */\n      dup3\n        /* \"#utility.yul\":9596:9701   */\n      sstore\n        /* \"#utility.yul\":9514:9707   */\n      pop\n        /* \"#utility.yul\":9438:9707   */\n      pop\n      pop\n      pop\n      jump\t// out\n        /* \"#utility.yul\":9713:9786   */\n    tag_164:\n        /* \"#utility.yul\":9758:9761   */\n      0x00\n        /* \"#utility.yul\":9779:9780   */\n      0x00\n        /* \"#utility.yul\":9772:9780   */\n      swap1\n      pop\n        /* \"#utility.yul\":9713:9786   */\n      swap1\n      jump\t// out\n        /* \"#utility.yul\":9792:9981   */\n    tag_165:\n        /* \"#utility.yul\":9869:9901   */\n      tag_275\n      tag_164\n      jump\t// in\n    tag_275:\n        /* \"#utility.yul\":9910:9975   */\n      tag_276\n        /* \"#utility.yul\":9968:9974   */\n      dup2\n        /* \"#utility.yul\":9960:9966   */\n      dup5\n        /* \"#utility.yul\":9954:9958   */\n      dup5\n        /* \"#utility.yul\":9910:9975   */\n      tag_163\n      jump\t// in\n    tag_276:\n        /* \"#utility.yul\":9845:9981   */\n      pop\n        /* \"#utility.yul\":9792:9981   */\n      pop\n      pop\n      jump\t// out\n        /* \"#utility.yul\":9987:10173   */\n    tag_166:\n        /* \"#utility.yul\":10047:10167   */\n    tag_278:\n        /* \"#utility.yul\":10064:10067   */\n      dup2\n        /* \"#utility.yul\":10057:10062   */\n      dup2\n        /* \"#utility.yul\":10054:10068   */\n      lt\n        /* \"#utility.yul\":10047:10167   */\n      iszero\n      tag_280\n      jumpi\n        /* \"#utility.yul\":10118:10157   */\n      tag_281\n        /* \"#utility.yul\":10155:10156   */\n      0x00\n        /* \"#utility.yul\":10148:10153   */\n      dup3\n        /* \"#utility.yul\":10118:10157   */\n      tag_165\n      jump\t// in\n    tag_281:\n        /* \"#utility.yul\":10091:10092   */\n      0x01\n        /* \"#utility.yul\":10084:10089   */\n      dup2\n        /* \"#utility.yul\":10080:10093   */\n      add\n        /* \"#utility.yul\":10071:10093   */\n      swap1\n      pop\n        /* \"#utility.yul\":10047:10167   */\n      jump(tag_278)\n    tag_280:\n        /* \"#utility.yul\":9987:10173   */\n      pop\n      pop\n      jump\t// out\n        /* \"#utility.yul\":10179:10722   */\n    tag_167:\n        /* \"#utility.yul\":10280:10282   */\n      0x1f\n        /* \"#utility.yul\":10275:10278   */\n      dup3\n        /* \"#utility.yul\":10272:10283   */\n      gt\n        /* \"#utility.yul\":10269:10715   */\n      iszero\n      tag_283\n      jumpi\n        /* \"#utility.yul\":10314:10352   */\n      tag_284\n        /* \"#utility.yul\":10346:10351   */\n      dup2\n        /* \"#utility.yul\":10314:10352   */\n      tag_156\n      jump\t// in\n    tag_284:\n        /* \"#utility.yul\":10398:10427   */\n      tag_285\n        /* \"#utility.yul\":10416:10426   */\n      dup5\n        /* \"#utility.yul\":10398:10427   */\n      tag_157\n      jump\t// in\n    tag_285:\n        /* \"#utility.yul\":10388:10396   */\n      dup2\n        /* \"#utility.yul\":10384:10428   */\n      add\n        /* \"#utility.yul\":10581:10583   */\n      0x20\n        /* \"#utility.yul\":10569:10579   */\n      dup6\n        /* \"#utility.yul\":10566:10584   */\n      lt\n        /* \"#utility.yul\":10563:10612   */\n      iszero\n      tag_286\n      jumpi\n        /* \"#utility.yul\":10602:10610   */\n      dup2\n        /* \"#utility.yul\":10587:10610   */\n      swap1\n      pop\n        /* \"#utility.yul\":10563:10612   */\n    tag_286:\n        /* \"#utility.yul\":10625:10705   */\n      tag_287\n        /* \"#utility.yul\":10681:10703   */\n      tag_288\n        /* \"#utility.yul\":10699:10702   */\n      dup6\n        /* \"#utility.yul\":10681:10703   */\n      tag_157\n      jump\t// in\n    tag_288:\n        /* \"#utility.yul\":10671:10679   */\n      dup4\n        /* \"#utility.yul\":10667:10704   */\n      add\n        /* \"#utility.yul\":10654:10665   */\n      dup3\n        /* \"#utility.yul\":10625:10705   */\n      tag_166\n      jump\t// in\n    tag_287:\n        /* \"#utility.yul\":10284:10715   */\n      pop\n      pop\n        /* \"#utility.yul\":10269:10715   */\n    tag_283:\n        /* \"#utility.yul\":10179:10722   */\n      pop\n      pop\n      pop\n      jump\t// out\n        /* \"#utility.yul\":10728:10845   */\n    tag_168:\n        /* \"#utility.yul\":10782:10790   */\n      0x00\n        /* \"#utility.yul\":10832:10837   */\n      dup3\n        /* \"#utility.yul\":10826:10830   */\n      dup3\n        /* \"#utility.yul\":10822:10838   */\n      shr\n        /* \"#utility.yul\":10801:10838   */\n      swap1\n      pop\n        /* \"#utility.yul\":10728:10845   */\n      swap3\n      swap2\n      pop\n      pop\n      jump\t// out\n        /* \"#utility.yul\":10851:11020   */\n    tag_169:\n        /* \"#utility.yul\":10895:10901   */\n      0x00\n        /* \"#utility.yul\":10928:10979   */\n      tag_291\n        /* \"#utility.yul\":10976:10977   */\n      0x00\n        /* \"#utility.yul\":10972:10978   */\n      not\n        /* \"#utility.yul\":10964:10969   */\n      dup5\n        /* \"#utility.yul\":10961:10962   */\n      0x08\n        /* \"#utility.yul\":10957:10970   */\n      mul\n        /* \"#utility.yul\":10928:10979   */\n      tag_168\n      jump\t// in\n    tag_291:\n        /* \"#utility.yul\":10924:10980   */\n      not\n        /* \"#utility.yul\":11009:11013   */\n      dup1\n        /* \"#utility.yul\":11003:11007   */\n      dup4\n        /* \"#utility.yul\":10999:11014   */\n      and\n        /* \"#utility.yul\":10989:11014   */\n      swap2\n      pop\n        /* \"#utility.yul\":10902:11020   */\n      pop\n        /* \"#utility.yul\":10851:11020   */\n      swap3\n      swap2\n      pop\n      pop\n      jump\t// out\n        /* \"#utility.yul\":11025:11320   */\n    tag_170:\n        /* \"#utility.yul\":11101:11105   */\n      0x00\n        /* \"#utility.yul\":11247:11276   */\n      tag_293\n        /* \"#utility.yul\":11272:11275   */\n      dup4\n        /* \"#utility.yul\":11266:11270   */\n      dup4\n        /* \"#utility.yul\":11247:11276   */\n      tag_169\n      jump\t// in\n    tag_293:\n        /* \"#utility.yul\":11239:11276   */\n      swap2\n      pop\n        /* \"#utility.yul\":11309:11312   */\n      dup3\n        /* \"#utility.yul\":11306:11307   */\n      0x02\n        /* \"#utility.yul\":11302:11313   */\n      mul\n        /* \"#utility.yul\":11296:11300   */\n      dup3\n        /* \"#utility.yul\":11293:11314   */\n      or\n        /* \"#utility.yul\":11285:11314   */\n      swap1\n      pop\n        /* \"#utility.yul\":11025:11320   */\n      swap3\n      swap2\n      pop\n      pop\n      jump\t// out\n        /* \"#utility.yul\":11325:12720   */\n    tag_78:\n        /* \"#utility.yul\":11442:11479   */\n      tag_295\n        /* \"#utility.yul\":11475:11478   */\n      dup3\n        /* \"#utility.yul\":11442:11479   */\n      tag_139\n      jump\t// in\n    tag_295:\n        /* \"#utility.yul\":11544:11562   */\n      0xffffffffffffffff\n        /* \"#utility.yul\":11536:11542   */\n      dup2\n        /* \"#utility.yul\":11533:11563   */\n      gt\n        /* \"#utility.yul\":11530:11586   */\n      iszero\n      tag_296\n      jumpi\n        /* \"#utility.yul\":11566:11584   */\n      tag_297\n      tag_154\n      jump\t// in\n    tag_297:\n        /* \"#utility.yul\":11530:11586   */\n    tag_296:\n        /* \"#utility.yul\":11610:11648   */\n      tag_298\n        /* \"#utility.yul\":11642:11646   */\n      dup3\n        /* \"#utility.yul\":11636:11647   */\n      sload\n        /* \"#utility.yul\":11610:11648   */\n      tag_80\n      jump\t// in\n    tag_298:\n        /* \"#utility.yul\":11695:11762   */\n      tag_299\n        /* \"#utility.yul\":11755:11761   */\n      dup3\n        /* \"#utility.yul\":11747:11753   */\n      dup3\n        /* \"#utility.yul\":11741:11745   */\n      dup6\n        /* \"#utility.yul\":11695:11762   */\n      tag_167\n      jump\t// in\n    tag_299:\n        /* \"#utility.yul\":11789:11790   */\n      0x00\n        /* \"#utility.yul\":11813:11817   */\n      0x20\n        /* \"#utility.yul\":11800:11817   */\n      swap1\n      pop\n        /* \"#utility.yul\":11845:11847   */\n      0x1f\n        /* \"#utility.yul\":11837:11843   */\n      dup4\n        /* \"#utility.yul\":11834:11848   */\n      gt\n        /* \"#utility.yul\":11862:11863   */\n      0x01\n        /* \"#utility.yul\":11857:12475   */\n      dup2\n      eq\n      tag_301\n      jumpi\n        /* \"#utility.yul\":12519:12520   */\n      0x00\n        /* \"#utility.yul\":12536:12542   */\n      dup5\n        /* \"#utility.yul\":12533:12610   */\n      iszero\n      tag_302\n      jumpi\n        /* \"#utility.yul\":12585:12594   */\n      dup3\n        /* \"#utility.yul\":12580:12583   */\n      dup8\n        /* \"#utility.yul\":12576:12595   */\n      add\n        /* \"#utility.yul\":12570:12596   */\n      mload\n        /* \"#utility.yul\":12561:12596   */\n      swap1\n      pop\n        /* \"#utility.yul\":12533:12610   */\n    tag_302:\n        /* \"#utility.yul\":12636:12703   */\n      tag_303\n        /* \"#utility.yul\":12696:12702   */\n      dup6\n        /* \"#utility.yul\":12689:12694   */\n      dup3\n        /* \"#utility.yul\":12636:12703   */\n      tag_170\n      jump\t// in\n    tag_303:\n        /* \"#utility.yul\":12630:12634   */\n      dup7\n        /* \"#utility.yul\":12623:12704   */\n      sstore\n        /* \"#utility.yul\":12492:12714   */\n      pop\n        /* \"#utility.yul\":11827:12714   */\n      jump(tag_300)\n        /* \"#utility.yul\":11857:12475   */\n    tag_301:\n        /* \"#utility.yul\":11909:11913   */\n      0x1f\n        /* \"#utility.yul\":11905:11914   */\n      not\n        /* \"#utility.yul\":11897:11903   */\n      dup5\n        /* \"#utility.yul\":11893:11915   */\n      and\n        /* \"#utility.yul\":11943:11980   */\n      tag_304\n        /* \"#utility.yul\":11975:11979   */\n      dup7\n        /* \"#utility.yul\":11943:11980   */\n      tag_156\n      jump\t// in\n    tag_304:\n        /* \"#utility.yul\":12002:12003   */\n      0x00\n        /* \"#utility.yul\":12016:12224   */\n    tag_305:\n        /* \"#utility.yul\":12030:12037   */\n      dup3\n        /* \"#utility.yul\":12027:12028   */\n      dup2\n        /* \"#utility.yul\":12024:12038   */\n      lt\n        /* \"#utility.yul\":12016:12224   */\n      iszero\n      tag_307\n      jumpi\n        /* \"#utility.yul\":12109:12118   */\n      dup5\n        /* \"#utility.yul\":12104:12107   */\n      dup10\n        /* \"#utility.yul\":12100:12119   */\n      add\n        /* \"#utility.yul\":12094:12120   */\n      mload\n        /* \"#utility.yul\":12086:12092   */\n      dup3\n        /* \"#utility.yul\":12079:12121   */\n      sstore\n        /* \"#utility.yul\":12160:12161   */\n      0x01\n        /* \"#utility.yul\":12152:12158   */\n      dup3\n        /* \"#utility.yul\":12148:12162   */\n      add\n        /* \"#utility.yul\":12138:12162   */\n      swap2\n      pop\n        /* \"#utility.yul\":12207:12209   */\n      0x20\n        /* \"#utility.yul\":12196:12205   */\n      dup6\n        /* \"#utility.yul\":12192:12210   */\n      add\n        /* \"#utility.yul\":12179:12210   */\n      swap5\n      pop\n        /* \"#utility.yul\":12053:12057   */\n      0x20\n        /* \"#utility.yul\":12050:12051   */\n      dup2\n        /* \"#utility.yul\":12046:12058   */\n      add\n        /* \"#utility.yul\":12041:12058   */\n      swap1\n      pop\n        /* \"#utility.yul\":12016:12224   */\n      jump(tag_305)\n    tag_307:\n        /* \"#utility.yul\":12252:12258   */\n      dup7\n        /* \"#utility.yul\":12243:12250   */\n      dup4\n        /* \"#utility.yul\":12240:12259   */\n      lt\n        /* \"#utility.yul\":12237:12416   */\n      iszero\n      tag_308\n      jumpi\n        /* \"#utility.yul\":12310:12319   */\n      dup5\n        /* \"#utility.yul\":12305:12308   */\n      dup10\n        /* \"#utility.yul\":12301:12320   */\n      add\n        /* \"#utility.yul\":12295:12321   */\n      mload\n        /* \"#utility.yul\":12353:12401   */\n      tag_309\n        /* \"#utility.yul\":12395:12399   */\n      0x1f\n        /* \"#utility.yul\":12387:12393   */\n      dup10\n        /* \"#utility.yul\":12383:12400   */\n      and\n        /* \"#utility.yul\":12372:12381   */\n      dup3\n        /* \"#utility.yul\":12353:12401   */\n      tag_169\n      jump\t// in\n    tag_309:\n        /* \"#utility.yul\":12345:12351   */\n      dup4\n        /* \"#utility.yul\":12338:12402   */\n      sstore\n        /* \"#utility.yul\":12260:12416   */\n      pop\n        /* \"#utility.yul\":12237:12416   */\n    tag_308:\n        /* \"#utility.yul\":12462:12463   */\n      0x01\n        /* \"#utility.yul\":12458:12459   */\n      0x02\n        /* \"#utility.yul\":12450:12456   */\n      dup9\n        /* \"#utility.yul\":12446:12460   */\n      mul\n        /* \"#utility.yul\":12442:12464   */\n      add\n        /* \"#utility.yul\":12436:12440   */\n      dup9\n        /* \"#utility.yul\":12429:12465   */\n      sstore\n        /* \"#utility.yul\":11864:12475   */\n      pop\n      pop\n      pop\n        /* \"#utility.yul\":11827:12714   */\n    tag_300:\n      pop\n        /* \"#utility.yul\":11417:12720   */\n      pop\n      pop\n      pop\n        /* \"#utility.yul\":11325:12720   */\n      pop\n      pop\n      jump\t// out\n        /* \"#utility.yul\":12726:12884   */\n    tag_171:\n        /* \"#utility.yul\":12866:12876   */\n      0x44656c6976657264000000000000000000000000000000000000000000000000\n        /* \"#utility.yul\":12862:12863   */\n      0x00\n        /* \"#utility.yul\":12854:12860   */\n      dup3\n        /* \"#utility.yul\":12850:12864   */\n      add\n        /* \"#utility.yul\":12843:12877   */\n      mstore\n        /* \"#utility.yul\":12726:12884   */\n      pop\n      jump\t// out\n        /* \"#utility.yul\":12890:13255   */\n    tag_172:\n        /* \"#utility.yul\":13032:13035   */\n      0x00\n        /* \"#utility.yul\":13053:13119   */\n      tag_312\n        /* \"#utility.yul\":13117:13118   */\n      0x08\n        /* \"#utility.yul\":13112:13115   */\n      dup4\n        /* \"#utility.yul\":13053:13119   */\n      tag_140\n      jump\t// in\n    tag_312:\n        /* \"#utility.yul\":13046:13119   */\n      swap2\n      pop\n        /* \"#utility.yul\":13128:13221   */\n      tag_313\n        /* \"#utility.yul\":13217:13220   */\n      dup3\n        /* \"#utility.yul\":13128:13221   */\n      tag_171\n      jump\t// in\n    tag_313:\n        /* \"#utility.yul\":13246:13248   */\n      0x20\n        /* \"#utility.yul\":13241:13244   */\n      dup3\n        /* \"#utility.yul\":13237:13249   */\n      add\n        /* \"#utility.yul\":13230:13249   */\n      swap1\n      pop\n        /* \"#utility.yul\":12890:13255   */\n      swap2\n      swap1\n      pop\n      jump\t// out\n        /* \"#utility.yul\":13261:13680   */\n    tag_92:\n        /* \"#utility.yul\":13427:13431   */\n      0x00\n        /* \"#utility.yul\":13465:13467   */\n      0x20\n        /* \"#utility.yul\":13454:13463   */\n      dup3\n        /* \"#utility.yul\":13450:13468   */\n      add\n        /* \"#utility.yul\":13442:13468   */\n      swap1\n      pop\n        /* \"#utility.yul\":13514:13523   */\n      dup2\n        /* \"#utility.yul\":13508:13512   */\n      dup2\n        /* \"#utility.yul\":13504:13524   */\n      sub\n        /* \"#utility.yul\":13500:13501   */\n      0x00\n        /* \"#utility.yul\":13489:13498   */\n      dup4\n        /* \"#utility.yul\":13485:13502   */\n      add\n        /* \"#utility.yul\":13478:13525   */\n      mstore\n        /* \"#utility.yul\":13542:13673   */\n      tag_315\n        /* \"#utility.yul\":13668:13672   */\n      dup2\n        /* \"#utility.yul\":13542:13673   */\n      tag_172\n      jump\t// in\n    tag_315:\n        /* \"#utility.yul\":13534:13673   */\n      swap1\n      pop\n        /* \"#utility.yul\":13261:13680   */\n      swap2\n      swap1\n      pop\n      jump\t// out\n        /* \"#utility.yul\":13686:13843   */\n    tag_173:\n        /* \"#utility.yul\":13826:13835   */\n      0x70656e64696e6700000000000000000000000000000000000000000000000000\n        /* \"#utility.yul\":13822:13823   */\n      0x00\n        /* \"#utility.yul\":13814:13820   */\n      dup3\n        /* \"#utility.yul\":13810:13824   */\n      add\n        /* \"#utility.yul\":13803:13836   */\n      mstore\n        /* \"#utility.yul\":13686:13843   */\n      pop\n      jump\t// out\n        /* \"#utility.yul\":13849:14214   */\n    tag_174:\n        /* \"#utility.yul\":13991:13994   */\n      0x00\n        /* \"#utility.yul\":14012:14078   */\n      tag_318\n        /* \"#utility.yul\":14076:14077   */\n      0x07\n        /* \"#utility.yul\":14071:14074   */\n      dup4\n        /* \"#utility.yul\":14012:14078   */\n      tag_140\n      jump\t// in\n    tag_318:\n        /* \"#utility.yul\":14005:14078   */\n      swap2\n      pop\n        /* \"#utility.yul\":14087:14180   */\n      tag_319\n        /* \"#utility.yul\":14176:14179   */\n      dup3\n        /* \"#utility.yul\":14087:14180   */\n      tag_173\n      jump\t// in\n    tag_319:\n        /* \"#utility.yul\":14205:14207   */\n      0x20\n        /* \"#utility.yul\":14200:14203   */\n      dup3\n        /* \"#utility.yul\":14196:14208   */\n      add\n        /* \"#utility.yul\":14189:14208   */\n      swap1\n      pop\n        /* \"#utility.yul\":13849:14214   */\n      swap2\n      swap1\n      pop\n      jump\t// out\n        /* \"#utility.yul\":14220:14639   */\n    tag_101:\n        /* \"#utility.yul\":14386:14390   */\n      0x00\n        /* \"#utility.yul\":14424:14426   */\n      0x20\n        /* \"#utility.yul\":14413:14422   */\n      dup3\n        /* \"#utility.yul\":14409:14427   */\n      add\n        /* \"#utility.yul\":14401:14427   */\n      swap1\n      pop\n        /* \"#utility.yul\":14473:14482   */\n      dup2\n        /* \"#utility.yul\":14467:14471   */\n      dup2\n        /* \"#utility.yul\":14463:14483   */\n      sub\n        /* \"#utility.yul\":14459:14460   */\n      0x00\n        /* \"#utility.yul\":14448:14457   */\n      dup4\n        /* \"#utility.yul\":14444:14461   */\n      add\n        /* \"#utility.yul\":14437:14484   */\n      mstore\n        /* \"#utility.yul\":14501:14632   */\n      tag_321\n        /* \"#utility.yul\":14627:14631   */\n      dup2\n        /* \"#utility.yul\":14501:14632   */\n      tag_174\n      jump\t// in\n    tag_321:\n        /* \"#utility.yul\":14493:14632   */\n      swap1\n      pop\n        /* \"#utility.yul\":14220:14639   */\n      swap2\n      swap1\n      pop\n      jump\t// out\n        /* \"#utility.yul\":14645:14815   */\n    tag_175:\n        /* \"#utility.yul\":14785:14807   */\n      0x496e73756666696369656e742042616c616e6365000000000000000000000000\n        /* \"#utility.yul\":14781:14782   */\n      0x00\n        /* \"#utility.yul\":14773:14779   */\n      dup3\n        /* \"#utility.yul\":14769:14783   */\n      add\n        /* \"#utility.yul\":14762:14808   */\n      mstore\n        /* \"#utility.yul\":14645:14815   */\n      pop\n      jump\t// out\n        /* \"#utility.yul\":14821:15187   */\n    tag_176:\n        /* \"#utility.yul\":14963:14966   */\n      0x00\n        /* \"#utility.yul\":14984:15051   */\n      tag_324\n        /* \"#utility.yul\":15048:15050   */\n      0x14\n        /* \"#utility.yul\":15043:15046   */\n      dup4\n        /* \"#utility.yul\":14984:15051   */\n      tag_140\n      jump\t// in\n    tag_324:\n        /* \"#utility.yul\":14977:15051   */\n      swap2\n      pop\n        /* \"#utility.yul\":15060:15153   */\n      tag_325\n        /* \"#utility.yul\":15149:15152   */\n      dup3\n        /* \"#utility.yul\":15060:15153   */\n      tag_175\n      jump\t// in\n    tag_325:\n        /* \"#utility.yul\":15178:15180   */\n      0x20\n        /* \"#utility.yul\":15173:15176   */\n      dup3\n        /* \"#utility.yul\":15169:15181   */\n      add\n        /* \"#utility.yul\":15162:15181   */\n      swap1\n      pop\n        /* \"#utility.yul\":14821:15187   */\n      swap2\n      swap1\n      pop\n      jump\t// out\n        /* \"#utility.yul\":15193:15612   */\n    tag_114:\n        /* \"#utility.yul\":15359:15363   */\n      0x00\n        /* \"#utility.yul\":15397:15399   */\n      0x20\n        /* \"#utility.yul\":15386:15395   */\n      dup3\n        /* \"#utility.yul\":15382:15400   */\n      add\n        /* \"#utility.yul\":15374:15400   */\n      swap1\n      pop\n        /* \"#utility.yul\":15446:15455   */\n      dup2\n        /* \"#utility.yul\":15440:15444   */\n      dup2\n        /* \"#utility.yul\":15436:15456   */\n      sub\n        /* \"#utility.yul\":15432:15433   */\n      0x00\n        /* \"#utility.yul\":15421:15430   */\n      dup4\n        /* \"#utility.yul\":15417:15434   */\n      add\n        /* \"#utility.yul\":15410:15457   */\n      mstore\n        /* \"#utility.yul\":15474:15605   */\n      tag_327\n        /* \"#utility.yul\":15600:15604   */\n      dup2\n        /* \"#utility.yul\":15474:15605   */\n      tag_176\n      jump\t// in\n    tag_327:\n        /* \"#utility.yul\":15466:15605   */\n      swap1\n      pop\n        /* \"#utility.yul\":15193:15612   */\n      swap2\n      swap1\n      pop\n      jump\t// out\n    stop\n    data_96dfabbf07d0c6a780e51fb0d2039d68e0c52ce84c414db1c1d50292fb2d54f7 4f7264657220486173204265656e20506c61636564205375636365737366756c6c79\n\n    auxdata: 0xa264697066735822122096815e701e7e9ce0c608b5d432d846ed464158c4888ffe86d4974573c341b7e364736f6c634300081c0033\n}\n",
				"bytecode": {
					"linkReferences": {},
					"object": "60806040526040518060400160405280600781526020017f57656c636f6d65000000000000000000000000000000000000000000000000008152506003908161004891906102d6565b50348015610054575f5ffd5b50335f5f6101000a81548173ffffffffffffffffffffffffffffffffffffffff021916908373ffffffffffffffffffffffffffffffffffffffff1602179055506103a5565b5f81519050919050565b7f4e487b71000000000000000000000000000000000000000000000000000000005f52604160045260245ffd5b7f4e487b71000000000000000000000000000000000000000000000000000000005f52602260045260245ffd5b5f600282049050600182168061011457607f821691505b602082108103610127576101266100d0565b5b50919050565b5f819050815f5260205f209050919050565b5f6020601f8301049050919050565b5f82821b905092915050565b5f600883026101897fffffffffffffffffffffffffffffffffffffffffffffffffffffffffffffffff8261014e565b610193868361014e565b95508019841693508086168417925050509392505050565b5f819050919050565b5f819050919050565b5f6101d76101d26101cd846101ab565b6101b4565b6101ab565b9050919050565b5f819050919050565b6101f0836101bd565b6102046101fc826101de565b84845461015a565b825550505050565b5f5f905090565b61021b61020c565b6102268184846101e7565b505050565b5b818110156102495761023e5f82610213565b60018101905061022c565b5050565b601f82111561028e5761025f8161012d565b6102688461013f565b81016020851015610277578190505b61028b6102838561013f565b83018261022b565b50505b505050565b5f82821c905092915050565b5f6102ae5f1984600802610293565b1980831691505092915050565b5f6102c6838361029f565b9150826002028217905092915050565b6102df82610099565b67ffffffffffffffff8111156102f8576102f76100a3565b5b61030282546100fd565b61030d82828561024d565b5f60209050601f83116001811461033e575f841561032c578287015190505b61033685826102bb565b86555061039d565b601f19841661034c8661012d565b5f5b828110156103735784890151825560018201915060208501945060208101905061034e565b86831015610390578489015161038c601f89168261029f565b8355505b6001600288020188555050505b505050505050565b611144806103b25f395ff3fe608060405260043610610085575f3560e01c8063aa8c217c11610058578063aa8c217c14610143578063adc805621461016d578063c213313614610195578063e21f37ce146101bf578063f15820ff146101e957610085565b806339aaba25146100895780634552b04f146100b35780636df427bc146100dd5780638da5cb5b14610119575b5f5ffd5b348015610094575f5ffd5b5061009d6101f3565b6040516100aa91906109aa565b60405180910390f35b3480156100be575f5ffd5b506100c7610208565b6040516100d49190610a02565b60405180910390f35b3480156100e8575f5ffd5b5061010360048036038101906100fe9190610a42565b61022d565b6040516101109190610add565b60405180910390f35b348015610124575f5ffd5b5061012d6106ed565b60405161013a9190610a02565b60405180910390f35b34801561014e575f5ffd5b50610157610711565b6040516101649190610b15565b60405180910390f35b348015610178575f5ffd5b50610193600480360381019061018e9190610b58565b610717565b005b3480156101a0575f5ffd5b506101a9610899565b6040516101b69190610b15565b60405180910390f35b3480156101ca575f5ffd5b506101d36108a9565b6040516101e09190610add565b60405180910390f35b6101f1610935565b005b5f60045f9054906101000a900460ff16905090565b60015f9054906101000a900473ffffffffffffffffffffffffffffffffffffffff1681565b60603373ffffffffffffffffffffffffffffffffffffffff165f5f9054906101000a900473ffffffffffffffffffffffffffffffffffffffff1673ffffffffffffffffffffffffffffffffffffffff16146102bd576040517f08c379a00000000000000000000000000000000000000000000000000000000081526004016102b490610bcd565b60405180910390fd5b6003808111156102d0576102cf610937565b5b60045f9054906101000a900460ff1660038111156102f1576102f0610937565b5b1115610332576040517f08c379a000000000000000000000000000000000000000000000000000000000815260040161032990610c35565b60405180910390fd5b8160045f6101000a81548160ff0219169083600381111561035657610355610937565b5b02179055506002600381111561036f5761036e610937565b5b60045f9054906101000a900460ff1660038111156103905761038f610937565b5b0361049f577fe18822188b13ea789744bb656325800d3b5025b3d956e508917ed2a260b33a8d6040516103c290610c9d565b60405180910390a16040518060400160405280600781526020017f53686970706564000000000000000000000000000000000000000000000000008152506003908161040e9190610ee5565b506003805461041c90610d15565b80601f016020809104026020016040519081016040528092919081815260200182805461044890610d15565b80156104935780601f1061046a57610100808354040283529160200191610493565b820191905f5260205f20905b81548152906001019060200180831161047657829003601f168201915b505050505090506106e8565b6003808111156104b2576104b1610937565b5b60045f9054906101000a900460ff1660038111156104d3576104d2610937565b5b036105e2577fe18822188b13ea789744bb656325800d3b5025b3d956e508917ed2a260b33a8d60405161050590610ffe565b60405180910390a16040518060400160405280600981526020017f44656c6976657265640000000000000000000000000000000000000000000000815250600390816105519190610ee5565b506003805461055f90610d15565b80601f016020809104026020016040519081016040528092919081815260200182805461058b90610d15565b80156105d65780601f106105ad576101008083540402835291602001916105d6565b820191905f5260205f20905b8154815290600101906020018083116105b957829003601f168201915b505050505090506106e8565b7fe18822188b13ea789744bb656325800d3b5025b3d956e508917ed2a260b33a8d60405161060f90611066565b60405180910390a16040518060400160405280600781526020017f70656e64696e67000000000000000000000000000000000000000000000000008152506003908161065b9190610ee5565b506003805461066990610d15565b80601f016020809104026020016040519081016040528092919081815260200182805461069590610d15565b80156106e05780601f106106b7576101008083540402835291602001916106e0565b820191905f5260205f20905b8154815290600101906020018083116106c357829003601f168201915b505050505090505b919050565b5f5f9054906101000a900473ffffffffffffffffffffffffffffffffffffffff1681565b60025481565b3373ffffffffffffffffffffffffffffffffffffffff165f5f9054906101000a900473ffffffffffffffffffffffffffffffffffffffff1673ffffffffffffffffffffffffffffffffffffffff16146107a5576040517f08c379a000000000000000000000000000000000000000000000000000000000815260040161079c90610bcd565b60405180910390fd5b670de0b6b3a764000060025410156107f2576040517f08c379a00000000000000000000000000000000000000000000000000000000081526004016107e9906110ce565b60405180910390fd5b670de0b6b3a764000060025410610896578060015f6101000a81548173ffffffffffffffffffffffffffffffffffffffff021916908373ffffffffffffffffffffffffffffffffffffffff160217905550600160045f6101000a81548160ff0219169083600381111561086857610867610937565b5b02179055506040518060600160405280602281526020016110ed60229139600390816108949190610ee5565b505b50565b5f47600281905550600254905090565b600380546108b690610d15565b80601f01602080910402602001604051908101604052809291908181526020018280546108e290610d15565b801561092d5780601f106109045761010080835404028352916020019161092d565b820191905f5260205f20905b81548152906001019060200180831161091057829003601f168201915b505050505081565b565b7f4e487b71000000000000000000000000000000000000000000000000000000005f52602160045260245ffd5b6004811061097557610974610937565b5b50565b5f81905061098582610964565b919050565b5f61099482610978565b9050919050565b6109a48161098a565b82525050565b5f6020820190506109bd5f83018461099b565b92915050565b5f73ffffffffffffffffffffffffffffffffffffffff82169050919050565b5f6109ec826109c3565b9050919050565b6109fc816109e2565b82525050565b5f602082019050610a155f8301846109f3565b92915050565b5f5ffd5b60048110610a2b575f5ffd5b50565b5f81359050610a3c81610a1f565b92915050565b5f60208284031215610a5757610a56610a1b565b5b5f610a6484828501610a2e565b91505092915050565b5f81519050919050565b5f82825260208201905092915050565b8281835e5f83830152505050565b5f601f19601f8301169050919050565b5f610aaf82610a6d565b610ab98185610a77565b9350610ac9818560208601610a87565b610ad281610a95565b840191505092915050565b5f6020820190508181035f830152610af58184610aa5565b905092915050565b5f819050919050565b610b0f81610afd565b82525050565b5f602082019050610b285f830184610b06565b92915050565b610b37816109e2565b8114610b41575f5ffd5b50565b5f81359050610b5281610b2e565b92915050565b5f60208284031215610b6d57610b6c610a1b565b5b5f610b7a84828501610b44565b91505092915050565b7f4e6f74204f776e657200000000000000000000000000000000000000000000005f82015250565b5f610bb7600983610a77565b9150610bc282610b83565b602082019050919050565b5f6020820190508181035f830152610be481610bab565b9050919050565b7f416c72656164792044656c6976657265640000000000000000000000000000005f82015250565b5f610c1f601183610a77565b9150610c2a82610beb565b602082019050919050565b5f6020820190508181035f830152610c4c81610c13565b9050919050565b7f53686970706564000000000000000000000000000000000000000000000000005f82015250565b5f610c87600783610a77565b9150610c9282610c53565b602082019050919050565b5f6020820190508181035f830152610cb481610c7b565b9050919050565b7f4e487b71000000000000000000000000000000000000000000000000000000005f52604160045260245ffd5b7f4e487b71000000000000000000000000000000000000000000000000000000005f52602260045260245ffd5b5f6002820490506001821680610d2c57607f821691505b602082108103610d3f57610d3e610ce8565b5b50919050565b5f819050815f5260205f209050919050565b5f6020601f8301049050919050565b5f82821b905092915050565b5f60088302610da17fffffffffffffffffffffffffffffffffffffffffffffffffffffffffffffffff82610d66565b610dab8683610d66565b95508019841693508086168417925050509392505050565b5f819050919050565b5f610de6610de1610ddc84610afd565b610dc3565b610afd565b9050919050565b5f819050919050565b610dff83610dcc565b610e13610e0b82610ded565b848454610d72565b825550505050565b5f5f905090565b610e2a610e1b565b610e35818484610df6565b505050565b5b81811015610e5857610e4d5f82610e22565b600181019050610e3b565b5050565b601f821115610e9d57610e6e81610d45565b610e7784610d57565b81016020851015610e86578190505b610e9a610e9285610d57565b830182610e3a565b50505b505050565b5f82821c905092915050565b5f610ebd5f1984600802610ea2565b1980831691505092915050565b5f610ed58383610eae565b9150826002028217905092915050565b610eee82610a6d565b67ffffffffffffffff811115610f0757610f06610cbb565b5b610f118254610d15565b610f1c828285610e5c565b5f60209050601f831160018114610f4d575f8415610f3b578287015190505b610f458582610eca565b865550610fac565b601f198416610f5b86610d45565b5f5b82811015610f8257848901518255600182019150602085019450602081019050610f5d565b86831015610f9f5784890151610f9b601f891682610eae565b8355505b6001600288020188555050505b505050505050565b7f44656c69766572640000000000000000000000000000000000000000000000005f82015250565b5f610fe8600883610a77565b9150610ff382610fb4565b602082019050919050565b5f6020820190508181035f83015261101581610fdc565b9050919050565b7f70656e64696e67000000000000000000000000000000000000000000000000005f82015250565b5f611050600783610a77565b915061105b8261101c565b602082019050919050565b5f6020820190508181035f83015261107d81611044565b9050919050565b7f496e73756666696369656e742042616c616e63650000000000000000000000005f82015250565b5f6110b8601483610a77565b91506110c382611084565b602082019050919050565b5f6020820190508181035f8301526110e5816110ac565b905091905056fe4f7264657220486173204265656e20506c61636564205375636365737366756c6c79a264697066735822122096815e701e7e9ce0c608b5d432d846ed464158c4888ffe86d4974573c341b7e364736f6c634300081c0033",
					"opcodes": "PUSH1 0x80 PUSH1 0x40 MSTORE PUSH1 0x40 MLOAD DUP1 PUSH1 0x40 ADD PUSH1 0x40 MSTORE DUP1 PUSH1 0x7 DUP2 MSTORE PUSH1 0x20 ADD PUSH32 0x57656C636F6D6500000000000000000000000000000000000000000000000000 DUP2 MSTORE POP PUSH1 0x3 SWAP1 DUP2 PUSH2 0x48 SWAP2 SWAP1 PUSH2 0x2D6 JUMP JUMPDEST POP CALLVALUE DUP1 ISZERO PUSH2 0x54 JUMPI PUSH0 PUSH0 REVERT JUMPDEST POP CALLER PUSH0 PUSH0 PUSH2 0x100 EXP DUP2 SLOAD DUP2 PUSH20 0xFFFFFFFFFFFFFFFFFFFFFFFFFFFFFFFFFFFFFFFF MUL NOT AND SWAP1 DUP4 PUSH20 0xFFFFFFFFFFFFFFFFFFFFFFFFFFFFFFFFFFFFFFFF AND MUL OR SWAP1 SSTORE POP PUSH2 0x3A5 JUMP JUMPDEST PUSH0 DUP2 MLOAD SWAP1 POP SWAP2 SWAP1 POP JUMP JUMPDEST PUSH32 0x4E487B7100000000000000000000000000000000000000000000000000000000 PUSH0 MSTORE PUSH1 0x41 PUSH1 0x4 MSTORE PUSH1 0x24 PUSH0 REVERT JUMPDEST PUSH32 0x4E487B7100000000000000000000000000000000000000000000000000000000 PUSH0 MSTORE PUSH1 0x22 PUSH1 0x4 MSTORE PUSH1 0x24 PUSH0 REVERT JUMPDEST PUSH0 PUSH1 0x2 DUP3 DIV SWAP1 POP PUSH1 0x1 DUP3 AND DUP1 PUSH2 0x114 JUMPI PUSH1 0x7F DUP3 AND SWAP2 POP JUMPDEST PUSH1 0x20 DUP3 LT DUP2 SUB PUSH2 0x127 JUMPI PUSH2 0x126 PUSH2 0xD0 JUMP JUMPDEST JUMPDEST POP SWAP2 SWAP1 POP JUMP JUMPDEST PUSH0 DUP2 SWAP1 POP DUP2 PUSH0 MSTORE PUSH1 0x20 PUSH0 KECCAK256 SWAP1 POP SWAP2 SWAP1 POP JUMP JUMPDEST PUSH0 PUSH1 0x20 PUSH1 0x1F DUP4 ADD DIV SWAP1 POP SWAP2 SWAP1 POP JUMP JUMPDEST PUSH0 DUP3 DUP3 SHL SWAP1 POP SWAP3 SWAP2 POP POP JUMP JUMPDEST PUSH0 PUSH1 0x8 DUP4 MUL PUSH2 0x189 PUSH32 0xFFFFFFFFFFFFFFFFFFFFFFFFFFFFFFFFFFFFFFFFFFFFFFFFFFFFFFFFFFFFFFFF DUP3 PUSH2 0x14E JUMP JUMPDEST PUSH2 0x193 DUP7 DUP4 PUSH2 0x14E JUMP JUMPDEST SWAP6 POP DUP1 NOT DUP5 AND SWAP4 POP DUP1 DUP7 AND DUP5 OR SWAP3 POP POP POP SWAP4 SWAP3 POP POP POP JUMP JUMPDEST PUSH0 DUP2 SWAP1 POP SWAP2 SWAP1 POP JUMP JUMPDEST PUSH0 DUP2 SWAP1 POP SWAP2 SWAP1 POP JUMP JUMPDEST PUSH0 PUSH2 0x1D7 PUSH2 0x1D2 PUSH2 0x1CD DUP5 PUSH2 0x1AB JUMP JUMPDEST PUSH2 0x1B4 JUMP JUMPDEST PUSH2 0x1AB JUMP JUMPDEST SWAP1 POP SWAP2 SWAP1 POP JUMP JUMPDEST PUSH0 DUP2 SWAP1 POP SWAP2 SWAP1 POP JUMP JUMPDEST PUSH2 0x1F0 DUP4 PUSH2 0x1BD JUMP JUMPDEST PUSH2 0x204 PUSH2 0x1FC DUP3 PUSH2 0x1DE JUMP JUMPDEST DUP5 DUP5 SLOAD PUSH2 0x15A JUMP JUMPDEST DUP3 SSTORE POP POP POP POP JUMP JUMPDEST PUSH0 PUSH0 SWAP1 POP SWAP1 JUMP JUMPDEST PUSH2 0x21B PUSH2 0x20C JUMP JUMPDEST PUSH2 0x226 DUP2 DUP5 DUP5 PUSH2 0x1E7 JUMP JUMPDEST POP POP POP JUMP JUMPDEST JUMPDEST DUP2 DUP2 LT ISZERO PUSH2 0x249 JUMPI PUSH2 0x23E PUSH0 DUP3 PUSH2 0x213 JUMP JUMPDEST PUSH1 0x1 DUP2 ADD SWAP1 POP PUSH2 0x22C JUMP JUMPDEST POP POP JUMP JUMPDEST PUSH1 0x1F DUP3 GT ISZERO PUSH2 0x28E JUMPI PUSH2 0x25F DUP2 PUSH2 0x12D JUMP JUMPDEST PUSH2 0x268 DUP5 PUSH2 0x13F JUMP JUMPDEST DUP2 ADD PUSH1 0x20 DUP6 LT ISZERO PUSH2 0x277 JUMPI DUP2 SWAP1 POP JUMPDEST PUSH2 0x28B PUSH2 0x283 DUP6 PUSH2 0x13F JUMP JUMPDEST DUP4 ADD DUP3 PUSH2 0x22B JUMP JUMPDEST POP POP JUMPDEST POP POP POP JUMP JUMPDEST PUSH0 DUP3 DUP3 SHR SWAP1 POP SWAP3 SWAP2 POP POP JUMP JUMPDEST PUSH0 PUSH2 0x2AE PUSH0 NOT DUP5 PUSH1 0x8 MUL PUSH2 0x293 JUMP JUMPDEST NOT DUP1 DUP4 AND SWAP2 POP POP SWAP3 SWAP2 POP POP JUMP JUMPDEST PUSH0 PUSH2 0x2C6 DUP4 DUP4 PUSH2 0x29F JUMP JUMPDEST SWAP2 POP DUP3 PUSH1 0x2 MUL DUP3 OR SWAP1 POP SWAP3 SWAP2 POP POP JUMP JUMPDEST PUSH2 0x2DF DUP3 PUSH2 0x99 JUMP JUMPDEST PUSH8 0xFFFFFFFFFFFFFFFF DUP2 GT ISZERO PUSH2 0x2F8 JUMPI PUSH2 0x2F7 PUSH2 0xA3 JUMP JUMPDEST JUMPDEST PUSH2 0x302 DUP3 SLOAD PUSH2 0xFD JUMP JUMPDEST PUSH2 0x30D DUP3 DUP3 DUP6 PUSH2 0x24D JUMP JUMPDEST PUSH0 PUSH1 0x20 SWAP1 POP PUSH1 0x1F DUP4 GT PUSH1 0x1 DUP2 EQ PUSH2 0x33E JUMPI PUSH0 DUP5 ISZERO PUSH2 0x32C JUMPI DUP3 DUP8 ADD MLOAD SWAP1 POP JUMPDEST PUSH2 0x336 DUP6 DUP3 PUSH2 0x2BB JUMP JUMPDEST DUP7 SSTORE POP PUSH2 0x39D JUMP JUMPDEST PUSH1 0x1F NOT DUP5 AND PUSH2 0x34C DUP7 PUSH2 0x12D JUMP JUMPDEST PUSH0 JUMPDEST DUP3 DUP2 LT ISZERO PUSH2 0x373 JUMPI DUP5 DUP10 ADD MLOAD DUP3 SSTORE PUSH1 0x1 DUP3 ADD SWAP2 POP PUSH1 0x20 DUP6 ADD SWAP5 POP PUSH1 0x20 DUP2 ADD SWAP1 POP PUSH2 0x34E JUMP JUMPDEST DUP7 DUP4 LT ISZERO PUSH2 0x390 JUMPI DUP5 DUP10 ADD MLOAD PUSH2 0x38C PUSH1 0x1F DUP10 AND DUP3 PUSH2 0x29F JUMP JUMPDEST DUP4 SSTORE POP JUMPDEST PUSH1 0x1 PUSH1 0x2 DUP9 MUL ADD DUP9 SSTORE POP POP POP JUMPDEST POP POP POP POP POP POP JUMP JUMPDEST PUSH2 0x1144 DUP1 PUSH2 0x3B2 PUSH0 CODECOPY PUSH0 RETURN INVALID PUSH1 0x80 PUSH1 0x40 MSTORE PUSH1 0x4 CALLDATASIZE LT PUSH2 0x85 JUMPI PUSH0 CALLDATALOAD PUSH1 0xE0 SHR DUP1 PUSH4 0xAA8C217C GT PUSH2 0x58 JUMPI DUP1 PUSH4 0xAA8C217C EQ PUSH2 0x143 JUMPI DUP1 PUSH4 0xADC80562 EQ PUSH2 0x16D JUMPI DUP1 PUSH4 0xC2133136 EQ PUSH2 0x195 JUMPI DUP1 PUSH4 0xE21F37CE EQ PUSH2 0x1BF JUMPI DUP1 PUSH4 0xF15820FF EQ PUSH2 0x1E9 JUMPI PUSH2 0x85 JUMP JUMPDEST DUP1 PUSH4 0x39AABA25 EQ PUSH2 0x89 JUMPI DUP1 PUSH4 0x4552B04F EQ PUSH2 0xB3 JUMPI DUP1 PUSH4 0x6DF427BC EQ PUSH2 0xDD JUMPI DUP1 PUSH4 0x8DA5CB5B EQ PUSH2 0x119 JUMPI JUMPDEST PUSH0 PUSH0 REVERT JUMPDEST CALLVALUE DUP1 ISZERO PUSH2 0x94 JUMPI PUSH0 PUSH0 REVERT JUMPDEST POP PUSH2 0x9D PUSH2 0x1F3 JUMP JUMPDEST PUSH1 0x40 MLOAD PUSH2 0xAA SWAP2 SWAP1 PUSH2 0x9AA JUMP JUMPDEST PUSH1 0x40 MLOAD DUP1 SWAP2 SUB SWAP1 RETURN JUMPDEST CALLVALUE DUP1 ISZERO PUSH2 0xBE JUMPI PUSH0 PUSH0 REVERT JUMPDEST POP PUSH2 0xC7 PUSH2 0x208 JUMP JUMPDEST PUSH1 0x40 MLOAD PUSH2 0xD4 SWAP2 SWAP1 PUSH2 0xA02 JUMP JUMPDEST PUSH1 0x40 MLOAD DUP1 SWAP2 SUB SWAP1 RETURN JUMPDEST CALLVALUE DUP1 ISZERO PUSH2 0xE8 JUMPI PUSH0 PUSH0 REVERT JUMPDEST POP PUSH2 0x103 PUSH1 0x4 DUP1 CALLDATASIZE SUB DUP2 ADD SWAP1 PUSH2 0xFE SWAP2 SWAP1 PUSH2 0xA42 JUMP JUMPDEST PUSH2 0x22D JUMP JUMPDEST PUSH1 0x40 MLOAD PUSH2 0x110 SWAP2 SWAP1 PUSH2 0xADD JUMP JUMPDEST PUSH1 0x40 MLOAD DUP1 SWAP2 SUB SWAP1 RETURN JUMPDEST CALLVALUE DUP1 ISZERO PUSH2 0x124 JUMPI PUSH0 PUSH0 REVERT JUMPDEST POP PUSH2 0x12D PUSH2 0x6ED JUMP JUMPDEST PUSH1 0x40 MLOAD PUSH2 0x13A SWAP2 SWAP1 PUSH2 0xA02 JUMP JUMPDEST PUSH1 0x40 MLOAD DUP1 SWAP2 SUB SWAP1 RETURN JUMPDEST CALLVALUE DUP1 ISZERO PUSH2 0x14E JUMPI PUSH0 PUSH0 REVERT JUMPDEST POP PUSH2 0x157 PUSH2 0x711 JUMP JUMPDEST PUSH1 0x40 MLOAD PUSH2 0x164 SWAP2 SWAP1 PUSH2 0xB15 JUMP JUMPDEST PUSH1 0x40 MLOAD DUP1 SWAP2 SUB SWAP1 RETURN JUMPDEST CALLVALUE DUP1 ISZERO PUSH2 0x178 JUMPI PUSH0 PUSH0 REVERT JUMPDEST POP PUSH2 0x193 PUSH1 0x4 DUP1 CALLDATASIZE SUB DUP2 ADD SWAP1 PUSH2 0x18E SWAP2 SWAP1 PUSH2 0xB58 JUMP JUMPDEST PUSH2 0x717 JUMP JUMPDEST STOP JUMPDEST CALLVALUE DUP1 ISZERO PUSH2 0x1A0 JUMPI PUSH0 PUSH0 REVERT JUMPDEST POP PUSH2 0x1A9 PUSH2 0x899 JUMP JUMPDEST PUSH1 0x40 MLOAD PUSH2 0x1B6 SWAP2 SWAP1 PUSH2 0xB15 JUMP JUMPDEST PUSH1 0x40 MLOAD DUP1 SWAP2 SUB SWAP1 RETURN JUMPDEST CALLVALUE DUP1 ISZERO PUSH2 0x1CA JUMPI PUSH0 PUSH0 REVERT JUMPDEST POP PUSH2 0x1D3 PUSH2 0x8A9 JUMP JUMPDEST PUSH1 0x40 MLOAD PUSH2 0x1E0 SWAP2 SWAP1 PUSH2 0xADD JUMP JUMPDEST PUSH1 0x40 MLOAD DUP1 SWAP2 SUB SWAP1 RETURN JUMPDEST PUSH2 0x1F1 PUSH2 0x935 JUMP JUMPDEST STOP JUMPDEST PUSH0 PUSH1 0x4 PUSH0 SWAP1 SLOAD SWAP1 PUSH2 0x100 EXP SWAP1 DIV PUSH1 0xFF AND SWAP1 POP SWAP1 JUMP JUMPDEST PUSH1 0x1 PUSH0 SWAP1 SLOAD SWAP1 PUSH2 0x100 EXP SWAP1 DIV PUSH20 0xFFFFFFFFFFFFFFFFFFFFFFFFFFFFFFFFFFFFFFFF AND DUP2 JUMP JUMPDEST PUSH1 0x60 CALLER PUSH20 0xFFFFFFFFFFFFFFFFFFFFFFFFFFFFFFFFFFFFFFFF AND PUSH0 PUSH0 SWAP1 SLOAD SWAP1 PUSH2 0x100 EXP SWAP1 DIV PUSH20 0xFFFFFFFFFFFFFFFFFFFFFFFFFFFFFFFFFFFFFFFF AND PUSH20 0xFFFFFFFFFFFFFFFFFFFFFFFFFFFFFFFFFFFFFFFF AND EQ PUSH2 0x2BD JUMPI PUSH1 0x40 MLOAD PUSH32 0x8C379A000000000000000000000000000000000000000000000000000000000 DUP2 MSTORE PUSH1 0x4 ADD PUSH2 0x2B4 SWAP1 PUSH2 0xBCD JUMP JUMPDEST PUSH1 0x40 MLOAD DUP1 SWAP2 SUB SWAP1 REVERT JUMPDEST PUSH1 0x3 DUP1 DUP2 GT ISZERO PUSH2 0x2D0 JUMPI PUSH2 0x2CF PUSH2 0x937 JUMP JUMPDEST JUMPDEST PUSH1 0x4 PUSH0 SWAP1 SLOAD SWAP1 PUSH2 0x100 EXP SWAP1 DIV PUSH1 0xFF AND PUSH1 0x3 DUP2 GT ISZERO PUSH2 0x2F1 JUMPI PUSH2 0x2F0 PUSH2 0x937 JUMP JUMPDEST JUMPDEST GT ISZERO PUSH2 0x332 JUMPI PUSH1 0x40 MLOAD PUSH32 0x8C379A000000000000000000000000000000000000000000000000000000000 DUP2 MSTORE PUSH1 0x4 ADD PUSH2 0x329 SWAP1 PUSH2 0xC35 JUMP JUMPDEST PUSH1 0x40 MLOAD DUP1 SWAP2 SUB SWAP1 REVERT JUMPDEST DUP2 PUSH1 0x4 PUSH0 PUSH2 0x100 EXP DUP2 SLOAD DUP2 PUSH1 0xFF MUL NOT AND SWAP1 DUP4 PUSH1 0x3 DUP2 GT ISZERO PUSH2 0x356 JUMPI PUSH2 0x355 PUSH2 0x937 JUMP JUMPDEST JUMPDEST MUL OR SWAP1 SSTORE POP PUSH1 0x2 PUSH1 0x3 DUP2 GT ISZERO PUSH2 0x36F JUMPI PUSH2 0x36E PUSH2 0x937 JUMP JUMPDEST JUMPDEST PUSH1 0x4 PUSH0 SWAP1 SLOAD SWAP1 PUSH2 0x100 EXP SWAP1 DIV PUSH1 0xFF AND PUSH1 0x3 DUP2 GT ISZERO PUSH2 0x390 JUMPI PUSH2 0x38F PUSH2 0x937 JUMP JUMPDEST JUMPDEST SUB PUSH2 0x49F JUMPI PUSH32 0xE18822188B13EA789744BB656325800D3B5025B3D956E508917ED2A260B33A8D PUSH1 0x40 MLOAD PUSH2 0x3C2 SWAP1 PUSH2 0xC9D JUMP JUMPDEST PUSH1 0x40 MLOAD DUP1 SWAP2 SUB SWAP1 LOG1 PUSH1 0x40 MLOAD DUP1 PUSH1 0x40 ADD PUSH1 0x40 MSTORE DUP1 PUSH1 0x7 DUP2 MSTORE PUSH1 0x20 ADD PUSH32 0x5368697070656400000000000000000000000000000000000000000000000000 DUP2 MSTORE POP PUSH1 0x3 SWAP1 DUP2 PUSH2 0x40E SWAP2 SWAP1 PUSH2 0xEE5 JUMP JUMPDEST POP PUSH1 0x3 DUP1 SLOAD PUSH2 0x41C SWAP1 PUSH2 0xD15 JUMP JUMPDEST DUP1 PUSH1 0x1F ADD PUSH1 0x20 DUP1 SWAP2 DIV MUL PUSH1 0x20 ADD PUSH1 0x40 MLOAD SWAP1 DUP2 ADD PUSH1 0x40 MSTORE DUP1 SWAP3 SWAP2 SWAP1 DUP2 DUP2 MSTORE PUSH1 0x20 ADD DUP3 DUP1 SLOAD PUSH2 0x448 SWAP1 PUSH2 0xD15 JUMP JUMPDEST DUP1 ISZERO PUSH2 0x493 JUMPI DUP1 PUSH1 0x1F LT PUSH2 0x46A JUMPI PUSH2 0x100 DUP1 DUP4 SLOAD DIV MUL DUP4 MSTORE SWAP2 PUSH1 0x20 ADD SWAP2 PUSH2 0x493 JUMP JUMPDEST DUP3 ADD SWAP2 SWAP1 PUSH0 MSTORE PUSH1 0x20 PUSH0 KECCAK256 SWAP1 JUMPDEST DUP2 SLOAD DUP2 MSTORE SWAP1 PUSH1 0x1 ADD SWAP1 PUSH1 0x20 ADD DUP1 DUP4 GT PUSH2 0x476 JUMPI DUP3 SWAP1 SUB PUSH1 0x1F AND DUP3 ADD SWAP2 JUMPDEST POP POP POP POP POP SWAP1 POP PUSH2 0x6E8 JUMP JUMPDEST PUSH1 0x3 DUP1 DUP2 GT ISZERO PUSH2 0x4B2 JUMPI PUSH2 0x4B1 PUSH2 0x937 JUMP JUMPDEST JUMPDEST PUSH1 0x4 PUSH0 SWAP1 SLOAD SWAP1 PUSH2 0x100 EXP SWAP1 DIV PUSH1 0xFF AND PUSH1 0x3 DUP2 GT ISZERO PUSH2 0x4D3 JUMPI PUSH2 0x4D2 PUSH2 0x937 JUMP JUMPDEST JUMPDEST SUB PUSH2 0x5E2 JUMPI PUSH32 0xE18822188B13EA789744BB656325800D3B5025B3D956E508917ED2A260B33A8D PUSH1 0x40 MLOAD PUSH2 0x505 SWAP1 PUSH2 0xFFE JUMP JUMPDEST PUSH1 0x40 MLOAD DUP1 SWAP2 SUB SWAP1 LOG1 PUSH1 0x40 MLOAD DUP1 PUSH1 0x40 ADD PUSH1 0x40 MSTORE DUP1 PUSH1 0x9 DUP2 MSTORE PUSH1 0x20 ADD PUSH32 0x44656C6976657265640000000000000000000000000000000000000000000000 DUP2 MSTORE POP PUSH1 0x3 SWAP1 DUP2 PUSH2 0x551 SWAP2 SWAP1 PUSH2 0xEE5 JUMP JUMPDEST POP PUSH1 0x3 DUP1 SLOAD PUSH2 0x55F SWAP1 PUSH2 0xD15 JUMP JUMPDEST DUP1 PUSH1 0x1F ADD PUSH1 0x20 DUP1 SWAP2 DIV MUL PUSH1 0x20 ADD PUSH1 0x40 MLOAD SWAP1 DUP2 ADD PUSH1 0x40 MSTORE DUP1 SWAP3 SWAP2 SWAP1 DUP2 DUP2 MSTORE PUSH1 0x20 ADD DUP3 DUP1 SLOAD PUSH2 0x58B SWAP1 PUSH2 0xD15 JUMP JUMPDEST DUP1 ISZERO PUSH2 0x5D6 JUMPI DUP1 PUSH1 0x1F LT PUSH2 0x5AD JUMPI PUSH2 0x100 DUP1 DUP4 SLOAD DIV MUL DUP4 MSTORE SWAP2 PUSH1 0x20 ADD SWAP2 PUSH2 0x5D6 JUMP JUMPDEST DUP3 ADD SWAP2 SWAP1 PUSH0 MSTORE PUSH1 0x20 PUSH0 KECCAK256 SWAP1 JUMPDEST DUP2 SLOAD DUP2 MSTORE SWAP1 PUSH1 0x1 ADD SWAP1 PUSH1 0x20 ADD DUP1 DUP4 GT PUSH2 0x5B9 JUMPI DUP3 SWAP1 SUB PUSH1 0x1F AND DUP3 ADD SWAP2 JUMPDEST POP POP POP POP POP SWAP1 POP PUSH2 0x6E8 JUMP JUMPDEST PUSH32 0xE18822188B13EA789744BB656325800D3B5025B3D956E508917ED2A260B33A8D PUSH1 0x40 MLOAD PUSH2 0x60F SWAP1 PUSH2 0x1066 JUMP JUMPDEST PUSH1 0x40 MLOAD DUP1 SWAP2 SUB SWAP1 LOG1 PUSH1 0x40 MLOAD DUP1 PUSH1 0x40 ADD PUSH1 0x40 MSTORE DUP1 PUSH1 0x7 DUP2 MSTORE PUSH1 0x20 ADD PUSH32 0x70656E64696E6700000000000000000000000000000000000000000000000000 DUP2 MSTORE POP PUSH1 0x3 SWAP1 DUP2 PUSH2 0x65B SWAP2 SWAP1 PUSH2 0xEE5 JUMP JUMPDEST POP PUSH1 0x3 DUP1 SLOAD PUSH2 0x669 SWAP1 PUSH2 0xD15 JUMP JUMPDEST DUP1 PUSH1 0x1F ADD PUSH1 0x20 DUP1 SWAP2 DIV MUL PUSH1 0x20 ADD PUSH1 0x40 MLOAD SWAP1 DUP2 ADD PUSH1 0x40 MSTORE DUP1 SWAP3 SWAP2 SWAP1 DUP2 DUP2 MSTORE PUSH1 0x20 ADD DUP3 DUP1 SLOAD PUSH2 0x695 SWAP1 PUSH2 0xD15 JUMP JUMPDEST DUP1 ISZERO PUSH2 0x6E0 JUMPI DUP1 PUSH1 0x1F LT PUSH2 0x6B7 JUMPI PUSH2 0x100 DUP1 DUP4 SLOAD DIV MUL DUP4 MSTORE SWAP2 PUSH1 0x20 ADD SWAP2 PUSH2 0x6E0 JUMP JUMPDEST DUP3 ADD SWAP2 SWAP1 PUSH0 MSTORE PUSH1 0x20 PUSH0 KECCAK256 SWAP1 JUMPDEST DUP2 SLOAD DUP2 MSTORE SWAP1 PUSH1 0x1 ADD SWAP1 PUSH1 0x20 ADD DUP1 DUP4 GT PUSH2 0x6C3 JUMPI DUP3 SWAP1 SUB PUSH1 0x1F AND DUP3 ADD SWAP2 JUMPDEST POP POP POP POP POP SWAP1 POP JUMPDEST SWAP2 SWAP1 POP JUMP JUMPDEST PUSH0 PUSH0 SWAP1 SLOAD SWAP1 PUSH2 0x100 EXP SWAP1 DIV PUSH20 0xFFFFFFFFFFFFFFFFFFFFFFFFFFFFFFFFFFFFFFFF AND DUP2 JUMP JUMPDEST PUSH1 0x2 SLOAD DUP2 JUMP JUMPDEST CALLER PUSH20 0xFFFFFFFFFFFFFFFFFFFFFFFFFFFFFFFFFFFFFFFF AND PUSH0 PUSH0 SWAP1 SLOAD SWAP1 PUSH2 0x100 EXP SWAP1 DIV PUSH20 0xFFFFFFFFFFFFFFFFFFFFFFFFFFFFFFFFFFFFFFFF AND PUSH20 0xFFFFFFFFFFFFFFFFFFFFFFFFFFFFFFFFFFFFFFFF AND EQ PUSH2 0x7A5 JUMPI PUSH1 0x40 MLOAD PUSH32 0x8C379A000000000000000000000000000000000000000000000000000000000 DUP2 MSTORE PUSH1 0x4 ADD PUSH2 0x79C SWAP1 PUSH2 0xBCD JUMP JUMPDEST PUSH1 0x40 MLOAD DUP1 SWAP2 SUB SWAP1 REVERT JUMPDEST PUSH8 0xDE0B6B3A7640000 PUSH1 0x2 SLOAD LT ISZERO PUSH2 0x7F2 JUMPI PUSH1 0x40 MLOAD PUSH32 0x8C379A000000000000000000000000000000000000000000000000000000000 DUP2 MSTORE PUSH1 0x4 ADD PUSH2 0x7E9 SWAP1 PUSH2 0x10CE JUMP JUMPDEST PUSH1 0x40 MLOAD DUP1 SWAP2 SUB SWAP1 REVERT JUMPDEST PUSH8 0xDE0B6B3A7640000 PUSH1 0x2 SLOAD LT PUSH2 0x896 JUMPI DUP1 PUSH1 0x1 PUSH0 PUSH2 0x100 EXP DUP2 SLOAD DUP2 PUSH20 0xFFFFFFFFFFFFFFFFFFFFFFFFFFFFFFFFFFFFFFFF MUL NOT AND SWAP1 DUP4 PUSH20 0xFFFFFFFFFFFFFFFFFFFFFFFFFFFFFFFFFFFFFFFF AND MUL OR SWAP1 SSTORE POP PUSH1 0x1 PUSH1 0x4 PUSH0 PUSH2 0x100 EXP DUP2 SLOAD DUP2 PUSH1 0xFF MUL NOT AND SWAP1 DUP4 PUSH1 0x3 DUP2 GT ISZERO PUSH2 0x868 JUMPI PUSH2 0x867 PUSH2 0x937 JUMP JUMPDEST JUMPDEST MUL OR SWAP1 SSTORE POP PUSH1 0x40 MLOAD DUP1 PUSH1 0x60 ADD PUSH1 0x40 MSTORE DUP1 PUSH1 0x22 DUP2 MSTORE PUSH1 0x20 ADD PUSH2 0x10ED PUSH1 0x22 SWAP2 CODECOPY PUSH1 0x3 SWAP1 DUP2 PUSH2 0x894 SWAP2 SWAP1 PUSH2 0xEE5 JUMP JUMPDEST POP JUMPDEST POP JUMP JUMPDEST PUSH0 SELFBALANCE PUSH1 0x2 DUP2 SWAP1 SSTORE POP PUSH1 0x2 SLOAD SWAP1 POP SWAP1 JUMP JUMPDEST PUSH1 0x3 DUP1 SLOAD PUSH2 0x8B6 SWAP1 PUSH2 0xD15 JUMP JUMPDEST DUP1 PUSH1 0x1F ADD PUSH1 0x20 DUP1 SWAP2 DIV MUL PUSH1 0x20 ADD PUSH1 0x40 MLOAD SWAP1 DUP2 ADD PUSH1 0x40 MSTORE DUP1 SWAP3 SWAP2 SWAP1 DUP2 DUP2 MSTORE PUSH1 0x20 ADD DUP3 DUP1 SLOAD PUSH2 0x8E2 SWAP1 PUSH2 0xD15 JUMP JUMPDEST DUP1 ISZERO PUSH2 0x92D JUMPI DUP1 PUSH1 0x1F LT PUSH2 0x904 JUMPI PUSH2 0x100 DUP1 DUP4 SLOAD DIV MUL DUP4 MSTORE SWAP2 PUSH1 0x20 ADD SWAP2 PUSH2 0x92D JUMP JUMPDEST DUP3 ADD SWAP2 SWAP1 PUSH0 MSTORE PUSH1 0x20 PUSH0 KECCAK256 SWAP1 JUMPDEST DUP2 SLOAD DUP2 MSTORE SWAP1 PUSH1 0x1 ADD SWAP1 PUSH1 0x20 ADD DUP1 DUP4 GT PUSH2 0x910 JUMPI DUP3 SWAP1 SUB PUSH1 0x1F AND DUP3 ADD SWAP2 JUMPDEST POP POP POP POP POP DUP2 JUMP JUMPDEST JUMP JUMPDEST PUSH32 0x4E487B7100000000000000000000000000000000000000000000000000000000 PUSH0 MSTORE PUSH1 0x21 PUSH1 0x4 MSTORE PUSH1 0x24 PUSH0 REVERT JUMPDEST PUSH1 0x4 DUP2 LT PUSH2 0x975 JUMPI PUSH2 0x974 PUSH2 0x937 JUMP JUMPDEST JUMPDEST POP JUMP JUMPDEST PUSH0 DUP2 SWAP1 POP PUSH2 0x985 DUP3 PUSH2 0x964 JUMP JUMPDEST SWAP2 SWAP1 POP JUMP JUMPDEST PUSH0 PUSH2 0x994 DUP3 PUSH2 0x978 JUMP JUMPDEST SWAP1 POP SWAP2 SWAP1 POP JUMP JUMPDEST PUSH2 0x9A4 DUP2 PUSH2 0x98A JUMP JUMPDEST DUP3 MSTORE POP POP JUMP JUMPDEST PUSH0 PUSH1 0x20 DUP3 ADD SWAP1 POP PUSH2 0x9BD PUSH0 DUP4 ADD DUP5 PUSH2 0x99B JUMP JUMPDEST SWAP3 SWAP2 POP POP JUMP JUMPDEST PUSH0 PUSH20 0xFFFFFFFFFFFFFFFFFFFFFFFFFFFFFFFFFFFFFFFF DUP3 AND SWAP1 POP SWAP2 SWAP1 POP JUMP JUMPDEST PUSH0 PUSH2 0x9EC DUP3 PUSH2 0x9C3 JUMP JUMPDEST SWAP1 POP SWAP2 SWAP1 POP JUMP JUMPDEST PUSH2 0x9FC DUP2 PUSH2 0x9E2 JUMP JUMPDEST DUP3 MSTORE POP POP JUMP JUMPDEST PUSH0 PUSH1 0x20 DUP3 ADD SWAP1 POP PUSH2 0xA15 PUSH0 DUP4 ADD DUP5 PUSH2 0x9F3 JUMP JUMPDEST SWAP3 SWAP2 POP POP JUMP JUMPDEST PUSH0 PUSH0 REVERT JUMPDEST PUSH1 0x4 DUP2 LT PUSH2 0xA2B JUMPI PUSH0 PUSH0 REVERT JUMPDEST POP JUMP JUMPDEST PUSH0 DUP2 CALLDATALOAD SWAP1 POP PUSH2 0xA3C DUP2 PUSH2 0xA1F JUMP JUMPDEST SWAP3 SWAP2 POP POP JUMP JUMPDEST PUSH0 PUSH1 0x20 DUP3 DUP5 SUB SLT ISZERO PUSH2 0xA57 JUMPI PUSH2 0xA56 PUSH2 0xA1B JUMP JUMPDEST JUMPDEST PUSH0 PUSH2 0xA64 DUP5 DUP3 DUP6 ADD PUSH2 0xA2E JUMP JUMPDEST SWAP2 POP POP SWAP3 SWAP2 POP POP JUMP JUMPDEST PUSH0 DUP2 MLOAD SWAP1 POP SWAP2 SWAP1 POP JUMP JUMPDEST PUSH0 DUP3 DUP3 MSTORE PUSH1 0x20 DUP3 ADD SWAP1 POP SWAP3 SWAP2 POP POP JUMP JUMPDEST DUP3 DUP2 DUP4 MCOPY PUSH0 DUP4 DUP4 ADD MSTORE POP POP POP JUMP JUMPDEST PUSH0 PUSH1 0x1F NOT PUSH1 0x1F DUP4 ADD AND SWAP1 POP SWAP2 SWAP1 POP JUMP JUMPDEST PUSH0 PUSH2 0xAAF DUP3 PUSH2 0xA6D JUMP JUMPDEST PUSH2 0xAB9 DUP2 DUP6 PUSH2 0xA77 JUMP JUMPDEST SWAP4 POP PUSH2 0xAC9 DUP2 DUP6 PUSH1 0x20 DUP7 ADD PUSH2 0xA87 JUMP JUMPDEST PUSH2 0xAD2 DUP2 PUSH2 0xA95 JUMP JUMPDEST DUP5 ADD SWAP2 POP POP SWAP3 SWAP2 POP POP JUMP JUMPDEST PUSH0 PUSH1 0x20 DUP3 ADD SWAP1 POP DUP2 DUP2 SUB PUSH0 DUP4 ADD MSTORE PUSH2 0xAF5 DUP2 DUP5 PUSH2 0xAA5 JUMP JUMPDEST SWAP1 POP SWAP3 SWAP2 POP POP JUMP JUMPDEST PUSH0 DUP2 SWAP1 POP SWAP2 SWAP1 POP JUMP JUMPDEST PUSH2 0xB0F DUP2 PUSH2 0xAFD JUMP JUMPDEST DUP3 MSTORE POP POP JUMP JUMPDEST PUSH0 PUSH1 0x20 DUP3 ADD SWAP1 POP PUSH2 0xB28 PUSH0 DUP4 ADD DUP5 PUSH2 0xB06 JUMP JUMPDEST SWAP3 SWAP2 POP POP JUMP JUMPDEST PUSH2 0xB37 DUP2 PUSH2 0x9E2 JUMP JUMPDEST DUP2 EQ PUSH2 0xB41 JUMPI PUSH0 PUSH0 REVERT JUMPDEST POP JUMP JUMPDEST PUSH0 DUP2 CALLDATALOAD SWAP1 POP PUSH2 0xB52 DUP2 PUSH2 0xB2E JUMP JUMPDEST SWAP3 SWAP2 POP POP JUMP JUMPDEST PUSH0 PUSH1 0x20 DUP3 DUP5 SUB SLT ISZERO PUSH2 0xB6D JUMPI PUSH2 0xB6C PUSH2 0xA1B JUMP JUMPDEST JUMPDEST PUSH0 PUSH2 0xB7A DUP5 DUP3 DUP6 ADD PUSH2 0xB44 JUMP JUMPDEST SWAP2 POP POP SWAP3 SWAP2 POP POP JUMP JUMPDEST PUSH32 0x4E6F74204F776E65720000000000000000000000000000000000000000000000 PUSH0 DUP3 ADD MSTORE POP JUMP JUMPDEST PUSH0 PUSH2 0xBB7 PUSH1 0x9 DUP4 PUSH2 0xA77 JUMP JUMPDEST SWAP2 POP PUSH2 0xBC2 DUP3 PUSH2 0xB83 JUMP JUMPDEST PUSH1 0x20 DUP3 ADD SWAP1 POP SWAP2 SWAP1 POP JUMP JUMPDEST PUSH0 PUSH1 0x20 DUP3 ADD SWAP1 POP DUP2 DUP2 SUB PUSH0 DUP4 ADD MSTORE PUSH2 0xBE4 DUP2 PUSH2 0xBAB JUMP JUMPDEST SWAP1 POP SWAP2 SWAP1 POP JUMP JUMPDEST PUSH32 0x416C72656164792044656C697665726564000000000000000000000000000000 PUSH0 DUP3 ADD MSTORE POP JUMP JUMPDEST PUSH0 PUSH2 0xC1F PUSH1 0x11 DUP4 PUSH2 0xA77 JUMP JUMPDEST SWAP2 POP PUSH2 0xC2A DUP3 PUSH2 0xBEB JUMP JUMPDEST PUSH1 0x20 DUP3 ADD SWAP1 POP SWAP2 SWAP1 POP JUMP JUMPDEST PUSH0 PUSH1 0x20 DUP3 ADD SWAP1 POP DUP2 DUP2 SUB PUSH0 DUP4 ADD MSTORE PUSH2 0xC4C DUP2 PUSH2 0xC13 JUMP JUMPDEST SWAP1 POP SWAP2 SWAP1 POP JUMP JUMPDEST PUSH32 0x5368697070656400000000000000000000000000000000000000000000000000 PUSH0 DUP3 ADD MSTORE POP JUMP JUMPDEST PUSH0 PUSH2 0xC87 PUSH1 0x7 DUP4 PUSH2 0xA77 JUMP JUMPDEST SWAP2 POP PUSH2 0xC92 DUP3 PUSH2 0xC53 JUMP JUMPDEST PUSH1 0x20 DUP3 ADD SWAP1 POP SWAP2 SWAP1 POP JUMP JUMPDEST PUSH0 PUSH1 0x20 DUP3 ADD SWAP1 POP DUP2 DUP2 SUB PUSH0 DUP4 ADD MSTORE PUSH2 0xCB4 DUP2 PUSH2 0xC7B JUMP JUMPDEST SWAP1 POP SWAP2 SWAP1 POP JUMP JUMPDEST PUSH32 0x4E487B7100000000000000000000000000000000000000000000000000000000 PUSH0 MSTORE PUSH1 0x41 PUSH1 0x4 MSTORE PUSH1 0x24 PUSH0 REVERT JUMPDEST PUSH32 0x4E487B7100000000000000000000000000000000000000000000000000000000 PUSH0 MSTORE PUSH1 0x22 PUSH1 0x4 MSTORE PUSH1 0x24 PUSH0 REVERT JUMPDEST PUSH0 PUSH1 0x2 DUP3 DIV SWAP1 POP PUSH1 0x1 DUP3 AND DUP1 PUSH2 0xD2C JUMPI PUSH1 0x7F DUP3 AND SWAP2 POP JUMPDEST PUSH1 0x20 DUP3 LT DUP2 SUB PUSH2 0xD3F JUMPI PUSH2 0xD3E PUSH2 0xCE8 JUMP JUMPDEST JUMPDEST POP SWAP2 SWAP1 POP JUMP JUMPDEST PUSH0 DUP2 SWAP1 POP DUP2 PUSH0 MSTORE PUSH1 0x20 PUSH0 KECCAK256 SWAP1 POP SWAP2 SWAP1 POP JUMP JUMPDEST PUSH0 PUSH1 0x20 PUSH1 0x1F DUP4 ADD DIV SWAP1 POP SWAP2 SWAP1 POP JUMP JUMPDEST PUSH0 DUP3 DUP3 SHL SWAP1 POP SWAP3 SWAP2 POP POP JUMP JUMPDEST PUSH0 PUSH1 0x8 DUP4 MUL PUSH2 0xDA1 PUSH32 0xFFFFFFFFFFFFFFFFFFFFFFFFFFFFFFFFFFFFFFFFFFFFFFFFFFFFFFFFFFFFFFFF DUP3 PUSH2 0xD66 JUMP JUMPDEST PUSH2 0xDAB DUP7 DUP4 PUSH2 0xD66 JUMP JUMPDEST SWAP6 POP DUP1 NOT DUP5 AND SWAP4 POP DUP1 DUP7 AND DUP5 OR SWAP3 POP POP POP SWAP4 SWAP3 POP POP POP JUMP JUMPDEST PUSH0 DUP2 SWAP1 POP SWAP2 SWAP1 POP JUMP JUMPDEST PUSH0 PUSH2 0xDE6 PUSH2 0xDE1 PUSH2 0xDDC DUP5 PUSH2 0xAFD JUMP JUMPDEST PUSH2 0xDC3 JUMP JUMPDEST PUSH2 0xAFD JUMP JUMPDEST SWAP1 POP SWAP2 SWAP1 POP JUMP JUMPDEST PUSH0 DUP2 SWAP1 POP SWAP2 SWAP1 POP JUMP JUMPDEST PUSH2 0xDFF DUP4 PUSH2 0xDCC JUMP JUMPDEST PUSH2 0xE13 PUSH2 0xE0B DUP3 PUSH2 0xDED JUMP JUMPDEST DUP5 DUP5 SLOAD PUSH2 0xD72 JUMP JUMPDEST DUP3 SSTORE POP POP POP POP JUMP JUMPDEST PUSH0 PUSH0 SWAP1 POP SWAP1 JUMP JUMPDEST PUSH2 0xE2A PUSH2 0xE1B JUMP JUMPDEST PUSH2 0xE35 DUP2 DUP5 DUP5 PUSH2 0xDF6 JUMP JUMPDEST POP POP POP JUMP JUMPDEST JUMPDEST DUP2 DUP2 LT ISZERO PUSH2 0xE58 JUMPI PUSH2 0xE4D PUSH0 DUP3 PUSH2 0xE22 JUMP JUMPDEST PUSH1 0x1 DUP2 ADD SWAP1 POP PUSH2 0xE3B JUMP JUMPDEST POP POP JUMP JUMPDEST PUSH1 0x1F DUP3 GT ISZERO PUSH2 0xE9D JUMPI PUSH2 0xE6E DUP2 PUSH2 0xD45 JUMP JUMPDEST PUSH2 0xE77 DUP5 PUSH2 0xD57 JUMP JUMPDEST DUP2 ADD PUSH1 0x20 DUP6 LT ISZERO PUSH2 0xE86 JUMPI DUP2 SWAP1 POP JUMPDEST PUSH2 0xE9A PUSH2 0xE92 DUP6 PUSH2 0xD57 JUMP JUMPDEST DUP4 ADD DUP3 PUSH2 0xE3A JUMP JUMPDEST POP POP JUMPDEST POP POP POP JUMP JUMPDEST PUSH0 DUP3 DUP3 SHR SWAP1 POP SWAP3 SWAP2 POP POP JUMP JUMPDEST PUSH0 PUSH2 0xEBD PUSH0 NOT DUP5 PUSH1 0x8 MUL PUSH2 0xEA2 JUMP JUMPDEST NOT DUP1 DUP4 AND SWAP2 POP POP SWAP3 SWAP2 POP POP JUMP JUMPDEST PUSH0 PUSH2 0xED5 DUP4 DUP4 PUSH2 0xEAE JUMP JUMPDEST SWAP2 POP DUP3 PUSH1 0x2 MUL DUP3 OR SWAP1 POP SWAP3 SWAP2 POP POP JUMP JUMPDEST PUSH2 0xEEE DUP3 PUSH2 0xA6D JUMP JUMPDEST PUSH8 0xFFFFFFFFFFFFFFFF DUP2 GT ISZERO PUSH2 0xF07 JUMPI PUSH2 0xF06 PUSH2 0xCBB JUMP JUMPDEST JUMPDEST PUSH2 0xF11 DUP3 SLOAD PUSH2 0xD15 JUMP JUMPDEST PUSH2 0xF1C DUP3 DUP3 DUP6 PUSH2 0xE5C JUMP JUMPDEST PUSH0 PUSH1 0x20 SWAP1 POP PUSH1 0x1F DUP4 GT PUSH1 0x1 DUP2 EQ PUSH2 0xF4D JUMPI PUSH0 DUP5 ISZERO PUSH2 0xF3B JUMPI DUP3 DUP8 ADD MLOAD SWAP1 POP JUMPDEST PUSH2 0xF45 DUP6 DUP3 PUSH2 0xECA JUMP JUMPDEST DUP7 SSTORE POP PUSH2 0xFAC JUMP JUMPDEST PUSH1 0x1F NOT DUP5 AND PUSH2 0xF5B DUP7 PUSH2 0xD45 JUMP JUMPDEST PUSH0 JUMPDEST DUP3 DUP2 LT ISZERO PUSH2 0xF82 JUMPI DUP5 DUP10 ADD MLOAD DUP3 SSTORE PUSH1 0x1 DUP3 ADD SWAP2 POP PUSH1 0x20 DUP6 ADD SWAP5 POP PUSH1 0x20 DUP2 ADD SWAP1 POP PUSH2 0xF5D JUMP JUMPDEST DUP7 DUP4 LT ISZERO PUSH2 0xF9F JUMPI DUP5 DUP10 ADD MLOAD PUSH2 0xF9B PUSH1 0x1F DUP10 AND DUP3 PUSH2 0xEAE JUMP JUMPDEST DUP4 SSTORE POP JUMPDEST PUSH1 0x1 PUSH1 0x2 DUP9 MUL ADD DUP9 SSTORE POP POP POP JUMPDEST POP POP POP POP POP POP JUMP JUMPDEST PUSH32 0x44656C6976657264000000000000000000000000000000000000000000000000 PUSH0 DUP3 ADD MSTORE POP JUMP JUMPDEST PUSH0 PUSH2 0xFE8 PUSH1 0x8 DUP4 PUSH2 0xA77 JUMP JUMPDEST SWAP2 POP PUSH2 0xFF3 DUP3 PUSH2 0xFB4 JUMP JUMPDEST PUSH1 0x20 DUP3 ADD SWAP1 POP SWAP2 SWAP1 POP JUMP JUMPDEST PUSH0 PUSH1 0x20 DUP3 ADD SWAP1 POP DUP2 DUP2 SUB PUSH0 DUP4 ADD MSTORE PUSH2 0x1015 DUP2 PUSH2 0xFDC JUMP JUMPDEST SWAP1 POP SWAP2 SWAP1 POP JUMP JUMPDEST PUSH32 0x70656E64696E6700000000000000000000000000000000000000000000000000 PUSH0 DUP3 ADD MSTORE POP JUMP JUMPDEST PUSH0 PUSH2 0x1050 PUSH1 0x7 DUP4 PUSH2 0xA77 JUMP JUMPDEST SWAP2 POP PUSH2 0x105B DUP3 PUSH2 0x101C JUMP JUMPDEST PUSH1 0x20 DUP3 ADD SWAP1 POP SWAP2 SWAP1 POP JUMP JUMPDEST PUSH0 PUSH1 0x20 DUP3 ADD SWAP1 POP DUP2 DUP2 SUB PUSH0 DUP4 ADD MSTORE PUSH2 0x107D DUP2 PUSH2 0x1044 JUMP JUMPDEST SWAP1 POP SWAP2 SWAP1 POP JUMP JUMPDEST PUSH32 0x496E73756666696369656E742042616C616E6365000000000000000000000000 PUSH0 DUP3 ADD MSTORE POP JUMP JUMPDEST PUSH0 PUSH2 0x10B8 PUSH1 0x14 DUP4 PUSH2 0xA77 JUMP JUMPDEST SWAP2 POP PUSH2 0x10C3 DUP3 PUSH2 0x1084 JUMP JUMPDEST PUSH1 0x20 DUP3 ADD SWAP1 POP SWAP2 SWAP1 POP JUMP JUMPDEST PUSH0 PUSH1 0x20 DUP3 ADD SWAP1 POP DUP2 DUP2 SUB PUSH0 DUP4 ADD MSTORE PUSH2 0x10E5 DUP2 PUSH2 0x10AC JUMP JUMPDEST SWAP1 POP SWAP2 SWAP1 POP JUMP INVALID 0x4F PUSH19 0x64657220486173204265656E20506C61636564 KECCAK256 MSTORE8 PUSH22 0x636365737366756C6C79A26469706673582212209681 MCOPY PUSH17 0x1E7E9CE0C608B5D432D846ED464158C488 DUP16 INVALID DUP7 0xD4 SWAP8 GASLIMIT PUSH20 0xC341B7E364736F6C634300081C00330000000000 "
				},
				"gasEstimates": {
					"creation": {
						"codeDepositCost": "884000",
						"executionCost": "infinite",
						"totalCost": "infinite"
					},
					"external": {
						"Get_amount()": "207",
						"Owner_ship(address)": "infinite",
						"amount()": "2425",
						"get_status()": "2562",
						"message()": "infinite",
						"new_owner()": "2531",
						"owner()": "2574",
						"set_status(uint8)": "infinite",
						"update_balance()": "24592"
					}
				},
				"methodIdentifiers": {
					"Get_amount()": "f15820ff",
					"Owner_ship(address)": "adc80562",
					"amount()": "aa8c217c",
					"get_status()": "39aaba25",
					"message()": "e21f37ce",
					"new_owner()": "4552b04f",
					"owner()": "8da5cb5b",
					"set_status(uint8)": "6df427bc",
					"update_balance()": "c2133136"
				}
			},
			"storageLayout": {
				"storage": [
					{
						"astId": 3,
						"contract": "Innovation/MiniProject.sol:mini_project",
						"label": "owner",
						"offset": 0,
						"slot": "0",
						"type": "t_address"
					},
					{
						"astId": 5,
						"contract": "Innovation/MiniProject.sol:mini_project",
						"label": "new_owner",
						"offset": 0,
						"slot": "1",
						"type": "t_address"
					},
					{
						"astId": 7,
						"contract": "Innovation/MiniProject.sol:mini_project",
						"label": "amount",
						"offset": 0,
						"slot": "2",
						"type": "t_uint256"
					},
					{
						"astId": 10,
						"contract": "Innovation/MiniProject.sol:mini_project",
						"label": "message",
						"offset": 0,
						"slot": "3",
						"type": "t_string_storage"
					},
					{
						"astId": 70,
						"contract": "Innovation/MiniProject.sol:mini_project",
						"label": "status",
						"offset": 0,
						"slot": "4",
						"type": "t_enum(Status)24"
					}
				],
				"types": {
					"t_address": {
						"encoding": "inplace",
						"label": "address",
						"numberOfBytes": "20"
					},
					"t_enum(Status)24": {
						"encoding": "inplace",
						"label": "enum mini_project.Status",
						"numberOfBytes": "1"
					},
					"t_string_storage": {
						"encoding": "bytes",
						"label": "string",
						"numberOfBytes": "32"
					},
					"t_uint256": {
						"encoding": "inplace",
						"label": "uint256",
						"numberOfBytes": "32"
					}
				}
			},
			"userdoc": {
				"kind": "user",
				"methods": {},
				"version": 1
			}
		}
	}
}