{
	"MiniProject.sol": {
		"mini_project": {
			"abi": [
				{
					"inputs": [],
					"stateMutability": "nonpayable",
					"type": "constructor"
				},
				{
					"anonymous": false,
					"inputs": [
						{
							"indexed": false,
							"internalType": "string",
							"name": "mymsg",
							"type": "string"
						}
					],
					"name": "Status_set",
					"type": "event"
				},
				{
					"inputs": [],
					"name": "Get_amount",
					"outputs": [],
					"stateMutability": "payable",
					"type": "function"
				},
				{
					"inputs": [],
					"name": "Owner_ship",
					"outputs": [],
					"stateMutability": "nonpayable",
					"type": "function"
				},
				{
					"inputs": [],
					"name": "amount",
					"outputs": [
						{
							"internalType": "uint256",
							"name": "",
							"type": "uint256"
						}
					],
					"stateMutability": "view",
					"type": "function"
				},
				{
					"inputs": [],
					"name": "get_status",
					"outputs": [
						{
							"internalType": "enum mini_project.Status",
							"name": "",
							"type": "uint8"
						}
					],
					"stateMutability": "view",
					"type": "function"
				},
				{
					"inputs": [],
					"name": "message",
					"outputs": [
						{
							"internalType": "string",
							"name": "",
							"type": "string"
						}
					],
					"stateMutability": "view",
					"type": "function"
				},
				{
					"inputs": [],
					"name": "new_owner",
					"outputs": [
						{
							"internalType": "address",
							"name": "",
							"type": "address"
						}
					],
					"stateMutability": "view",
					"type": "function"
				},
				{
					"inputs": [],
					"name": "owner",
					"outputs": [
						{
							"internalType": "address",
							"name": "",
							"type": "address"
						}
					],
					"stateMutability": "view",
					"type": "function"
				},
				{
					"inputs": [
						{
							"internalType": "enum mini_project.Status",
							"name": "x",
							"type": "uint8"
						}
					],
					"name": "set_status",
					"outputs": [
						{
							"internalType": "string",
							"name": "",
							"type": "string"
						}
					],
					"stateMutability": "nonpayable",
					"type": "function"
				},
				{
					"inputs": [],
					"name": "update_balance",
					"outputs": [
						{
							"internalType": "uint256",
							"name": "",
							"type": "uint256"
						}
					],
					"stateMutability": "nonpayable",
					"type": "function"
				}
			],
			"devdoc": {
				"kind": "dev",
				"methods": {},
				"version": 1
			},
			"evm": {
				"assembly": "    /* \"MiniProject.sol\":58:1940  contract mini_project {... */\n  mstore(0x40, 0x80)\n    /* \"MiniProject.sol\":170:203  string public message = \"Welcome\" */\n  mload(0x40)\n  dup1\n  0x40\n  add\n  0x40\n  mstore\n  dup1\n  0x07\n  dup2\n  mstore\n  0x20\n  add\n  0x57656c636f6d6500000000000000000000000000000000000000000000000000\n  dup2\n  mstore\n  pop\n  0x03\n  swap1\n  dup2\n  tag_1\n  swap2\n  swap1\n  tag_2\n  jump\t// in\ntag_1:\n  pop\n    /* \"MiniProject.sol\":210:291  constructor() {... */\n  callvalue\n  dup1\n  iszero\n  tag_3\n  jumpi\n  0x00\n  dup1\n  revert\ntag_3:\n  pop\n    /* \"MiniProject.sol\":242:284  0xAb8483F64d9C6d1EcF9b849Ae677dD3315835cb2 */\n  0xab8483f64d9c6d1ecf9b849ae677dd3315835cb2\n    /* \"MiniProject.sol\":234:239  owner */\n  0x00\n  dup1\n    /* \"MiniProject.sol\":234:284  owner = 0xAb8483F64d9C6d1EcF9b849Ae677dD3315835cb2 */\n  0x0100\n  exp\n  dup2\n  sload\n  dup2\n  0xffffffffffffffffffffffffffffffffffffffff\n  mul\n  not\n  and\n  swap1\n  dup4\n  0xffffffffffffffffffffffffffffffffffffffff\n  and\n  mul\n  or\n  swap1\n  sstore\n  pop\n    /* \"MiniProject.sol\":58:1940  contract mini_project {... */\n  jump(tag_6)\n    /* \"#utility.yul\":7:106   */\ntag_7:\n    /* \"#utility.yul\":59:65   */\n  0x00\n    /* \"#utility.yul\":93:98   */\n  dup2\n    /* \"#utility.yul\":87:99   */\n  mload\n    /* \"#utility.yul\":77:99   */\n  swap1\n  pop\n    /* \"#utility.yul\":7:106   */\n  swap2\n  swap1\n  pop\n  jump\t// out\n    /* \"#utility.yul\":112:292   */\ntag_8:\n    /* \"#utility.yul\":160:237   */\n  0x4e487b7100000000000000000000000000000000000000000000000000000000\n    /* \"#utility.yul\":157:158   */\n  0x00\n    /* \"#utility.yul\":150:238   */\n  mstore\n    /* \"#utility.yul\":257:261   */\n  0x41\n    /* \"#utility.yul\":254:255   */\n  0x04\n    /* \"#utility.yul\":247:262   */\n  mstore\n    /* \"#utility.yul\":281:285   */\n  0x24\n    /* \"#utility.yul\":278:279   */\n  0x00\n    /* \"#utility.yul\":271:286   */\n  revert\n    /* \"#utility.yul\":298:478   */\ntag_9:\n    /* \"#utility.yul\":346:423   */\n  0x4e487b7100000000000000000000000000000000000000000000000000000000\n    /* \"#utility.yul\":343:344   */\n  0x00\n    /* \"#utility.yul\":336:424   */\n  mstore\n    /* \"#utility.yul\":443:447   */\n  0x22\n    /* \"#utility.yul\":440:441   */\n  0x04\n    /* \"#utility.yul\":433:448   */\n  mstore\n    /* \"#utility.yul\":467:471   */\n  0x24\n    /* \"#utility.yul\":464:465   */\n  0x00\n    /* \"#utility.yul\":457:472   */\n  revert\n    /* \"#utility.yul\":484:804   */\ntag_10:\n    /* \"#utility.yul\":528:534   */\n  0x00\n    /* \"#utility.yul\":565:566   */\n  0x02\n    /* \"#utility.yul\":559:563   */\n  dup3\n    /* \"#utility.yul\":555:567   */\n  div\n    /* \"#utility.yul\":545:567   */\n  swap1\n  pop\n    /* \"#utility.yul\":612:613   */\n  0x01\n    /* \"#utility.yul\":606:610   */\n  dup3\n    /* \"#utility.yul\":602:614   */\n  and\n    /* \"#utility.yul\":633:651   */\n  dup1\n    /* \"#utility.yul\":623:704   */\n  tag_32\n  jumpi\n    /* \"#utility.yul\":689:693   */\n  0x7f\n    /* \"#utility.yul\":681:687   */\n  dup3\n    /* \"#utility.yul\":677:694   */\n  and\n    /* \"#utility.yul\":667:694   */\n  swap2\n  pop\n    /* \"#utility.yul\":623:704   */\ntag_32:\n    /* \"#utility.yul\":751:753   */\n  0x20\n    /* \"#utility.yul\":743:749   */\n  dup3\n    /* \"#utility.yul\":740:754   */\n  lt\n    /* \"#utility.yul\":720:738   */\n  dup2\n    /* \"#utility.yul\":717:755   */\n  sub\n    /* \"#utility.yul\":714:798   */\n  tag_33\n  jumpi\n    /* \"#utility.yul\":770:788   */\n  tag_34\n  tag_9\n  jump\t// in\ntag_34:\n    /* \"#utility.yul\":714:798   */\ntag_33:\n    /* \"#utility.yul\":535:804   */\n  pop\n    /* \"#utility.yul\":484:804   */\n  swap2\n  swap1\n  pop\n  jump\t// out\n    /* \"#utility.yul\":810:951   */\ntag_11:\n    /* \"#utility.yul\":859:863   */\n  0x00\n    /* \"#utility.yul\":882:885   */\n  dup2\n    /* \"#utility.yul\":874:885   */\n  swap1\n  pop\n    /* \"#utility.yul\":905:908   */\n  dup2\n    /* \"#utility.yul\":902:903   */\n  0x00\n    /* \"#utility.yul\":895:909   */\n  mstore\n    /* \"#utility.yul\":939:943   */\n  0x20\n    /* \"#utility.yul\":936:937   */\n  0x00\n    /* \"#utility.yul\":926:944   */\n  keccak256\n    /* \"#utility.yul\":918:944   */\n  swap1\n  pop\n    /* \"#utility.yul\":810:951   */\n  swap2\n  swap1\n  pop\n  jump\t// out\n    /* \"#utility.yul\":957:1050   */\ntag_12:\n    /* \"#utility.yul\":994:1000   */\n  0x00\n    /* \"#utility.yul\":1041:1043   */\n  0x20\n    /* \"#utility.yul\":1036:1038   */\n  0x1f\n    /* \"#utility.yul\":1029:1034   */\n  dup4\n    /* \"#utility.yul\":1025:1039   */\n  add\n    /* \"#utility.yul\":1021:1044   */\n  div\n    /* \"#utility.yul\":1011:1044   */\n  swap1\n  pop\n    /* \"#utility.yul\":957:1050   */\n  swap2\n  swap1\n  pop\n  jump\t// out\n    /* \"#utility.yul\":1056:1163   */\ntag_13:\n    /* \"#utility.yul\":1100:1108   */\n  0x00\n    /* \"#utility.yul\":1150:1155   */\n  dup3\n    /* \"#utility.yul\":1144:1148   */\n  dup3\n    /* \"#utility.yul\":1140:1156   */\n  shl\n    /* \"#utility.yul\":1119:1156   */\n  swap1\n  pop\n    /* \"#utility.yul\":1056:1163   */\n  swap3\n  swap2\n  pop\n  pop\n  jump\t// out\n    /* \"#utility.yul\":1169:1562   */\ntag_14:\n    /* \"#utility.yul\":1238:1244   */\n  0x00\n    /* \"#utility.yul\":1288:1289   */\n  0x08\n    /* \"#utility.yul\":1276:1286   */\n  dup4\n    /* \"#utility.yul\":1272:1290   */\n  mul\n    /* \"#utility.yul\":1311:1408   */\n  tag_39\n    /* \"#utility.yul\":1341:1407   */\n  0xffffffffffffffffffffffffffffffffffffffffffffffffffffffffffffffff\n    /* \"#utility.yul\":1330:1339   */\n  dup3\n    /* \"#utility.yul\":1311:1408   */\n  tag_13\n  jump\t// in\ntag_39:\n    /* \"#utility.yul\":1429:1468   */\n  tag_40\n    /* \"#utility.yul\":1459:1467   */\n  dup7\n    /* \"#utility.yul\":1448:1457   */\n  dup4\n    /* \"#utility.yul\":1429:1468   */\n  tag_13\n  jump\t// in\ntag_40:\n    /* \"#utility.yul\":1417:1468   */\n  swap6\n  pop\n    /* \"#utility.yul\":1501:1505   */\n  dup1\n    /* \"#utility.yul\":1497:1506   */\n  not\n    /* \"#utility.yul\":1490:1495   */\n  dup5\n    /* \"#utility.yul\":1486:1507   */\n  and\n    /* \"#utility.yul\":1477:1507   */\n  swap4\n  pop\n    /* \"#utility.yul\":1550:1554   */\n  dup1\n    /* \"#utility.yul\":1540:1548   */\n  dup7\n    /* \"#utility.yul\":1536:1555   */\n  and\n    /* \"#utility.yul\":1529:1534   */\n  dup5\n    /* \"#utility.yul\":1526:1556   */\n  or\n    /* \"#utility.yul\":1516:1556   */\n  swap3\n  pop\n    /* \"#utility.yul\":1245:1562   */\n  pop\n  pop\n    /* \"#utility.yul\":1169:1562   */\n  swap4\n  swap3\n  pop\n  pop\n  pop\n  jump\t// out\n    /* \"#utility.yul\":1568:1645   */\ntag_15:\n    /* \"#utility.yul\":1605:1612   */\n  0x00\n    /* \"#utility.yul\":1634:1639   */\n  dup2\n    /* \"#utility.yul\":1623:1639   */\n  swap1\n  pop\n    /* \"#utility.yul\":1568:1645   */\n  swap2\n  swap1\n  pop\n  jump\t// out\n    /* \"#utility.yul\":1651:1711   */\ntag_16:\n    /* \"#utility.yul\":1679:1682   */\n  0x00\n    /* \"#utility.yul\":1700:1705   */\n  dup2\n    /* \"#utility.yul\":1693:1705   */\n  swap1\n  pop\n    /* \"#utility.yul\":1651:1711   */\n  swap2\n  swap1\n  pop\n  jump\t// out\n    /* \"#utility.yul\":1717:1859   */\ntag_17:\n    /* \"#utility.yul\":1767:1776   */\n  0x00\n    /* \"#utility.yul\":1800:1853   */\n  tag_44\n    /* \"#utility.yul\":1818:1852   */\n  tag_45\n    /* \"#utility.yul\":1827:1851   */\n  tag_46\n    /* \"#utility.yul\":1845:1850   */\n  dup5\n    /* \"#utility.yul\":1827:1851   */\n  tag_15\n  jump\t// in\ntag_46:\n    /* \"#utility.yul\":1818:1852   */\n  tag_16\n  jump\t// in\ntag_45:\n    /* \"#utility.yul\":1800:1853   */\n  tag_15\n  jump\t// in\ntag_44:\n    /* \"#utility.yul\":1787:1853   */\n  swap1\n  pop\n    /* \"#utility.yul\":1717:1859   */\n  swap2\n  swap1\n  pop\n  jump\t// out\n    /* \"#utility.yul\":1865:1940   */\ntag_18:\n    /* \"#utility.yul\":1908:1911   */\n  0x00\n    /* \"#utility.yul\":1929:1934   */\n  dup2\n    /* \"#utility.yul\":1922:1934   */\n  swap1\n  pop\n    /* \"#utility.yul\":1865:1940   */\n  swap2\n  swap1\n  pop\n  jump\t// out\n    /* \"#utility.yul\":1946:2215   */\ntag_19:\n    /* \"#utility.yul\":2056:2095   */\n  tag_49\n    /* \"#utility.yul\":2087:2094   */\n  dup4\n    /* \"#utility.yul\":2056:2095   */\n  tag_17\n  jump\t// in\ntag_49:\n    /* \"#utility.yul\":2117:2208   */\n  tag_50\n    /* \"#utility.yul\":2166:2207   */\n  tag_51\n    /* \"#utility.yul\":2190:2206   */\n  dup3\n    /* \"#utility.yul\":2166:2207   */\n  tag_18\n  jump\t// in\ntag_51:\n    /* \"#utility.yul\":2158:2164   */\n  dup5\n    /* \"#utility.yul\":2151:2155   */\n  dup5\n    /* \"#utility.yul\":2145:2156   */\n  sload\n    /* \"#utility.yul\":2117:2208   */\n  tag_14\n  jump\t// in\ntag_50:\n    /* \"#utility.yul\":2111:2115   */\n  dup3\n    /* \"#utility.yul\":2104:2209   */\n  sstore\n    /* \"#utility.yul\":2022:2215   */\n  pop\n    /* \"#utility.yul\":1946:2215   */\n  pop\n  pop\n  pop\n  jump\t// out\n    /* \"#utility.yul\":2221:2294   */\ntag_20:\n    /* \"#utility.yul\":2266:2269   */\n  0x00\n    /* \"#utility.yul\":2221:2294   */\n  swap1\n  jump\t// out\n    /* \"#utility.yul\":2300:2489   */\ntag_21:\n    /* \"#utility.yul\":2377:2409   */\n  tag_54\n  tag_20\n  jump\t// in\ntag_54:\n    /* \"#utility.yul\":2418:2483   */\n  tag_55\n    /* \"#utility.yul\":2476:2482   */\n  dup2\n    /* \"#utility.yul\":2468:2474   */\n  dup5\n    /* \"#utility.yul\":2462:2466   */\n  dup5\n    /* \"#utility.yul\":2418:2483   */\n  tag_19\n  jump\t// in\ntag_55:\n    /* \"#utility.yul\":2353:2489   */\n  pop\n    /* \"#utility.yul\":2300:2489   */\n  pop\n  pop\n  jump\t// out\n    /* \"#utility.yul\":2495:2681   */\ntag_22:\n    /* \"#utility.yul\":2555:2675   */\ntag_57:\n    /* \"#utility.yul\":2572:2575   */\n  dup2\n    /* \"#utility.yul\":2565:2570   */\n  dup2\n    /* \"#utility.yul\":2562:2576   */\n  lt\n    /* \"#utility.yul\":2555:2675   */\n  iszero\n  tag_59\n  jumpi\n    /* \"#utility.yul\":2626:2665   */\n  tag_60\n    /* \"#utility.yul\":2663:2664   */\n  0x00\n    /* \"#utility.yul\":2656:2661   */\n  dup3\n    /* \"#utility.yul\":2626:2665   */\n  tag_21\n  jump\t// in\ntag_60:\n    /* \"#utility.yul\":2599:2600   */\n  0x01\n    /* \"#utility.yul\":2592:2597   */\n  dup2\n    /* \"#utility.yul\":2588:2601   */\n  add\n    /* \"#utility.yul\":2579:2601   */\n  swap1\n  pop\n    /* \"#utility.yul\":2555:2675   */\n  jump(tag_57)\ntag_59:\n    /* \"#utility.yul\":2495:2681   */\n  pop\n  pop\n  jump\t// out\n    /* \"#utility.yul\":2687:3230   */\ntag_23:\n    /* \"#utility.yul\":2788:2790   */\n  0x1f\n    /* \"#utility.yul\":2783:2786   */\n  dup3\n    /* \"#utility.yul\":2780:2791   */\n  gt\n    /* \"#utility.yul\":2777:3223   */\n  iszero\n  tag_62\n  jumpi\n    /* \"#utility.yul\":2822:2860   */\n  tag_63\n    /* \"#utility.yul\":2854:2859   */\n  dup2\n    /* \"#utility.yul\":2822:2860   */\n  tag_11\n  jump\t// in\ntag_63:\n    /* \"#utility.yul\":2906:2935   */\n  tag_64\n    /* \"#utility.yul\":2924:2934   */\n  dup5\n    /* \"#utility.yul\":2906:2935   */\n  tag_12\n  jump\t// in\ntag_64:\n    /* \"#utility.yul\":2896:2904   */\n  dup2\n    /* \"#utility.yul\":2892:2936   */\n  add\n    /* \"#utility.yul\":3089:3091   */\n  0x20\n    /* \"#utility.yul\":3077:3087   */\n  dup6\n    /* \"#utility.yul\":3074:3092   */\n  lt\n    /* \"#utility.yul\":3071:3120   */\n  iszero\n  tag_65\n  jumpi\n    /* \"#utility.yul\":3110:3118   */\n  dup2\n    /* \"#utility.yul\":3095:3118   */\n  swap1\n  pop\n    /* \"#utility.yul\":3071:3120   */\ntag_65:\n    /* \"#utility.yul\":3133:3213   */\n  tag_66\n    /* \"#utility.yul\":3189:3211   */\n  tag_67\n    /* \"#utility.yul\":3207:3210   */\n  dup6\n    /* \"#utility.yul\":3189:3211   */\n  tag_12\n  jump\t// in\ntag_67:\n    /* \"#utility.yul\":3179:3187   */\n  dup4\n    /* \"#utility.yul\":3175:3212   */\n  add\n    /* \"#utility.yul\":3162:3173   */\n  dup3\n    /* \"#utility.yul\":3133:3213   */\n  tag_22\n  jump\t// in\ntag_66:\n    /* \"#utility.yul\":2792:3223   */\n  pop\n  pop\n    /* \"#utility.yul\":2777:3223   */\ntag_62:\n    /* \"#utility.yul\":2687:3230   */\n  pop\n  pop\n  pop\n  jump\t// out\n    /* \"#utility.yul\":3236:3353   */\ntag_24:\n    /* \"#utility.yul\":3290:3298   */\n  0x00\n    /* \"#utility.yul\":3340:3345   */\n  dup3\n    /* \"#utility.yul\":3334:3338   */\n  dup3\n    /* \"#utility.yul\":3330:3346   */\n  shr\n    /* \"#utility.yul\":3309:3346   */\n  swap1\n  pop\n    /* \"#utility.yul\":3236:3353   */\n  swap3\n  swap2\n  pop\n  pop\n  jump\t// out\n    /* \"#utility.yul\":3359:3528   */\ntag_25:\n    /* \"#utility.yul\":3403:3409   */\n  0x00\n    /* \"#utility.yul\":3436:3487   */\n  tag_70\n    /* \"#utility.yul\":3484:3485   */\n  0x00\n    /* \"#utility.yul\":3480:3486   */\n  not\n    /* \"#utility.yul\":3472:3477   */\n  dup5\n    /* \"#utility.yul\":3469:3470   */\n  0x08\n    /* \"#utility.yul\":3465:3478   */\n  mul\n    /* \"#utility.yul\":3436:3487   */\n  tag_24\n  jump\t// in\ntag_70:\n    /* \"#utility.yul\":3432:3488   */\n  not\n    /* \"#utility.yul\":3517:3521   */\n  dup1\n    /* \"#utility.yul\":3511:3515   */\n  dup4\n    /* \"#utility.yul\":3507:3522   */\n  and\n    /* \"#utility.yul\":3497:3522   */\n  swap2\n  pop\n    /* \"#utility.yul\":3410:3528   */\n  pop\n    /* \"#utility.yul\":3359:3528   */\n  swap3\n  swap2\n  pop\n  pop\n  jump\t// out\n    /* \"#utility.yul\":3533:3828   */\ntag_26:\n    /* \"#utility.yul\":3609:3613   */\n  0x00\n    /* \"#utility.yul\":3755:3784   */\n  tag_72\n    /* \"#utility.yul\":3780:3783   */\n  dup4\n    /* \"#utility.yul\":3774:3778   */\n  dup4\n    /* \"#utility.yul\":3755:3784   */\n  tag_25\n  jump\t// in\ntag_72:\n    /* \"#utility.yul\":3747:3784   */\n  swap2\n  pop\n    /* \"#utility.yul\":3817:3820   */\n  dup3\n    /* \"#utility.yul\":3814:3815   */\n  0x02\n    /* \"#utility.yul\":3810:3821   */\n  mul\n    /* \"#utility.yul\":3804:3808   */\n  dup3\n    /* \"#utility.yul\":3801:3822   */\n  or\n    /* \"#utility.yul\":3793:3822   */\n  swap1\n  pop\n    /* \"#utility.yul\":3533:3828   */\n  swap3\n  swap2\n  pop\n  pop\n  jump\t// out\n    /* \"#utility.yul\":3833:5228   */\ntag_2:\n    /* \"#utility.yul\":3950:3987   */\n  tag_74\n    /* \"#utility.yul\":3983:3986   */\n  dup3\n    /* \"#utility.yul\":3950:3987   */\n  tag_7\n  jump\t// in\ntag_74:\n    /* \"#utility.yul\":4052:4070   */\n  0xffffffffffffffff\n    /* \"#utility.yul\":4044:4050   */\n  dup2\n    /* \"#utility.yul\":4041:4071   */\n  gt\n    /* \"#utility.yul\":4038:4094   */\n  iszero\n  tag_75\n  jumpi\n    /* \"#utility.yul\":4074:4092   */\n  tag_76\n  tag_8\n  jump\t// in\ntag_76:\n    /* \"#utility.yul\":4038:4094   */\ntag_75:\n    /* \"#utility.yul\":4118:4156   */\n  tag_77\n    /* \"#utility.yul\":4150:4154   */\n  dup3\n    /* \"#utility.yul\":4144:4155   */\n  sload\n    /* \"#utility.yul\":4118:4156   */\n  tag_10\n  jump\t// in\ntag_77:\n    /* \"#utility.yul\":4203:4270   */\n  tag_78\n    /* \"#utility.yul\":4263:4269   */\n  dup3\n    /* \"#utility.yul\":4255:4261   */\n  dup3\n    /* \"#utility.yul\":4249:4253   */\n  dup6\n    /* \"#utility.yul\":4203:4270   */\n  tag_23\n  jump\t// in\ntag_78:\n    /* \"#utility.yul\":4297:4298   */\n  0x00\n    /* \"#utility.yul\":4321:4325   */\n  0x20\n    /* \"#utility.yul\":4308:4325   */\n  swap1\n  pop\n    /* \"#utility.yul\":4353:4355   */\n  0x1f\n    /* \"#utility.yul\":4345:4351   */\n  dup4\n    /* \"#utility.yul\":4342:4356   */\n  gt\n    /* \"#utility.yul\":4370:4371   */\n  0x01\n    /* \"#utility.yul\":4365:4983   */\n  dup2\n  eq\n  tag_80\n  jumpi\n    /* \"#utility.yul\":5027:5028   */\n  0x00\n    /* \"#utility.yul\":5044:5050   */\n  dup5\n    /* \"#utility.yul\":5041:5118   */\n  iszero\n  tag_81\n  jumpi\n    /* \"#utility.yul\":5093:5102   */\n  dup3\n    /* \"#utility.yul\":5088:5091   */\n  dup8\n    /* \"#utility.yul\":5084:5103   */\n  add\n    /* \"#utility.yul\":5078:5104   */\n  mload\n    /* \"#utility.yul\":5069:5104   */\n  swap1\n  pop\n    /* \"#utility.yul\":5041:5118   */\ntag_81:\n    /* \"#utility.yul\":5144:5211   */\n  tag_82\n    /* \"#utility.yul\":5204:5210   */\n  dup6\n    /* \"#utility.yul\":5197:5202   */\n  dup3\n    /* \"#utility.yul\":5144:5211   */\n  tag_26\n  jump\t// in\ntag_82:\n    /* \"#utility.yul\":5138:5142   */\n  dup7\n    /* \"#utility.yul\":5131:5212   */\n  sstore\n    /* \"#utility.yul\":5000:5222   */\n  pop\n    /* \"#utility.yul\":4335:5222   */\n  jump(tag_79)\n    /* \"#utility.yul\":4365:4983   */\ntag_80:\n    /* \"#utility.yul\":4417:4421   */\n  0x1f\n    /* \"#utility.yul\":4413:4422   */\n  not\n    /* \"#utility.yul\":4405:4411   */\n  dup5\n    /* \"#utility.yul\":4401:4423   */\n  and\n    /* \"#utility.yul\":4451:4488   */\n  tag_83\n    /* \"#utility.yul\":4483:4487   */\n  dup7\n    /* \"#utility.yul\":4451:4488   */\n  tag_11\n  jump\t// in\ntag_83:\n    /* \"#utility.yul\":4510:4511   */\n  0x00\n    /* \"#utility.yul\":4524:4732   */\ntag_84:\n    /* \"#utility.yul\":4538:4545   */\n  dup3\n    /* \"#utility.yul\":4535:4536   */\n  dup2\n    /* \"#utility.yul\":4532:4546   */\n  lt\n    /* \"#utility.yul\":4524:4732   */\n  iszero\n  tag_86\n  jumpi\n    /* \"#utility.yul\":4617:4626   */\n  dup5\n    /* \"#utility.yul\":4612:4615   */\n  dup10\n    /* \"#utility.yul\":4608:4627   */\n  add\n    /* \"#utility.yul\":4602:4628   */\n  mload\n    /* \"#utility.yul\":4594:4600   */\n  dup3\n    /* \"#utility.yul\":4587:4629   */\n  sstore\n    /* \"#utility.yul\":4668:4669   */\n  0x01\n    /* \"#utility.yul\":4660:4666   */\n  dup3\n    /* \"#utility.yul\":4656:4670   */\n  add\n    /* \"#utility.yul\":4646:4670   */\n  swap2\n  pop\n    /* \"#utility.yul\":4715:4717   */\n  0x20\n    /* \"#utility.yul\":4704:4713   */\n  dup6\n    /* \"#utility.yul\":4700:4718   */\n  add\n    /* \"#utility.yul\":4687:4718   */\n  swap5\n  pop\n    /* \"#utility.yul\":4561:4565   */\n  0x20\n    /* \"#utility.yul\":4558:4559   */\n  dup2\n    /* \"#utility.yul\":4554:4566   */\n  add\n    /* \"#utility.yul\":4549:4566   */\n  swap1\n  pop\n    /* \"#utility.yul\":4524:4732   */\n  jump(tag_84)\ntag_86:\n    /* \"#utility.yul\":4760:4766   */\n  dup7\n    /* \"#utility.yul\":4751:4758   */\n  dup4\n    /* \"#utility.yul\":4748:4767   */\n  lt\n    /* \"#utility.yul\":4745:4924   */\n  iszero\n  tag_87\n  jumpi\n    /* \"#utility.yul\":4818:4827   */\n  dup5\n    /* \"#utility.yul\":4813:4816   */\n  dup10\n    /* \"#utility.yul\":4809:4828   */\n  add\n    /* \"#utility.yul\":4803:4829   */\n  mload\n    /* \"#utility.yul\":4861:4909   */\n  tag_88\n    /* \"#utility.yul\":4903:4907   */\n  0x1f\n    /* \"#utility.yul\":4895:4901   */\n  dup10\n    /* \"#utility.yul\":4891:4908   */\n  and\n    /* \"#utility.yul\":4880:4889   */\n  dup3\n    /* \"#utility.yul\":4861:4909   */\n  tag_25\n  jump\t// in\ntag_88:\n    /* \"#utility.yul\":4853:4859   */\n  dup4\n    /* \"#utility.yul\":4846:4910   */\n  sstore\n    /* \"#utility.yul\":4768:4924   */\n  pop\n    /* \"#utility.yul\":4745:4924   */\ntag_87:\n    /* \"#utility.yul\":4970:4971   */\n  0x01\n    /* \"#utility.yul\":4966:4967   */\n  0x02\n    /* \"#utility.yul\":4958:4964   */\n  dup9\n    /* \"#utility.yul\":4954:4968   */\n  mul\n    /* \"#utility.yul\":4950:4972   */\n  add\n    /* \"#utility.yul\":4944:4948   */\n  dup9\n    /* \"#utility.yul\":4937:4973   */\n  sstore\n    /* \"#utility.yul\":4372:4983   */\n  pop\n  pop\n  pop\n    /* \"#utility.yul\":4335:5222   */\ntag_79:\n  pop\n    /* \"#utility.yul\":3925:5228   */\n  pop\n  pop\n  pop\n    /* \"#utility.yul\":3833:5228   */\n  pop\n  pop\n  jump\t// out\n    /* \"MiniProject.sol\":58:1940  contract mini_project {... */\ntag_6:\n  dataSize(sub_0)\n  dup1\n  dataOffset(sub_0)\n  0x00\n  codecopy\n  0x00\n  return\nstop\n\nsub_0: assembly {\n        /* \"MiniProject.sol\":58:1940  contract mini_project {... */\n      mstore(0x40, 0x80)\n      jumpi(tag_1, lt(calldatasize, 0x04))\n      shr(0xe0, calldataload(0x00))\n      dup1\n      0x9b47efe3\n      gt\n      tag_11\n      jumpi\n      dup1\n      0x9b47efe3\n      eq\n      tag_6\n      jumpi\n      dup1\n      0xaa8c217c\n      eq\n      tag_7\n      jumpi\n      dup1\n      0xc2133136\n      eq\n      tag_8\n      jumpi\n      dup1\n      0xe21f37ce\n      eq\n      tag_9\n      jumpi\n      dup1\n      0xf15820ff\n      eq\n      tag_10\n      jumpi\n      jump(tag_1)\n    tag_11:\n      dup1\n      0x39aaba25\n      eq\n      tag_2\n      jumpi\n      dup1\n      0x4552b04f\n      eq\n      tag_3\n      jumpi\n      dup1\n      0x6df427bc\n      eq\n      tag_4\n      jumpi\n      dup1\n      0x8da5cb5b\n      eq\n      tag_5\n      jumpi\n    tag_1:\n      0x00\n      dup1\n      revert\n        /* \"MiniProject.sol\":819:913  function get_status() public view returns (Status) {... */\n    tag_2:\n      callvalue\n      dup1\n      iszero\n      tag_12\n      jumpi\n      0x00\n      dup1\n      revert\n    tag_12:\n      pop\n      tag_13\n      tag_14\n      jump\t// in\n    tag_13:\n      mload(0x40)\n      tag_15\n      swap2\n      swap1\n      tag_16\n      jump\t// in\n    tag_15:\n      mload(0x40)\n      dup1\n      swap2\n      sub\n      swap1\n      return\n        /* \"MiniProject.sol\":112:136  address public new_owner */\n    tag_3:\n      callvalue\n      dup1\n      iszero\n      tag_17\n      jumpi\n      0x00\n      dup1\n      revert\n    tag_17:\n      pop\n      tag_18\n      tag_19\n      jump\t// in\n    tag_18:\n      mload(0x40)\n      tag_20\n      swap2\n      swap1\n      tag_21\n      jump\t// in\n    tag_20:\n      mload(0x40)\n      dup1\n      swap2\n      sub\n      swap1\n      return\n        /* \"MiniProject.sol\":919:1489  function set_status(Status x)... */\n    tag_4:\n      callvalue\n      dup1\n      iszero\n      tag_22\n      jumpi\n      0x00\n      dup1\n      revert\n    tag_22:\n      pop\n      tag_23\n      0x04\n      dup1\n      calldatasize\n      sub\n      dup2\n      add\n      swap1\n      tag_24\n      swap2\n      swap1\n      tag_25\n      jump\t// in\n    tag_24:\n      tag_26\n      jump\t// in\n    tag_23:\n      mload(0x40)\n      tag_27\n      swap2\n      swap1\n      tag_28\n      jump\t// in\n    tag_27:\n      mload(0x40)\n      dup1\n      swap2\n      sub\n      swap1\n      return\n        /* \"MiniProject.sol\":86:106  address public owner */\n    tag_5:\n      callvalue\n      dup1\n      iszero\n      tag_29\n      jumpi\n      0x00\n      dup1\n      revert\n    tag_29:\n      pop\n      tag_30\n      tag_31\n      jump\t// in\n    tag_30:\n      mload(0x40)\n      tag_32\n      swap2\n      swap1\n      tag_21\n      jump\t// in\n    tag_32:\n      mload(0x40)\n      dup1\n      swap2\n      sub\n      swap1\n      return\n        /* \"MiniProject.sol\":1667:1938  function Owner_ship() public only_owner balance_checker {... */\n    tag_6:\n      callvalue\n      dup1\n      iszero\n      tag_33\n      jumpi\n      0x00\n      dup1\n      revert\n    tag_33:\n      pop\n      tag_34\n      tag_35\n      jump\t// in\n    tag_34:\n      stop\n        /* \"MiniProject.sol\":142:163  uint256 public amount */\n    tag_7:\n      callvalue\n      dup1\n      iszero\n      tag_36\n      jumpi\n      0x00\n      dup1\n      revert\n    tag_36:\n      pop\n      tag_37\n      tag_38\n      jump\t// in\n    tag_37:\n      mload(0x40)\n      tag_39\n      swap2\n      swap1\n      tag_40\n      jump\t// in\n    tag_39:\n      mload(0x40)\n      dup1\n      swap2\n      sub\n      swap1\n      return\n        /* \"MiniProject.sol\":1540:1661  function update_balance() public returns (uint256) {... */\n    tag_8:\n      callvalue\n      dup1\n      iszero\n      tag_41\n      jumpi\n      0x00\n      dup1\n      revert\n    tag_41:\n      pop\n      tag_42\n      tag_43\n      jump\t// in\n    tag_42:\n      mload(0x40)\n      tag_44\n      swap2\n      swap1\n      tag_40\n      jump\t// in\n    tag_44:\n      mload(0x40)\n      dup1\n      swap2\n      sub\n      swap1\n      return\n        /* \"MiniProject.sol\":170:203  string public message = \"Welcome\" */\n    tag_9:\n      callvalue\n      dup1\n      iszero\n      tag_45\n      jumpi\n      0x00\n      dup1\n      revert\n    tag_45:\n      pop\n      tag_46\n      tag_47\n      jump\t// in\n    tag_46:\n      mload(0x40)\n      tag_48\n      swap2\n      swap1\n      tag_28\n      jump\t// in\n    tag_48:\n      mload(0x40)\n      dup1\n      swap2\n      sub\n      swap1\n      return\n        /* \"MiniProject.sol\":1495:1534  function Get_amount() public payable {} */\n    tag_10:\n      tag_49\n      tag_50\n      jump\t// in\n    tag_49:\n      stop\n        /* \"MiniProject.sol\":819:913  function get_status() public view returns (Status) {... */\n    tag_14:\n        /* \"MiniProject.sol\":862:868  Status */\n      0x00\n        /* \"MiniProject.sol\":899:905  status */\n      0x04\n      0x00\n      swap1\n      sload\n      swap1\n      0x0100\n      exp\n      swap1\n      div\n      0xff\n      and\n        /* \"MiniProject.sol\":892:905  return status */\n      swap1\n      pop\n        /* \"MiniProject.sol\":819:913  function get_status() public view returns (Status) {... */\n      swap1\n      jump\t// out\n        /* \"MiniProject.sol\":112:136  address public new_owner */\n    tag_19:\n      0x01\n      0x00\n      swap1\n      sload\n      swap1\n      0x0100\n      exp\n      swap1\n      div\n      0xffffffffffffffffffffffffffffffffffffffff\n      and\n      dup2\n      jump\t// out\n        /* \"MiniProject.sol\":919:1489  function set_status(Status x)... */\n    tag_26:\n        /* \"MiniProject.sol\":1021:1034  string memory */\n      0x60\n        /* \"MiniProject.sol\":440:450  msg.sender */\n      caller\n        /* \"MiniProject.sol\":431:450  owner == msg.sender */\n      0xffffffffffffffffffffffffffffffffffffffff\n      and\n        /* \"MiniProject.sol\":431:436  owner */\n      0x00\n      dup1\n      sload\n      swap1\n      0x0100\n      exp\n      swap1\n      div\n      0xffffffffffffffffffffffffffffffffffffffff\n      and\n        /* \"MiniProject.sol\":431:450  owner == msg.sender */\n      0xffffffffffffffffffffffffffffffffffffffff\n      and\n      eq\n        /* \"MiniProject.sol\":423:464  require(owner == msg.sender, \"Not Owner\") */\n      tag_53\n      jumpi\n      mload(0x40)\n      0x08c379a000000000000000000000000000000000000000000000000000000000\n      dup2\n      mstore\n      0x04\n      add\n      tag_54\n      swap1\n      tag_55\n      jump\t// in\n    tag_54:\n      mload(0x40)\n      dup1\n      swap2\n      sub\n      swap1\n      revert\n    tag_53:\n        /* \"MiniProject.sol\":679:695  type(Status).max */\n      0x03\n        /* \"MiniProject.sol\":671:696  uint256(type(Status).max) */\n      dup1\n      dup2\n      gt\n      iszero\n      tag_57\n      jumpi\n      tag_58\n      tag_59\n      jump\t// in\n    tag_58:\n    tag_57:\n        /* \"MiniProject.sol\":660:666  status */\n      0x04\n      0x00\n      swap1\n      sload\n      swap1\n      0x0100\n      exp\n      swap1\n      div\n      0xff\n      and\n        /* \"MiniProject.sol\":652:667  uint256(status) */\n      0x03\n      dup2\n      gt\n      iszero\n      tag_60\n      jumpi\n      tag_61\n      tag_59\n      jump\t// in\n    tag_61:\n    tag_60:\n        /* \"MiniProject.sol\":652:696  uint256(status) <= uint256(type(Status).max) */\n      gt\n      iszero\n        /* \"MiniProject.sol\":631:739  require(... */\n      tag_62\n      jumpi\n      mload(0x40)\n      0x08c379a000000000000000000000000000000000000000000000000000000000\n      dup2\n      mstore\n      0x04\n      add\n      tag_63\n      swap1\n      tag_64\n      jump\t// in\n    tag_63:\n      mload(0x40)\n      dup1\n      swap2\n      sub\n      swap1\n      revert\n    tag_62:\n        /* \"MiniProject.sol\":1059:1060  x */\n      dup2\n        /* \"MiniProject.sol\":1050:1056  status */\n      0x04\n      0x00\n        /* \"MiniProject.sol\":1050:1060  status = x */\n      0x0100\n      exp\n      dup2\n      sload\n      dup2\n      0xff\n      mul\n      not\n      and\n      swap1\n      dup4\n      0x03\n      dup2\n      gt\n      iszero\n      tag_66\n      jumpi\n      tag_67\n      tag_59\n      jump\t// in\n    tag_67:\n    tag_66:\n      mul\n      or\n      swap1\n      sstore\n      pop\n        /* \"MiniProject.sol\":1084:1098  Status.Shipped */\n      0x02\n        /* \"MiniProject.sol\":1074:1098  status == Status.Shipped */\n      0x03\n      dup2\n      gt\n      iszero\n      tag_68\n      jumpi\n      tag_69\n      tag_59\n      jump\t// in\n    tag_69:\n    tag_68:\n        /* \"MiniProject.sol\":1074:1080  status */\n      0x04\n      0x00\n      swap1\n      sload\n      swap1\n      0x0100\n      exp\n      swap1\n      div\n      0xff\n      and\n        /* \"MiniProject.sol\":1074:1098  status == Status.Shipped */\n      0x03\n      dup2\n      gt\n      iszero\n      tag_70\n      jumpi\n      tag_71\n      tag_59\n      jump\t// in\n    tag_71:\n    tag_70:\n      sub\n        /* \"MiniProject.sol\":1070:1483  if (status == Status.Shipped) {... */\n      tag_72\n      jumpi\n        /* \"MiniProject.sol\":1119:1140  Status_set(\"Shipped\") */\n      0xe18822188b13ea789744bb656325800d3b5025b3d956e508917ed2a260b33a8d\n      mload(0x40)\n      tag_73\n      swap1\n      tag_74\n      jump\t// in\n    tag_73:\n      mload(0x40)\n      dup1\n      swap2\n      sub\n      swap1\n      log1\n        /* \"MiniProject.sol\":1154:1173  message = \"Shipped\" */\n      mload(0x40)\n      dup1\n      0x40\n      add\n      0x40\n      mstore\n      dup1\n      0x07\n      dup2\n      mstore\n      0x20\n      add\n      0x5368697070656400000000000000000000000000000000000000000000000000\n      dup2\n      mstore\n      pop\n        /* \"MiniProject.sol\":1154:1161  message */\n      0x03\n        /* \"MiniProject.sol\":1154:1173  message = \"Shipped\" */\n      swap1\n      dup2\n      tag_75\n      swap2\n      swap1\n      tag_76\n      jump\t// in\n    tag_75:\n      pop\n        /* \"MiniProject.sol\":1194:1201  message */\n      0x03\n        /* \"MiniProject.sol\":1187:1201  return message */\n      dup1\n      sload\n      tag_77\n      swap1\n      tag_78\n      jump\t// in\n    tag_77:\n      dup1\n      0x1f\n      add\n      0x20\n      dup1\n      swap2\n      div\n      mul\n      0x20\n      add\n      mload(0x40)\n      swap1\n      dup2\n      add\n      0x40\n      mstore\n      dup1\n      swap3\n      swap2\n      swap1\n      dup2\n      dup2\n      mstore\n      0x20\n      add\n      dup3\n      dup1\n      sload\n      tag_79\n      swap1\n      tag_78\n      jump\t// in\n    tag_79:\n      dup1\n      iszero\n      tag_80\n      jumpi\n      dup1\n      0x1f\n      lt\n      tag_81\n      jumpi\n      0x0100\n      dup1\n      dup4\n      sload\n      div\n      mul\n      dup4\n      mstore\n      swap2\n      0x20\n      add\n      swap2\n      jump(tag_80)\n    tag_81:\n      dup3\n      add\n      swap2\n      swap1\n      0x00\n      mstore\n      keccak256(0x00, 0x20)\n      swap1\n    tag_82:\n      dup2\n      sload\n      dup2\n      mstore\n      swap1\n      0x01\n      add\n      swap1\n      0x20\n      add\n      dup1\n      dup4\n      gt\n      tag_82\n      jumpi\n      dup3\n      swap1\n      sub\n      0x1f\n      and\n      dup3\n      add\n      swap2\n    tag_80:\n      pop\n      pop\n      pop\n      pop\n      pop\n      swap1\n      pop\n      jump(tag_65)\n        /* \"MiniProject.sol\":1070:1483  if (status == Status.Shipped) {... */\n    tag_72:\n        /* \"MiniProject.sol\":1232:1248  Status.Delivered */\n      0x03\n        /* \"MiniProject.sol\":1222:1248  status == Status.Delivered */\n      dup1\n      dup2\n      gt\n      iszero\n      tag_84\n      jumpi\n      tag_85\n      tag_59\n      jump\t// in\n    tag_85:\n    tag_84:\n        /* \"MiniProject.sol\":1222:1228  status */\n      0x04\n      0x00\n      swap1\n      sload\n      swap1\n      0x0100\n      exp\n      swap1\n      div\n      0xff\n      and\n        /* \"MiniProject.sol\":1222:1248  status == Status.Delivered */\n      0x03\n      dup2\n      gt\n      iszero\n      tag_86\n      jumpi\n      tag_87\n      tag_59\n      jump\t// in\n    tag_87:\n    tag_86:\n      sub\n        /* \"MiniProject.sol\":1218:1483  if (status == Status.Delivered) {... */\n      tag_88\n      jumpi\n        /* \"MiniProject.sol\":1269:1291  Status_set(\"Deliverd\") */\n      0xe18822188b13ea789744bb656325800d3b5025b3d956e508917ed2a260b33a8d\n      mload(0x40)\n      tag_89\n      swap1\n      tag_90\n      jump\t// in\n    tag_89:\n      mload(0x40)\n      dup1\n      swap2\n      sub\n      swap1\n      log1\n        /* \"MiniProject.sol\":1305:1326  message = \"Delivered\" */\n      mload(0x40)\n      dup1\n      0x40\n      add\n      0x40\n      mstore\n      dup1\n      0x09\n      dup2\n      mstore\n      0x20\n      add\n      0x44656c6976657265640000000000000000000000000000000000000000000000\n      dup2\n      mstore\n      pop\n        /* \"MiniProject.sol\":1305:1312  message */\n      0x03\n        /* \"MiniProject.sol\":1305:1326  message = \"Delivered\" */\n      swap1\n      dup2\n      tag_91\n      swap2\n      swap1\n      tag_76\n      jump\t// in\n    tag_91:\n      pop\n        /* \"MiniProject.sol\":1347:1354  message */\n      0x03\n        /* \"MiniProject.sol\":1340:1354  return message */\n      dup1\n      sload\n      tag_92\n      swap1\n      tag_78\n      jump\t// in\n    tag_92:\n      dup1\n      0x1f\n      add\n      0x20\n      dup1\n      swap2\n      div\n      mul\n      0x20\n      add\n      mload(0x40)\n      swap1\n      dup2\n      add\n      0x40\n      mstore\n      dup1\n      swap3\n      swap2\n      swap1\n      dup2\n      dup2\n      mstore\n      0x20\n      add\n      dup3\n      dup1\n      sload\n      tag_93\n      swap1\n      tag_78\n      jump\t// in\n    tag_93:\n      dup1\n      iszero\n      tag_94\n      jumpi\n      dup1\n      0x1f\n      lt\n      tag_95\n      jumpi\n      0x0100\n      dup1\n      dup4\n      sload\n      div\n      mul\n      dup4\n      mstore\n      swap2\n      0x20\n      add\n      swap2\n      jump(tag_94)\n    tag_95:\n      dup3\n      add\n      swap2\n      swap1\n      0x00\n      mstore\n      keccak256(0x00, 0x20)\n      swap1\n    tag_96:\n      dup2\n      sload\n      dup2\n      mstore\n      swap1\n      0x01\n      add\n      swap1\n      0x20\n      add\n      dup1\n      dup4\n      gt\n      tag_96\n      jumpi\n      dup3\n      swap1\n      sub\n      0x1f\n      and\n      dup3\n      add\n      swap2\n    tag_94:\n      pop\n      pop\n      pop\n      pop\n      pop\n      swap1\n      pop\n      jump(tag_65)\n        /* \"MiniProject.sol\":1218:1483  if (status == Status.Delivered) {... */\n    tag_88:\n        /* \"MiniProject.sol\":1390:1411  Status_set(\"pending\") */\n      0xe18822188b13ea789744bb656325800d3b5025b3d956e508917ed2a260b33a8d\n      mload(0x40)\n      tag_98\n      swap1\n      tag_99\n      jump\t// in\n    tag_98:\n      mload(0x40)\n      dup1\n      swap2\n      sub\n      swap1\n      log1\n        /* \"MiniProject.sol\":1425:1444  message = \"pending\" */\n      mload(0x40)\n      dup1\n      0x40\n      add\n      0x40\n      mstore\n      dup1\n      0x07\n      dup2\n      mstore\n      0x20\n      add\n      0x70656e64696e6700000000000000000000000000000000000000000000000000\n      dup2\n      mstore\n      pop\n        /* \"MiniProject.sol\":1425:1432  message */\n      0x03\n        /* \"MiniProject.sol\":1425:1444  message = \"pending\" */\n      swap1\n      dup2\n      tag_100\n      swap2\n      swap1\n      tag_76\n      jump\t// in\n    tag_100:\n      pop\n        /* \"MiniProject.sol\":1465:1472  message */\n      0x03\n        /* \"MiniProject.sol\":1458:1472  return message */\n      dup1\n      sload\n      tag_101\n      swap1\n      tag_78\n      jump\t// in\n    tag_101:\n      dup1\n      0x1f\n      add\n      0x20\n      dup1\n      swap2\n      div\n      mul\n      0x20\n      add\n      mload(0x40)\n      swap1\n      dup2\n      add\n      0x40\n      mstore\n      dup1\n      swap3\n      swap2\n      swap1\n      dup2\n      dup2\n      mstore\n      0x20\n      add\n      dup3\n      dup1\n      sload\n      tag_102\n      swap1\n      tag_78\n      jump\t// in\n    tag_102:\n      dup1\n      iszero\n      tag_103\n      jumpi\n      dup1\n      0x1f\n      lt\n      tag_104\n      jumpi\n      0x0100\n      dup1\n      dup4\n      sload\n      div\n      mul\n      dup4\n      mstore\n      swap2\n      0x20\n      add\n      swap2\n      jump(tag_103)\n    tag_104:\n      dup3\n      add\n      swap2\n      swap1\n      0x00\n      mstore\n      keccak256(0x00, 0x20)\n      swap1\n    tag_105:\n      dup2\n      sload\n      dup2\n      mstore\n      swap1\n      0x01\n      add\n      swap1\n      0x20\n      add\n      dup1\n      dup4\n      gt\n      tag_105\n      jumpi\n      dup3\n      swap1\n      sub\n      0x1f\n      and\n      dup3\n      add\n      swap2\n    tag_103:\n      pop\n      pop\n      pop\n      pop\n      pop\n      swap1\n      pop\n        /* \"MiniProject.sol\":749:750  _ */\n    tag_65:\n        /* \"MiniProject.sol\":919:1489  function set_status(Status x)... */\n      swap2\n      swap1\n      pop\n      jump\t// out\n        /* \"MiniProject.sol\":86:106  address public owner */\n    tag_31:\n      0x00\n      dup1\n      sload\n      swap1\n      0x0100\n      exp\n      swap1\n      div\n      0xffffffffffffffffffffffffffffffffffffffff\n      and\n      dup2\n      jump\t// out\n        /* \"MiniProject.sol\":1667:1938  function Owner_ship() public only_owner balance_checker {... */\n    tag_35:\n        /* \"MiniProject.sol\":440:450  msg.sender */\n      caller\n        /* \"MiniProject.sol\":431:450  owner == msg.sender */\n      0xffffffffffffffffffffffffffffffffffffffff\n      and\n        /* \"MiniProject.sol\":431:436  owner */\n      0x00\n      dup1\n      sload\n      swap1\n      0x0100\n      exp\n      swap1\n      div\n      0xffffffffffffffffffffffffffffffffffffffff\n      and\n        /* \"MiniProject.sol\":431:450  owner == msg.sender */\n      0xffffffffffffffffffffffffffffffffffffffff\n      and\n      eq\n        /* \"MiniProject.sol\":423:464  require(owner == msg.sender, \"Not Owner\") */\n      tag_107\n      jumpi\n      mload(0x40)\n      0x08c379a000000000000000000000000000000000000000000000000000000000\n      dup2\n      mstore\n      0x04\n      add\n      tag_108\n      swap1\n      tag_55\n      jump\t// in\n    tag_108:\n      mload(0x40)\n      dup1\n      swap2\n      sub\n      swap1\n      revert\n    tag_107:\n        /* \"MiniProject.sol\":542:549  1 ether */\n      0x0de0b6b3a7640000\n        /* \"MiniProject.sol\":532:538  amount */\n      sload(0x02)\n        /* \"MiniProject.sol\":532:549  amount >= 1 ether */\n      lt\n      iszero\n        /* \"MiniProject.sol\":524:574  require(amount >= 1 ether, \"Insufficient Balance\") */\n      tag_110\n      jumpi\n      mload(0x40)\n      0x08c379a000000000000000000000000000000000000000000000000000000000\n      dup2\n      mstore\n      0x04\n      add\n      tag_111\n      swap1\n      tag_112\n      jump\t// in\n    tag_111:\n      mload(0x40)\n      dup1\n      swap2\n      sub\n      swap1\n      revert\n    tag_110:\n        /* \"MiniProject.sol\":1747:1754  1 ether */\n      0x0de0b6b3a7640000\n        /* \"MiniProject.sol\":1737:1743  amount */\n      sload(0x02)\n        /* \"MiniProject.sol\":1737:1754  amount >= 1 ether */\n      lt\n        /* \"MiniProject.sol\":1733:1932  if (amount >= 1 ether) {... */\n      tag_114\n      jumpi\n        /* \"MiniProject.sol\":1782:1824  0x78731D3Ca6b7E34aC0F824c42a7cC18A495cabaB */\n      0x78731d3ca6b7e34ac0f824c42a7cc18a495cabab\n        /* \"MiniProject.sol\":1770:1779  new_owner */\n      0x01\n      0x00\n        /* \"MiniProject.sol\":1770:1824  new_owner = 0x78731D3Ca6b7E34aC0F824c42a7cC18A495cabaB */\n      0x0100\n      exp\n      dup2\n      sload\n      dup2\n      0xffffffffffffffffffffffffffffffffffffffff\n      mul\n      not\n      and\n      swap1\n      dup4\n      0xffffffffffffffffffffffffffffffffffffffff\n      and\n      mul\n      or\n      swap1\n      sstore\n      pop\n        /* \"MiniProject.sol\":1847:1861  Status.Pending */\n      0x01\n        /* \"MiniProject.sol\":1838:1844  status */\n      0x04\n      0x00\n        /* \"MiniProject.sol\":1838:1861  status = Status.Pending */\n      0x0100\n      exp\n      dup2\n      sload\n      dup2\n      0xff\n      mul\n      not\n      and\n      swap1\n      dup4\n      0x03\n      dup2\n      gt\n      iszero\n      tag_115\n      jumpi\n      tag_116\n      tag_59\n      jump\t// in\n    tag_116:\n    tag_115:\n      mul\n      or\n      swap1\n      sstore\n      pop\n        /* \"MiniProject.sol\":1875:1921  message = \"Order Has Been Placed Successfully\" */\n      mload(0x40)\n      dup1\n      0x60\n      add\n      0x40\n      mstore\n      dup1\n      0x22\n      dup2\n      mstore\n      0x20\n      add\n      data_96dfabbf07d0c6a780e51fb0d2039d68e0c52ce84c414db1c1d50292fb2d54f7\n      0x22\n      swap2\n      codecopy\n        /* \"MiniProject.sol\":1875:1882  message */\n      0x03\n        /* \"MiniProject.sol\":1875:1921  message = \"Order Has Been Placed Successfully\" */\n      swap1\n      dup2\n      tag_117\n      swap2\n      swap1\n      tag_76\n      jump\t// in\n    tag_117:\n      pop\n        /* \"MiniProject.sol\":1733:1932  if (amount >= 1 ether) {... */\n    tag_114:\n        /* \"MiniProject.sol\":1667:1938  function Owner_ship() public only_owner balance_checker {... */\n      jump\t// out\n        /* \"MiniProject.sol\":142:163  uint256 public amount */\n    tag_38:\n      sload(0x02)\n      dup2\n      jump\t// out\n        /* \"MiniProject.sol\":1540:1661  function update_balance() public returns (uint256) {... */\n    tag_43:\n        /* \"MiniProject.sol\":1582:1589  uint256 */\n      0x00\n        /* \"MiniProject.sol\":1610:1631  address(this).balance */\n      selfbalance\n        /* \"MiniProject.sol\":1601:1607  amount */\n      0x02\n        /* \"MiniProject.sol\":1601:1631  amount = address(this).balance */\n      dup2\n      swap1\n      sstore\n      pop\n        /* \"MiniProject.sol\":1648:1654  amount */\n      sload(0x02)\n        /* \"MiniProject.sol\":1641:1654  return amount */\n      swap1\n      pop\n        /* \"MiniProject.sol\":1540:1661  function update_balance() public returns (uint256) {... */\n      swap1\n      jump\t// out\n        /* \"MiniProject.sol\":170:203  string public message = \"Welcome\" */\n    tag_47:\n      0x03\n      dup1\n      sload\n      tag_119\n      swap1\n      tag_78\n      jump\t// in\n    tag_119:\n      dup1\n      0x1f\n      add\n      0x20\n      dup1\n      swap2\n      div\n      mul\n      0x20\n      add\n      mload(0x40)\n      swap1\n      dup2\n      add\n      0x40\n      mstore\n      dup1\n      swap3\n      swap2\n      swap1\n      dup2\n      dup2\n      mstore\n      0x20\n      add\n      dup3\n      dup1\n      sload\n      tag_120\n      swap1\n      tag_78\n      jump\t// in\n    tag_120:\n      dup1\n      iszero\n      tag_121\n      jumpi\n      dup1\n      0x1f\n      lt\n      tag_122\n      jumpi\n      0x0100\n      dup1\n      dup4\n      sload\n      div\n      mul\n      dup4\n      mstore\n      swap2\n      0x20\n      add\n      swap2\n      jump(tag_121)\n    tag_122:\n      dup3\n      add\n      swap2\n      swap1\n      0x00\n      mstore\n      keccak256(0x00, 0x20)\n      swap1\n    tag_123:\n      dup2\n      sload\n      dup2\n      mstore\n      swap1\n      0x01\n      add\n      swap1\n      0x20\n      add\n      dup1\n      dup4\n      gt\n      tag_123\n      jumpi\n      dup3\n      swap1\n      sub\n      0x1f\n      and\n      dup3\n      add\n      swap2\n    tag_121:\n      pop\n      pop\n      pop\n      pop\n      pop\n      dup2\n      jump\t// out\n        /* \"MiniProject.sol\":1495:1534  function Get_amount() public payable {} */\n    tag_50:\n      jump\t// out\n        /* \"#utility.yul\":7:187   */\n    tag_59:\n        /* \"#utility.yul\":55:132   */\n      0x4e487b7100000000000000000000000000000000000000000000000000000000\n        /* \"#utility.yul\":52:53   */\n      0x00\n        /* \"#utility.yul\":45:133   */\n      mstore\n        /* \"#utility.yul\":152:156   */\n      0x21\n        /* \"#utility.yul\":149:150   */\n      0x04\n        /* \"#utility.yul\":142:157   */\n      mstore\n        /* \"#utility.yul\":176:180   */\n      0x24\n        /* \"#utility.yul\":173:174   */\n      0x00\n        /* \"#utility.yul\":166:181   */\n      revert\n        /* \"#utility.yul\":193:307   */\n    tag_125:\n        /* \"#utility.yul\":275:276   */\n      0x04\n        /* \"#utility.yul\":268:273   */\n      dup2\n        /* \"#utility.yul\":265:277   */\n      lt\n        /* \"#utility.yul\":255:301   */\n      tag_176\n      jumpi\n        /* \"#utility.yul\":281:299   */\n      tag_177\n      tag_59\n      jump\t// in\n    tag_177:\n        /* \"#utility.yul\":255:301   */\n    tag_176:\n        /* \"#utility.yul\":193:307   */\n      pop\n      jump\t// out\n        /* \"#utility.yul\":313:442   */\n    tag_126:\n        /* \"#utility.yul\":359:366   */\n      0x00\n        /* \"#utility.yul\":388:393   */\n      dup2\n        /* \"#utility.yul\":377:393   */\n      swap1\n      pop\n        /* \"#utility.yul\":394:436   */\n      tag_179\n        /* \"#utility.yul\":430:435   */\n      dup3\n        /* \"#utility.yul\":394:436   */\n      tag_125\n      jump\t// in\n    tag_179:\n        /* \"#utility.yul\":313:442   */\n      swap2\n      swap1\n      pop\n      jump\t// out\n        /* \"#utility.yul\":448:577   */\n    tag_127:\n        /* \"#utility.yul\":505:514   */\n      0x00\n        /* \"#utility.yul\":538:571   */\n      tag_181\n        /* \"#utility.yul\":565:570   */\n      dup3\n        /* \"#utility.yul\":538:571   */\n      tag_126\n      jump\t// in\n    tag_181:\n        /* \"#utility.yul\":525:571   */\n      swap1\n      pop\n        /* \"#utility.yul\":448:577   */\n      swap2\n      swap1\n      pop\n      jump\t// out\n        /* \"#utility.yul\":583:728   */\n    tag_128:\n        /* \"#utility.yul\":677:721   */\n      tag_183\n        /* \"#utility.yul\":715:720   */\n      dup2\n        /* \"#utility.yul\":677:721   */\n      tag_127\n      jump\t// in\n    tag_183:\n        /* \"#utility.yul\":672:675   */\n      dup3\n        /* \"#utility.yul\":665:722   */\n      mstore\n        /* \"#utility.yul\":583:728   */\n      pop\n      pop\n      jump\t// out\n        /* \"#utility.yul\":734:970   */\n    tag_16:\n        /* \"#utility.yul\":834:838   */\n      0x00\n        /* \"#utility.yul\":872:874   */\n      0x20\n        /* \"#utility.yul\":861:870   */\n      dup3\n        /* \"#utility.yul\":857:875   */\n      add\n        /* \"#utility.yul\":849:875   */\n      swap1\n      pop\n        /* \"#utility.yul\":885:963   */\n      tag_185\n        /* \"#utility.yul\":960:961   */\n      0x00\n        /* \"#utility.yul\":949:958   */\n      dup4\n        /* \"#utility.yul\":945:962   */\n      add\n        /* \"#utility.yul\":936:942   */\n      dup5\n        /* \"#utility.yul\":885:963   */\n      tag_128\n      jump\t// in\n    tag_185:\n        /* \"#utility.yul\":734:970   */\n      swap3\n      swap2\n      pop\n      pop\n      jump\t// out\n        /* \"#utility.yul\":976:1102   */\n    tag_129:\n        /* \"#utility.yul\":1013:1020   */\n      0x00\n        /* \"#utility.yul\":1053:1095   */\n      0xffffffffffffffffffffffffffffffffffffffff\n        /* \"#utility.yul\":1046:1051   */\n      dup3\n        /* \"#utility.yul\":1042:1096   */\n      and\n        /* \"#utility.yul\":1031:1096   */\n      swap1\n      pop\n        /* \"#utility.yul\":976:1102   */\n      swap2\n      swap1\n      pop\n      jump\t// out\n        /* \"#utility.yul\":1108:1204   */\n    tag_130:\n        /* \"#utility.yul\":1145:1152   */\n      0x00\n        /* \"#utility.yul\":1174:1198   */\n      tag_188\n        /* \"#utility.yul\":1192:1197   */\n      dup3\n        /* \"#utility.yul\":1174:1198   */\n      tag_129\n      jump\t// in\n    tag_188:\n        /* \"#utility.yul\":1163:1198   */\n      swap1\n      pop\n        /* \"#utility.yul\":1108:1204   */\n      swap2\n      swap1\n      pop\n      jump\t// out\n        /* \"#utility.yul\":1210:1328   */\n    tag_131:\n        /* \"#utility.yul\":1297:1321   */\n      tag_190\n        /* \"#utility.yul\":1315:1320   */\n      dup2\n        /* \"#utility.yul\":1297:1321   */\n      tag_130\n      jump\t// in\n    tag_190:\n        /* \"#utility.yul\":1292:1295   */\n      dup3\n        /* \"#utility.yul\":1285:1322   */\n      mstore\n        /* \"#utility.yul\":1210:1328   */\n      pop\n      pop\n      jump\t// out\n        /* \"#utility.yul\":1334:1556   */\n    tag_21:\n        /* \"#utility.yul\":1427:1431   */\n      0x00\n        /* \"#utility.yul\":1465:1467   */\n      0x20\n        /* \"#utility.yul\":1454:1463   */\n      dup3\n        /* \"#utility.yul\":1450:1468   */\n      add\n        /* \"#utility.yul\":1442:1468   */\n      swap1\n      pop\n        /* \"#utility.yul\":1478:1549   */\n      tag_192\n        /* \"#utility.yul\":1546:1547   */\n      0x00\n        /* \"#utility.yul\":1535:1544   */\n      dup4\n        /* \"#utility.yul\":1531:1548   */\n      add\n        /* \"#utility.yul\":1522:1528   */\n      dup5\n        /* \"#utility.yul\":1478:1549   */\n      tag_131\n      jump\t// in\n    tag_192:\n        /* \"#utility.yul\":1334:1556   */\n      swap3\n      swap2\n      pop\n      pop\n      jump\t// out\n        /* \"#utility.yul\":1643:1760   */\n    tag_133:\n        /* \"#utility.yul\":1752:1753   */\n      0x00\n        /* \"#utility.yul\":1749:1750   */\n      dup1\n        /* \"#utility.yul\":1742:1754   */\n      revert\n        /* \"#utility.yul\":1889:1997   */\n    tag_135:\n        /* \"#utility.yul\":1971:1972   */\n      0x04\n        /* \"#utility.yul\":1964:1969   */\n      dup2\n        /* \"#utility.yul\":1961:1973   */\n      lt\n        /* \"#utility.yul\":1951:1991   */\n      tag_197\n      jumpi\n        /* \"#utility.yul\":1987:1988   */\n      0x00\n        /* \"#utility.yul\":1984:1985   */\n      dup1\n        /* \"#utility.yul\":1977:1989   */\n      revert\n        /* \"#utility.yul\":1951:1991   */\n    tag_197:\n        /* \"#utility.yul\":1889:1997   */\n      pop\n      jump\t// out\n        /* \"#utility.yul\":2003:2160   */\n    tag_136:\n        /* \"#utility.yul\":2058:2063   */\n      0x00\n        /* \"#utility.yul\":2096:2102   */\n      dup2\n        /* \"#utility.yul\":2083:2103   */\n      calldataload\n        /* \"#utility.yul\":2074:2103   */\n      swap1\n      pop\n        /* \"#utility.yul\":2112:2154   */\n      tag_199\n        /* \"#utility.yul\":2148:2153   */\n      dup2\n        /* \"#utility.yul\":2112:2154   */\n      tag_135\n      jump\t// in\n    tag_199:\n        /* \"#utility.yul\":2003:2160   */\n      swap3\n      swap2\n      pop\n      pop\n      jump\t// out\n        /* \"#utility.yul\":2166:2513   */\n    tag_25:\n        /* \"#utility.yul\":2234:2240   */\n      0x00\n        /* \"#utility.yul\":2283:2285   */\n      0x20\n        /* \"#utility.yul\":2271:2280   */\n      dup3\n        /* \"#utility.yul\":2262:2269   */\n      dup5\n        /* \"#utility.yul\":2258:2281   */\n      sub\n        /* \"#utility.yul\":2254:2286   */\n      slt\n        /* \"#utility.yul\":2251:2370   */\n      iszero\n      tag_201\n      jumpi\n        /* \"#utility.yul\":2289:2368   */\n      tag_202\n      tag_133\n      jump\t// in\n    tag_202:\n        /* \"#utility.yul\":2251:2370   */\n    tag_201:\n        /* \"#utility.yul\":2409:2410   */\n      0x00\n        /* \"#utility.yul\":2434:2496   */\n      tag_203\n        /* \"#utility.yul\":2488:2495   */\n      dup5\n        /* \"#utility.yul\":2479:2485   */\n      dup3\n        /* \"#utility.yul\":2468:2477   */\n      dup6\n        /* \"#utility.yul\":2464:2486   */\n      add\n        /* \"#utility.yul\":2434:2496   */\n      tag_136\n      jump\t// in\n    tag_203:\n        /* \"#utility.yul\":2424:2496   */\n      swap2\n      pop\n        /* \"#utility.yul\":2380:2506   */\n      pop\n        /* \"#utility.yul\":2166:2513   */\n      swap3\n      swap2\n      pop\n      pop\n      jump\t// out\n        /* \"#utility.yul\":2519:2618   */\n    tag_137:\n        /* \"#utility.yul\":2571:2577   */\n      0x00\n        /* \"#utility.yul\":2605:2610   */\n      dup2\n        /* \"#utility.yul\":2599:2611   */\n      mload\n        /* \"#utility.yul\":2589:2611   */\n      swap1\n      pop\n        /* \"#utility.yul\":2519:2618   */\n      swap2\n      swap1\n      pop\n      jump\t// out\n        /* \"#utility.yul\":2624:2793   */\n    tag_138:\n        /* \"#utility.yul\":2708:2719   */\n      0x00\n        /* \"#utility.yul\":2742:2748   */\n      dup3\n        /* \"#utility.yul\":2737:2740   */\n      dup3\n        /* \"#utility.yul\":2730:2749   */\n      mstore\n        /* \"#utility.yul\":2782:2786   */\n      0x20\n        /* \"#utility.yul\":2777:2780   */\n      dup3\n        /* \"#utility.yul\":2773:2787   */\n      add\n        /* \"#utility.yul\":2758:2787   */\n      swap1\n      pop\n        /* \"#utility.yul\":2624:2793   */\n      swap3\n      swap2\n      pop\n      pop\n      jump\t// out\n        /* \"#utility.yul\":2799:2938   */\n    tag_139:\n        /* \"#utility.yul\":2888:2894   */\n      dup3\n        /* \"#utility.yul\":2883:2886   */\n      dup2\n        /* \"#utility.yul\":2878:2881   */\n      dup4\n        /* \"#utility.yul\":2872:2895   */\n      mcopy\n        /* \"#utility.yul\":2929:2930   */\n      0x00\n        /* \"#utility.yul\":2920:2926   */\n      dup4\n        /* \"#utility.yul\":2915:2918   */\n      dup4\n        /* \"#utility.yul\":2911:2927   */\n      add\n        /* \"#utility.yul\":2904:2931   */\n      mstore\n        /* \"#utility.yul\":2799:2938   */\n      pop\n      pop\n      pop\n      jump\t// out\n        /* \"#utility.yul\":2944:3046   */\n    tag_140:\n        /* \"#utility.yul\":2985:2991   */\n      0x00\n        /* \"#utility.yul\":3036:3038   */\n      0x1f\n        /* \"#utility.yul\":3032:3039   */\n      not\n        /* \"#utility.yul\":3027:3029   */\n      0x1f\n        /* \"#utility.yul\":3020:3025   */\n      dup4\n        /* \"#utility.yul\":3016:3030   */\n      add\n        /* \"#utility.yul\":3012:3040   */\n      and\n        /* \"#utility.yul\":3002:3040   */\n      swap1\n      pop\n        /* \"#utility.yul\":2944:3046   */\n      swap2\n      swap1\n      pop\n      jump\t// out\n        /* \"#utility.yul\":3052:3429   */\n    tag_141:\n        /* \"#utility.yul\":3140:3143   */\n      0x00\n        /* \"#utility.yul\":3168:3207   */\n      tag_209\n        /* \"#utility.yul\":3201:3206   */\n      dup3\n        /* \"#utility.yul\":3168:3207   */\n      tag_137\n      jump\t// in\n    tag_209:\n        /* \"#utility.yul\":3223:3294   */\n      tag_210\n        /* \"#utility.yul\":3287:3293   */\n      dup2\n        /* \"#utility.yul\":3282:3285   */\n      dup6\n        /* \"#utility.yul\":3223:3294   */\n      tag_138\n      jump\t// in\n    tag_210:\n        /* \"#utility.yul\":3216:3294   */\n      swap4\n      pop\n        /* \"#utility.yul\":3303:3368   */\n      tag_211\n        /* \"#utility.yul\":3361:3367   */\n      dup2\n        /* \"#utility.yul\":3356:3359   */\n      dup6\n        /* \"#utility.yul\":3349:3353   */\n      0x20\n        /* \"#utility.yul\":3342:3347   */\n      dup7\n        /* \"#utility.yul\":3338:3354   */\n      add\n        /* \"#utility.yul\":3303:3368   */\n      tag_139\n      jump\t// in\n    tag_211:\n        /* \"#utility.yul\":3393:3422   */\n      tag_212\n        /* \"#utility.yul\":3415:3421   */\n      dup2\n        /* \"#utility.yul\":3393:3422   */\n      tag_140\n      jump\t// in\n    tag_212:\n        /* \"#utility.yul\":3388:3391   */\n      dup5\n        /* \"#utility.yul\":3384:3423   */\n      add\n        /* \"#utility.yul\":3377:3423   */\n      swap2\n      pop\n        /* \"#utility.yul\":3144:3429   */\n      pop\n        /* \"#utility.yul\":3052:3429   */\n      swap3\n      swap2\n      pop\n      pop\n      jump\t// out\n        /* \"#utility.yul\":3435:3748   */\n    tag_28:\n        /* \"#utility.yul\":3548:3552   */\n      0x00\n        /* \"#utility.yul\":3586:3588   */\n      0x20\n        /* \"#utility.yul\":3575:3584   */\n      dup3\n        /* \"#utility.yul\":3571:3589   */\n      add\n        /* \"#utility.yul\":3563:3589   */\n      swap1\n      pop\n        /* \"#utility.yul\":3635:3644   */\n      dup2\n        /* \"#utility.yul\":3629:3633   */\n      dup2\n        /* \"#utility.yul\":3625:3645   */\n      sub\n        /* \"#utility.yul\":3621:3622   */\n      0x00\n        /* \"#utility.yul\":3610:3619   */\n      dup4\n        /* \"#utility.yul\":3606:3623   */\n      add\n        /* \"#utility.yul\":3599:3646   */\n      mstore\n        /* \"#utility.yul\":3663:3741   */\n      tag_214\n        /* \"#utility.yul\":3736:3740   */\n      dup2\n        /* \"#utility.yul\":3727:3733   */\n      dup5\n        /* \"#utility.yul\":3663:3741   */\n      tag_141\n      jump\t// in\n    tag_214:\n        /* \"#utility.yul\":3655:3741   */\n      swap1\n      pop\n        /* \"#utility.yul\":3435:3748   */\n      swap3\n      swap2\n      pop\n      pop\n      jump\t// out\n        /* \"#utility.yul\":3754:3831   */\n    tag_142:\n        /* \"#utility.yul\":3791:3798   */\n      0x00\n        /* \"#utility.yul\":3820:3825   */\n      dup2\n        /* \"#utility.yul\":3809:3825   */\n      swap1\n      pop\n        /* \"#utility.yul\":3754:3831   */\n      swap2\n      swap1\n      pop\n      jump\t// out\n        /* \"#utility.yul\":3837:3955   */\n    tag_143:\n        /* \"#utility.yul\":3924:3948   */\n      tag_217\n        /* \"#utility.yul\":3942:3947   */\n      dup2\n        /* \"#utility.yul\":3924:3948   */\n      tag_142\n      jump\t// in\n    tag_217:\n        /* \"#utility.yul\":3919:3922   */\n      dup3\n        /* \"#utility.yul\":3912:3949   */\n      mstore\n        /* \"#utility.yul\":3837:3955   */\n      pop\n      pop\n      jump\t// out\n        /* \"#utility.yul\":3961:4183   */\n    tag_40:\n        /* \"#utility.yul\":4054:4058   */\n      0x00\n        /* \"#utility.yul\":4092:4094   */\n      0x20\n        /* \"#utility.yul\":4081:4090   */\n      dup3\n        /* \"#utility.yul\":4077:4095   */\n      add\n        /* \"#utility.yul\":4069:4095   */\n      swap1\n      pop\n        /* \"#utility.yul\":4105:4176   */\n      tag_219\n        /* \"#utility.yul\":4173:4174   */\n      0x00\n        /* \"#utility.yul\":4162:4171   */\n      dup4\n        /* \"#utility.yul\":4158:4175   */\n      add\n        /* \"#utility.yul\":4149:4155   */\n      dup5\n        /* \"#utility.yul\":4105:4176   */\n      tag_143\n      jump\t// in\n    tag_219:\n        /* \"#utility.yul\":3961:4183   */\n      swap3\n      swap2\n      pop\n      pop\n      jump\t// out\n        /* \"#utility.yul\":4189:4348   */\n    tag_144:\n        /* \"#utility.yul\":4329:4340   */\n      0x4e6f74204f776e65720000000000000000000000000000000000000000000000\n        /* \"#utility.yul\":4325:4326   */\n      0x00\n        /* \"#utility.yul\":4317:4323   */\n      dup3\n        /* \"#utility.yul\":4313:4327   */\n      add\n        /* \"#utility.yul\":4306:4341   */\n      mstore\n        /* \"#utility.yul\":4189:4348   */\n      pop\n      jump\t// out\n        /* \"#utility.yul\":4354:4719   */\n    tag_145:\n        /* \"#utility.yul\":4496:4499   */\n      0x00\n        /* \"#utility.yul\":4517:4583   */\n      tag_222\n        /* \"#utility.yul\":4581:4582   */\n      0x09\n        /* \"#utility.yul\":4576:4579   */\n      dup4\n        /* \"#utility.yul\":4517:4583   */\n      tag_138\n      jump\t// in\n    tag_222:\n        /* \"#utility.yul\":4510:4583   */\n      swap2\n      pop\n        /* \"#utility.yul\":4592:4685   */\n      tag_223\n        /* \"#utility.yul\":4681:4684   */\n      dup3\n        /* \"#utility.yul\":4592:4685   */\n      tag_144\n      jump\t// in\n    tag_223:\n        /* \"#utility.yul\":4710:4712   */\n      0x20\n        /* \"#utility.yul\":4705:4708   */\n      dup3\n        /* \"#utility.yul\":4701:4713   */\n      add\n        /* \"#utility.yul\":4694:4713   */\n      swap1\n      pop\n        /* \"#utility.yul\":4354:4719   */\n      swap2\n      swap1\n      pop\n      jump\t// out\n        /* \"#utility.yul\":4725:5144   */\n    tag_55:\n        /* \"#utility.yul\":4891:4895   */\n      0x00\n        /* \"#utility.yul\":4929:4931   */\n      0x20\n        /* \"#utility.yul\":4918:4927   */\n      dup3\n        /* \"#utility.yul\":4914:4932   */\n      add\n        /* \"#utility.yul\":4906:4932   */\n      swap1\n      pop\n        /* \"#utility.yul\":4978:4987   */\n      dup2\n        /* \"#utility.yul\":4972:4976   */\n      dup2\n        /* \"#utility.yul\":4968:4988   */\n      sub\n        /* \"#utility.yul\":4964:4965   */\n      0x00\n        /* \"#utility.yul\":4953:4962   */\n      dup4\n        /* \"#utility.yul\":4949:4966   */\n      add\n        /* \"#utility.yul\":4942:4989   */\n      mstore\n        /* \"#utility.yul\":5006:5137   */\n      tag_225\n        /* \"#utility.yul\":5132:5136   */\n      dup2\n        /* \"#utility.yul\":5006:5137   */\n      tag_145\n      jump\t// in\n    tag_225:\n        /* \"#utility.yul\":4998:5137   */\n      swap1\n      pop\n        /* \"#utility.yul\":4725:5144   */\n      swap2\n      swap1\n      pop\n      jump\t// out\n        /* \"#utility.yul\":5150:5317   */\n    tag_146:\n        /* \"#utility.yul\":5290:5309   */\n      0x416c72656164792044656c697665726564000000000000000000000000000000\n        /* \"#utility.yul\":5286:5287   */\n      0x00\n        /* \"#utility.yul\":5278:5284   */\n      dup3\n        /* \"#utility.yul\":5274:5288   */\n      add\n        /* \"#utility.yul\":5267:5310   */\n      mstore\n        /* \"#utility.yul\":5150:5317   */\n      pop\n      jump\t// out\n        /* \"#utility.yul\":5323:5689   */\n    tag_147:\n        /* \"#utility.yul\":5465:5468   */\n      0x00\n        /* \"#utility.yul\":5486:5553   */\n      tag_228\n        /* \"#utility.yul\":5550:5552   */\n      0x11\n        /* \"#utility.yul\":5545:5548   */\n      dup4\n        /* \"#utility.yul\":5486:5553   */\n      tag_138\n      jump\t// in\n    tag_228:\n        /* \"#utility.yul\":5479:5553   */\n      swap2\n      pop\n        /* \"#utility.yul\":5562:5655   */\n      tag_229\n        /* \"#utility.yul\":5651:5654   */\n      dup3\n        /* \"#utility.yul\":5562:5655   */\n      tag_146\n      jump\t// in\n    tag_229:\n        /* \"#utility.yul\":5680:5682   */\n      0x20\n        /* \"#utility.yul\":5675:5678   */\n      dup3\n        /* \"#utility.yul\":5671:5683   */\n      add\n        /* \"#utility.yul\":5664:5683   */\n      swap1\n      pop\n        /* \"#utility.yul\":5323:5689   */\n      swap2\n      swap1\n      pop\n      jump\t// out\n        /* \"#utility.yul\":5695:6114   */\n    tag_64:\n        /* \"#utility.yul\":5861:5865   */\n      0x00\n        /* \"#utility.yul\":5899:5901   */\n      0x20\n        /* \"#utility.yul\":5888:5897   */\n      dup3\n        /* \"#utility.yul\":5884:5902   */\n      add\n        /* \"#utility.yul\":5876:5902   */\n      swap1\n      pop\n        /* \"#utility.yul\":5948:5957   */\n      dup2\n        /* \"#utility.yul\":5942:5946   */\n      dup2\n        /* \"#utility.yul\":5938:5958   */\n      sub\n        /* \"#utility.yul\":5934:5935   */\n      0x00\n        /* \"#utility.yul\":5923:5932   */\n      dup4\n        /* \"#utility.yul\":5919:5936   */\n      add\n        /* \"#utility.yul\":5912:5959   */\n      mstore\n        /* \"#utility.yul\":5976:6107   */\n      tag_231\n        /* \"#utility.yul\":6102:6106   */\n      dup2\n        /* \"#utility.yul\":5976:6107   */\n      tag_147\n      jump\t// in\n    tag_231:\n        /* \"#utility.yul\":5968:6107   */\n      swap1\n      pop\n        /* \"#utility.yul\":5695:6114   */\n      swap2\n      swap1\n      pop\n      jump\t// out\n        /* \"#utility.yul\":6120:6277   */\n    tag_148:\n        /* \"#utility.yul\":6260:6269   */\n      0x5368697070656400000000000000000000000000000000000000000000000000\n        /* \"#utility.yul\":6256:6257   */\n      0x00\n        /* \"#utility.yul\":6248:6254   */\n      dup3\n        /* \"#utility.yul\":6244:6258   */\n      add\n        /* \"#utility.yul\":6237:6270   */\n      mstore\n        /* \"#utility.yul\":6120:6277   */\n      pop\n      jump\t// out\n        /* \"#utility.yul\":6283:6648   */\n    tag_149:\n        /* \"#utility.yul\":6425:6428   */\n      0x00\n        /* \"#utility.yul\":6446:6512   */\n      tag_234\n        /* \"#utility.yul\":6510:6511   */\n      0x07\n        /* \"#utility.yul\":6505:6508   */\n      dup4\n        /* \"#utility.yul\":6446:6512   */\n      tag_138\n      jump\t// in\n    tag_234:\n        /* \"#utility.yul\":6439:6512   */\n      swap2\n      pop\n        /* \"#utility.yul\":6521:6614   */\n      tag_235\n        /* \"#utility.yul\":6610:6613   */\n      dup3\n        /* \"#utility.yul\":6521:6614   */\n      tag_148\n      jump\t// in\n    tag_235:\n        /* \"#utility.yul\":6639:6641   */\n      0x20\n        /* \"#utility.yul\":6634:6637   */\n      dup3\n        /* \"#utility.yul\":6630:6642   */\n      add\n        /* \"#utility.yul\":6623:6642   */\n      swap1\n      pop\n        /* \"#utility.yul\":6283:6648   */\n      swap2\n      swap1\n      pop\n      jump\t// out\n        /* \"#utility.yul\":6654:7073   */\n    tag_74:\n        /* \"#utility.yul\":6820:6824   */\n      0x00\n        /* \"#utility.yul\":6858:6860   */\n      0x20\n        /* \"#utility.yul\":6847:6856   */\n      dup3\n        /* \"#utility.yul\":6843:6861   */\n      add\n        /* \"#utility.yul\":6835:6861   */\n      swap1\n      pop\n        /* \"#utility.yul\":6907:6916   */\n      dup2\n        /* \"#utility.yul\":6901:6905   */\n      dup2\n        /* \"#utility.yul\":6897:6917   */\n      sub\n        /* \"#utility.yul\":6893:6894   */\n      0x00\n        /* \"#utility.yul\":6882:6891   */\n      dup4\n        /* \"#utility.yul\":6878:6895   */\n      add\n        /* \"#utility.yul\":6871:6918   */\n      mstore\n        /* \"#utility.yul\":6935:7066   */\n      tag_237\n        /* \"#utility.yul\":7061:7065   */\n      dup2\n        /* \"#utility.yul\":6935:7066   */\n      tag_149\n      jump\t// in\n    tag_237:\n        /* \"#utility.yul\":6927:7066   */\n      swap1\n      pop\n        /* \"#utility.yul\":6654:7073   */\n      swap2\n      swap1\n      pop\n      jump\t// out\n        /* \"#utility.yul\":7079:7259   */\n    tag_150:\n        /* \"#utility.yul\":7127:7204   */\n      0x4e487b7100000000000000000000000000000000000000000000000000000000\n        /* \"#utility.yul\":7124:7125   */\n      0x00\n        /* \"#utility.yul\":7117:7205   */\n      mstore\n        /* \"#utility.yul\":7224:7228   */\n      0x41\n        /* \"#utility.yul\":7221:7222   */\n      0x04\n        /* \"#utility.yul\":7214:7229   */\n      mstore\n        /* \"#utility.yul\":7248:7252   */\n      0x24\n        /* \"#utility.yul\":7245:7246   */\n      0x00\n        /* \"#utility.yul\":7238:7253   */\n      revert\n        /* \"#utility.yul\":7265:7445   */\n    tag_151:\n        /* \"#utility.yul\":7313:7390   */\n      0x4e487b7100000000000000000000000000000000000000000000000000000000\n        /* \"#utility.yul\":7310:7311   */\n      0x00\n        /* \"#utility.yul\":7303:7391   */\n      mstore\n        /* \"#utility.yul\":7410:7414   */\n      0x22\n        /* \"#utility.yul\":7407:7408   */\n      0x04\n        /* \"#utility.yul\":7400:7415   */\n      mstore\n        /* \"#utility.yul\":7434:7438   */\n      0x24\n        /* \"#utility.yul\":7431:7432   */\n      0x00\n        /* \"#utility.yul\":7424:7439   */\n      revert\n        /* \"#utility.yul\":7451:7771   */\n    tag_78:\n        /* \"#utility.yul\":7495:7501   */\n      0x00\n        /* \"#utility.yul\":7532:7533   */\n      0x02\n        /* \"#utility.yul\":7526:7530   */\n      dup3\n        /* \"#utility.yul\":7522:7534   */\n      div\n        /* \"#utility.yul\":7512:7534   */\n      swap1\n      pop\n        /* \"#utility.yul\":7579:7580   */\n      0x01\n        /* \"#utility.yul\":7573:7577   */\n      dup3\n        /* \"#utility.yul\":7569:7581   */\n      and\n        /* \"#utility.yul\":7600:7618   */\n      dup1\n        /* \"#utility.yul\":7590:7671   */\n      tag_241\n      jumpi\n        /* \"#utility.yul\":7656:7660   */\n      0x7f\n        /* \"#utility.yul\":7648:7654   */\n      dup3\n        /* \"#utility.yul\":7644:7661   */\n      and\n        /* \"#utility.yul\":7634:7661   */\n      swap2\n      pop\n        /* \"#utility.yul\":7590:7671   */\n    tag_241:\n        /* \"#utility.yul\":7718:7720   */\n      0x20\n        /* \"#utility.yul\":7710:7716   */\n      dup3\n        /* \"#utility.yul\":7707:7721   */\n      lt\n        /* \"#utility.yul\":7687:7705   */\n      dup2\n        /* \"#utility.yul\":7684:7722   */\n      sub\n        /* \"#utility.yul\":7681:7765   */\n      tag_242\n      jumpi\n        /* \"#utility.yul\":7737:7755   */\n      tag_243\n      tag_151\n      jump\t// in\n    tag_243:\n        /* \"#utility.yul\":7681:7765   */\n    tag_242:\n        /* \"#utility.yul\":7502:7771   */\n      pop\n        /* \"#utility.yul\":7451:7771   */\n      swap2\n      swap1\n      pop\n      jump\t// out\n        /* \"#utility.yul\":7777:7918   */\n    tag_152:\n        /* \"#utility.yul\":7826:7830   */\n      0x00\n        /* \"#utility.yul\":7849:7852   */\n      dup2\n        /* \"#utility.yul\":7841:7852   */\n      swap1\n      pop\n        /* \"#utility.yul\":7872:7875   */\n      dup2\n        /* \"#utility.yul\":7869:7870   */\n      0x00\n        /* \"#utility.yul\":7862:7876   */\n      mstore\n        /* \"#utility.yul\":7906:7910   */\n      0x20\n        /* \"#utility.yul\":7903:7904   */\n      0x00\n        /* \"#utility.yul\":7893:7911   */\n      keccak256\n        /* \"#utility.yul\":7885:7911   */\n      swap1\n      pop\n        /* \"#utility.yul\":7777:7918   */\n      swap2\n      swap1\n      pop\n      jump\t// out\n        /* \"#utility.yul\":7924:8017   */\n    tag_153:\n        /* \"#utility.yul\":7961:7967   */\n      0x00\n        /* \"#utility.yul\":8008:8010   */\n      0x20\n        /* \"#utility.yul\":8003:8005   */\n      0x1f\n        /* \"#utility.yul\":7996:8001   */\n      dup4\n        /* \"#utility.yul\":7992:8006   */\n      add\n        /* \"#utility.yul\":7988:8011   */\n      div\n        /* \"#utility.yul\":7978:8011   */\n      swap1\n      pop\n        /* \"#utility.yul\":7924:8017   */\n      swap2\n      swap1\n      pop\n      jump\t// out\n        /* \"#utility.yul\":8023:8130   */\n    tag_154:\n        /* \"#utility.yul\":8067:8075   */\n      0x00\n        /* \"#utility.yul\":8117:8122   */\n      dup3\n        /* \"#utility.yul\":8111:8115   */\n      dup3\n        /* \"#utility.yul\":8107:8123   */\n      shl\n        /* \"#utility.yul\":8086:8123   */\n      swap1\n      pop\n        /* \"#utility.yul\":8023:8130   */\n      swap3\n      swap2\n      pop\n      pop\n      jump\t// out\n        /* \"#utility.yul\":8136:8529   */\n    tag_155:\n        /* \"#utility.yul\":8205:8211   */\n      0x00\n        /* \"#utility.yul\":8255:8256   */\n      0x08\n        /* \"#utility.yul\":8243:8253   */\n      dup4\n        /* \"#utility.yul\":8239:8257   */\n      mul\n        /* \"#utility.yul\":8278:8375   */\n      tag_248\n        /* \"#utility.yul\":8308:8374   */\n      0xffffffffffffffffffffffffffffffffffffffffffffffffffffffffffffffff\n        /* \"#utility.yul\":8297:8306   */\n      dup3\n        /* \"#utility.yul\":8278:8375   */\n      tag_154\n      jump\t// in\n    tag_248:\n        /* \"#utility.yul\":8396:8435   */\n      tag_249\n        /* \"#utility.yul\":8426:8434   */\n      dup7\n        /* \"#utility.yul\":8415:8424   */\n      dup4\n        /* \"#utility.yul\":8396:8435   */\n      tag_154\n      jump\t// in\n    tag_249:\n        /* \"#utility.yul\":8384:8435   */\n      swap6\n      pop\n        /* \"#utility.yul\":8468:8472   */\n      dup1\n        /* \"#utility.yul\":8464:8473   */\n      not\n        /* \"#utility.yul\":8457:8462   */\n      dup5\n        /* \"#utility.yul\":8453:8474   */\n      and\n        /* \"#utility.yul\":8444:8474   */\n      swap4\n      pop\n        /* \"#utility.yul\":8517:8521   */\n      dup1\n        /* \"#utility.yul\":8507:8515   */\n      dup7\n        /* \"#utility.yul\":8503:8522   */\n      and\n        /* \"#utility.yul\":8496:8501   */\n      dup5\n        /* \"#utility.yul\":8493:8523   */\n      or\n        /* \"#utility.yul\":8483:8523   */\n      swap3\n      pop\n        /* \"#utility.yul\":8212:8529   */\n      pop\n      pop\n        /* \"#utility.yul\":8136:8529   */\n      swap4\n      swap3\n      pop\n      pop\n      pop\n      jump\t// out\n        /* \"#utility.yul\":8535:8595   */\n    tag_156:\n        /* \"#utility.yul\":8563:8566   */\n      0x00\n        /* \"#utility.yul\":8584:8589   */\n      dup2\n        /* \"#utility.yul\":8577:8589   */\n      swap1\n      pop\n        /* \"#utility.yul\":8535:8595   */\n      swap2\n      swap1\n      pop\n      jump\t// out\n        /* \"#utility.yul\":8601:8743   */\n    tag_157:\n        /* \"#utility.yul\":8651:8660   */\n      0x00\n        /* \"#utility.yul\":8684:8737   */\n      tag_252\n        /* \"#utility.yul\":8702:8736   */\n      tag_253\n        /* \"#utility.yul\":8711:8735   */\n      tag_254\n        /* \"#utility.yul\":8729:8734   */\n      dup5\n        /* \"#utility.yul\":8711:8735   */\n      tag_142\n      jump\t// in\n    tag_254:\n        /* \"#utility.yul\":8702:8736   */\n      tag_156\n      jump\t// in\n    tag_253:\n        /* \"#utility.yul\":8684:8737   */\n      tag_142\n      jump\t// in\n    tag_252:\n        /* \"#utility.yul\":8671:8737   */\n      swap1\n      pop\n        /* \"#utility.yul\":8601:8743   */\n      swap2\n      swap1\n      pop\n      jump\t// out\n        /* \"#utility.yul\":8749:8824   */\n    tag_158:\n        /* \"#utility.yul\":8792:8795   */\n      0x00\n        /* \"#utility.yul\":8813:8818   */\n      dup2\n        /* \"#utility.yul\":8806:8818   */\n      swap1\n      pop\n        /* \"#utility.yul\":8749:8824   */\n      swap2\n      swap1\n      pop\n      jump\t// out\n        /* \"#utility.yul\":8830:9099   */\n    tag_159:\n        /* \"#utility.yul\":8940:8979   */\n      tag_257\n        /* \"#utility.yul\":8971:8978   */\n      dup4\n        /* \"#utility.yul\":8940:8979   */\n      tag_157\n      jump\t// in\n    tag_257:\n        /* \"#utility.yul\":9001:9092   */\n      tag_258\n        /* \"#utility.yul\":9050:9091   */\n      tag_259\n        /* \"#utility.yul\":9074:9090   */\n      dup3\n        /* \"#utility.yul\":9050:9091   */\n      tag_158\n      jump\t// in\n    tag_259:\n        /* \"#utility.yul\":9042:9048   */\n      dup5\n        /* \"#utility.yul\":9035:9039   */\n      dup5\n        /* \"#utility.yul\":9029:9040   */\n      sload\n        /* \"#utility.yul\":9001:9092   */\n      tag_155\n      jump\t// in\n    tag_258:\n        /* \"#utility.yul\":8995:8999   */\n      dup3\n        /* \"#utility.yul\":8988:9093   */\n      sstore\n        /* \"#utility.yul\":8906:9099   */\n      pop\n        /* \"#utility.yul\":8830:9099   */\n      pop\n      pop\n      pop\n      jump\t// out\n        /* \"#utility.yul\":9105:9178   */\n    tag_160:\n        /* \"#utility.yul\":9150:9153   */\n      0x00\n        /* \"#utility.yul\":9105:9178   */\n      swap1\n      jump\t// out\n        /* \"#utility.yul\":9184:9373   */\n    tag_161:\n        /* \"#utility.yul\":9261:9293   */\n      tag_262\n      tag_160\n      jump\t// in\n    tag_262:\n        /* \"#utility.yul\":9302:9367   */\n      tag_263\n        /* \"#utility.yul\":9360:9366   */\n      dup2\n        /* \"#utility.yul\":9352:9358   */\n      dup5\n        /* \"#utility.yul\":9346:9350   */\n      dup5\n        /* \"#utility.yul\":9302:9367   */\n      tag_159\n      jump\t// in\n    tag_263:\n        /* \"#utility.yul\":9237:9373   */\n      pop\n        /* \"#utility.yul\":9184:9373   */\n      pop\n      pop\n      jump\t// out\n        /* \"#utility.yul\":9379:9565   */\n    tag_162:\n        /* \"#utility.yul\":9439:9559   */\n    tag_265:\n        /* \"#utility.yul\":9456:9459   */\n      dup2\n        /* \"#utility.yul\":9449:9454   */\n      dup2\n        /* \"#utility.yul\":9446:9460   */\n      lt\n        /* \"#utility.yul\":9439:9559   */\n      iszero\n      tag_267\n      jumpi\n        /* \"#utility.yul\":9510:9549   */\n      tag_268\n        /* \"#utility.yul\":9547:9548   */\n      0x00\n        /* \"#utility.yul\":9540:9545   */\n      dup3\n        /* \"#utility.yul\":9510:9549   */\n      tag_161\n      jump\t// in\n    tag_268:\n        /* \"#utility.yul\":9483:9484   */\n      0x01\n        /* \"#utility.yul\":9476:9481   */\n      dup2\n        /* \"#utility.yul\":9472:9485   */\n      add\n        /* \"#utility.yul\":9463:9485   */\n      swap1\n      pop\n        /* \"#utility.yul\":9439:9559   */\n      jump(tag_265)\n    tag_267:\n        /* \"#utility.yul\":9379:9565   */\n      pop\n      pop\n      jump\t// out\n        /* \"#utility.yul\":9571:10114   */\n    tag_163:\n        /* \"#utility.yul\":9672:9674   */\n      0x1f\n        /* \"#utility.yul\":9667:9670   */\n      dup3\n        /* \"#utility.yul\":9664:9675   */\n      gt\n        /* \"#utility.yul\":9661:10107   */\n      iszero\n      tag_270\n      jumpi\n        /* \"#utility.yul\":9706:9744   */\n      tag_271\n        /* \"#utility.yul\":9738:9743   */\n      dup2\n        /* \"#utility.yul\":9706:9744   */\n      tag_152\n      jump\t// in\n    tag_271:\n        /* \"#utility.yul\":9790:9819   */\n      tag_272\n        /* \"#utility.yul\":9808:9818   */\n      dup5\n        /* \"#utility.yul\":9790:9819   */\n      tag_153\n      jump\t// in\n    tag_272:\n        /* \"#utility.yul\":9780:9788   */\n      dup2\n        /* \"#utility.yul\":9776:9820   */\n      add\n        /* \"#utility.yul\":9973:9975   */\n      0x20\n        /* \"#utility.yul\":9961:9971   */\n      dup6\n        /* \"#utility.yul\":9958:9976   */\n      lt\n        /* \"#utility.yul\":9955:10004   */\n      iszero\n      tag_273\n      jumpi\n        /* \"#utility.yul\":9994:10002   */\n      dup2\n        /* \"#utility.yul\":9979:10002   */\n      swap1\n      pop\n        /* \"#utility.yul\":9955:10004   */\n    tag_273:\n        /* \"#utility.yul\":10017:10097   */\n      tag_274\n        /* \"#utility.yul\":10073:10095   */\n      tag_275\n        /* \"#utility.yul\":10091:10094   */\n      dup6\n        /* \"#utility.yul\":10073:10095   */\n      tag_153\n      jump\t// in\n    tag_275:\n        /* \"#utility.yul\":10063:10071   */\n      dup4\n        /* \"#utility.yul\":10059:10096   */\n      add\n        /* \"#utility.yul\":10046:10057   */\n      dup3\n        /* \"#utility.yul\":10017:10097   */\n      tag_162\n      jump\t// in\n    tag_274:\n        /* \"#utility.yul\":9676:10107   */\n      pop\n      pop\n        /* \"#utility.yul\":9661:10107   */\n    tag_270:\n        /* \"#utility.yul\":9571:10114   */\n      pop\n      pop\n      pop\n      jump\t// out\n        /* \"#utility.yul\":10120:10237   */\n    tag_164:\n        /* \"#utility.yul\":10174:10182   */\n      0x00\n        /* \"#utility.yul\":10224:10229   */\n      dup3\n        /* \"#utility.yul\":10218:10222   */\n      dup3\n        /* \"#utility.yul\":10214:10230   */\n      shr\n        /* \"#utility.yul\":10193:10230   */\n      swap1\n      pop\n        /* \"#utility.yul\":10120:10237   */\n      swap3\n      swap2\n      pop\n      pop\n      jump\t// out\n        /* \"#utility.yul\":10243:10412   */\n    tag_165:\n        /* \"#utility.yul\":10287:10293   */\n      0x00\n        /* \"#utility.yul\":10320:10371   */\n      tag_278\n        /* \"#utility.yul\":10368:10369   */\n      0x00\n        /* \"#utility.yul\":10364:10370   */\n      not\n        /* \"#utility.yul\":10356:10361   */\n      dup5\n        /* \"#utility.yul\":10353:10354   */\n      0x08\n        /* \"#utility.yul\":10349:10362   */\n      mul\n        /* \"#utility.yul\":10320:10371   */\n      tag_164\n      jump\t// in\n    tag_278:\n        /* \"#utility.yul\":10316:10372   */\n      not\n        /* \"#utility.yul\":10401:10405   */\n      dup1\n        /* \"#utility.yul\":10395:10399   */\n      dup4\n        /* \"#utility.yul\":10391:10406   */\n      and\n        /* \"#utility.yul\":10381:10406   */\n      swap2\n      pop\n        /* \"#utility.yul\":10294:10412   */\n      pop\n        /* \"#utility.yul\":10243:10412   */\n      swap3\n      swap2\n      pop\n      pop\n      jump\t// out\n        /* \"#utility.yul\":10417:10712   */\n    tag_166:\n        /* \"#utility.yul\":10493:10497   */\n      0x00\n        /* \"#utility.yul\":10639:10668   */\n      tag_280\n        /* \"#utility.yul\":10664:10667   */\n      dup4\n        /* \"#utility.yul\":10658:10662   */\n      dup4\n        /* \"#utility.yul\":10639:10668   */\n      tag_165\n      jump\t// in\n    tag_280:\n        /* \"#utility.yul\":10631:10668   */\n      swap2\n      pop\n        /* \"#utility.yul\":10701:10704   */\n      dup3\n        /* \"#utility.yul\":10698:10699   */\n      0x02\n        /* \"#utility.yul\":10694:10705   */\n      mul\n        /* \"#utility.yul\":10688:10692   */\n      dup3\n        /* \"#utility.yul\":10685:10706   */\n      or\n        /* \"#utility.yul\":10677:10706   */\n      swap1\n      pop\n        /* \"#utility.yul\":10417:10712   */\n      swap3\n      swap2\n      pop\n      pop\n      jump\t// out\n        /* \"#utility.yul\":10717:12112   */\n    tag_76:\n        /* \"#utility.yul\":10834:10871   */\n      tag_282\n        /* \"#utility.yul\":10867:10870   */\n      dup3\n        /* \"#utility.yul\":10834:10871   */\n      tag_137\n      jump\t// in\n    tag_282:\n        /* \"#utility.yul\":10936:10954   */\n      0xffffffffffffffff\n        /* \"#utility.yul\":10928:10934   */\n      dup2\n        /* \"#utility.yul\":10925:10955   */\n      gt\n        /* \"#utility.yul\":10922:10978   */\n      iszero\n      tag_283\n      jumpi\n        /* \"#utility.yul\":10958:10976   */\n      tag_284\n      tag_150\n      jump\t// in\n    tag_284:\n        /* \"#utility.yul\":10922:10978   */\n    tag_283:\n        /* \"#utility.yul\":11002:11040   */\n      tag_285\n        /* \"#utility.yul\":11034:11038   */\n      dup3\n        /* \"#utility.yul\":11028:11039   */\n      sload\n        /* \"#utility.yul\":11002:11040   */\n      tag_78\n      jump\t// in\n    tag_285:\n        /* \"#utility.yul\":11087:11154   */\n      tag_286\n        /* \"#utility.yul\":11147:11153   */\n      dup3\n        /* \"#utility.yul\":11139:11145   */\n      dup3\n        /* \"#utility.yul\":11133:11137   */\n      dup6\n        /* \"#utility.yul\":11087:11154   */\n      tag_163\n      jump\t// in\n    tag_286:\n        /* \"#utility.yul\":11181:11182   */\n      0x00\n        /* \"#utility.yul\":11205:11209   */\n      0x20\n        /* \"#utility.yul\":11192:11209   */\n      swap1\n      pop\n        /* \"#utility.yul\":11237:11239   */\n      0x1f\n        /* \"#utility.yul\":11229:11235   */\n      dup4\n        /* \"#utility.yul\":11226:11240   */\n      gt\n        /* \"#utility.yul\":11254:11255   */\n      0x01\n        /* \"#utility.yul\":11249:11867   */\n      dup2\n      eq\n      tag_288\n      jumpi\n        /* \"#utility.yul\":11911:11912   */\n      0x00\n        /* \"#utility.yul\":11928:11934   */\n      dup5\n        /* \"#utility.yul\":11925:12002   */\n      iszero\n      tag_289\n      jumpi\n        /* \"#utility.yul\":11977:11986   */\n      dup3\n        /* \"#utility.yul\":11972:11975   */\n      dup8\n        /* \"#utility.yul\":11968:11987   */\n      add\n        /* \"#utility.yul\":11962:11988   */\n      mload\n        /* \"#utility.yul\":11953:11988   */\n      swap1\n      pop\n        /* \"#utility.yul\":11925:12002   */\n    tag_289:\n        /* \"#utility.yul\":12028:12095   */\n      tag_290\n        /* \"#utility.yul\":12088:12094   */\n      dup6\n        /* \"#utility.yul\":12081:12086   */\n      dup3\n        /* \"#utility.yul\":12028:12095   */\n      tag_166\n      jump\t// in\n    tag_290:\n        /* \"#utility.yul\":12022:12026   */\n      dup7\n        /* \"#utility.yul\":12015:12096   */\n      sstore\n        /* \"#utility.yul\":11884:12106   */\n      pop\n        /* \"#utility.yul\":11219:12106   */\n      jump(tag_287)\n        /* \"#utility.yul\":11249:11867   */\n    tag_288:\n        /* \"#utility.yul\":11301:11305   */\n      0x1f\n        /* \"#utility.yul\":11297:11306   */\n      not\n        /* \"#utility.yul\":11289:11295   */\n      dup5\n        /* \"#utility.yul\":11285:11307   */\n      and\n        /* \"#utility.yul\":11335:11372   */\n      tag_291\n        /* \"#utility.yul\":11367:11371   */\n      dup7\n        /* \"#utility.yul\":11335:11372   */\n      tag_152\n      jump\t// in\n    tag_291:\n        /* \"#utility.yul\":11394:11395   */\n      0x00\n        /* \"#utility.yul\":11408:11616   */\n    tag_292:\n        /* \"#utility.yul\":11422:11429   */\n      dup3\n        /* \"#utility.yul\":11419:11420   */\n      dup2\n        /* \"#utility.yul\":11416:11430   */\n      lt\n        /* \"#utility.yul\":11408:11616   */\n      iszero\n      tag_294\n      jumpi\n        /* \"#utility.yul\":11501:11510   */\n      dup5\n        /* \"#utility.yul\":11496:11499   */\n      dup10\n        /* \"#utility.yul\":11492:11511   */\n      add\n        /* \"#utility.yul\":11486:11512   */\n      mload\n        /* \"#utility.yul\":11478:11484   */\n      dup3\n        /* \"#utility.yul\":11471:11513   */\n      sstore\n        /* \"#utility.yul\":11552:11553   */\n      0x01\n        /* \"#utility.yul\":11544:11550   */\n      dup3\n        /* \"#utility.yul\":11540:11554   */\n      add\n        /* \"#utility.yul\":11530:11554   */\n      swap2\n      pop\n        /* \"#utility.yul\":11599:11601   */\n      0x20\n        /* \"#utility.yul\":11588:11597   */\n      dup6\n        /* \"#utility.yul\":11584:11602   */\n      add\n        /* \"#utility.yul\":11571:11602   */\n      swap5\n      pop\n        /* \"#utility.yul\":11445:11449   */\n      0x20\n        /* \"#utility.yul\":11442:11443   */\n      dup2\n        /* \"#utility.yul\":11438:11450   */\n      add\n        /* \"#utility.yul\":11433:11450   */\n      swap1\n      pop\n        /* \"#utility.yul\":11408:11616   */\n      jump(tag_292)\n    tag_294:\n        /* \"#utility.yul\":11644:11650   */\n      dup7\n        /* \"#utility.yul\":11635:11642   */\n      dup4\n        /* \"#utility.yul\":11632:11651   */\n      lt\n        /* \"#utility.yul\":11629:11808   */\n      iszero\n      tag_295\n      jumpi\n        /* \"#utility.yul\":11702:11711   */\n      dup5\n        /* \"#utility.yul\":11697:11700   */\n      dup10\n        /* \"#utility.yul\":11693:11712   */\n      add\n        /* \"#utility.yul\":11687:11713   */\n      mload\n        /* \"#utility.yul\":11745:11793   */\n      tag_296\n        /* \"#utility.yul\":11787:11791   */\n      0x1f\n        /* \"#utility.yul\":11779:11785   */\n      dup10\n        /* \"#utility.yul\":11775:11792   */\n      and\n        /* \"#utility.yul\":11764:11773   */\n      dup3\n        /* \"#utility.yul\":11745:11793   */\n      tag_165\n      jump\t// in\n    tag_296:\n        /* \"#utility.yul\":11737:11743   */\n      dup4\n        /* \"#utility.yul\":11730:11794   */\n      sstore\n        /* \"#utility.yul\":11652:11808   */\n      pop\n        /* \"#utility.yul\":11629:11808   */\n    tag_295:\n        /* \"#utility.yul\":11854:11855   */\n      0x01\n        /* \"#utility.yul\":11850:11851   */\n      0x02\n        /* \"#utility.yul\":11842:11848   */\n      dup9\n        /* \"#utility.yul\":11838:11852   */\n      mul\n        /* \"#utility.yul\":11834:11856   */\n      add\n        /* \"#utility.yul\":11828:11832   */\n      dup9\n        /* \"#utility.yul\":11821:11857   */\n      sstore\n        /* \"#utility.yul\":11256:11867   */\n      pop\n      pop\n      pop\n        /* \"#utility.yul\":11219:12106   */\n    tag_287:\n      pop\n        /* \"#utility.yul\":10809:12112   */\n      pop\n      pop\n      pop\n        /* \"#utility.yul\":10717:12112   */\n      pop\n      pop\n      jump\t// out\n        /* \"#utility.yul\":12118:12276   */\n    tag_167:\n        /* \"#utility.yul\":12258:12268   */\n      0x44656c6976657264000000000000000000000000000000000000000000000000\n        /* \"#utility.yul\":12254:12255   */\n      0x00\n        /* \"#utility.yul\":12246:12252   */\n      dup3\n        /* \"#utility.yul\":12242:12256   */\n      add\n        /* \"#utility.yul\":12235:12269   */\n      mstore\n        /* \"#utility.yul\":12118:12276   */\n      pop\n      jump\t// out\n        /* \"#utility.yul\":12282:12647   */\n    tag_168:\n        /* \"#utility.yul\":12424:12427   */\n      0x00\n        /* \"#utility.yul\":12445:12511   */\n      tag_299\n        /* \"#utility.yul\":12509:12510   */\n      0x08\n        /* \"#utility.yul\":12504:12507   */\n      dup4\n        /* \"#utility.yul\":12445:12511   */\n      tag_138\n      jump\t// in\n    tag_299:\n        /* \"#utility.yul\":12438:12511   */\n      swap2\n      pop\n        /* \"#utility.yul\":12520:12613   */\n      tag_300\n        /* \"#utility.yul\":12609:12612   */\n      dup3\n        /* \"#utility.yul\":12520:12613   */\n      tag_167\n      jump\t// in\n    tag_300:\n        /* \"#utility.yul\":12638:12640   */\n      0x20\n        /* \"#utility.yul\":12633:12636   */\n      dup3\n        /* \"#utility.yul\":12629:12641   */\n      add\n        /* \"#utility.yul\":12622:12641   */\n      swap1\n      pop\n        /* \"#utility.yul\":12282:12647   */\n      swap2\n      swap1\n      pop\n      jump\t// out\n        /* \"#utility.yul\":12653:13072   */\n    tag_90:\n        /* \"#utility.yul\":12819:12823   */\n      0x00\n        /* \"#utility.yul\":12857:12859   */\n      0x20\n        /* \"#utility.yul\":12846:12855   */\n      dup3\n        /* \"#utility.yul\":12842:12860   */\n      add\n        /* \"#utility.yul\":12834:12860   */\n      swap1\n      pop\n        /* \"#utility.yul\":12906:12915   */\n      dup2\n        /* \"#utility.yul\":12900:12904   */\n      dup2\n        /* \"#utility.yul\":12896:12916   */\n      sub\n        /* \"#utility.yul\":12892:12893   */\n      0x00\n        /* \"#utility.yul\":12881:12890   */\n      dup4\n        /* \"#utility.yul\":12877:12894   */\n      add\n        /* \"#utility.yul\":12870:12917   */\n      mstore\n        /* \"#utility.yul\":12934:13065   */\n      tag_302\n        /* \"#utility.yul\":13060:13064   */\n      dup2\n        /* \"#utility.yul\":12934:13065   */\n      tag_168\n      jump\t// in\n    tag_302:\n        /* \"#utility.yul\":12926:13065   */\n      swap1\n      pop\n        /* \"#utility.yul\":12653:13072   */\n      swap2\n      swap1\n      pop\n      jump\t// out\n        /* \"#utility.yul\":13078:13235   */\n    tag_169:\n        /* \"#utility.yul\":13218:13227   */\n      0x70656e64696e6700000000000000000000000000000000000000000000000000\n        /* \"#utility.yul\":13214:13215   */\n      0x00\n        /* \"#utility.yul\":13206:13212   */\n      dup3\n        /* \"#utility.yul\":13202:13216   */\n      add\n        /* \"#utility.yul\":13195:13228   */\n      mstore\n        /* \"#utility.yul\":13078:13235   */\n      pop\n      jump\t// out\n        /* \"#utility.yul\":13241:13606   */\n    tag_170:\n        /* \"#utility.yul\":13383:13386   */\n      0x00\n        /* \"#utility.yul\":13404:13470   */\n      tag_305\n        /* \"#utility.yul\":13468:13469   */\n      0x07\n        /* \"#utility.yul\":13463:13466   */\n      dup4\n        /* \"#utility.yul\":13404:13470   */\n      tag_138\n      jump\t// in\n    tag_305:\n        /* \"#utility.yul\":13397:13470   */\n      swap2\n      pop\n        /* \"#utility.yul\":13479:13572   */\n      tag_306\n        /* \"#utility.yul\":13568:13571   */\n      dup3\n        /* \"#utility.yul\":13479:13572   */\n      tag_169\n      jump\t// in\n    tag_306:\n        /* \"#utility.yul\":13597:13599   */\n      0x20\n        /* \"#utility.yul\":13592:13595   */\n      dup3\n        /* \"#utility.yul\":13588:13600   */\n      add\n        /* \"#utility.yul\":13581:13600   */\n      swap1\n      pop\n        /* \"#utility.yul\":13241:13606   */\n      swap2\n      swap1\n      pop\n      jump\t// out\n        /* \"#utility.yul\":13612:14031   */\n    tag_99:\n        /* \"#utility.yul\":13778:13782   */\n      0x00\n        /* \"#utility.yul\":13816:13818   */\n      0x20\n        /* \"#utility.yul\":13805:13814   */\n      dup3\n        /* \"#utility.yul\":13801:13819   */\n      add\n        /* \"#utility.yul\":13793:13819   */\n      swap1\n      pop\n        /* \"#utility.yul\":13865:13874   */\n      dup2\n        /* \"#utility.yul\":13859:13863   */\n      dup2\n        /* \"#utility.yul\":13855:13875   */\n      sub\n        /* \"#utility.yul\":13851:13852   */\n      0x00\n        /* \"#utility.yul\":13840:13849   */\n      dup4\n        /* \"#utility.yul\":13836:13853   */\n      add\n        /* \"#utility.yul\":13829:13876   */\n      mstore\n        /* \"#utility.yul\":13893:14024   */\n      tag_308\n        /* \"#utility.yul\":14019:14023   */\n      dup2\n        /* \"#utility.yul\":13893:14024   */\n      tag_170\n      jump\t// in\n    tag_308:\n        /* \"#utility.yul\":13885:14024   */\n      swap1\n      pop\n        /* \"#utility.yul\":13612:14031   */\n      swap2\n      swap1\n      pop\n      jump\t// out\n        /* \"#utility.yul\":14037:14207   */\n    tag_171:\n        /* \"#utility.yul\":14177:14199   */\n      0x496e73756666696369656e742042616c616e6365000000000000000000000000\n        /* \"#utility.yul\":14173:14174   */\n      0x00\n        /* \"#utility.yul\":14165:14171   */\n      dup3\n        /* \"#utility.yul\":14161:14175   */\n      add\n        /* \"#utility.yul\":14154:14200   */\n      mstore\n        /* \"#utility.yul\":14037:14207   */\n      pop\n      jump\t// out\n        /* \"#utility.yul\":14213:14579   */\n    tag_172:\n        /* \"#utility.yul\":14355:14358   */\n      0x00\n        /* \"#utility.yul\":14376:14443   */\n      tag_311\n        /* \"#utility.yul\":14440:14442   */\n      0x14\n        /* \"#utility.yul\":14435:14438   */\n      dup4\n        /* \"#utility.yul\":14376:14443   */\n      tag_138\n      jump\t// in\n    tag_311:\n        /* \"#utility.yul\":14369:14443   */\n      swap2\n      pop\n        /* \"#utility.yul\":14452:14545   */\n      tag_312\n        /* \"#utility.yul\":14541:14544   */\n      dup3\n        /* \"#utility.yul\":14452:14545   */\n      tag_171\n      jump\t// in\n    tag_312:\n        /* \"#utility.yul\":14570:14572   */\n      0x20\n        /* \"#utility.yul\":14565:14568   */\n      dup3\n        /* \"#utility.yul\":14561:14573   */\n      add\n        /* \"#utility.yul\":14554:14573   */\n      swap1\n      pop\n        /* \"#utility.yul\":14213:14579   */\n      swap2\n      swap1\n      pop\n      jump\t// out\n        /* \"#utility.yul\":14585:15004   */\n    tag_112:\n        /* \"#utility.yul\":14751:14755   */\n      0x00\n        /* \"#utility.yul\":14789:14791   */\n      0x20\n        /* \"#utility.yul\":14778:14787   */\n      dup3\n        /* \"#utility.yul\":14774:14792   */\n      add\n        /* \"#utility.yul\":14766:14792   */\n      swap1\n      pop\n        /* \"#utility.yul\":14838:14847   */\n      dup2\n        /* \"#utility.yul\":14832:14836   */\n      dup2\n        /* \"#utility.yul\":14828:14848   */\n      sub\n        /* \"#utility.yul\":14824:14825   */\n      0x00\n        /* \"#utility.yul\":14813:14822   */\n      dup4\n        /* \"#utility.yul\":14809:14826   */\n      add\n        /* \"#utility.yul\":14802:14849   */\n      mstore\n        /* \"#utility.yul\":14866:14997   */\n      tag_314\n        /* \"#utility.yul\":14992:14996   */\n      dup2\n        /* \"#utility.yul\":14866:14997   */\n      tag_172\n      jump\t// in\n    tag_314:\n        /* \"#utility.yul\":14858:14997   */\n      swap1\n      pop\n        /* \"#utility.yul\":14585:15004   */\n      swap2\n      swap1\n      pop\n      jump\t// out\n    stop\n    data_96dfabbf07d0c6a780e51fb0d2039d68e0c52ce84c414db1c1d50292fb2d54f7 4f7264657220486173204265656e20506c61636564205375636365737366756c6c79\n\n    auxdata: 0xa2646970667358221220165ab5091249e1fe922811da20118155c119c974d20990d8eaf9e08dc04760eb64736f6c634300081a0033\n}\n",
				"bytecode": {
					"linkReferences": {},
					"object": "60806040526040518060400160405280600781526020017f57656c636f6d65000000000000000000000000000000000000000000000000008152506003908161004891906102e7565b50348015610054575f80fd5b5073ab8483f64d9c6d1ecf9b849ae677dd3315835cb25f806101000a81548173ffffffffffffffffffffffffffffffffffffffff021916908373ffffffffffffffffffffffffffffffffffffffff1602179055506103b6565b5f81519050919050565b7f4e487b71000000000000000000000000000000000000000000000000000000005f52604160045260245ffd5b7f4e487b71000000000000000000000000000000000000000000000000000000005f52602260045260245ffd5b5f600282049050600182168061012857607f821691505b60208210810361013b5761013a6100e4565b5b50919050565b5f819050815f5260205f209050919050565b5f6020601f8301049050919050565b5f82821b905092915050565b5f6008830261019d7fffffffffffffffffffffffffffffffffffffffffffffffffffffffffffffffff82610162565b6101a78683610162565b95508019841693508086168417925050509392505050565b5f819050919050565b5f819050919050565b5f6101eb6101e66101e1846101bf565b6101c8565b6101bf565b9050919050565b5f819050919050565b610204836101d1565b610218610210826101f2565b84845461016e565b825550505050565b5f90565b61022c610220565b6102378184846101fb565b505050565b5b8181101561025a5761024f5f82610224565b60018101905061023d565b5050565b601f82111561029f5761027081610141565b61027984610153565b81016020851015610288578190505b61029c61029485610153565b83018261023c565b50505b505050565b5f82821c905092915050565b5f6102bf5f19846008026102a4565b1980831691505092915050565b5f6102d783836102b0565b9150826002028217905092915050565b6102f0826100ad565b67ffffffffffffffff811115610309576103086100b7565b5b6103138254610111565b61031e82828561025e565b5f60209050601f83116001811461034f575f841561033d578287015190505b61034785826102cc565b8655506103ae565b601f19841661035d86610141565b5f5b828110156103845784890151825560018201915060208501945060208101905061035f565b868310156103a1578489015161039d601f8916826102b0565b8355505b6001600288020188555050505b505050505050565b6110ea806103c35f395ff3fe608060405260043610610085575f3560e01c80639b47efe3116100585780639b47efe314610143578063aa8c217c14610159578063c213313614610183578063e21f37ce146101ad578063f15820ff146101d757610085565b806339aaba25146100895780634552b04f146100b35780636df427bc146100dd5780638da5cb5b14610119575b5f80fd5b348015610094575f80fd5b5061009d6101e1565b6040516100aa91906109a8565b60405180910390f35b3480156100be575f80fd5b506100c76101f6565b6040516100d49190610a00565b60405180910390f35b3480156100e8575f80fd5b5061010360048036038101906100fe9190610a40565b61021b565b6040516101109190610adb565b60405180910390f35b348015610124575f80fd5b5061012d6106da565b60405161013a9190610a00565b60405180910390f35b34801561014e575f80fd5b506101576106fd565b005b348015610164575f80fd5b5061016d610891565b60405161017a9190610b13565b60405180910390f35b34801561018e575f80fd5b50610197610897565b6040516101a49190610b13565b60405180910390f35b3480156101b8575f80fd5b506101c16108a7565b6040516101ce9190610adb565b60405180910390f35b6101df610933565b005b5f60045f9054906101000a900460ff16905090565b60015f9054906101000a900473ffffffffffffffffffffffffffffffffffffffff1681565b60603373ffffffffffffffffffffffffffffffffffffffff165f8054906101000a900473ffffffffffffffffffffffffffffffffffffffff1673ffffffffffffffffffffffffffffffffffffffff16146102aa576040517f08c379a00000000000000000000000000000000000000000000000000000000081526004016102a190610b76565b60405180910390fd5b6003808111156102bd576102bc610935565b5b60045f9054906101000a900460ff1660038111156102de576102dd610935565b5b111561031f576040517f08c379a000000000000000000000000000000000000000000000000000000000815260040161031690610bde565b60405180910390fd5b8160045f6101000a81548160ff0219169083600381111561034357610342610935565b5b02179055506002600381111561035c5761035b610935565b5b60045f9054906101000a900460ff16600381111561037d5761037c610935565b5b0361048c577fe18822188b13ea789744bb656325800d3b5025b3d956e508917ed2a260b33a8d6040516103af90610c46565b60405180910390a16040518060400160405280600781526020017f5368697070656400000000000000000000000000000000000000000000000000815250600390816103fb9190610e8b565b506003805461040990610cbe565b80601f016020809104026020016040519081016040528092919081815260200182805461043590610cbe565b80156104805780601f1061045757610100808354040283529160200191610480565b820191905f5260205f20905b81548152906001019060200180831161046357829003601f168201915b505050505090506106d5565b60038081111561049f5761049e610935565b5b60045f9054906101000a900460ff1660038111156104c0576104bf610935565b5b036105cf577fe18822188b13ea789744bb656325800d3b5025b3d956e508917ed2a260b33a8d6040516104f290610fa4565b60405180910390a16040518060400160405280600981526020017f44656c69766572656400000000000000000000000000000000000000000000008152506003908161053e9190610e8b565b506003805461054c90610cbe565b80601f016020809104026020016040519081016040528092919081815260200182805461057890610cbe565b80156105c35780601f1061059a576101008083540402835291602001916105c3565b820191905f5260205f20905b8154815290600101906020018083116105a657829003601f168201915b505050505090506106d5565b7fe18822188b13ea789744bb656325800d3b5025b3d956e508917ed2a260b33a8d6040516105fc9061100c565b60405180910390a16040518060400160405280600781526020017f70656e64696e6700000000000000000000000000000000000000000000000000815250600390816106489190610e8b565b506003805461065690610cbe565b80601f016020809104026020016040519081016040528092919081815260200182805461068290610cbe565b80156106cd5780601f106106a4576101008083540402835291602001916106cd565b820191905f5260205f20905b8154815290600101906020018083116106b057829003601f168201915b505050505090505b919050565b5f8054906101000a900473ffffffffffffffffffffffffffffffffffffffff1681565b3373ffffffffffffffffffffffffffffffffffffffff165f8054906101000a900473ffffffffffffffffffffffffffffffffffffffff1673ffffffffffffffffffffffffffffffffffffffff161461078a576040517f08c379a000000000000000000000000000000000000000000000000000000000815260040161078190610b76565b60405180910390fd5b670de0b6b3a764000060025410156107d7576040517f08c379a00000000000000000000000000000000000000000000000000000000081526004016107ce90611074565b60405180910390fd5b670de0b6b3a76400006002541061088f577378731d3ca6b7e34ac0f824c42a7cc18a495cabab60015f6101000a81548173ffffffffffffffffffffffffffffffffffffffff021916908373ffffffffffffffffffffffffffffffffffffffff160217905550600160045f6101000a81548160ff0219169083600381111561086157610860610935565b5b0217905550604051806060016040528060228152602001611093602291396003908161088d9190610e8b565b505b565b60025481565b5f47600281905550600254905090565b600380546108b490610cbe565b80601f01602080910402602001604051908101604052809291908181526020018280546108e090610cbe565b801561092b5780601f106109025761010080835404028352916020019161092b565b820191905f5260205f20905b81548152906001019060200180831161090e57829003601f168201915b505050505081565b565b7f4e487b71000000000000000000000000000000000000000000000000000000005f52602160045260245ffd5b6004811061097357610972610935565b5b50565b5f81905061098382610962565b919050565b5f61099282610976565b9050919050565b6109a281610988565b82525050565b5f6020820190506109bb5f830184610999565b92915050565b5f73ffffffffffffffffffffffffffffffffffffffff82169050919050565b5f6109ea826109c1565b9050919050565b6109fa816109e0565b82525050565b5f602082019050610a135f8301846109f1565b92915050565b5f80fd5b60048110610a29575f80fd5b50565b5f81359050610a3a81610a1d565b92915050565b5f60208284031215610a5557610a54610a19565b5b5f610a6284828501610a2c565b91505092915050565b5f81519050919050565b5f82825260208201905092915050565b8281835e5f83830152505050565b5f601f19601f8301169050919050565b5f610aad82610a6b565b610ab78185610a75565b9350610ac7818560208601610a85565b610ad081610a93565b840191505092915050565b5f6020820190508181035f830152610af38184610aa3565b905092915050565b5f819050919050565b610b0d81610afb565b82525050565b5f602082019050610b265f830184610b04565b92915050565b7f4e6f74204f776e657200000000000000000000000000000000000000000000005f82015250565b5f610b60600983610a75565b9150610b6b82610b2c565b602082019050919050565b5f6020820190508181035f830152610b8d81610b54565b9050919050565b7f416c72656164792044656c6976657265640000000000000000000000000000005f82015250565b5f610bc8601183610a75565b9150610bd382610b94565b602082019050919050565b5f6020820190508181035f830152610bf581610bbc565b9050919050565b7f53686970706564000000000000000000000000000000000000000000000000005f82015250565b5f610c30600783610a75565b9150610c3b82610bfc565b602082019050919050565b5f6020820190508181035f830152610c5d81610c24565b9050919050565b7f4e487b71000000000000000000000000000000000000000000000000000000005f52604160045260245ffd5b7f4e487b71000000000000000000000000000000000000000000000000000000005f52602260045260245ffd5b5f6002820490506001821680610cd557607f821691505b602082108103610ce857610ce7610c91565b5b50919050565b5f819050815f5260205f209050919050565b5f6020601f8301049050919050565b5f82821b905092915050565b5f60088302610d4a7fffffffffffffffffffffffffffffffffffffffffffffffffffffffffffffffff82610d0f565b610d548683610d0f565b95508019841693508086168417925050509392505050565b5f819050919050565b5f610d8f610d8a610d8584610afb565b610d6c565b610afb565b9050919050565b5f819050919050565b610da883610d75565b610dbc610db482610d96565b848454610d1b565b825550505050565b5f90565b610dd0610dc4565b610ddb818484610d9f565b505050565b5b81811015610dfe57610df35f82610dc8565b600181019050610de1565b5050565b601f821115610e4357610e1481610cee565b610e1d84610d00565b81016020851015610e2c578190505b610e40610e3885610d00565b830182610de0565b50505b505050565b5f82821c905092915050565b5f610e635f1984600802610e48565b1980831691505092915050565b5f610e7b8383610e54565b9150826002028217905092915050565b610e9482610a6b565b67ffffffffffffffff811115610ead57610eac610c64565b5b610eb78254610cbe565b610ec2828285610e02565b5f60209050601f831160018114610ef3575f8415610ee1578287015190505b610eeb8582610e70565b865550610f52565b601f198416610f0186610cee565b5f5b82811015610f2857848901518255600182019150602085019450602081019050610f03565b86831015610f455784890151610f41601f891682610e54565b8355505b6001600288020188555050505b505050505050565b7f44656c69766572640000000000000000000000000000000000000000000000005f82015250565b5f610f8e600883610a75565b9150610f9982610f5a565b602082019050919050565b5f6020820190508181035f830152610fbb81610f82565b9050919050565b7f70656e64696e67000000000000000000000000000000000000000000000000005f82015250565b5f610ff6600783610a75565b915061100182610fc2565b602082019050919050565b5f6020820190508181035f83015261102381610fea565b9050919050565b7f496e73756666696369656e742042616c616e63650000000000000000000000005f82015250565b5f61105e601483610a75565b91506110698261102a565b602082019050919050565b5f6020820190508181035f83015261108b81611052565b905091905056fe4f7264657220486173204265656e20506c61636564205375636365737366756c6c79a2646970667358221220165ab5091249e1fe922811da20118155c119c974d20990d8eaf9e08dc04760eb64736f6c634300081a0033",
					"opcodes": "PUSH1 0x80 PUSH1 0x40 MSTORE PUSH1 0x40 MLOAD DUP1 PUSH1 0x40 ADD PUSH1 0x40 MSTORE DUP1 PUSH1 0x7 DUP2 MSTORE PUSH1 0x20 ADD PUSH32 0x57656C636F6D6500000000000000000000000000000000000000000000000000 DUP2 MSTORE POP PUSH1 0x3 SWAP1 DUP2 PUSH2 0x48 SWAP2 SWAP1 PUSH2 0x2E7 JUMP JUMPDEST POP CALLVALUE DUP1 ISZERO PUSH2 0x54 JUMPI PUSH0 DUP1 REVERT JUMPDEST POP PUSH20 0xAB8483F64D9C6D1ECF9B849AE677DD3315835CB2 PUSH0 DUP1 PUSH2 0x100 EXP DUP2 SLOAD DUP2 PUSH20 0xFFFFFFFFFFFFFFFFFFFFFFFFFFFFFFFFFFFFFFFF MUL NOT AND SWAP1 DUP4 PUSH20 0xFFFFFFFFFFFFFFFFFFFFFFFFFFFFFFFFFFFFFFFF AND MUL OR SWAP1 SSTORE POP PUSH2 0x3B6 JUMP JUMPDEST PUSH0 DUP2 MLOAD SWAP1 POP SWAP2 SWAP1 POP JUMP JUMPDEST PUSH32 0x4E487B7100000000000000000000000000000000000000000000000000000000 PUSH0 MSTORE PUSH1 0x41 PUSH1 0x4 MSTORE PUSH1 0x24 PUSH0 REVERT JUMPDEST PUSH32 0x4E487B7100000000000000000000000000000000000000000000000000000000 PUSH0 MSTORE PUSH1 0x22 PUSH1 0x4 MSTORE PUSH1 0x24 PUSH0 REVERT JUMPDEST PUSH0 PUSH1 0x2 DUP3 DIV SWAP1 POP PUSH1 0x1 DUP3 AND DUP1 PUSH2 0x128 JUMPI PUSH1 0x7F DUP3 AND SWAP2 POP JUMPDEST PUSH1 0x20 DUP3 LT DUP2 SUB PUSH2 0x13B JUMPI PUSH2 0x13A PUSH2 0xE4 JUMP JUMPDEST JUMPDEST POP SWAP2 SWAP1 POP JUMP JUMPDEST PUSH0 DUP2 SWAP1 POP DUP2 PUSH0 MSTORE PUSH1 0x20 PUSH0 KECCAK256 SWAP1 POP SWAP2 SWAP1 POP JUMP JUMPDEST PUSH0 PUSH1 0x20 PUSH1 0x1F DUP4 ADD DIV SWAP1 POP SWAP2 SWAP1 POP JUMP JUMPDEST PUSH0 DUP3 DUP3 SHL SWAP1 POP SWAP3 SWAP2 POP POP JUMP JUMPDEST PUSH0 PUSH1 0x8 DUP4 MUL PUSH2 0x19D PUSH32 0xFFFFFFFFFFFFFFFFFFFFFFFFFFFFFFFFFFFFFFFFFFFFFFFFFFFFFFFFFFFFFFFF DUP3 PUSH2 0x162 JUMP JUMPDEST PUSH2 0x1A7 DUP7 DUP4 PUSH2 0x162 JUMP JUMPDEST SWAP6 POP DUP1 NOT DUP5 AND SWAP4 POP DUP1 DUP7 AND DUP5 OR SWAP3 POP POP POP SWAP4 SWAP3 POP POP POP JUMP JUMPDEST PUSH0 DUP2 SWAP1 POP SWAP2 SWAP1 POP JUMP JUMPDEST PUSH0 DUP2 SWAP1 POP SWAP2 SWAP1 POP JUMP JUMPDEST PUSH0 PUSH2 0x1EB PUSH2 0x1E6 PUSH2 0x1E1 DUP5 PUSH2 0x1BF JUMP JUMPDEST PUSH2 0x1C8 JUMP JUMPDEST PUSH2 0x1BF JUMP JUMPDEST SWAP1 POP SWAP2 SWAP1 POP JUMP JUMPDEST PUSH0 DUP2 SWAP1 POP SWAP2 SWAP1 POP JUMP JUMPDEST PUSH2 0x204 DUP4 PUSH2 0x1D1 JUMP JUMPDEST PUSH2 0x218 PUSH2 0x210 DUP3 PUSH2 0x1F2 JUMP JUMPDEST DUP5 DUP5 SLOAD PUSH2 0x16E JUMP JUMPDEST DUP3 SSTORE POP POP POP POP JUMP JUMPDEST PUSH0 SWAP1 JUMP JUMPDEST PUSH2 0x22C PUSH2 0x220 JUMP JUMPDEST PUSH2 0x237 DUP2 DUP5 DUP5 PUSH2 0x1FB JUMP JUMPDEST POP POP POP JUMP JUMPDEST JUMPDEST DUP2 DUP2 LT ISZERO PUSH2 0x25A JUMPI PUSH2 0x24F PUSH0 DUP3 PUSH2 0x224 JUMP JUMPDEST PUSH1 0x1 DUP2 ADD SWAP1 POP PUSH2 0x23D JUMP JUMPDEST POP POP JUMP JUMPDEST PUSH1 0x1F DUP3 GT ISZERO PUSH2 0x29F JUMPI PUSH2 0x270 DUP2 PUSH2 0x141 JUMP JUMPDEST PUSH2 0x279 DUP5 PUSH2 0x153 JUMP JUMPDEST DUP2 ADD PUSH1 0x20 DUP6 LT ISZERO PUSH2 0x288 JUMPI DUP2 SWAP1 POP JUMPDEST PUSH2 0x29C PUSH2 0x294 DUP6 PUSH2 0x153 JUMP JUMPDEST DUP4 ADD DUP3 PUSH2 0x23C JUMP JUMPDEST POP POP JUMPDEST POP POP POP JUMP JUMPDEST PUSH0 DUP3 DUP3 SHR SWAP1 POP SWAP3 SWAP2 POP POP JUMP JUMPDEST PUSH0 PUSH2 0x2BF PUSH0 NOT DUP5 PUSH1 0x8 MUL PUSH2 0x2A4 JUMP JUMPDEST NOT DUP1 DUP4 AND SWAP2 POP POP SWAP3 SWAP2 POP POP JUMP JUMPDEST PUSH0 PUSH2 0x2D7 DUP4 DUP4 PUSH2 0x2B0 JUMP JUMPDEST SWAP2 POP DUP3 PUSH1 0x2 MUL DUP3 OR SWAP1 POP SWAP3 SWAP2 POP POP JUMP JUMPDEST PUSH2 0x2F0 DUP3 PUSH2 0xAD JUMP JUMPDEST PUSH8 0xFFFFFFFFFFFFFFFF DUP2 GT ISZERO PUSH2 0x309 JUMPI PUSH2 0x308 PUSH2 0xB7 JUMP JUMPDEST JUMPDEST PUSH2 0x313 DUP3 SLOAD PUSH2 0x111 JUMP JUMPDEST PUSH2 0x31E DUP3 DUP3 DUP6 PUSH2 0x25E JUMP JUMPDEST PUSH0 PUSH1 0x20 SWAP1 POP PUSH1 0x1F DUP4 GT PUSH1 0x1 DUP2 EQ PUSH2 0x34F JUMPI PUSH0 DUP5 ISZERO PUSH2 0x33D JUMPI DUP3 DUP8 ADD MLOAD SWAP1 POP JUMPDEST PUSH2 0x347 DUP6 DUP3 PUSH2 0x2CC JUMP JUMPDEST DUP7 SSTORE POP PUSH2 0x3AE JUMP JUMPDEST PUSH1 0x1F NOT DUP5 AND PUSH2 0x35D DUP7 PUSH2 0x141 JUMP JUMPDEST PUSH0 JUMPDEST DUP3 DUP2 LT ISZERO PUSH2 0x384 JUMPI DUP5 DUP10 ADD MLOAD DUP3 SSTORE PUSH1 0x1 DUP3 ADD SWAP2 POP PUSH1 0x20 DUP6 ADD SWAP5 POP PUSH1 0x20 DUP2 ADD SWAP1 POP PUSH2 0x35F JUMP JUMPDEST DUP7 DUP4 LT ISZERO PUSH2 0x3A1 JUMPI DUP5 DUP10 ADD MLOAD PUSH2 0x39D PUSH1 0x1F DUP10 AND DUP3 PUSH2 0x2B0 JUMP JUMPDEST DUP4 SSTORE POP JUMPDEST PUSH1 0x1 PUSH1 0x2 DUP9 MUL ADD DUP9 SSTORE POP POP POP JUMPDEST POP POP POP POP POP POP JUMP JUMPDEST PUSH2 0x10EA DUP1 PUSH2 0x3C3 PUSH0 CODECOPY PUSH0 RETURN INVALID PUSH1 0x80 PUSH1 0x40 MSTORE PUSH1 0x4 CALLDATASIZE LT PUSH2 0x85 JUMPI PUSH0 CALLDATALOAD PUSH1 0xE0 SHR DUP1 PUSH4 0x9B47EFE3 GT PUSH2 0x58 JUMPI DUP1 PUSH4 0x9B47EFE3 EQ PUSH2 0x143 JUMPI DUP1 PUSH4 0xAA8C217C EQ PUSH2 0x159 JUMPI DUP1 PUSH4 0xC2133136 EQ PUSH2 0x183 JUMPI DUP1 PUSH4 0xE21F37CE EQ PUSH2 0x1AD JUMPI DUP1 PUSH4 0xF15820FF EQ PUSH2 0x1D7 JUMPI PUSH2 0x85 JUMP JUMPDEST DUP1 PUSH4 0x39AABA25 EQ PUSH2 0x89 JUMPI DUP1 PUSH4 0x4552B04F EQ PUSH2 0xB3 JUMPI DUP1 PUSH4 0x6DF427BC EQ PUSH2 0xDD JUMPI DUP1 PUSH4 0x8DA5CB5B EQ PUSH2 0x119 JUMPI JUMPDEST PUSH0 DUP1 REVERT JUMPDEST CALLVALUE DUP1 ISZERO PUSH2 0x94 JUMPI PUSH0 DUP1 REVERT JUMPDEST POP PUSH2 0x9D PUSH2 0x1E1 JUMP JUMPDEST PUSH1 0x40 MLOAD PUSH2 0xAA SWAP2 SWAP1 PUSH2 0x9A8 JUMP JUMPDEST PUSH1 0x40 MLOAD DUP1 SWAP2 SUB SWAP1 RETURN JUMPDEST CALLVALUE DUP1 ISZERO PUSH2 0xBE JUMPI PUSH0 DUP1 REVERT JUMPDEST POP PUSH2 0xC7 PUSH2 0x1F6 JUMP JUMPDEST PUSH1 0x40 MLOAD PUSH2 0xD4 SWAP2 SWAP1 PUSH2 0xA00 JUMP JUMPDEST PUSH1 0x40 MLOAD DUP1 SWAP2 SUB SWAP1 RETURN JUMPDEST CALLVALUE DUP1 ISZERO PUSH2 0xE8 JUMPI PUSH0 DUP1 REVERT JUMPDEST POP PUSH2 0x103 PUSH1 0x4 DUP1 CALLDATASIZE SUB DUP2 ADD SWAP1 PUSH2 0xFE SWAP2 SWAP1 PUSH2 0xA40 JUMP JUMPDEST PUSH2 0x21B JUMP JUMPDEST PUSH1 0x40 MLOAD PUSH2 0x110 SWAP2 SWAP1 PUSH2 0xADB JUMP JUMPDEST PUSH1 0x40 MLOAD DUP1 SWAP2 SUB SWAP1 RETURN JUMPDEST CALLVALUE DUP1 ISZERO PUSH2 0x124 JUMPI PUSH0 DUP1 REVERT JUMPDEST POP PUSH2 0x12D PUSH2 0x6DA JUMP JUMPDEST PUSH1 0x40 MLOAD PUSH2 0x13A SWAP2 SWAP1 PUSH2 0xA00 JUMP JUMPDEST PUSH1 0x40 MLOAD DUP1 SWAP2 SUB SWAP1 RETURN JUMPDEST CALLVALUE DUP1 ISZERO PUSH2 0x14E JUMPI PUSH0 DUP1 REVERT JUMPDEST POP PUSH2 0x157 PUSH2 0x6FD JUMP JUMPDEST STOP JUMPDEST CALLVALUE DUP1 ISZERO PUSH2 0x164 JUMPI PUSH0 DUP1 REVERT JUMPDEST POP PUSH2 0x16D PUSH2 0x891 JUMP JUMPDEST PUSH1 0x40 MLOAD PUSH2 0x17A SWAP2 SWAP1 PUSH2 0xB13 JUMP JUMPDEST PUSH1 0x40 MLOAD DUP1 SWAP2 SUB SWAP1 RETURN JUMPDEST CALLVALUE DUP1 ISZERO PUSH2 0x18E JUMPI PUSH0 DUP1 REVERT JUMPDEST POP PUSH2 0x197 PUSH2 0x897 JUMP JUMPDEST PUSH1 0x40 MLOAD PUSH2 0x1A4 SWAP2 SWAP1 PUSH2 0xB13 JUMP JUMPDEST PUSH1 0x40 MLOAD DUP1 SWAP2 SUB SWAP1 RETURN JUMPDEST CALLVALUE DUP1 ISZERO PUSH2 0x1B8 JUMPI PUSH0 DUP1 REVERT JUMPDEST POP PUSH2 0x1C1 PUSH2 0x8A7 JUMP JUMPDEST PUSH1 0x40 MLOAD PUSH2 0x1CE SWAP2 SWAP1 PUSH2 0xADB JUMP JUMPDEST PUSH1 0x40 MLOAD DUP1 SWAP2 SUB SWAP1 RETURN JUMPDEST PUSH2 0x1DF PUSH2 0x933 JUMP JUMPDEST STOP JUMPDEST PUSH0 PUSH1 0x4 PUSH0 SWAP1 SLOAD SWAP1 PUSH2 0x100 EXP SWAP1 DIV PUSH1 0xFF AND SWAP1 POP SWAP1 JUMP JUMPDEST PUSH1 0x1 PUSH0 SWAP1 SLOAD SWAP1 PUSH2 0x100 EXP SWAP1 DIV PUSH20 0xFFFFFFFFFFFFFFFFFFFFFFFFFFFFFFFFFFFFFFFF AND DUP2 JUMP JUMPDEST PUSH1 0x60 CALLER PUSH20 0xFFFFFFFFFFFFFFFFFFFFFFFFFFFFFFFFFFFFFFFF AND PUSH0 DUP1 SLOAD SWAP1 PUSH2 0x100 EXP SWAP1 DIV PUSH20 0xFFFFFFFFFFFFFFFFFFFFFFFFFFFFFFFFFFFFFFFF AND PUSH20 0xFFFFFFFFFFFFFFFFFFFFFFFFFFFFFFFFFFFFFFFF AND EQ PUSH2 0x2AA JUMPI PUSH1 0x40 MLOAD PUSH32 0x8C379A000000000000000000000000000000000000000000000000000000000 DUP2 MSTORE PUSH1 0x4 ADD PUSH2 0x2A1 SWAP1 PUSH2 0xB76 JUMP JUMPDEST PUSH1 0x40 MLOAD DUP1 SWAP2 SUB SWAP1 REVERT JUMPDEST PUSH1 0x3 DUP1 DUP2 GT ISZERO PUSH2 0x2BD JUMPI PUSH2 0x2BC PUSH2 0x935 JUMP JUMPDEST JUMPDEST PUSH1 0x4 PUSH0 SWAP1 SLOAD SWAP1 PUSH2 0x100 EXP SWAP1 DIV PUSH1 0xFF AND PUSH1 0x3 DUP2 GT ISZERO PUSH2 0x2DE JUMPI PUSH2 0x2DD PUSH2 0x935 JUMP JUMPDEST JUMPDEST GT ISZERO PUSH2 0x31F JUMPI PUSH1 0x40 MLOAD PUSH32 0x8C379A000000000000000000000000000000000000000000000000000000000 DUP2 MSTORE PUSH1 0x4 ADD PUSH2 0x316 SWAP1 PUSH2 0xBDE JUMP JUMPDEST PUSH1 0x40 MLOAD DUP1 SWAP2 SUB SWAP1 REVERT JUMPDEST DUP2 PUSH1 0x4 PUSH0 PUSH2 0x100 EXP DUP2 SLOAD DUP2 PUSH1 0xFF MUL NOT AND SWAP1 DUP4 PUSH1 0x3 DUP2 GT ISZERO PUSH2 0x343 JUMPI PUSH2 0x342 PUSH2 0x935 JUMP JUMPDEST JUMPDEST MUL OR SWAP1 SSTORE POP PUSH1 0x2 PUSH1 0x3 DUP2 GT ISZERO PUSH2 0x35C JUMPI PUSH2 0x35B PUSH2 0x935 JUMP JUMPDEST JUMPDEST PUSH1 0x4 PUSH0 SWAP1 SLOAD SWAP1 PUSH2 0x100 EXP SWAP1 DIV PUSH1 0xFF AND PUSH1 0x3 DUP2 GT ISZERO PUSH2 0x37D JUMPI PUSH2 0x37C PUSH2 0x935 JUMP JUMPDEST JUMPDEST SUB PUSH2 0x48C JUMPI PUSH32 0xE18822188B13EA789744BB656325800D3B5025B3D956E508917ED2A260B33A8D PUSH1 0x40 MLOAD PUSH2 0x3AF SWAP1 PUSH2 0xC46 JUMP JUMPDEST PUSH1 0x40 MLOAD DUP1 SWAP2 SUB SWAP1 LOG1 PUSH1 0x40 MLOAD DUP1 PUSH1 0x40 ADD PUSH1 0x40 MSTORE DUP1 PUSH1 0x7 DUP2 MSTORE PUSH1 0x20 ADD PUSH32 0x5368697070656400000000000000000000000000000000000000000000000000 DUP2 MSTORE POP PUSH1 0x3 SWAP1 DUP2 PUSH2 0x3FB SWAP2 SWAP1 PUSH2 0xE8B JUMP JUMPDEST POP PUSH1 0x3 DUP1 SLOAD PUSH2 0x409 SWAP1 PUSH2 0xCBE JUMP JUMPDEST DUP1 PUSH1 0x1F ADD PUSH1 0x20 DUP1 SWAP2 DIV MUL PUSH1 0x20 ADD PUSH1 0x40 MLOAD SWAP1 DUP2 ADD PUSH1 0x40 MSTORE DUP1 SWAP3 SWAP2 SWAP1 DUP2 DUP2 MSTORE PUSH1 0x20 ADD DUP3 DUP1 SLOAD PUSH2 0x435 SWAP1 PUSH2 0xCBE JUMP JUMPDEST DUP1 ISZERO PUSH2 0x480 JUMPI DUP1 PUSH1 0x1F LT PUSH2 0x457 JUMPI PUSH2 0x100 DUP1 DUP4 SLOAD DIV MUL DUP4 MSTORE SWAP2 PUSH1 0x20 ADD SWAP2 PUSH2 0x480 JUMP JUMPDEST DUP3 ADD SWAP2 SWAP1 PUSH0 MSTORE PUSH1 0x20 PUSH0 KECCAK256 SWAP1 JUMPDEST DUP2 SLOAD DUP2 MSTORE SWAP1 PUSH1 0x1 ADD SWAP1 PUSH1 0x20 ADD DUP1 DUP4 GT PUSH2 0x463 JUMPI DUP3 SWAP1 SUB PUSH1 0x1F AND DUP3 ADD SWAP2 JUMPDEST POP POP POP POP POP SWAP1 POP PUSH2 0x6D5 JUMP JUMPDEST PUSH1 0x3 DUP1 DUP2 GT ISZERO PUSH2 0x49F JUMPI PUSH2 0x49E PUSH2 0x935 JUMP JUMPDEST JUMPDEST PUSH1 0x4 PUSH0 SWAP1 SLOAD SWAP1 PUSH2 0x100 EXP SWAP1 DIV PUSH1 0xFF AND PUSH1 0x3 DUP2 GT ISZERO PUSH2 0x4C0 JUMPI PUSH2 0x4BF PUSH2 0x935 JUMP JUMPDEST JUMPDEST SUB PUSH2 0x5CF JUMPI PUSH32 0xE18822188B13EA789744BB656325800D3B5025B3D956E508917ED2A260B33A8D PUSH1 0x40 MLOAD PUSH2 0x4F2 SWAP1 PUSH2 0xFA4 JUMP JUMPDEST PUSH1 0x40 MLOAD DUP1 SWAP2 SUB SWAP1 LOG1 PUSH1 0x40 MLOAD DUP1 PUSH1 0x40 ADD PUSH1 0x40 MSTORE DUP1 PUSH1 0x9 DUP2 MSTORE PUSH1 0x20 ADD PUSH32 0x44656C6976657265640000000000000000000000000000000000000000000000 DUP2 MSTORE POP PUSH1 0x3 SWAP1 DUP2 PUSH2 0x53E SWAP2 SWAP1 PUSH2 0xE8B JUMP JUMPDEST POP PUSH1 0x3 DUP1 SLOAD PUSH2 0x54C SWAP1 PUSH2 0xCBE JUMP JUMPDEST DUP1 PUSH1 0x1F ADD PUSH1 0x20 DUP1 SWAP2 DIV MUL PUSH1 0x20 ADD PUSH1 0x40 MLOAD SWAP1 DUP2 ADD PUSH1 0x40 MSTORE DUP1 SWAP3 SWAP2 SWAP1 DUP2 DUP2 MSTORE PUSH1 0x20 ADD DUP3 DUP1 SLOAD PUSH2 0x578 SWAP1 PUSH2 0xCBE JUMP JUMPDEST DUP1 ISZERO PUSH2 0x5C3 JUMPI DUP1 PUSH1 0x1F LT PUSH2 0x59A JUMPI PUSH2 0x100 DUP1 DUP4 SLOAD DIV MUL DUP4 MSTORE SWAP2 PUSH1 0x20 ADD SWAP2 PUSH2 0x5C3 JUMP JUMPDEST DUP3 ADD SWAP2 SWAP1 PUSH0 MSTORE PUSH1 0x20 PUSH0 KECCAK256 SWAP1 JUMPDEST DUP2 SLOAD DUP2 MSTORE SWAP1 PUSH1 0x1 ADD SWAP1 PUSH1 0x20 ADD DUP1 DUP4 GT PUSH2 0x5A6 JUMPI DUP3 SWAP1 SUB PUSH1 0x1F AND DUP3 ADD SWAP2 JUMPDEST POP POP POP POP POP SWAP1 POP PUSH2 0x6D5 JUMP JUMPDEST PUSH32 0xE18822188B13EA789744BB656325800D3B5025B3D956E508917ED2A260B33A8D PUSH1 0x40 MLOAD PUSH2 0x5FC SWAP1 PUSH2 0x100C JUMP JUMPDEST PUSH1 0x40 MLOAD DUP1 SWAP2 SUB SWAP1 LOG1 PUSH1 0x40 MLOAD DUP1 PUSH1 0x40 ADD PUSH1 0x40 MSTORE DUP1 PUSH1 0x7 DUP2 MSTORE PUSH1 0x20 ADD PUSH32 0x70656E64696E6700000000000000000000000000000000000000000000000000 DUP2 MSTORE POP PUSH1 0x3 SWAP1 DUP2 PUSH2 0x648 SWAP2 SWAP1 PUSH2 0xE8B JUMP JUMPDEST POP PUSH1 0x3 DUP1 SLOAD PUSH2 0x656 SWAP1 PUSH2 0xCBE JUMP JUMPDEST DUP1 PUSH1 0x1F ADD PUSH1 0x20 DUP1 SWAP2 DIV MUL PUSH1 0x20 ADD PUSH1 0x40 MLOAD SWAP1 DUP2 ADD PUSH1 0x40 MSTORE DUP1 SWAP3 SWAP2 SWAP1 DUP2 DUP2 MSTORE PUSH1 0x20 ADD DUP3 DUP1 SLOAD PUSH2 0x682 SWAP1 PUSH2 0xCBE JUMP JUMPDEST DUP1 ISZERO PUSH2 0x6CD JUMPI DUP1 PUSH1 0x1F LT PUSH2 0x6A4 JUMPI PUSH2 0x100 DUP1 DUP4 SLOAD DIV MUL DUP4 MSTORE SWAP2 PUSH1 0x20 ADD SWAP2 PUSH2 0x6CD JUMP JUMPDEST DUP3 ADD SWAP2 SWAP1 PUSH0 MSTORE PUSH1 0x20 PUSH0 KECCAK256 SWAP1 JUMPDEST DUP2 SLOAD DUP2 MSTORE SWAP1 PUSH1 0x1 ADD SWAP1 PUSH1 0x20 ADD DUP1 DUP4 GT PUSH2 0x6B0 JUMPI DUP3 SWAP1 SUB PUSH1 0x1F AND DUP3 ADD SWAP2 JUMPDEST POP POP POP POP POP SWAP1 POP JUMPDEST SWAP2 SWAP1 POP JUMP JUMPDEST PUSH0 DUP1 SLOAD SWAP1 PUSH2 0x100 EXP SWAP1 DIV PUSH20 0xFFFFFFFFFFFFFFFFFFFFFFFFFFFFFFFFFFFFFFFF AND DUP2 JUMP JUMPDEST CALLER PUSH20 0xFFFFFFFFFFFFFFFFFFFFFFFFFFFFFFFFFFFFFFFF AND PUSH0 DUP1 SLOAD SWAP1 PUSH2 0x100 EXP SWAP1 DIV PUSH20 0xFFFFFFFFFFFFFFFFFFFFFFFFFFFFFFFFFFFFFFFF AND PUSH20 0xFFFFFFFFFFFFFFFFFFFFFFFFFFFFFFFFFFFFFFFF AND EQ PUSH2 0x78A JUMPI PUSH1 0x40 MLOAD PUSH32 0x8C379A000000000000000000000000000000000000000000000000000000000 DUP2 MSTORE PUSH1 0x4 ADD PUSH2 0x781 SWAP1 PUSH2 0xB76 JUMP JUMPDEST PUSH1 0x40 MLOAD DUP1 SWAP2 SUB SWAP1 REVERT JUMPDEST PUSH8 0xDE0B6B3A7640000 PUSH1 0x2 SLOAD LT ISZERO PUSH2 0x7D7 JUMPI PUSH1 0x40 MLOAD PUSH32 0x8C379A000000000000000000000000000000000000000000000000000000000 DUP2 MSTORE PUSH1 0x4 ADD PUSH2 0x7CE SWAP1 PUSH2 0x1074 JUMP JUMPDEST PUSH1 0x40 MLOAD DUP1 SWAP2 SUB SWAP1 REVERT JUMPDEST PUSH8 0xDE0B6B3A7640000 PUSH1 0x2 SLOAD LT PUSH2 0x88F JUMPI PUSH20 0x78731D3CA6B7E34AC0F824C42A7CC18A495CABAB PUSH1 0x1 PUSH0 PUSH2 0x100 EXP DUP2 SLOAD DUP2 PUSH20 0xFFFFFFFFFFFFFFFFFFFFFFFFFFFFFFFFFFFFFFFF MUL NOT AND SWAP1 DUP4 PUSH20 0xFFFFFFFFFFFFFFFFFFFFFFFFFFFFFFFFFFFFFFFF AND MUL OR SWAP1 SSTORE POP PUSH1 0x1 PUSH1 0x4 PUSH0 PUSH2 0x100 EXP DUP2 SLOAD DUP2 PUSH1 0xFF MUL NOT AND SWAP1 DUP4 PUSH1 0x3 DUP2 GT ISZERO PUSH2 0x861 JUMPI PUSH2 0x860 PUSH2 0x935 JUMP JUMPDEST JUMPDEST MUL OR SWAP1 SSTORE POP PUSH1 0x40 MLOAD DUP1 PUSH1 0x60 ADD PUSH1 0x40 MSTORE DUP1 PUSH1 0x22 DUP2 MSTORE PUSH1 0x20 ADD PUSH2 0x1093 PUSH1 0x22 SWAP2 CODECOPY PUSH1 0x3 SWAP1 DUP2 PUSH2 0x88D SWAP2 SWAP1 PUSH2 0xE8B JUMP JUMPDEST POP JUMPDEST JUMP JUMPDEST PUSH1 0x2 SLOAD DUP2 JUMP JUMPDEST PUSH0 SELFBALANCE PUSH1 0x2 DUP2 SWAP1 SSTORE POP PUSH1 0x2 SLOAD SWAP1 POP SWAP1 JUMP JUMPDEST PUSH1 0x3 DUP1 SLOAD PUSH2 0x8B4 SWAP1 PUSH2 0xCBE JUMP JUMPDEST DUP1 PUSH1 0x1F ADD PUSH1 0x20 DUP1 SWAP2 DIV MUL PUSH1 0x20 ADD PUSH1 0x40 MLOAD SWAP1 DUP2 ADD PUSH1 0x40 MSTORE DUP1 SWAP3 SWAP2 SWAP1 DUP2 DUP2 MSTORE PUSH1 0x20 ADD DUP3 DUP1 SLOAD PUSH2 0x8E0 SWAP1 PUSH2 0xCBE JUMP JUMPDEST DUP1 ISZERO PUSH2 0x92B JUMPI DUP1 PUSH1 0x1F LT PUSH2 0x902 JUMPI PUSH2 0x100 DUP1 DUP4 SLOAD DIV MUL DUP4 MSTORE SWAP2 PUSH1 0x20 ADD SWAP2 PUSH2 0x92B JUMP JUMPDEST DUP3 ADD SWAP2 SWAP1 PUSH0 MSTORE PUSH1 0x20 PUSH0 KECCAK256 SWAP1 JUMPDEST DUP2 SLOAD DUP2 MSTORE SWAP1 PUSH1 0x1 ADD SWAP1 PUSH1 0x20 ADD DUP1 DUP4 GT PUSH2 0x90E JUMPI DUP3 SWAP1 SUB PUSH1 0x1F AND DUP3 ADD SWAP2 JUMPDEST POP POP POP POP POP DUP2 JUMP JUMPDEST JUMP JUMPDEST PUSH32 0x4E487B7100000000000000000000000000000000000000000000000000000000 PUSH0 MSTORE PUSH1 0x21 PUSH1 0x4 MSTORE PUSH1 0x24 PUSH0 REVERT JUMPDEST PUSH1 0x4 DUP2 LT PUSH2 0x973 JUMPI PUSH2 0x972 PUSH2 0x935 JUMP JUMPDEST JUMPDEST POP JUMP JUMPDEST PUSH0 DUP2 SWAP1 POP PUSH2 0x983 DUP3 PUSH2 0x962 JUMP JUMPDEST SWAP2 SWAP1 POP JUMP JUMPDEST PUSH0 PUSH2 0x992 DUP3 PUSH2 0x976 JUMP JUMPDEST SWAP1 POP SWAP2 SWAP1 POP JUMP JUMPDEST PUSH2 0x9A2 DUP2 PUSH2 0x988 JUMP JUMPDEST DUP3 MSTORE POP POP JUMP JUMPDEST PUSH0 PUSH1 0x20 DUP3 ADD SWAP1 POP PUSH2 0x9BB PUSH0 DUP4 ADD DUP5 PUSH2 0x999 JUMP JUMPDEST SWAP3 SWAP2 POP POP JUMP JUMPDEST PUSH0 PUSH20 0xFFFFFFFFFFFFFFFFFFFFFFFFFFFFFFFFFFFFFFFF DUP3 AND SWAP1 POP SWAP2 SWAP1 POP JUMP JUMPDEST PUSH0 PUSH2 0x9EA DUP3 PUSH2 0x9C1 JUMP JUMPDEST SWAP1 POP SWAP2 SWAP1 POP JUMP JUMPDEST PUSH2 0x9FA DUP2 PUSH2 0x9E0 JUMP JUMPDEST DUP3 MSTORE POP POP JUMP JUMPDEST PUSH0 PUSH1 0x20 DUP3 ADD SWAP1 POP PUSH2 0xA13 PUSH0 DUP4 ADD DUP5 PUSH2 0x9F1 JUMP JUMPDEST SWAP3 SWAP2 POP POP JUMP JUMPDEST PUSH0 DUP1 REVERT JUMPDEST PUSH1 0x4 DUP2 LT PUSH2 0xA29 JUMPI PUSH0 DUP1 REVERT JUMPDEST POP JUMP JUMPDEST PUSH0 DUP2 CALLDATALOAD SWAP1 POP PUSH2 0xA3A DUP2 PUSH2 0xA1D JUMP JUMPDEST SWAP3 SWAP2 POP POP JUMP JUMPDEST PUSH0 PUSH1 0x20 DUP3 DUP5 SUB SLT ISZERO PUSH2 0xA55 JUMPI PUSH2 0xA54 PUSH2 0xA19 JUMP JUMPDEST JUMPDEST PUSH0 PUSH2 0xA62 DUP5 DUP3 DUP6 ADD PUSH2 0xA2C JUMP JUMPDEST SWAP2 POP POP SWAP3 SWAP2 POP POP JUMP JUMPDEST PUSH0 DUP2 MLOAD SWAP1 POP SWAP2 SWAP1 POP JUMP JUMPDEST PUSH0 DUP3 DUP3 MSTORE PUSH1 0x20 DUP3 ADD SWAP1 POP SWAP3 SWAP2 POP POP JUMP JUMPDEST DUP3 DUP2 DUP4 MCOPY PUSH0 DUP4 DUP4 ADD MSTORE POP POP POP JUMP JUMPDEST PUSH0 PUSH1 0x1F NOT PUSH1 0x1F DUP4 ADD AND SWAP1 POP SWAP2 SWAP1 POP JUMP JUMPDEST PUSH0 PUSH2 0xAAD DUP3 PUSH2 0xA6B JUMP JUMPDEST PUSH2 0xAB7 DUP2 DUP6 PUSH2 0xA75 JUMP JUMPDEST SWAP4 POP PUSH2 0xAC7 DUP2 DUP6 PUSH1 0x20 DUP7 ADD PUSH2 0xA85 JUMP JUMPDEST PUSH2 0xAD0 DUP2 PUSH2 0xA93 JUMP JUMPDEST DUP5 ADD SWAP2 POP POP SWAP3 SWAP2 POP POP JUMP JUMPDEST PUSH0 PUSH1 0x20 DUP3 ADD SWAP1 POP DUP2 DUP2 SUB PUSH0 DUP4 ADD MSTORE PUSH2 0xAF3 DUP2 DUP5 PUSH2 0xAA3 JUMP JUMPDEST SWAP1 POP SWAP3 SWAP2 POP POP JUMP JUMPDEST PUSH0 DUP2 SWAP1 POP SWAP2 SWAP1 POP JUMP JUMPDEST PUSH2 0xB0D DUP2 PUSH2 0xAFB JUMP JUMPDEST DUP3 MSTORE POP POP JUMP JUMPDEST PUSH0 PUSH1 0x20 DUP3 ADD SWAP1 POP PUSH2 0xB26 PUSH0 DUP4 ADD DUP5 PUSH2 0xB04 JUMP JUMPDEST SWAP3 SWAP2 POP POP JUMP JUMPDEST PUSH32 0x4E6F74204F776E65720000000000000000000000000000000000000000000000 PUSH0 DUP3 ADD MSTORE POP JUMP JUMPDEST PUSH0 PUSH2 0xB60 PUSH1 0x9 DUP4 PUSH2 0xA75 JUMP JUMPDEST SWAP2 POP PUSH2 0xB6B DUP3 PUSH2 0xB2C JUMP JUMPDEST PUSH1 0x20 DUP3 ADD SWAP1 POP SWAP2 SWAP1 POP JUMP JUMPDEST PUSH0 PUSH1 0x20 DUP3 ADD SWAP1 POP DUP2 DUP2 SUB PUSH0 DUP4 ADD MSTORE PUSH2 0xB8D DUP2 PUSH2 0xB54 JUMP JUMPDEST SWAP1 POP SWAP2 SWAP1 POP JUMP JUMPDEST PUSH32 0x416C72656164792044656C697665726564000000000000000000000000000000 PUSH0 DUP3 ADD MSTORE POP JUMP JUMPDEST PUSH0 PUSH2 0xBC8 PUSH1 0x11 DUP4 PUSH2 0xA75 JUMP JUMPDEST SWAP2 POP PUSH2 0xBD3 DUP3 PUSH2 0xB94 JUMP JUMPDEST PUSH1 0x20 DUP3 ADD SWAP1 POP SWAP2 SWAP1 POP JUMP JUMPDEST PUSH0 PUSH1 0x20 DUP3 ADD SWAP1 POP DUP2 DUP2 SUB PUSH0 DUP4 ADD MSTORE PUSH2 0xBF5 DUP2 PUSH2 0xBBC JUMP JUMPDEST SWAP1 POP SWAP2 SWAP1 POP JUMP JUMPDEST PUSH32 0x5368697070656400000000000000000000000000000000000000000000000000 PUSH0 DUP3 ADD MSTORE POP JUMP JUMPDEST PUSH0 PUSH2 0xC30 PUSH1 0x7 DUP4 PUSH2 0xA75 JUMP JUMPDEST SWAP2 POP PUSH2 0xC3B DUP3 PUSH2 0xBFC JUMP JUMPDEST PUSH1 0x20 DUP3 ADD SWAP1 POP SWAP2 SWAP1 POP JUMP JUMPDEST PUSH0 PUSH1 0x20 DUP3 ADD SWAP1 POP DUP2 DUP2 SUB PUSH0 DUP4 ADD MSTORE PUSH2 0xC5D DUP2 PUSH2 0xC24 JUMP JUMPDEST SWAP1 POP SWAP2 SWAP1 POP JUMP JUMPDEST PUSH32 0x4E487B7100000000000000000000000000000000000000000000000000000000 PUSH0 MSTORE PUSH1 0x41 PUSH1 0x4 MSTORE PUSH1 0x24 PUSH0 REVERT JUMPDEST PUSH32 0x4E487B7100000000000000000000000000000000000000000000000000000000 PUSH0 MSTORE PUSH1 0x22 PUSH1 0x4 MSTORE PUSH1 0x24 PUSH0 REVERT JUMPDEST PUSH0 PUSH1 0x2 DUP3 DIV SWAP1 POP PUSH1 0x1 DUP3 AND DUP1 PUSH2 0xCD5 JUMPI PUSH1 0x7F DUP3 AND SWAP2 POP JUMPDEST PUSH1 0x20 DUP3 LT DUP2 SUB PUSH2 0xCE8 JUMPI PUSH2 0xCE7 PUSH2 0xC91 JUMP JUMPDEST JUMPDEST POP SWAP2 SWAP1 POP JUMP JUMPDEST PUSH0 DUP2 SWAP1 POP DUP2 PUSH0 MSTORE PUSH1 0x20 PUSH0 KECCAK256 SWAP1 POP SWAP2 SWAP1 POP JUMP JUMPDEST PUSH0 PUSH1 0x20 PUSH1 0x1F DUP4 ADD DIV SWAP1 POP SWAP2 SWAP1 POP JUMP JUMPDEST PUSH0 DUP3 DUP3 SHL SWAP1 POP SWAP3 SWAP2 POP POP JUMP JUMPDEST PUSH0 PUSH1 0x8 DUP4 MUL PUSH2 0xD4A PUSH32 0xFFFFFFFFFFFFFFFFFFFFFFFFFFFFFFFFFFFFFFFFFFFFFFFFFFFFFFFFFFFFFFFF DUP3 PUSH2 0xD0F JUMP JUMPDEST PUSH2 0xD54 DUP7 DUP4 PUSH2 0xD0F JUMP JUMPDEST SWAP6 POP DUP1 NOT DUP5 AND SWAP4 POP DUP1 DUP7 AND DUP5 OR SWAP3 POP POP POP SWAP4 SWAP3 POP POP POP JUMP JUMPDEST PUSH0 DUP2 SWAP1 POP SWAP2 SWAP1 POP JUMP JUMPDEST PUSH0 PUSH2 0xD8F PUSH2 0xD8A PUSH2 0xD85 DUP5 PUSH2 0xAFB JUMP JUMPDEST PUSH2 0xD6C JUMP JUMPDEST PUSH2 0xAFB JUMP JUMPDEST SWAP1 POP SWAP2 SWAP1 POP JUMP JUMPDEST PUSH0 DUP2 SWAP1 POP SWAP2 SWAP1 POP JUMP JUMPDEST PUSH2 0xDA8 DUP4 PUSH2 0xD75 JUMP JUMPDEST PUSH2 0xDBC PUSH2 0xDB4 DUP3 PUSH2 0xD96 JUMP JUMPDEST DUP5 DUP5 SLOAD PUSH2 0xD1B JUMP JUMPDEST DUP3 SSTORE POP POP POP POP JUMP JUMPDEST PUSH0 SWAP1 JUMP JUMPDEST PUSH2 0xDD0 PUSH2 0xDC4 JUMP JUMPDEST PUSH2 0xDDB DUP2 DUP5 DUP5 PUSH2 0xD9F JUMP JUMPDEST POP POP POP JUMP JUMPDEST JUMPDEST DUP2 DUP2 LT ISZERO PUSH2 0xDFE JUMPI PUSH2 0xDF3 PUSH0 DUP3 PUSH2 0xDC8 JUMP JUMPDEST PUSH1 0x1 DUP2 ADD SWAP1 POP PUSH2 0xDE1 JUMP JUMPDEST POP POP JUMP JUMPDEST PUSH1 0x1F DUP3 GT ISZERO PUSH2 0xE43 JUMPI PUSH2 0xE14 DUP2 PUSH2 0xCEE JUMP JUMPDEST PUSH2 0xE1D DUP5 PUSH2 0xD00 JUMP JUMPDEST DUP2 ADD PUSH1 0x20 DUP6 LT ISZERO PUSH2 0xE2C JUMPI DUP2 SWAP1 POP JUMPDEST PUSH2 0xE40 PUSH2 0xE38 DUP6 PUSH2 0xD00 JUMP JUMPDEST DUP4 ADD DUP3 PUSH2 0xDE0 JUMP JUMPDEST POP POP JUMPDEST POP POP POP JUMP JUMPDEST PUSH0 DUP3 DUP3 SHR SWAP1 POP SWAP3 SWAP2 POP POP JUMP JUMPDEST PUSH0 PUSH2 0xE63 PUSH0 NOT DUP5 PUSH1 0x8 MUL PUSH2 0xE48 JUMP JUMPDEST NOT DUP1 DUP4 AND SWAP2 POP POP SWAP3 SWAP2 POP POP JUMP JUMPDEST PUSH0 PUSH2 0xE7B DUP4 DUP4 PUSH2 0xE54 JUMP JUMPDEST SWAP2 POP DUP3 PUSH1 0x2 MUL DUP3 OR SWAP1 POP SWAP3 SWAP2 POP POP JUMP JUMPDEST PUSH2 0xE94 DUP3 PUSH2 0xA6B JUMP JUMPDEST PUSH8 0xFFFFFFFFFFFFFFFF DUP2 GT ISZERO PUSH2 0xEAD JUMPI PUSH2 0xEAC PUSH2 0xC64 JUMP JUMPDEST JUMPDEST PUSH2 0xEB7 DUP3 SLOAD PUSH2 0xCBE JUMP JUMPDEST PUSH2 0xEC2 DUP3 DUP3 DUP6 PUSH2 0xE02 JUMP JUMPDEST PUSH0 PUSH1 0x20 SWAP1 POP PUSH1 0x1F DUP4 GT PUSH1 0x1 DUP2 EQ PUSH2 0xEF3 JUMPI PUSH0 DUP5 ISZERO PUSH2 0xEE1 JUMPI DUP3 DUP8 ADD MLOAD SWAP1 POP JUMPDEST PUSH2 0xEEB DUP6 DUP3 PUSH2 0xE70 JUMP JUMPDEST DUP7 SSTORE POP PUSH2 0xF52 JUMP JUMPDEST PUSH1 0x1F NOT DUP5 AND PUSH2 0xF01 DUP7 PUSH2 0xCEE JUMP JUMPDEST PUSH0 JUMPDEST DUP3 DUP2 LT ISZERO PUSH2 0xF28 JUMPI DUP5 DUP10 ADD MLOAD DUP3 SSTORE PUSH1 0x1 DUP3 ADD SWAP2 POP PUSH1 0x20 DUP6 ADD SWAP5 POP PUSH1 0x20 DUP2 ADD SWAP1 POP PUSH2 0xF03 JUMP JUMPDEST DUP7 DUP4 LT ISZERO PUSH2 0xF45 JUMPI DUP5 DUP10 ADD MLOAD PUSH2 0xF41 PUSH1 0x1F DUP10 AND DUP3 PUSH2 0xE54 JUMP JUMPDEST DUP4 SSTORE POP JUMPDEST PUSH1 0x1 PUSH1 0x2 DUP9 MUL ADD DUP9 SSTORE POP POP POP JUMPDEST POP POP POP POP POP POP JUMP JUMPDEST PUSH32 0x44656C6976657264000000000000000000000000000000000000000000000000 PUSH0 DUP3 ADD MSTORE POP JUMP JUMPDEST PUSH0 PUSH2 0xF8E PUSH1 0x8 DUP4 PUSH2 0xA75 JUMP JUMPDEST SWAP2 POP PUSH2 0xF99 DUP3 PUSH2 0xF5A JUMP JUMPDEST PUSH1 0x20 DUP3 ADD SWAP1 POP SWAP2 SWAP1 POP JUMP JUMPDEST PUSH0 PUSH1 0x20 DUP3 ADD SWAP1 POP DUP2 DUP2 SUB PUSH0 DUP4 ADD MSTORE PUSH2 0xFBB DUP2 PUSH2 0xF82 JUMP JUMPDEST SWAP1 POP SWAP2 SWAP1 POP JUMP JUMPDEST PUSH32 0x70656E64696E6700000000000000000000000000000000000000000000000000 PUSH0 DUP3 ADD MSTORE POP JUMP JUMPDEST PUSH0 PUSH2 0xFF6 PUSH1 0x7 DUP4 PUSH2 0xA75 JUMP JUMPDEST SWAP2 POP PUSH2 0x1001 DUP3 PUSH2 0xFC2 JUMP JUMPDEST PUSH1 0x20 DUP3 ADD SWAP1 POP SWAP2 SWAP1 POP JUMP JUMPDEST PUSH0 PUSH1 0x20 DUP3 ADD SWAP1 POP DUP2 DUP2 SUB PUSH0 DUP4 ADD MSTORE PUSH2 0x1023 DUP2 PUSH2 0xFEA JUMP JUMPDEST SWAP1 POP SWAP2 SWAP1 POP JUMP JUMPDEST PUSH32 0x496E73756666696369656E742042616C616E6365000000000000000000000000 PUSH0 DUP3 ADD MSTORE POP JUMP JUMPDEST PUSH0 PUSH2 0x105E PUSH1 0x14 DUP4 PUSH2 0xA75 JUMP JUMPDEST SWAP2 POP PUSH2 0x1069 DUP3 PUSH2 0x102A JUMP JUMPDEST PUSH1 0x20 DUP3 ADD SWAP1 POP SWAP2 SWAP1 POP JUMP JUMPDEST PUSH0 PUSH1 0x20 DUP3 ADD SWAP1 POP DUP2 DUP2 SUB PUSH0 DUP4 ADD MSTORE PUSH2 0x108B DUP2 PUSH2 0x1052 JUMP JUMPDEST SWAP1 POP SWAP2 SWAP1 POP JUMP INVALID 0x4F PUSH19 0x64657220486173204265656E20506C61636564 KECCAK256 MSTORE8 PUSH22 0x636365737366756C6C79A2646970667358221220165A 0xB5 MULMOD SLT BLOBHASH 0xE1 INVALID SWAP3 0x28 GT 0xDA KECCAK256 GT DUP2 SSTORE 0xC1 NOT 0xC9 PUSH21 0xD20990D8EAF9E08DC04760EB64736F6C634300081A STOP CALLER "
				},
				"gasEstimates": {
					"creation": {
						"codeDepositCost": "866000",
						"executionCost": "infinite",
						"totalCost": "infinite"
					},
					"external": {
						"Get_amount()": "207",
						"Owner_ship()": "infinite",
						"amount()": "2447",
						"get_status()": "2562",
						"message()": "infinite",
						"new_owner()": "2531",
						"owner()": "2572",
						"set_status(uint8)": "infinite",
						"update_balance()": "24592"
					}
				},
				"methodIdentifiers": {
					"Get_amount()": "f15820ff",
					"Owner_ship()": "9b47efe3",
					"amount()": "aa8c217c",
					"get_status()": "39aaba25",
					"message()": "e21f37ce",
					"new_owner()": "4552b04f",
					"owner()": "8da5cb5b",
					"set_status(uint8)": "6df427bc",
					"update_balance()": "c2133136"
				}
			},
			"storageLayout": {
				"storage": [
					{
						"astId": 3,
						"contract": "MiniProject.sol:mini_project",
						"label": "owner",
						"offset": 0,
						"slot": "0",
						"type": "t_address"
					},
					{
						"astId": 5,
						"contract": "MiniProject.sol:mini_project",
						"label": "new_owner",
						"offset": 0,
						"slot": "1",
						"type": "t_address"
					},
					{
						"astId": 7,
						"contract": "MiniProject.sol:mini_project",
						"label": "amount",
						"offset": 0,
						"slot": "2",
						"type": "t_uint256"
					},
					{
						"astId": 10,
						"contract": "MiniProject.sol:mini_project",
						"label": "message",
						"offset": 0,
						"slot": "3",
						"type": "t_string_storage"
					},
					{
						"astId": 69,
						"contract": "MiniProject.sol:mini_project",
						"label": "status",
						"offset": 0,
						"slot": "4",
						"type": "t_enum(Status)23"
					}
				],
				"types": {
					"t_address": {
						"encoding": "inplace",
						"label": "address",
						"numberOfBytes": "20"
					},
					"t_enum(Status)23": {
						"encoding": "inplace",
						"label": "enum mini_project.Status",
						"numberOfBytes": "1"
					},
					"t_string_storage": {
						"encoding": "bytes",
						"label": "string",
						"numberOfBytes": "32"
					},
					"t_uint256": {
						"encoding": "inplace",
						"label": "uint256",
						"numberOfBytes": "32"
					}
				}
			},
			"userdoc": {
				"kind": "user",
				"methods": {},
				"version": 1
			}
		}
	}
}