{
	"contracts/Innovation/MiniProject.sol": {
		"mini_project": {
			"abi": [
				{
					"inputs": [],
					"stateMutability": "nonpayable",
					"type": "constructor"
				},
				{
					"anonymous": false,
					"inputs": [
						{
							"indexed": false,
							"internalType": "string",
							"name": "mymsg",
							"type": "string"
						}
					],
					"name": "Status_set",
					"type": "event"
				},
				{
					"inputs": [],
					"name": "Get_amount",
					"outputs": [],
					"stateMutability": "payable",
					"type": "function"
				},
				{
					"inputs": [],
					"name": "Owner_ship",
					"outputs": [],
					"stateMutability": "nonpayable",
					"type": "function"
				},
				{
					"inputs": [],
					"name": "amount",
					"outputs": [
						{
							"internalType": "uint256",
							"name": "",
							"type": "uint256"
						}
					],
					"stateMutability": "view",
					"type": "function"
				},
				{
					"inputs": [],
					"name": "get_status",
					"outputs": [
						{
							"internalType": "enum mini_project.Status",
							"name": "",
							"type": "uint8"
						}
					],
					"stateMutability": "view",
					"type": "function"
				},
				{
					"inputs": [],
					"name": "message",
					"outputs": [
						{
							"internalType": "string",
							"name": "",
							"type": "string"
						}
					],
					"stateMutability": "view",
					"type": "function"
				},
				{
					"inputs": [],
					"name": "new_owner",
					"outputs": [
						{
							"internalType": "address",
							"name": "",
							"type": "address"
						}
					],
					"stateMutability": "view",
					"type": "function"
				},
				{
					"inputs": [],
					"name": "owner",
					"outputs": [
						{
							"internalType": "address",
							"name": "",
							"type": "address"
						}
					],
					"stateMutability": "view",
					"type": "function"
				},
				{
					"inputs": [
						{
							"internalType": "enum mini_project.Status",
							"name": "x",
							"type": "uint8"
						}
					],
					"name": "set_status",
					"outputs": [
						{
							"internalType": "string",
							"name": "",
							"type": "string"
						}
					],
					"stateMutability": "nonpayable",
					"type": "function"
				},
				{
					"inputs": [],
					"name": "update_balance",
					"outputs": [
						{
							"internalType": "uint256",
							"name": "",
							"type": "uint256"
						}
					],
					"stateMutability": "nonpayable",
					"type": "function"
				}
			],
			"devdoc": {
				"kind": "dev",
				"methods": {},
				"version": 1
			},
			"evm": {
				"assembly": "    /* \"contracts/Innovation/MiniProject.sol\":57:1939  contract mini_project {... */\n  mstore(0x40, 0x80)\n    /* \"contracts/Innovation/MiniProject.sol\":169:202  string public message = \"Welcome\" */\n  mload(0x40)\n  dup1\n  0x40\n  add\n  0x40\n  mstore\n  dup1\n  0x07\n  dup2\n  mstore\n  0x20\n  add\n  0x57656c636f6d6500000000000000000000000000000000000000000000000000\n  dup2\n  mstore\n  pop\n  0x03\n  swap1\n  dup2\n  tag_1\n  swap2\n  swap1\n  tag_2\n  jump\t// in\ntag_1:\n  pop\n    /* \"contracts/Innovation/MiniProject.sol\":209:290  constructor() {... */\n  callvalue\n  dup1\n  iszero\n  tag_3\n  jumpi\n  0x00\n  dup1\n  revert\ntag_3:\n  pop\n    /* \"contracts/Innovation/MiniProject.sol\":241:283  0xAb8483F64d9C6d1EcF9b849Ae677dD3315835cb2 */\n  0xab8483f64d9c6d1ecf9b849ae677dd3315835cb2\n    /* \"contracts/Innovation/MiniProject.sol\":233:238  owner */\n  0x00\n  dup1\n    /* \"contracts/Innovation/MiniProject.sol\":233:283  owner = 0xAb8483F64d9C6d1EcF9b849Ae677dD3315835cb2 */\n  0x0100\n  exp\n  dup2\n  sload\n  dup2\n  0xffffffffffffffffffffffffffffffffffffffff\n  mul\n  not\n  and\n  swap1\n  dup4\n  0xffffffffffffffffffffffffffffffffffffffff\n  and\n  mul\n  or\n  swap1\n  sstore\n  pop\n    /* \"contracts/Innovation/MiniProject.sol\":57:1939  contract mini_project {... */\n  jump(tag_6)\n    /* \"#utility.yul\":7:106   */\ntag_7:\n    /* \"#utility.yul\":59:65   */\n  0x00\n    /* \"#utility.yul\":93:98   */\n  dup2\n    /* \"#utility.yul\":87:99   */\n  mload\n    /* \"#utility.yul\":77:99   */\n  swap1\n  pop\n    /* \"#utility.yul\":7:106   */\n  swap2\n  swap1\n  pop\n  jump\t// out\n    /* \"#utility.yul\":112:292   */\ntag_8:\n    /* \"#utility.yul\":160:237   */\n  0x4e487b7100000000000000000000000000000000000000000000000000000000\n    /* \"#utility.yul\":157:158   */\n  0x00\n    /* \"#utility.yul\":150:238   */\n  mstore\n    /* \"#utility.yul\":257:261   */\n  0x41\n    /* \"#utility.yul\":254:255   */\n  0x04\n    /* \"#utility.yul\":247:262   */\n  mstore\n    /* \"#utility.yul\":281:285   */\n  0x24\n    /* \"#utility.yul\":278:279   */\n  0x00\n    /* \"#utility.yul\":271:286   */\n  revert\n    /* \"#utility.yul\":298:478   */\ntag_9:\n    /* \"#utility.yul\":346:423   */\n  0x4e487b7100000000000000000000000000000000000000000000000000000000\n    /* \"#utility.yul\":343:344   */\n  0x00\n    /* \"#utility.yul\":336:424   */\n  mstore\n    /* \"#utility.yul\":443:447   */\n  0x22\n    /* \"#utility.yul\":440:441   */\n  0x04\n    /* \"#utility.yul\":433:448   */\n  mstore\n    /* \"#utility.yul\":467:471   */\n  0x24\n    /* \"#utility.yul\":464:465   */\n  0x00\n    /* \"#utility.yul\":457:472   */\n  revert\n    /* \"#utility.yul\":484:804   */\ntag_10:\n    /* \"#utility.yul\":528:534   */\n  0x00\n    /* \"#utility.yul\":565:566   */\n  0x02\n    /* \"#utility.yul\":559:563   */\n  dup3\n    /* \"#utility.yul\":555:567   */\n  div\n    /* \"#utility.yul\":545:567   */\n  swap1\n  pop\n    /* \"#utility.yul\":612:613   */\n  0x01\n    /* \"#utility.yul\":606:610   */\n  dup3\n    /* \"#utility.yul\":602:614   */\n  and\n    /* \"#utility.yul\":633:651   */\n  dup1\n    /* \"#utility.yul\":623:704   */\n  tag_32\n  jumpi\n    /* \"#utility.yul\":689:693   */\n  0x7f\n    /* \"#utility.yul\":681:687   */\n  dup3\n    /* \"#utility.yul\":677:694   */\n  and\n    /* \"#utility.yul\":667:694   */\n  swap2\n  pop\n    /* \"#utility.yul\":623:704   */\ntag_32:\n    /* \"#utility.yul\":751:753   */\n  0x20\n    /* \"#utility.yul\":743:749   */\n  dup3\n    /* \"#utility.yul\":740:754   */\n  lt\n    /* \"#utility.yul\":720:738   */\n  dup2\n    /* \"#utility.yul\":717:755   */\n  sub\n    /* \"#utility.yul\":714:798   */\n  tag_33\n  jumpi\n    /* \"#utility.yul\":770:788   */\n  tag_34\n  tag_9\n  jump\t// in\ntag_34:\n    /* \"#utility.yul\":714:798   */\ntag_33:\n    /* \"#utility.yul\":535:804   */\n  pop\n    /* \"#utility.yul\":484:804   */\n  swap2\n  swap1\n  pop\n  jump\t// out\n    /* \"#utility.yul\":810:951   */\ntag_11:\n    /* \"#utility.yul\":859:863   */\n  0x00\n    /* \"#utility.yul\":882:885   */\n  dup2\n    /* \"#utility.yul\":874:885   */\n  swap1\n  pop\n    /* \"#utility.yul\":905:908   */\n  dup2\n    /* \"#utility.yul\":902:903   */\n  0x00\n    /* \"#utility.yul\":895:909   */\n  mstore\n    /* \"#utility.yul\":939:943   */\n  0x20\n    /* \"#utility.yul\":936:937   */\n  0x00\n    /* \"#utility.yul\":926:944   */\n  keccak256\n    /* \"#utility.yul\":918:944   */\n  swap1\n  pop\n    /* \"#utility.yul\":810:951   */\n  swap2\n  swap1\n  pop\n  jump\t// out\n    /* \"#utility.yul\":957:1050   */\ntag_12:\n    /* \"#utility.yul\":994:1000   */\n  0x00\n    /* \"#utility.yul\":1041:1043   */\n  0x20\n    /* \"#utility.yul\":1036:1038   */\n  0x1f\n    /* \"#utility.yul\":1029:1034   */\n  dup4\n    /* \"#utility.yul\":1025:1039   */\n  add\n    /* \"#utility.yul\":1021:1044   */\n  div\n    /* \"#utility.yul\":1011:1044   */\n  swap1\n  pop\n    /* \"#utility.yul\":957:1050   */\n  swap2\n  swap1\n  pop\n  jump\t// out\n    /* \"#utility.yul\":1056:1163   */\ntag_13:\n    /* \"#utility.yul\":1100:1108   */\n  0x00\n    /* \"#utility.yul\":1150:1155   */\n  dup3\n    /* \"#utility.yul\":1144:1148   */\n  dup3\n    /* \"#utility.yul\":1140:1156   */\n  shl\n    /* \"#utility.yul\":1119:1156   */\n  swap1\n  pop\n    /* \"#utility.yul\":1056:1163   */\n  swap3\n  swap2\n  pop\n  pop\n  jump\t// out\n    /* \"#utility.yul\":1169:1562   */\ntag_14:\n    /* \"#utility.yul\":1238:1244   */\n  0x00\n    /* \"#utility.yul\":1288:1289   */\n  0x08\n    /* \"#utility.yul\":1276:1286   */\n  dup4\n    /* \"#utility.yul\":1272:1290   */\n  mul\n    /* \"#utility.yul\":1311:1408   */\n  tag_39\n    /* \"#utility.yul\":1341:1407   */\n  0xffffffffffffffffffffffffffffffffffffffffffffffffffffffffffffffff\n    /* \"#utility.yul\":1330:1339   */\n  dup3\n    /* \"#utility.yul\":1311:1408   */\n  tag_13\n  jump\t// in\ntag_39:\n    /* \"#utility.yul\":1429:1468   */\n  tag_40\n    /* \"#utility.yul\":1459:1467   */\n  dup7\n    /* \"#utility.yul\":1448:1457   */\n  dup4\n    /* \"#utility.yul\":1429:1468   */\n  tag_13\n  jump\t// in\ntag_40:\n    /* \"#utility.yul\":1417:1468   */\n  swap6\n  pop\n    /* \"#utility.yul\":1501:1505   */\n  dup1\n    /* \"#utility.yul\":1497:1506   */\n  not\n    /* \"#utility.yul\":1490:1495   */\n  dup5\n    /* \"#utility.yul\":1486:1507   */\n  and\n    /* \"#utility.yul\":1477:1507   */\n  swap4\n  pop\n    /* \"#utility.yul\":1550:1554   */\n  dup1\n    /* \"#utility.yul\":1540:1548   */\n  dup7\n    /* \"#utility.yul\":1536:1555   */\n  and\n    /* \"#utility.yul\":1529:1534   */\n  dup5\n    /* \"#utility.yul\":1526:1556   */\n  or\n    /* \"#utility.yul\":1516:1556   */\n  swap3\n  pop\n    /* \"#utility.yul\":1245:1562   */\n  pop\n  pop\n    /* \"#utility.yul\":1169:1562   */\n  swap4\n  swap3\n  pop\n  pop\n  pop\n  jump\t// out\n    /* \"#utility.yul\":1568:1645   */\ntag_15:\n    /* \"#utility.yul\":1605:1612   */\n  0x00\n    /* \"#utility.yul\":1634:1639   */\n  dup2\n    /* \"#utility.yul\":1623:1639   */\n  swap1\n  pop\n    /* \"#utility.yul\":1568:1645   */\n  swap2\n  swap1\n  pop\n  jump\t// out\n    /* \"#utility.yul\":1651:1711   */\ntag_16:\n    /* \"#utility.yul\":1679:1682   */\n  0x00\n    /* \"#utility.yul\":1700:1705   */\n  dup2\n    /* \"#utility.yul\":1693:1705   */\n  swap1\n  pop\n    /* \"#utility.yul\":1651:1711   */\n  swap2\n  swap1\n  pop\n  jump\t// out\n    /* \"#utility.yul\":1717:1859   */\ntag_17:\n    /* \"#utility.yul\":1767:1776   */\n  0x00\n    /* \"#utility.yul\":1800:1853   */\n  tag_44\n    /* \"#utility.yul\":1818:1852   */\n  tag_45\n    /* \"#utility.yul\":1827:1851   */\n  tag_46\n    /* \"#utility.yul\":1845:1850   */\n  dup5\n    /* \"#utility.yul\":1827:1851   */\n  tag_15\n  jump\t// in\ntag_46:\n    /* \"#utility.yul\":1818:1852   */\n  tag_16\n  jump\t// in\ntag_45:\n    /* \"#utility.yul\":1800:1853   */\n  tag_15\n  jump\t// in\ntag_44:\n    /* \"#utility.yul\":1787:1853   */\n  swap1\n  pop\n    /* \"#utility.yul\":1717:1859   */\n  swap2\n  swap1\n  pop\n  jump\t// out\n    /* \"#utility.yul\":1865:1940   */\ntag_18:\n    /* \"#utility.yul\":1908:1911   */\n  0x00\n    /* \"#utility.yul\":1929:1934   */\n  dup2\n    /* \"#utility.yul\":1922:1934   */\n  swap1\n  pop\n    /* \"#utility.yul\":1865:1940   */\n  swap2\n  swap1\n  pop\n  jump\t// out\n    /* \"#utility.yul\":1946:2215   */\ntag_19:\n    /* \"#utility.yul\":2056:2095   */\n  tag_49\n    /* \"#utility.yul\":2087:2094   */\n  dup4\n    /* \"#utility.yul\":2056:2095   */\n  tag_17\n  jump\t// in\ntag_49:\n    /* \"#utility.yul\":2117:2208   */\n  tag_50\n    /* \"#utility.yul\":2166:2207   */\n  tag_51\n    /* \"#utility.yul\":2190:2206   */\n  dup3\n    /* \"#utility.yul\":2166:2207   */\n  tag_18\n  jump\t// in\ntag_51:\n    /* \"#utility.yul\":2158:2164   */\n  dup5\n    /* \"#utility.yul\":2151:2155   */\n  dup5\n    /* \"#utility.yul\":2145:2156   */\n  sload\n    /* \"#utility.yul\":2117:2208   */\n  tag_14\n  jump\t// in\ntag_50:\n    /* \"#utility.yul\":2111:2115   */\n  dup3\n    /* \"#utility.yul\":2104:2209   */\n  sstore\n    /* \"#utility.yul\":2022:2215   */\n  pop\n    /* \"#utility.yul\":1946:2215   */\n  pop\n  pop\n  pop\n  jump\t// out\n    /* \"#utility.yul\":2221:2294   */\ntag_20:\n    /* \"#utility.yul\":2266:2269   */\n  0x00\n    /* \"#utility.yul\":2221:2294   */\n  swap1\n  jump\t// out\n    /* \"#utility.yul\":2300:2489   */\ntag_21:\n    /* \"#utility.yul\":2377:2409   */\n  tag_54\n  tag_20\n  jump\t// in\ntag_54:\n    /* \"#utility.yul\":2418:2483   */\n  tag_55\n    /* \"#utility.yul\":2476:2482   */\n  dup2\n    /* \"#utility.yul\":2468:2474   */\n  dup5\n    /* \"#utility.yul\":2462:2466   */\n  dup5\n    /* \"#utility.yul\":2418:2483   */\n  tag_19\n  jump\t// in\ntag_55:\n    /* \"#utility.yul\":2353:2489   */\n  pop\n    /* \"#utility.yul\":2300:2489   */\n  pop\n  pop\n  jump\t// out\n    /* \"#utility.yul\":2495:2681   */\ntag_22:\n    /* \"#utility.yul\":2555:2675   */\ntag_57:\n    /* \"#utility.yul\":2572:2575   */\n  dup2\n    /* \"#utility.yul\":2565:2570   */\n  dup2\n    /* \"#utility.yul\":2562:2576   */\n  lt\n    /* \"#utility.yul\":2555:2675   */\n  iszero\n  tag_59\n  jumpi\n    /* \"#utility.yul\":2626:2665   */\n  tag_60\n    /* \"#utility.yul\":2663:2664   */\n  0x00\n    /* \"#utility.yul\":2656:2661   */\n  dup3\n    /* \"#utility.yul\":2626:2665   */\n  tag_21\n  jump\t// in\ntag_60:\n    /* \"#utility.yul\":2599:2600   */\n  0x01\n    /* \"#utility.yul\":2592:2597   */\n  dup2\n    /* \"#utility.yul\":2588:2601   */\n  add\n    /* \"#utility.yul\":2579:2601   */\n  swap1\n  pop\n    /* \"#utility.yul\":2555:2675   */\n  jump(tag_57)\ntag_59:\n    /* \"#utility.yul\":2495:2681   */\n  pop\n  pop\n  jump\t// out\n    /* \"#utility.yul\":2687:3230   */\ntag_23:\n    /* \"#utility.yul\":2788:2790   */\n  0x1f\n    /* \"#utility.yul\":2783:2786   */\n  dup3\n    /* \"#utility.yul\":2780:2791   */\n  gt\n    /* \"#utility.yul\":2777:3223   */\n  iszero\n  tag_62\n  jumpi\n    /* \"#utility.yul\":2822:2860   */\n  tag_63\n    /* \"#utility.yul\":2854:2859   */\n  dup2\n    /* \"#utility.yul\":2822:2860   */\n  tag_11\n  jump\t// in\ntag_63:\n    /* \"#utility.yul\":2906:2935   */\n  tag_64\n    /* \"#utility.yul\":2924:2934   */\n  dup5\n    /* \"#utility.yul\":2906:2935   */\n  tag_12\n  jump\t// in\ntag_64:\n    /* \"#utility.yul\":2896:2904   */\n  dup2\n    /* \"#utility.yul\":2892:2936   */\n  add\n    /* \"#utility.yul\":3089:3091   */\n  0x20\n    /* \"#utility.yul\":3077:3087   */\n  dup6\n    /* \"#utility.yul\":3074:3092   */\n  lt\n    /* \"#utility.yul\":3071:3120   */\n  iszero\n  tag_65\n  jumpi\n    /* \"#utility.yul\":3110:3118   */\n  dup2\n    /* \"#utility.yul\":3095:3118   */\n  swap1\n  pop\n    /* \"#utility.yul\":3071:3120   */\ntag_65:\n    /* \"#utility.yul\":3133:3213   */\n  tag_66\n    /* \"#utility.yul\":3189:3211   */\n  tag_67\n    /* \"#utility.yul\":3207:3210   */\n  dup6\n    /* \"#utility.yul\":3189:3211   */\n  tag_12\n  jump\t// in\ntag_67:\n    /* \"#utility.yul\":3179:3187   */\n  dup4\n    /* \"#utility.yul\":3175:3212   */\n  add\n    /* \"#utility.yul\":3162:3173   */\n  dup3\n    /* \"#utility.yul\":3133:3213   */\n  tag_22\n  jump\t// in\ntag_66:\n    /* \"#utility.yul\":2792:3223   */\n  pop\n  pop\n    /* \"#utility.yul\":2777:3223   */\ntag_62:\n    /* \"#utility.yul\":2687:3230   */\n  pop\n  pop\n  pop\n  jump\t// out\n    /* \"#utility.yul\":3236:3353   */\ntag_24:\n    /* \"#utility.yul\":3290:3298   */\n  0x00\n    /* \"#utility.yul\":3340:3345   */\n  dup3\n    /* \"#utility.yul\":3334:3338   */\n  dup3\n    /* \"#utility.yul\":3330:3346   */\n  shr\n    /* \"#utility.yul\":3309:3346   */\n  swap1\n  pop\n    /* \"#utility.yul\":3236:3353   */\n  swap3\n  swap2\n  pop\n  pop\n  jump\t// out\n    /* \"#utility.yul\":3359:3528   */\ntag_25:\n    /* \"#utility.yul\":3403:3409   */\n  0x00\n    /* \"#utility.yul\":3436:3487   */\n  tag_70\n    /* \"#utility.yul\":3484:3485   */\n  0x00\n    /* \"#utility.yul\":3480:3486   */\n  not\n    /* \"#utility.yul\":3472:3477   */\n  dup5\n    /* \"#utility.yul\":3469:3470   */\n  0x08\n    /* \"#utility.yul\":3465:3478   */\n  mul\n    /* \"#utility.yul\":3436:3487   */\n  tag_24\n  jump\t// in\ntag_70:\n    /* \"#utility.yul\":3432:3488   */\n  not\n    /* \"#utility.yul\":3517:3521   */\n  dup1\n    /* \"#utility.yul\":3511:3515   */\n  dup4\n    /* \"#utility.yul\":3507:3522   */\n  and\n    /* \"#utility.yul\":3497:3522   */\n  swap2\n  pop\n    /* \"#utility.yul\":3410:3528   */\n  pop\n    /* \"#utility.yul\":3359:3528   */\n  swap3\n  swap2\n  pop\n  pop\n  jump\t// out\n    /* \"#utility.yul\":3533:3828   */\ntag_26:\n    /* \"#utility.yul\":3609:3613   */\n  0x00\n    /* \"#utility.yul\":3755:3784   */\n  tag_72\n    /* \"#utility.yul\":3780:3783   */\n  dup4\n    /* \"#utility.yul\":3774:3778   */\n  dup4\n    /* \"#utility.yul\":3755:3784   */\n  tag_25\n  jump\t// in\ntag_72:\n    /* \"#utility.yul\":3747:3784   */\n  swap2\n  pop\n    /* \"#utility.yul\":3817:3820   */\n  dup3\n    /* \"#utility.yul\":3814:3815   */\n  0x02\n    /* \"#utility.yul\":3810:3821   */\n  mul\n    /* \"#utility.yul\":3804:3808   */\n  dup3\n    /* \"#utility.yul\":3801:3822   */\n  or\n    /* \"#utility.yul\":3793:3822   */\n  swap1\n  pop\n    /* \"#utility.yul\":3533:3828   */\n  swap3\n  swap2\n  pop\n  pop\n  jump\t// out\n    /* \"#utility.yul\":3833:5228   */\ntag_2:\n    /* \"#utility.yul\":3950:3987   */\n  tag_74\n    /* \"#utility.yul\":3983:3986   */\n  dup3\n    /* \"#utility.yul\":3950:3987   */\n  tag_7\n  jump\t// in\ntag_74:\n    /* \"#utility.yul\":4052:4070   */\n  0xffffffffffffffff\n    /* \"#utility.yul\":4044:4050   */\n  dup2\n    /* \"#utility.yul\":4041:4071   */\n  gt\n    /* \"#utility.yul\":4038:4094   */\n  iszero\n  tag_75\n  jumpi\n    /* \"#utility.yul\":4074:4092   */\n  tag_76\n  tag_8\n  jump\t// in\ntag_76:\n    /* \"#utility.yul\":4038:4094   */\ntag_75:\n    /* \"#utility.yul\":4118:4156   */\n  tag_77\n    /* \"#utility.yul\":4150:4154   */\n  dup3\n    /* \"#utility.yul\":4144:4155   */\n  sload\n    /* \"#utility.yul\":4118:4156   */\n  tag_10\n  jump\t// in\ntag_77:\n    /* \"#utility.yul\":4203:4270   */\n  tag_78\n    /* \"#utility.yul\":4263:4269   */\n  dup3\n    /* \"#utility.yul\":4255:4261   */\n  dup3\n    /* \"#utility.yul\":4249:4253   */\n  dup6\n    /* \"#utility.yul\":4203:4270   */\n  tag_23\n  jump\t// in\ntag_78:\n    /* \"#utility.yul\":4297:4298   */\n  0x00\n    /* \"#utility.yul\":4321:4325   */\n  0x20\n    /* \"#utility.yul\":4308:4325   */\n  swap1\n  pop\n    /* \"#utility.yul\":4353:4355   */\n  0x1f\n    /* \"#utility.yul\":4345:4351   */\n  dup4\n    /* \"#utility.yul\":4342:4356   */\n  gt\n    /* \"#utility.yul\":4370:4371   */\n  0x01\n    /* \"#utility.yul\":4365:4983   */\n  dup2\n  eq\n  tag_80\n  jumpi\n    /* \"#utility.yul\":5027:5028   */\n  0x00\n    /* \"#utility.yul\":5044:5050   */\n  dup5\n    /* \"#utility.yul\":5041:5118   */\n  iszero\n  tag_81\n  jumpi\n    /* \"#utility.yul\":5093:5102   */\n  dup3\n    /* \"#utility.yul\":5088:5091   */\n  dup8\n    /* \"#utility.yul\":5084:5103   */\n  add\n    /* \"#utility.yul\":5078:5104   */\n  mload\n    /* \"#utility.yul\":5069:5104   */\n  swap1\n  pop\n    /* \"#utility.yul\":5041:5118   */\ntag_81:\n    /* \"#utility.yul\":5144:5211   */\n  tag_82\n    /* \"#utility.yul\":5204:5210   */\n  dup6\n    /* \"#utility.yul\":5197:5202   */\n  dup3\n    /* \"#utility.yul\":5144:5211   */\n  tag_26\n  jump\t// in\ntag_82:\n    /* \"#utility.yul\":5138:5142   */\n  dup7\n    /* \"#utility.yul\":5131:5212   */\n  sstore\n    /* \"#utility.yul\":5000:5222   */\n  pop\n    /* \"#utility.yul\":4335:5222   */\n  jump(tag_79)\n    /* \"#utility.yul\":4365:4983   */\ntag_80:\n    /* \"#utility.yul\":4417:4421   */\n  0x1f\n    /* \"#utility.yul\":4413:4422   */\n  not\n    /* \"#utility.yul\":4405:4411   */\n  dup5\n    /* \"#utility.yul\":4401:4423   */\n  and\n    /* \"#utility.yul\":4451:4488   */\n  tag_83\n    /* \"#utility.yul\":4483:4487   */\n  dup7\n    /* \"#utility.yul\":4451:4488   */\n  tag_11\n  jump\t// in\ntag_83:\n    /* \"#utility.yul\":4510:4511   */\n  0x00\n    /* \"#utility.yul\":4524:4732   */\ntag_84:\n    /* \"#utility.yul\":4538:4545   */\n  dup3\n    /* \"#utility.yul\":4535:4536   */\n  dup2\n    /* \"#utility.yul\":4532:4546   */\n  lt\n    /* \"#utility.yul\":4524:4732   */\n  iszero\n  tag_86\n  jumpi\n    /* \"#utility.yul\":4617:4626   */\n  dup5\n    /* \"#utility.yul\":4612:4615   */\n  dup10\n    /* \"#utility.yul\":4608:4627   */\n  add\n    /* \"#utility.yul\":4602:4628   */\n  mload\n    /* \"#utility.yul\":4594:4600   */\n  dup3\n    /* \"#utility.yul\":4587:4629   */\n  sstore\n    /* \"#utility.yul\":4668:4669   */\n  0x01\n    /* \"#utility.yul\":4660:4666   */\n  dup3\n    /* \"#utility.yul\":4656:4670   */\n  add\n    /* \"#utility.yul\":4646:4670   */\n  swap2\n  pop\n    /* \"#utility.yul\":4715:4717   */\n  0x20\n    /* \"#utility.yul\":4704:4713   */\n  dup6\n    /* \"#utility.yul\":4700:4718   */\n  add\n    /* \"#utility.yul\":4687:4718   */\n  swap5\n  pop\n    /* \"#utility.yul\":4561:4565   */\n  0x20\n    /* \"#utility.yul\":4558:4559   */\n  dup2\n    /* \"#utility.yul\":4554:4566   */\n  add\n    /* \"#utility.yul\":4549:4566   */\n  swap1\n  pop\n    /* \"#utility.yul\":4524:4732   */\n  jump(tag_84)\ntag_86:\n    /* \"#utility.yul\":4760:4766   */\n  dup7\n    /* \"#utility.yul\":4751:4758   */\n  dup4\n    /* \"#utility.yul\":4748:4767   */\n  lt\n    /* \"#utility.yul\":4745:4924   */\n  iszero\n  tag_87\n  jumpi\n    /* \"#utility.yul\":4818:4827   */\n  dup5\n    /* \"#utility.yul\":4813:4816   */\n  dup10\n    /* \"#utility.yul\":4809:4828   */\n  add\n    /* \"#utility.yul\":4803:4829   */\n  mload\n    /* \"#utility.yul\":4861:4909   */\n  tag_88\n    /* \"#utility.yul\":4903:4907   */\n  0x1f\n    /* \"#utility.yul\":4895:4901   */\n  dup10\n    /* \"#utility.yul\":4891:4908   */\n  and\n    /* \"#utility.yul\":4880:4889   */\n  dup3\n    /* \"#utility.yul\":4861:4909   */\n  tag_25\n  jump\t// in\ntag_88:\n    /* \"#utility.yul\":4853:4859   */\n  dup4\n    /* \"#utility.yul\":4846:4910   */\n  sstore\n    /* \"#utility.yul\":4768:4924   */\n  pop\n    /* \"#utility.yul\":4745:4924   */\ntag_87:\n    /* \"#utility.yul\":4970:4971   */\n  0x01\n    /* \"#utility.yul\":4966:4967   */\n  0x02\n    /* \"#utility.yul\":4958:4964   */\n  dup9\n    /* \"#utility.yul\":4954:4968   */\n  mul\n    /* \"#utility.yul\":4950:4972   */\n  add\n    /* \"#utility.yul\":4944:4948   */\n  dup9\n    /* \"#utility.yul\":4937:4973   */\n  sstore\n    /* \"#utility.yul\":4372:4983   */\n  pop\n  pop\n  pop\n    /* \"#utility.yul\":4335:5222   */\ntag_79:\n  pop\n    /* \"#utility.yul\":3925:5228   */\n  pop\n  pop\n  pop\n    /* \"#utility.yul\":3833:5228   */\n  pop\n  pop\n  jump\t// out\n    /* \"contracts/Innovation/MiniProject.sol\":57:1939  contract mini_project {... */\ntag_6:\n  dataSize(sub_0)\n  dup1\n  dataOffset(sub_0)\n  0x00\n  codecopy\n  0x00\n  return\nstop\n\nsub_0: assembly {\n        /* \"contracts/Innovation/MiniProject.sol\":57:1939  contract mini_project {... */\n      mstore(0x40, 0x80)\n      jumpi(tag_1, lt(calldatasize, 0x04))\n      shr(0xe0, calldataload(0x00))\n      dup1\n      0x9b47efe3\n      gt\n      tag_11\n      jumpi\n      dup1\n      0x9b47efe3\n      eq\n      tag_6\n      jumpi\n      dup1\n      0xaa8c217c\n      eq\n      tag_7\n      jumpi\n      dup1\n      0xc2133136\n      eq\n      tag_8\n      jumpi\n      dup1\n      0xe21f37ce\n      eq\n      tag_9\n      jumpi\n      dup1\n      0xf15820ff\n      eq\n      tag_10\n      jumpi\n      jump(tag_1)\n    tag_11:\n      dup1\n      0x39aaba25\n      eq\n      tag_2\n      jumpi\n      dup1\n      0x4552b04f\n      eq\n      tag_3\n      jumpi\n      dup1\n      0x6df427bc\n      eq\n      tag_4\n      jumpi\n      dup1\n      0x8da5cb5b\n      eq\n      tag_5\n      jumpi\n    tag_1:\n      0x00\n      dup1\n      revert\n        /* \"contracts/Innovation/MiniProject.sol\":818:912  function get_status() public view returns (Status) {... */\n    tag_2:\n      callvalue\n      dup1\n      iszero\n      tag_12\n      jumpi\n      0x00\n      dup1\n      revert\n    tag_12:\n      pop\n      tag_13\n      tag_14\n      jump\t// in\n    tag_13:\n      mload(0x40)\n      tag_15\n      swap2\n      swap1\n      tag_16\n      jump\t// in\n    tag_15:\n      mload(0x40)\n      dup1\n      swap2\n      sub\n      swap1\n      return\n        /* \"contracts/Innovation/MiniProject.sol\":111:135  address public new_owner */\n    tag_3:\n      callvalue\n      dup1\n      iszero\n      tag_17\n      jumpi\n      0x00\n      dup1\n      revert\n    tag_17:\n      pop\n      tag_18\n      tag_19\n      jump\t// in\n    tag_18:\n      mload(0x40)\n      tag_20\n      swap2\n      swap1\n      tag_21\n      jump\t// in\n    tag_20:\n      mload(0x40)\n      dup1\n      swap2\n      sub\n      swap1\n      return\n        /* \"contracts/Innovation/MiniProject.sol\":918:1488  function set_status(Status x)... */\n    tag_4:\n      callvalue\n      dup1\n      iszero\n      tag_22\n      jumpi\n      0x00\n      dup1\n      revert\n    tag_22:\n      pop\n      tag_23\n      0x04\n      dup1\n      calldatasize\n      sub\n      dup2\n      add\n      swap1\n      tag_24\n      swap2\n      swap1\n      tag_25\n      jump\t// in\n    tag_24:\n      tag_26\n      jump\t// in\n    tag_23:\n      mload(0x40)\n      tag_27\n      swap2\n      swap1\n      tag_28\n      jump\t// in\n    tag_27:\n      mload(0x40)\n      dup1\n      swap2\n      sub\n      swap1\n      return\n        /* \"contracts/Innovation/MiniProject.sol\":85:105  address public owner */\n    tag_5:\n      callvalue\n      dup1\n      iszero\n      tag_29\n      jumpi\n      0x00\n      dup1\n      revert\n    tag_29:\n      pop\n      tag_30\n      tag_31\n      jump\t// in\n    tag_30:\n      mload(0x40)\n      tag_32\n      swap2\n      swap1\n      tag_21\n      jump\t// in\n    tag_32:\n      mload(0x40)\n      dup1\n      swap2\n      sub\n      swap1\n      return\n        /* \"contracts/Innovation/MiniProject.sol\":1666:1937  function Owner_ship() public only_owner balance_checker {... */\n    tag_6:\n      callvalue\n      dup1\n      iszero\n      tag_33\n      jumpi\n      0x00\n      dup1\n      revert\n    tag_33:\n      pop\n      tag_34\n      tag_35\n      jump\t// in\n    tag_34:\n      stop\n        /* \"contracts/Innovation/MiniProject.sol\":141:162  uint256 public amount */\n    tag_7:\n      callvalue\n      dup1\n      iszero\n      tag_36\n      jumpi\n      0x00\n      dup1\n      revert\n    tag_36:\n      pop\n      tag_37\n      tag_38\n      jump\t// in\n    tag_37:\n      mload(0x40)\n      tag_39\n      swap2\n      swap1\n      tag_40\n      jump\t// in\n    tag_39:\n      mload(0x40)\n      dup1\n      swap2\n      sub\n      swap1\n      return\n        /* \"contracts/Innovation/MiniProject.sol\":1539:1660  function update_balance() public returns (uint256) {... */\n    tag_8:\n      callvalue\n      dup1\n      iszero\n      tag_41\n      jumpi\n      0x00\n      dup1\n      revert\n    tag_41:\n      pop\n      tag_42\n      tag_43\n      jump\t// in\n    tag_42:\n      mload(0x40)\n      tag_44\n      swap2\n      swap1\n      tag_40\n      jump\t// in\n    tag_44:\n      mload(0x40)\n      dup1\n      swap2\n      sub\n      swap1\n      return\n        /* \"contracts/Innovation/MiniProject.sol\":169:202  string public message = \"Welcome\" */\n    tag_9:\n      callvalue\n      dup1\n      iszero\n      tag_45\n      jumpi\n      0x00\n      dup1\n      revert\n    tag_45:\n      pop\n      tag_46\n      tag_47\n      jump\t// in\n    tag_46:\n      mload(0x40)\n      tag_48\n      swap2\n      swap1\n      tag_28\n      jump\t// in\n    tag_48:\n      mload(0x40)\n      dup1\n      swap2\n      sub\n      swap1\n      return\n        /* \"contracts/Innovation/MiniProject.sol\":1494:1533  function Get_amount() public payable {} */\n    tag_10:\n      tag_49\n      tag_50\n      jump\t// in\n    tag_49:\n      stop\n        /* \"contracts/Innovation/MiniProject.sol\":818:912  function get_status() public view returns (Status) {... */\n    tag_14:\n        /* \"contracts/Innovation/MiniProject.sol\":861:867  Status */\n      0x00\n        /* \"contracts/Innovation/MiniProject.sol\":898:904  status */\n      0x04\n      0x00\n      swap1\n      sload\n      swap1\n      0x0100\n      exp\n      swap1\n      div\n      0xff\n      and\n        /* \"contracts/Innovation/MiniProject.sol\":891:904  return status */\n      swap1\n      pop\n        /* \"contracts/Innovation/MiniProject.sol\":818:912  function get_status() public view returns (Status) {... */\n      swap1\n      jump\t// out\n        /* \"contracts/Innovation/MiniProject.sol\":111:135  address public new_owner */\n    tag_19:\n      0x01\n      0x00\n      swap1\n      sload\n      swap1\n      0x0100\n      exp\n      swap1\n      div\n      0xffffffffffffffffffffffffffffffffffffffff\n      and\n      dup2\n      jump\t// out\n        /* \"contracts/Innovation/MiniProject.sol\":918:1488  function set_status(Status x)... */\n    tag_26:\n        /* \"contracts/Innovation/MiniProject.sol\":1020:1033  string memory */\n      0x60\n        /* \"contracts/Innovation/MiniProject.sol\":439:449  msg.sender */\n      caller\n        /* \"contracts/Innovation/MiniProject.sol\":430:449  owner == msg.sender */\n      0xffffffffffffffffffffffffffffffffffffffff\n      and\n        /* \"contracts/Innovation/MiniProject.sol\":430:435  owner */\n      0x00\n      dup1\n      sload\n      swap1\n      0x0100\n      exp\n      swap1\n      div\n      0xffffffffffffffffffffffffffffffffffffffff\n      and\n        /* \"contracts/Innovation/MiniProject.sol\":430:449  owner == msg.sender */\n      0xffffffffffffffffffffffffffffffffffffffff\n      and\n      eq\n        /* \"contracts/Innovation/MiniProject.sol\":422:463  require(owner == msg.sender, \"Not Owner\") */\n      tag_53\n      jumpi\n      mload(0x40)\n      0x08c379a000000000000000000000000000000000000000000000000000000000\n      dup2\n      mstore\n      0x04\n      add\n      tag_54\n      swap1\n      tag_55\n      jump\t// in\n    tag_54:\n      mload(0x40)\n      dup1\n      swap2\n      sub\n      swap1\n      revert\n    tag_53:\n        /* \"contracts/Innovation/MiniProject.sol\":678:694  type(Status).max */\n      0x03\n        /* \"contracts/Innovation/MiniProject.sol\":670:695  uint256(type(Status).max) */\n      dup1\n      dup2\n      gt\n      iszero\n      tag_57\n      jumpi\n      tag_58\n      tag_59\n      jump\t// in\n    tag_58:\n    tag_57:\n        /* \"contracts/Innovation/MiniProject.sol\":659:665  status */\n      0x04\n      0x00\n      swap1\n      sload\n      swap1\n      0x0100\n      exp\n      swap1\n      div\n      0xff\n      and\n        /* \"contracts/Innovation/MiniProject.sol\":651:666  uint256(status) */\n      0x03\n      dup2\n      gt\n      iszero\n      tag_60\n      jumpi\n      tag_61\n      tag_59\n      jump\t// in\n    tag_61:\n    tag_60:\n        /* \"contracts/Innovation/MiniProject.sol\":651:695  uint256(status) <= uint256(type(Status).max) */\n      gt\n      iszero\n        /* \"contracts/Innovation/MiniProject.sol\":630:738  require(... */\n      tag_62\n      jumpi\n      mload(0x40)\n      0x08c379a000000000000000000000000000000000000000000000000000000000\n      dup2\n      mstore\n      0x04\n      add\n      tag_63\n      swap1\n      tag_64\n      jump\t// in\n    tag_63:\n      mload(0x40)\n      dup1\n      swap2\n      sub\n      swap1\n      revert\n    tag_62:\n        /* \"contracts/Innovation/MiniProject.sol\":1058:1059  x */\n      dup2\n        /* \"contracts/Innovation/MiniProject.sol\":1049:1055  status */\n      0x04\n      0x00\n        /* \"contracts/Innovation/MiniProject.sol\":1049:1059  status = x */\n      0x0100\n      exp\n      dup2\n      sload\n      dup2\n      0xff\n      mul\n      not\n      and\n      swap1\n      dup4\n      0x03\n      dup2\n      gt\n      iszero\n      tag_66\n      jumpi\n      tag_67\n      tag_59\n      jump\t// in\n    tag_67:\n    tag_66:\n      mul\n      or\n      swap1\n      sstore\n      pop\n        /* \"contracts/Innovation/MiniProject.sol\":1083:1097  Status.Shipped */\n      0x02\n        /* \"contracts/Innovation/MiniProject.sol\":1073:1097  status == Status.Shipped */\n      0x03\n      dup2\n      gt\n      iszero\n      tag_68\n      jumpi\n      tag_69\n      tag_59\n      jump\t// in\n    tag_69:\n    tag_68:\n        /* \"contracts/Innovation/MiniProject.sol\":1073:1079  status */\n      0x04\n      0x00\n      swap1\n      sload\n      swap1\n      0x0100\n      exp\n      swap1\n      div\n      0xff\n      and\n        /* \"contracts/Innovation/MiniProject.sol\":1073:1097  status == Status.Shipped */\n      0x03\n      dup2\n      gt\n      iszero\n      tag_70\n      jumpi\n      tag_71\n      tag_59\n      jump\t// in\n    tag_71:\n    tag_70:\n      sub\n        /* \"contracts/Innovation/MiniProject.sol\":1069:1482  if (status == Status.Shipped) {... */\n      tag_72\n      jumpi\n        /* \"contracts/Innovation/MiniProject.sol\":1118:1139  Status_set(\"Shipped\") */\n      0xe18822188b13ea789744bb656325800d3b5025b3d956e508917ed2a260b33a8d\n      mload(0x40)\n      tag_73\n      swap1\n      tag_74\n      jump\t// in\n    tag_73:\n      mload(0x40)\n      dup1\n      swap2\n      sub\n      swap1\n      log1\n        /* \"contracts/Innovation/MiniProject.sol\":1153:1172  message = \"Shipped\" */\n      mload(0x40)\n      dup1\n      0x40\n      add\n      0x40\n      mstore\n      dup1\n      0x07\n      dup2\n      mstore\n      0x20\n      add\n      0x5368697070656400000000000000000000000000000000000000000000000000\n      dup2\n      mstore\n      pop\n        /* \"contracts/Innovation/MiniProject.sol\":1153:1160  message */\n      0x03\n        /* \"contracts/Innovation/MiniProject.sol\":1153:1172  message = \"Shipped\" */\n      swap1\n      dup2\n      tag_75\n      swap2\n      swap1\n      tag_76\n      jump\t// in\n    tag_75:\n      pop\n        /* \"contracts/Innovation/MiniProject.sol\":1193:1200  message */\n      0x03\n        /* \"contracts/Innovation/MiniProject.sol\":1186:1200  return message */\n      dup1\n      sload\n      tag_77\n      swap1\n      tag_78\n      jump\t// in\n    tag_77:\n      dup1\n      0x1f\n      add\n      0x20\n      dup1\n      swap2\n      div\n      mul\n      0x20\n      add\n      mload(0x40)\n      swap1\n      dup2\n      add\n      0x40\n      mstore\n      dup1\n      swap3\n      swap2\n      swap1\n      dup2\n      dup2\n      mstore\n      0x20\n      add\n      dup3\n      dup1\n      sload\n      tag_79\n      swap1\n      tag_78\n      jump\t// in\n    tag_79:\n      dup1\n      iszero\n      tag_80\n      jumpi\n      dup1\n      0x1f\n      lt\n      tag_81\n      jumpi\n      0x0100\n      dup1\n      dup4\n      sload\n      div\n      mul\n      dup4\n      mstore\n      swap2\n      0x20\n      add\n      swap2\n      jump(tag_80)\n    tag_81:\n      dup3\n      add\n      swap2\n      swap1\n      0x00\n      mstore\n      keccak256(0x00, 0x20)\n      swap1\n    tag_82:\n      dup2\n      sload\n      dup2\n      mstore\n      swap1\n      0x01\n      add\n      swap1\n      0x20\n      add\n      dup1\n      dup4\n      gt\n      tag_82\n      jumpi\n      dup3\n      swap1\n      sub\n      0x1f\n      and\n      dup3\n      add\n      swap2\n    tag_80:\n      pop\n      pop\n      pop\n      pop\n      pop\n      swap1\n      pop\n      jump(tag_65)\n        /* \"contracts/Innovation/MiniProject.sol\":1069:1482  if (status == Status.Shipped) {... */\n    tag_72:\n        /* \"contracts/Innovation/MiniProject.sol\":1231:1247  Status.Delivered */\n      0x03\n        /* \"contracts/Innovation/MiniProject.sol\":1221:1247  status == Status.Delivered */\n      dup1\n      dup2\n      gt\n      iszero\n      tag_84\n      jumpi\n      tag_85\n      tag_59\n      jump\t// in\n    tag_85:\n    tag_84:\n        /* \"contracts/Innovation/MiniProject.sol\":1221:1227  status */\n      0x04\n      0x00\n      swap1\n      sload\n      swap1\n      0x0100\n      exp\n      swap1\n      div\n      0xff\n      and\n        /* \"contracts/Innovation/MiniProject.sol\":1221:1247  status == Status.Delivered */\n      0x03\n      dup2\n      gt\n      iszero\n      tag_86\n      jumpi\n      tag_87\n      tag_59\n      jump\t// in\n    tag_87:\n    tag_86:\n      sub\n        /* \"contracts/Innovation/MiniProject.sol\":1217:1482  if (status == Status.Delivered) {... */\n      tag_88\n      jumpi\n        /* \"contracts/Innovation/MiniProject.sol\":1268:1290  Status_set(\"Deliverd\") */\n      0xe18822188b13ea789744bb656325800d3b5025b3d956e508917ed2a260b33a8d\n      mload(0x40)\n      tag_89\n      swap1\n      tag_90\n      jump\t// in\n    tag_89:\n      mload(0x40)\n      dup1\n      swap2\n      sub\n      swap1\n      log1\n        /* \"contracts/Innovation/MiniProject.sol\":1304:1325  message = \"Delivered\" */\n      mload(0x40)\n      dup1\n      0x40\n      add\n      0x40\n      mstore\n      dup1\n      0x09\n      dup2\n      mstore\n      0x20\n      add\n      0x44656c6976657265640000000000000000000000000000000000000000000000\n      dup2\n      mstore\n      pop\n        /* \"contracts/Innovation/MiniProject.sol\":1304:1311  message */\n      0x03\n        /* \"contracts/Innovation/MiniProject.sol\":1304:1325  message = \"Delivered\" */\n      swap1\n      dup2\n      tag_91\n      swap2\n      swap1\n      tag_76\n      jump\t// in\n    tag_91:\n      pop\n        /* \"contracts/Innovation/MiniProject.sol\":1346:1353  message */\n      0x03\n        /* \"contracts/Innovation/MiniProject.sol\":1339:1353  return message */\n      dup1\n      sload\n      tag_92\n      swap1\n      tag_78\n      jump\t// in\n    tag_92:\n      dup1\n      0x1f\n      add\n      0x20\n      dup1\n      swap2\n      div\n      mul\n      0x20\n      add\n      mload(0x40)\n      swap1\n      dup2\n      add\n      0x40\n      mstore\n      dup1\n      swap3\n      swap2\n      swap1\n      dup2\n      dup2\n      mstore\n      0x20\n      add\n      dup3\n      dup1\n      sload\n      tag_93\n      swap1\n      tag_78\n      jump\t// in\n    tag_93:\n      dup1\n      iszero\n      tag_94\n      jumpi\n      dup1\n      0x1f\n      lt\n      tag_95\n      jumpi\n      0x0100\n      dup1\n      dup4\n      sload\n      div\n      mul\n      dup4\n      mstore\n      swap2\n      0x20\n      add\n      swap2\n      jump(tag_94)\n    tag_95:\n      dup3\n      add\n      swap2\n      swap1\n      0x00\n      mstore\n      keccak256(0x00, 0x20)\n      swap1\n    tag_96:\n      dup2\n      sload\n      dup2\n      mstore\n      swap1\n      0x01\n      add\n      swap1\n      0x20\n      add\n      dup1\n      dup4\n      gt\n      tag_96\n      jumpi\n      dup3\n      swap1\n      sub\n      0x1f\n      and\n      dup3\n      add\n      swap2\n    tag_94:\n      pop\n      pop\n      pop\n      pop\n      pop\n      swap1\n      pop\n      jump(tag_65)\n        /* \"contracts/Innovation/MiniProject.sol\":1217:1482  if (status == Status.Delivered) {... */\n    tag_88:\n        /* \"contracts/Innovation/MiniProject.sol\":1389:1410  Status_set(\"pending\") */\n      0xe18822188b13ea789744bb656325800d3b5025b3d956e508917ed2a260b33a8d\n      mload(0x40)\n      tag_98\n      swap1\n      tag_99\n      jump\t// in\n    tag_98:\n      mload(0x40)\n      dup1\n      swap2\n      sub\n      swap1\n      log1\n        /* \"contracts/Innovation/MiniProject.sol\":1424:1443  message = \"pending\" */\n      mload(0x40)\n      dup1\n      0x40\n      add\n      0x40\n      mstore\n      dup1\n      0x07\n      dup2\n      mstore\n      0x20\n      add\n      0x70656e64696e6700000000000000000000000000000000000000000000000000\n      dup2\n      mstore\n      pop\n        /* \"contracts/Innovation/MiniProject.sol\":1424:1431  message */\n      0x03\n        /* \"contracts/Innovation/MiniProject.sol\":1424:1443  message = \"pending\" */\n      swap1\n      dup2\n      tag_100\n      swap2\n      swap1\n      tag_76\n      jump\t// in\n    tag_100:\n      pop\n        /* \"contracts/Innovation/MiniProject.sol\":1464:1471  message */\n      0x03\n        /* \"contracts/Innovation/MiniProject.sol\":1457:1471  return message */\n      dup1\n      sload\n      tag_101\n      swap1\n      tag_78\n      jump\t// in\n    tag_101:\n      dup1\n      0x1f\n      add\n      0x20\n      dup1\n      swap2\n      div\n      mul\n      0x20\n      add\n      mload(0x40)\n      swap1\n      dup2\n      add\n      0x40\n      mstore\n      dup1\n      swap3\n      swap2\n      swap1\n      dup2\n      dup2\n      mstore\n      0x20\n      add\n      dup3\n      dup1\n      sload\n      tag_102\n      swap1\n      tag_78\n      jump\t// in\n    tag_102:\n      dup1\n      iszero\n      tag_103\n      jumpi\n      dup1\n      0x1f\n      lt\n      tag_104\n      jumpi\n      0x0100\n      dup1\n      dup4\n      sload\n      div\n      mul\n      dup4\n      mstore\n      swap2\n      0x20\n      add\n      swap2\n      jump(tag_103)\n    tag_104:\n      dup3\n      add\n      swap2\n      swap1\n      0x00\n      mstore\n      keccak256(0x00, 0x20)\n      swap1\n    tag_105:\n      dup2\n      sload\n      dup2\n      mstore\n      swap1\n      0x01\n      add\n      swap1\n      0x20\n      add\n      dup1\n      dup4\n      gt\n      tag_105\n      jumpi\n      dup3\n      swap1\n      sub\n      0x1f\n      and\n      dup3\n      add\n      swap2\n    tag_103:\n      pop\n      pop\n      pop\n      pop\n      pop\n      swap1\n      pop\n        /* \"contracts/Innovation/MiniProject.sol\":748:749  _ */\n    tag_65:\n        /* \"contracts/Innovation/MiniProject.sol\":918:1488  function set_status(Status x)... */\n      swap2\n      swap1\n      pop\n      jump\t// out\n        /* \"contracts/Innovation/MiniProject.sol\":85:105  address public owner */\n    tag_31:\n      0x00\n      dup1\n      sload\n      swap1\n      0x0100\n      exp\n      swap1\n      div\n      0xffffffffffffffffffffffffffffffffffffffff\n      and\n      dup2\n      jump\t// out\n        /* \"contracts/Innovation/MiniProject.sol\":1666:1937  function Owner_ship() public only_owner balance_checker {... */\n    tag_35:\n        /* \"contracts/Innovation/MiniProject.sol\":439:449  msg.sender */\n      caller\n        /* \"contracts/Innovation/MiniProject.sol\":430:449  owner == msg.sender */\n      0xffffffffffffffffffffffffffffffffffffffff\n      and\n        /* \"contracts/Innovation/MiniProject.sol\":430:435  owner */\n      0x00\n      dup1\n      sload\n      swap1\n      0x0100\n      exp\n      swap1\n      div\n      0xffffffffffffffffffffffffffffffffffffffff\n      and\n        /* \"contracts/Innovation/MiniProject.sol\":430:449  owner == msg.sender */\n      0xffffffffffffffffffffffffffffffffffffffff\n      and\n      eq\n        /* \"contracts/Innovation/MiniProject.sol\":422:463  require(owner == msg.sender, \"Not Owner\") */\n      tag_107\n      jumpi\n      mload(0x40)\n      0x08c379a000000000000000000000000000000000000000000000000000000000\n      dup2\n      mstore\n      0x04\n      add\n      tag_108\n      swap1\n      tag_55\n      jump\t// in\n    tag_108:\n      mload(0x40)\n      dup1\n      swap2\n      sub\n      swap1\n      revert\n    tag_107:\n        /* \"contracts/Innovation/MiniProject.sol\":541:548  1 ether */\n      0x0de0b6b3a7640000\n        /* \"contracts/Innovation/MiniProject.sol\":531:537  amount */\n      sload(0x02)\n        /* \"contracts/Innovation/MiniProject.sol\":531:548  amount >= 1 ether */\n      lt\n      iszero\n        /* \"contracts/Innovation/MiniProject.sol\":523:573  require(amount >= 1 ether, \"Insufficient Balance\") */\n      tag_110\n      jumpi\n      mload(0x40)\n      0x08c379a000000000000000000000000000000000000000000000000000000000\n      dup2\n      mstore\n      0x04\n      add\n      tag_111\n      swap1\n      tag_112\n      jump\t// in\n    tag_111:\n      mload(0x40)\n      dup1\n      swap2\n      sub\n      swap1\n      revert\n    tag_110:\n        /* \"contracts/Innovation/MiniProject.sol\":1746:1753  1 ether */\n      0x0de0b6b3a7640000\n        /* \"contracts/Innovation/MiniProject.sol\":1736:1742  amount */\n      sload(0x02)\n        /* \"contracts/Innovation/MiniProject.sol\":1736:1753  amount >= 1 ether */\n      lt\n        /* \"contracts/Innovation/MiniProject.sol\":1732:1931  if (amount >= 1 ether) {... */\n      tag_114\n      jumpi\n        /* \"contracts/Innovation/MiniProject.sol\":1781:1823  0x78731D3Ca6b7E34aC0F824c42a7cC18A495cabaB */\n      0x78731d3ca6b7e34ac0f824c42a7cc18a495cabab\n        /* \"contracts/Innovation/MiniProject.sol\":1769:1778  new_owner */\n      0x01\n      0x00\n        /* \"contracts/Innovation/MiniProject.sol\":1769:1823  new_owner = 0x78731D3Ca6b7E34aC0F824c42a7cC18A495cabaB */\n      0x0100\n      exp\n      dup2\n      sload\n      dup2\n      0xffffffffffffffffffffffffffffffffffffffff\n      mul\n      not\n      and\n      swap1\n      dup4\n      0xffffffffffffffffffffffffffffffffffffffff\n      and\n      mul\n      or\n      swap1\n      sstore\n      pop\n        /* \"contracts/Innovation/MiniProject.sol\":1846:1860  Status.Pending */\n      0x01\n        /* \"contracts/Innovation/MiniProject.sol\":1837:1843  status */\n      0x04\n      0x00\n        /* \"contracts/Innovation/MiniProject.sol\":1837:1860  status = Status.Pending */\n      0x0100\n      exp\n      dup2\n      sload\n      dup2\n      0xff\n      mul\n      not\n      and\n      swap1\n      dup4\n      0x03\n      dup2\n      gt\n      iszero\n      tag_115\n      jumpi\n      tag_116\n      tag_59\n      jump\t// in\n    tag_116:\n    tag_115:\n      mul\n      or\n      swap1\n      sstore\n      pop\n        /* \"contracts/Innovation/MiniProject.sol\":1874:1920  message = \"Order Has Been Placed Successfully\" */\n      mload(0x40)\n      dup1\n      0x60\n      add\n      0x40\n      mstore\n      dup1\n      0x22\n      dup2\n      mstore\n      0x20\n      add\n      data_96dfabbf07d0c6a780e51fb0d2039d68e0c52ce84c414db1c1d50292fb2d54f7\n      0x22\n      swap2\n      codecopy\n        /* \"contracts/Innovation/MiniProject.sol\":1874:1881  message */\n      0x03\n        /* \"contracts/Innovation/MiniProject.sol\":1874:1920  message = \"Order Has Been Placed Successfully\" */\n      swap1\n      dup2\n      tag_117\n      swap2\n      swap1\n      tag_76\n      jump\t// in\n    tag_117:\n      pop\n        /* \"contracts/Innovation/MiniProject.sol\":1732:1931  if (amount >= 1 ether) {... */\n    tag_114:\n        /* \"contracts/Innovation/MiniProject.sol\":1666:1937  function Owner_ship() public only_owner balance_checker {... */\n      jump\t// out\n        /* \"contracts/Innovation/MiniProject.sol\":141:162  uint256 public amount */\n    tag_38:\n      sload(0x02)\n      dup2\n      jump\t// out\n        /* \"contracts/Innovation/MiniProject.sol\":1539:1660  function update_balance() public returns (uint256) {... */\n    tag_43:\n        /* \"contracts/Innovation/MiniProject.sol\":1581:1588  uint256 */\n      0x00\n        /* \"contracts/Innovation/MiniProject.sol\":1609:1630  address(this).balance */\n      selfbalance\n        /* \"contracts/Innovation/MiniProject.sol\":1600:1606  amount */\n      0x02\n        /* \"contracts/Innovation/MiniProject.sol\":1600:1630  amount = address(this).balance */\n      dup2\n      swap1\n      sstore\n      pop\n        /* \"contracts/Innovation/MiniProject.sol\":1647:1653  amount */\n      sload(0x02)\n        /* \"contracts/Innovation/MiniProject.sol\":1640:1653  return amount */\n      swap1\n      pop\n        /* \"contracts/Innovation/MiniProject.sol\":1539:1660  function update_balance() public returns (uint256) {... */\n      swap1\n      jump\t// out\n        /* \"contracts/Innovation/MiniProject.sol\":169:202  string public message = \"Welcome\" */\n    tag_47:\n      0x03\n      dup1\n      sload\n      tag_119\n      swap1\n      tag_78\n      jump\t// in\n    tag_119:\n      dup1\n      0x1f\n      add\n      0x20\n      dup1\n      swap2\n      div\n      mul\n      0x20\n      add\n      mload(0x40)\n      swap1\n      dup2\n      add\n      0x40\n      mstore\n      dup1\n      swap3\n      swap2\n      swap1\n      dup2\n      dup2\n      mstore\n      0x20\n      add\n      dup3\n      dup1\n      sload\n      tag_120\n      swap1\n      tag_78\n      jump\t// in\n    tag_120:\n      dup1\n      iszero\n      tag_121\n      jumpi\n      dup1\n      0x1f\n      lt\n      tag_122\n      jumpi\n      0x0100\n      dup1\n      dup4\n      sload\n      div\n      mul\n      dup4\n      mstore\n      swap2\n      0x20\n      add\n      swap2\n      jump(tag_121)\n    tag_122:\n      dup3\n      add\n      swap2\n      swap1\n      0x00\n      mstore\n      keccak256(0x00, 0x20)\n      swap1\n    tag_123:\n      dup2\n      sload\n      dup2\n      mstore\n      swap1\n      0x01\n      add\n      swap1\n      0x20\n      add\n      dup1\n      dup4\n      gt\n      tag_123\n      jumpi\n      dup3\n      swap1\n      sub\n      0x1f\n      and\n      dup3\n      add\n      swap2\n    tag_121:\n      pop\n      pop\n      pop\n      pop\n      pop\n      dup2\n      jump\t// out\n        /* \"contracts/Innovation/MiniProject.sol\":1494:1533  function Get_amount() public payable {} */\n    tag_50:\n      jump\t// out\n        /* \"#utility.yul\":7:187   */\n    tag_59:\n        /* \"#utility.yul\":55:132   */\n      0x4e487b7100000000000000000000000000000000000000000000000000000000\n        /* \"#utility.yul\":52:53   */\n      0x00\n        /* \"#utility.yul\":45:133   */\n      mstore\n        /* \"#utility.yul\":152:156   */\n      0x21\n        /* \"#utility.yul\":149:150   */\n      0x04\n        /* \"#utility.yul\":142:157   */\n      mstore\n        /* \"#utility.yul\":176:180   */\n      0x24\n        /* \"#utility.yul\":173:174   */\n      0x00\n        /* \"#utility.yul\":166:181   */\n      revert\n        /* \"#utility.yul\":193:307   */\n    tag_125:\n        /* \"#utility.yul\":275:276   */\n      0x04\n        /* \"#utility.yul\":268:273   */\n      dup2\n        /* \"#utility.yul\":265:277   */\n      lt\n        /* \"#utility.yul\":255:301   */\n      tag_176\n      jumpi\n        /* \"#utility.yul\":281:299   */\n      tag_177\n      tag_59\n      jump\t// in\n    tag_177:\n        /* \"#utility.yul\":255:301   */\n    tag_176:\n        /* \"#utility.yul\":193:307   */\n      pop\n      jump\t// out\n        /* \"#utility.yul\":313:442   */\n    tag_126:\n        /* \"#utility.yul\":359:366   */\n      0x00\n        /* \"#utility.yul\":388:393   */\n      dup2\n        /* \"#utility.yul\":377:393   */\n      swap1\n      pop\n        /* \"#utility.yul\":394:436   */\n      tag_179\n        /* \"#utility.yul\":430:435   */\n      dup3\n        /* \"#utility.yul\":394:436   */\n      tag_125\n      jump\t// in\n    tag_179:\n        /* \"#utility.yul\":313:442   */\n      swap2\n      swap1\n      pop\n      jump\t// out\n        /* \"#utility.yul\":448:577   */\n    tag_127:\n        /* \"#utility.yul\":505:514   */\n      0x00\n        /* \"#utility.yul\":538:571   */\n      tag_181\n        /* \"#utility.yul\":565:570   */\n      dup3\n        /* \"#utility.yul\":538:571   */\n      tag_126\n      jump\t// in\n    tag_181:\n        /* \"#utility.yul\":525:571   */\n      swap1\n      pop\n        /* \"#utility.yul\":448:577   */\n      swap2\n      swap1\n      pop\n      jump\t// out\n        /* \"#utility.yul\":583:728   */\n    tag_128:\n        /* \"#utility.yul\":677:721   */\n      tag_183\n        /* \"#utility.yul\":715:720   */\n      dup2\n        /* \"#utility.yul\":677:721   */\n      tag_127\n      jump\t// in\n    tag_183:\n        /* \"#utility.yul\":672:675   */\n      dup3\n        /* \"#utility.yul\":665:722   */\n      mstore\n        /* \"#utility.yul\":583:728   */\n      pop\n      pop\n      jump\t// out\n        /* \"#utility.yul\":734:970   */\n    tag_16:\n        /* \"#utility.yul\":834:838   */\n      0x00\n        /* \"#utility.yul\":872:874   */\n      0x20\n        /* \"#utility.yul\":861:870   */\n      dup3\n        /* \"#utility.yul\":857:875   */\n      add\n        /* \"#utility.yul\":849:875   */\n      swap1\n      pop\n        /* \"#utility.yul\":885:963   */\n      tag_185\n        /* \"#utility.yul\":960:961   */\n      0x00\n        /* \"#utility.yul\":949:958   */\n      dup4\n        /* \"#utility.yul\":945:962   */\n      add\n        /* \"#utility.yul\":936:942   */\n      dup5\n        /* \"#utility.yul\":885:963   */\n      tag_128\n      jump\t// in\n    tag_185:\n        /* \"#utility.yul\":734:970   */\n      swap3\n      swap2\n      pop\n      pop\n      jump\t// out\n        /* \"#utility.yul\":976:1102   */\n    tag_129:\n        /* \"#utility.yul\":1013:1020   */\n      0x00\n        /* \"#utility.yul\":1053:1095   */\n      0xffffffffffffffffffffffffffffffffffffffff\n        /* \"#utility.yul\":1046:1051   */\n      dup3\n        /* \"#utility.yul\":1042:1096   */\n      and\n        /* \"#utility.yul\":1031:1096   */\n      swap1\n      pop\n        /* \"#utility.yul\":976:1102   */\n      swap2\n      swap1\n      pop\n      jump\t// out\n        /* \"#utility.yul\":1108:1204   */\n    tag_130:\n        /* \"#utility.yul\":1145:1152   */\n      0x00\n        /* \"#utility.yul\":1174:1198   */\n      tag_188\n        /* \"#utility.yul\":1192:1197   */\n      dup3\n        /* \"#utility.yul\":1174:1198   */\n      tag_129\n      jump\t// in\n    tag_188:\n        /* \"#utility.yul\":1163:1198   */\n      swap1\n      pop\n        /* \"#utility.yul\":1108:1204   */\n      swap2\n      swap1\n      pop\n      jump\t// out\n        /* \"#utility.yul\":1210:1328   */\n    tag_131:\n        /* \"#utility.yul\":1297:1321   */\n      tag_190\n        /* \"#utility.yul\":1315:1320   */\n      dup2\n        /* \"#utility.yul\":1297:1321   */\n      tag_130\n      jump\t// in\n    tag_190:\n        /* \"#utility.yul\":1292:1295   */\n      dup3\n        /* \"#utility.yul\":1285:1322   */\n      mstore\n        /* \"#utility.yul\":1210:1328   */\n      pop\n      pop\n      jump\t// out\n        /* \"#utility.yul\":1334:1556   */\n    tag_21:\n        /* \"#utility.yul\":1427:1431   */\n      0x00\n        /* \"#utility.yul\":1465:1467   */\n      0x20\n        /* \"#utility.yul\":1454:1463   */\n      dup3\n        /* \"#utility.yul\":1450:1468   */\n      add\n        /* \"#utility.yul\":1442:1468   */\n      swap1\n      pop\n        /* \"#utility.yul\":1478:1549   */\n      tag_192\n        /* \"#utility.yul\":1546:1547   */\n      0x00\n        /* \"#utility.yul\":1535:1544   */\n      dup4\n        /* \"#utility.yul\":1531:1548   */\n      add\n        /* \"#utility.yul\":1522:1528   */\n      dup5\n        /* \"#utility.yul\":1478:1549   */\n      tag_131\n      jump\t// in\n    tag_192:\n        /* \"#utility.yul\":1334:1556   */\n      swap3\n      swap2\n      pop\n      pop\n      jump\t// out\n        /* \"#utility.yul\":1643:1760   */\n    tag_133:\n        /* \"#utility.yul\":1752:1753   */\n      0x00\n        /* \"#utility.yul\":1749:1750   */\n      dup1\n        /* \"#utility.yul\":1742:1754   */\n      revert\n        /* \"#utility.yul\":1889:1997   */\n    tag_135:\n        /* \"#utility.yul\":1971:1972   */\n      0x04\n        /* \"#utility.yul\":1964:1969   */\n      dup2\n        /* \"#utility.yul\":1961:1973   */\n      lt\n        /* \"#utility.yul\":1951:1991   */\n      tag_197\n      jumpi\n        /* \"#utility.yul\":1987:1988   */\n      0x00\n        /* \"#utility.yul\":1984:1985   */\n      dup1\n        /* \"#utility.yul\":1977:1989   */\n      revert\n        /* \"#utility.yul\":1951:1991   */\n    tag_197:\n        /* \"#utility.yul\":1889:1997   */\n      pop\n      jump\t// out\n        /* \"#utility.yul\":2003:2160   */\n    tag_136:\n        /* \"#utility.yul\":2058:2063   */\n      0x00\n        /* \"#utility.yul\":2096:2102   */\n      dup2\n        /* \"#utility.yul\":2083:2103   */\n      calldataload\n        /* \"#utility.yul\":2074:2103   */\n      swap1\n      pop\n        /* \"#utility.yul\":2112:2154   */\n      tag_199\n        /* \"#utility.yul\":2148:2153   */\n      dup2\n        /* \"#utility.yul\":2112:2154   */\n      tag_135\n      jump\t// in\n    tag_199:\n        /* \"#utility.yul\":2003:2160   */\n      swap3\n      swap2\n      pop\n      pop\n      jump\t// out\n        /* \"#utility.yul\":2166:2513   */\n    tag_25:\n        /* \"#utility.yul\":2234:2240   */\n      0x00\n        /* \"#utility.yul\":2283:2285   */\n      0x20\n        /* \"#utility.yul\":2271:2280   */\n      dup3\n        /* \"#utility.yul\":2262:2269   */\n      dup5\n        /* \"#utility.yul\":2258:2281   */\n      sub\n        /* \"#utility.yul\":2254:2286   */\n      slt\n        /* \"#utility.yul\":2251:2370   */\n      iszero\n      tag_201\n      jumpi\n        /* \"#utility.yul\":2289:2368   */\n      tag_202\n      tag_133\n      jump\t// in\n    tag_202:\n        /* \"#utility.yul\":2251:2370   */\n    tag_201:\n        /* \"#utility.yul\":2409:2410   */\n      0x00\n        /* \"#utility.yul\":2434:2496   */\n      tag_203\n        /* \"#utility.yul\":2488:2495   */\n      dup5\n        /* \"#utility.yul\":2479:2485   */\n      dup3\n        /* \"#utility.yul\":2468:2477   */\n      dup6\n        /* \"#utility.yul\":2464:2486   */\n      add\n        /* \"#utility.yul\":2434:2496   */\n      tag_136\n      jump\t// in\n    tag_203:\n        /* \"#utility.yul\":2424:2496   */\n      swap2\n      pop\n        /* \"#utility.yul\":2380:2506   */\n      pop\n        /* \"#utility.yul\":2166:2513   */\n      swap3\n      swap2\n      pop\n      pop\n      jump\t// out\n        /* \"#utility.yul\":2519:2618   */\n    tag_137:\n        /* \"#utility.yul\":2571:2577   */\n      0x00\n        /* \"#utility.yul\":2605:2610   */\n      dup2\n        /* \"#utility.yul\":2599:2611   */\n      mload\n        /* \"#utility.yul\":2589:2611   */\n      swap1\n      pop\n        /* \"#utility.yul\":2519:2618   */\n      swap2\n      swap1\n      pop\n      jump\t// out\n        /* \"#utility.yul\":2624:2793   */\n    tag_138:\n        /* \"#utility.yul\":2708:2719   */\n      0x00\n        /* \"#utility.yul\":2742:2748   */\n      dup3\n        /* \"#utility.yul\":2737:2740   */\n      dup3\n        /* \"#utility.yul\":2730:2749   */\n      mstore\n        /* \"#utility.yul\":2782:2786   */\n      0x20\n        /* \"#utility.yul\":2777:2780   */\n      dup3\n        /* \"#utility.yul\":2773:2787   */\n      add\n        /* \"#utility.yul\":2758:2787   */\n      swap1\n      pop\n        /* \"#utility.yul\":2624:2793   */\n      swap3\n      swap2\n      pop\n      pop\n      jump\t// out\n        /* \"#utility.yul\":2799:3045   */\n    tag_139:\n        /* \"#utility.yul\":2880:2881   */\n      0x00\n        /* \"#utility.yul\":2890:3003   */\n    tag_207:\n        /* \"#utility.yul\":2904:2910   */\n      dup4\n        /* \"#utility.yul\":2901:2902   */\n      dup2\n        /* \"#utility.yul\":2898:2911   */\n      lt\n        /* \"#utility.yul\":2890:3003   */\n      iszero\n      tag_209\n      jumpi\n        /* \"#utility.yul\":2989:2990   */\n      dup1\n        /* \"#utility.yul\":2984:2987   */\n      dup3\n        /* \"#utility.yul\":2980:2991   */\n      add\n        /* \"#utility.yul\":2974:2992   */\n      mload\n        /* \"#utility.yul\":2970:2971   */\n      dup2\n        /* \"#utility.yul\":2965:2968   */\n      dup5\n        /* \"#utility.yul\":2961:2972   */\n      add\n        /* \"#utility.yul\":2954:2993   */\n      mstore\n        /* \"#utility.yul\":2926:2928   */\n      0x20\n        /* \"#utility.yul\":2923:2924   */\n      dup2\n        /* \"#utility.yul\":2919:2929   */\n      add\n        /* \"#utility.yul\":2914:2929   */\n      swap1\n      pop\n        /* \"#utility.yul\":2890:3003   */\n      jump(tag_207)\n    tag_209:\n        /* \"#utility.yul\":3037:3038   */\n      0x00\n        /* \"#utility.yul\":3028:3034   */\n      dup5\n        /* \"#utility.yul\":3023:3026   */\n      dup5\n        /* \"#utility.yul\":3019:3035   */\n      add\n        /* \"#utility.yul\":3012:3039   */\n      mstore\n        /* \"#utility.yul\":2861:3045   */\n      pop\n        /* \"#utility.yul\":2799:3045   */\n      pop\n      pop\n      pop\n      jump\t// out\n        /* \"#utility.yul\":3051:3153   */\n    tag_140:\n        /* \"#utility.yul\":3092:3098   */\n      0x00\n        /* \"#utility.yul\":3143:3145   */\n      0x1f\n        /* \"#utility.yul\":3139:3146   */\n      not\n        /* \"#utility.yul\":3134:3136   */\n      0x1f\n        /* \"#utility.yul\":3127:3132   */\n      dup4\n        /* \"#utility.yul\":3123:3137   */\n      add\n        /* \"#utility.yul\":3119:3147   */\n      and\n        /* \"#utility.yul\":3109:3147   */\n      swap1\n      pop\n        /* \"#utility.yul\":3051:3153   */\n      swap2\n      swap1\n      pop\n      jump\t// out\n        /* \"#utility.yul\":3159:3536   */\n    tag_141:\n        /* \"#utility.yul\":3247:3250   */\n      0x00\n        /* \"#utility.yul\":3275:3314   */\n      tag_212\n        /* \"#utility.yul\":3308:3313   */\n      dup3\n        /* \"#utility.yul\":3275:3314   */\n      tag_137\n      jump\t// in\n    tag_212:\n        /* \"#utility.yul\":3330:3401   */\n      tag_213\n        /* \"#utility.yul\":3394:3400   */\n      dup2\n        /* \"#utility.yul\":3389:3392   */\n      dup6\n        /* \"#utility.yul\":3330:3401   */\n      tag_138\n      jump\t// in\n    tag_213:\n        /* \"#utility.yul\":3323:3401   */\n      swap4\n      pop\n        /* \"#utility.yul\":3410:3475   */\n      tag_214\n        /* \"#utility.yul\":3468:3474   */\n      dup2\n        /* \"#utility.yul\":3463:3466   */\n      dup6\n        /* \"#utility.yul\":3456:3460   */\n      0x20\n        /* \"#utility.yul\":3449:3454   */\n      dup7\n        /* \"#utility.yul\":3445:3461   */\n      add\n        /* \"#utility.yul\":3410:3475   */\n      tag_139\n      jump\t// in\n    tag_214:\n        /* \"#utility.yul\":3500:3529   */\n      tag_215\n        /* \"#utility.yul\":3522:3528   */\n      dup2\n        /* \"#utility.yul\":3500:3529   */\n      tag_140\n      jump\t// in\n    tag_215:\n        /* \"#utility.yul\":3495:3498   */\n      dup5\n        /* \"#utility.yul\":3491:3530   */\n      add\n        /* \"#utility.yul\":3484:3530   */\n      swap2\n      pop\n        /* \"#utility.yul\":3251:3536   */\n      pop\n        /* \"#utility.yul\":3159:3536   */\n      swap3\n      swap2\n      pop\n      pop\n      jump\t// out\n        /* \"#utility.yul\":3542:3855   */\n    tag_28:\n        /* \"#utility.yul\":3655:3659   */\n      0x00\n        /* \"#utility.yul\":3693:3695   */\n      0x20\n        /* \"#utility.yul\":3682:3691   */\n      dup3\n        /* \"#utility.yul\":3678:3696   */\n      add\n        /* \"#utility.yul\":3670:3696   */\n      swap1\n      pop\n        /* \"#utility.yul\":3742:3751   */\n      dup2\n        /* \"#utility.yul\":3736:3740   */\n      dup2\n        /* \"#utility.yul\":3732:3752   */\n      sub\n        /* \"#utility.yul\":3728:3729   */\n      0x00\n        /* \"#utility.yul\":3717:3726   */\n      dup4\n        /* \"#utility.yul\":3713:3730   */\n      add\n        /* \"#utility.yul\":3706:3753   */\n      mstore\n        /* \"#utility.yul\":3770:3848   */\n      tag_217\n        /* \"#utility.yul\":3843:3847   */\n      dup2\n        /* \"#utility.yul\":3834:3840   */\n      dup5\n        /* \"#utility.yul\":3770:3848   */\n      tag_141\n      jump\t// in\n    tag_217:\n        /* \"#utility.yul\":3762:3848   */\n      swap1\n      pop\n        /* \"#utility.yul\":3542:3855   */\n      swap3\n      swap2\n      pop\n      pop\n      jump\t// out\n        /* \"#utility.yul\":3861:3938   */\n    tag_142:\n        /* \"#utility.yul\":3898:3905   */\n      0x00\n        /* \"#utility.yul\":3927:3932   */\n      dup2\n        /* \"#utility.yul\":3916:3932   */\n      swap1\n      pop\n        /* \"#utility.yul\":3861:3938   */\n      swap2\n      swap1\n      pop\n      jump\t// out\n        /* \"#utility.yul\":3944:4062   */\n    tag_143:\n        /* \"#utility.yul\":4031:4055   */\n      tag_220\n        /* \"#utility.yul\":4049:4054   */\n      dup2\n        /* \"#utility.yul\":4031:4055   */\n      tag_142\n      jump\t// in\n    tag_220:\n        /* \"#utility.yul\":4026:4029   */\n      dup3\n        /* \"#utility.yul\":4019:4056   */\n      mstore\n        /* \"#utility.yul\":3944:4062   */\n      pop\n      pop\n      jump\t// out\n        /* \"#utility.yul\":4068:4290   */\n    tag_40:\n        /* \"#utility.yul\":4161:4165   */\n      0x00\n        /* \"#utility.yul\":4199:4201   */\n      0x20\n        /* \"#utility.yul\":4188:4197   */\n      dup3\n        /* \"#utility.yul\":4184:4202   */\n      add\n        /* \"#utility.yul\":4176:4202   */\n      swap1\n      pop\n        /* \"#utility.yul\":4212:4283   */\n      tag_222\n        /* \"#utility.yul\":4280:4281   */\n      0x00\n        /* \"#utility.yul\":4269:4278   */\n      dup4\n        /* \"#utility.yul\":4265:4282   */\n      add\n        /* \"#utility.yul\":4256:4262   */\n      dup5\n        /* \"#utility.yul\":4212:4283   */\n      tag_143\n      jump\t// in\n    tag_222:\n        /* \"#utility.yul\":4068:4290   */\n      swap3\n      swap2\n      pop\n      pop\n      jump\t// out\n        /* \"#utility.yul\":4296:4455   */\n    tag_144:\n        /* \"#utility.yul\":4436:4447   */\n      0x4e6f74204f776e65720000000000000000000000000000000000000000000000\n        /* \"#utility.yul\":4432:4433   */\n      0x00\n        /* \"#utility.yul\":4424:4430   */\n      dup3\n        /* \"#utility.yul\":4420:4434   */\n      add\n        /* \"#utility.yul\":4413:4448   */\n      mstore\n        /* \"#utility.yul\":4296:4455   */\n      pop\n      jump\t// out\n        /* \"#utility.yul\":4461:4826   */\n    tag_145:\n        /* \"#utility.yul\":4603:4606   */\n      0x00\n        /* \"#utility.yul\":4624:4690   */\n      tag_225\n        /* \"#utility.yul\":4688:4689   */\n      0x09\n        /* \"#utility.yul\":4683:4686   */\n      dup4\n        /* \"#utility.yul\":4624:4690   */\n      tag_138\n      jump\t// in\n    tag_225:\n        /* \"#utility.yul\":4617:4690   */\n      swap2\n      pop\n        /* \"#utility.yul\":4699:4792   */\n      tag_226\n        /* \"#utility.yul\":4788:4791   */\n      dup3\n        /* \"#utility.yul\":4699:4792   */\n      tag_144\n      jump\t// in\n    tag_226:\n        /* \"#utility.yul\":4817:4819   */\n      0x20\n        /* \"#utility.yul\":4812:4815   */\n      dup3\n        /* \"#utility.yul\":4808:4820   */\n      add\n        /* \"#utility.yul\":4801:4820   */\n      swap1\n      pop\n        /* \"#utility.yul\":4461:4826   */\n      swap2\n      swap1\n      pop\n      jump\t// out\n        /* \"#utility.yul\":4832:5251   */\n    tag_55:\n        /* \"#utility.yul\":4998:5002   */\n      0x00\n        /* \"#utility.yul\":5036:5038   */\n      0x20\n        /* \"#utility.yul\":5025:5034   */\n      dup3\n        /* \"#utility.yul\":5021:5039   */\n      add\n        /* \"#utility.yul\":5013:5039   */\n      swap1\n      pop\n        /* \"#utility.yul\":5085:5094   */\n      dup2\n        /* \"#utility.yul\":5079:5083   */\n      dup2\n        /* \"#utility.yul\":5075:5095   */\n      sub\n        /* \"#utility.yul\":5071:5072   */\n      0x00\n        /* \"#utility.yul\":5060:5069   */\n      dup4\n        /* \"#utility.yul\":5056:5073   */\n      add\n        /* \"#utility.yul\":5049:5096   */\n      mstore\n        /* \"#utility.yul\":5113:5244   */\n      tag_228\n        /* \"#utility.yul\":5239:5243   */\n      dup2\n        /* \"#utility.yul\":5113:5244   */\n      tag_145\n      jump\t// in\n    tag_228:\n        /* \"#utility.yul\":5105:5244   */\n      swap1\n      pop\n        /* \"#utility.yul\":4832:5251   */\n      swap2\n      swap1\n      pop\n      jump\t// out\n        /* \"#utility.yul\":5257:5424   */\n    tag_146:\n        /* \"#utility.yul\":5397:5416   */\n      0x416c72656164792044656c697665726564000000000000000000000000000000\n        /* \"#utility.yul\":5393:5394   */\n      0x00\n        /* \"#utility.yul\":5385:5391   */\n      dup3\n        /* \"#utility.yul\":5381:5395   */\n      add\n        /* \"#utility.yul\":5374:5417   */\n      mstore\n        /* \"#utility.yul\":5257:5424   */\n      pop\n      jump\t// out\n        /* \"#utility.yul\":5430:5796   */\n    tag_147:\n        /* \"#utility.yul\":5572:5575   */\n      0x00\n        /* \"#utility.yul\":5593:5660   */\n      tag_231\n        /* \"#utility.yul\":5657:5659   */\n      0x11\n        /* \"#utility.yul\":5652:5655   */\n      dup4\n        /* \"#utility.yul\":5593:5660   */\n      tag_138\n      jump\t// in\n    tag_231:\n        /* \"#utility.yul\":5586:5660   */\n      swap2\n      pop\n        /* \"#utility.yul\":5669:5762   */\n      tag_232\n        /* \"#utility.yul\":5758:5761   */\n      dup3\n        /* \"#utility.yul\":5669:5762   */\n      tag_146\n      jump\t// in\n    tag_232:\n        /* \"#utility.yul\":5787:5789   */\n      0x20\n        /* \"#utility.yul\":5782:5785   */\n      dup3\n        /* \"#utility.yul\":5778:5790   */\n      add\n        /* \"#utility.yul\":5771:5790   */\n      swap1\n      pop\n        /* \"#utility.yul\":5430:5796   */\n      swap2\n      swap1\n      pop\n      jump\t// out\n        /* \"#utility.yul\":5802:6221   */\n    tag_64:\n        /* \"#utility.yul\":5968:5972   */\n      0x00\n        /* \"#utility.yul\":6006:6008   */\n      0x20\n        /* \"#utility.yul\":5995:6004   */\n      dup3\n        /* \"#utility.yul\":5991:6009   */\n      add\n        /* \"#utility.yul\":5983:6009   */\n      swap1\n      pop\n        /* \"#utility.yul\":6055:6064   */\n      dup2\n        /* \"#utility.yul\":6049:6053   */\n      dup2\n        /* \"#utility.yul\":6045:6065   */\n      sub\n        /* \"#utility.yul\":6041:6042   */\n      0x00\n        /* \"#utility.yul\":6030:6039   */\n      dup4\n        /* \"#utility.yul\":6026:6043   */\n      add\n        /* \"#utility.yul\":6019:6066   */\n      mstore\n        /* \"#utility.yul\":6083:6214   */\n      tag_234\n        /* \"#utility.yul\":6209:6213   */\n      dup2\n        /* \"#utility.yul\":6083:6214   */\n      tag_147\n      jump\t// in\n    tag_234:\n        /* \"#utility.yul\":6075:6214   */\n      swap1\n      pop\n        /* \"#utility.yul\":5802:6221   */\n      swap2\n      swap1\n      pop\n      jump\t// out\n        /* \"#utility.yul\":6227:6384   */\n    tag_148:\n        /* \"#utility.yul\":6367:6376   */\n      0x5368697070656400000000000000000000000000000000000000000000000000\n        /* \"#utility.yul\":6363:6364   */\n      0x00\n        /* \"#utility.yul\":6355:6361   */\n      dup3\n        /* \"#utility.yul\":6351:6365   */\n      add\n        /* \"#utility.yul\":6344:6377   */\n      mstore\n        /* \"#utility.yul\":6227:6384   */\n      pop\n      jump\t// out\n        /* \"#utility.yul\":6390:6755   */\n    tag_149:\n        /* \"#utility.yul\":6532:6535   */\n      0x00\n        /* \"#utility.yul\":6553:6619   */\n      tag_237\n        /* \"#utility.yul\":6617:6618   */\n      0x07\n        /* \"#utility.yul\":6612:6615   */\n      dup4\n        /* \"#utility.yul\":6553:6619   */\n      tag_138\n      jump\t// in\n    tag_237:\n        /* \"#utility.yul\":6546:6619   */\n      swap2\n      pop\n        /* \"#utility.yul\":6628:6721   */\n      tag_238\n        /* \"#utility.yul\":6717:6720   */\n      dup3\n        /* \"#utility.yul\":6628:6721   */\n      tag_148\n      jump\t// in\n    tag_238:\n        /* \"#utility.yul\":6746:6748   */\n      0x20\n        /* \"#utility.yul\":6741:6744   */\n      dup3\n        /* \"#utility.yul\":6737:6749   */\n      add\n        /* \"#utility.yul\":6730:6749   */\n      swap1\n      pop\n        /* \"#utility.yul\":6390:6755   */\n      swap2\n      swap1\n      pop\n      jump\t// out\n        /* \"#utility.yul\":6761:7180   */\n    tag_74:\n        /* \"#utility.yul\":6927:6931   */\n      0x00\n        /* \"#utility.yul\":6965:6967   */\n      0x20\n        /* \"#utility.yul\":6954:6963   */\n      dup3\n        /* \"#utility.yul\":6950:6968   */\n      add\n        /* \"#utility.yul\":6942:6968   */\n      swap1\n      pop\n        /* \"#utility.yul\":7014:7023   */\n      dup2\n        /* \"#utility.yul\":7008:7012   */\n      dup2\n        /* \"#utility.yul\":7004:7024   */\n      sub\n        /* \"#utility.yul\":7000:7001   */\n      0x00\n        /* \"#utility.yul\":6989:6998   */\n      dup4\n        /* \"#utility.yul\":6985:7002   */\n      add\n        /* \"#utility.yul\":6978:7025   */\n      mstore\n        /* \"#utility.yul\":7042:7173   */\n      tag_240\n        /* \"#utility.yul\":7168:7172   */\n      dup2\n        /* \"#utility.yul\":7042:7173   */\n      tag_149\n      jump\t// in\n    tag_240:\n        /* \"#utility.yul\":7034:7173   */\n      swap1\n      pop\n        /* \"#utility.yul\":6761:7180   */\n      swap2\n      swap1\n      pop\n      jump\t// out\n        /* \"#utility.yul\":7186:7366   */\n    tag_150:\n        /* \"#utility.yul\":7234:7311   */\n      0x4e487b7100000000000000000000000000000000000000000000000000000000\n        /* \"#utility.yul\":7231:7232   */\n      0x00\n        /* \"#utility.yul\":7224:7312   */\n      mstore\n        /* \"#utility.yul\":7331:7335   */\n      0x41\n        /* \"#utility.yul\":7328:7329   */\n      0x04\n        /* \"#utility.yul\":7321:7336   */\n      mstore\n        /* \"#utility.yul\":7355:7359   */\n      0x24\n        /* \"#utility.yul\":7352:7353   */\n      0x00\n        /* \"#utility.yul\":7345:7360   */\n      revert\n        /* \"#utility.yul\":7372:7552   */\n    tag_151:\n        /* \"#utility.yul\":7420:7497   */\n      0x4e487b7100000000000000000000000000000000000000000000000000000000\n        /* \"#utility.yul\":7417:7418   */\n      0x00\n        /* \"#utility.yul\":7410:7498   */\n      mstore\n        /* \"#utility.yul\":7517:7521   */\n      0x22\n        /* \"#utility.yul\":7514:7515   */\n      0x04\n        /* \"#utility.yul\":7507:7522   */\n      mstore\n        /* \"#utility.yul\":7541:7545   */\n      0x24\n        /* \"#utility.yul\":7538:7539   */\n      0x00\n        /* \"#utility.yul\":7531:7546   */\n      revert\n        /* \"#utility.yul\":7558:7878   */\n    tag_78:\n        /* \"#utility.yul\":7602:7608   */\n      0x00\n        /* \"#utility.yul\":7639:7640   */\n      0x02\n        /* \"#utility.yul\":7633:7637   */\n      dup3\n        /* \"#utility.yul\":7629:7641   */\n      div\n        /* \"#utility.yul\":7619:7641   */\n      swap1\n      pop\n        /* \"#utility.yul\":7686:7687   */\n      0x01\n        /* \"#utility.yul\":7680:7684   */\n      dup3\n        /* \"#utility.yul\":7676:7688   */\n      and\n        /* \"#utility.yul\":7707:7725   */\n      dup1\n        /* \"#utility.yul\":7697:7778   */\n      tag_244\n      jumpi\n        /* \"#utility.yul\":7763:7767   */\n      0x7f\n        /* \"#utility.yul\":7755:7761   */\n      dup3\n        /* \"#utility.yul\":7751:7768   */\n      and\n        /* \"#utility.yul\":7741:7768   */\n      swap2\n      pop\n        /* \"#utility.yul\":7697:7778   */\n    tag_244:\n        /* \"#utility.yul\":7825:7827   */\n      0x20\n        /* \"#utility.yul\":7817:7823   */\n      dup3\n        /* \"#utility.yul\":7814:7828   */\n      lt\n        /* \"#utility.yul\":7794:7812   */\n      dup2\n        /* \"#utility.yul\":7791:7829   */\n      sub\n        /* \"#utility.yul\":7788:7872   */\n      tag_245\n      jumpi\n        /* \"#utility.yul\":7844:7862   */\n      tag_246\n      tag_151\n      jump\t// in\n    tag_246:\n        /* \"#utility.yul\":7788:7872   */\n    tag_245:\n        /* \"#utility.yul\":7609:7878   */\n      pop\n        /* \"#utility.yul\":7558:7878   */\n      swap2\n      swap1\n      pop\n      jump\t// out\n        /* \"#utility.yul\":7884:8025   */\n    tag_152:\n        /* \"#utility.yul\":7933:7937   */\n      0x00\n        /* \"#utility.yul\":7956:7959   */\n      dup2\n        /* \"#utility.yul\":7948:7959   */\n      swap1\n      pop\n        /* \"#utility.yul\":7979:7982   */\n      dup2\n        /* \"#utility.yul\":7976:7977   */\n      0x00\n        /* \"#utility.yul\":7969:7983   */\n      mstore\n        /* \"#utility.yul\":8013:8017   */\n      0x20\n        /* \"#utility.yul\":8010:8011   */\n      0x00\n        /* \"#utility.yul\":8000:8018   */\n      keccak256\n        /* \"#utility.yul\":7992:8018   */\n      swap1\n      pop\n        /* \"#utility.yul\":7884:8025   */\n      swap2\n      swap1\n      pop\n      jump\t// out\n        /* \"#utility.yul\":8031:8124   */\n    tag_153:\n        /* \"#utility.yul\":8068:8074   */\n      0x00\n        /* \"#utility.yul\":8115:8117   */\n      0x20\n        /* \"#utility.yul\":8110:8112   */\n      0x1f\n        /* \"#utility.yul\":8103:8108   */\n      dup4\n        /* \"#utility.yul\":8099:8113   */\n      add\n        /* \"#utility.yul\":8095:8118   */\n      div\n        /* \"#utility.yul\":8085:8118   */\n      swap1\n      pop\n        /* \"#utility.yul\":8031:8124   */\n      swap2\n      swap1\n      pop\n      jump\t// out\n        /* \"#utility.yul\":8130:8237   */\n    tag_154:\n        /* \"#utility.yul\":8174:8182   */\n      0x00\n        /* \"#utility.yul\":8224:8229   */\n      dup3\n        /* \"#utility.yul\":8218:8222   */\n      dup3\n        /* \"#utility.yul\":8214:8230   */\n      shl\n        /* \"#utility.yul\":8193:8230   */\n      swap1\n      pop\n        /* \"#utility.yul\":8130:8237   */\n      swap3\n      swap2\n      pop\n      pop\n      jump\t// out\n        /* \"#utility.yul\":8243:8636   */\n    tag_155:\n        /* \"#utility.yul\":8312:8318   */\n      0x00\n        /* \"#utility.yul\":8362:8363   */\n      0x08\n        /* \"#utility.yul\":8350:8360   */\n      dup4\n        /* \"#utility.yul\":8346:8364   */\n      mul\n        /* \"#utility.yul\":8385:8482   */\n      tag_251\n        /* \"#utility.yul\":8415:8481   */\n      0xffffffffffffffffffffffffffffffffffffffffffffffffffffffffffffffff\n        /* \"#utility.yul\":8404:8413   */\n      dup3\n        /* \"#utility.yul\":8385:8482   */\n      tag_154\n      jump\t// in\n    tag_251:\n        /* \"#utility.yul\":8503:8542   */\n      tag_252\n        /* \"#utility.yul\":8533:8541   */\n      dup7\n        /* \"#utility.yul\":8522:8531   */\n      dup4\n        /* \"#utility.yul\":8503:8542   */\n      tag_154\n      jump\t// in\n    tag_252:\n        /* \"#utility.yul\":8491:8542   */\n      swap6\n      pop\n        /* \"#utility.yul\":8575:8579   */\n      dup1\n        /* \"#utility.yul\":8571:8580   */\n      not\n        /* \"#utility.yul\":8564:8569   */\n      dup5\n        /* \"#utility.yul\":8560:8581   */\n      and\n        /* \"#utility.yul\":8551:8581   */\n      swap4\n      pop\n        /* \"#utility.yul\":8624:8628   */\n      dup1\n        /* \"#utility.yul\":8614:8622   */\n      dup7\n        /* \"#utility.yul\":8610:8629   */\n      and\n        /* \"#utility.yul\":8603:8608   */\n      dup5\n        /* \"#utility.yul\":8600:8630   */\n      or\n        /* \"#utility.yul\":8590:8630   */\n      swap3\n      pop\n        /* \"#utility.yul\":8319:8636   */\n      pop\n      pop\n        /* \"#utility.yul\":8243:8636   */\n      swap4\n      swap3\n      pop\n      pop\n      pop\n      jump\t// out\n        /* \"#utility.yul\":8642:8702   */\n    tag_156:\n        /* \"#utility.yul\":8670:8673   */\n      0x00\n        /* \"#utility.yul\":8691:8696   */\n      dup2\n        /* \"#utility.yul\":8684:8696   */\n      swap1\n      pop\n        /* \"#utility.yul\":8642:8702   */\n      swap2\n      swap1\n      pop\n      jump\t// out\n        /* \"#utility.yul\":8708:8850   */\n    tag_157:\n        /* \"#utility.yul\":8758:8767   */\n      0x00\n        /* \"#utility.yul\":8791:8844   */\n      tag_255\n        /* \"#utility.yul\":8809:8843   */\n      tag_256\n        /* \"#utility.yul\":8818:8842   */\n      tag_257\n        /* \"#utility.yul\":8836:8841   */\n      dup5\n        /* \"#utility.yul\":8818:8842   */\n      tag_142\n      jump\t// in\n    tag_257:\n        /* \"#utility.yul\":8809:8843   */\n      tag_156\n      jump\t// in\n    tag_256:\n        /* \"#utility.yul\":8791:8844   */\n      tag_142\n      jump\t// in\n    tag_255:\n        /* \"#utility.yul\":8778:8844   */\n      swap1\n      pop\n        /* \"#utility.yul\":8708:8850   */\n      swap2\n      swap1\n      pop\n      jump\t// out\n        /* \"#utility.yul\":8856:8931   */\n    tag_158:\n        /* \"#utility.yul\":8899:8902   */\n      0x00\n        /* \"#utility.yul\":8920:8925   */\n      dup2\n        /* \"#utility.yul\":8913:8925   */\n      swap1\n      pop\n        /* \"#utility.yul\":8856:8931   */\n      swap2\n      swap1\n      pop\n      jump\t// out\n        /* \"#utility.yul\":8937:9206   */\n    tag_159:\n        /* \"#utility.yul\":9047:9086   */\n      tag_260\n        /* \"#utility.yul\":9078:9085   */\n      dup4\n        /* \"#utility.yul\":9047:9086   */\n      tag_157\n      jump\t// in\n    tag_260:\n        /* \"#utility.yul\":9108:9199   */\n      tag_261\n        /* \"#utility.yul\":9157:9198   */\n      tag_262\n        /* \"#utility.yul\":9181:9197   */\n      dup3\n        /* \"#utility.yul\":9157:9198   */\n      tag_158\n      jump\t// in\n    tag_262:\n        /* \"#utility.yul\":9149:9155   */\n      dup5\n        /* \"#utility.yul\":9142:9146   */\n      dup5\n        /* \"#utility.yul\":9136:9147   */\n      sload\n        /* \"#utility.yul\":9108:9199   */\n      tag_155\n      jump\t// in\n    tag_261:\n        /* \"#utility.yul\":9102:9106   */\n      dup3\n        /* \"#utility.yul\":9095:9200   */\n      sstore\n        /* \"#utility.yul\":9013:9206   */\n      pop\n        /* \"#utility.yul\":8937:9206   */\n      pop\n      pop\n      pop\n      jump\t// out\n        /* \"#utility.yul\":9212:9285   */\n    tag_160:\n        /* \"#utility.yul\":9257:9260   */\n      0x00\n        /* \"#utility.yul\":9212:9285   */\n      swap1\n      jump\t// out\n        /* \"#utility.yul\":9291:9480   */\n    tag_161:\n        /* \"#utility.yul\":9368:9400   */\n      tag_265\n      tag_160\n      jump\t// in\n    tag_265:\n        /* \"#utility.yul\":9409:9474   */\n      tag_266\n        /* \"#utility.yul\":9467:9473   */\n      dup2\n        /* \"#utility.yul\":9459:9465   */\n      dup5\n        /* \"#utility.yul\":9453:9457   */\n      dup5\n        /* \"#utility.yul\":9409:9474   */\n      tag_159\n      jump\t// in\n    tag_266:\n        /* \"#utility.yul\":9344:9480   */\n      pop\n        /* \"#utility.yul\":9291:9480   */\n      pop\n      pop\n      jump\t// out\n        /* \"#utility.yul\":9486:9672   */\n    tag_162:\n        /* \"#utility.yul\":9546:9666   */\n    tag_268:\n        /* \"#utility.yul\":9563:9566   */\n      dup2\n        /* \"#utility.yul\":9556:9561   */\n      dup2\n        /* \"#utility.yul\":9553:9567   */\n      lt\n        /* \"#utility.yul\":9546:9666   */\n      iszero\n      tag_270\n      jumpi\n        /* \"#utility.yul\":9617:9656   */\n      tag_271\n        /* \"#utility.yul\":9654:9655   */\n      0x00\n        /* \"#utility.yul\":9647:9652   */\n      dup3\n        /* \"#utility.yul\":9617:9656   */\n      tag_161\n      jump\t// in\n    tag_271:\n        /* \"#utility.yul\":9590:9591   */\n      0x01\n        /* \"#utility.yul\":9583:9588   */\n      dup2\n        /* \"#utility.yul\":9579:9592   */\n      add\n        /* \"#utility.yul\":9570:9592   */\n      swap1\n      pop\n        /* \"#utility.yul\":9546:9666   */\n      jump(tag_268)\n    tag_270:\n        /* \"#utility.yul\":9486:9672   */\n      pop\n      pop\n      jump\t// out\n        /* \"#utility.yul\":9678:10221   */\n    tag_163:\n        /* \"#utility.yul\":9779:9781   */\n      0x1f\n        /* \"#utility.yul\":9774:9777   */\n      dup3\n        /* \"#utility.yul\":9771:9782   */\n      gt\n        /* \"#utility.yul\":9768:10214   */\n      iszero\n      tag_273\n      jumpi\n        /* \"#utility.yul\":9813:9851   */\n      tag_274\n        /* \"#utility.yul\":9845:9850   */\n      dup2\n        /* \"#utility.yul\":9813:9851   */\n      tag_152\n      jump\t// in\n    tag_274:\n        /* \"#utility.yul\":9897:9926   */\n      tag_275\n        /* \"#utility.yul\":9915:9925   */\n      dup5\n        /* \"#utility.yul\":9897:9926   */\n      tag_153\n      jump\t// in\n    tag_275:\n        /* \"#utility.yul\":9887:9895   */\n      dup2\n        /* \"#utility.yul\":9883:9927   */\n      add\n        /* \"#utility.yul\":10080:10082   */\n      0x20\n        /* \"#utility.yul\":10068:10078   */\n      dup6\n        /* \"#utility.yul\":10065:10083   */\n      lt\n        /* \"#utility.yul\":10062:10111   */\n      iszero\n      tag_276\n      jumpi\n        /* \"#utility.yul\":10101:10109   */\n      dup2\n        /* \"#utility.yul\":10086:10109   */\n      swap1\n      pop\n        /* \"#utility.yul\":10062:10111   */\n    tag_276:\n        /* \"#utility.yul\":10124:10204   */\n      tag_277\n        /* \"#utility.yul\":10180:10202   */\n      tag_278\n        /* \"#utility.yul\":10198:10201   */\n      dup6\n        /* \"#utility.yul\":10180:10202   */\n      tag_153\n      jump\t// in\n    tag_278:\n        /* \"#utility.yul\":10170:10178   */\n      dup4\n        /* \"#utility.yul\":10166:10203   */\n      add\n        /* \"#utility.yul\":10153:10164   */\n      dup3\n        /* \"#utility.yul\":10124:10204   */\n      tag_162\n      jump\t// in\n    tag_277:\n        /* \"#utility.yul\":9783:10214   */\n      pop\n      pop\n        /* \"#utility.yul\":9768:10214   */\n    tag_273:\n        /* \"#utility.yul\":9678:10221   */\n      pop\n      pop\n      pop\n      jump\t// out\n        /* \"#utility.yul\":10227:10344   */\n    tag_164:\n        /* \"#utility.yul\":10281:10289   */\n      0x00\n        /* \"#utility.yul\":10331:10336   */\n      dup3\n        /* \"#utility.yul\":10325:10329   */\n      dup3\n        /* \"#utility.yul\":10321:10337   */\n      shr\n        /* \"#utility.yul\":10300:10337   */\n      swap1\n      pop\n        /* \"#utility.yul\":10227:10344   */\n      swap3\n      swap2\n      pop\n      pop\n      jump\t// out\n        /* \"#utility.yul\":10350:10519   */\n    tag_165:\n        /* \"#utility.yul\":10394:10400   */\n      0x00\n        /* \"#utility.yul\":10427:10478   */\n      tag_281\n        /* \"#utility.yul\":10475:10476   */\n      0x00\n        /* \"#utility.yul\":10471:10477   */\n      not\n        /* \"#utility.yul\":10463:10468   */\n      dup5\n        /* \"#utility.yul\":10460:10461   */\n      0x08\n        /* \"#utility.yul\":10456:10469   */\n      mul\n        /* \"#utility.yul\":10427:10478   */\n      tag_164\n      jump\t// in\n    tag_281:\n        /* \"#utility.yul\":10423:10479   */\n      not\n        /* \"#utility.yul\":10508:10512   */\n      dup1\n        /* \"#utility.yul\":10502:10506   */\n      dup4\n        /* \"#utility.yul\":10498:10513   */\n      and\n        /* \"#utility.yul\":10488:10513   */\n      swap2\n      pop\n        /* \"#utility.yul\":10401:10519   */\n      pop\n        /* \"#utility.yul\":10350:10519   */\n      swap3\n      swap2\n      pop\n      pop\n      jump\t// out\n        /* \"#utility.yul\":10524:10819   */\n    tag_166:\n        /* \"#utility.yul\":10600:10604   */\n      0x00\n        /* \"#utility.yul\":10746:10775   */\n      tag_283\n        /* \"#utility.yul\":10771:10774   */\n      dup4\n        /* \"#utility.yul\":10765:10769   */\n      dup4\n        /* \"#utility.yul\":10746:10775   */\n      tag_165\n      jump\t// in\n    tag_283:\n        /* \"#utility.yul\":10738:10775   */\n      swap2\n      pop\n        /* \"#utility.yul\":10808:10811   */\n      dup3\n        /* \"#utility.yul\":10805:10806   */\n      0x02\n        /* \"#utility.yul\":10801:10812   */\n      mul\n        /* \"#utility.yul\":10795:10799   */\n      dup3\n        /* \"#utility.yul\":10792:10813   */\n      or\n        /* \"#utility.yul\":10784:10813   */\n      swap1\n      pop\n        /* \"#utility.yul\":10524:10819   */\n      swap3\n      swap2\n      pop\n      pop\n      jump\t// out\n        /* \"#utility.yul\":10824:12219   */\n    tag_76:\n        /* \"#utility.yul\":10941:10978   */\n      tag_285\n        /* \"#utility.yul\":10974:10977   */\n      dup3\n        /* \"#utility.yul\":10941:10978   */\n      tag_137\n      jump\t// in\n    tag_285:\n        /* \"#utility.yul\":11043:11061   */\n      0xffffffffffffffff\n        /* \"#utility.yul\":11035:11041   */\n      dup2\n        /* \"#utility.yul\":11032:11062   */\n      gt\n        /* \"#utility.yul\":11029:11085   */\n      iszero\n      tag_286\n      jumpi\n        /* \"#utility.yul\":11065:11083   */\n      tag_287\n      tag_150\n      jump\t// in\n    tag_287:\n        /* \"#utility.yul\":11029:11085   */\n    tag_286:\n        /* \"#utility.yul\":11109:11147   */\n      tag_288\n        /* \"#utility.yul\":11141:11145   */\n      dup3\n        /* \"#utility.yul\":11135:11146   */\n      sload\n        /* \"#utility.yul\":11109:11147   */\n      tag_78\n      jump\t// in\n    tag_288:\n        /* \"#utility.yul\":11194:11261   */\n      tag_289\n        /* \"#utility.yul\":11254:11260   */\n      dup3\n        /* \"#utility.yul\":11246:11252   */\n      dup3\n        /* \"#utility.yul\":11240:11244   */\n      dup6\n        /* \"#utility.yul\":11194:11261   */\n      tag_163\n      jump\t// in\n    tag_289:\n        /* \"#utility.yul\":11288:11289   */\n      0x00\n        /* \"#utility.yul\":11312:11316   */\n      0x20\n        /* \"#utility.yul\":11299:11316   */\n      swap1\n      pop\n        /* \"#utility.yul\":11344:11346   */\n      0x1f\n        /* \"#utility.yul\":11336:11342   */\n      dup4\n        /* \"#utility.yul\":11333:11347   */\n      gt\n        /* \"#utility.yul\":11361:11362   */\n      0x01\n        /* \"#utility.yul\":11356:11974   */\n      dup2\n      eq\n      tag_291\n      jumpi\n        /* \"#utility.yul\":12018:12019   */\n      0x00\n        /* \"#utility.yul\":12035:12041   */\n      dup5\n        /* \"#utility.yul\":12032:12109   */\n      iszero\n      tag_292\n      jumpi\n        /* \"#utility.yul\":12084:12093   */\n      dup3\n        /* \"#utility.yul\":12079:12082   */\n      dup8\n        /* \"#utility.yul\":12075:12094   */\n      add\n        /* \"#utility.yul\":12069:12095   */\n      mload\n        /* \"#utility.yul\":12060:12095   */\n      swap1\n      pop\n        /* \"#utility.yul\":12032:12109   */\n    tag_292:\n        /* \"#utility.yul\":12135:12202   */\n      tag_293\n        /* \"#utility.yul\":12195:12201   */\n      dup6\n        /* \"#utility.yul\":12188:12193   */\n      dup3\n        /* \"#utility.yul\":12135:12202   */\n      tag_166\n      jump\t// in\n    tag_293:\n        /* \"#utility.yul\":12129:12133   */\n      dup7\n        /* \"#utility.yul\":12122:12203   */\n      sstore\n        /* \"#utility.yul\":11991:12213   */\n      pop\n        /* \"#utility.yul\":11326:12213   */\n      jump(tag_290)\n        /* \"#utility.yul\":11356:11974   */\n    tag_291:\n        /* \"#utility.yul\":11408:11412   */\n      0x1f\n        /* \"#utility.yul\":11404:11413   */\n      not\n        /* \"#utility.yul\":11396:11402   */\n      dup5\n        /* \"#utility.yul\":11392:11414   */\n      and\n        /* \"#utility.yul\":11442:11479   */\n      tag_294\n        /* \"#utility.yul\":11474:11478   */\n      dup7\n        /* \"#utility.yul\":11442:11479   */\n      tag_152\n      jump\t// in\n    tag_294:\n        /* \"#utility.yul\":11501:11502   */\n      0x00\n        /* \"#utility.yul\":11515:11723   */\n    tag_295:\n        /* \"#utility.yul\":11529:11536   */\n      dup3\n        /* \"#utility.yul\":11526:11527   */\n      dup2\n        /* \"#utility.yul\":11523:11537   */\n      lt\n        /* \"#utility.yul\":11515:11723   */\n      iszero\n      tag_297\n      jumpi\n        /* \"#utility.yul\":11608:11617   */\n      dup5\n        /* \"#utility.yul\":11603:11606   */\n      dup10\n        /* \"#utility.yul\":11599:11618   */\n      add\n        /* \"#utility.yul\":11593:11619   */\n      mload\n        /* \"#utility.yul\":11585:11591   */\n      dup3\n        /* \"#utility.yul\":11578:11620   */\n      sstore\n        /* \"#utility.yul\":11659:11660   */\n      0x01\n        /* \"#utility.yul\":11651:11657   */\n      dup3\n        /* \"#utility.yul\":11647:11661   */\n      add\n        /* \"#utility.yul\":11637:11661   */\n      swap2\n      pop\n        /* \"#utility.yul\":11706:11708   */\n      0x20\n        /* \"#utility.yul\":11695:11704   */\n      dup6\n        /* \"#utility.yul\":11691:11709   */\n      add\n        /* \"#utility.yul\":11678:11709   */\n      swap5\n      pop\n        /* \"#utility.yul\":11552:11556   */\n      0x20\n        /* \"#utility.yul\":11549:11550   */\n      dup2\n        /* \"#utility.yul\":11545:11557   */\n      add\n        /* \"#utility.yul\":11540:11557   */\n      swap1\n      pop\n        /* \"#utility.yul\":11515:11723   */\n      jump(tag_295)\n    tag_297:\n        /* \"#utility.yul\":11751:11757   */\n      dup7\n        /* \"#utility.yul\":11742:11749   */\n      dup4\n        /* \"#utility.yul\":11739:11758   */\n      lt\n        /* \"#utility.yul\":11736:11915   */\n      iszero\n      tag_298\n      jumpi\n        /* \"#utility.yul\":11809:11818   */\n      dup5\n        /* \"#utility.yul\":11804:11807   */\n      dup10\n        /* \"#utility.yul\":11800:11819   */\n      add\n        /* \"#utility.yul\":11794:11820   */\n      mload\n        /* \"#utility.yul\":11852:11900   */\n      tag_299\n        /* \"#utility.yul\":11894:11898   */\n      0x1f\n        /* \"#utility.yul\":11886:11892   */\n      dup10\n        /* \"#utility.yul\":11882:11899   */\n      and\n        /* \"#utility.yul\":11871:11880   */\n      dup3\n        /* \"#utility.yul\":11852:11900   */\n      tag_165\n      jump\t// in\n    tag_299:\n        /* \"#utility.yul\":11844:11850   */\n      dup4\n        /* \"#utility.yul\":11837:11901   */\n      sstore\n        /* \"#utility.yul\":11759:11915   */\n      pop\n        /* \"#utility.yul\":11736:11915   */\n    tag_298:\n        /* \"#utility.yul\":11961:11962   */\n      0x01\n        /* \"#utility.yul\":11957:11958   */\n      0x02\n        /* \"#utility.yul\":11949:11955   */\n      dup9\n        /* \"#utility.yul\":11945:11959   */\n      mul\n        /* \"#utility.yul\":11941:11963   */\n      add\n        /* \"#utility.yul\":11935:11939   */\n      dup9\n        /* \"#utility.yul\":11928:11964   */\n      sstore\n        /* \"#utility.yul\":11363:11974   */\n      pop\n      pop\n      pop\n        /* \"#utility.yul\":11326:12213   */\n    tag_290:\n      pop\n        /* \"#utility.yul\":10916:12219   */\n      pop\n      pop\n      pop\n        /* \"#utility.yul\":10824:12219   */\n      pop\n      pop\n      jump\t// out\n        /* \"#utility.yul\":12225:12383   */\n    tag_167:\n        /* \"#utility.yul\":12365:12375   */\n      0x44656c6976657264000000000000000000000000000000000000000000000000\n        /* \"#utility.yul\":12361:12362   */\n      0x00\n        /* \"#utility.yul\":12353:12359   */\n      dup3\n        /* \"#utility.yul\":12349:12363   */\n      add\n        /* \"#utility.yul\":12342:12376   */\n      mstore\n        /* \"#utility.yul\":12225:12383   */\n      pop\n      jump\t// out\n        /* \"#utility.yul\":12389:12754   */\n    tag_168:\n        /* \"#utility.yul\":12531:12534   */\n      0x00\n        /* \"#utility.yul\":12552:12618   */\n      tag_302\n        /* \"#utility.yul\":12616:12617   */\n      0x08\n        /* \"#utility.yul\":12611:12614   */\n      dup4\n        /* \"#utility.yul\":12552:12618   */\n      tag_138\n      jump\t// in\n    tag_302:\n        /* \"#utility.yul\":12545:12618   */\n      swap2\n      pop\n        /* \"#utility.yul\":12627:12720   */\n      tag_303\n        /* \"#utility.yul\":12716:12719   */\n      dup3\n        /* \"#utility.yul\":12627:12720   */\n      tag_167\n      jump\t// in\n    tag_303:\n        /* \"#utility.yul\":12745:12747   */\n      0x20\n        /* \"#utility.yul\":12740:12743   */\n      dup3\n        /* \"#utility.yul\":12736:12748   */\n      add\n        /* \"#utility.yul\":12729:12748   */\n      swap1\n      pop\n        /* \"#utility.yul\":12389:12754   */\n      swap2\n      swap1\n      pop\n      jump\t// out\n        /* \"#utility.yul\":12760:13179   */\n    tag_90:\n        /* \"#utility.yul\":12926:12930   */\n      0x00\n        /* \"#utility.yul\":12964:12966   */\n      0x20\n        /* \"#utility.yul\":12953:12962   */\n      dup3\n        /* \"#utility.yul\":12949:12967   */\n      add\n        /* \"#utility.yul\":12941:12967   */\n      swap1\n      pop\n        /* \"#utility.yul\":13013:13022   */\n      dup2\n        /* \"#utility.yul\":13007:13011   */\n      dup2\n        /* \"#utility.yul\":13003:13023   */\n      sub\n        /* \"#utility.yul\":12999:13000   */\n      0x00\n        /* \"#utility.yul\":12988:12997   */\n      dup4\n        /* \"#utility.yul\":12984:13001   */\n      add\n        /* \"#utility.yul\":12977:13024   */\n      mstore\n        /* \"#utility.yul\":13041:13172   */\n      tag_305\n        /* \"#utility.yul\":13167:13171   */\n      dup2\n        /* \"#utility.yul\":13041:13172   */\n      tag_168\n      jump\t// in\n    tag_305:\n        /* \"#utility.yul\":13033:13172   */\n      swap1\n      pop\n        /* \"#utility.yul\":12760:13179   */\n      swap2\n      swap1\n      pop\n      jump\t// out\n        /* \"#utility.yul\":13185:13342   */\n    tag_169:\n        /* \"#utility.yul\":13325:13334   */\n      0x70656e64696e6700000000000000000000000000000000000000000000000000\n        /* \"#utility.yul\":13321:13322   */\n      0x00\n        /* \"#utility.yul\":13313:13319   */\n      dup3\n        /* \"#utility.yul\":13309:13323   */\n      add\n        /* \"#utility.yul\":13302:13335   */\n      mstore\n        /* \"#utility.yul\":13185:13342   */\n      pop\n      jump\t// out\n        /* \"#utility.yul\":13348:13713   */\n    tag_170:\n        /* \"#utility.yul\":13490:13493   */\n      0x00\n        /* \"#utility.yul\":13511:13577   */\n      tag_308\n        /* \"#utility.yul\":13575:13576   */\n      0x07\n        /* \"#utility.yul\":13570:13573   */\n      dup4\n        /* \"#utility.yul\":13511:13577   */\n      tag_138\n      jump\t// in\n    tag_308:\n        /* \"#utility.yul\":13504:13577   */\n      swap2\n      pop\n        /* \"#utility.yul\":13586:13679   */\n      tag_309\n        /* \"#utility.yul\":13675:13678   */\n      dup3\n        /* \"#utility.yul\":13586:13679   */\n      tag_169\n      jump\t// in\n    tag_309:\n        /* \"#utility.yul\":13704:13706   */\n      0x20\n        /* \"#utility.yul\":13699:13702   */\n      dup3\n        /* \"#utility.yul\":13695:13707   */\n      add\n        /* \"#utility.yul\":13688:13707   */\n      swap1\n      pop\n        /* \"#utility.yul\":13348:13713   */\n      swap2\n      swap1\n      pop\n      jump\t// out\n        /* \"#utility.yul\":13719:14138   */\n    tag_99:\n        /* \"#utility.yul\":13885:13889   */\n      0x00\n        /* \"#utility.yul\":13923:13925   */\n      0x20\n        /* \"#utility.yul\":13912:13921   */\n      dup3\n        /* \"#utility.yul\":13908:13926   */\n      add\n        /* \"#utility.yul\":13900:13926   */\n      swap1\n      pop\n        /* \"#utility.yul\":13972:13981   */\n      dup2\n        /* \"#utility.yul\":13966:13970   */\n      dup2\n        /* \"#utility.yul\":13962:13982   */\n      sub\n        /* \"#utility.yul\":13958:13959   */\n      0x00\n        /* \"#utility.yul\":13947:13956   */\n      dup4\n        /* \"#utility.yul\":13943:13960   */\n      add\n        /* \"#utility.yul\":13936:13983   */\n      mstore\n        /* \"#utility.yul\":14000:14131   */\n      tag_311\n        /* \"#utility.yul\":14126:14130   */\n      dup2\n        /* \"#utility.yul\":14000:14131   */\n      tag_170\n      jump\t// in\n    tag_311:\n        /* \"#utility.yul\":13992:14131   */\n      swap1\n      pop\n        /* \"#utility.yul\":13719:14138   */\n      swap2\n      swap1\n      pop\n      jump\t// out\n        /* \"#utility.yul\":14144:14314   */\n    tag_171:\n        /* \"#utility.yul\":14284:14306   */\n      0x496e73756666696369656e742042616c616e6365000000000000000000000000\n        /* \"#utility.yul\":14280:14281   */\n      0x00\n        /* \"#utility.yul\":14272:14278   */\n      dup3\n        /* \"#utility.yul\":14268:14282   */\n      add\n        /* \"#utility.yul\":14261:14307   */\n      mstore\n        /* \"#utility.yul\":14144:14314   */\n      pop\n      jump\t// out\n        /* \"#utility.yul\":14320:14686   */\n    tag_172:\n        /* \"#utility.yul\":14462:14465   */\n      0x00\n        /* \"#utility.yul\":14483:14550   */\n      tag_314\n        /* \"#utility.yul\":14547:14549   */\n      0x14\n        /* \"#utility.yul\":14542:14545   */\n      dup4\n        /* \"#utility.yul\":14483:14550   */\n      tag_138\n      jump\t// in\n    tag_314:\n        /* \"#utility.yul\":14476:14550   */\n      swap2\n      pop\n        /* \"#utility.yul\":14559:14652   */\n      tag_315\n        /* \"#utility.yul\":14648:14651   */\n      dup3\n        /* \"#utility.yul\":14559:14652   */\n      tag_171\n      jump\t// in\n    tag_315:\n        /* \"#utility.yul\":14677:14679   */\n      0x20\n        /* \"#utility.yul\":14672:14675   */\n      dup3\n        /* \"#utility.yul\":14668:14680   */\n      add\n        /* \"#utility.yul\":14661:14680   */\n      swap1\n      pop\n        /* \"#utility.yul\":14320:14686   */\n      swap2\n      swap1\n      pop\n      jump\t// out\n        /* \"#utility.yul\":14692:15111   */\n    tag_112:\n        /* \"#utility.yul\":14858:14862   */\n      0x00\n        /* \"#utility.yul\":14896:14898   */\n      0x20\n        /* \"#utility.yul\":14885:14894   */\n      dup3\n        /* \"#utility.yul\":14881:14899   */\n      add\n        /* \"#utility.yul\":14873:14899   */\n      swap1\n      pop\n        /* \"#utility.yul\":14945:14954   */\n      dup2\n        /* \"#utility.yul\":14939:14943   */\n      dup2\n        /* \"#utility.yul\":14935:14955   */\n      sub\n        /* \"#utility.yul\":14931:14932   */\n      0x00\n        /* \"#utility.yul\":14920:14929   */\n      dup4\n        /* \"#utility.yul\":14916:14933   */\n      add\n        /* \"#utility.yul\":14909:14956   */\n      mstore\n        /* \"#utility.yul\":14973:15104   */\n      tag_317\n        /* \"#utility.yul\":15099:15103   */\n      dup2\n        /* \"#utility.yul\":14973:15104   */\n      tag_172\n      jump\t// in\n    tag_317:\n        /* \"#utility.yul\":14965:15104   */\n      swap1\n      pop\n        /* \"#utility.yul\":14692:15111   */\n      swap2\n      swap1\n      pop\n      jump\t// out\n    stop\n    data_96dfabbf07d0c6a780e51fb0d2039d68e0c52ce84c414db1c1d50292fb2d54f7 4f7264657220486173204265656e20506c61636564205375636365737366756c6c79\n\n    auxdata: 0xa2646970667358221220494626cb3a4f74a489276a70c958a87640d1e6fd590a32e1cc68151c343c0d8f64736f6c63430008140033\n}\n",
				"bytecode": {
					"linkReferences": {},
					"object": "60806040526040518060400160405280600781526020017f57656c636f6d6500000000000000000000000000000000000000000000000000815250600390816200004a919062000315565b5034801562000057575f80fd5b5073ab8483f64d9c6d1ecf9b849ae677dd3315835cb25f806101000a81548173ffffffffffffffffffffffffffffffffffffffff021916908373ffffffffffffffffffffffffffffffffffffffff160217905550620003f9565b5f81519050919050565b7f4e487b71000000000000000000000000000000000000000000000000000000005f52604160045260245ffd5b7f4e487b71000000000000000000000000000000000000000000000000000000005f52602260045260245ffd5b5f60028204905060018216806200012d57607f821691505b602082108103620001435762000142620000e8565b5b50919050565b5f819050815f5260205f209050919050565b5f6020601f8301049050919050565b5f82821b905092915050565b5f60088302620001a77fffffffffffffffffffffffffffffffffffffffffffffffffffffffffffffffff826200016a565b620001b386836200016a565b95508019841693508086168417925050509392505050565b5f819050919050565b5f819050919050565b5f620001fd620001f7620001f184620001cb565b620001d4565b620001cb565b9050919050565b5f819050919050565b6200021883620001dd565b62000230620002278262000204565b84845462000176565b825550505050565b5f90565b6200024662000238565b620002538184846200020d565b505050565b5b818110156200027a576200026e5f826200023c565b60018101905062000259565b5050565b601f821115620002c957620002938162000149565b6200029e846200015b565b81016020851015620002ae578190505b620002c6620002bd856200015b565b83018262000258565b50505b505050565b5f82821c905092915050565b5f620002eb5f1984600802620002ce565b1980831691505092915050565b5f620003058383620002da565b9150826002028217905092915050565b6200032082620000b1565b67ffffffffffffffff8111156200033c576200033b620000bb565b5b62000348825462000115565b620003558282856200027e565b5f60209050601f8311600181146200038b575f841562000376578287015190505b620003828582620002f8565b865550620003f1565b601f1984166200039b8662000149565b5f5b82811015620003c4578489015182556001820191506020850194506020810190506200039d565b86831015620003e45784890151620003e0601f891682620002da565b8355505b6001600288020188555050505b505050505050565b61110480620004075f395ff3fe608060405260043610610085575f3560e01c80639b47efe3116100585780639b47efe314610143578063aa8c217c14610159578063c213313614610183578063e21f37ce146101ad578063f15820ff146101d757610085565b806339aaba25146100895780634552b04f146100b35780636df427bc146100dd5780638da5cb5b14610119575b5f80fd5b348015610094575f80fd5b5061009d6101e1565b6040516100aa91906109a8565b60405180910390f35b3480156100be575f80fd5b506100c76101f6565b6040516100d49190610a00565b60405180910390f35b3480156100e8575f80fd5b5061010360048036038101906100fe9190610a40565b61021b565b6040516101109190610af5565b60405180910390f35b348015610124575f80fd5b5061012d6106da565b60405161013a9190610a00565b60405180910390f35b34801561014e575f80fd5b506101576106fd565b005b348015610164575f80fd5b5061016d610891565b60405161017a9190610b2d565b60405180910390f35b34801561018e575f80fd5b50610197610897565b6040516101a49190610b2d565b60405180910390f35b3480156101b8575f80fd5b506101c16108a7565b6040516101ce9190610af5565b60405180910390f35b6101df610933565b005b5f60045f9054906101000a900460ff16905090565b60015f9054906101000a900473ffffffffffffffffffffffffffffffffffffffff1681565b60603373ffffffffffffffffffffffffffffffffffffffff165f8054906101000a900473ffffffffffffffffffffffffffffffffffffffff1673ffffffffffffffffffffffffffffffffffffffff16146102aa576040517f08c379a00000000000000000000000000000000000000000000000000000000081526004016102a190610b90565b60405180910390fd5b6003808111156102bd576102bc610935565b5b60045f9054906101000a900460ff1660038111156102de576102dd610935565b5b111561031f576040517f08c379a000000000000000000000000000000000000000000000000000000000815260040161031690610bf8565b60405180910390fd5b8160045f6101000a81548160ff0219169083600381111561034357610342610935565b5b02179055506002600381111561035c5761035b610935565b5b60045f9054906101000a900460ff16600381111561037d5761037c610935565b5b0361048c577fe18822188b13ea789744bb656325800d3b5025b3d956e508917ed2a260b33a8d6040516103af90610c60565b60405180910390a16040518060400160405280600781526020017f5368697070656400000000000000000000000000000000000000000000000000815250600390816103fb9190610ea5565b506003805461040990610cd8565b80601f016020809104026020016040519081016040528092919081815260200182805461043590610cd8565b80156104805780601f1061045757610100808354040283529160200191610480565b820191905f5260205f20905b81548152906001019060200180831161046357829003601f168201915b505050505090506106d5565b60038081111561049f5761049e610935565b5b60045f9054906101000a900460ff1660038111156104c0576104bf610935565b5b036105cf577fe18822188b13ea789744bb656325800d3b5025b3d956e508917ed2a260b33a8d6040516104f290610fbe565b60405180910390a16040518060400160405280600981526020017f44656c69766572656400000000000000000000000000000000000000000000008152506003908161053e9190610ea5565b506003805461054c90610cd8565b80601f016020809104026020016040519081016040528092919081815260200182805461057890610cd8565b80156105c35780601f1061059a576101008083540402835291602001916105c3565b820191905f5260205f20905b8154815290600101906020018083116105a657829003601f168201915b505050505090506106d5565b7fe18822188b13ea789744bb656325800d3b5025b3d956e508917ed2a260b33a8d6040516105fc90611026565b60405180910390a16040518060400160405280600781526020017f70656e64696e6700000000000000000000000000000000000000000000000000815250600390816106489190610ea5565b506003805461065690610cd8565b80601f016020809104026020016040519081016040528092919081815260200182805461068290610cd8565b80156106cd5780601f106106a4576101008083540402835291602001916106cd565b820191905f5260205f20905b8154815290600101906020018083116106b057829003601f168201915b505050505090505b919050565b5f8054906101000a900473ffffffffffffffffffffffffffffffffffffffff1681565b3373ffffffffffffffffffffffffffffffffffffffff165f8054906101000a900473ffffffffffffffffffffffffffffffffffffffff1673ffffffffffffffffffffffffffffffffffffffff161461078a576040517f08c379a000000000000000000000000000000000000000000000000000000000815260040161078190610b90565b60405180910390fd5b670de0b6b3a764000060025410156107d7576040517f08c379a00000000000000000000000000000000000000000000000000000000081526004016107ce9061108e565b60405180910390fd5b670de0b6b3a76400006002541061088f577378731d3ca6b7e34ac0f824c42a7cc18a495cabab60015f6101000a81548173ffffffffffffffffffffffffffffffffffffffff021916908373ffffffffffffffffffffffffffffffffffffffff160217905550600160045f6101000a81548160ff0219169083600381111561086157610860610935565b5b02179055506040518060600160405280602281526020016110ad602291396003908161088d9190610ea5565b505b565b60025481565b5f47600281905550600254905090565b600380546108b490610cd8565b80601f01602080910402602001604051908101604052809291908181526020018280546108e090610cd8565b801561092b5780601f106109025761010080835404028352916020019161092b565b820191905f5260205f20905b81548152906001019060200180831161090e57829003601f168201915b505050505081565b565b7f4e487b71000000000000000000000000000000000000000000000000000000005f52602160045260245ffd5b6004811061097357610972610935565b5b50565b5f81905061098382610962565b919050565b5f61099282610976565b9050919050565b6109a281610988565b82525050565b5f6020820190506109bb5f830184610999565b92915050565b5f73ffffffffffffffffffffffffffffffffffffffff82169050919050565b5f6109ea826109c1565b9050919050565b6109fa816109e0565b82525050565b5f602082019050610a135f8301846109f1565b92915050565b5f80fd5b60048110610a29575f80fd5b50565b5f81359050610a3a81610a1d565b92915050565b5f60208284031215610a5557610a54610a19565b5b5f610a6284828501610a2c565b91505092915050565b5f81519050919050565b5f82825260208201905092915050565b5f5b83811015610aa2578082015181840152602081019050610a87565b5f8484015250505050565b5f601f19601f8301169050919050565b5f610ac782610a6b565b610ad18185610a75565b9350610ae1818560208601610a85565b610aea81610aad565b840191505092915050565b5f6020820190508181035f830152610b0d8184610abd565b905092915050565b5f819050919050565b610b2781610b15565b82525050565b5f602082019050610b405f830184610b1e565b92915050565b7f4e6f74204f776e657200000000000000000000000000000000000000000000005f82015250565b5f610b7a600983610a75565b9150610b8582610b46565b602082019050919050565b5f6020820190508181035f830152610ba781610b6e565b9050919050565b7f416c72656164792044656c6976657265640000000000000000000000000000005f82015250565b5f610be2601183610a75565b9150610bed82610bae565b602082019050919050565b5f6020820190508181035f830152610c0f81610bd6565b9050919050565b7f53686970706564000000000000000000000000000000000000000000000000005f82015250565b5f610c4a600783610a75565b9150610c5582610c16565b602082019050919050565b5f6020820190508181035f830152610c7781610c3e565b9050919050565b7f4e487b71000000000000000000000000000000000000000000000000000000005f52604160045260245ffd5b7f4e487b71000000000000000000000000000000000000000000000000000000005f52602260045260245ffd5b5f6002820490506001821680610cef57607f821691505b602082108103610d0257610d01610cab565b5b50919050565b5f819050815f5260205f209050919050565b5f6020601f8301049050919050565b5f82821b905092915050565b5f60088302610d647fffffffffffffffffffffffffffffffffffffffffffffffffffffffffffffffff82610d29565b610d6e8683610d29565b95508019841693508086168417925050509392505050565b5f819050919050565b5f610da9610da4610d9f84610b15565b610d86565b610b15565b9050919050565b5f819050919050565b610dc283610d8f565b610dd6610dce82610db0565b848454610d35565b825550505050565b5f90565b610dea610dde565b610df5818484610db9565b505050565b5b81811015610e1857610e0d5f82610de2565b600181019050610dfb565b5050565b601f821115610e5d57610e2e81610d08565b610e3784610d1a565b81016020851015610e46578190505b610e5a610e5285610d1a565b830182610dfa565b50505b505050565b5f82821c905092915050565b5f610e7d5f1984600802610e62565b1980831691505092915050565b5f610e958383610e6e565b9150826002028217905092915050565b610eae82610a6b565b67ffffffffffffffff811115610ec757610ec6610c7e565b5b610ed18254610cd8565b610edc828285610e1c565b5f60209050601f831160018114610f0d575f8415610efb578287015190505b610f058582610e8a565b865550610f6c565b601f198416610f1b86610d08565b5f5b82811015610f4257848901518255600182019150602085019450602081019050610f1d565b86831015610f5f5784890151610f5b601f891682610e6e565b8355505b6001600288020188555050505b505050505050565b7f44656c69766572640000000000000000000000000000000000000000000000005f82015250565b5f610fa8600883610a75565b9150610fb382610f74565b602082019050919050565b5f6020820190508181035f830152610fd581610f9c565b9050919050565b7f70656e64696e67000000000000000000000000000000000000000000000000005f82015250565b5f611010600783610a75565b915061101b82610fdc565b602082019050919050565b5f6020820190508181035f83015261103d81611004565b9050919050565b7f496e73756666696369656e742042616c616e63650000000000000000000000005f82015250565b5f611078601483610a75565b915061108382611044565b602082019050919050565b5f6020820190508181035f8301526110a58161106c565b905091905056fe4f7264657220486173204265656e20506c61636564205375636365737366756c6c79a2646970667358221220494626cb3a4f74a489276a70c958a87640d1e6fd590a32e1cc68151c343c0d8f64736f6c63430008140033",
					"opcodes": "PUSH1 0x80 PUSH1 0x40 MSTORE PUSH1 0x40 MLOAD DUP1 PUSH1 0x40 ADD PUSH1 0x40 MSTORE DUP1 PUSH1 0x7 DUP2 MSTORE PUSH1 0x20 ADD PUSH32 0x57656C636F6D6500000000000000000000000000000000000000000000000000 DUP2 MSTORE POP PUSH1 0x3 SWAP1 DUP2 PUSH3 0x4A SWAP2 SWAP1 PUSH3 0x315 JUMP JUMPDEST POP CALLVALUE DUP1 ISZERO PUSH3 0x57 JUMPI PUSH0 DUP1 REVERT JUMPDEST POP PUSH20 0xAB8483F64D9C6D1ECF9B849AE677DD3315835CB2 PUSH0 DUP1 PUSH2 0x100 EXP DUP2 SLOAD DUP2 PUSH20 0xFFFFFFFFFFFFFFFFFFFFFFFFFFFFFFFFFFFFFFFF MUL NOT AND SWAP1 DUP4 PUSH20 0xFFFFFFFFFFFFFFFFFFFFFFFFFFFFFFFFFFFFFFFF AND MUL OR SWAP1 SSTORE POP PUSH3 0x3F9 JUMP JUMPDEST PUSH0 DUP2 MLOAD SWAP1 POP SWAP2 SWAP1 POP JUMP JUMPDEST PUSH32 0x4E487B7100000000000000000000000000000000000000000000000000000000 PUSH0 MSTORE PUSH1 0x41 PUSH1 0x4 MSTORE PUSH1 0x24 PUSH0 REVERT JUMPDEST PUSH32 0x4E487B7100000000000000000000000000000000000000000000000000000000 PUSH0 MSTORE PUSH1 0x22 PUSH1 0x4 MSTORE PUSH1 0x24 PUSH0 REVERT JUMPDEST PUSH0 PUSH1 0x2 DUP3 DIV SWAP1 POP PUSH1 0x1 DUP3 AND DUP1 PUSH3 0x12D JUMPI PUSH1 0x7F DUP3 AND SWAP2 POP JUMPDEST PUSH1 0x20 DUP3 LT DUP2 SUB PUSH3 0x143 JUMPI PUSH3 0x142 PUSH3 0xE8 JUMP JUMPDEST JUMPDEST POP SWAP2 SWAP1 POP JUMP JUMPDEST PUSH0 DUP2 SWAP1 POP DUP2 PUSH0 MSTORE PUSH1 0x20 PUSH0 KECCAK256 SWAP1 POP SWAP2 SWAP1 POP JUMP JUMPDEST PUSH0 PUSH1 0x20 PUSH1 0x1F DUP4 ADD DIV SWAP1 POP SWAP2 SWAP1 POP JUMP JUMPDEST PUSH0 DUP3 DUP3 SHL SWAP1 POP SWAP3 SWAP2 POP POP JUMP JUMPDEST PUSH0 PUSH1 0x8 DUP4 MUL PUSH3 0x1A7 PUSH32 0xFFFFFFFFFFFFFFFFFFFFFFFFFFFFFFFFFFFFFFFFFFFFFFFFFFFFFFFFFFFFFFFF DUP3 PUSH3 0x16A JUMP JUMPDEST PUSH3 0x1B3 DUP7 DUP4 PUSH3 0x16A JUMP JUMPDEST SWAP6 POP DUP1 NOT DUP5 AND SWAP4 POP DUP1 DUP7 AND DUP5 OR SWAP3 POP POP POP SWAP4 SWAP3 POP POP POP JUMP JUMPDEST PUSH0 DUP2 SWAP1 POP SWAP2 SWAP1 POP JUMP JUMPDEST PUSH0 DUP2 SWAP1 POP SWAP2 SWAP1 POP JUMP JUMPDEST PUSH0 PUSH3 0x1FD PUSH3 0x1F7 PUSH3 0x1F1 DUP5 PUSH3 0x1CB JUMP JUMPDEST PUSH3 0x1D4 JUMP JUMPDEST PUSH3 0x1CB JUMP JUMPDEST SWAP1 POP SWAP2 SWAP1 POP JUMP JUMPDEST PUSH0 DUP2 SWAP1 POP SWAP2 SWAP1 POP JUMP JUMPDEST PUSH3 0x218 DUP4 PUSH3 0x1DD JUMP JUMPDEST PUSH3 0x230 PUSH3 0x227 DUP3 PUSH3 0x204 JUMP JUMPDEST DUP5 DUP5 SLOAD PUSH3 0x176 JUMP JUMPDEST DUP3 SSTORE POP POP POP POP JUMP JUMPDEST PUSH0 SWAP1 JUMP JUMPDEST PUSH3 0x246 PUSH3 0x238 JUMP JUMPDEST PUSH3 0x253 DUP2 DUP5 DUP5 PUSH3 0x20D JUMP JUMPDEST POP POP POP JUMP JUMPDEST JUMPDEST DUP2 DUP2 LT ISZERO PUSH3 0x27A JUMPI PUSH3 0x26E PUSH0 DUP3 PUSH3 0x23C JUMP JUMPDEST PUSH1 0x1 DUP2 ADD SWAP1 POP PUSH3 0x259 JUMP JUMPDEST POP POP JUMP JUMPDEST PUSH1 0x1F DUP3 GT ISZERO PUSH3 0x2C9 JUMPI PUSH3 0x293 DUP2 PUSH3 0x149 JUMP JUMPDEST PUSH3 0x29E DUP5 PUSH3 0x15B JUMP JUMPDEST DUP2 ADD PUSH1 0x20 DUP6 LT ISZERO PUSH3 0x2AE JUMPI DUP2 SWAP1 POP JUMPDEST PUSH3 0x2C6 PUSH3 0x2BD DUP6 PUSH3 0x15B JUMP JUMPDEST DUP4 ADD DUP3 PUSH3 0x258 JUMP JUMPDEST POP POP JUMPDEST POP POP POP JUMP JUMPDEST PUSH0 DUP3 DUP3 SHR SWAP1 POP SWAP3 SWAP2 POP POP JUMP JUMPDEST PUSH0 PUSH3 0x2EB PUSH0 NOT DUP5 PUSH1 0x8 MUL PUSH3 0x2CE JUMP JUMPDEST NOT DUP1 DUP4 AND SWAP2 POP POP SWAP3 SWAP2 POP POP JUMP JUMPDEST PUSH0 PUSH3 0x305 DUP4 DUP4 PUSH3 0x2DA JUMP JUMPDEST SWAP2 POP DUP3 PUSH1 0x2 MUL DUP3 OR SWAP1 POP SWAP3 SWAP2 POP POP JUMP JUMPDEST PUSH3 0x320 DUP3 PUSH3 0xB1 JUMP JUMPDEST PUSH8 0xFFFFFFFFFFFFFFFF DUP2 GT ISZERO PUSH3 0x33C JUMPI PUSH3 0x33B PUSH3 0xBB JUMP JUMPDEST JUMPDEST PUSH3 0x348 DUP3 SLOAD PUSH3 0x115 JUMP JUMPDEST PUSH3 0x355 DUP3 DUP3 DUP6 PUSH3 0x27E JUMP JUMPDEST PUSH0 PUSH1 0x20 SWAP1 POP PUSH1 0x1F DUP4 GT PUSH1 0x1 DUP2 EQ PUSH3 0x38B JUMPI PUSH0 DUP5 ISZERO PUSH3 0x376 JUMPI DUP3 DUP8 ADD MLOAD SWAP1 POP JUMPDEST PUSH3 0x382 DUP6 DUP3 PUSH3 0x2F8 JUMP JUMPDEST DUP7 SSTORE POP PUSH3 0x3F1 JUMP JUMPDEST PUSH1 0x1F NOT DUP5 AND PUSH3 0x39B DUP7 PUSH3 0x149 JUMP JUMPDEST PUSH0 JUMPDEST DUP3 DUP2 LT ISZERO PUSH3 0x3C4 JUMPI DUP5 DUP10 ADD MLOAD DUP3 SSTORE PUSH1 0x1 DUP3 ADD SWAP2 POP PUSH1 0x20 DUP6 ADD SWAP5 POP PUSH1 0x20 DUP2 ADD SWAP1 POP PUSH3 0x39D JUMP JUMPDEST DUP7 DUP4 LT ISZERO PUSH3 0x3E4 JUMPI DUP5 DUP10 ADD MLOAD PUSH3 0x3E0 PUSH1 0x1F DUP10 AND DUP3 PUSH3 0x2DA JUMP JUMPDEST DUP4 SSTORE POP JUMPDEST PUSH1 0x1 PUSH1 0x2 DUP9 MUL ADD DUP9 SSTORE POP POP POP JUMPDEST POP POP POP POP POP POP JUMP JUMPDEST PUSH2 0x1104 DUP1 PUSH3 0x407 PUSH0 CODECOPY PUSH0 RETURN INVALID PUSH1 0x80 PUSH1 0x40 MSTORE PUSH1 0x4 CALLDATASIZE LT PUSH2 0x85 JUMPI PUSH0 CALLDATALOAD PUSH1 0xE0 SHR DUP1 PUSH4 0x9B47EFE3 GT PUSH2 0x58 JUMPI DUP1 PUSH4 0x9B47EFE3 EQ PUSH2 0x143 JUMPI DUP1 PUSH4 0xAA8C217C EQ PUSH2 0x159 JUMPI DUP1 PUSH4 0xC2133136 EQ PUSH2 0x183 JUMPI DUP1 PUSH4 0xE21F37CE EQ PUSH2 0x1AD JUMPI DUP1 PUSH4 0xF15820FF EQ PUSH2 0x1D7 JUMPI PUSH2 0x85 JUMP JUMPDEST DUP1 PUSH4 0x39AABA25 EQ PUSH2 0x89 JUMPI DUP1 PUSH4 0x4552B04F EQ PUSH2 0xB3 JUMPI DUP1 PUSH4 0x6DF427BC EQ PUSH2 0xDD JUMPI DUP1 PUSH4 0x8DA5CB5B EQ PUSH2 0x119 JUMPI JUMPDEST PUSH0 DUP1 REVERT JUMPDEST CALLVALUE DUP1 ISZERO PUSH2 0x94 JUMPI PUSH0 DUP1 REVERT JUMPDEST POP PUSH2 0x9D PUSH2 0x1E1 JUMP JUMPDEST PUSH1 0x40 MLOAD PUSH2 0xAA SWAP2 SWAP1 PUSH2 0x9A8 JUMP JUMPDEST PUSH1 0x40 MLOAD DUP1 SWAP2 SUB SWAP1 RETURN JUMPDEST CALLVALUE DUP1 ISZERO PUSH2 0xBE JUMPI PUSH0 DUP1 REVERT JUMPDEST POP PUSH2 0xC7 PUSH2 0x1F6 JUMP JUMPDEST PUSH1 0x40 MLOAD PUSH2 0xD4 SWAP2 SWAP1 PUSH2 0xA00 JUMP JUMPDEST PUSH1 0x40 MLOAD DUP1 SWAP2 SUB SWAP1 RETURN JUMPDEST CALLVALUE DUP1 ISZERO PUSH2 0xE8 JUMPI PUSH0 DUP1 REVERT JUMPDEST POP PUSH2 0x103 PUSH1 0x4 DUP1 CALLDATASIZE SUB DUP2 ADD SWAP1 PUSH2 0xFE SWAP2 SWAP1 PUSH2 0xA40 JUMP JUMPDEST PUSH2 0x21B JUMP JUMPDEST PUSH1 0x40 MLOAD PUSH2 0x110 SWAP2 SWAP1 PUSH2 0xAF5 JUMP JUMPDEST PUSH1 0x40 MLOAD DUP1 SWAP2 SUB SWAP1 RETURN JUMPDEST CALLVALUE DUP1 ISZERO PUSH2 0x124 JUMPI PUSH0 DUP1 REVERT JUMPDEST POP PUSH2 0x12D PUSH2 0x6DA JUMP JUMPDEST PUSH1 0x40 MLOAD PUSH2 0x13A SWAP2 SWAP1 PUSH2 0xA00 JUMP JUMPDEST PUSH1 0x40 MLOAD DUP1 SWAP2 SUB SWAP1 RETURN JUMPDEST CALLVALUE DUP1 ISZERO PUSH2 0x14E JUMPI PUSH0 DUP1 REVERT JUMPDEST POP PUSH2 0x157 PUSH2 0x6FD JUMP JUMPDEST STOP JUMPDEST CALLVALUE DUP1 ISZERO PUSH2 0x164 JUMPI PUSH0 DUP1 REVERT JUMPDEST POP PUSH2 0x16D PUSH2 0x891 JUMP JUMPDEST PUSH1 0x40 MLOAD PUSH2 0x17A SWAP2 SWAP1 PUSH2 0xB2D JUMP JUMPDEST PUSH1 0x40 MLOAD DUP1 SWAP2 SUB SWAP1 RETURN JUMPDEST CALLVALUE DUP1 ISZERO PUSH2 0x18E JUMPI PUSH0 DUP1 REVERT JUMPDEST POP PUSH2 0x197 PUSH2 0x897 JUMP JUMPDEST PUSH1 0x40 MLOAD PUSH2 0x1A4 SWAP2 SWAP1 PUSH2 0xB2D JUMP JUMPDEST PUSH1 0x40 MLOAD DUP1 SWAP2 SUB SWAP1 RETURN JUMPDEST CALLVALUE DUP1 ISZERO PUSH2 0x1B8 JUMPI PUSH0 DUP1 REVERT JUMPDEST POP PUSH2 0x1C1 PUSH2 0x8A7 JUMP JUMPDEST PUSH1 0x40 MLOAD PUSH2 0x1CE SWAP2 SWAP1 PUSH2 0xAF5 JUMP JUMPDEST PUSH1 0x40 MLOAD DUP1 SWAP2 SUB SWAP1 RETURN JUMPDEST PUSH2 0x1DF PUSH2 0x933 JUMP JUMPDEST STOP JUMPDEST PUSH0 PUSH1 0x4 PUSH0 SWAP1 SLOAD SWAP1 PUSH2 0x100 EXP SWAP1 DIV PUSH1 0xFF AND SWAP1 POP SWAP1 JUMP JUMPDEST PUSH1 0x1 PUSH0 SWAP1 SLOAD SWAP1 PUSH2 0x100 EXP SWAP1 DIV PUSH20 0xFFFFFFFFFFFFFFFFFFFFFFFFFFFFFFFFFFFFFFFF AND DUP2 JUMP JUMPDEST PUSH1 0x60 CALLER PUSH20 0xFFFFFFFFFFFFFFFFFFFFFFFFFFFFFFFFFFFFFFFF AND PUSH0 DUP1 SLOAD SWAP1 PUSH2 0x100 EXP SWAP1 DIV PUSH20 0xFFFFFFFFFFFFFFFFFFFFFFFFFFFFFFFFFFFFFFFF AND PUSH20 0xFFFFFFFFFFFFFFFFFFFFFFFFFFFFFFFFFFFFFFFF AND EQ PUSH2 0x2AA JUMPI PUSH1 0x40 MLOAD PUSH32 0x8C379A000000000000000000000000000000000000000000000000000000000 DUP2 MSTORE PUSH1 0x4 ADD PUSH2 0x2A1 SWAP1 PUSH2 0xB90 JUMP JUMPDEST PUSH1 0x40 MLOAD DUP1 SWAP2 SUB SWAP1 REVERT JUMPDEST PUSH1 0x3 DUP1 DUP2 GT ISZERO PUSH2 0x2BD JUMPI PUSH2 0x2BC PUSH2 0x935 JUMP JUMPDEST JUMPDEST PUSH1 0x4 PUSH0 SWAP1 SLOAD SWAP1 PUSH2 0x100 EXP SWAP1 DIV PUSH1 0xFF AND PUSH1 0x3 DUP2 GT ISZERO PUSH2 0x2DE JUMPI PUSH2 0x2DD PUSH2 0x935 JUMP JUMPDEST JUMPDEST GT ISZERO PUSH2 0x31F JUMPI PUSH1 0x40 MLOAD PUSH32 0x8C379A000000000000000000000000000000000000000000000000000000000 DUP2 MSTORE PUSH1 0x4 ADD PUSH2 0x316 SWAP1 PUSH2 0xBF8 JUMP JUMPDEST PUSH1 0x40 MLOAD DUP1 SWAP2 SUB SWAP1 REVERT JUMPDEST DUP2 PUSH1 0x4 PUSH0 PUSH2 0x100 EXP DUP2 SLOAD DUP2 PUSH1 0xFF MUL NOT AND SWAP1 DUP4 PUSH1 0x3 DUP2 GT ISZERO PUSH2 0x343 JUMPI PUSH2 0x342 PUSH2 0x935 JUMP JUMPDEST JUMPDEST MUL OR SWAP1 SSTORE POP PUSH1 0x2 PUSH1 0x3 DUP2 GT ISZERO PUSH2 0x35C JUMPI PUSH2 0x35B PUSH2 0x935 JUMP JUMPDEST JUMPDEST PUSH1 0x4 PUSH0 SWAP1 SLOAD SWAP1 PUSH2 0x100 EXP SWAP1 DIV PUSH1 0xFF AND PUSH1 0x3 DUP2 GT ISZERO PUSH2 0x37D JUMPI PUSH2 0x37C PUSH2 0x935 JUMP JUMPDEST JUMPDEST SUB PUSH2 0x48C JUMPI PUSH32 0xE18822188B13EA789744BB656325800D3B5025B3D956E508917ED2A260B33A8D PUSH1 0x40 MLOAD PUSH2 0x3AF SWAP1 PUSH2 0xC60 JUMP JUMPDEST PUSH1 0x40 MLOAD DUP1 SWAP2 SUB SWAP1 LOG1 PUSH1 0x40 MLOAD DUP1 PUSH1 0x40 ADD PUSH1 0x40 MSTORE DUP1 PUSH1 0x7 DUP2 MSTORE PUSH1 0x20 ADD PUSH32 0x5368697070656400000000000000000000000000000000000000000000000000 DUP2 MSTORE POP PUSH1 0x3 SWAP1 DUP2 PUSH2 0x3FB SWAP2 SWAP1 PUSH2 0xEA5 JUMP JUMPDEST POP PUSH1 0x3 DUP1 SLOAD PUSH2 0x409 SWAP1 PUSH2 0xCD8 JUMP JUMPDEST DUP1 PUSH1 0x1F ADD PUSH1 0x20 DUP1 SWAP2 DIV MUL PUSH1 0x20 ADD PUSH1 0x40 MLOAD SWAP1 DUP2 ADD PUSH1 0x40 MSTORE DUP1 SWAP3 SWAP2 SWAP1 DUP2 DUP2 MSTORE PUSH1 0x20 ADD DUP3 DUP1 SLOAD PUSH2 0x435 SWAP1 PUSH2 0xCD8 JUMP JUMPDEST DUP1 ISZERO PUSH2 0x480 JUMPI DUP1 PUSH1 0x1F LT PUSH2 0x457 JUMPI PUSH2 0x100 DUP1 DUP4 SLOAD DIV MUL DUP4 MSTORE SWAP2 PUSH1 0x20 ADD SWAP2 PUSH2 0x480 JUMP JUMPDEST DUP3 ADD SWAP2 SWAP1 PUSH0 MSTORE PUSH1 0x20 PUSH0 KECCAK256 SWAP1 JUMPDEST DUP2 SLOAD DUP2 MSTORE SWAP1 PUSH1 0x1 ADD SWAP1 PUSH1 0x20 ADD DUP1 DUP4 GT PUSH2 0x463 JUMPI DUP3 SWAP1 SUB PUSH1 0x1F AND DUP3 ADD SWAP2 JUMPDEST POP POP POP POP POP SWAP1 POP PUSH2 0x6D5 JUMP JUMPDEST PUSH1 0x3 DUP1 DUP2 GT ISZERO PUSH2 0x49F JUMPI PUSH2 0x49E PUSH2 0x935 JUMP JUMPDEST JUMPDEST PUSH1 0x4 PUSH0 SWAP1 SLOAD SWAP1 PUSH2 0x100 EXP SWAP1 DIV PUSH1 0xFF AND PUSH1 0x3 DUP2 GT ISZERO PUSH2 0x4C0 JUMPI PUSH2 0x4BF PUSH2 0x935 JUMP JUMPDEST JUMPDEST SUB PUSH2 0x5CF JUMPI PUSH32 0xE18822188B13EA789744BB656325800D3B5025B3D956E508917ED2A260B33A8D PUSH1 0x40 MLOAD PUSH2 0x4F2 SWAP1 PUSH2 0xFBE JUMP JUMPDEST PUSH1 0x40 MLOAD DUP1 SWAP2 SUB SWAP1 LOG1 PUSH1 0x40 MLOAD DUP1 PUSH1 0x40 ADD PUSH1 0x40 MSTORE DUP1 PUSH1 0x9 DUP2 MSTORE PUSH1 0x20 ADD PUSH32 0x44656C6976657265640000000000000000000000000000000000000000000000 DUP2 MSTORE POP PUSH1 0x3 SWAP1 DUP2 PUSH2 0x53E SWAP2 SWAP1 PUSH2 0xEA5 JUMP JUMPDEST POP PUSH1 0x3 DUP1 SLOAD PUSH2 0x54C SWAP1 PUSH2 0xCD8 JUMP JUMPDEST DUP1 PUSH1 0x1F ADD PUSH1 0x20 DUP1 SWAP2 DIV MUL PUSH1 0x20 ADD PUSH1 0x40 MLOAD SWAP1 DUP2 ADD PUSH1 0x40 MSTORE DUP1 SWAP3 SWAP2 SWAP1 DUP2 DUP2 MSTORE PUSH1 0x20 ADD DUP3 DUP1 SLOAD PUSH2 0x578 SWAP1 PUSH2 0xCD8 JUMP JUMPDEST DUP1 ISZERO PUSH2 0x5C3 JUMPI DUP1 PUSH1 0x1F LT PUSH2 0x59A JUMPI PUSH2 0x100 DUP1 DUP4 SLOAD DIV MUL DUP4 MSTORE SWAP2 PUSH1 0x20 ADD SWAP2 PUSH2 0x5C3 JUMP JUMPDEST DUP3 ADD SWAP2 SWAP1 PUSH0 MSTORE PUSH1 0x20 PUSH0 KECCAK256 SWAP1 JUMPDEST DUP2 SLOAD DUP2 MSTORE SWAP1 PUSH1 0x1 ADD SWAP1 PUSH1 0x20 ADD DUP1 DUP4 GT PUSH2 0x5A6 JUMPI DUP3 SWAP1 SUB PUSH1 0x1F AND DUP3 ADD SWAP2 JUMPDEST POP POP POP POP POP SWAP1 POP PUSH2 0x6D5 JUMP JUMPDEST PUSH32 0xE18822188B13EA789744BB656325800D3B5025B3D956E508917ED2A260B33A8D PUSH1 0x40 MLOAD PUSH2 0x5FC SWAP1 PUSH2 0x1026 JUMP JUMPDEST PUSH1 0x40 MLOAD DUP1 SWAP2 SUB SWAP1 LOG1 PUSH1 0x40 MLOAD DUP1 PUSH1 0x40 ADD PUSH1 0x40 MSTORE DUP1 PUSH1 0x7 DUP2 MSTORE PUSH1 0x20 ADD PUSH32 0x70656E64696E6700000000000000000000000000000000000000000000000000 DUP2 MSTORE POP PUSH1 0x3 SWAP1 DUP2 PUSH2 0x648 SWAP2 SWAP1 PUSH2 0xEA5 JUMP JUMPDEST POP PUSH1 0x3 DUP1 SLOAD PUSH2 0x656 SWAP1 PUSH2 0xCD8 JUMP JUMPDEST DUP1 PUSH1 0x1F ADD PUSH1 0x20 DUP1 SWAP2 DIV MUL PUSH1 0x20 ADD PUSH1 0x40 MLOAD SWAP1 DUP2 ADD PUSH1 0x40 MSTORE DUP1 SWAP3 SWAP2 SWAP1 DUP2 DUP2 MSTORE PUSH1 0x20 ADD DUP3 DUP1 SLOAD PUSH2 0x682 SWAP1 PUSH2 0xCD8 JUMP JUMPDEST DUP1 ISZERO PUSH2 0x6CD JUMPI DUP1 PUSH1 0x1F LT PUSH2 0x6A4 JUMPI PUSH2 0x100 DUP1 DUP4 SLOAD DIV MUL DUP4 MSTORE SWAP2 PUSH1 0x20 ADD SWAP2 PUSH2 0x6CD JUMP JUMPDEST DUP3 ADD SWAP2 SWAP1 PUSH0 MSTORE PUSH1 0x20 PUSH0 KECCAK256 SWAP1 JUMPDEST DUP2 SLOAD DUP2 MSTORE SWAP1 PUSH1 0x1 ADD SWAP1 PUSH1 0x20 ADD DUP1 DUP4 GT PUSH2 0x6B0 JUMPI DUP3 SWAP1 SUB PUSH1 0x1F AND DUP3 ADD SWAP2 JUMPDEST POP POP POP POP POP SWAP1 POP JUMPDEST SWAP2 SWAP1 POP JUMP JUMPDEST PUSH0 DUP1 SLOAD SWAP1 PUSH2 0x100 EXP SWAP1 DIV PUSH20 0xFFFFFFFFFFFFFFFFFFFFFFFFFFFFFFFFFFFFFFFF AND DUP2 JUMP JUMPDEST CALLER PUSH20 0xFFFFFFFFFFFFFFFFFFFFFFFFFFFFFFFFFFFFFFFF AND PUSH0 DUP1 SLOAD SWAP1 PUSH2 0x100 EXP SWAP1 DIV PUSH20 0xFFFFFFFFFFFFFFFFFFFFFFFFFFFFFFFFFFFFFFFF AND PUSH20 0xFFFFFFFFFFFFFFFFFFFFFFFFFFFFFFFFFFFFFFFF AND EQ PUSH2 0x78A JUMPI PUSH1 0x40 MLOAD PUSH32 0x8C379A000000000000000000000000000000000000000000000000000000000 DUP2 MSTORE PUSH1 0x4 ADD PUSH2 0x781 SWAP1 PUSH2 0xB90 JUMP JUMPDEST PUSH1 0x40 MLOAD DUP1 SWAP2 SUB SWAP1 REVERT JUMPDEST PUSH8 0xDE0B6B3A7640000 PUSH1 0x2 SLOAD LT ISZERO PUSH2 0x7D7 JUMPI PUSH1 0x40 MLOAD PUSH32 0x8C379A000000000000000000000000000000000000000000000000000000000 DUP2 MSTORE PUSH1 0x4 ADD PUSH2 0x7CE SWAP1 PUSH2 0x108E JUMP JUMPDEST PUSH1 0x40 MLOAD DUP1 SWAP2 SUB SWAP1 REVERT JUMPDEST PUSH8 0xDE0B6B3A7640000 PUSH1 0x2 SLOAD LT PUSH2 0x88F JUMPI PUSH20 0x78731D3CA6B7E34AC0F824C42A7CC18A495CABAB PUSH1 0x1 PUSH0 PUSH2 0x100 EXP DUP2 SLOAD DUP2 PUSH20 0xFFFFFFFFFFFFFFFFFFFFFFFFFFFFFFFFFFFFFFFF MUL NOT AND SWAP1 DUP4 PUSH20 0xFFFFFFFFFFFFFFFFFFFFFFFFFFFFFFFFFFFFFFFF AND MUL OR SWAP1 SSTORE POP PUSH1 0x1 PUSH1 0x4 PUSH0 PUSH2 0x100 EXP DUP2 SLOAD DUP2 PUSH1 0xFF MUL NOT AND SWAP1 DUP4 PUSH1 0x3 DUP2 GT ISZERO PUSH2 0x861 JUMPI PUSH2 0x860 PUSH2 0x935 JUMP JUMPDEST JUMPDEST MUL OR SWAP1 SSTORE POP PUSH1 0x40 MLOAD DUP1 PUSH1 0x60 ADD PUSH1 0x40 MSTORE DUP1 PUSH1 0x22 DUP2 MSTORE PUSH1 0x20 ADD PUSH2 0x10AD PUSH1 0x22 SWAP2 CODECOPY PUSH1 0x3 SWAP1 DUP2 PUSH2 0x88D SWAP2 SWAP1 PUSH2 0xEA5 JUMP JUMPDEST POP JUMPDEST JUMP JUMPDEST PUSH1 0x2 SLOAD DUP2 JUMP JUMPDEST PUSH0 SELFBALANCE PUSH1 0x2 DUP2 SWAP1 SSTORE POP PUSH1 0x2 SLOAD SWAP1 POP SWAP1 JUMP JUMPDEST PUSH1 0x3 DUP1 SLOAD PUSH2 0x8B4 SWAP1 PUSH2 0xCD8 JUMP JUMPDEST DUP1 PUSH1 0x1F ADD PUSH1 0x20 DUP1 SWAP2 DIV MUL PUSH1 0x20 ADD PUSH1 0x40 MLOAD SWAP1 DUP2 ADD PUSH1 0x40 MSTORE DUP1 SWAP3 SWAP2 SWAP1 DUP2 DUP2 MSTORE PUSH1 0x20 ADD DUP3 DUP1 SLOAD PUSH2 0x8E0 SWAP1 PUSH2 0xCD8 JUMP JUMPDEST DUP1 ISZERO PUSH2 0x92B JUMPI DUP1 PUSH1 0x1F LT PUSH2 0x902 JUMPI PUSH2 0x100 DUP1 DUP4 SLOAD DIV MUL DUP4 MSTORE SWAP2 PUSH1 0x20 ADD SWAP2 PUSH2 0x92B JUMP JUMPDEST DUP3 ADD SWAP2 SWAP1 PUSH0 MSTORE PUSH1 0x20 PUSH0 KECCAK256 SWAP1 JUMPDEST DUP2 SLOAD DUP2 MSTORE SWAP1 PUSH1 0x1 ADD SWAP1 PUSH1 0x20 ADD DUP1 DUP4 GT PUSH2 0x90E JUMPI DUP3 SWAP1 SUB PUSH1 0x1F AND DUP3 ADD SWAP2 JUMPDEST POP POP POP POP POP DUP2 JUMP JUMPDEST JUMP JUMPDEST PUSH32 0x4E487B7100000000000000000000000000000000000000000000000000000000 PUSH0 MSTORE PUSH1 0x21 PUSH1 0x4 MSTORE PUSH1 0x24 PUSH0 REVERT JUMPDEST PUSH1 0x4 DUP2 LT PUSH2 0x973 JUMPI PUSH2 0x972 PUSH2 0x935 JUMP JUMPDEST JUMPDEST POP JUMP JUMPDEST PUSH0 DUP2 SWAP1 POP PUSH2 0x983 DUP3 PUSH2 0x962 JUMP JUMPDEST SWAP2 SWAP1 POP JUMP JUMPDEST PUSH0 PUSH2 0x992 DUP3 PUSH2 0x976 JUMP JUMPDEST SWAP1 POP SWAP2 SWAP1 POP JUMP JUMPDEST PUSH2 0x9A2 DUP2 PUSH2 0x988 JUMP JUMPDEST DUP3 MSTORE POP POP JUMP JUMPDEST PUSH0 PUSH1 0x20 DUP3 ADD SWAP1 POP PUSH2 0x9BB PUSH0 DUP4 ADD DUP5 PUSH2 0x999 JUMP JUMPDEST SWAP3 SWAP2 POP POP JUMP JUMPDEST PUSH0 PUSH20 0xFFFFFFFFFFFFFFFFFFFFFFFFFFFFFFFFFFFFFFFF DUP3 AND SWAP1 POP SWAP2 SWAP1 POP JUMP JUMPDEST PUSH0 PUSH2 0x9EA DUP3 PUSH2 0x9C1 JUMP JUMPDEST SWAP1 POP SWAP2 SWAP1 POP JUMP JUMPDEST PUSH2 0x9FA DUP2 PUSH2 0x9E0 JUMP JUMPDEST DUP3 MSTORE POP POP JUMP JUMPDEST PUSH0 PUSH1 0x20 DUP3 ADD SWAP1 POP PUSH2 0xA13 PUSH0 DUP4 ADD DUP5 PUSH2 0x9F1 JUMP JUMPDEST SWAP3 SWAP2 POP POP JUMP JUMPDEST PUSH0 DUP1 REVERT JUMPDEST PUSH1 0x4 DUP2 LT PUSH2 0xA29 JUMPI PUSH0 DUP1 REVERT JUMPDEST POP JUMP JUMPDEST PUSH0 DUP2 CALLDATALOAD SWAP1 POP PUSH2 0xA3A DUP2 PUSH2 0xA1D JUMP JUMPDEST SWAP3 SWAP2 POP POP JUMP JUMPDEST PUSH0 PUSH1 0x20 DUP3 DUP5 SUB SLT ISZERO PUSH2 0xA55 JUMPI PUSH2 0xA54 PUSH2 0xA19 JUMP JUMPDEST JUMPDEST PUSH0 PUSH2 0xA62 DUP5 DUP3 DUP6 ADD PUSH2 0xA2C JUMP JUMPDEST SWAP2 POP POP SWAP3 SWAP2 POP POP JUMP JUMPDEST PUSH0 DUP2 MLOAD SWAP1 POP SWAP2 SWAP1 POP JUMP JUMPDEST PUSH0 DUP3 DUP3 MSTORE PUSH1 0x20 DUP3 ADD SWAP1 POP SWAP3 SWAP2 POP POP JUMP JUMPDEST PUSH0 JUMPDEST DUP4 DUP2 LT ISZERO PUSH2 0xAA2 JUMPI DUP1 DUP3 ADD MLOAD DUP2 DUP5 ADD MSTORE PUSH1 0x20 DUP2 ADD SWAP1 POP PUSH2 0xA87 JUMP JUMPDEST PUSH0 DUP5 DUP5 ADD MSTORE POP POP POP POP JUMP JUMPDEST PUSH0 PUSH1 0x1F NOT PUSH1 0x1F DUP4 ADD AND SWAP1 POP SWAP2 SWAP1 POP JUMP JUMPDEST PUSH0 PUSH2 0xAC7 DUP3 PUSH2 0xA6B JUMP JUMPDEST PUSH2 0xAD1 DUP2 DUP6 PUSH2 0xA75 JUMP JUMPDEST SWAP4 POP PUSH2 0xAE1 DUP2 DUP6 PUSH1 0x20 DUP7 ADD PUSH2 0xA85 JUMP JUMPDEST PUSH2 0xAEA DUP2 PUSH2 0xAAD JUMP JUMPDEST DUP5 ADD SWAP2 POP POP SWAP3 SWAP2 POP POP JUMP JUMPDEST PUSH0 PUSH1 0x20 DUP3 ADD SWAP1 POP DUP2 DUP2 SUB PUSH0 DUP4 ADD MSTORE PUSH2 0xB0D DUP2 DUP5 PUSH2 0xABD JUMP JUMPDEST SWAP1 POP SWAP3 SWAP2 POP POP JUMP JUMPDEST PUSH0 DUP2 SWAP1 POP SWAP2 SWAP1 POP JUMP JUMPDEST PUSH2 0xB27 DUP2 PUSH2 0xB15 JUMP JUMPDEST DUP3 MSTORE POP POP JUMP JUMPDEST PUSH0 PUSH1 0x20 DUP3 ADD SWAP1 POP PUSH2 0xB40 PUSH0 DUP4 ADD DUP5 PUSH2 0xB1E JUMP JUMPDEST SWAP3 SWAP2 POP POP JUMP JUMPDEST PUSH32 0x4E6F74204F776E65720000000000000000000000000000000000000000000000 PUSH0 DUP3 ADD MSTORE POP JUMP JUMPDEST PUSH0 PUSH2 0xB7A PUSH1 0x9 DUP4 PUSH2 0xA75 JUMP JUMPDEST SWAP2 POP PUSH2 0xB85 DUP3 PUSH2 0xB46 JUMP JUMPDEST PUSH1 0x20 DUP3 ADD SWAP1 POP SWAP2 SWAP1 POP JUMP JUMPDEST PUSH0 PUSH1 0x20 DUP3 ADD SWAP1 POP DUP2 DUP2 SUB PUSH0 DUP4 ADD MSTORE PUSH2 0xBA7 DUP2 PUSH2 0xB6E JUMP JUMPDEST SWAP1 POP SWAP2 SWAP1 POP JUMP JUMPDEST PUSH32 0x416C72656164792044656C697665726564000000000000000000000000000000 PUSH0 DUP3 ADD MSTORE POP JUMP JUMPDEST PUSH0 PUSH2 0xBE2 PUSH1 0x11 DUP4 PUSH2 0xA75 JUMP JUMPDEST SWAP2 POP PUSH2 0xBED DUP3 PUSH2 0xBAE JUMP JUMPDEST PUSH1 0x20 DUP3 ADD SWAP1 POP SWAP2 SWAP1 POP JUMP JUMPDEST PUSH0 PUSH1 0x20 DUP3 ADD SWAP1 POP DUP2 DUP2 SUB PUSH0 DUP4 ADD MSTORE PUSH2 0xC0F DUP2 PUSH2 0xBD6 JUMP JUMPDEST SWAP1 POP SWAP2 SWAP1 POP JUMP JUMPDEST PUSH32 0x5368697070656400000000000000000000000000000000000000000000000000 PUSH0 DUP3 ADD MSTORE POP JUMP JUMPDEST PUSH0 PUSH2 0xC4A PUSH1 0x7 DUP4 PUSH2 0xA75 JUMP JUMPDEST SWAP2 POP PUSH2 0xC55 DUP3 PUSH2 0xC16 JUMP JUMPDEST PUSH1 0x20 DUP3 ADD SWAP1 POP SWAP2 SWAP1 POP JUMP JUMPDEST PUSH0 PUSH1 0x20 DUP3 ADD SWAP1 POP DUP2 DUP2 SUB PUSH0 DUP4 ADD MSTORE PUSH2 0xC77 DUP2 PUSH2 0xC3E JUMP JUMPDEST SWAP1 POP SWAP2 SWAP1 POP JUMP JUMPDEST PUSH32 0x4E487B7100000000000000000000000000000000000000000000000000000000 PUSH0 MSTORE PUSH1 0x41 PUSH1 0x4 MSTORE PUSH1 0x24 PUSH0 REVERT JUMPDEST PUSH32 0x4E487B7100000000000000000000000000000000000000000000000000000000 PUSH0 MSTORE PUSH1 0x22 PUSH1 0x4 MSTORE PUSH1 0x24 PUSH0 REVERT JUMPDEST PUSH0 PUSH1 0x2 DUP3 DIV SWAP1 POP PUSH1 0x1 DUP3 AND DUP1 PUSH2 0xCEF JUMPI PUSH1 0x7F DUP3 AND SWAP2 POP JUMPDEST PUSH1 0x20 DUP3 LT DUP2 SUB PUSH2 0xD02 JUMPI PUSH2 0xD01 PUSH2 0xCAB JUMP JUMPDEST JUMPDEST POP SWAP2 SWAP1 POP JUMP JUMPDEST PUSH0 DUP2 SWAP1 POP DUP2 PUSH0 MSTORE PUSH1 0x20 PUSH0 KECCAK256 SWAP1 POP SWAP2 SWAP1 POP JUMP JUMPDEST PUSH0 PUSH1 0x20 PUSH1 0x1F DUP4 ADD DIV SWAP1 POP SWAP2 SWAP1 POP JUMP JUMPDEST PUSH0 DUP3 DUP3 SHL SWAP1 POP SWAP3 SWAP2 POP POP JUMP JUMPDEST PUSH0 PUSH1 0x8 DUP4 MUL PUSH2 0xD64 PUSH32 0xFFFFFFFFFFFFFFFFFFFFFFFFFFFFFFFFFFFFFFFFFFFFFFFFFFFFFFFFFFFFFFFF DUP3 PUSH2 0xD29 JUMP JUMPDEST PUSH2 0xD6E DUP7 DUP4 PUSH2 0xD29 JUMP JUMPDEST SWAP6 POP DUP1 NOT DUP5 AND SWAP4 POP DUP1 DUP7 AND DUP5 OR SWAP3 POP POP POP SWAP4 SWAP3 POP POP POP JUMP JUMPDEST PUSH0 DUP2 SWAP1 POP SWAP2 SWAP1 POP JUMP JUMPDEST PUSH0 PUSH2 0xDA9 PUSH2 0xDA4 PUSH2 0xD9F DUP5 PUSH2 0xB15 JUMP JUMPDEST PUSH2 0xD86 JUMP JUMPDEST PUSH2 0xB15 JUMP JUMPDEST SWAP1 POP SWAP2 SWAP1 POP JUMP JUMPDEST PUSH0 DUP2 SWAP1 POP SWAP2 SWAP1 POP JUMP JUMPDEST PUSH2 0xDC2 DUP4 PUSH2 0xD8F JUMP JUMPDEST PUSH2 0xDD6 PUSH2 0xDCE DUP3 PUSH2 0xDB0 JUMP JUMPDEST DUP5 DUP5 SLOAD PUSH2 0xD35 JUMP JUMPDEST DUP3 SSTORE POP POP POP POP JUMP JUMPDEST PUSH0 SWAP1 JUMP JUMPDEST PUSH2 0xDEA PUSH2 0xDDE JUMP JUMPDEST PUSH2 0xDF5 DUP2 DUP5 DUP5 PUSH2 0xDB9 JUMP JUMPDEST POP POP POP JUMP JUMPDEST JUMPDEST DUP2 DUP2 LT ISZERO PUSH2 0xE18 JUMPI PUSH2 0xE0D PUSH0 DUP3 PUSH2 0xDE2 JUMP JUMPDEST PUSH1 0x1 DUP2 ADD SWAP1 POP PUSH2 0xDFB JUMP JUMPDEST POP POP JUMP JUMPDEST PUSH1 0x1F DUP3 GT ISZERO PUSH2 0xE5D JUMPI PUSH2 0xE2E DUP2 PUSH2 0xD08 JUMP JUMPDEST PUSH2 0xE37 DUP5 PUSH2 0xD1A JUMP JUMPDEST DUP2 ADD PUSH1 0x20 DUP6 LT ISZERO PUSH2 0xE46 JUMPI DUP2 SWAP1 POP JUMPDEST PUSH2 0xE5A PUSH2 0xE52 DUP6 PUSH2 0xD1A JUMP JUMPDEST DUP4 ADD DUP3 PUSH2 0xDFA JUMP JUMPDEST POP POP JUMPDEST POP POP POP JUMP JUMPDEST PUSH0 DUP3 DUP3 SHR SWAP1 POP SWAP3 SWAP2 POP POP JUMP JUMPDEST PUSH0 PUSH2 0xE7D PUSH0 NOT DUP5 PUSH1 0x8 MUL PUSH2 0xE62 JUMP JUMPDEST NOT DUP1 DUP4 AND SWAP2 POP POP SWAP3 SWAP2 POP POP JUMP JUMPDEST PUSH0 PUSH2 0xE95 DUP4 DUP4 PUSH2 0xE6E JUMP JUMPDEST SWAP2 POP DUP3 PUSH1 0x2 MUL DUP3 OR SWAP1 POP SWAP3 SWAP2 POP POP JUMP JUMPDEST PUSH2 0xEAE DUP3 PUSH2 0xA6B JUMP JUMPDEST PUSH8 0xFFFFFFFFFFFFFFFF DUP2 GT ISZERO PUSH2 0xEC7 JUMPI PUSH2 0xEC6 PUSH2 0xC7E JUMP JUMPDEST JUMPDEST PUSH2 0xED1 DUP3 SLOAD PUSH2 0xCD8 JUMP JUMPDEST PUSH2 0xEDC DUP3 DUP3 DUP6 PUSH2 0xE1C JUMP JUMPDEST PUSH0 PUSH1 0x20 SWAP1 POP PUSH1 0x1F DUP4 GT PUSH1 0x1 DUP2 EQ PUSH2 0xF0D JUMPI PUSH0 DUP5 ISZERO PUSH2 0xEFB JUMPI DUP3 DUP8 ADD MLOAD SWAP1 POP JUMPDEST PUSH2 0xF05 DUP6 DUP3 PUSH2 0xE8A JUMP JUMPDEST DUP7 SSTORE POP PUSH2 0xF6C JUMP JUMPDEST PUSH1 0x1F NOT DUP5 AND PUSH2 0xF1B DUP7 PUSH2 0xD08 JUMP JUMPDEST PUSH0 JUMPDEST DUP3 DUP2 LT ISZERO PUSH2 0xF42 JUMPI DUP5 DUP10 ADD MLOAD DUP3 SSTORE PUSH1 0x1 DUP3 ADD SWAP2 POP PUSH1 0x20 DUP6 ADD SWAP5 POP PUSH1 0x20 DUP2 ADD SWAP1 POP PUSH2 0xF1D JUMP JUMPDEST DUP7 DUP4 LT ISZERO PUSH2 0xF5F JUMPI DUP5 DUP10 ADD MLOAD PUSH2 0xF5B PUSH1 0x1F DUP10 AND DUP3 PUSH2 0xE6E JUMP JUMPDEST DUP4 SSTORE POP JUMPDEST PUSH1 0x1 PUSH1 0x2 DUP9 MUL ADD DUP9 SSTORE POP POP POP JUMPDEST POP POP POP POP POP POP JUMP JUMPDEST PUSH32 0x44656C6976657264000000000000000000000000000000000000000000000000 PUSH0 DUP3 ADD MSTORE POP JUMP JUMPDEST PUSH0 PUSH2 0xFA8 PUSH1 0x8 DUP4 PUSH2 0xA75 JUMP JUMPDEST SWAP2 POP PUSH2 0xFB3 DUP3 PUSH2 0xF74 JUMP JUMPDEST PUSH1 0x20 DUP3 ADD SWAP1 POP SWAP2 SWAP1 POP JUMP JUMPDEST PUSH0 PUSH1 0x20 DUP3 ADD SWAP1 POP DUP2 DUP2 SUB PUSH0 DUP4 ADD MSTORE PUSH2 0xFD5 DUP2 PUSH2 0xF9C JUMP JUMPDEST SWAP1 POP SWAP2 SWAP1 POP JUMP JUMPDEST PUSH32 0x70656E64696E6700000000000000000000000000000000000000000000000000 PUSH0 DUP3 ADD MSTORE POP JUMP JUMPDEST PUSH0 PUSH2 0x1010 PUSH1 0x7 DUP4 PUSH2 0xA75 JUMP JUMPDEST SWAP2 POP PUSH2 0x101B DUP3 PUSH2 0xFDC JUMP JUMPDEST PUSH1 0x20 DUP3 ADD SWAP1 POP SWAP2 SWAP1 POP JUMP JUMPDEST PUSH0 PUSH1 0x20 DUP3 ADD SWAP1 POP DUP2 DUP2 SUB PUSH0 DUP4 ADD MSTORE PUSH2 0x103D DUP2 PUSH2 0x1004 JUMP JUMPDEST SWAP1 POP SWAP2 SWAP1 POP JUMP JUMPDEST PUSH32 0x496E73756666696369656E742042616C616E6365000000000000000000000000 PUSH0 DUP3 ADD MSTORE POP JUMP JUMPDEST PUSH0 PUSH2 0x1078 PUSH1 0x14 DUP4 PUSH2 0xA75 JUMP JUMPDEST SWAP2 POP PUSH2 0x1083 DUP3 PUSH2 0x1044 JUMP JUMPDEST PUSH1 0x20 DUP3 ADD SWAP1 POP SWAP2 SWAP1 POP JUMP JUMPDEST PUSH0 PUSH1 0x20 DUP3 ADD SWAP1 POP DUP2 DUP2 SUB PUSH0 DUP4 ADD MSTORE PUSH2 0x10A5 DUP2 PUSH2 0x106C JUMP JUMPDEST SWAP1 POP SWAP2 SWAP1 POP JUMP INVALID 0x4F PUSH19 0x64657220486173204265656E20506C61636564 KECCAK256 MSTORE8 PUSH22 0x636365737366756C6C79A26469706673582212204946 0x26 0xCB GASPRICE 0x4F PUSH21 0xA489276A70C958A87640D1E6FD590A32E1CC68151C CALLVALUE EXTCODECOPY 0xD DUP16 PUSH5 0x736F6C6343 STOP ADDMOD EQ STOP CALLER "
				},
				"gasEstimates": {
					"creation": {
						"codeDepositCost": "871200",
						"executionCost": "infinite",
						"totalCost": "infinite"
					},
					"external": {
						"Get_amount()": "207",
						"Owner_ship()": "infinite",
						"amount()": "2447",
						"get_status()": "2562",
						"message()": "infinite",
						"new_owner()": "2531",
						"owner()": "2572",
						"set_status(uint8)": "infinite",
						"update_balance()": "24592"
					}
				},
				"methodIdentifiers": {
					"Get_amount()": "f15820ff",
					"Owner_ship()": "9b47efe3",
					"amount()": "aa8c217c",
					"get_status()": "39aaba25",
					"message()": "e21f37ce",
					"new_owner()": "4552b04f",
					"owner()": "8da5cb5b",
					"set_status(uint8)": "6df427bc",
					"update_balance()": "c2133136"
				}
			},
			"storageLayout": {
				"storage": [
					{
						"astId": 3,
						"contract": "contracts/Innovation/MiniProject.sol:mini_project",
						"label": "owner",
						"offset": 0,
						"slot": "0",
						"type": "t_address"
					},
					{
						"astId": 5,
						"contract": "contracts/Innovation/MiniProject.sol:mini_project",
						"label": "new_owner",
						"offset": 0,
						"slot": "1",
						"type": "t_address"
					},
					{
						"astId": 7,
						"contract": "contracts/Innovation/MiniProject.sol:mini_project",
						"label": "amount",
						"offset": 0,
						"slot": "2",
						"type": "t_uint256"
					},
					{
						"astId": 10,
						"contract": "contracts/Innovation/MiniProject.sol:mini_project",
						"label": "message",
						"offset": 0,
						"slot": "3",
						"type": "t_string_storage"
					},
					{
						"astId": 69,
						"contract": "contracts/Innovation/MiniProject.sol:mini_project",
						"label": "status",
						"offset": 0,
						"slot": "4",
						"type": "t_enum(Status)23"
					}
				],
				"types": {
					"t_address": {
						"encoding": "inplace",
						"label": "address",
						"numberOfBytes": "20"
					},
					"t_enum(Status)23": {
						"encoding": "inplace",
						"label": "enum mini_project.Status",
						"numberOfBytes": "1"
					},
					"t_string_storage": {
						"encoding": "bytes",
						"label": "string",
						"numberOfBytes": "32"
					},
					"t_uint256": {
						"encoding": "inplace",
						"label": "uint256",
						"numberOfBytes": "32"
					}
				}
			},
			"userdoc": {
				"kind": "user",
				"methods": {},
				"version": 1
			}
		}
	}
}