{
	"data": {
		"bytecode": {
			"linkReferences": {},
			"object": "60806040527f06b3dfaec148fb1bb2b066f10ec285e7c9bf402ab32aa78a5d38e34566810cd260001b60005534801561003757600080fd5b50610683806100476000396000f3fe608060405234801561001057600080fd5b506004361061004c5760003560e01c806316002988146100515780635e90f0dc14610081578063b4795088146100b1578063dc2ec8e5146100e1575b600080fd5b61006b6004803603810190610066919061031c565b610111565b604051610078919061048f565b60405180910390f35b61009b600480360381019061009691906102b0565b610147565b6040516100a8919061048f565b60405180910390f35b6100cb60048036038101906100c6919061026f565b61017a565b6040516100d89190610474565b60405180910390f35b6100fb60048036038101906100f6919061026f565b6101ad565b604051610108919061048f565b60405180910390f35b60008383836040516020016101289392919061043b565b6040516020818303038152906040528051906020012090509392505050565b6000828260405160200161015c929190610417565b60405160208183030381529060405280519060200120905092915050565b600080548260405160200161018f9190610400565b60405160208183030381529060405280519060200120149050919050565b6000816040516020016101c09190610400565b604051602081830303815290604052805190602001209050919050565b60006101f06101eb846104db565b6104aa565b90508281526020810184848401111561020857600080fd5b610213848285610573565b509392505050565b60008135905061022a8161061f565b92915050565b600082601f83011261024157600080fd5b81356102518482602086016101dd565b91505092915050565b60008135905061026981610636565b92915050565b60006020828403121561028157600080fd5b600082013567ffffffffffffffff81111561029b57600080fd5b6102a784828501610230565b91505092915050565b600080604083850312156102c357600080fd5b600083013567ffffffffffffffff8111156102dd57600080fd5b6102e985828601610230565b925050602083013567ffffffffffffffff81111561030657600080fd5b61031285828601610230565b9150509250929050565b60008060006060848603121561033157600080fd5b600084013567ffffffffffffffff81111561034b57600080fd5b61035786828701610230565b93505060206103688682870161025a565b92505060406103798682870161021b565b9150509250925092565b61039461038f82610521565b6105b5565b82525050565b6103a381610533565b82525050565b6103b28161053f565b82525050565b60006103c38261050b565b6103cd8185610516565b93506103dd818560208601610582565b80840191505092915050565b6103fa6103f582610569565b6105d9565b82525050565b600061040c82846103b8565b915081905092915050565b600061042382856103b8565b915061042f82846103b8565b91508190509392505050565b600061044782866103b8565b915061045382856103e9565b6020820191506104638284610383565b601482019150819050949350505050565b6000602082019050610489600083018461039a565b92915050565b60006020820190506104a460008301846103a9565b92915050565b6000604051905081810181811067ffffffffffffffff821117156104d1576104d06105e3565b5b8060405250919050565b600067ffffffffffffffff8211156104f6576104f56105e3565b5b601f19601f8301169050602081019050919050565b600081519050919050565b600081905092915050565b600061052c82610549565b9050919050565b60008115159050919050565b6000819050919050565b600073ffffffffffffffffffffffffffffffffffffffff82169050919050565b6000819050919050565b82818337600083830152505050565b60005b838110156105a0578082015181840152602081019050610585565b838111156105af576000848401525b50505050565b60006105c0826105c7565b9050919050565b60006105d282610612565b9050919050565b6000819050919050565b7f4e487b7100000000000000000000000000000000000000000000000000000000600052604160045260246000fd5b60008160601b9050919050565b61062881610521565b811461063357600080fd5b50565b61063f81610569565b811461064a57600080fd5b5056fea264697066735822122029f0dfc0352c7edee19008db6e37ae9a4e4f3e66ab3ca1e9388467a8db8bd5ea64736f6c63430008000033",
			"opcodes": "PUSH1 0x80 PUSH1 0x40 MSTORE PUSH32 0x6B3DFAEC148FB1BB2B066F10EC285E7C9BF402AB32AA78A5D38E34566810CD2 PUSH1 0x0 SHL PUSH1 0x0 SSTORE CALLVALUE DUP1 ISZERO PUSH2 0x37 JUMPI PUSH1 0x0 DUP1 REVERT JUMPDEST POP PUSH2 0x683 DUP1 PUSH2 0x47 PUSH1 0x0 CODECOPY PUSH1 0x0 RETURN INVALID PUSH1 0x80 PUSH1 0x40 MSTORE CALLVALUE DUP1 ISZERO PUSH2 0x10 JUMPI PUSH1 0x0 DUP1 REVERT JUMPDEST POP PUSH1 0x4 CALLDATASIZE LT PUSH2 0x4C JUMPI PUSH1 0x0 CALLDATALOAD PUSH1 0xE0 SHR DUP1 PUSH4 0x16002988 EQ PUSH2 0x51 JUMPI DUP1 PUSH4 0x5E90F0DC EQ PUSH2 0x81 JUMPI DUP1 PUSH4 0xB4795088 EQ PUSH2 0xB1 JUMPI DUP1 PUSH4 0xDC2EC8E5 EQ PUSH2 0xE1 JUMPI JUMPDEST PUSH1 0x0 DUP1 REVERT JUMPDEST PUSH2 0x6B PUSH1 0x4 DUP1 CALLDATASIZE SUB DUP2 ADD SWAP1 PUSH2 0x66 SWAP2 SWAP1 PUSH2 0x31C JUMP JUMPDEST PUSH2 0x111 JUMP JUMPDEST PUSH1 0x40 MLOAD PUSH2 0x78 SWAP2 SWAP1 PUSH2 0x48F JUMP JUMPDEST PUSH1 0x40 MLOAD DUP1 SWAP2 SUB SWAP1 RETURN JUMPDEST PUSH2 0x9B PUSH1 0x4 DUP1 CALLDATASIZE SUB DUP2 ADD SWAP1 PUSH2 0x96 SWAP2 SWAP1 PUSH2 0x2B0 JUMP JUMPDEST PUSH2 0x147 JUMP JUMPDEST PUSH1 0x40 MLOAD PUSH2 0xA8 SWAP2 SWAP1 PUSH2 0x48F JUMP JUMPDEST PUSH1 0x40 MLOAD DUP1 SWAP2 SUB SWAP1 RETURN JUMPDEST PUSH2 0xCB PUSH1 0x4 DUP1 CALLDATASIZE SUB DUP2 ADD SWAP1 PUSH2 0xC6 SWAP2 SWAP1 PUSH2 0x26F JUMP JUMPDEST PUSH2 0x17A JUMP JUMPDEST PUSH1 0x40 MLOAD PUSH2 0xD8 SWAP2 SWAP1 PUSH2 0x474 JUMP JUMPDEST PUSH1 0x40 MLOAD DUP1 SWAP2 SUB SWAP1 RETURN JUMPDEST PUSH2 0xFB PUSH1 0x4 DUP1 CALLDATASIZE SUB DUP2 ADD SWAP1 PUSH2 0xF6 SWAP2 SWAP1 PUSH2 0x26F JUMP JUMPDEST PUSH2 0x1AD JUMP JUMPDEST PUSH1 0x40 MLOAD PUSH2 0x108 SWAP2 SWAP1 PUSH2 0x48F JUMP JUMPDEST PUSH1 0x40 MLOAD DUP1 SWAP2 SUB SWAP1 RETURN JUMPDEST PUSH1 0x0 DUP4 DUP4 DUP4 PUSH1 0x40 MLOAD PUSH1 0x20 ADD PUSH2 0x128 SWAP4 SWAP3 SWAP2 SWAP1 PUSH2 0x43B JUMP JUMPDEST PUSH1 0x40 MLOAD PUSH1 0x20 DUP2 DUP4 SUB SUB DUP2 MSTORE SWAP1 PUSH1 0x40 MSTORE DUP1 MLOAD SWAP1 PUSH1 0x20 ADD KECCAK256 SWAP1 POP SWAP4 SWAP3 POP POP POP JUMP JUMPDEST PUSH1 0x0 DUP3 DUP3 PUSH1 0x40 MLOAD PUSH1 0x20 ADD PUSH2 0x15C SWAP3 SWAP2 SWAP1 PUSH2 0x417 JUMP JUMPDEST PUSH1 0x40 MLOAD PUSH1 0x20 DUP2 DUP4 SUB SUB DUP2 MSTORE SWAP1 PUSH1 0x40 MSTORE DUP1 MLOAD SWAP1 PUSH1 0x20 ADD KECCAK256 SWAP1 POP SWAP3 SWAP2 POP POP JUMP JUMPDEST PUSH1 0x0 DUP1 SLOAD DUP3 PUSH1 0x40 MLOAD PUSH1 0x20 ADD PUSH2 0x18F SWAP2 SWAP1 PUSH2 0x400 JUMP JUMPDEST PUSH1 0x40 MLOAD PUSH1 0x20 DUP2 DUP4 SUB SUB DUP2 MSTORE SWAP1 PUSH1 0x40 MSTORE DUP1 MLOAD SWAP1 PUSH1 0x20 ADD KECCAK256 EQ SWAP1 POP SWAP2 SWAP1 POP JUMP JUMPDEST PUSH1 0x0 DUP2 PUSH1 0x40 MLOAD PUSH1 0x20 ADD PUSH2 0x1C0 SWAP2 SWAP1 PUSH2 0x400 JUMP JUMPDEST PUSH1 0x40 MLOAD PUSH1 0x20 DUP2 DUP4 SUB SUB DUP2 MSTORE SWAP1 PUSH1 0x40 MSTORE DUP1 MLOAD SWAP1 PUSH1 0x20 ADD KECCAK256 SWAP1 POP SWAP2 SWAP1 POP JUMP JUMPDEST PUSH1 0x0 PUSH2 0x1F0 PUSH2 0x1EB DUP5 PUSH2 0x4DB JUMP JUMPDEST PUSH2 0x4AA JUMP JUMPDEST SWAP1 POP DUP3 DUP2 MSTORE PUSH1 0x20 DUP2 ADD DUP5 DUP5 DUP5 ADD GT ISZERO PUSH2 0x208 JUMPI PUSH1 0x0 DUP1 REVERT JUMPDEST PUSH2 0x213 DUP5 DUP3 DUP6 PUSH2 0x573 JUMP JUMPDEST POP SWAP4 SWAP3 POP POP POP JUMP JUMPDEST PUSH1 0x0 DUP2 CALLDATALOAD SWAP1 POP PUSH2 0x22A DUP2 PUSH2 0x61F JUMP JUMPDEST SWAP3 SWAP2 POP POP JUMP JUMPDEST PUSH1 0x0 DUP3 PUSH1 0x1F DUP4 ADD SLT PUSH2 0x241 JUMPI PUSH1 0x0 DUP1 REVERT JUMPDEST DUP2 CALLDATALOAD PUSH2 0x251 DUP5 DUP3 PUSH1 0x20 DUP7 ADD PUSH2 0x1DD JUMP JUMPDEST SWAP2 POP POP SWAP3 SWAP2 POP POP JUMP JUMPDEST PUSH1 0x0 DUP2 CALLDATALOAD SWAP1 POP PUSH2 0x269 DUP2 PUSH2 0x636 JUMP JUMPDEST SWAP3 SWAP2 POP POP JUMP JUMPDEST PUSH1 0x0 PUSH1 0x20 DUP3 DUP5 SUB SLT ISZERO PUSH2 0x281 JUMPI PUSH1 0x0 DUP1 REVERT JUMPDEST PUSH1 0x0 DUP3 ADD CALLDATALOAD PUSH8 0xFFFFFFFFFFFFFFFF DUP2 GT ISZERO PUSH2 0x29B JUMPI PUSH1 0x0 DUP1 REVERT JUMPDEST PUSH2 0x2A7 DUP5 DUP3 DUP6 ADD PUSH2 0x230 JUMP JUMPDEST SWAP2 POP POP SWAP3 SWAP2 POP POP JUMP JUMPDEST PUSH1 0x0 DUP1 PUSH1 0x40 DUP4 DUP6 SUB SLT ISZERO PUSH2 0x2C3 JUMPI PUSH1 0x0 DUP1 REVERT JUMPDEST PUSH1 0x0 DUP4 ADD CALLDATALOAD PUSH8 0xFFFFFFFFFFFFFFFF DUP2 GT ISZERO PUSH2 0x2DD JUMPI PUSH1 0x0 DUP1 REVERT JUMPDEST PUSH2 0x2E9 DUP6 DUP3 DUP7 ADD PUSH2 0x230 JUMP JUMPDEST SWAP3 POP POP PUSH1 0x20 DUP4 ADD CALLDATALOAD PUSH8 0xFFFFFFFFFFFFFFFF DUP2 GT ISZERO PUSH2 0x306 JUMPI PUSH1 0x0 DUP1 REVERT JUMPDEST PUSH2 0x312 DUP6 DUP3 DUP7 ADD PUSH2 0x230 JUMP JUMPDEST SWAP2 POP POP SWAP3 POP SWAP3 SWAP1 POP JUMP JUMPDEST PUSH1 0x0 DUP1 PUSH1 0x0 PUSH1 0x60 DUP5 DUP7 SUB SLT ISZERO PUSH2 0x331 JUMPI PUSH1 0x0 DUP1 REVERT JUMPDEST PUSH1 0x0 DUP5 ADD CALLDATALOAD PUSH8 0xFFFFFFFFFFFFFFFF DUP2 GT ISZERO PUSH2 0x34B JUMPI PUSH1 0x0 DUP1 REVERT JUMPDEST PUSH2 0x357 DUP7 DUP3 DUP8 ADD PUSH2 0x230 JUMP JUMPDEST SWAP4 POP POP PUSH1 0x20 PUSH2 0x368 DUP7 DUP3 DUP8 ADD PUSH2 0x25A JUMP JUMPDEST SWAP3 POP POP PUSH1 0x40 PUSH2 0x379 DUP7 DUP3 DUP8 ADD PUSH2 0x21B JUMP JUMPDEST SWAP2 POP POP SWAP3 POP SWAP3 POP SWAP3 JUMP JUMPDEST PUSH2 0x394 PUSH2 0x38F DUP3 PUSH2 0x521 JUMP JUMPDEST PUSH2 0x5B5 JUMP JUMPDEST DUP3 MSTORE POP POP JUMP JUMPDEST PUSH2 0x3A3 DUP2 PUSH2 0x533 JUMP JUMPDEST DUP3 MSTORE POP POP JUMP JUMPDEST PUSH2 0x3B2 DUP2 PUSH2 0x53F JUMP JUMPDEST DUP3 MSTORE POP POP JUMP JUMPDEST PUSH1 0x0 PUSH2 0x3C3 DUP3 PUSH2 0x50B JUMP JUMPDEST PUSH2 0x3CD DUP2 DUP6 PUSH2 0x516 JUMP JUMPDEST SWAP4 POP PUSH2 0x3DD DUP2 DUP6 PUSH1 0x20 DUP7 ADD PUSH2 0x582 JUMP JUMPDEST DUP1 DUP5 ADD SWAP2 POP POP SWAP3 SWAP2 POP POP JUMP JUMPDEST PUSH2 0x3FA PUSH2 0x3F5 DUP3 PUSH2 0x569 JUMP JUMPDEST PUSH2 0x5D9 JUMP JUMPDEST DUP3 MSTORE POP POP JUMP JUMPDEST PUSH1 0x0 PUSH2 0x40C DUP3 DUP5 PUSH2 0x3B8 JUMP JUMPDEST SWAP2 POP DUP2 SWAP1 POP SWAP3 SWAP2 POP POP JUMP JUMPDEST PUSH1 0x0 PUSH2 0x423 DUP3 DUP6 PUSH2 0x3B8 JUMP JUMPDEST SWAP2 POP PUSH2 0x42F DUP3 DUP5 PUSH2 0x3B8 JUMP JUMPDEST SWAP2 POP DUP2 SWAP1 POP SWAP4 SWAP3 POP POP POP JUMP JUMPDEST PUSH1 0x0 PUSH2 0x447 DUP3 DUP7 PUSH2 0x3B8 JUMP JUMPDEST SWAP2 POP PUSH2 0x453 DUP3 DUP6 PUSH2 0x3E9 JUMP JUMPDEST PUSH1 0x20 DUP3 ADD SWAP2 POP PUSH2 0x463 DUP3 DUP5 PUSH2 0x383 JUMP JUMPDEST PUSH1 0x14 DUP3 ADD SWAP2 POP DUP2 SWAP1 POP SWAP5 SWAP4 POP POP POP POP JUMP JUMPDEST PUSH1 0x0 PUSH1 0x20 DUP3 ADD SWAP1 POP PUSH2 0x489 PUSH1 0x0 DUP4 ADD DUP5 PUSH2 0x39A JUMP JUMPDEST SWAP3 SWAP2 POP POP JUMP JUMPDEST PUSH1 0x0 PUSH1 0x20 DUP3 ADD SWAP1 POP PUSH2 0x4A4 PUSH1 0x0 DUP4 ADD DUP5 PUSH2 0x3A9 JUMP JUMPDEST SWAP3 SWAP2 POP POP JUMP JUMPDEST PUSH1 0x0 PUSH1 0x40 MLOAD SWAP1 POP DUP2 DUP2 ADD DUP2 DUP2 LT PUSH8 0xFFFFFFFFFFFFFFFF DUP3 GT OR ISZERO PUSH2 0x4D1 JUMPI PUSH2 0x4D0 PUSH2 0x5E3 JUMP JUMPDEST JUMPDEST DUP1 PUSH1 0x40 MSTORE POP SWAP2 SWAP1 POP JUMP JUMPDEST PUSH1 0x0 PUSH8 0xFFFFFFFFFFFFFFFF DUP3 GT ISZERO PUSH2 0x4F6 JUMPI PUSH2 0x4F5 PUSH2 0x5E3 JUMP JUMPDEST JUMPDEST PUSH1 0x1F NOT PUSH1 0x1F DUP4 ADD AND SWAP1 POP PUSH1 0x20 DUP2 ADD SWAP1 POP SWAP2 SWAP1 POP JUMP JUMPDEST PUSH1 0x0 DUP2 MLOAD SWAP1 POP SWAP2 SWAP1 POP JUMP JUMPDEST PUSH1 0x0 DUP2 SWAP1 POP SWAP3 SWAP2 POP POP JUMP JUMPDEST PUSH1 0x0 PUSH2 0x52C DUP3 PUSH2 0x549 JUMP JUMPDEST SWAP1 POP SWAP2 SWAP1 POP JUMP JUMPDEST PUSH1 0x0 DUP2 ISZERO ISZERO SWAP1 POP SWAP2 SWAP1 POP JUMP JUMPDEST PUSH1 0x0 DUP2 SWAP1 POP SWAP2 SWAP1 POP JUMP JUMPDEST PUSH1 0x0 PUSH20 0xFFFFFFFFFFFFFFFFFFFFFFFFFFFFFFFFFFFFFFFF DUP3 AND SWAP1 POP SWAP2 SWAP1 POP JUMP JUMPDEST PUSH1 0x0 DUP2 SWAP1 POP SWAP2 SWAP1 POP JUMP JUMPDEST DUP3 DUP2 DUP4 CALLDATACOPY PUSH1 0x0 DUP4 DUP4 ADD MSTORE POP POP POP JUMP JUMPDEST PUSH1 0x0 JUMPDEST DUP4 DUP2 LT ISZERO PUSH2 0x5A0 JUMPI DUP1 DUP3 ADD MLOAD DUP2 DUP5 ADD MSTORE PUSH1 0x20 DUP2 ADD SWAP1 POP PUSH2 0x585 JUMP JUMPDEST DUP4 DUP2 GT ISZERO PUSH2 0x5AF JUMPI PUSH1 0x0 DUP5 DUP5 ADD MSTORE JUMPDEST POP POP POP POP JUMP JUMPDEST PUSH1 0x0 PUSH2 0x5C0 DUP3 PUSH2 0x5C7 JUMP JUMPDEST SWAP1 POP SWAP2 SWAP1 POP JUMP JUMPDEST PUSH1 0x0 PUSH2 0x5D2 DUP3 PUSH2 0x612 JUMP JUMPDEST SWAP1 POP SWAP2 SWAP1 POP JUMP JUMPDEST PUSH1 0x0 DUP2 SWAP1 POP SWAP2 SWAP1 POP JUMP JUMPDEST PUSH32 0x4E487B7100000000000000000000000000000000000000000000000000000000 PUSH1 0x0 MSTORE PUSH1 0x41 PUSH1 0x4 MSTORE PUSH1 0x24 PUSH1 0x0 REVERT JUMPDEST PUSH1 0x0 DUP2 PUSH1 0x60 SHL SWAP1 POP SWAP2 SWAP1 POP JUMP JUMPDEST PUSH2 0x628 DUP2 PUSH2 0x521 JUMP JUMPDEST DUP2 EQ PUSH2 0x633 JUMPI PUSH1 0x0 DUP1 REVERT JUMPDEST POP JUMP JUMPDEST PUSH2 0x63F DUP2 PUSH2 0x569 JUMP JUMPDEST DUP2 EQ PUSH2 0x64A JUMPI PUSH1 0x0 DUP1 REVERT JUMPDEST POP JUMP INVALID LOG2 PUSH5 0x6970667358 0x22 SLT KECCAK256 0x29 CREATE 0xDF 0xC0 CALLDATALOAD 0x2C PUSH31 0xDEE19008DB6E37AE9A4E4F3E66AB3CA1E9388467A8DB8BD5EA64736F6C6343 STOP ADDMOD STOP STOP CALLER "
		},
		"gasEstimates": {
			"creation": {
				"codeDepositCost": "333400",
				"executionCost": "20386",
				"totalCost": "353786"
			},
			"external": {
				"Magic_word(string)": "infinite",
				"Multi_hash(string,uint256,address)": "infinite",
				"multi_string_hash(string,string)": "infinite",
				"single_string_hash(string)": "infinite"
			}
		},
		"methodIdentifiers": {
			"Magic_word(string)": "b4795088",
			"Multi_hash(string,uint256,address)": "16002988",
			"multi_string_hash(string,string)": "5e90f0dc",
			"single_string_hash(string)": "dc2ec8e5"
		}
	},
	"abi": [
		{
			"inputs": [
				{
					"internalType": "string",
					"name": "_answer",
					"type": "string"
				}
			],
			"name": "Magic_word",
			"outputs": [
				{
					"internalType": "bool",
					"name": "",
					"type": "bool"
				}
			],
			"stateMutability": "view",
			"type": "function"
		},
		{
			"inputs": [
				{
					"internalType": "string",
					"name": "_text",
					"type": "string"
				},
				{
					"internalType": "uint256",
					"name": "_num",
					"type": "uint256"
				},
				{
					"internalType": "address",
					"name": "_addr",
					"type": "address"
				}
			],
			"name": "Multi_hash",
			"outputs": [
				{
					"internalType": "bytes32",
					"name": "",
					"type": "bytes32"
				}
			],
			"stateMutability": "pure",
			"type": "function"
		},
		{
			"inputs": [
				{
					"internalType": "string",
					"name": "_str1",
					"type": "string"
				},
				{
					"internalType": "string",
					"name": "_str2",
					"type": "string"
				}
			],
			"name": "multi_string_hash",
			"outputs": [
				{
					"internalType": "bytes32",
					"name": "",
					"type": "bytes32"
				}
			],
			"stateMutability": "pure",
			"type": "function"
		},
		{
			"inputs": [
				{
					"internalType": "string",
					"name": "_str",
					"type": "string"
				}
			],
			"name": "single_string_hash",
			"outputs": [
				{
					"internalType": "bytes32",
					"name": "",
					"type": "bytes32"
				}
			],
			"stateMutability": "pure",
			"type": "function"
		}
	]
}