{
	"data": {
		"bytecode": {
			"linkReferences": {},
			"object": "60806040526040518060400160405280600781526020017f57656c636f6d65000000000000000000000000000000000000000000000000008152506003908161004891906102d3565b50348015610054575f80fd5b50335f806101000a81548173ffffffffffffffffffffffffffffffffffffffff021916908373ffffffffffffffffffffffffffffffffffffffff1602179055506103a2565b5f81519050919050565b7f4e487b71000000000000000000000000000000000000000000000000000000005f52604160045260245ffd5b7f4e487b71000000000000000000000000000000000000000000000000000000005f52602260045260245ffd5b5f600282049050600182168061011457607f821691505b602082108103610127576101266100d0565b5b50919050565b5f819050815f5260205f209050919050565b5f6020601f8301049050919050565b5f82821b905092915050565b5f600883026101897fffffffffffffffffffffffffffffffffffffffffffffffffffffffffffffffff8261014e565b610193868361014e565b95508019841693508086168417925050509392505050565b5f819050919050565b5f819050919050565b5f6101d76101d26101cd846101ab565b6101b4565b6101ab565b9050919050565b5f819050919050565b6101f0836101bd565b6102046101fc826101de565b84845461015a565b825550505050565b5f90565b61021861020c565b6102238184846101e7565b505050565b5b818110156102465761023b5f82610210565b600181019050610229565b5050565b601f82111561028b5761025c8161012d565b6102658461013f565b81016020851015610274578190505b6102886102808561013f565b830182610228565b50505b505050565b5f82821c905092915050565b5f6102ab5f1984600802610290565b1980831691505092915050565b5f6102c3838361029c565b9150826002028217905092915050565b6102dc82610099565b67ffffffffffffffff8111156102f5576102f46100a3565b5b6102ff82546100fd565b61030a82828561024a565b5f60209050601f83116001811461033b575f8415610329578287015190505b61033385826102b8565b86555061039a565b601f1984166103498661012d565b5f5b828110156103705784890151825560018201915060208501945060208101905061034b565b8683101561038d5784890151610389601f89168261029c565b8355505b6001600288020188555050505b505050505050565b611095806103af5f395ff3fe60806040526004361061007a575f3560e01c8063c21331361161004d578063c213313614610136578063e21f37ce14610160578063f15820ff1461018a578063f94cc8c4146101945761007a565b80636df427bc1461007e5780638da5cb5b146100ba578063aa8c217c146100e4578063adc805621461010e575b5f80fd5b348015610089575f80fd5b506100a4600480360381019061009f9190610911565b6101be565b6040516100b191906109ac565b60405180910390f35b3480156100c5575f80fd5b506100ce61067d565b6040516100db9190610a0b565b60405180910390f35b3480156100ef575f80fd5b506100f86106a0565b6040516101059190610a3c565b60405180910390f35b348015610119575f80fd5b50610134600480360381019061012f9190610a7f565b6106a6565b005b348015610141575f80fd5b5061014a610827565b6040516101579190610a3c565b60405180910390f35b34801561016b575f80fd5b50610174610837565b60405161018191906109ac565b60405180910390f35b6101926108c3565b005b34801561019f575f80fd5b506101a86108c5565b6040516101b59190610a0b565b60405180910390f35b60603373ffffffffffffffffffffffffffffffffffffffff165f8054906101000a900473ffffffffffffffffffffffffffffffffffffffff1673ffffffffffffffffffffffffffffffffffffffff161461024d576040517f08c379a000000000000000000000000000000000000000000000000000000000815260040161024490610af4565b60405180910390fd5b6003808111156102605761025f610b12565b5b60045f9054906101000a900460ff16600381111561028157610280610b12565b5b11156102c2576040517f08c379a00000000000000000000000000000000000000000000000000000000081526004016102b990610b89565b60405180910390fd5b8160045f6101000a81548160ff021916908360038111156102e6576102e5610b12565b5b0217905550600260038111156102ff576102fe610b12565b5b60045f9054906101000a900460ff1660038111156103205761031f610b12565b5b0361042f577fe18822188b13ea789744bb656325800d3b5025b3d956e508917ed2a260b33a8d60405161035290610bf1565b60405180910390a16040518060400160405280600781526020017f53686970706564000000000000000000000000000000000000000000000000008152506003908161039e9190610e36565b50600380546103ac90610c69565b80601f01602080910402602001604051908101604052809291908181526020018280546103d890610c69565b80156104235780601f106103fa57610100808354040283529160200191610423565b820191905f5260205f20905b81548152906001019060200180831161040657829003601f168201915b50505050509050610678565b60038081111561044257610441610b12565b5b60045f9054906101000a900460ff16600381111561046357610462610b12565b5b03610572577fe18822188b13ea789744bb656325800d3b5025b3d956e508917ed2a260b33a8d60405161049590610f4f565b60405180910390a16040518060400160405280600981526020017f44656c6976657265640000000000000000000000000000000000000000000000815250600390816104e19190610e36565b50600380546104ef90610c69565b80601f016020809104026020016040519081016040528092919081815260200182805461051b90610c69565b80156105665780601f1061053d57610100808354040283529160200191610566565b820191905f5260205f20905b81548152906001019060200180831161054957829003601f168201915b50505050509050610678565b7fe18822188b13ea789744bb656325800d3b5025b3d956e508917ed2a260b33a8d60405161059f90610fb7565b60405180910390a16040518060400160405280600781526020017f70656e64696e6700000000000000000000000000000000000000000000000000815250600390816105eb9190610e36565b50600380546105f990610c69565b80601f016020809104026020016040519081016040528092919081815260200182805461062590610c69565b80156106705780601f1061064757610100808354040283529160200191610670565b820191905f5260205f20905b81548152906001019060200180831161065357829003601f168201915b505050505090505b919050565b5f8054906101000a900473ffffffffffffffffffffffffffffffffffffffff1681565b60025481565b3373ffffffffffffffffffffffffffffffffffffffff165f8054906101000a900473ffffffffffffffffffffffffffffffffffffffff1673ffffffffffffffffffffffffffffffffffffffff1614610733576040517f08c379a000000000000000000000000000000000000000000000000000000000815260040161072a90610af4565b60405180910390fd5b670de0b6b3a76400006002541015610780576040517f08c379a00000000000000000000000000000000000000000000000000000000081526004016107779061101f565b60405180910390fd5b670de0b6b3a764000060025410610824578060015f6101000a81548173ffffffffffffffffffffffffffffffffffffffff021916908373ffffffffffffffffffffffffffffffffffffffff160217905550600160045f6101000a81548160ff021916908360038111156107f6576107f5610b12565b5b021790555060405180606001604052806022815260200161103e60229139600390816108229190610e36565b505b50565b5f47600281905550600254905090565b6003805461084490610c69565b80601f016020809104026020016040519081016040528092919081815260200182805461087090610c69565b80156108bb5780601f10610892576101008083540402835291602001916108bb565b820191905f5260205f20905b81548152906001019060200180831161089e57829003601f168201915b505050505081565b565b60015f9054906101000a900473ffffffffffffffffffffffffffffffffffffffff1681565b5f80fd5b600481106108fa575f80fd5b50565b5f8135905061090b816108ee565b92915050565b5f60208284031215610926576109256108ea565b5b5f610933848285016108fd565b91505092915050565b5f81519050919050565b5f82825260208201905092915050565b8281835e5f83830152505050565b5f601f19601f8301169050919050565b5f61097e8261093c565b6109888185610946565b9350610998818560208601610956565b6109a181610964565b840191505092915050565b5f6020820190508181035f8301526109c48184610974565b905092915050565b5f73ffffffffffffffffffffffffffffffffffffffff82169050919050565b5f6109f5826109cc565b9050919050565b610a05816109eb565b82525050565b5f602082019050610a1e5f8301846109fc565b92915050565b5f819050919050565b610a3681610a24565b82525050565b5f602082019050610a4f5f830184610a2d565b92915050565b610a5e816109eb565b8114610a68575f80fd5b50565b5f81359050610a7981610a55565b92915050565b5f60208284031215610a9457610a936108ea565b5b5f610aa184828501610a6b565b91505092915050565b7f4e6f74204f776e657200000000000000000000000000000000000000000000005f82015250565b5f610ade600983610946565b9150610ae982610aaa565b602082019050919050565b5f6020820190508181035f830152610b0b81610ad2565b9050919050565b7f4e487b71000000000000000000000000000000000000000000000000000000005f52602160045260245ffd5b7f416c72656164792044656c6976657265640000000000000000000000000000005f82015250565b5f610b73601183610946565b9150610b7e82610b3f565b602082019050919050565b5f6020820190508181035f830152610ba081610b67565b9050919050565b7f53686970706564000000000000000000000000000000000000000000000000005f82015250565b5f610bdb600783610946565b9150610be682610ba7565b602082019050919050565b5f6020820190508181035f830152610c0881610bcf565b9050919050565b7f4e487b71000000000000000000000000000000000000000000000000000000005f52604160045260245ffd5b7f4e487b71000000000000000000000000000000000000000000000000000000005f52602260045260245ffd5b5f6002820490506001821680610c8057607f821691505b602082108103610c9357610c92610c3c565b5b50919050565b5f819050815f5260205f209050919050565b5f6020601f8301049050919050565b5f82821b905092915050565b5f60088302610cf57fffffffffffffffffffffffffffffffffffffffffffffffffffffffffffffffff82610cba565b610cff8683610cba565b95508019841693508086168417925050509392505050565b5f819050919050565b5f610d3a610d35610d3084610a24565b610d17565b610a24565b9050919050565b5f819050919050565b610d5383610d20565b610d67610d5f82610d41565b848454610cc6565b825550505050565b5f90565b610d7b610d6f565b610d86818484610d4a565b505050565b5b81811015610da957610d9e5f82610d73565b600181019050610d8c565b5050565b601f821115610dee57610dbf81610c99565b610dc884610cab565b81016020851015610dd7578190505b610deb610de385610cab565b830182610d8b565b50505b505050565b5f82821c905092915050565b5f610e0e5f1984600802610df3565b1980831691505092915050565b5f610e268383610dff565b9150826002028217905092915050565b610e3f8261093c565b67ffffffffffffffff811115610e5857610e57610c0f565b5b610e628254610c69565b610e6d828285610dad565b5f60209050601f831160018114610e9e575f8415610e8c578287015190505b610e968582610e1b565b865550610efd565b601f198416610eac86610c99565b5f5b82811015610ed357848901518255600182019150602085019450602081019050610eae565b86831015610ef05784890151610eec601f891682610dff565b8355505b6001600288020188555050505b505050505050565b7f44656c69766572640000000000000000000000000000000000000000000000005f82015250565b5f610f39600883610946565b9150610f4482610f05565b602082019050919050565b5f6020820190508181035f830152610f6681610f2d565b9050919050565b7f70656e64696e67000000000000000000000000000000000000000000000000005f82015250565b5f610fa1600783610946565b9150610fac82610f6d565b602082019050919050565b5f6020820190508181035f830152610fce81610f95565b9050919050565b7f496e73756666696369656e742042616c616e63650000000000000000000000005f82015250565b5f611009601483610946565b915061101482610fd5565b602082019050919050565b5f6020820190508181035f83015261103681610ffd565b905091905056fe4f7264657220486173204265656e20506c61636564205375636365737366756c6c79a26469706673582212202083e28c3be8bc336aad5c05b95eddcdcfd755c9ce133c2860643eff7a03e16064736f6c634300081a0033",
			"opcodes": "PUSH1 0x80 PUSH1 0x40 MSTORE PUSH1 0x40 MLOAD DUP1 PUSH1 0x40 ADD PUSH1 0x40 MSTORE DUP1 PUSH1 0x7 DUP2 MSTORE PUSH1 0x20 ADD PUSH32 0x57656C636F6D6500000000000000000000000000000000000000000000000000 DUP2 MSTORE POP PUSH1 0x3 SWAP1 DUP2 PUSH2 0x48 SWAP2 SWAP1 PUSH2 0x2D3 JUMP JUMPDEST POP CALLVALUE DUP1 ISZERO PUSH2 0x54 JUMPI PUSH0 DUP1 REVERT JUMPDEST POP CALLER PUSH0 DUP1 PUSH2 0x100 EXP DUP2 SLOAD DUP2 PUSH20 0xFFFFFFFFFFFFFFFFFFFFFFFFFFFFFFFFFFFFFFFF MUL NOT AND SWAP1 DUP4 PUSH20 0xFFFFFFFFFFFFFFFFFFFFFFFFFFFFFFFFFFFFFFFF AND MUL OR SWAP1 SSTORE POP PUSH2 0x3A2 JUMP JUMPDEST PUSH0 DUP2 MLOAD SWAP1 POP SWAP2 SWAP1 POP JUMP JUMPDEST PUSH32 0x4E487B7100000000000000000000000000000000000000000000000000000000 PUSH0 MSTORE PUSH1 0x41 PUSH1 0x4 MSTORE PUSH1 0x24 PUSH0 REVERT JUMPDEST PUSH32 0x4E487B7100000000000000000000000000000000000000000000000000000000 PUSH0 MSTORE PUSH1 0x22 PUSH1 0x4 MSTORE PUSH1 0x24 PUSH0 REVERT JUMPDEST PUSH0 PUSH1 0x2 DUP3 DIV SWAP1 POP PUSH1 0x1 DUP3 AND DUP1 PUSH2 0x114 JUMPI PUSH1 0x7F DUP3 AND SWAP2 POP JUMPDEST PUSH1 0x20 DUP3 LT DUP2 SUB PUSH2 0x127 JUMPI PUSH2 0x126 PUSH2 0xD0 JUMP JUMPDEST JUMPDEST POP SWAP2 SWAP1 POP JUMP JUMPDEST PUSH0 DUP2 SWAP1 POP DUP2 PUSH0 MSTORE PUSH1 0x20 PUSH0 KECCAK256 SWAP1 POP SWAP2 SWAP1 POP JUMP JUMPDEST PUSH0 PUSH1 0x20 PUSH1 0x1F DUP4 ADD DIV SWAP1 POP SWAP2 SWAP1 POP JUMP JUMPDEST PUSH0 DUP3 DUP3 SHL SWAP1 POP SWAP3 SWAP2 POP POP JUMP JUMPDEST PUSH0 PUSH1 0x8 DUP4 MUL PUSH2 0x189 PUSH32 0xFFFFFFFFFFFFFFFFFFFFFFFFFFFFFFFFFFFFFFFFFFFFFFFFFFFFFFFFFFFFFFFF DUP3 PUSH2 0x14E JUMP JUMPDEST PUSH2 0x193 DUP7 DUP4 PUSH2 0x14E JUMP JUMPDEST SWAP6 POP DUP1 NOT DUP5 AND SWAP4 POP DUP1 DUP7 AND DUP5 OR SWAP3 POP POP POP SWAP4 SWAP3 POP POP POP JUMP JUMPDEST PUSH0 DUP2 SWAP1 POP SWAP2 SWAP1 POP JUMP JUMPDEST PUSH0 DUP2 SWAP1 POP SWAP2 SWAP1 POP JUMP JUMPDEST PUSH0 PUSH2 0x1D7 PUSH2 0x1D2 PUSH2 0x1CD DUP5 PUSH2 0x1AB JUMP JUMPDEST PUSH2 0x1B4 JUMP JUMPDEST PUSH2 0x1AB JUMP JUMPDEST SWAP1 POP SWAP2 SWAP1 POP JUMP JUMPDEST PUSH0 DUP2 SWAP1 POP SWAP2 SWAP1 POP JUMP JUMPDEST PUSH2 0x1F0 DUP4 PUSH2 0x1BD JUMP JUMPDEST PUSH2 0x204 PUSH2 0x1FC DUP3 PUSH2 0x1DE JUMP JUMPDEST DUP5 DUP5 SLOAD PUSH2 0x15A JUMP JUMPDEST DUP3 SSTORE POP POP POP POP JUMP JUMPDEST PUSH0 SWAP1 JUMP JUMPDEST PUSH2 0x218 PUSH2 0x20C JUMP JUMPDEST PUSH2 0x223 DUP2 DUP5 DUP5 PUSH2 0x1E7 JUMP JUMPDEST POP POP POP JUMP JUMPDEST JUMPDEST DUP2 DUP2 LT ISZERO PUSH2 0x246 JUMPI PUSH2 0x23B PUSH0 DUP3 PUSH2 0x210 JUMP JUMPDEST PUSH1 0x1 DUP2 ADD SWAP1 POP PUSH2 0x229 JUMP JUMPDEST POP POP JUMP JUMPDEST PUSH1 0x1F DUP3 GT ISZERO PUSH2 0x28B JUMPI PUSH2 0x25C DUP2 PUSH2 0x12D JUMP JUMPDEST PUSH2 0x265 DUP5 PUSH2 0x13F JUMP JUMPDEST DUP2 ADD PUSH1 0x20 DUP6 LT ISZERO PUSH2 0x274 JUMPI DUP2 SWAP1 POP JUMPDEST PUSH2 0x288 PUSH2 0x280 DUP6 PUSH2 0x13F JUMP JUMPDEST DUP4 ADD DUP3 PUSH2 0x228 JUMP JUMPDEST POP POP JUMPDEST POP POP POP JUMP JUMPDEST PUSH0 DUP3 DUP3 SHR SWAP1 POP SWAP3 SWAP2 POP POP JUMP JUMPDEST PUSH0 PUSH2 0x2AB PUSH0 NOT DUP5 PUSH1 0x8 MUL PUSH2 0x290 JUMP JUMPDEST NOT DUP1 DUP4 AND SWAP2 POP POP SWAP3 SWAP2 POP POP JUMP JUMPDEST PUSH0 PUSH2 0x2C3 DUP4 DUP4 PUSH2 0x29C JUMP JUMPDEST SWAP2 POP DUP3 PUSH1 0x2 MUL DUP3 OR SWAP1 POP SWAP3 SWAP2 POP POP JUMP JUMPDEST PUSH2 0x2DC DUP3 PUSH2 0x99 JUMP JUMPDEST PUSH8 0xFFFFFFFFFFFFFFFF DUP2 GT ISZERO PUSH2 0x2F5 JUMPI PUSH2 0x2F4 PUSH2 0xA3 JUMP JUMPDEST JUMPDEST PUSH2 0x2FF DUP3 SLOAD PUSH2 0xFD JUMP JUMPDEST PUSH2 0x30A DUP3 DUP3 DUP6 PUSH2 0x24A JUMP JUMPDEST PUSH0 PUSH1 0x20 SWAP1 POP PUSH1 0x1F DUP4 GT PUSH1 0x1 DUP2 EQ PUSH2 0x33B JUMPI PUSH0 DUP5 ISZERO PUSH2 0x329 JUMPI DUP3 DUP8 ADD MLOAD SWAP1 POP JUMPDEST PUSH2 0x333 DUP6 DUP3 PUSH2 0x2B8 JUMP JUMPDEST DUP7 SSTORE POP PUSH2 0x39A JUMP JUMPDEST PUSH1 0x1F NOT DUP5 AND PUSH2 0x349 DUP7 PUSH2 0x12D JUMP JUMPDEST PUSH0 JUMPDEST DUP3 DUP2 LT ISZERO PUSH2 0x370 JUMPI DUP5 DUP10 ADD MLOAD DUP3 SSTORE PUSH1 0x1 DUP3 ADD SWAP2 POP PUSH1 0x20 DUP6 ADD SWAP5 POP PUSH1 0x20 DUP2 ADD SWAP1 POP PUSH2 0x34B JUMP JUMPDEST DUP7 DUP4 LT ISZERO PUSH2 0x38D JUMPI DUP5 DUP10 ADD MLOAD PUSH2 0x389 PUSH1 0x1F DUP10 AND DUP3 PUSH2 0x29C JUMP JUMPDEST DUP4 SSTORE POP JUMPDEST PUSH1 0x1 PUSH1 0x2 DUP9 MUL ADD DUP9 SSTORE POP POP POP JUMPDEST POP POP POP POP POP POP JUMP JUMPDEST PUSH2 0x1095 DUP1 PUSH2 0x3AF PUSH0 CODECOPY PUSH0 RETURN INVALID PUSH1 0x80 PUSH1 0x40 MSTORE PUSH1 0x4 CALLDATASIZE LT PUSH2 0x7A JUMPI PUSH0 CALLDATALOAD PUSH1 0xE0 SHR DUP1 PUSH4 0xC2133136 GT PUSH2 0x4D JUMPI DUP1 PUSH4 0xC2133136 EQ PUSH2 0x136 JUMPI DUP1 PUSH4 0xE21F37CE EQ PUSH2 0x160 JUMPI DUP1 PUSH4 0xF15820FF EQ PUSH2 0x18A JUMPI DUP1 PUSH4 0xF94CC8C4 EQ PUSH2 0x194 JUMPI PUSH2 0x7A JUMP JUMPDEST DUP1 PUSH4 0x6DF427BC EQ PUSH2 0x7E JUMPI DUP1 PUSH4 0x8DA5CB5B EQ PUSH2 0xBA JUMPI DUP1 PUSH4 0xAA8C217C EQ PUSH2 0xE4 JUMPI DUP1 PUSH4 0xADC80562 EQ PUSH2 0x10E JUMPI JUMPDEST PUSH0 DUP1 REVERT JUMPDEST CALLVALUE DUP1 ISZERO PUSH2 0x89 JUMPI PUSH0 DUP1 REVERT JUMPDEST POP PUSH2 0xA4 PUSH1 0x4 DUP1 CALLDATASIZE SUB DUP2 ADD SWAP1 PUSH2 0x9F SWAP2 SWAP1 PUSH2 0x911 JUMP JUMPDEST PUSH2 0x1BE JUMP JUMPDEST PUSH1 0x40 MLOAD PUSH2 0xB1 SWAP2 SWAP1 PUSH2 0x9AC JUMP JUMPDEST PUSH1 0x40 MLOAD DUP1 SWAP2 SUB SWAP1 RETURN JUMPDEST CALLVALUE DUP1 ISZERO PUSH2 0xC5 JUMPI PUSH0 DUP1 REVERT JUMPDEST POP PUSH2 0xCE PUSH2 0x67D JUMP JUMPDEST PUSH1 0x40 MLOAD PUSH2 0xDB SWAP2 SWAP1 PUSH2 0xA0B JUMP JUMPDEST PUSH1 0x40 MLOAD DUP1 SWAP2 SUB SWAP1 RETURN JUMPDEST CALLVALUE DUP1 ISZERO PUSH2 0xEF JUMPI PUSH0 DUP1 REVERT JUMPDEST POP PUSH2 0xF8 PUSH2 0x6A0 JUMP JUMPDEST PUSH1 0x40 MLOAD PUSH2 0x105 SWAP2 SWAP1 PUSH2 0xA3C JUMP JUMPDEST PUSH1 0x40 MLOAD DUP1 SWAP2 SUB SWAP1 RETURN JUMPDEST CALLVALUE DUP1 ISZERO PUSH2 0x119 JUMPI PUSH0 DUP1 REVERT JUMPDEST POP PUSH2 0x134 PUSH1 0x4 DUP1 CALLDATASIZE SUB DUP2 ADD SWAP1 PUSH2 0x12F SWAP2 SWAP1 PUSH2 0xA7F JUMP JUMPDEST PUSH2 0x6A6 JUMP JUMPDEST STOP JUMPDEST CALLVALUE DUP1 ISZERO PUSH2 0x141 JUMPI PUSH0 DUP1 REVERT JUMPDEST POP PUSH2 0x14A PUSH2 0x827 JUMP JUMPDEST PUSH1 0x40 MLOAD PUSH2 0x157 SWAP2 SWAP1 PUSH2 0xA3C JUMP JUMPDEST PUSH1 0x40 MLOAD DUP1 SWAP2 SUB SWAP1 RETURN JUMPDEST CALLVALUE DUP1 ISZERO PUSH2 0x16B JUMPI PUSH0 DUP1 REVERT JUMPDEST POP PUSH2 0x174 PUSH2 0x837 JUMP JUMPDEST PUSH1 0x40 MLOAD PUSH2 0x181 SWAP2 SWAP1 PUSH2 0x9AC JUMP JUMPDEST PUSH1 0x40 MLOAD DUP1 SWAP2 SUB SWAP1 RETURN JUMPDEST PUSH2 0x192 PUSH2 0x8C3 JUMP JUMPDEST STOP JUMPDEST CALLVALUE DUP1 ISZERO PUSH2 0x19F JUMPI PUSH0 DUP1 REVERT JUMPDEST POP PUSH2 0x1A8 PUSH2 0x8C5 JUMP JUMPDEST PUSH1 0x40 MLOAD PUSH2 0x1B5 SWAP2 SWAP1 PUSH2 0xA0B JUMP JUMPDEST PUSH1 0x40 MLOAD DUP1 SWAP2 SUB SWAP1 RETURN JUMPDEST PUSH1 0x60 CALLER PUSH20 0xFFFFFFFFFFFFFFFFFFFFFFFFFFFFFFFFFFFFFFFF AND PUSH0 DUP1 SLOAD SWAP1 PUSH2 0x100 EXP SWAP1 DIV PUSH20 0xFFFFFFFFFFFFFFFFFFFFFFFFFFFFFFFFFFFFFFFF AND PUSH20 0xFFFFFFFFFFFFFFFFFFFFFFFFFFFFFFFFFFFFFFFF AND EQ PUSH2 0x24D JUMPI PUSH1 0x40 MLOAD PUSH32 0x8C379A000000000000000000000000000000000000000000000000000000000 DUP2 MSTORE PUSH1 0x4 ADD PUSH2 0x244 SWAP1 PUSH2 0xAF4 JUMP JUMPDEST PUSH1 0x40 MLOAD DUP1 SWAP2 SUB SWAP1 REVERT JUMPDEST PUSH1 0x3 DUP1 DUP2 GT ISZERO PUSH2 0x260 JUMPI PUSH2 0x25F PUSH2 0xB12 JUMP JUMPDEST JUMPDEST PUSH1 0x4 PUSH0 SWAP1 SLOAD SWAP1 PUSH2 0x100 EXP SWAP1 DIV PUSH1 0xFF AND PUSH1 0x3 DUP2 GT ISZERO PUSH2 0x281 JUMPI PUSH2 0x280 PUSH2 0xB12 JUMP JUMPDEST JUMPDEST GT ISZERO PUSH2 0x2C2 JUMPI PUSH1 0x40 MLOAD PUSH32 0x8C379A000000000000000000000000000000000000000000000000000000000 DUP2 MSTORE PUSH1 0x4 ADD PUSH2 0x2B9 SWAP1 PUSH2 0xB89 JUMP JUMPDEST PUSH1 0x40 MLOAD DUP1 SWAP2 SUB SWAP1 REVERT JUMPDEST DUP2 PUSH1 0x4 PUSH0 PUSH2 0x100 EXP DUP2 SLOAD DUP2 PUSH1 0xFF MUL NOT AND SWAP1 DUP4 PUSH1 0x3 DUP2 GT ISZERO PUSH2 0x2E6 JUMPI PUSH2 0x2E5 PUSH2 0xB12 JUMP JUMPDEST JUMPDEST MUL OR SWAP1 SSTORE POP PUSH1 0x2 PUSH1 0x3 DUP2 GT ISZERO PUSH2 0x2FF JUMPI PUSH2 0x2FE PUSH2 0xB12 JUMP JUMPDEST JUMPDEST PUSH1 0x4 PUSH0 SWAP1 SLOAD SWAP1 PUSH2 0x100 EXP SWAP1 DIV PUSH1 0xFF AND PUSH1 0x3 DUP2 GT ISZERO PUSH2 0x320 JUMPI PUSH2 0x31F PUSH2 0xB12 JUMP JUMPDEST JUMPDEST SUB PUSH2 0x42F JUMPI PUSH32 0xE18822188B13EA789744BB656325800D3B5025B3D956E508917ED2A260B33A8D PUSH1 0x40 MLOAD PUSH2 0x352 SWAP1 PUSH2 0xBF1 JUMP JUMPDEST PUSH1 0x40 MLOAD DUP1 SWAP2 SUB SWAP1 LOG1 PUSH1 0x40 MLOAD DUP1 PUSH1 0x40 ADD PUSH1 0x40 MSTORE DUP1 PUSH1 0x7 DUP2 MSTORE PUSH1 0x20 ADD PUSH32 0x5368697070656400000000000000000000000000000000000000000000000000 DUP2 MSTORE POP PUSH1 0x3 SWAP1 DUP2 PUSH2 0x39E SWAP2 SWAP1 PUSH2 0xE36 JUMP JUMPDEST POP PUSH1 0x3 DUP1 SLOAD PUSH2 0x3AC SWAP1 PUSH2 0xC69 JUMP JUMPDEST DUP1 PUSH1 0x1F ADD PUSH1 0x20 DUP1 SWAP2 DIV MUL PUSH1 0x20 ADD PUSH1 0x40 MLOAD SWAP1 DUP2 ADD PUSH1 0x40 MSTORE DUP1 SWAP3 SWAP2 SWAP1 DUP2 DUP2 MSTORE PUSH1 0x20 ADD DUP3 DUP1 SLOAD PUSH2 0x3D8 SWAP1 PUSH2 0xC69 JUMP JUMPDEST DUP1 ISZERO PUSH2 0x423 JUMPI DUP1 PUSH1 0x1F LT PUSH2 0x3FA JUMPI PUSH2 0x100 DUP1 DUP4 SLOAD DIV MUL DUP4 MSTORE SWAP2 PUSH1 0x20 ADD SWAP2 PUSH2 0x423 JUMP JUMPDEST DUP3 ADD SWAP2 SWAP1 PUSH0 MSTORE PUSH1 0x20 PUSH0 KECCAK256 SWAP1 JUMPDEST DUP2 SLOAD DUP2 MSTORE SWAP1 PUSH1 0x1 ADD SWAP1 PUSH1 0x20 ADD DUP1 DUP4 GT PUSH2 0x406 JUMPI DUP3 SWAP1 SUB PUSH1 0x1F AND DUP3 ADD SWAP2 JUMPDEST POP POP POP POP POP SWAP1 POP PUSH2 0x678 JUMP JUMPDEST PUSH1 0x3 DUP1 DUP2 GT ISZERO PUSH2 0x442 JUMPI PUSH2 0x441 PUSH2 0xB12 JUMP JUMPDEST JUMPDEST PUSH1 0x4 PUSH0 SWAP1 SLOAD SWAP1 PUSH2 0x100 EXP SWAP1 DIV PUSH1 0xFF AND PUSH1 0x3 DUP2 GT ISZERO PUSH2 0x463 JUMPI PUSH2 0x462 PUSH2 0xB12 JUMP JUMPDEST JUMPDEST SUB PUSH2 0x572 JUMPI PUSH32 0xE18822188B13EA789744BB656325800D3B5025B3D956E508917ED2A260B33A8D PUSH1 0x40 MLOAD PUSH2 0x495 SWAP1 PUSH2 0xF4F JUMP JUMPDEST PUSH1 0x40 MLOAD DUP1 SWAP2 SUB SWAP1 LOG1 PUSH1 0x40 MLOAD DUP1 PUSH1 0x40 ADD PUSH1 0x40 MSTORE DUP1 PUSH1 0x9 DUP2 MSTORE PUSH1 0x20 ADD PUSH32 0x44656C6976657265640000000000000000000000000000000000000000000000 DUP2 MSTORE POP PUSH1 0x3 SWAP1 DUP2 PUSH2 0x4E1 SWAP2 SWAP1 PUSH2 0xE36 JUMP JUMPDEST POP PUSH1 0x3 DUP1 SLOAD PUSH2 0x4EF SWAP1 PUSH2 0xC69 JUMP JUMPDEST DUP1 PUSH1 0x1F ADD PUSH1 0x20 DUP1 SWAP2 DIV MUL PUSH1 0x20 ADD PUSH1 0x40 MLOAD SWAP1 DUP2 ADD PUSH1 0x40 MSTORE DUP1 SWAP3 SWAP2 SWAP1 DUP2 DUP2 MSTORE PUSH1 0x20 ADD DUP3 DUP1 SLOAD PUSH2 0x51B SWAP1 PUSH2 0xC69 JUMP JUMPDEST DUP1 ISZERO PUSH2 0x566 JUMPI DUP1 PUSH1 0x1F LT PUSH2 0x53D JUMPI PUSH2 0x100 DUP1 DUP4 SLOAD DIV MUL DUP4 MSTORE SWAP2 PUSH1 0x20 ADD SWAP2 PUSH2 0x566 JUMP JUMPDEST DUP3 ADD SWAP2 SWAP1 PUSH0 MSTORE PUSH1 0x20 PUSH0 KECCAK256 SWAP1 JUMPDEST DUP2 SLOAD DUP2 MSTORE SWAP1 PUSH1 0x1 ADD SWAP1 PUSH1 0x20 ADD DUP1 DUP4 GT PUSH2 0x549 JUMPI DUP3 SWAP1 SUB PUSH1 0x1F AND DUP3 ADD SWAP2 JUMPDEST POP POP POP POP POP SWAP1 POP PUSH2 0x678 JUMP JUMPDEST PUSH32 0xE18822188B13EA789744BB656325800D3B5025B3D956E508917ED2A260B33A8D PUSH1 0x40 MLOAD PUSH2 0x59F SWAP1 PUSH2 0xFB7 JUMP JUMPDEST PUSH1 0x40 MLOAD DUP1 SWAP2 SUB SWAP1 LOG1 PUSH1 0x40 MLOAD DUP1 PUSH1 0x40 ADD PUSH1 0x40 MSTORE DUP1 PUSH1 0x7 DUP2 MSTORE PUSH1 0x20 ADD PUSH32 0x70656E64696E6700000000000000000000000000000000000000000000000000 DUP2 MSTORE POP PUSH1 0x3 SWAP1 DUP2 PUSH2 0x5EB SWAP2 SWAP1 PUSH2 0xE36 JUMP JUMPDEST POP PUSH1 0x3 DUP1 SLOAD PUSH2 0x5F9 SWAP1 PUSH2 0xC69 JUMP JUMPDEST DUP1 PUSH1 0x1F ADD PUSH1 0x20 DUP1 SWAP2 DIV MUL PUSH1 0x20 ADD PUSH1 0x40 MLOAD SWAP1 DUP2 ADD PUSH1 0x40 MSTORE DUP1 SWAP3 SWAP2 SWAP1 DUP2 DUP2 MSTORE PUSH1 0x20 ADD DUP3 DUP1 SLOAD PUSH2 0x625 SWAP1 PUSH2 0xC69 JUMP JUMPDEST DUP1 ISZERO PUSH2 0x670 JUMPI DUP1 PUSH1 0x1F LT PUSH2 0x647 JUMPI PUSH2 0x100 DUP1 DUP4 SLOAD DIV MUL DUP4 MSTORE SWAP2 PUSH1 0x20 ADD SWAP2 PUSH2 0x670 JUMP JUMPDEST DUP3 ADD SWAP2 SWAP1 PUSH0 MSTORE PUSH1 0x20 PUSH0 KECCAK256 SWAP1 JUMPDEST DUP2 SLOAD DUP2 MSTORE SWAP1 PUSH1 0x1 ADD SWAP1 PUSH1 0x20 ADD DUP1 DUP4 GT PUSH2 0x653 JUMPI DUP3 SWAP1 SUB PUSH1 0x1F AND DUP3 ADD SWAP2 JUMPDEST POP POP POP POP POP SWAP1 POP JUMPDEST SWAP2 SWAP1 POP JUMP JUMPDEST PUSH0 DUP1 SLOAD SWAP1 PUSH2 0x100 EXP SWAP1 DIV PUSH20 0xFFFFFFFFFFFFFFFFFFFFFFFFFFFFFFFFFFFFFFFF AND DUP2 JUMP JUMPDEST PUSH1 0x2 SLOAD DUP2 JUMP JUMPDEST CALLER PUSH20 0xFFFFFFFFFFFFFFFFFFFFFFFFFFFFFFFFFFFFFFFF AND PUSH0 DUP1 SLOAD SWAP1 PUSH2 0x100 EXP SWAP1 DIV PUSH20 0xFFFFFFFFFFFFFFFFFFFFFFFFFFFFFFFFFFFFFFFF AND PUSH20 0xFFFFFFFFFFFFFFFFFFFFFFFFFFFFFFFFFFFFFFFF AND EQ PUSH2 0x733 JUMPI PUSH1 0x40 MLOAD PUSH32 0x8C379A000000000000000000000000000000000000000000000000000000000 DUP2 MSTORE PUSH1 0x4 ADD PUSH2 0x72A SWAP1 PUSH2 0xAF4 JUMP JUMPDEST PUSH1 0x40 MLOAD DUP1 SWAP2 SUB SWAP1 REVERT JUMPDEST PUSH8 0xDE0B6B3A7640000 PUSH1 0x2 SLOAD LT ISZERO PUSH2 0x780 JUMPI PUSH1 0x40 MLOAD PUSH32 0x8C379A000000000000000000000000000000000000000000000000000000000 DUP2 MSTORE PUSH1 0x4 ADD PUSH2 0x777 SWAP1 PUSH2 0x101F JUMP JUMPDEST PUSH1 0x40 MLOAD DUP1 SWAP2 SUB SWAP1 REVERT JUMPDEST PUSH8 0xDE0B6B3A7640000 PUSH1 0x2 SLOAD LT PUSH2 0x824 JUMPI DUP1 PUSH1 0x1 PUSH0 PUSH2 0x100 EXP DUP2 SLOAD DUP2 PUSH20 0xFFFFFFFFFFFFFFFFFFFFFFFFFFFFFFFFFFFFFFFF MUL NOT AND SWAP1 DUP4 PUSH20 0xFFFFFFFFFFFFFFFFFFFFFFFFFFFFFFFFFFFFFFFF AND MUL OR SWAP1 SSTORE POP PUSH1 0x1 PUSH1 0x4 PUSH0 PUSH2 0x100 EXP DUP2 SLOAD DUP2 PUSH1 0xFF MUL NOT AND SWAP1 DUP4 PUSH1 0x3 DUP2 GT ISZERO PUSH2 0x7F6 JUMPI PUSH2 0x7F5 PUSH2 0xB12 JUMP JUMPDEST JUMPDEST MUL OR SWAP1 SSTORE POP PUSH1 0x40 MLOAD DUP1 PUSH1 0x60 ADD PUSH1 0x40 MSTORE DUP1 PUSH1 0x22 DUP2 MSTORE PUSH1 0x20 ADD PUSH2 0x103E PUSH1 0x22 SWAP2 CODECOPY PUSH1 0x3 SWAP1 DUP2 PUSH2 0x822 SWAP2 SWAP1 PUSH2 0xE36 JUMP JUMPDEST POP JUMPDEST POP JUMP JUMPDEST PUSH0 SELFBALANCE PUSH1 0x2 DUP2 SWAP1 SSTORE POP PUSH1 0x2 SLOAD SWAP1 POP SWAP1 JUMP JUMPDEST PUSH1 0x3 DUP1 SLOAD PUSH2 0x844 SWAP1 PUSH2 0xC69 JUMP JUMPDEST DUP1 PUSH1 0x1F ADD PUSH1 0x20 DUP1 SWAP2 DIV MUL PUSH1 0x20 ADD PUSH1 0x40 MLOAD SWAP1 DUP2 ADD PUSH1 0x40 MSTORE DUP1 SWAP3 SWAP2 SWAP1 DUP2 DUP2 MSTORE PUSH1 0x20 ADD DUP3 DUP1 SLOAD PUSH2 0x870 SWAP1 PUSH2 0xC69 JUMP JUMPDEST DUP1 ISZERO PUSH2 0x8BB JUMPI DUP1 PUSH1 0x1F LT PUSH2 0x892 JUMPI PUSH2 0x100 DUP1 DUP4 SLOAD DIV MUL DUP4 MSTORE SWAP2 PUSH1 0x20 ADD SWAP2 PUSH2 0x8BB JUMP JUMPDEST DUP3 ADD SWAP2 SWAP1 PUSH0 MSTORE PUSH1 0x20 PUSH0 KECCAK256 SWAP1 JUMPDEST DUP2 SLOAD DUP2 MSTORE SWAP1 PUSH1 0x1 ADD SWAP1 PUSH1 0x20 ADD DUP1 DUP4 GT PUSH2 0x89E JUMPI DUP3 SWAP1 SUB PUSH1 0x1F AND DUP3 ADD SWAP2 JUMPDEST POP POP POP POP POP DUP2 JUMP JUMPDEST JUMP JUMPDEST PUSH1 0x1 PUSH0 SWAP1 SLOAD SWAP1 PUSH2 0x100 EXP SWAP1 DIV PUSH20 0xFFFFFFFFFFFFFFFFFFFFFFFFFFFFFFFFFFFFFFFF AND DUP2 JUMP JUMPDEST PUSH0 DUP1 REVERT JUMPDEST PUSH1 0x4 DUP2 LT PUSH2 0x8FA JUMPI PUSH0 DUP1 REVERT JUMPDEST POP JUMP JUMPDEST PUSH0 DUP2 CALLDATALOAD SWAP1 POP PUSH2 0x90B DUP2 PUSH2 0x8EE JUMP JUMPDEST SWAP3 SWAP2 POP POP JUMP JUMPDEST PUSH0 PUSH1 0x20 DUP3 DUP5 SUB SLT ISZERO PUSH2 0x926 JUMPI PUSH2 0x925 PUSH2 0x8EA JUMP JUMPDEST JUMPDEST PUSH0 PUSH2 0x933 DUP5 DUP3 DUP6 ADD PUSH2 0x8FD JUMP JUMPDEST SWAP2 POP POP SWAP3 SWAP2 POP POP JUMP JUMPDEST PUSH0 DUP2 MLOAD SWAP1 POP SWAP2 SWAP1 POP JUMP JUMPDEST PUSH0 DUP3 DUP3 MSTORE PUSH1 0x20 DUP3 ADD SWAP1 POP SWAP3 SWAP2 POP POP JUMP JUMPDEST DUP3 DUP2 DUP4 MCOPY PUSH0 DUP4 DUP4 ADD MSTORE POP POP POP JUMP JUMPDEST PUSH0 PUSH1 0x1F NOT PUSH1 0x1F DUP4 ADD AND SWAP1 POP SWAP2 SWAP1 POP JUMP JUMPDEST PUSH0 PUSH2 0x97E DUP3 PUSH2 0x93C JUMP JUMPDEST PUSH2 0x988 DUP2 DUP6 PUSH2 0x946 JUMP JUMPDEST SWAP4 POP PUSH2 0x998 DUP2 DUP6 PUSH1 0x20 DUP7 ADD PUSH2 0x956 JUMP JUMPDEST PUSH2 0x9A1 DUP2 PUSH2 0x964 JUMP JUMPDEST DUP5 ADD SWAP2 POP POP SWAP3 SWAP2 POP POP JUMP JUMPDEST PUSH0 PUSH1 0x20 DUP3 ADD SWAP1 POP DUP2 DUP2 SUB PUSH0 DUP4 ADD MSTORE PUSH2 0x9C4 DUP2 DUP5 PUSH2 0x974 JUMP JUMPDEST SWAP1 POP SWAP3 SWAP2 POP POP JUMP JUMPDEST PUSH0 PUSH20 0xFFFFFFFFFFFFFFFFFFFFFFFFFFFFFFFFFFFFFFFF DUP3 AND SWAP1 POP SWAP2 SWAP1 POP JUMP JUMPDEST PUSH0 PUSH2 0x9F5 DUP3 PUSH2 0x9CC JUMP JUMPDEST SWAP1 POP SWAP2 SWAP1 POP JUMP JUMPDEST PUSH2 0xA05 DUP2 PUSH2 0x9EB JUMP JUMPDEST DUP3 MSTORE POP POP JUMP JUMPDEST PUSH0 PUSH1 0x20 DUP3 ADD SWAP1 POP PUSH2 0xA1E PUSH0 DUP4 ADD DUP5 PUSH2 0x9FC JUMP JUMPDEST SWAP3 SWAP2 POP POP JUMP JUMPDEST PUSH0 DUP2 SWAP1 POP SWAP2 SWAP1 POP JUMP JUMPDEST PUSH2 0xA36 DUP2 PUSH2 0xA24 JUMP JUMPDEST DUP3 MSTORE POP POP JUMP JUMPDEST PUSH0 PUSH1 0x20 DUP3 ADD SWAP1 POP PUSH2 0xA4F PUSH0 DUP4 ADD DUP5 PUSH2 0xA2D JUMP JUMPDEST SWAP3 SWAP2 POP POP JUMP JUMPDEST PUSH2 0xA5E DUP2 PUSH2 0x9EB JUMP JUMPDEST DUP2 EQ PUSH2 0xA68 JUMPI PUSH0 DUP1 REVERT JUMPDEST POP JUMP JUMPDEST PUSH0 DUP2 CALLDATALOAD SWAP1 POP PUSH2 0xA79 DUP2 PUSH2 0xA55 JUMP JUMPDEST SWAP3 SWAP2 POP POP JUMP JUMPDEST PUSH0 PUSH1 0x20 DUP3 DUP5 SUB SLT ISZERO PUSH2 0xA94 JUMPI PUSH2 0xA93 PUSH2 0x8EA JUMP JUMPDEST JUMPDEST PUSH0 PUSH2 0xAA1 DUP5 DUP3 DUP6 ADD PUSH2 0xA6B JUMP JUMPDEST SWAP2 POP POP SWAP3 SWAP2 POP POP JUMP JUMPDEST PUSH32 0x4E6F74204F776E65720000000000000000000000000000000000000000000000 PUSH0 DUP3 ADD MSTORE POP JUMP JUMPDEST PUSH0 PUSH2 0xADE PUSH1 0x9 DUP4 PUSH2 0x946 JUMP JUMPDEST SWAP2 POP PUSH2 0xAE9 DUP3 PUSH2 0xAAA JUMP JUMPDEST PUSH1 0x20 DUP3 ADD SWAP1 POP SWAP2 SWAP1 POP JUMP JUMPDEST PUSH0 PUSH1 0x20 DUP3 ADD SWAP1 POP DUP2 DUP2 SUB PUSH0 DUP4 ADD MSTORE PUSH2 0xB0B DUP2 PUSH2 0xAD2 JUMP JUMPDEST SWAP1 POP SWAP2 SWAP1 POP JUMP JUMPDEST PUSH32 0x4E487B7100000000000000000000000000000000000000000000000000000000 PUSH0 MSTORE PUSH1 0x21 PUSH1 0x4 MSTORE PUSH1 0x24 PUSH0 REVERT JUMPDEST PUSH32 0x416C72656164792044656C697665726564000000000000000000000000000000 PUSH0 DUP3 ADD MSTORE POP JUMP JUMPDEST PUSH0 PUSH2 0xB73 PUSH1 0x11 DUP4 PUSH2 0x946 JUMP JUMPDEST SWAP2 POP PUSH2 0xB7E DUP3 PUSH2 0xB3F JUMP JUMPDEST PUSH1 0x20 DUP3 ADD SWAP1 POP SWAP2 SWAP1 POP JUMP JUMPDEST PUSH0 PUSH1 0x20 DUP3 ADD SWAP1 POP DUP2 DUP2 SUB PUSH0 DUP4 ADD MSTORE PUSH2 0xBA0 DUP2 PUSH2 0xB67 JUMP JUMPDEST SWAP1 POP SWAP2 SWAP1 POP JUMP JUMPDEST PUSH32 0x5368697070656400000000000000000000000000000000000000000000000000 PUSH0 DUP3 ADD MSTORE POP JUMP JUMPDEST PUSH0 PUSH2 0xBDB PUSH1 0x7 DUP4 PUSH2 0x946 JUMP JUMPDEST SWAP2 POP PUSH2 0xBE6 DUP3 PUSH2 0xBA7 JUMP JUMPDEST PUSH1 0x20 DUP3 ADD SWAP1 POP SWAP2 SWAP1 POP JUMP JUMPDEST PUSH0 PUSH1 0x20 DUP3 ADD SWAP1 POP DUP2 DUP2 SUB PUSH0 DUP4 ADD MSTORE PUSH2 0xC08 DUP2 PUSH2 0xBCF JUMP JUMPDEST SWAP1 POP SWAP2 SWAP1 POP JUMP JUMPDEST PUSH32 0x4E487B7100000000000000000000000000000000000000000000000000000000 PUSH0 MSTORE PUSH1 0x41 PUSH1 0x4 MSTORE PUSH1 0x24 PUSH0 REVERT JUMPDEST PUSH32 0x4E487B7100000000000000000000000000000000000000000000000000000000 PUSH0 MSTORE PUSH1 0x22 PUSH1 0x4 MSTORE PUSH1 0x24 PUSH0 REVERT JUMPDEST PUSH0 PUSH1 0x2 DUP3 DIV SWAP1 POP PUSH1 0x1 DUP3 AND DUP1 PUSH2 0xC80 JUMPI PUSH1 0x7F DUP3 AND SWAP2 POP JUMPDEST PUSH1 0x20 DUP3 LT DUP2 SUB PUSH2 0xC93 JUMPI PUSH2 0xC92 PUSH2 0xC3C JUMP JUMPDEST JUMPDEST POP SWAP2 SWAP1 POP JUMP JUMPDEST PUSH0 DUP2 SWAP1 POP DUP2 PUSH0 MSTORE PUSH1 0x20 PUSH0 KECCAK256 SWAP1 POP SWAP2 SWAP1 POP JUMP JUMPDEST PUSH0 PUSH1 0x20 PUSH1 0x1F DUP4 ADD DIV SWAP1 POP SWAP2 SWAP1 POP JUMP JUMPDEST PUSH0 DUP3 DUP3 SHL SWAP1 POP SWAP3 SWAP2 POP POP JUMP JUMPDEST PUSH0 PUSH1 0x8 DUP4 MUL PUSH2 0xCF5 PUSH32 0xFFFFFFFFFFFFFFFFFFFFFFFFFFFFFFFFFFFFFFFFFFFFFFFFFFFFFFFFFFFFFFFF DUP3 PUSH2 0xCBA JUMP JUMPDEST PUSH2 0xCFF DUP7 DUP4 PUSH2 0xCBA JUMP JUMPDEST SWAP6 POP DUP1 NOT DUP5 AND SWAP4 POP DUP1 DUP7 AND DUP5 OR SWAP3 POP POP POP SWAP4 SWAP3 POP POP POP JUMP JUMPDEST PUSH0 DUP2 SWAP1 POP SWAP2 SWAP1 POP JUMP JUMPDEST PUSH0 PUSH2 0xD3A PUSH2 0xD35 PUSH2 0xD30 DUP5 PUSH2 0xA24 JUMP JUMPDEST PUSH2 0xD17 JUMP JUMPDEST PUSH2 0xA24 JUMP JUMPDEST SWAP1 POP SWAP2 SWAP1 POP JUMP JUMPDEST PUSH0 DUP2 SWAP1 POP SWAP2 SWAP1 POP JUMP JUMPDEST PUSH2 0xD53 DUP4 PUSH2 0xD20 JUMP JUMPDEST PUSH2 0xD67 PUSH2 0xD5F DUP3 PUSH2 0xD41 JUMP JUMPDEST DUP5 DUP5 SLOAD PUSH2 0xCC6 JUMP JUMPDEST DUP3 SSTORE POP POP POP POP JUMP JUMPDEST PUSH0 SWAP1 JUMP JUMPDEST PUSH2 0xD7B PUSH2 0xD6F JUMP JUMPDEST PUSH2 0xD86 DUP2 DUP5 DUP5 PUSH2 0xD4A JUMP JUMPDEST POP POP POP JUMP JUMPDEST JUMPDEST DUP2 DUP2 LT ISZERO PUSH2 0xDA9 JUMPI PUSH2 0xD9E PUSH0 DUP3 PUSH2 0xD73 JUMP JUMPDEST PUSH1 0x1 DUP2 ADD SWAP1 POP PUSH2 0xD8C JUMP JUMPDEST POP POP JUMP JUMPDEST PUSH1 0x1F DUP3 GT ISZERO PUSH2 0xDEE JUMPI PUSH2 0xDBF DUP2 PUSH2 0xC99 JUMP JUMPDEST PUSH2 0xDC8 DUP5 PUSH2 0xCAB JUMP JUMPDEST DUP2 ADD PUSH1 0x20 DUP6 LT ISZERO PUSH2 0xDD7 JUMPI DUP2 SWAP1 POP JUMPDEST PUSH2 0xDEB PUSH2 0xDE3 DUP6 PUSH2 0xCAB JUMP JUMPDEST DUP4 ADD DUP3 PUSH2 0xD8B JUMP JUMPDEST POP POP JUMPDEST POP POP POP JUMP JUMPDEST PUSH0 DUP3 DUP3 SHR SWAP1 POP SWAP3 SWAP2 POP POP JUMP JUMPDEST PUSH0 PUSH2 0xE0E PUSH0 NOT DUP5 PUSH1 0x8 MUL PUSH2 0xDF3 JUMP JUMPDEST NOT DUP1 DUP4 AND SWAP2 POP POP SWAP3 SWAP2 POP POP JUMP JUMPDEST PUSH0 PUSH2 0xE26 DUP4 DUP4 PUSH2 0xDFF JUMP JUMPDEST SWAP2 POP DUP3 PUSH1 0x2 MUL DUP3 OR SWAP1 POP SWAP3 SWAP2 POP POP JUMP JUMPDEST PUSH2 0xE3F DUP3 PUSH2 0x93C JUMP JUMPDEST PUSH8 0xFFFFFFFFFFFFFFFF DUP2 GT ISZERO PUSH2 0xE58 JUMPI PUSH2 0xE57 PUSH2 0xC0F JUMP JUMPDEST JUMPDEST PUSH2 0xE62 DUP3 SLOAD PUSH2 0xC69 JUMP JUMPDEST PUSH2 0xE6D DUP3 DUP3 DUP6 PUSH2 0xDAD JUMP JUMPDEST PUSH0 PUSH1 0x20 SWAP1 POP PUSH1 0x1F DUP4 GT PUSH1 0x1 DUP2 EQ PUSH2 0xE9E JUMPI PUSH0 DUP5 ISZERO PUSH2 0xE8C JUMPI DUP3 DUP8 ADD MLOAD SWAP1 POP JUMPDEST PUSH2 0xE96 DUP6 DUP3 PUSH2 0xE1B JUMP JUMPDEST DUP7 SSTORE POP PUSH2 0xEFD JUMP JUMPDEST PUSH1 0x1F NOT DUP5 AND PUSH2 0xEAC DUP7 PUSH2 0xC99 JUMP JUMPDEST PUSH0 JUMPDEST DUP3 DUP2 LT ISZERO PUSH2 0xED3 JUMPI DUP5 DUP10 ADD MLOAD DUP3 SSTORE PUSH1 0x1 DUP3 ADD SWAP2 POP PUSH1 0x20 DUP6 ADD SWAP5 POP PUSH1 0x20 DUP2 ADD SWAP1 POP PUSH2 0xEAE JUMP JUMPDEST DUP7 DUP4 LT ISZERO PUSH2 0xEF0 JUMPI DUP5 DUP10 ADD MLOAD PUSH2 0xEEC PUSH1 0x1F DUP10 AND DUP3 PUSH2 0xDFF JUMP JUMPDEST DUP4 SSTORE POP JUMPDEST PUSH1 0x1 PUSH1 0x2 DUP9 MUL ADD DUP9 SSTORE POP POP POP JUMPDEST POP POP POP POP POP POP JUMP JUMPDEST PUSH32 0x44656C6976657264000000000000000000000000000000000000000000000000 PUSH0 DUP3 ADD MSTORE POP JUMP JUMPDEST PUSH0 PUSH2 0xF39 PUSH1 0x8 DUP4 PUSH2 0x946 JUMP JUMPDEST SWAP2 POP PUSH2 0xF44 DUP3 PUSH2 0xF05 JUMP JUMPDEST PUSH1 0x20 DUP3 ADD SWAP1 POP SWAP2 SWAP1 POP JUMP JUMPDEST PUSH0 PUSH1 0x20 DUP3 ADD SWAP1 POP DUP2 DUP2 SUB PUSH0 DUP4 ADD MSTORE PUSH2 0xF66 DUP2 PUSH2 0xF2D JUMP JUMPDEST SWAP1 POP SWAP2 SWAP1 POP JUMP JUMPDEST PUSH32 0x70656E64696E6700000000000000000000000000000000000000000000000000 PUSH0 DUP3 ADD MSTORE POP JUMP JUMPDEST PUSH0 PUSH2 0xFA1 PUSH1 0x7 DUP4 PUSH2 0x946 JUMP JUMPDEST SWAP2 POP PUSH2 0xFAC DUP3 PUSH2 0xF6D JUMP JUMPDEST PUSH1 0x20 DUP3 ADD SWAP1 POP SWAP2 SWAP1 POP JUMP JUMPDEST PUSH0 PUSH1 0x20 DUP3 ADD SWAP1 POP DUP2 DUP2 SUB PUSH0 DUP4 ADD MSTORE PUSH2 0xFCE DUP2 PUSH2 0xF95 JUMP JUMPDEST SWAP1 POP SWAP2 SWAP1 POP JUMP JUMPDEST PUSH32 0x496E73756666696369656E742042616C616E6365000000000000000000000000 PUSH0 DUP3 ADD MSTORE POP JUMP JUMPDEST PUSH0 PUSH2 0x1009 PUSH1 0x14 DUP4 PUSH2 0x946 JUMP JUMPDEST SWAP2 POP PUSH2 0x1014 DUP3 PUSH2 0xFD5 JUMP JUMPDEST PUSH1 0x20 DUP3 ADD SWAP1 POP SWAP2 SWAP1 POP JUMP JUMPDEST PUSH0 PUSH1 0x20 DUP3 ADD SWAP1 POP DUP2 DUP2 SUB PUSH0 DUP4 ADD MSTORE PUSH2 0x1036 DUP2 PUSH2 0xFFD JUMP JUMPDEST SWAP1 POP SWAP2 SWAP1 POP JUMP INVALID 0x4F PUSH19 0x64657220486173204265656E20506C61636564 KECCAK256 MSTORE8 PUSH22 0x636365737366756C6C79A26469706673582212202083 0xE2 DUP13 EXTCODESIZE 0xE8 0xBC CALLER PUSH11 0xAD5C05B95EDDCDCFD755C9 0xCE SGT EXTCODECOPY 0x28 PUSH1 0x64 RETURNDATACOPY SELFDESTRUCT PUSH27 0x3E16064736F6C634300081A003300000000000000000000000000 "
		},
		"gasEstimates": {
			"creation": {
				"codeDepositCost": "849000",
				"executionCost": "infinite",
				"totalCost": "infinite"
			},
			"external": {
				"Cust_add()": "2574",
				"Get_amount()": "163",
				"Owner_ship(address)": "infinite",
				"amount()": "2470",
				"message()": "infinite",
				"owner()": "2528",
				"set_status(uint8)": "infinite",
				"update_balance()": "24548"
			},
			"internal": {
				"get_status()": "infinite"
			}
		},
		"methodIdentifiers": {
			"Cust_add()": "f94cc8c4",
			"Get_amount()": "f15820ff",
			"Owner_ship(address)": "adc80562",
			"amount()": "aa8c217c",
			"message()": "e21f37ce",
			"owner()": "8da5cb5b",
			"set_status(uint8)": "6df427bc",
			"update_balance()": "c2133136"
		}
	},
	"abi": [
		{
			"inputs": [],
			"stateMutability": "nonpayable",
			"type": "constructor"
		},
		{
			"anonymous": false,
			"inputs": [
				{
					"indexed": false,
					"internalType": "string",
					"name": "mymsg",
					"type": "string"
				}
			],
			"name": "Status_set",
			"type": "event"
		},
		{
			"inputs": [],
			"name": "Cust_add",
			"outputs": [
				{
					"internalType": "address",
					"name": "",
					"type": "address"
				}
			],
			"stateMutability": "view",
			"type": "function"
		},
		{
			"inputs": [],
			"name": "Get_amount",
			"outputs": [],
			"stateMutability": "payable",
			"type": "function"
		},
		{
			"inputs": [
				{
					"internalType": "address",
					"name": "new_add",
					"type": "address"
				}
			],
			"name": "Owner_ship",
			"outputs": [],
			"stateMutability": "nonpayable",
			"type": "function"
		},
		{
			"inputs": [],
			"name": "amount",
			"outputs": [
				{
					"internalType": "uint256",
					"name": "",
					"type": "uint256"
				}
			],
			"stateMutability": "view",
			"type": "function"
		},
		{
			"inputs": [],
			"name": "message",
			"outputs": [
				{
					"internalType": "string",
					"name": "",
					"type": "string"
				}
			],
			"stateMutability": "view",
			"type": "function"
		},
		{
			"inputs": [],
			"name": "owner",
			"outputs": [
				{
					"internalType": "address",
					"name": "",
					"type": "address"
				}
			],
			"stateMutability": "view",
			"type": "function"
		},
		{
			"inputs": [
				{
					"internalType": "enum mini_project.Status",
					"name": "x",
					"type": "uint8"
				}
			],
			"name": "set_status",
			"outputs": [
				{
					"internalType": "string",
					"name": "",
					"type": "string"
				}
			],
			"stateMutability": "nonpayable",
			"type": "function"
		},
		{
			"inputs": [],
			"name": "update_balance",
			"outputs": [
				{
					"internalType": "uint256",
					"name": "",
					"type": "uint256"
				}
			],
			"stateMutability": "nonpayable",
			"type": "function"
		}
	]
}